{
	"src/ribbonVault.sol": {
		"vault": {
			"abi": [
				{
					"inputs": [
						{
							"internalType": "address",
							"name": "owner",
							"type": "address"
						},
						{
							"internalType": "string",
							"name": "name",
							"type": "string"
						},
						{
							"internalType": "address",
							"name": "paymentAddress",
							"type": "address"
						},
						{
							"internalType": "address",
							"name": "pointsaddress",
							"type": "address"
						}
					],
					"stateMutability": "nonpayable",
					"type": "constructor"
				},
				{
					"inputs": [
						{
							"internalType": "address",
							"name": "target",
							"type": "address"
						}
					],
					"name": "AddressEmptyCode",
					"type": "error"
				},
				{
					"inputs": [
						{
							"internalType": "address",
							"name": "account",
							"type": "address"
						}
					],
					"name": "AddressInsufficientBalance",
					"type": "error"
				},
				{
					"inputs": [],
					"name": "ECDSAInvalidSignature",
					"type": "error"
				},
				{
					"inputs": [
						{
							"internalType": "uint256",
							"name": "length",
							"type": "uint256"
						}
					],
					"name": "ECDSAInvalidSignatureLength",
					"type": "error"
				},
				{
					"inputs": [
						{
							"internalType": "bytes32",
							"name": "s",
							"type": "bytes32"
						}
					],
					"name": "ECDSAInvalidSignatureS",
					"type": "error"
				},
				{
					"inputs": [
						{
							"internalType": "uint256",
							"name": "deadline",
							"type": "uint256"
						}
					],
					"name": "ERC2612ExpiredSignature",
					"type": "error"
				},
				{
					"inputs": [
						{
							"internalType": "address",
							"name": "signer",
							"type": "address"
						},
						{
							"internalType": "address",
							"name": "owner",
							"type": "address"
						}
					],
					"name": "ERC2612InvalidSigner",
					"type": "error"
				},
				{
					"inputs": [],
					"name": "FailedInnerCall",
					"type": "error"
				},
				{
					"inputs": [],
					"name": "InvalidShortString",
					"type": "error"
				},
				{
					"inputs": [
						{
							"internalType": "address",
							"name": "owner",
							"type": "address"
						}
					],
					"name": "OwnableInvalidOwner",
					"type": "error"
				},
				{
					"inputs": [
						{
							"internalType": "address",
							"name": "account",
							"type": "address"
						}
					],
					"name": "OwnableUnauthorizedAccount",
					"type": "error"
				},
				{
					"inputs": [
						{
							"internalType": "address",
							"name": "token",
							"type": "address"
						}
					],
					"name": "SafeERC20FailedOperation",
					"type": "error"
				},
				{
					"inputs": [
						{
							"internalType": "string",
							"name": "str",
							"type": "string"
						}
					],
					"name": "StringTooLong",
					"type": "error"
				},
				{
					"anonymous": false,
					"inputs": [],
					"name": "EIP712DomainChanged",
					"type": "event"
				},
				{
					"anonymous": false,
					"inputs": [
						{
							"indexed": true,
							"internalType": "address",
							"name": "previousOwner",
							"type": "address"
						},
						{
							"indexed": true,
							"internalType": "address",
							"name": "newOwner",
							"type": "address"
						}
					],
					"name": "OwnershipTransferred",
					"type": "event"
				},
				{
					"anonymous": false,
					"inputs": [
						{
							"indexed": true,
							"internalType": "address",
							"name": "user",
							"type": "address"
						},
						{
							"indexed": true,
							"internalType": "uint256",
							"name": "timestamp",
							"type": "uint256"
						},
						{
							"indexed": false,
							"internalType": "uint256",
							"name": "amount",
							"type": "uint256"
						}
					],
					"name": "PointsClaimed",
					"type": "event"
				},
				{
					"anonymous": false,
					"inputs": [
						{
							"indexed": true,
							"internalType": "address",
							"name": "user",
							"type": "address"
						},
						{
							"indexed": true,
							"internalType": "uint256",
							"name": "timestamp",
							"type": "uint256"
						},
						{
							"indexed": false,
							"internalType": "uint256",
							"name": "pointToSwap",
							"type": "uint256"
						},
						{
							"indexed": false,
							"internalType": "uint256",
							"name": "paymentTokenRecieved",
							"type": "uint256"
						},
						{
							"indexed": false,
							"internalType": "uint256",
							"name": "_fees",
							"type": "uint256"
						}
					],
					"name": "swap",
					"type": "event"
				},
				{
					"inputs": [],
					"name": "DOMAIN_SEPARATOR",
					"outputs": [
						{
							"internalType": "bytes32",
							"name": "",
							"type": "bytes32"
						}
					],
					"stateMutability": "view",
					"type": "function"
				},
				{
					"inputs": [],
					"name": "TotalfeescollectedPaymentCoin",
					"outputs": [
						{
							"internalType": "uint256",
							"name": "",
							"type": "uint256"
						}
					],
					"stateMutability": "view",
					"type": "function"
				},
				{
					"inputs": [],
					"name": "admin",
					"outputs": [
						{
							"internalType": "address",
							"name": "",
							"type": "address"
						}
					],
					"stateMutability": "view",
					"type": "function"
				},
				{
					"inputs": [
						{
							"internalType": "uint256",
							"name": "pointToSwap",
							"type": "uint256"
						}
					],
					"name": "checkAmountToRecive",
					"outputs": [
						{
							"internalType": "uint256",
							"name": "",
							"type": "uint256"
						}
					],
					"stateMutability": "view",
					"type": "function"
				},
				{
					"inputs": [],
					"name": "claimedPaymentCoin",
					"outputs": [
						{
							"internalType": "uint256",
							"name": "",
							"type": "uint256"
						}
					],
					"stateMutability": "view",
					"type": "function"
				},
				{
					"inputs": [],
					"name": "depositFee",
					"outputs": [
						{
							"internalType": "uint256",
							"name": "",
							"type": "uint256"
						}
					],
					"stateMutability": "view",
					"type": "function"
				},
				{
					"inputs": [],
					"name": "eip712Domain",
					"outputs": [
						{
							"internalType": "bytes1",
							"name": "fields",
							"type": "bytes1"
						},
						{
							"internalType": "string",
							"name": "name",
							"type": "string"
						},
						{
							"internalType": "string",
							"name": "version",
							"type": "string"
						},
						{
							"internalType": "uint256",
							"name": "chainId",
							"type": "uint256"
						},
						{
							"internalType": "address",
							"name": "verifyingContract",
							"type": "address"
						},
						{
							"internalType": "bytes32",
							"name": "salt",
							"type": "bytes32"
						},
						{
							"internalType": "uint256[]",
							"name": "extensions",
							"type": "uint256[]"
						}
					],
					"stateMutability": "view",
					"type": "function"
				},
				{
					"inputs": [
						{
							"internalType": "address",
							"name": "_tokenAddress",
							"type": "address"
						},
						{
							"internalType": "address",
							"name": "_to",
							"type": "address"
						},
						{
							"internalType": "uint256",
							"name": "_amount",
							"type": "uint256"
						}
					],
					"name": "emergencyWithdraw",
					"outputs": [],
					"stateMutability": "nonpayable",
					"type": "function"
				},
				{
					"inputs": [
						{
							"internalType": "bool",
							"name": "_freeze",
							"type": "bool"
						}
					],
					"name": "freezeContract",
					"outputs": [],
					"stateMutability": "nonpayable",
					"type": "function"
				},
				{
					"inputs": [],
					"name": "freezePermit",
					"outputs": [
						{
							"internalType": "bool",
							"name": "",
							"type": "bool"
						}
					],
					"stateMutability": "view",
					"type": "function"
				},
				{
					"inputs": [],
					"name": "initContractBalancePaymentCoin",
					"outputs": [
						{
							"internalType": "uint256",
							"name": "",
							"type": "uint256"
						}
					],
					"stateMutability": "view",
					"type": "function"
				},
				{
					"inputs": [],
					"name": "owner",
					"outputs": [
						{
							"internalType": "address",
							"name": "",
							"type": "address"
						}
					],
					"stateMutability": "view",
					"type": "function"
				},
				{
					"inputs": [
						{
							"internalType": "address",
							"name": "user",
							"type": "address"
						},
						{
							"internalType": "uint256",
							"name": "amount",
							"type": "uint256"
						},
						{
							"internalType": "uint256",
							"name": "deadline",
							"type": "uint256"
						},
						{
							"internalType": "uint8",
							"name": "v",
							"type": "uint8"
						},
						{
							"internalType": "bytes32",
							"name": "r",
							"type": "bytes32"
						},
						{
							"internalType": "bytes32",
							"name": "s",
							"type": "bytes32"
						}
					],
					"name": "permitClaimPoints",
					"outputs": [],
					"stateMutability": "nonpayable",
					"type": "function"
				},
				{
					"inputs": [
						{
							"internalType": "address",
							"name": "user",
							"type": "address"
						},
						{
							"internalType": "uint256",
							"name": "pointToSwap",
							"type": "uint256"
						},
						{
							"internalType": "uint256",
							"name": "deadline",
							"type": "uint256"
						},
						{
							"internalType": "uint8",
							"name": "v",
							"type": "uint8"
						},
						{
							"internalType": "bytes32",
							"name": "r",
							"type": "bytes32"
						},
						{
							"internalType": "bytes32",
							"name": "s",
							"type": "bytes32"
						}
					],
					"name": "permitSwapToPaymentCoin",
					"outputs": [],
					"stateMutability": "nonpayable",
					"type": "function"
				},
				{
					"inputs": [],
					"name": "pointsMin",
					"outputs": [
						{
							"internalType": "uint256",
							"name": "",
							"type": "uint256"
						}
					],
					"stateMutability": "view",
					"type": "function"
				},
				{
					"inputs": [],
					"name": "rate",
					"outputs": [
						{
							"internalType": "uint256",
							"name": "",
							"type": "uint256"
						}
					],
					"stateMutability": "view",
					"type": "function"
				},
				{
					"inputs": [],
					"name": "renounceOwnership",
					"outputs": [],
					"stateMutability": "nonpayable",
					"type": "function"
				},
				{
					"inputs": [
						{
							"internalType": "address",
							"name": "_admin",
							"type": "address"
						}
					],
					"name": "setAdmin",
					"outputs": [],
					"stateMutability": "nonpayable",
					"type": "function"
				},
				{
					"inputs": [
						{
							"internalType": "uint256",
							"name": "_pointsMin",
							"type": "uint256"
						}
					],
					"name": "setMinPointsToSWap",
					"outputs": [],
					"stateMutability": "nonpayable",
					"type": "function"
				},
				{
					"inputs": [
						{
							"internalType": "uint256",
							"name": "_fee",
							"type": "uint256"
						}
					],
					"name": "setPaymentDepositfees",
					"outputs": [],
					"stateMutability": "nonpayable",
					"type": "function"
				},
				{
					"inputs": [
						{
							"internalType": "uint256",
							"name": "_rate",
							"type": "uint256"
						}
					],
					"name": "setRate",
					"outputs": [],
					"stateMutability": "nonpayable",
					"type": "function"
				},
				{
					"inputs": [
						{
							"internalType": "uint256",
							"name": "_fee",
							"type": "uint256"
						}
					],
					"name": "setWithdrawalFee",
					"outputs": [],
					"stateMutability": "nonpayable",
					"type": "function"
				},
				{
					"inputs": [
						{
							"internalType": "address",
							"name": "paymentAddress",
							"type": "address"
						},
						{
							"internalType": "address",
							"name": "pointsaddress",
							"type": "address"
						}
					],
					"name": "setpaymentTokenAndpoints",
					"outputs": [],
					"stateMutability": "nonpayable",
					"type": "function"
				},
				{
					"inputs": [
						{
							"internalType": "address",
							"name": "newOwner",
							"type": "address"
						}
					],
					"name": "transferOwnership",
					"outputs": [],
					"stateMutability": "nonpayable",
					"type": "function"
				},
				{
					"inputs": [],
					"name": "vaultName",
					"outputs": [
						{
							"internalType": "string",
							"name": "",
							"type": "string"
						}
					],
					"stateMutability": "view",
					"type": "function"
				},
				{
					"inputs": [],
					"name": "withdrawalFee",
					"outputs": [
						{
							"internalType": "uint256",
							"name": "",
							"type": "uint256"
						}
					],
					"stateMutability": "view",
					"type": "function"
				},
				{
					"inputs": [
						{
							"internalType": "address",
							"name": "feeTakerAddress",
							"type": "address"
						}
					],
					"name": "withdrawfees",
					"outputs": [],
					"stateMutability": "nonpayable",
					"type": "function"
				}
			],
			"devdoc": {
				"errors": {
					"AddressEmptyCode(address)": [
						{
							"details": "There's no code at `target` (it is not a contract)."
						}
					],
					"AddressInsufficientBalance(address)": [
						{
							"details": "The ETH balance of the account is not enough to perform the operation."
						}
					],
					"ECDSAInvalidSignature()": [
						{
							"details": "The signature derives the `address(0)`."
						}
					],
					"ECDSAInvalidSignatureLength(uint256)": [
						{
							"details": "The signature has an invalid length."
						}
					],
					"ECDSAInvalidSignatureS(bytes32)": [
						{
							"details": "The signature has an S value that is in the upper half order."
						}
					],
					"FailedInnerCall()": [
						{
							"details": "A call to an address target failed. The target may have reverted."
						}
					],
					"OwnableInvalidOwner(address)": [
						{
							"details": "The owner is not a valid owner account. (eg. `address(0)`)"
						}
					],
					"OwnableUnauthorizedAccount(address)": [
						{
							"details": "The caller account is not authorized to perform an operation."
						}
					],
					"SafeERC20FailedOperation(address)": [
						{
							"details": "An operation with an ERC20 token failed."
						}
					]
				},
				"events": {
					"EIP712DomainChanged()": {
						"details": "MAY be emitted to signal that the domain could have changed."
					}
				},
				"kind": "dev",
				"methods": {
					"checkAmountToRecive(uint256)": {
						"details": "used to calcultae amount of the worldcoin token or other payment token to recieve at a specific rate specified"
					},
					"constructor": {
						"params": {
							"name": "the name of the vault",
							"owner": "the admin of the contract responsible for offchain signing",
							"paymentAddress": "the contract address that the points would be swaped into",
							"pointsaddress": "the address of the point contract, the offchain virtual points is converted to the points on chain"
						}
					},
					"eip712Domain()": {
						"details": "See {IERC-5267}."
					},
					"emergencyWithdraw(address,address,uint256)": {
						"details": "this is used to withdraw any asset stuck in the contract by mistake by only the admin"
					},
					"freezeContract(bool)": {
						"details": "used to stop the permit functions to claim point and and swap points to worldcoin token or other payment coin "
					},
					"owner()": {
						"details": "Returns the address of the current owner."
					},
					"permitClaimPoints(address,uint256,uint256,uint8,bytes32,bytes32)": {
						"details": "admin signs a user ,amount ,deadline  ofchain and pass the signature  to the user to claim points ,but this is done automatically "
					},
					"permitSwapToPaymentCoin(address,uint256,uint256,uint8,bytes32,bytes32)": {
						"details": "admin signs a user ,amount ,deadline  ofchain and pass the signature  to the user to swap points to worldcoin or payment coin ,but this is done automatically "
					},
					"renounceOwnership()": {
						"details": "Leaves the contract without owner. It will not be possible to call `onlyOwner` functions. Can only be called by the current owner. NOTE: Renouncing ownership will leave the contract without an owner, thereby disabling any functionality that is only available to the owner."
					},
					"setAdmin(address)": {
						"details": "update padmin address"
					},
					"setMinPointsToSWap(uint256)": {
						"details": "set minimum points to swap without decimal"
					},
					"setPaymentDepositfees(uint256)": {
						"details": "set depositFee  without decimal "
					},
					"setRate(uint256)": {
						"details": "set _rate  without decimal "
					},
					"setWithdrawalFee(uint256)": {
						"details": "set withdrawalFee  without decimal "
					},
					"setpaymentTokenAndpoints(address,address)": {
						"details": "update points contract address and worldcoin token or other payment contract address"
					},
					"transferOwnership(address)": {
						"details": "Transfers ownership of the contract to a new account (`newOwner`). Can only be called by the current owner."
					},
					"withdrawfees(address)": {
						"details": "used withdraw fees when a new deposit is address into the contract the computation allows fees to be deducted when new deposit is added  when no new deposit is added and this function is called it will revert"
					}
				},
				"title": "RibbonVault",
				"version": 1
			},
			"evm": {
				"assembly": "    /* \"src/ribbonVault.sol\":650:9669  contract  vault is Ownable,EIP712 {... */\n  mstore(0x40, 0x0160)\n    /* \"src/ribbonVault.sol\":2527:3006  constructor(address owner,string memory name,address paymentAddress,address pointsaddress)Ownable(owner)EIP712(name, \"1\"){... */\n  callvalue\n  dup1\n  iszero\n  tag_1\n  jumpi\n  0x00\n  dup1\n  revert\ntag_1:\n  pop\n  mload(0x40)\n  sub(codesize, bytecodeSize)\n  dup1\n  bytecodeSize\n  dup4\n  codecopy\n  dup2\n  add\n  0x40\n  dup2\n  swap1\n  mstore\n  tag_2\n  swap2\n  tag_3\n  jump\t// in\ntag_2:\n    /* \"@openzeppelin/contracts/utils/cryptography/EIP712.sol\":3328:3759  constructor(string memory name, string memory version) {... */\n  0x40\n  dup1\n  mload\n  dup1\n  dup3\n  add\n  swap1\n  swap2\n  mstore\n  0x01\n  dup2\n  mstore\n  shl(0xf8, 0x31)\n  0x20\n  dup3\n  add\n  mstore\n    /* \"src/ribbonVault.sol\":2638:2642  name */\n  dup4\n  swap1\n    /* \"src/ribbonVault.sol\":2625:2630  owner */\n  dup6\n  sub(shl(0xa0, 0x01), 0x01)\n    /* \"@openzeppelin/contracts/access/Ownable.sol\":1273:1299  initialOwner == address(0) */\n  dup2\n  and\n    /* \"@openzeppelin/contracts/access/Ownable.sol\":1269:1364  if (initialOwner == address(0)) {... */\n  tag_8\n  jumpi\n    /* \"@openzeppelin/contracts/access/Ownable.sol\":1322:1353  OwnableInvalidOwner(address(0)) */\n  mload(0x40)\n  shl(0xe0, 0x1e4fbdf7)\n  dup2\n  mstore\n    /* \"@openzeppelin/contracts/access/Ownable.sol\":1350:1351  0 */\n  0x00\n    /* \"@openzeppelin/contracts/access/Ownable.sol\":1322:1353  OwnableInvalidOwner(address(0)) */\n  0x04\n  dup3\n  add\n    /* \"#utility.yul\":1887:1938   */\n  mstore\n    /* \"#utility.yul\":1860:1878   */\n  0x24\n  add\n    /* \"@openzeppelin/contracts/access/Ownable.sol\":1322:1353  OwnableInvalidOwner(address(0)) */\ntag_9:\n  mload(0x40)\n  dup1\n  swap2\n  sub\n  swap1\n  revert\n    /* \"@openzeppelin/contracts/access/Ownable.sol\":1269:1364  if (initialOwner == address(0)) {... */\ntag_8:\n    /* \"@openzeppelin/contracts/access/Ownable.sol\":1373:1405  _transferOwnership(initialOwner) */\n  tag_11\n    /* \"@openzeppelin/contracts/access/Ownable.sol\":1392:1404  initialOwner */\n  dup2\n    /* \"@openzeppelin/contracts/access/Ownable.sol\":1373:1391  _transferOwnership */\n  tag_12\n    /* \"@openzeppelin/contracts/access/Ownable.sol\":1373:1405  _transferOwnership(initialOwner) */\n  jump\t// in\ntag_11:\n  pop\n    /* \"@openzeppelin/contracts/utils/cryptography/EIP712.sol\":3401:3446  name.toShortStringWithFallback(_nameFallback) */\n  tag_14\n    /* \"@openzeppelin/contracts/utils/cryptography/EIP712.sol\":3401:3405  name */\n  dup3\n    /* \"@openzeppelin/contracts/utils/cryptography/EIP712.sol\":3432:3445  _nameFallback */\n  0x01\n    /* \"@openzeppelin/contracts/utils/cryptography/EIP712.sol\":3401:3431  name.toShortStringWithFallback */\n  tag_15\n    /* \"@openzeppelin/contracts/utils/cryptography/EIP712.sol\":3401:3446  name.toShortStringWithFallback(_nameFallback) */\n  jump\t// in\ntag_14:\n    /* \"@openzeppelin/contracts/utils/cryptography/EIP712.sol\":3393:3446  _name = name.toShortStringWithFallback(_nameFallback) */\n  0x0120\n  mstore\n    /* \"@openzeppelin/contracts/utils/cryptography/EIP712.sol\":3467:3518  version.toShortStringWithFallback(_versionFallback) */\n  tag_16\n    /* \"@openzeppelin/contracts/utils/cryptography/EIP712.sol\":3467:3474  version */\n  dup2\n    /* \"@openzeppelin/contracts/utils/cryptography/EIP712.sol\":3501:3517  _versionFallback */\n  0x02\n    /* \"@openzeppelin/contracts/utils/cryptography/EIP712.sol\":3467:3500  version.toShortStringWithFallback */\n  tag_15\n    /* \"@openzeppelin/contracts/utils/cryptography/EIP712.sol\":3467:3518  version.toShortStringWithFallback(_versionFallback) */\n  jump\t// in\ntag_16:\n    /* \"@openzeppelin/contracts/utils/cryptography/EIP712.sol\":3456:3518  _version = version.toShortStringWithFallback(_versionFallback) */\n  0x0140\n  mstore\n    /* \"@openzeppelin/contracts/utils/cryptography/EIP712.sol\":3542:3564  keccak256(bytes(name)) */\n  dup2\n  mload\n  0x20\n  dup1\n  dup5\n  add\n  swap2\n  swap1\n  swap2\n  keccak256\n    /* \"@openzeppelin/contracts/utils/cryptography/EIP712.sol\":3528:3564  _hashedName = keccak256(bytes(name)) */\n  0xe0\n  mstore\n    /* \"@openzeppelin/contracts/utils/cryptography/EIP712.sol\":3591:3616  keccak256(bytes(version)) */\n  dup2\n  mload\n  swap1\n  dup3\n  add\n  keccak256\n    /* \"@openzeppelin/contracts/utils/cryptography/EIP712.sol\":3574:3616  _hashedVersion = keccak256(bytes(version)) */\n  0x0100\n  mstore\n    /* \"@openzeppelin/contracts/utils/cryptography/EIP712.sol\":3644:3657  block.chainid */\n  chainid\n    /* \"@openzeppelin/contracts/utils/cryptography/EIP712.sol\":3627:3657  _cachedChainId = block.chainid */\n  0xa0\n  mstore\n    /* \"@openzeppelin/contracts/utils/cryptography/EIP712.sol\":3692:3715  _buildDomainSeparator() */\n  tag_17\n    /* \"@openzeppelin/contracts/utils/cryptography/EIP712.sol\":4226:4237  _hashedName */\n  mload(0xe0)\n    /* \"@openzeppelin/contracts/utils/cryptography/EIP712.sol\":4239:4253  _hashedVersion */\n  mload(0x0100)\n    /* \"@openzeppelin/contracts/utils/cryptography/EIP712.sol\":4204:4284  abi.encode(TYPE_HASH, _hashedName, _hashedVersion, block.chainid, address(this)) */\n  0x40\n  dup1\n  mload\n    /* \"@openzeppelin/contracts/utils/cryptography/EIP712.sol\":2079:2174  keccak256(\"EIP712Domain(string name,string version,uint256 chainId,address verifyingContract)\") */\n  0x8b73c3c69bb8fe3d512ecc4cf759cc79239f7b179b0ffacaa9a75d522b39400f\n    /* \"@openzeppelin/contracts/utils/cryptography/EIP712.sol\":4204:4284  abi.encode(TYPE_HASH, _hashedName, _hashedVersion, block.chainid, address(this)) */\n  0x20\n  dup3\n  add\n    /* \"#utility.yul\":6723:6748   */\n  mstore\n    /* \"#utility.yul\":6764:6782   */\n  swap1\n  dup2\n  add\n    /* \"#utility.yul\":6757:6791   */\n  swap3\n  swap1\n  swap3\n  mstore\n    /* \"#utility.yul\":6807:6825   */\n  0x60\n  dup3\n  add\n    /* \"#utility.yul\":6800:6834   */\n  mstore\n    /* \"@openzeppelin/contracts/utils/cryptography/EIP712.sol\":4255:4268  block.chainid */\n  chainid\n    /* \"#utility.yul\":6850:6868   */\n  0x80\n  dup3\n  add\n    /* \"#utility.yul\":6843:6877   */\n  mstore\n    /* \"@openzeppelin/contracts/utils/cryptography/EIP712.sol\":4278:4282  this */\n  address\n    /* \"#utility.yul\":6893:6912   */\n  0xa0\n  dup3\n  add\n    /* \"#utility.yul\":6886:6947   */\n  mstore\n    /* \"@openzeppelin/contracts/utils/cryptography/EIP712.sol\":4168:4175  bytes32 */\n  0x00\n  swap1\n    /* \"#utility.yul\":6695:6714   */\n  0xc0\n  add\n    /* \"@openzeppelin/contracts/utils/cryptography/EIP712.sol\":4204:4284  abi.encode(TYPE_HASH, _hashedName, _hashedVersion, block.chainid, address(this)) */\n  mload(0x40)\n  0x20\n  dup2\n  dup4\n  sub\n  sub\n  dup2\n  mstore\n  swap1\n  0x40\n  mstore\n    /* \"@openzeppelin/contracts/utils/cryptography/EIP712.sol\":4194:4285  keccak256(abi.encode(TYPE_HASH, _hashedName, _hashedVersion, block.chainid, address(this))) */\n  dup1\n  mload\n  swap1\n  0x20\n  add\n  keccak256\n    /* \"@openzeppelin/contracts/utils/cryptography/EIP712.sol\":4187:4285  return keccak256(abi.encode(TYPE_HASH, _hashedName, _hashedVersion, block.chainid, address(this))) */\n  swap1\n  pop\n    /* \"@openzeppelin/contracts/utils/cryptography/EIP712.sol\":4113:4292  function _buildDomainSeparator() private view returns (bytes32) {... */\n  swap1\n  jump\n    /* \"@openzeppelin/contracts/utils/cryptography/EIP712.sol\":3692:3715  _buildDomainSeparator() */\ntag_17:\n    /* \"@openzeppelin/contracts/utils/cryptography/EIP712.sol\":3667:3715  _cachedDomainSeparator = _buildDomainSeparator() */\n  0x80\n  mstore\n  pop\n  pop\n    /* \"@openzeppelin/contracts/utils/cryptography/EIP712.sol\":3747:3751  this */\n  address\n    /* \"@openzeppelin/contracts/utils/cryptography/EIP712.sol\":3725:3752  _cachedThis = address(this) */\n  0xc0\n  mstore\n    /* \"src/ribbonVault.sol\":2659:2668  vaultName */\n  0x0e\n    /* \"src/ribbonVault.sol\":2659:2673  vaultName=name */\n  tag_20\n    /* \"src/ribbonVault.sol\":2669:2673  name */\n  dup5\n    /* \"src/ribbonVault.sol\":2659:2668  vaultName */\n  dup3\n    /* \"src/ribbonVault.sol\":2659:2673  vaultName=name */\n  tag_21\n  jump\t// in\ntag_20:\n  pop\n    /* \"src/ribbonVault.sol\":2696:2698  10 */\n  0x0a\n    /* \"src/ribbonVault.sol\":2684:2694  depositFee */\n  0x07\n    /* \"src/ribbonVault.sol\":2684:2698  depositFee =10 */\n  sstore\n    /* \"src/ribbonVault.sol\":2716:2720  5000 */\n  0x1388\n    /* \"src/ribbonVault.sol\":2709:2713  rate */\n  0x08\n    /* \"src/ribbonVault.sol\":2709:2720  rate = 5000 */\n  sstore\n    /* \"src/ribbonVault.sol\":2731:2744  _Ipaymentcoin */\n  0x03\n    /* \"src/ribbonVault.sol\":2731:2770  _Ipaymentcoin = IERC20T(paymentAddress) */\n  dup1\n  sload\n  sub(shl(0xa0, 0x01), 0x01)\n  dup1\n  dup6\n  and\n  not(sub(shl(0xa0, 0x01), 0x01))\n  swap3\n  dup4\n  and\n  dup2\n  or\n  swap1\n  swap4\n  sstore\n  0x05\n    /* \"src/ribbonVault.sol\":2781:2820  _IpaymentcoinT = IERC20(paymentAddress) */\n  dup1\n  sload\n  dup4\n  and\n  swap1\n  swap4\n  or\n  swap1\n  swap3\n  sstore\n  0x04\n    /* \"src/ribbonVault.sol\":2831:2868  _Ipointscoin = IERC20T(pointsaddress) */\n  dup1\n  sload\n  swap3\n  dup5\n  and\n  swap3\n  dup3\n  and\n  dup4\n  or\n  dup2\n  sstore\n    /* \"src/ribbonVault.sol\":2879:2892  _IpointscoinT */\n  0x06\n    /* \"src/ribbonVault.sol\":2879:2916  _IpointscoinT = IERC20(pointsaddress) */\n  dup1\n  sload\n  swap1\n  swap3\n  and\n  dup4\n  or\n  swap1\n  swap2\n  sstore\n    /* \"src/ribbonVault.sol\":2949:2972  _Ipointscoin.decimals() */\n  0x40\n  dup1\n  mload\n  shl(0xe0, 0x313ce567)\n  dup2\n  mstore\n  swap1\n  mload\n    /* \"src/ribbonVault.sol\":2949:2970  _Ipointscoin.decimals */\n  0x313ce567\n  swap3\n    /* \"src/ribbonVault.sol\":2949:2972  _Ipointscoin.decimals() */\n  dup3\n  dup2\n  add\n  swap3\n  0x20\n  swap3\n  swap2\n  swap1\n  dup3\n  swap1\n  sub\n  add\n  dup2\n    /* \"src/ribbonVault.sol\":2831:2868  _Ipointscoin = IERC20T(pointsaddress) */\n  dup7\n    /* \"src/ribbonVault.sol\":2949:2972  _Ipointscoin.decimals() */\n  gas\n  staticcall\n  iszero\n  dup1\n  iszero\n  tag_23\n  jumpi\n  returndatasize\n  0x00\n  dup1\n  returndatacopy\n  revert(0x00, returndatasize)\ntag_23:\n  pop\n  pop\n  pop\n  pop\n  mload(0x40)\n  returndatasize\n  not(0x1f)\n  0x1f\n  dup3\n  add\n  and\n  dup3\n  add\n  dup1\n  0x40\n  mstore\n  pop\n  dup2\n  add\n  swap1\n  tag_24\n  swap2\n  swap1\n  tag_25\n  jump\t// in\ntag_24:\n    /* \"src/ribbonVault.sol\":2945:2972  10**_Ipointscoin.decimals() */\n  tag_26\n  swap1\n    /* \"src/ribbonVault.sol\":2945:2947  10 */\n  0x0a\n    /* \"src/ribbonVault.sol\":2945:2972  10**_Ipointscoin.decimals() */\n  tag_27\n  jump\t// in\ntag_26:\n    /* \"src/ribbonVault.sol\":2939:2972  10000*10**_Ipointscoin.decimals() */\n  tag_28\n  swap1\n    /* \"src/ribbonVault.sol\":2939:2944  10000 */\n  0x2710\n    /* \"src/ribbonVault.sol\":2939:2972  10000*10**_Ipointscoin.decimals() */\n  tag_29\n  jump\t// in\ntag_28:\n    /* \"src/ribbonVault.sol\":2927:2936  pointsMin */\n  0x0a\n    /* \"src/ribbonVault.sol\":2927:2972  pointsMin = 10000*10**_Ipointscoin.decimals() */\n  sstore\n  pop\n  pop\n    /* \"src/ribbonVault.sol\":2983:2988  admin */\n  0x0f\n    /* \"src/ribbonVault.sol\":2983:2996  admin = owner */\n  dup1\n  sload\n  not(sub(shl(0xa0, 0x01), 0x01))\n  and\n  sub(shl(0xa0, 0x01), 0x01)\n  swap4\n  swap1\n  swap4\n  and\n  swap3\n  swap1\n  swap3\n  or\n  swap1\n  swap2\n  sstore\n  pop\n    /* \"src/ribbonVault.sol\":650:9669  contract  vault is Ownable,EIP712 {... */\n  jump(tag_60)\n    /* \"@openzeppelin/contracts/access/Ownable.sol\":2912:3099  function _transferOwnership(address newOwner) internal virtual {... */\ntag_12:\n    /* \"@openzeppelin/contracts/access/Ownable.sol\":2985:3001  address oldOwner */\n  0x00\n    /* \"@openzeppelin/contracts/access/Ownable.sol\":3004:3010  _owner */\n  dup1\n  sload\n  sub(shl(0xa0, 0x01), 0x01)\n    /* \"@openzeppelin/contracts/access/Ownable.sol\":3020:3037  _owner = newOwner */\n  dup4\n  dup2\n  and\n  not(sub(shl(0xa0, 0x01), 0x01))\n  dup4\n  and\n  dup2\n  or\n  dup5\n  sstore\n    /* \"@openzeppelin/contracts/access/Ownable.sol\":3052:3092  OwnershipTransferred(oldOwner, newOwner) */\n  mload(0x40)\n    /* \"@openzeppelin/contracts/access/Ownable.sol\":3004:3010  _owner */\n  swap2\n  swap1\n  swap3\n  and\n  swap3\n  dup4\n  swap2\n    /* \"@openzeppelin/contracts/access/Ownable.sol\":3052:3092  OwnershipTransferred(oldOwner, newOwner) */\n  0x8be0079c531659141344cd1fd0a4f28419497f9722a3daafe3b4186f6b6457e0\n  swap2\n    /* \"@openzeppelin/contracts/access/Ownable.sol\":2985:3001  address oldOwner */\n  swap1\n    /* \"@openzeppelin/contracts/access/Ownable.sol\":3052:3092  OwnershipTransferred(oldOwner, newOwner) */\n  log3\n    /* \"@openzeppelin/contracts/access/Ownable.sol\":2975:3099  {... */\n  pop\n    /* \"@openzeppelin/contracts/access/Ownable.sol\":2912:3099  function _transferOwnership(address newOwner) internal virtual {... */\n  pop\n  jump\t// out\n    /* \"@openzeppelin/contracts/utils/ShortStrings.sol\":2914:3254  function toShortStringWithFallback(string memory value, string storage store) internal returns (ShortString) {... */\ntag_15:\n    /* \"@openzeppelin/contracts/utils/ShortStrings.sol\":3010:3021  ShortString */\n  0x00\n    /* \"@openzeppelin/contracts/utils/ShortStrings.sol\":3059:3061  32 */\n  0x20\n    /* \"@openzeppelin/contracts/utils/ShortStrings.sol\":3043:3048  value */\n  dup4\n    /* \"@openzeppelin/contracts/utils/ShortStrings.sol\":3037:3056  bytes(value).length */\n  mload\n    /* \"@openzeppelin/contracts/utils/ShortStrings.sol\":3037:3061  bytes(value).length < 32 */\n  lt\n    /* \"@openzeppelin/contracts/utils/ShortStrings.sol\":3033:3248  if (bytes(value).length < 32) {... */\n  iszero\n  tag_33\n  jumpi\n    /* \"@openzeppelin/contracts/utils/ShortStrings.sol\":3084:3104  toShortString(value) */\n  tag_34\n    /* \"@openzeppelin/contracts/utils/ShortStrings.sol\":3098:3103  value */\n  dup4\n    /* \"@openzeppelin/contracts/utils/ShortStrings.sol\":3084:3097  toShortString */\n  tag_35\n    /* \"@openzeppelin/contracts/utils/ShortStrings.sol\":3084:3104  toShortString(value) */\n  jump\t// in\ntag_34:\n    /* \"@openzeppelin/contracts/utils/ShortStrings.sol\":3077:3104  return toShortString(value) */\n  swap1\n  pop\n  jump(tag_36)\n    /* \"@openzeppelin/contracts/utils/ShortStrings.sol\":3033:3248  if (bytes(value).length < 32) {... */\ntag_33:\n    /* \"@openzeppelin/contracts/utils/ShortStrings.sol\":3161:3166  store */\n  dup2\n    /* \"@openzeppelin/contracts/utils/ShortStrings.sol\":3135:3181  StorageSlot.getStringSlot(store).value = value */\n  tag_39\n    /* \"@openzeppelin/contracts/utils/ShortStrings.sol\":3176:3181  value */\n  dup5\n    /* \"@openzeppelin/contracts/utils/ShortStrings.sol\":3161:3166  store */\n  dup3\n    /* \"@openzeppelin/contracts/utils/ShortStrings.sol\":3135:3181  StorageSlot.getStringSlot(store).value = value */\n  tag_21\n  jump\t// in\ntag_39:\n  pop\n    /* \"@openzeppelin/contracts/utils/ShortStrings.sol\":1390:1456  0x00000000000000000000000000000000000000000000000000000000000000FF */\n  0xff\n  swap1\n  pop\n    /* \"@openzeppelin/contracts/utils/ShortStrings.sol\":3033:3248  if (bytes(value).length < 32) {... */\ntag_36:\n    /* \"@openzeppelin/contracts/utils/ShortStrings.sol\":2914:3254  function toShortStringWithFallback(string memory value, string storage store) internal returns (ShortString) {... */\n  swap3\n  swap2\n  pop\n  pop\n  jump\t// out\n    /* \"@openzeppelin/contracts/utils/ShortStrings.sol\":1708:1994  function toShortString(string memory str) internal pure returns (ShortString) {... */\ntag_35:\n    /* \"@openzeppelin/contracts/utils/ShortStrings.sol\":1773:1784  ShortString */\n  0x00\n    /* \"@openzeppelin/contracts/utils/ShortStrings.sol\":1796:1813  bytes memory bstr */\n  dup1\n    /* \"@openzeppelin/contracts/utils/ShortStrings.sol\":1822:1825  str */\n  dup3\n    /* \"@openzeppelin/contracts/utils/ShortStrings.sol\":1796:1826  bytes memory bstr = bytes(str) */\n  swap1\n  pop\n    /* \"@openzeppelin/contracts/utils/ShortStrings.sol\":1854:1856  31 */\n  0x1f\n    /* \"@openzeppelin/contracts/utils/ShortStrings.sol\":1840:1844  bstr */\n  dup2\n    /* \"@openzeppelin/contracts/utils/ShortStrings.sol\":1840:1851  bstr.length */\n  mload\n    /* \"@openzeppelin/contracts/utils/ShortStrings.sol\":1840:1856  bstr.length > 31 */\n  gt\n    /* \"@openzeppelin/contracts/utils/ShortStrings.sol\":1836:1908  if (bstr.length > 31) {... */\n  iszero\n  tag_44\n  jumpi\n    /* \"@openzeppelin/contracts/utils/ShortStrings.sol\":1893:1896  str */\n  dup3\n    /* \"@openzeppelin/contracts/utils/ShortStrings.sol\":1879:1897  StringTooLong(str) */\n  mload(0x40)\n  shl(0xe0, 0x305a27a9)\n  dup2\n  mstore\n  0x04\n  add\n  tag_9\n  swap2\n  swap1\n  tag_46\n  jump\t// in\n    /* \"@openzeppelin/contracts/utils/ShortStrings.sol\":1836:1908  if (bstr.length > 31) {... */\ntag_44:\n    /* \"@openzeppelin/contracts/utils/ShortStrings.sol\":1974:1985  bstr.length */\n  dup1\n  mload\n    /* \"@openzeppelin/contracts/utils/ShortStrings.sol\":1957:1970  bytes32(bstr) */\n  tag_47\n    /* \"@openzeppelin/contracts/utils/ShortStrings.sol\":1974:1978  bstr */\n  dup3\n    /* \"@openzeppelin/contracts/utils/ShortStrings.sol\":1957:1970  bytes32(bstr) */\n  tag_48\n  jump\t// in\ntag_47:\n    /* \"@openzeppelin/contracts/utils/ShortStrings.sol\":1949:1985  uint256(bytes32(bstr)) | bstr.length */\n  or\n  swap4\n    /* \"@openzeppelin/contracts/utils/ShortStrings.sol\":1708:1994  function toShortString(string memory str) internal pure returns (ShortString) {... */\n  swap3\n  pop\n  pop\n  pop\n  jump\t// out\n    /* \"#utility.yul\":14:191   */\ntag_50:\n    /* \"#utility.yul\":93:106   */\n  dup1\n  mload\n  sub(shl(0xa0, 0x01), 0x01)\n    /* \"#utility.yul\":135:166   */\n  dup2\n  and\n    /* \"#utility.yul\":125:167   */\n  dup2\n  eq\n    /* \"#utility.yul\":115:185   */\n  tag_62\n  jumpi\n    /* \"#utility.yul\":181:182   */\n  0x00\n    /* \"#utility.yul\":178:179   */\n  dup1\n    /* \"#utility.yul\":171:183   */\n  revert\n    /* \"#utility.yul\":115:185   */\ntag_62:\n    /* \"#utility.yul\":14:191   */\n  swap2\n  swap1\n  pop\n  jump\t// out\n    /* \"#utility.yul\":196:323   */\ntag_51:\n    /* \"#utility.yul\":257:267   */\n  0x4e487b71\n    /* \"#utility.yul\":252:255   */\n  0xe0\n    /* \"#utility.yul\":248:268   */\n  shl\n    /* \"#utility.yul\":245:246   */\n  0x00\n    /* \"#utility.yul\":238:269   */\n  mstore\n    /* \"#utility.yul\":288:292   */\n  0x41\n    /* \"#utility.yul\":285:286   */\n  0x04\n    /* \"#utility.yul\":278:293   */\n  mstore\n    /* \"#utility.yul\":312:316   */\n  0x24\n    /* \"#utility.yul\":309:310   */\n  0x00\n    /* \"#utility.yul\":302:317   */\n  revert\n    /* \"#utility.yul\":328:578   */\ntag_52:\n    /* \"#utility.yul\":413:414   */\n  0x00\n    /* \"#utility.yul\":423:536   */\ntag_65:\n    /* \"#utility.yul\":437:443   */\n  dup4\n    /* \"#utility.yul\":434:435   */\n  dup2\n    /* \"#utility.yul\":431:444   */\n  lt\n    /* \"#utility.yul\":423:536   */\n  iszero\n  tag_67\n  jumpi\n    /* \"#utility.yul\":513:524   */\n  dup2\n  dup2\n  add\n    /* \"#utility.yul\":507:525   */\n  mload\n    /* \"#utility.yul\":494:505   */\n  dup4\n  dup3\n  add\n    /* \"#utility.yul\":487:526   */\n  mstore\n    /* \"#utility.yul\":459:461   */\n  0x20\n    /* \"#utility.yul\":452:462   */\n  add\n    /* \"#utility.yul\":423:536   */\n  jump(tag_65)\ntag_67:\n  pop\n  pop\n    /* \"#utility.yul\":570:571   */\n  0x00\n    /* \"#utility.yul\":552:568   */\n  swap2\n  add\n    /* \"#utility.yul\":545:572   */\n  mstore\n    /* \"#utility.yul\":328:578   */\n  jump\t// out\n    /* \"#utility.yul\":583:1736   */\ntag_3:\n    /* \"#utility.yul\":690:696   */\n  0x00\n    /* \"#utility.yul\":698:704   */\n  dup1\n    /* \"#utility.yul\":706:712   */\n  0x00\n    /* \"#utility.yul\":714:720   */\n  dup1\n    /* \"#utility.yul\":767:770   */\n  0x80\n    /* \"#utility.yul\":755:764   */\n  dup6\n    /* \"#utility.yul\":746:753   */\n  dup8\n    /* \"#utility.yul\":742:765   */\n  sub\n    /* \"#utility.yul\":738:771   */\n  slt\n    /* \"#utility.yul\":735:788   */\n  iszero\n  tag_69\n  jumpi\n    /* \"#utility.yul\":784:785   */\n  0x00\n    /* \"#utility.yul\":781:782   */\n  dup1\n    /* \"#utility.yul\":774:786   */\n  revert\n    /* \"#utility.yul\":735:788   */\ntag_69:\n    /* \"#utility.yul\":807:847   */\n  tag_70\n    /* \"#utility.yul\":837:846   */\n  dup6\n    /* \"#utility.yul\":807:847   */\n  tag_50\n  jump\t// in\ntag_70:\n    /* \"#utility.yul\":891:893   */\n  0x20\n    /* \"#utility.yul\":876:894   */\n  dup7\n  add\n    /* \"#utility.yul\":870:895   */\n  mload\n    /* \"#utility.yul\":797:847   */\n  swap1\n  swap5\n  pop\n  sub(shl(0x40, 0x01), 0x01)\n    /* \"#utility.yul\":944:958   */\n  dup1\n  dup3\n  gt\n    /* \"#utility.yul\":941:975   */\n  iszero\n  tag_71\n  jumpi\n    /* \"#utility.yul\":971:972   */\n  0x00\n    /* \"#utility.yul\":968:969   */\n  dup1\n    /* \"#utility.yul\":961:973   */\n  revert\n    /* \"#utility.yul\":941:975   */\ntag_71:\n    /* \"#utility.yul\":1009:1015   */\n  dup2\n    /* \"#utility.yul\":998:1007   */\n  dup8\n    /* \"#utility.yul\":994:1016   */\n  add\n    /* \"#utility.yul\":984:1016   */\n  swap2\n  pop\n    /* \"#utility.yul\":1054:1061   */\n  dup8\n    /* \"#utility.yul\":1047:1051   */\n  0x1f\n    /* \"#utility.yul\":1043:1045   */\n  dup4\n    /* \"#utility.yul\":1039:1052   */\n  add\n    /* \"#utility.yul\":1035:1062   */\n  slt\n    /* \"#utility.yul\":1025:1080   */\n  tag_72\n  jumpi\n    /* \"#utility.yul\":1076:1077   */\n  0x00\n    /* \"#utility.yul\":1073:1074   */\n  dup1\n    /* \"#utility.yul\":1066:1078   */\n  revert\n    /* \"#utility.yul\":1025:1080   */\ntag_72:\n    /* \"#utility.yul\":1105:1107   */\n  dup2\n    /* \"#utility.yul\":1099:1108   */\n  mload\n    /* \"#utility.yul\":1127:1129   */\n  dup2\n    /* \"#utility.yul\":1123:1125   */\n  dup2\n    /* \"#utility.yul\":1120:1130   */\n  gt\n    /* \"#utility.yul\":1117:1153   */\n  iszero\n  tag_74\n  jumpi\n    /* \"#utility.yul\":1133:1151   */\n  tag_74\n  tag_51\n  jump\t// in\ntag_74:\n    /* \"#utility.yul\":1208:1210   */\n  0x40\n    /* \"#utility.yul\":1202:1211   */\n  mload\n    /* \"#utility.yul\":1176:1178   */\n  0x1f\n    /* \"#utility.yul\":1262:1275   */\n  dup3\n  add\n  not(0x1f)\n    /* \"#utility.yul\":1258:1280   */\n  swap1\n  dup2\n  and\n    /* \"#utility.yul\":1282:1284   */\n  0x3f\n    /* \"#utility.yul\":1254:1285   */\n  add\n    /* \"#utility.yul\":1250:1290   */\n  and\n    /* \"#utility.yul\":1238:1291   */\n  dup2\n  add\n  swap1\n    /* \"#utility.yul\":1306:1324   */\n  dup4\n  dup3\n  gt\n    /* \"#utility.yul\":1326:1348   */\n  dup2\n  dup4\n  lt\n    /* \"#utility.yul\":1303:1349   */\n  or\n    /* \"#utility.yul\":1300:1372   */\n  iszero\n  tag_76\n  jumpi\n    /* \"#utility.yul\":1352:1370   */\n  tag_76\n  tag_51\n  jump\t// in\ntag_76:\n    /* \"#utility.yul\":1392:1402   */\n  dup2\n    /* \"#utility.yul\":1388:1390   */\n  0x40\n    /* \"#utility.yul\":1381:1403   */\n  mstore\n    /* \"#utility.yul\":1427:1429   */\n  dup3\n    /* \"#utility.yul\":1419:1425   */\n  dup2\n    /* \"#utility.yul\":1412:1430   */\n  mstore\n    /* \"#utility.yul\":1467:1474   */\n  dup11\n    /* \"#utility.yul\":1462:1464   */\n  0x20\n    /* \"#utility.yul\":1457:1459   */\n  dup5\n    /* \"#utility.yul\":1453:1455   */\n  dup8\n    /* \"#utility.yul\":1449:1460   */\n  add\n    /* \"#utility.yul\":1445:1465   */\n  add\n    /* \"#utility.yul\":1442:1475   */\n  gt\n    /* \"#utility.yul\":1439:1492   */\n  iszero\n  tag_77\n  jumpi\n    /* \"#utility.yul\":1488:1489   */\n  0x00\n    /* \"#utility.yul\":1485:1486   */\n  dup1\n    /* \"#utility.yul\":1478:1490   */\n  revert\n    /* \"#utility.yul\":1439:1492   */\ntag_77:\n    /* \"#utility.yul\":1501:1569   */\n  tag_78\n    /* \"#utility.yul\":1566:1568   */\n  dup4\n    /* \"#utility.yul\":1561:1563   */\n  0x20\n    /* \"#utility.yul\":1553:1559   */\n  dup4\n    /* \"#utility.yul\":1549:1564   */\n  add\n    /* \"#utility.yul\":1544:1546   */\n  0x20\n    /* \"#utility.yul\":1540:1542   */\n  dup9\n    /* \"#utility.yul\":1536:1547   */\n  add\n    /* \"#utility.yul\":1501:1569   */\n  tag_52\n  jump\t// in\ntag_78:\n    /* \"#utility.yul\":1588:1594   */\n  dup1\n    /* \"#utility.yul\":1578:1594   */\n  swap8\n  pop\n  pop\n  pop\n  pop\n  pop\n  pop\n    /* \"#utility.yul\":1613:1662   */\n  tag_79\n    /* \"#utility.yul\":1658:1660   */\n  0x40\n    /* \"#utility.yul\":1647:1656   */\n  dup7\n    /* \"#utility.yul\":1643:1661   */\n  add\n    /* \"#utility.yul\":1613:1662   */\n  tag_50\n  jump\t// in\ntag_79:\n    /* \"#utility.yul\":1603:1662   */\n  swap2\n  pop\n    /* \"#utility.yul\":1681:1730   */\n  tag_80\n    /* \"#utility.yul\":1726:1728   */\n  0x60\n    /* \"#utility.yul\":1715:1724   */\n  dup7\n    /* \"#utility.yul\":1711:1729   */\n  add\n    /* \"#utility.yul\":1681:1730   */\n  tag_50\n  jump\t// in\ntag_80:\n    /* \"#utility.yul\":1671:1730   */\n  swap1\n  pop\n    /* \"#utility.yul\":583:1736   */\n  swap3\n  swap6\n  swap2\n  swap5\n  pop\n  swap3\n  pop\n  jump\t// out\n    /* \"#utility.yul\":1949:2329   */\ntag_53:\n    /* \"#utility.yul\":2028:2029   */\n  0x01\n    /* \"#utility.yul\":2024:2036   */\n  dup2\n  dup2\n  shr\n  swap1\n    /* \"#utility.yul\":2071:2083   */\n  dup3\n  and\n  dup1\n    /* \"#utility.yul\":2092:2153   */\n  tag_83\n  jumpi\n    /* \"#utility.yul\":2146:2150   */\n  0x7f\n    /* \"#utility.yul\":2138:2144   */\n  dup3\n    /* \"#utility.yul\":2134:2151   */\n  and\n    /* \"#utility.yul\":2124:2151   */\n  swap2\n  pop\n    /* \"#utility.yul\":2092:2153   */\ntag_83:\n    /* \"#utility.yul\":2199:2201   */\n  0x20\n    /* \"#utility.yul\":2191:2197   */\n  dup3\n    /* \"#utility.yul\":2188:2202   */\n  lt\n    /* \"#utility.yul\":2168:2186   */\n  dup2\n    /* \"#utility.yul\":2165:2203   */\n  sub\n    /* \"#utility.yul\":2162:2323   */\n  tag_84\n  jumpi\n    /* \"#utility.yul\":2245:2255   */\n  0x4e487b71\n    /* \"#utility.yul\":2240:2243   */\n  0xe0\n    /* \"#utility.yul\":2236:2256   */\n  shl\n    /* \"#utility.yul\":2233:2234   */\n  0x00\n    /* \"#utility.yul\":2226:2257   */\n  mstore\n    /* \"#utility.yul\":2280:2284   */\n  0x22\n    /* \"#utility.yul\":2277:2278   */\n  0x04\n    /* \"#utility.yul\":2270:2285   */\n  mstore\n    /* \"#utility.yul\":2308:2312   */\n  0x24\n    /* \"#utility.yul\":2305:2306   */\n  0x00\n    /* \"#utility.yul\":2298:2313   */\n  revert\n    /* \"#utility.yul\":2162:2323   */\ntag_84:\n  pop\n    /* \"#utility.yul\":1949:2329   */\n  swap2\n  swap1\n  pop\n  jump\t// out\n    /* \"#utility.yul\":2460:2978   */\ntag_55:\n    /* \"#utility.yul\":2562:2564   */\n  0x1f\n    /* \"#utility.yul\":2557:2560   */\n  dup3\n    /* \"#utility.yul\":2554:2565   */\n  gt\n    /* \"#utility.yul\":2551:2972   */\n  iszero\n  tag_87\n  jumpi\n    /* \"#utility.yul\":2598:2603   */\n  dup1\n    /* \"#utility.yul\":2595:2596   */\n  0x00\n    /* \"#utility.yul\":2588:2604   */\n  mstore\n    /* \"#utility.yul\":2642:2646   */\n  0x20\n    /* \"#utility.yul\":2639:2640   */\n  0x00\n    /* \"#utility.yul\":2629:2647   */\n  keccak256\n    /* \"#utility.yul\":2712:2714   */\n  0x1f\n    /* \"#utility.yul\":2700:2710   */\n  dup5\n    /* \"#utility.yul\":2696:2715   */\n  add\n    /* \"#utility.yul\":2693:2694   */\n  0x05\n    /* \"#utility.yul\":2689:2716   */\n  shr\n    /* \"#utility.yul\":2683:2687   */\n  dup2\n    /* \"#utility.yul\":2679:2717   */\n  add\n    /* \"#utility.yul\":2748:2752   */\n  0x20\n    /* \"#utility.yul\":2736:2746   */\n  dup6\n    /* \"#utility.yul\":2733:2753   */\n  lt\n    /* \"#utility.yul\":2730:2777   */\n  iszero\n  tag_88\n  jumpi\n  pop\n    /* \"#utility.yul\":2771:2775   */\n  dup1\n    /* \"#utility.yul\":2730:2777   */\ntag_88:\n    /* \"#utility.yul\":2826:2828   */\n  0x1f\n    /* \"#utility.yul\":2821:2824   */\n  dup5\n    /* \"#utility.yul\":2817:2829   */\n  add\n    /* \"#utility.yul\":2814:2815   */\n  0x05\n    /* \"#utility.yul\":2810:2830   */\n  shr\n    /* \"#utility.yul\":2804:2808   */\n  dup3\n    /* \"#utility.yul\":2800:2831   */\n  add\n    /* \"#utility.yul\":2790:2831   */\n  swap2\n  pop\n    /* \"#utility.yul\":2881:2962   */\ntag_89:\n    /* \"#utility.yul\":2899:2901   */\n  dup2\n    /* \"#utility.yul\":2892:2897   */\n  dup2\n    /* \"#utility.yul\":2889:2902   */\n  lt\n    /* \"#utility.yul\":2881:2962   */\n  iszero\n  tag_91\n  jumpi\n    /* \"#utility.yul\":2958:2959   */\n  0x00\n    /* \"#utility.yul\":2944:2960   */\n  dup2\n  sstore\n    /* \"#utility.yul\":2925:2926   */\n  0x01\n    /* \"#utility.yul\":2914:2927   */\n  add\n    /* \"#utility.yul\":2881:2962   */\n  jump(tag_89)\ntag_91:\n    /* \"#utility.yul\":2885:2888   */\n  pop\n  pop\n    /* \"#utility.yul\":2551:2972   */\ntag_87:\n    /* \"#utility.yul\":2460:2978   */\n  pop\n  pop\n  pop\n  jump\t// out\n    /* \"#utility.yul\":3154:4499   */\ntag_21:\n    /* \"#utility.yul\":3274:3284   */\n  dup2\n  mload\n  sub(shl(0x40, 0x01), 0x01)\n    /* \"#utility.yul\":3296:3326   */\n  dup2\n  gt\n    /* \"#utility.yul\":3293:3349   */\n  iszero\n  tag_95\n  jumpi\n    /* \"#utility.yul\":3329:3347   */\n  tag_95\n  tag_51\n  jump\t// in\ntag_95:\n    /* \"#utility.yul\":3358:3455   */\n  tag_96\n    /* \"#utility.yul\":3448:3454   */\n  dup2\n    /* \"#utility.yul\":3408:3446   */\n  tag_97\n    /* \"#utility.yul\":3440:3444   */\n  dup5\n    /* \"#utility.yul\":3434:3445   */\n  sload\n    /* \"#utility.yul\":3408:3446   */\n  tag_53\n  jump\t// in\ntag_97:\n    /* \"#utility.yul\":3402:3406   */\n  dup5\n    /* \"#utility.yul\":3358:3455   */\n  tag_55\n  jump\t// in\ntag_96:\n    /* \"#utility.yul\":3510:3514   */\n  0x20\n  dup1\n    /* \"#utility.yul\":3567:3569   */\n  0x1f\n    /* \"#utility.yul\":3556:3570   */\n  dup4\n  gt\n    /* \"#utility.yul\":3584:3585   */\n  0x01\n    /* \"#utility.yul\":3579:4242   */\n  dup2\n  eq\n  tag_99\n  jumpi\n    /* \"#utility.yul\":4286:4287   */\n  0x00\n    /* \"#utility.yul\":4303:4309   */\n  dup5\n    /* \"#utility.yul\":4300:4389   */\n  iszero\n  tag_100\n  jumpi\n  pop\n    /* \"#utility.yul\":4355:4374   */\n  dup6\n  dup4\n  add\n    /* \"#utility.yul\":4349:4375   */\n  mload\n    /* \"#utility.yul\":4300:4389   */\ntag_100:\n  not(0x00)\n    /* \"#utility.yul\":3111:3112   */\n  0x03\n    /* \"#utility.yul\":3107:3118   */\n  dup7\n  swap1\n  shl\n    /* \"#utility.yul\":3103:3127   */\n  shr\n    /* \"#utility.yul\":3099:3128   */\n  not\n    /* \"#utility.yul\":3089:3129   */\n  and\n    /* \"#utility.yul\":3135:3136   */\n  0x01\n    /* \"#utility.yul\":3131:3142   */\n  dup6\n  swap1\n  shl\n    /* \"#utility.yul\":3086:3143   */\n  or\n    /* \"#utility.yul\":4402:4483   */\n  dup6\n  sstore\n    /* \"#utility.yul\":3549:4493   */\n  jump(tag_98)\n    /* \"#utility.yul\":3579:4242   */\ntag_99:\n    /* \"#utility.yul\":2407:2408   */\n  0x00\n    /* \"#utility.yul\":2400:2414   */\n  dup6\n  dup2\n  mstore\n    /* \"#utility.yul\":2444:2448   */\n  0x20\n    /* \"#utility.yul\":2431:2449   */\n  dup2\n  keccak256\n  not(0x1f)\n    /* \"#utility.yul\":3615:3635   */\n  dup7\n  and\n  swap2\n    /* \"#utility.yul\":3733:3969   */\ntag_103:\n    /* \"#utility.yul\":3747:3754   */\n  dup3\n    /* \"#utility.yul\":3744:3745   */\n  dup2\n    /* \"#utility.yul\":3741:3755   */\n  lt\n    /* \"#utility.yul\":3733:3969   */\n  iszero\n  tag_105\n  jumpi\n    /* \"#utility.yul\":3836:3855   */\n  dup9\n  dup7\n  add\n    /* \"#utility.yul\":3830:3856   */\n  mload\n    /* \"#utility.yul\":3815:3857   */\n  dup3\n  sstore\n    /* \"#utility.yul\":3928:3955   */\n  swap5\n  dup5\n  add\n  swap5\n    /* \"#utility.yul\":3896:3897   */\n  0x01\n    /* \"#utility.yul\":3884:3898   */\n  swap1\n  swap2\n  add\n  swap1\n    /* \"#utility.yul\":3763:3782   */\n  dup5\n  add\n    /* \"#utility.yul\":3733:3969   */\n  jump(tag_103)\ntag_105:\n    /* \"#utility.yul\":3737:3740   */\n  pop\n    /* \"#utility.yul\":3997:4003   */\n  dup6\n    /* \"#utility.yul\":3988:3995   */\n  dup3\n    /* \"#utility.yul\":3985:4004   */\n  lt\n    /* \"#utility.yul\":3982:4183   */\n  iszero\n  tag_106\n  jumpi\n    /* \"#utility.yul\":4058:4077   */\n  dup8\n  dup6\n  add\n    /* \"#utility.yul\":4052:4078   */\n  mload\n  not(0x00)\n    /* \"#utility.yul\":4141:4142   */\n  0x03\n    /* \"#utility.yul\":4137:4151   */\n  dup9\n  swap1\n  shl\n    /* \"#utility.yul\":4153:4156   */\n  0xf8\n    /* \"#utility.yul\":4133:4157   */\n  and\n    /* \"#utility.yul\":4129:4166   */\n  shr\n    /* \"#utility.yul\":4125:4167   */\n  not\n    /* \"#utility.yul\":4110:4168   */\n  and\n    /* \"#utility.yul\":4095:4169   */\n  dup2\n  sstore\n    /* \"#utility.yul\":3982:4183   */\ntag_106:\n  pop\n  pop\n    /* \"#utility.yul\":4229:4230   */\n  0x01\n    /* \"#utility.yul\":4220:4226   */\n  dup5\n    /* \"#utility.yul\":4217:4218   */\n  0x01\n    /* \"#utility.yul\":4213:4227   */\n  shl\n    /* \"#utility.yul\":4209:4231   */\n  add\n    /* \"#utility.yul\":4203:4207   */\n  dup6\n    /* \"#utility.yul\":4196:4232   */\n  sstore\n    /* \"#utility.yul\":3549:4493   */\ntag_98:\n  pop\n  pop\n  pop\n  pop\n    /* \"#utility.yul\":3154:4499   */\n  pop\n  pop\n  jump\t// out\n    /* \"#utility.yul\":4504:4777   */\ntag_25:\n    /* \"#utility.yul\":4572:4578   */\n  0x00\n    /* \"#utility.yul\":4625:4627   */\n  0x20\n    /* \"#utility.yul\":4613:4622   */\n  dup3\n    /* \"#utility.yul\":4604:4611   */\n  dup5\n    /* \"#utility.yul\":4600:4623   */\n  sub\n    /* \"#utility.yul\":4596:4628   */\n  slt\n    /* \"#utility.yul\":4593:4645   */\n  iszero\n  tag_108\n  jumpi\n    /* \"#utility.yul\":4641:4642   */\n  0x00\n    /* \"#utility.yul\":4638:4639   */\n  dup1\n    /* \"#utility.yul\":4631:4643   */\n  revert\n    /* \"#utility.yul\":4593:4645   */\ntag_108:\n    /* \"#utility.yul\":4673:4682   */\n  dup2\n    /* \"#utility.yul\":4667:4683   */\n  mload\n    /* \"#utility.yul\":4723:4727   */\n  0xff\n    /* \"#utility.yul\":4716:4721   */\n  dup2\n    /* \"#utility.yul\":4712:4728   */\n  and\n    /* \"#utility.yul\":4705:4710   */\n  dup2\n    /* \"#utility.yul\":4702:4729   */\n  eq\n    /* \"#utility.yul\":4692:4747   */\n  tag_109\n  jumpi\n    /* \"#utility.yul\":4743:4744   */\n  0x00\n    /* \"#utility.yul\":4740:4741   */\n  dup1\n    /* \"#utility.yul\":4733:4745   */\n  revert\n    /* \"#utility.yul\":4692:4747   */\ntag_109:\n    /* \"#utility.yul\":4766:4771   */\n  swap4\n    /* \"#utility.yul\":4504:4777   */\n  swap3\n  pop\n  pop\n  pop\n  jump\t// out\n    /* \"#utility.yul\":4782:4909   */\ntag_57:\n    /* \"#utility.yul\":4843:4853   */\n  0x4e487b71\n    /* \"#utility.yul\":4838:4841   */\n  0xe0\n    /* \"#utility.yul\":4834:4854   */\n  shl\n    /* \"#utility.yul\":4831:4832   */\n  0x00\n    /* \"#utility.yul\":4824:4855   */\n  mstore\n    /* \"#utility.yul\":4874:4878   */\n  0x11\n    /* \"#utility.yul\":4871:4872   */\n  0x04\n    /* \"#utility.yul\":4864:4879   */\n  mstore\n    /* \"#utility.yul\":4898:4902   */\n  0x24\n    /* \"#utility.yul\":4895:4896   */\n  0x00\n    /* \"#utility.yul\":4888:4903   */\n  revert\n    /* \"#utility.yul\":4914:5330   */\ntag_58:\n    /* \"#utility.yul\":5003:5004   */\n  0x01\n    /* \"#utility.yul\":5040:5045   */\n  dup2\n    /* \"#utility.yul\":5003:5004   */\n  dup2\n    /* \"#utility.yul\":5054:5324   */\ntag_112:\n    /* \"#utility.yul\":5075:5082   */\n  dup1\n    /* \"#utility.yul\":5065:5073   */\n  dup6\n    /* \"#utility.yul\":5062:5083   */\n  gt\n    /* \"#utility.yul\":5054:5324   */\n  iszero\n  tag_114\n  jumpi\n    /* \"#utility.yul\":5134:5138   */\n  dup2\n    /* \"#utility.yul\":5130:5131   */\n  0x00\n    /* \"#utility.yul\":5126:5132   */\n  not\n    /* \"#utility.yul\":5122:5139   */\n  div\n    /* \"#utility.yul\":5116:5120   */\n  dup3\n    /* \"#utility.yul\":5113:5140   */\n  gt\n    /* \"#utility.yul\":5110:5163   */\n  iszero\n  tag_116\n  jumpi\n    /* \"#utility.yul\":5143:5161   */\n  tag_116\n  tag_57\n  jump\t// in\ntag_116:\n    /* \"#utility.yul\":5193:5200   */\n  dup1\n    /* \"#utility.yul\":5183:5191   */\n  dup6\n    /* \"#utility.yul\":5179:5201   */\n  and\n    /* \"#utility.yul\":5176:5231   */\n  iszero\n  tag_117\n  jumpi\n    /* \"#utility.yul\":5213:5229   */\n  swap2\n  dup2\n  mul\n  swap2\n    /* \"#utility.yul\":5176:5231   */\ntag_117:\n    /* \"#utility.yul\":5292:5314   */\n  swap4\n  dup5\n  shr\n  swap4\n    /* \"#utility.yul\":5252:5267   */\n  swap1\n  dup1\n  mul\n  swap1\n    /* \"#utility.yul\":5054:5324   */\n  jump(tag_112)\ntag_114:\n    /* \"#utility.yul\":5058:5061   */\n  pop\n    /* \"#utility.yul\":4914:5330   */\n  swap3\n  pop\n  swap3\n  swap1\n  pop\n  jump\t// out\n    /* \"#utility.yul\":5335:6141   */\ntag_59:\n    /* \"#utility.yul\":5384:5389   */\n  0x00\n    /* \"#utility.yul\":5414:5422   */\n  dup3\n    /* \"#utility.yul\":5404:5484   */\n  tag_119\n  jumpi\n  pop\n    /* \"#utility.yul\":5455:5456   */\n  0x01\n    /* \"#utility.yul\":5469:5474   */\n  jump(tag_36)\n    /* \"#utility.yul\":5404:5484   */\ntag_119:\n    /* \"#utility.yul\":5503:5507   */\n  dup2\n    /* \"#utility.yul\":5493:5569   */\n  tag_120\n  jumpi\n  pop\n    /* \"#utility.yul\":5540:5541   */\n  0x00\n    /* \"#utility.yul\":5554:5559   */\n  jump(tag_36)\n    /* \"#utility.yul\":5493:5569   */\ntag_120:\n    /* \"#utility.yul\":5585:5589   */\n  dup2\n    /* \"#utility.yul\":5603:5604   */\n  0x01\n    /* \"#utility.yul\":5598:5657   */\n  dup2\n  eq\n  tag_122\n  jumpi\n    /* \"#utility.yul\":5671:5672   */\n  0x02\n    /* \"#utility.yul\":5666:5796   */\n  dup2\n  eq\n  tag_123\n  jumpi\n    /* \"#utility.yul\":5578:5796   */\n  jump(tag_121)\n    /* \"#utility.yul\":5598:5657   */\ntag_122:\n    /* \"#utility.yul\":5628:5629   */\n  0x01\n    /* \"#utility.yul\":5619:5629   */\n  swap2\n  pop\n    /* \"#utility.yul\":5642:5647   */\n  pop\n  jump(tag_36)\n    /* \"#utility.yul\":5666:5796   */\ntag_123:\n    /* \"#utility.yul\":5703:5706   */\n  0xff\n    /* \"#utility.yul\":5693:5701   */\n  dup5\n    /* \"#utility.yul\":5690:5707   */\n  gt\n    /* \"#utility.yul\":5687:5730   */\n  iszero\n  tag_125\n  jumpi\n    /* \"#utility.yul\":5710:5728   */\n  tag_125\n  tag_57\n  jump\t// in\ntag_125:\n  pop\n  pop\n    /* \"#utility.yul\":5766:5767   */\n  0x01\n    /* \"#utility.yul\":5752:5768   */\n  dup3\n  shl\n    /* \"#utility.yul\":5781:5786   */\n  jump(tag_36)\n    /* \"#utility.yul\":5578:5796   */\ntag_121:\n  pop\n    /* \"#utility.yul\":5880:5882   */\n  0x20\n    /* \"#utility.yul\":5870:5878   */\n  dup4\n    /* \"#utility.yul\":5867:5883   */\n  lt\n    /* \"#utility.yul\":5861:5864   */\n  0x0133\n    /* \"#utility.yul\":5855:5859   */\n  dup4\n    /* \"#utility.yul\":5852:5865   */\n  lt\n    /* \"#utility.yul\":5848:5884   */\n  and\n    /* \"#utility.yul\":5842:5844   */\n  0x4e\n    /* \"#utility.yul\":5832:5840   */\n  dup5\n    /* \"#utility.yul\":5829:5845   */\n  lt\n    /* \"#utility.yul\":5824:5826   */\n  0x0b\n    /* \"#utility.yul\":5818:5822   */\n  dup5\n    /* \"#utility.yul\":5815:5827   */\n  lt\n    /* \"#utility.yul\":5811:5846   */\n  and\n    /* \"#utility.yul\":5808:5885   */\n  or\n    /* \"#utility.yul\":5805:5964   */\n  iszero\n  tag_126\n  jumpi\n  pop\n    /* \"#utility.yul\":5917:5936   */\n  dup2\n  dup2\n  exp\n    /* \"#utility.yul\":5949:5954   */\n  jump(tag_36)\n    /* \"#utility.yul\":5805:5964   */\ntag_126:\n    /* \"#utility.yul\":5996:6030   */\n  tag_127\n    /* \"#utility.yul\":6021:6029   */\n  dup4\n    /* \"#utility.yul\":6015:6019   */\n  dup4\n    /* \"#utility.yul\":5996:6030   */\n  tag_58\n  jump\t// in\ntag_127:\n    /* \"#utility.yul\":6066:6072   */\n  dup1\n    /* \"#utility.yul\":6062:6063   */\n  0x00\n    /* \"#utility.yul\":6058:6064   */\n  not\n    /* \"#utility.yul\":6054:6073   */\n  div\n    /* \"#utility.yul\":6045:6052   */\n  dup3\n    /* \"#utility.yul\":6042:6074   */\n  gt\n    /* \"#utility.yul\":6039:6097   */\n  iszero\n  tag_129\n  jumpi\n    /* \"#utility.yul\":6077:6095   */\n  tag_129\n  tag_57\n  jump\t// in\ntag_129:\n    /* \"#utility.yul\":6115:6135   */\n  mul\n  swap4\n    /* \"#utility.yul\":5335:6141   */\n  swap3\n  pop\n  pop\n  pop\n  jump\t// out\n    /* \"#utility.yul\":6146:6286   */\ntag_27:\n    /* \"#utility.yul\":6204:6209   */\n  0x00\n    /* \"#utility.yul\":6233:6280   */\n  tag_109\n    /* \"#utility.yul\":6274:6278   */\n  0xff\n    /* \"#utility.yul\":6264:6272   */\n  dup5\n    /* \"#utility.yul\":6260:6279   */\n  and\n    /* \"#utility.yul\":6254:6258   */\n  dup4\n    /* \"#utility.yul\":6233:6280   */\n  tag_59\n  jump\t// in\n    /* \"#utility.yul\":6291:6459   */\ntag_29:\n    /* \"#utility.yul\":6364:6373   */\n  dup1\n  dup3\n  mul\n    /* \"#utility.yul\":6395:6404   */\n  dup2\n  iszero\n    /* \"#utility.yul\":6412:6427   */\n  dup3\n  dup3\n  div\n    /* \"#utility.yul\":6406:6428   */\n  dup5\n  eq\n    /* \"#utility.yul\":6392:6429   */\n  or\n    /* \"#utility.yul\":6382:6453   */\n  tag_36\n  jumpi\n    /* \"#utility.yul\":6433:6451   */\n  tag_36\n  tag_57\n  jump\t// in\n    /* \"#utility.yul\":6958:7354   */\ntag_46:\n    /* \"#utility.yul\":7107:7109   */\n  0x20\n    /* \"#utility.yul\":7096:7105   */\n  dup2\n    /* \"#utility.yul\":7089:7110   */\n  mstore\n    /* \"#utility.yul\":7070:7074   */\n  0x00\n    /* \"#utility.yul\":7139:7145   */\n  dup3\n    /* \"#utility.yul\":7133:7146   */\n  mload\n    /* \"#utility.yul\":7182:7188   */\n  dup1\n    /* \"#utility.yul\":7177:7179   */\n  0x20\n    /* \"#utility.yul\":7166:7175   */\n  dup5\n    /* \"#utility.yul\":7162:7180   */\n  add\n    /* \"#utility.yul\":7155:7189   */\n  mstore\n    /* \"#utility.yul\":7198:7277   */\n  tag_137\n    /* \"#utility.yul\":7270:7276   */\n  dup2\n    /* \"#utility.yul\":7265:7267   */\n  0x40\n    /* \"#utility.yul\":7254:7263   */\n  dup6\n    /* \"#utility.yul\":7250:7268   */\n  add\n    /* \"#utility.yul\":7245:7247   */\n  0x20\n    /* \"#utility.yul\":7237:7243   */\n  dup8\n    /* \"#utility.yul\":7233:7248   */\n  add\n    /* \"#utility.yul\":7198:7277   */\n  tag_52\n  jump\t// in\ntag_137:\n    /* \"#utility.yul\":7338:7340   */\n  0x1f\n    /* \"#utility.yul\":7317:7332   */\n  add\n  not(0x1f)\n    /* \"#utility.yul\":7313:7342   */\n  and\n    /* \"#utility.yul\":7298:7343   */\n  swap2\n  swap1\n  swap2\n  add\n    /* \"#utility.yul\":7345:7347   */\n  0x40\n    /* \"#utility.yul\":7294:7348   */\n  add\n  swap3\n    /* \"#utility.yul\":6958:7354   */\n  swap2\n  pop\n  pop\n  jump\t// out\n    /* \"#utility.yul\":7359:7656   */\ntag_48:\n    /* \"#utility.yul\":7477:7489   */\n  dup1\n  mload\n    /* \"#utility.yul\":7524:7528   */\n  0x20\n    /* \"#utility.yul\":7513:7529   */\n  dup1\n  dup4\n  add\n    /* \"#utility.yul\":7507:7530   */\n  mload\n  swap2\n    /* \"#utility.yul\":7477:7489   */\n  swap1\n    /* \"#utility.yul\":7542:7558   */\n  dup2\n  lt\n    /* \"#utility.yul\":7539:7650   */\n  iszero\n  tag_84\n  jumpi\n  not(0x00)\n    /* \"#utility.yul\":7616:7620   */\n  0x20\n    /* \"#utility.yul\":7612:7629   */\n  swap2\n  swap1\n  swap2\n  sub\n    /* \"#utility.yul\":7609:7610   */\n  0x03\n    /* \"#utility.yul\":7605:7630   */\n  shl\n    /* \"#utility.yul\":7601:7639   */\n  shl\n    /* \"#utility.yul\":7590:7640   */\n  and\n  swap2\n    /* \"#utility.yul\":7359:7656   */\n  swap1\n  pop\n  jump\t// out\ntag_60:\n    /* \"src/ribbonVault.sol\":650:9669  contract  vault is Ownable,EIP712 {... */\n  mload(0x80)\n  mload(0xa0)\n  mload(0xc0)\n  mload(0xe0)\n  mload(0x0100)\n  mload(0x0120)\n  mload(0x0140)\n  codecopy(0x00, dataOffset(sub_0), dataSize(sub_0))\n  0x00\n  assignImmutable(\"0xf8488ee4284bdfced5e7ecbb6b2116f40bc259e448370e3da8f991f5c7e11002\")\n  0x00\n  assignImmutable(\"0xeaf32fa183047e964e285a9ee962816e722361d0ef19b580cefefec39cdc1e6b\")\n  0x00\n  assignImmutable(\"0x5a51cac41fe69f71b7795862cc646f7451dfff9d51b9de6ea410fc434c56d513\")\n  0x00\n  assignImmutable(\"0xdd8b51ee9128c681fbd81845dd6426716fdc986a3bb51fedf5af16f35ac2adb3\")\n  0x00\n  assignImmutable(\"0x03bb33715397e0038c873ba02d4426eebb2b65cc3940a0fa71a481a9b37d980d\")\n  0x00\n  assignImmutable(\"0xbe147d0aaf628bab5d3600ba0e8222c4d7f0eec30321d0b98d9f641634fbb471\")\n  0x00\n  assignImmutable(\"0xa1c879b0284e72931b8cd098e080355084a332f82e911af96b3055fa2035b7e8\")\n  return(0x00, dataSize(sub_0))\nstop\n\nsub_0: assembly {\n        /* \"src/ribbonVault.sol\":650:9669  contract  vault is Ownable,EIP712 {... */\n      mstore(0x40, 0x80)\n      callvalue\n      dup1\n      iszero\n      tag_1\n      jumpi\n      0x00\n      dup1\n      revert\n    tag_1:\n      pop\n      jumpi(tag_2, lt(calldatasize, 0x04))\n      shr(0xe0, calldataload(0x00))\n      dup1\n      0x76ee947f\n      gt\n      tag_30\n      jumpi\n      dup1\n      0xc4a9e858\n      gt\n      tag_31\n      jumpi\n      dup1\n      0xf2fde38b\n      gt\n      tag_32\n      jumpi\n      dup1\n      0xf2fde38b\n      eq\n      tag_26\n      jumpi\n      dup1\n      0xf851a440\n      eq\n      tag_27\n      jumpi\n      dup1\n      0xf9c3a1e8\n      eq\n      tag_28\n      jumpi\n      dup1\n      0xfd918716\n      eq\n      tag_29\n      jumpi\n      0x00\n      dup1\n      revert\n    tag_32:\n      dup1\n      0xc4a9e858\n      eq\n      tag_23\n      jumpi\n      dup1\n      0xe1fefd42\n      eq\n      tag_24\n      jumpi\n      dup1\n      0xe63ea408\n      eq\n      tag_25\n      jumpi\n      0x00\n      dup1\n      revert\n    tag_31:\n      dup1\n      0x8da5cb5b\n      gt\n      tag_33\n      jumpi\n      dup1\n      0x8da5cb5b\n      eq\n      tag_19\n      jumpi\n      dup1\n      0x9683cdc4\n      eq\n      tag_20\n      jumpi\n      dup1\n      0xac1e5025\n      eq\n      tag_21\n      jumpi\n      dup1\n      0xc08e7286\n      eq\n      tag_22\n      jumpi\n      0x00\n      dup1\n      revert\n    tag_33:\n      dup1\n      0x76ee947f\n      eq\n      tag_16\n      jumpi\n      dup1\n      0x84b0196e\n      eq\n      tag_17\n      jumpi\n      dup1\n      0x8bc7e8c4\n      eq\n      tag_18\n      jumpi\n      0x00\n      dup1\n      revert\n    tag_30:\n      dup1\n      0x34fcf437\n      gt\n      tag_34\n      jumpi\n      dup1\n      0x67a52793\n      gt\n      tag_35\n      jumpi\n      dup1\n      0x67a52793\n      eq\n      tag_12\n      jumpi\n      dup1\n      0x6b4c0789\n      eq\n      tag_13\n      jumpi\n      dup1\n      0x704b6c02\n      eq\n      tag_14\n      jumpi\n      dup1\n      0x715018a6\n      eq\n      tag_15\n      jumpi\n      0x00\n      dup1\n      revert\n    tag_35:\n      dup1\n      0x34fcf437\n      eq\n      tag_9\n      jumpi\n      dup1\n      0x3644e515\n      eq\n      tag_10\n      jumpi\n      dup1\n      0x6313c6d8\n      eq\n      tag_11\n      jumpi\n      0x00\n      dup1\n      revert\n    tag_34:\n      dup1\n      0x06e0e582\n      eq\n      tag_3\n      jumpi\n      dup1\n      0x0ace9ca0\n      eq\n      tag_4\n      jumpi\n      dup1\n      0x0d461e61\n      eq\n      tag_5\n      jumpi\n      dup1\n      0x252de51b\n      eq\n      tag_6\n      jumpi\n      dup1\n      0x258ba1ee\n      eq\n      tag_7\n      jumpi\n      dup1\n      0x2c4e722e\n      eq\n      tag_8\n      jumpi\n    tag_2:\n      0x00\n      dup1\n      revert\n        /* \"src/ribbonVault.sol\":1316:1358  uint public initContractBalancePaymentCoin */\n    tag_3:\n      tag_36\n      sload(0x0b)\n      dup2\n      jump\n    tag_36:\n      mload(0x40)\n        /* \"#utility.yul\":160:185   */\n      swap1\n      dup2\n      mstore\n        /* \"#utility.yul\":148:150   */\n      0x20\n        /* \"#utility.yul\":133:151   */\n      add\n        /* \"src/ribbonVault.sol\":1316:1358  uint public initContractBalancePaymentCoin */\n    tag_38:\n      mload(0x40)\n      dup1\n      swap2\n      sub\n      swap1\n      return\n        /* \"src/ribbonVault.sol\":1450:1473  string public vaultName */\n    tag_4:\n      tag_40\n      tag_41\n      jump\t// in\n    tag_40:\n      mload(0x40)\n      tag_38\n      swap2\n      swap1\n      tag_43\n      jump\t// in\n        /* \"src/ribbonVault.sol\":3357:3580  function checkAmountToRecive(uint pointToSwap)public view returns(uint){... */\n    tag_5:\n      tag_36\n      tag_45\n      calldatasize\n      0x04\n      tag_46\n      jump\t// in\n    tag_45:\n      tag_47\n      jump\t// in\n        /* \"src/ribbonVault.sol\":1507:1531  bool public freezePermit */\n    tag_6:\n      sload(0x0f)\n      tag_49\n      swap1\n      shl(0xa0, 0x01)\n      swap1\n      div\n      0xff\n      and\n      dup2\n      jump\n    tag_49:\n      mload(0x40)\n        /* \"#utility.yul\":1302:1316   */\n      swap1\n      iszero\n        /* \"#utility.yul\":1295:1317   */\n      iszero\n        /* \"#utility.yul\":1277:1318   */\n      dup2\n      mstore\n        /* \"#utility.yul\":1265:1267   */\n      0x20\n        /* \"#utility.yul\":1250:1268   */\n      add\n        /* \"src/ribbonVault.sol\":1507:1531  bool public freezePermit */\n      tag_38\n        /* \"#utility.yul\":1137:1324   */\n      jump\n        /* \"src/ribbonVault.sol\":4149:4451  function setpaymentTokenAndpoints(address paymentAddress,address pointsaddress)public onlyOwner{... */\n    tag_7:\n      tag_53\n      tag_54\n      calldatasize\n      0x04\n      tag_55\n      jump\t// in\n    tag_54:\n      tag_56\n      jump\t// in\n    tag_53:\n      stop\n        /* \"src/ribbonVault.sol\":1233:1249  uint public rate */\n    tag_8:\n      tag_36\n      sload(0x08)\n      dup2\n      jump\n        /* \"src/ribbonVault.sol\":4796:4872  function setRate(uint _rate)public onlyOwner{... */\n    tag_9:\n      tag_53\n      tag_61\n      calldatasize\n      0x04\n      tag_46\n      jump\t// in\n    tag_61:\n      tag_62\n      jump\t// in\n        /* \"src/ribbonVault.sol\":3592:3706  function DOMAIN_SEPARATOR() external view virtual returns (bytes32) {... */\n    tag_10:\n      tag_36\n      tag_64\n      jump\t// in\n        /* \"src/ribbonVault.sol\":6445:6932  function permitClaimPoints(address user,uint amount,uint256 deadline,uint8 v,bytes32 r,bytes32 s)public  {... */\n    tag_11:\n      tag_53\n      tag_68\n      calldatasize\n      0x04\n      tag_69\n      jump\t// in\n    tag_68:\n      tag_70\n      jump\t// in\n        /* \"src/ribbonVault.sol\":1204:1226  uint public depositFee */\n    tag_12:\n      tag_36\n      sload(0x07)\n      dup2\n      jump\n        /* \"src/ribbonVault.sol\":5284:5375  function freezeContract(bool _freeze)public onlyOwner{... */\n    tag_13:\n      tag_53\n      tag_75\n      calldatasize\n      0x04\n      tag_76\n      jump\t// in\n    tag_75:\n      tag_77\n      jump\t// in\n        /* \"src/ribbonVault.sol\":3962:4041  function setAdmin(address _admin)public onlyOwner{... */\n    tag_14:\n      tag_53\n      tag_79\n      calldatasize\n      0x04\n      tag_80\n      jump\t// in\n    tag_79:\n      tag_81\n      jump\t// in\n        /* \"@openzeppelin/contracts/access/Ownable.sol\":2293:2394  function renounceOwnership() public virtual onlyOwner {... */\n    tag_15:\n      tag_53\n      tag_83\n      jump\t// in\n        /* \"src/ribbonVault.sol\":4506:4598  function setPaymentDepositfees(uint _fee)public onlyOwner{... */\n    tag_16:\n      tag_53\n      tag_85\n      calldatasize\n      0x04\n      tag_46\n      jump\t// in\n    tag_85:\n      tag_86\n      jump\t// in\n        /* \"@openzeppelin/contracts/utils/cryptography/EIP712.sol\":5144:5701  function eip712Domain()... */\n    tag_17:\n      tag_87\n      tag_88\n      jump\t// in\n    tag_87:\n      mload(0x40)\n      tag_38\n      swap8\n      swap7\n      swap6\n      swap5\n      swap4\n      swap3\n      swap2\n      swap1\n      tag_90\n      jump\t// in\n        /* \"src/ribbonVault.sol\":1256:1281  uint public withdrawalFee */\n    tag_18:\n      tag_36\n      sload(0x09)\n      dup2\n      jump\n        /* \"@openzeppelin/contracts/access/Ownable.sol\":1638:1723  function owner() public view virtual returns (address) {... */\n    tag_19:\n        /* \"@openzeppelin/contracts/access/Ownable.sol\":1684:1691  address */\n      0x00\n        /* \"@openzeppelin/contracts/access/Ownable.sol\":1710:1716  _owner */\n      sload\n      sub(shl(0xa0, 0x01), 0x01)\n      and\n        /* \"@openzeppelin/contracts/access/Ownable.sol\":1638:1723  function owner() public view virtual returns (address) {... */\n    tag_94:\n      mload(0x40)\n      sub(shl(0xa0, 0x01), 0x01)\n        /* \"#utility.yul\":4658:4690   */\n      swap1\n      swap2\n      and\n        /* \"#utility.yul\":4640:4691   */\n      dup2\n      mstore\n        /* \"#utility.yul\":4628:4630   */\n      0x20\n        /* \"#utility.yul\":4613:4631   */\n      add\n        /* \"@openzeppelin/contracts/access/Ownable.sol\":1638:1723  function owner() public view virtual returns (address) {... */\n      tag_38\n        /* \"#utility.yul\":4494:4697   */\n      jump\n        /* \"src/ribbonVault.sol\":5615:6246  function withdrawfees(address feeTakerAddress) public onlyOwner{... */\n    tag_20:\n      tag_53\n      tag_99\n      calldatasize\n      0x04\n      tag_80\n      jump\t// in\n    tag_99:\n      tag_100\n      jump\t// in\n        /* \"src/ribbonVault.sol\":4656:4746  function setWithdrawalFee(uint _fee)public onlyOwner{... */\n    tag_21:\n      tag_53\n      tag_102\n      calldatasize\n      0x04\n      tag_46\n      jump\t// in\n    tag_102:\n      tag_103\n      jump\t// in\n        /* \"src/ribbonVault.sol\":5021:5151  function setMinPointsToSWap(uint _pointsMin)public onlyOwner{... */\n    tag_22:\n      tag_53\n      tag_105\n      calldatasize\n      0x04\n      tag_46\n      jump\t// in\n    tag_105:\n      tag_106\n      jump\t// in\n        /* \"src/ribbonVault.sol\":1402:1443  uint public TotalfeescollectedPaymentCoin */\n    tag_23:\n      tag_36\n      sload(0x0d)\n      dup2\n      jump\n        /* \"src/ribbonVault.sol\":1288:1309  uint public pointsMin */\n    tag_24:\n      tag_36\n      sload(0x0a)\n      dup2\n      jump\n        /* \"src/ribbonVault.sol\":8160:8521  function emergencyWithdraw(address _tokenAddress,address _to,uint _amount )public onlyOwner{... */\n    tag_25:\n      tag_53\n      tag_114\n      calldatasize\n      0x04\n      tag_115\n      jump\t// in\n    tag_114:\n      tag_116\n      jump\t// in\n        /* \"@openzeppelin/contracts/access/Ownable.sol\":2543:2758  function transferOwnership(address newOwner) public virtual onlyOwner {... */\n    tag_26:\n      tag_53\n      tag_118\n      calldatasize\n      0x04\n      tag_80\n      jump\t// in\n    tag_118:\n      tag_119\n      jump\t// in\n        /* \"src/ribbonVault.sol\":1480:1500  address public admin */\n    tag_27:\n      sload(0x0f)\n      tag_94\n      swap1\n      sub(shl(0xa0, 0x01), 0x01)\n      and\n      dup2\n      jump\n        /* \"src/ribbonVault.sol\":7159:8047  function permitSwapToPaymentCoin(address user,uint pointToSwap,uint256 deadline,uint8 v,bytes32 r,bytes32 s)public {... */\n    tag_28:\n      tag_53\n      tag_124\n      calldatasize\n      0x04\n      tag_69\n      jump\t// in\n    tag_124:\n      tag_125\n      jump\t// in\n        /* \"src/ribbonVault.sol\":1365:1395  uint public claimedPaymentCoin */\n    tag_29:\n      tag_36\n      sload(0x0c)\n      dup2\n      jump\n        /* \"src/ribbonVault.sol\":1450:1473  string public vaultName */\n    tag_41:\n      0x0e\n      dup1\n      sload\n      tag_129\n      swap1\n      tag_130\n      jump\t// in\n    tag_129:\n      dup1\n      0x1f\n      add\n      0x20\n      dup1\n      swap2\n      div\n      mul\n      0x20\n      add\n      mload(0x40)\n      swap1\n      dup2\n      add\n      0x40\n      mstore\n      dup1\n      swap3\n      swap2\n      swap1\n      dup2\n      dup2\n      mstore\n      0x20\n      add\n      dup3\n      dup1\n      sload\n      tag_131\n      swap1\n      tag_130\n      jump\t// in\n    tag_131:\n      dup1\n      iszero\n      tag_132\n      jumpi\n      dup1\n      0x1f\n      lt\n      tag_133\n      jumpi\n      0x0100\n      dup1\n      dup4\n      sload\n      div\n      mul\n      dup4\n      mstore\n      swap2\n      0x20\n      add\n      swap2\n      jump(tag_132)\n    tag_133:\n      dup3\n      add\n      swap2\n      swap1\n      0x00\n      mstore\n      keccak256(0x00, 0x20)\n      swap1\n    tag_134:\n      dup2\n      sload\n      dup2\n      mstore\n      swap1\n      0x01\n      add\n      swap1\n      0x20\n      add\n      dup1\n      dup4\n      gt\n      tag_134\n      jumpi\n      dup3\n      swap1\n      sub\n      0x1f\n      and\n      dup3\n      add\n      swap2\n    tag_132:\n      pop\n      pop\n      pop\n      pop\n      pop\n      dup2\n      jump\t// out\n        /* \"src/ribbonVault.sol\":3357:3580  function checkAmountToRecive(uint pointToSwap)public view returns(uint){... */\n    tag_47:\n        /* \"src/ribbonVault.sol\":3511:3523  _Ipointscoin */\n      0x04\n      dup1\n      sload\n        /* \"src/ribbonVault.sol\":3511:3534  _Ipointscoin.decimals() */\n      0x40\n      dup1\n      mload\n      shl(0xe0, 0x313ce567)\n      dup2\n      mstore\n      swap1\n      mload\n        /* \"src/ribbonVault.sol\":3423:3427  uint */\n      0x00\n      swap4\n      dup5\n      swap4\n      sub(shl(0xa0, 0x01), 0x01)\n        /* \"src/ribbonVault.sol\":3511:3523  _Ipointscoin */\n      and\n      swap3\n        /* \"src/ribbonVault.sol\":3511:3532  _Ipointscoin.decimals */\n      0x313ce567\n      swap3\n        /* \"src/ribbonVault.sol\":3511:3534  _Ipointscoin.decimals() */\n      dup2\n      dup4\n      add\n      swap3\n      0x20\n      swap3\n      dup3\n      swap1\n      sub\n      add\n      dup2\n        /* \"src/ribbonVault.sol\":3511:3523  _Ipointscoin */\n      dup7\n        /* \"src/ribbonVault.sol\":3511:3534  _Ipointscoin.decimals() */\n      gas\n      staticcall\n      iszero\n      dup1\n      iszero\n      tag_137\n      jumpi\n      returndatasize\n      0x00\n      dup1\n      returndatacopy\n      revert(0x00, returndatasize)\n    tag_137:\n      pop\n      pop\n      pop\n      pop\n      mload(0x40)\n      returndatasize\n      not(0x1f)\n      0x1f\n      dup3\n      add\n      and\n      dup3\n      add\n      dup1\n      0x40\n      mstore\n      pop\n      dup2\n      add\n      swap1\n      tag_138\n      swap2\n      swap1\n      tag_139\n      jump\t// in\n    tag_138:\n        /* \"src/ribbonVault.sol\":3507:3534  10**_Ipointscoin.decimals() */\n      tag_140\n      swap1\n        /* \"src/ribbonVault.sol\":3507:3509  10 */\n      0x0a\n        /* \"src/ribbonVault.sol\":3507:3534  10**_Ipointscoin.decimals() */\n      tag_141\n      jump\t// in\n    tag_140:\n        /* \"src/ribbonVault.sol\":3502:3506  rate */\n      sload(0x08)\n        /* \"src/ribbonVault.sol\":3502:3534  rate*10**_Ipointscoin.decimals() */\n      tag_142\n      swap2\n      swap1\n      tag_143\n      jump\t// in\n    tag_142:\n        /* \"src/ribbonVault.sol\":3475:3488  _Ipaymentcoin */\n      0x03\n      0x00\n      swap1\n      sload\n      swap1\n      0x0100\n      exp\n      swap1\n      div\n      sub(shl(0xa0, 0x01), 0x01)\n      and\n      sub(shl(0xa0, 0x01), 0x01)\n        /* \"src/ribbonVault.sol\":3475:3497  _Ipaymentcoin.decimals */\n      and\n      0x313ce567\n        /* \"src/ribbonVault.sol\":3475:3499  _Ipaymentcoin.decimals() */\n      mload(0x40)\n      dup2\n      0xffffffff\n      and\n      0xe0\n      shl\n      dup2\n      mstore\n      0x04\n      add\n      0x20\n      mload(0x40)\n      dup1\n      dup4\n      sub\n      dup2\n      dup7\n      gas\n      staticcall\n      iszero\n      dup1\n      iszero\n      tag_145\n      jumpi\n      returndatasize\n      0x00\n      dup1\n      returndatacopy\n      revert(0x00, returndatasize)\n    tag_145:\n      pop\n      pop\n      pop\n      pop\n      mload(0x40)\n      returndatasize\n      not(0x1f)\n      0x1f\n      dup3\n      add\n      and\n      dup3\n      add\n      dup1\n      0x40\n      mstore\n      pop\n      dup2\n      add\n      swap1\n      tag_146\n      swap2\n      swap1\n      tag_139\n      jump\t// in\n    tag_146:\n        /* \"src/ribbonVault.sol\":3471:3499  10**_Ipaymentcoin.decimals() */\n      tag_147\n      swap1\n        /* \"src/ribbonVault.sol\":3471:3473  10 */\n      0x0a\n        /* \"src/ribbonVault.sol\":3471:3499  10**_Ipaymentcoin.decimals() */\n      tag_141\n      jump\t// in\n    tag_147:\n        /* \"src/ribbonVault.sol\":3455:3470  pointToSwap * 1 */\n      tag_148\n        /* \"src/ribbonVault.sol\":3455:3466  pointToSwap */\n      dup6\n        /* \"src/ribbonVault.sol\":3469:3470  1 */\n      0x01\n        /* \"src/ribbonVault.sol\":3455:3470  pointToSwap * 1 */\n      tag_143\n      jump\t// in\n    tag_148:\n        /* \"src/ribbonVault.sol\":3455:3499  pointToSwap * 1*10**_Ipaymentcoin.decimals() */\n      tag_149\n      swap2\n      swap1\n      tag_143\n      jump\t// in\n    tag_149:\n        /* \"src/ribbonVault.sol\":3454:3535  (pointToSwap * 1*10**_Ipaymentcoin.decimals())/(rate*10**_Ipointscoin.decimals()) */\n      tag_150\n      swap2\n      swap1\n      tag_151\n      jump\t// in\n    tag_150:\n        /* \"src/ribbonVault.sol\":3441:3535  uint _rate = (pointToSwap * 1*10**_Ipaymentcoin.decimals())/(rate*10**_Ipointscoin.decimals()) */\n      swap4\n        /* \"src/ribbonVault.sol\":3357:3580  function checkAmountToRecive(uint pointToSwap)public view returns(uint){... */\n      swap3\n      pop\n      pop\n      pop\n      jump\t// out\n        /* \"src/ribbonVault.sol\":4149:4451  function setpaymentTokenAndpoints(address paymentAddress,address pointsaddress)public onlyOwner{... */\n    tag_56:\n        /* \"@openzeppelin/contracts/access/Ownable.sol\":1531:1544  _checkOwner() */\n      tag_153\n        /* \"@openzeppelin/contracts/access/Ownable.sol\":1531:1542  _checkOwner */\n      tag_154\n        /* \"@openzeppelin/contracts/access/Ownable.sol\":1531:1544  _checkOwner() */\n      jump\t// in\n    tag_153:\n        /* \"src/ribbonVault.sol\":4254:4267  _Ipaymentcoin */\n      0x03\n        /* \"src/ribbonVault.sol\":4254:4293  _Ipaymentcoin = IERC20T(paymentAddress) */\n      dup1\n      sload\n      sub(shl(0xa0, 0x01), 0x01)\n      swap4\n      dup5\n      and\n      not(sub(shl(0xa0, 0x01), 0x01))\n      swap2\n      dup3\n      and\n      dup2\n      or\n      swap1\n      swap3\n      sstore\n        /* \"src/ribbonVault.sol\":4303:4317  _IpaymentcoinT */\n      0x05\n        /* \"src/ribbonVault.sol\":4303:4342  _IpaymentcoinT = IERC20(paymentAddress) */\n      dup1\n      sload\n      dup3\n      and\n      swap1\n      swap3\n      or\n      swap1\n      swap2\n      sstore\n        /* \"src/ribbonVault.sol\":4352:4364  _Ipointscoin */\n      0x04\n        /* \"src/ribbonVault.sol\":4352:4389  _Ipointscoin = IERC20T(pointsaddress) */\n      dup1\n      sload\n      swap3\n      swap1\n      swap4\n      and\n      swap2\n      dup2\n      and\n      dup3\n      or\n      swap1\n      swap3\n      sstore\n        /* \"src/ribbonVault.sol\":4399:4412  _IpointscoinT */\n      0x06\n        /* \"src/ribbonVault.sol\":4399:4436  _IpointscoinT = IERC20(pointsaddress) */\n      dup1\n      sload\n      swap1\n      swap3\n      and\n      or\n      swap1\n      sstore\n        /* \"src/ribbonVault.sol\":4149:4451  function setpaymentTokenAndpoints(address paymentAddress,address pointsaddress)public onlyOwner{... */\n      jump\t// out\n        /* \"src/ribbonVault.sol\":4796:4872  function setRate(uint _rate)public onlyOwner{... */\n    tag_62:\n        /* \"@openzeppelin/contracts/access/Ownable.sol\":1531:1544  _checkOwner() */\n      tag_157\n        /* \"@openzeppelin/contracts/access/Ownable.sol\":1531:1542  _checkOwner */\n      tag_154\n        /* \"@openzeppelin/contracts/access/Ownable.sol\":1531:1544  _checkOwner() */\n      jump\t// in\n    tag_157:\n        /* \"src/ribbonVault.sol\":4852:4856  rate */\n      0x08\n        /* \"src/ribbonVault.sol\":4852:4864  rate = _rate */\n      sstore\n        /* \"src/ribbonVault.sol\":4796:4872  function setRate(uint _rate)public onlyOwner{... */\n      jump\t// out\n        /* \"src/ribbonVault.sol\":3592:3706  function DOMAIN_SEPARATOR() external view virtual returns (bytes32) {... */\n    tag_64:\n        /* \"src/ribbonVault.sol\":3651:3658  bytes32 */\n      0x00\n        /* \"src/ribbonVault.sol\":3678:3698  _domainSeparatorV4() */\n      tag_160\n        /* \"src/ribbonVault.sol\":3678:3696  _domainSeparatorV4 */\n      tag_161\n        /* \"src/ribbonVault.sol\":3678:3698  _domainSeparatorV4() */\n      jump\t// in\n    tag_160:\n        /* \"src/ribbonVault.sol\":3671:3698  return _domainSeparatorV4() */\n      swap1\n      pop\n        /* \"src/ribbonVault.sol\":3592:3706  function DOMAIN_SEPARATOR() external view virtual returns (bytes32) {... */\n      swap1\n      jump\t// out\n        /* \"src/ribbonVault.sol\":6445:6932  function permitClaimPoints(address user,uint amount,uint256 deadline,uint8 v,bytes32 r,bytes32 s)public  {... */\n    tag_70:\n      sub(shl(0xa0, 0x01), 0x01)\n        /* \"src/ribbonVault.sol\":6569:6587  user != address(0) */\n      dup7\n      and\n        /* \"src/ribbonVault.sol\":6561:6622  require(user != address(0),\"you are sending to zero address\") */\n      tag_163\n      jumpi\n      mload(0x40)\n      shl(0xe5, 0x461bcd)\n      dup2\n      mstore\n      0x04\n      add\n      tag_164\n      swap1\n      tag_165\n      jump\t// in\n    tag_164:\n      mload(0x40)\n      dup1\n      swap2\n      sub\n      swap1\n      revert\n    tag_163:\n        /* \"src/ribbonVault.sol\":6636:6671  _permit(user,amount,deadline,v,r,s) */\n      tag_166\n        /* \"src/ribbonVault.sol\":6644:6648  user */\n      dup7\n        /* \"src/ribbonVault.sol\":6649:6655  amount */\n      dup7\n        /* \"src/ribbonVault.sol\":6656:6664  deadline */\n      dup7\n        /* \"src/ribbonVault.sol\":6665:6666  v */\n      dup7\n        /* \"src/ribbonVault.sol\":6667:6668  r */\n      dup7\n        /* \"src/ribbonVault.sol\":6669:6670  s */\n      dup7\n        /* \"src/ribbonVault.sol\":6636:6643  _permit */\n      tag_167\n        /* \"src/ribbonVault.sol\":6636:6671  _permit(user,amount,deadline,v,r,s) */\n      jump\t// in\n    tag_166:\n        /* \"src/ribbonVault.sol\":6694:6706  freezePermit */\n      sload(0x0f)\n      shl(0xa0, 0x01)\n      swap1\n      div\n      0xff\n      and\n        /* \"src/ribbonVault.sol\":6694:6713  freezePermit==false */\n      iszero\n        /* \"src/ribbonVault.sol\":6686:6733  require(freezePermit==false,\"contract freezed\") */\n      tag_168\n      jumpi\n      mload(0x40)\n      shl(0xe5, 0x461bcd)\n      dup2\n      mstore\n        /* \"#utility.yul\":8138:8140   */\n      0x20\n        /* \"src/ribbonVault.sol\":6686:6733  require(freezePermit==false,\"contract freezed\") */\n      0x04\n      dup3\n      add\n        /* \"#utility.yul\":8120:8141   */\n      mstore\n        /* \"#utility.yul\":8177:8179   */\n      0x10\n        /* \"#utility.yul\":8157:8175   */\n      0x24\n      dup3\n      add\n        /* \"#utility.yul\":8150:8180   */\n      mstore\n      shl(0x82, 0x18dbdb9d1c9858dd08199c99595e9959)\n        /* \"#utility.yul\":8196:8214   */\n      0x44\n      dup3\n      add\n        /* \"#utility.yul\":8189:8235   */\n      mstore\n        /* \"#utility.yul\":8252:8270   */\n      0x64\n      add\n        /* \"src/ribbonVault.sol\":6686:6733  require(freezePermit==false,\"contract freezed\") */\n      tag_164\n        /* \"#utility.yul\":7936:8276   */\n      jump\n        /* \"src/ribbonVault.sol\":6686:6733  require(freezePermit==false,\"contract freezed\") */\n    tag_168:\n        /* \"src/ribbonVault.sol\":6765:6774  pointsMin */\n      sload(0x0a)\n        /* \"src/ribbonVault.sol\":6755:6761  amount */\n      dup6\n        /* \"src/ribbonVault.sol\":6755:6774  amount >= pointsMin */\n      lt\n      iszero\n        /* \"src/ribbonVault.sol\":6747:6813  require(amount >= pointsMin,\"points to claim less than minpoints\") */\n      tag_171\n      jumpi\n      mload(0x40)\n      shl(0xe5, 0x461bcd)\n      dup2\n      mstore\n        /* \"#utility.yul\":8483:8485   */\n      0x20\n        /* \"src/ribbonVault.sol\":6747:6813  require(amount >= pointsMin,\"points to claim less than minpoints\") */\n      0x04\n      dup3\n      add\n        /* \"#utility.yul\":8465:8486   */\n      mstore\n        /* \"#utility.yul\":8522:8524   */\n      0x23\n        /* \"#utility.yul\":8502:8520   */\n      0x24\n      dup3\n      add\n        /* \"#utility.yul\":8495:8525   */\n      mstore\n        /* \"#utility.yul\":8561:8595   */\n      0x706f696e747320746f20636c61696d206c657373207468616e206d696e706f69\n        /* \"#utility.yul\":8541:8559   */\n      0x44\n      dup3\n      add\n        /* \"#utility.yul\":8534:8596   */\n      mstore\n      shl(0xe8, 0x6e7473)\n        /* \"#utility.yul\":8612:8630   */\n      0x64\n      dup3\n      add\n        /* \"#utility.yul\":8605:8638   */\n      mstore\n        /* \"#utility.yul\":8655:8674   */\n      0x84\n      add\n        /* \"src/ribbonVault.sol\":6747:6813  require(amount >= pointsMin,\"points to claim less than minpoints\") */\n      tag_164\n        /* \"#utility.yul\":8281:8680   */\n      jump\n        /* \"src/ribbonVault.sol\":6747:6813  require(amount >= pointsMin,\"points to claim less than minpoints\") */\n    tag_171:\n        /* \"src/ribbonVault.sol\":6826:6839  _IpointscoinT */\n      sload(0x06)\n        /* \"src/ribbonVault.sol\":6826:6865  _IpointscoinT.safeTransfer(user,amount) */\n      tag_174\n      swap1\n      sub(shl(0xa0, 0x01), 0x01)\n        /* \"src/ribbonVault.sol\":6826:6839  _IpointscoinT */\n      and\n        /* \"src/ribbonVault.sol\":6853:6857  user */\n      dup8\n        /* \"src/ribbonVault.sol\":6858:6864  amount */\n      dup8\n        /* \"src/ribbonVault.sol\":6826:6852  _IpointscoinT.safeTransfer */\n      tag_175\n        /* \"src/ribbonVault.sol\":6826:6865  _IpointscoinT.safeTransfer(user,amount) */\n      jump\t// in\n    tag_174:\n        /* \"src/ribbonVault.sol\":6901:6916  block.timestamp */\n      timestamp\n        /* \"src/ribbonVault.sol\":6896:6900  user */\n      dup7\n      sub(shl(0xa0, 0x01), 0x01)\n        /* \"src/ribbonVault.sol\":6882:6924  PointsClaimed(user,block.timestamp,amount) */\n      and\n      0xd8fb6dbeaadff1d38bb96624ec3bd037611260d2b198d0f78cc1f0955563e756\n        /* \"src/ribbonVault.sol\":6917:6923  amount */\n      dup8\n        /* \"src/ribbonVault.sol\":6882:6924  PointsClaimed(user,block.timestamp,amount) */\n      mload(0x40)\n      tag_176\n      swap2\n        /* \"#utility.yul\":160:185   */\n      dup2\n      mstore\n        /* \"#utility.yul\":148:150   */\n      0x20\n        /* \"#utility.yul\":133:151   */\n      add\n      swap1\n        /* \"#utility.yul\":14:191   */\n      jump\n        /* \"src/ribbonVault.sol\":6882:6924  PointsClaimed(user,block.timestamp,amount) */\n    tag_176:\n      mload(0x40)\n      dup1\n      swap2\n      sub\n      swap1\n      log3\n        /* \"src/ribbonVault.sol\":6445:6932  function permitClaimPoints(address user,uint amount,uint256 deadline,uint8 v,bytes32 r,bytes32 s)public  {... */\n      pop\n      pop\n      pop\n      pop\n      pop\n      pop\n      jump\t// out\n        /* \"src/ribbonVault.sol\":5284:5375  function freezeContract(bool _freeze)public onlyOwner{... */\n    tag_77:\n        /* \"@openzeppelin/contracts/access/Ownable.sol\":1531:1544  _checkOwner() */\n      tag_178\n        /* \"@openzeppelin/contracts/access/Ownable.sol\":1531:1542  _checkOwner */\n      tag_154\n        /* \"@openzeppelin/contracts/access/Ownable.sol\":1531:1544  _checkOwner() */\n      jump\t// in\n    tag_178:\n        /* \"src/ribbonVault.sol\":5345:5357  freezePermit */\n      0x0f\n        /* \"src/ribbonVault.sol\":5345:5367  freezePermit = _freeze */\n      dup1\n      sload\n      swap2\n      iszero\n      iszero\n      shl(0xa0, 0x01)\n      mul\n      not(shl(0xa0, 0xff))\n      swap1\n      swap3\n      and\n      swap2\n      swap1\n      swap2\n      or\n      swap1\n      sstore\n        /* \"src/ribbonVault.sol\":5284:5375  function freezeContract(bool _freeze)public onlyOwner{... */\n      jump\t// out\n        /* \"src/ribbonVault.sol\":3962:4041  function setAdmin(address _admin)public onlyOwner{... */\n    tag_81:\n        /* \"@openzeppelin/contracts/access/Ownable.sol\":1531:1544  _checkOwner() */\n      tag_181\n        /* \"@openzeppelin/contracts/access/Ownable.sol\":1531:1542  _checkOwner */\n      tag_154\n        /* \"@openzeppelin/contracts/access/Ownable.sol\":1531:1544  _checkOwner() */\n      jump\t// in\n    tag_181:\n        /* \"src/ribbonVault.sol\":4020:4025  admin */\n      0x0f\n        /* \"src/ribbonVault.sol\":4020:4033  admin =_admin */\n      dup1\n      sload\n      not(sub(shl(0xa0, 0x01), 0x01))\n      and\n      sub(shl(0xa0, 0x01), 0x01)\n      swap3\n      swap1\n      swap3\n      and\n      swap2\n      swap1\n      swap2\n      or\n      swap1\n      sstore\n        /* \"src/ribbonVault.sol\":3962:4041  function setAdmin(address _admin)public onlyOwner{... */\n      jump\t// out\n        /* \"@openzeppelin/contracts/access/Ownable.sol\":2293:2394  function renounceOwnership() public virtual onlyOwner {... */\n    tag_83:\n        /* \"@openzeppelin/contracts/access/Ownable.sol\":1531:1544  _checkOwner() */\n      tag_184\n        /* \"@openzeppelin/contracts/access/Ownable.sol\":1531:1542  _checkOwner */\n      tag_154\n        /* \"@openzeppelin/contracts/access/Ownable.sol\":1531:1544  _checkOwner() */\n      jump\t// in\n    tag_184:\n        /* \"@openzeppelin/contracts/access/Ownable.sol\":2357:2387  _transferOwnership(address(0)) */\n      tag_186\n        /* \"@openzeppelin/contracts/access/Ownable.sol\":2384:2385  0 */\n      0x00\n        /* \"@openzeppelin/contracts/access/Ownable.sol\":2357:2375  _transferOwnership */\n      tag_187\n        /* \"@openzeppelin/contracts/access/Ownable.sol\":2357:2387  _transferOwnership(address(0)) */\n      jump\t// in\n    tag_186:\n        /* \"@openzeppelin/contracts/access/Ownable.sol\":2293:2394  function renounceOwnership() public virtual onlyOwner {... */\n      jump\t// out\n        /* \"src/ribbonVault.sol\":4506:4598  function setPaymentDepositfees(uint _fee)public onlyOwner{... */\n    tag_86:\n        /* \"@openzeppelin/contracts/access/Ownable.sol\":1531:1544  _checkOwner() */\n      tag_189\n        /* \"@openzeppelin/contracts/access/Ownable.sol\":1531:1542  _checkOwner */\n      tag_154\n        /* \"@openzeppelin/contracts/access/Ownable.sol\":1531:1544  _checkOwner() */\n      jump\t// in\n    tag_189:\n        /* \"src/ribbonVault.sol\":4573:4583  depositFee */\n      0x07\n        /* \"src/ribbonVault.sol\":4573:4590  depositFee = _fee */\n      sstore\n        /* \"src/ribbonVault.sol\":4506:4598  function setPaymentDepositfees(uint _fee)public onlyOwner{... */\n      jump\t// out\n        /* \"@openzeppelin/contracts/utils/cryptography/EIP712.sol\":5144:5701  function eip712Domain()... */\n    tag_88:\n        /* \"@openzeppelin/contracts/utils/cryptography/EIP712.sol\":5242:5255  bytes1 fields */\n      0x00\n        /* \"@openzeppelin/contracts/utils/cryptography/EIP712.sol\":5269:5287  string memory name */\n      0x60\n        /* \"@openzeppelin/contracts/utils/cryptography/EIP712.sol\":5301:5322  string memory version */\n      dup1\n        /* \"@openzeppelin/contracts/utils/cryptography/EIP712.sol\":5336:5351  uint256 chainId */\n      0x00\n        /* \"@openzeppelin/contracts/utils/cryptography/EIP712.sol\":5365:5390  address verifyingContract */\n      dup1\n        /* \"@openzeppelin/contracts/utils/cryptography/EIP712.sol\":5404:5416  bytes32 salt */\n      0x00\n        /* \"@openzeppelin/contracts/utils/cryptography/EIP712.sol\":5430:5457  uint256[] memory extensions */\n      0x60\n        /* \"@openzeppelin/contracts/utils/cryptography/EIP712.sol\":5533:5546  _EIP712Name() */\n      tag_192\n        /* \"@openzeppelin/contracts/utils/cryptography/EIP712.sol\":5533:5544  _EIP712Name */\n      tag_193\n        /* \"@openzeppelin/contracts/utils/cryptography/EIP712.sol\":5533:5546  _EIP712Name() */\n      jump\t// in\n    tag_192:\n        /* \"@openzeppelin/contracts/utils/cryptography/EIP712.sol\":5560:5576  _EIP712Version() */\n      tag_194\n        /* \"@openzeppelin/contracts/utils/cryptography/EIP712.sol\":5560:5574  _EIP712Version */\n      tag_195\n        /* \"@openzeppelin/contracts/utils/cryptography/EIP712.sol\":5560:5576  _EIP712Version() */\n      jump\t// in\n    tag_194:\n        /* \"@openzeppelin/contracts/utils/cryptography/EIP712.sol\":5668:5684  new uint256[](0) */\n      0x40\n      dup1\n      mload\n        /* \"@openzeppelin/contracts/utils/cryptography/EIP712.sol\":5652:5653  0 */\n      0x00\n        /* \"@openzeppelin/contracts/utils/cryptography/EIP712.sol\":5668:5684  new uint256[](0) */\n      dup1\n      dup3\n      mstore\n      0x20\n      dup3\n      add\n      swap1\n      swap3\n      mstore\n      shl(0xf8, 0x0f)\n        /* \"@openzeppelin/contracts/utils/cryptography/EIP712.sol\":5482:5694  return (... */\n      swap12\n      swap4\n      swap11\n      pop\n      swap2\n      swap9\n      pop\n        /* \"@openzeppelin/contracts/utils/cryptography/EIP712.sol\":5590:5603  block.chainid */\n      chainid\n      swap8\n      pop\n        /* \"@openzeppelin/contracts/utils/cryptography/EIP712.sol\":5625:5629  this */\n      address\n      swap7\n      pop\n        /* \"@openzeppelin/contracts/utils/cryptography/EIP712.sol\":5652:5653  0 */\n      swap5\n      pop\n        /* \"@openzeppelin/contracts/utils/cryptography/EIP712.sol\":5668:5684  new uint256[](0) */\n      swap3\n      pop\n        /* \"@openzeppelin/contracts/utils/cryptography/EIP712.sol\":5482:5694  return (... */\n      swap1\n      pop\n        /* \"@openzeppelin/contracts/utils/cryptography/EIP712.sol\":5144:5701  function eip712Domain()... */\n      jump\t// out\n        /* \"src/ribbonVault.sol\":5615:6246  function withdrawfees(address feeTakerAddress) public onlyOwner{... */\n    tag_100:\n        /* \"@openzeppelin/contracts/access/Ownable.sol\":1531:1544  _checkOwner() */\n      tag_202\n        /* \"@openzeppelin/contracts/access/Ownable.sol\":1531:1542  _checkOwner */\n      tag_154\n        /* \"@openzeppelin/contracts/access/Ownable.sol\":1531:1544  _checkOwner() */\n      jump\t// in\n    tag_202:\n      sub(shl(0xa0, 0x01), 0x01)\n        /* \"src/ribbonVault.sol\":5696:5725  feeTakerAddress != address(0) */\n      dup2\n      and\n        /* \"src/ribbonVault.sol\":5688:5760  require(feeTakerAddress != address(0),\"you are sending to zero address\") */\n      tag_204\n      jumpi\n      mload(0x40)\n      shl(0xe5, 0x461bcd)\n      dup2\n      mstore\n      0x04\n      add\n      tag_164\n      swap1\n      tag_165\n      jump\t// in\n    tag_204:\n        /* \"src/ribbonVault.sol\":5792:5805  _Ipaymentcoin */\n      sload(0x03)\n        /* \"src/ribbonVault.sol\":5792:5830  _Ipaymentcoin.balanceOf(address(this)) */\n      mload(0x40)\n      shl(0xe0, 0x70a08231)\n      dup2\n      mstore\n        /* \"src/ribbonVault.sol\":5824:5828  this */\n      address\n        /* \"src/ribbonVault.sol\":5792:5830  _Ipaymentcoin.balanceOf(address(this)) */\n      0x04\n      dup3\n      add\n        /* \"#utility.yul\":4640:4691   */\n      mstore\n        /* \"src/ribbonVault.sol\":5770:5790  uint contractBalance */\n      0x00\n      swap2\n      sub(shl(0xa0, 0x01), 0x01)\n        /* \"src/ribbonVault.sol\":5792:5805  _Ipaymentcoin */\n      and\n      swap1\n        /* \"src/ribbonVault.sol\":5792:5815  _Ipaymentcoin.balanceOf */\n      0x70a08231\n      swap1\n        /* \"#utility.yul\":4613:4631   */\n      0x24\n      add\n        /* \"src/ribbonVault.sol\":5792:5830  _Ipaymentcoin.balanceOf(address(this)) */\n      0x20\n      mload(0x40)\n      dup1\n      dup4\n      sub\n      dup2\n      dup7\n      gas\n      staticcall\n      iszero\n      dup1\n      iszero\n      tag_208\n      jumpi\n      returndatasize\n      0x00\n      dup1\n      returndatacopy\n      revert(0x00, returndatasize)\n    tag_208:\n      pop\n      pop\n      pop\n      pop\n      mload(0x40)\n      returndatasize\n      not(0x1f)\n      0x1f\n      dup3\n      add\n      and\n      dup3\n      add\n      dup1\n      0x40\n      mstore\n      pop\n      dup2\n      add\n      swap1\n      tag_209\n      swap2\n      swap1\n      tag_210\n      jump\t// in\n    tag_209:\n        /* \"src/ribbonVault.sol\":5770:5830  uint contractBalance =_Ipaymentcoin.balanceOf(address(this)) */\n      swap1\n      pop\n        /* \"src/ribbonVault.sol\":5840:5861  uint balanceDeposited */\n      0x00\n        /* \"src/ribbonVault.sol\":5937:5967  initContractBalancePaymentCoin */\n      sload(0x0b)\n        /* \"src/ribbonVault.sol\":5904:5933  TotalfeescollectedPaymentCoin */\n      sload(0x0d)\n        /* \"src/ribbonVault.sol\":5883:5901  claimedPaymentCoin */\n      sload(0x0c)\n        /* \"src/ribbonVault.sol\":5865:5880  contractBalance */\n      dup5\n        /* \"src/ribbonVault.sol\":5865:5901  contractBalance + claimedPaymentCoin */\n      tag_211\n      swap2\n      swap1\n      tag_212\n      jump\t// in\n    tag_211:\n        /* \"src/ribbonVault.sol\":5865:5933  contractBalance + claimedPaymentCoin + TotalfeescollectedPaymentCoin */\n      tag_213\n      swap2\n      swap1\n      tag_212\n      jump\t// in\n    tag_213:\n        /* \"src/ribbonVault.sol\":5864:5967  (contractBalance + claimedPaymentCoin + TotalfeescollectedPaymentCoin) - initContractBalancePaymentCoin */\n      tag_214\n      swap2\n      swap1\n      tag_215\n      jump\t// in\n    tag_214:\n        /* \"src/ribbonVault.sol\":5840:5967  uint balanceDeposited = (contractBalance + claimedPaymentCoin + TotalfeescollectedPaymentCoin) - initContractBalancePaymentCoin */\n      swap1\n      pop\n        /* \"src/ribbonVault.sol\":6011:6027  balanceDeposited */\n      dup1\n        /* \"src/ribbonVault.sol\":5977:6007  initContractBalancePaymentCoin */\n      0x0b\n      0x00\n        /* \"src/ribbonVault.sol\":5977:6027  initContractBalancePaymentCoin += balanceDeposited */\n      dup3\n      dup3\n      sload\n      tag_216\n      swap2\n      swap1\n      tag_212\n      jump\t// in\n    tag_216:\n      swap1\n      swap2\n      sstore\n      pop\n      pop\n        /* \"src/ribbonVault.sol\":6067:6077  depositFee */\n      sload(0x07)\n        /* \"src/ribbonVault.sol\":6037:6046  uint _fee */\n      0x00\n      swap1\n        /* \"src/ribbonVault.sol\":6079:6082  100 */\n      0x64\n      swap1\n        /* \"src/ribbonVault.sol\":6050:6077  balanceDeposited*depositFee */\n      tag_217\n      swap1\n        /* \"src/ribbonVault.sol\":6050:6066  balanceDeposited */\n      dup5\n        /* \"src/ribbonVault.sol\":6050:6077  balanceDeposited*depositFee */\n      tag_143\n      jump\t// in\n    tag_217:\n        /* \"src/ribbonVault.sol\":6049:6082  (balanceDeposited*depositFee)/100 */\n      tag_218\n      swap2\n      swap1\n      tag_151\n      jump\t// in\n    tag_218:\n        /* \"src/ribbonVault.sol\":6037:6082  uint _fee = (balanceDeposited*depositFee)/100 */\n      swap1\n      pop\n        /* \"src/ribbonVault.sol\":6107:6108  0 */\n      0x00\n        /* \"src/ribbonVault.sol\":6100:6104  _fee */\n      dup2\n        /* \"src/ribbonVault.sol\":6100:6108  _fee > 0 */\n      gt\n        /* \"src/ribbonVault.sol\":6092:6132  require(_fee > 0,\"no new deposit added\") */\n      tag_219\n      jumpi\n      mload(0x40)\n      shl(0xe5, 0x461bcd)\n      dup2\n      mstore\n        /* \"#utility.yul\":9471:9473   */\n      0x20\n        /* \"src/ribbonVault.sol\":6092:6132  require(_fee > 0,\"no new deposit added\") */\n      0x04\n      dup3\n      add\n        /* \"#utility.yul\":9453:9474   */\n      mstore\n        /* \"#utility.yul\":9510:9512   */\n      0x14\n        /* \"#utility.yul\":9490:9508   */\n      0x24\n      dup3\n      add\n        /* \"#utility.yul\":9483:9513   */\n      mstore\n      shl(0x62, 0x1b9bc81b995dc819195c1bdcda5d081859191959)\n        /* \"#utility.yul\":9529:9547   */\n      0x44\n      dup3\n      add\n        /* \"#utility.yul\":9522:9572   */\n      mstore\n        /* \"#utility.yul\":9589:9607   */\n      0x64\n      add\n        /* \"src/ribbonVault.sol\":6092:6132  require(_fee > 0,\"no new deposit added\") */\n      tag_164\n        /* \"#utility.yul\":9269:9613   */\n      jump\n        /* \"src/ribbonVault.sol\":6092:6132  require(_fee > 0,\"no new deposit added\") */\n    tag_219:\n        /* \"src/ribbonVault.sol\":6175:6179  _fee */\n      dup1\n        /* \"src/ribbonVault.sol\":6142:6171  TotalfeescollectedPaymentCoin */\n      0x0d\n      0x00\n        /* \"src/ribbonVault.sol\":6142:6179  TotalfeescollectedPaymentCoin += _fee */\n      dup3\n      dup3\n      sload\n      tag_222\n      swap2\n      swap1\n      tag_212\n      jump\t// in\n    tag_222:\n      swap1\n      swap2\n      sstore\n      pop\n      pop\n        /* \"src/ribbonVault.sol\":6189:6203  _IpaymentcoinT */\n      sload(0x05)\n        /* \"src/ribbonVault.sol\":6189:6238  _IpaymentcoinT.safeTransfer(feeTakerAddress,_fee) */\n      tag_223\n      swap1\n      sub(shl(0xa0, 0x01), 0x01)\n        /* \"src/ribbonVault.sol\":6189:6203  _IpaymentcoinT */\n      and\n        /* \"src/ribbonVault.sol\":6217:6232  feeTakerAddress */\n      dup6\n        /* \"src/ribbonVault.sol\":6233:6237  _fee */\n      dup4\n        /* \"src/ribbonVault.sol\":6189:6216  _IpaymentcoinT.safeTransfer */\n      tag_175\n        /* \"src/ribbonVault.sol\":6189:6238  _IpaymentcoinT.safeTransfer(feeTakerAddress,_fee) */\n      jump\t// in\n    tag_223:\n        /* \"src/ribbonVault.sol\":5678:6246  {... */\n      pop\n      pop\n      pop\n        /* \"src/ribbonVault.sol\":5615:6246  function withdrawfees(address feeTakerAddress) public onlyOwner{... */\n      pop\n      jump\t// out\n        /* \"src/ribbonVault.sol\":4656:4746  function setWithdrawalFee(uint _fee)public onlyOwner{... */\n    tag_103:\n        /* \"@openzeppelin/contracts/access/Ownable.sol\":1531:1544  _checkOwner() */\n      tag_225\n        /* \"@openzeppelin/contracts/access/Ownable.sol\":1531:1542  _checkOwner */\n      tag_154\n        /* \"@openzeppelin/contracts/access/Ownable.sol\":1531:1544  _checkOwner() */\n      jump\t// in\n    tag_225:\n        /* \"src/ribbonVault.sol\":4718:4731  withdrawalFee */\n      0x09\n        /* \"src/ribbonVault.sol\":4718:4738  withdrawalFee = _fee */\n      sstore\n        /* \"src/ribbonVault.sol\":4656:4746  function setWithdrawalFee(uint _fee)public onlyOwner{... */\n      jump\t// out\n        /* \"src/ribbonVault.sol\":5021:5151  function setMinPointsToSWap(uint _pointsMin)public onlyOwner{... */\n    tag_106:\n        /* \"@openzeppelin/contracts/access/Ownable.sol\":1531:1544  _checkOwner() */\n      tag_228\n        /* \"@openzeppelin/contracts/access/Ownable.sol\":1531:1542  _checkOwner */\n      tag_154\n        /* \"@openzeppelin/contracts/access/Ownable.sol\":1531:1544  _checkOwner() */\n      jump\t// in\n    tag_228:\n        /* \"src/ribbonVault.sol\":5120:5132  _Ipointscoin */\n      0x04\n      dup1\n      sload\n        /* \"src/ribbonVault.sol\":5120:5143  _Ipointscoin.decimals() */\n      0x40\n      dup1\n      mload\n      shl(0xe0, 0x313ce567)\n      dup2\n      mstore\n      swap1\n      mload\n      sub(shl(0xa0, 0x01), 0x01)\n        /* \"src/ribbonVault.sol\":5120:5132  _Ipointscoin */\n      swap1\n      swap3\n      and\n      swap3\n        /* \"src/ribbonVault.sol\":5120:5141  _Ipointscoin.decimals */\n      0x313ce567\n      swap3\n        /* \"src/ribbonVault.sol\":5120:5143  _Ipointscoin.decimals() */\n      dup3\n      dup3\n      add\n      swap3\n      0x20\n      swap3\n      swap1\n      dup3\n      swap1\n      sub\n      add\n      dup2\n        /* \"src/ribbonVault.sol\":5120:5132  _Ipointscoin */\n      dup7\n        /* \"src/ribbonVault.sol\":5120:5143  _Ipointscoin.decimals() */\n      gas\n      staticcall\n      iszero\n      dup1\n      iszero\n      tag_231\n      jumpi\n      returndatasize\n      0x00\n      dup1\n      returndatacopy\n      revert(0x00, returndatasize)\n    tag_231:\n      pop\n      pop\n      pop\n      pop\n      mload(0x40)\n      returndatasize\n      not(0x1f)\n      0x1f\n      dup3\n      add\n      and\n      dup3\n      add\n      dup1\n      0x40\n      mstore\n      pop\n      dup2\n      add\n      swap1\n      tag_232\n      swap2\n      swap1\n      tag_139\n      jump\t// in\n    tag_232:\n        /* \"src/ribbonVault.sol\":5116:5143  10**_Ipointscoin.decimals() */\n      tag_233\n      swap1\n        /* \"src/ribbonVault.sol\":5116:5118  10 */\n      0x0a\n        /* \"src/ribbonVault.sol\":5116:5143  10**_Ipointscoin.decimals() */\n      tag_141\n      jump\t// in\n    tag_233:\n        /* \"src/ribbonVault.sol\":5105:5143  _pointsMin*10**_Ipointscoin.decimals() */\n      tag_234\n      swap1\n        /* \"src/ribbonVault.sol\":5105:5115  _pointsMin */\n      dup3\n        /* \"src/ribbonVault.sol\":5105:5143  _pointsMin*10**_Ipointscoin.decimals() */\n      tag_143\n      jump\t// in\n    tag_234:\n        /* \"src/ribbonVault.sol\":5093:5102  pointsMin */\n      0x0a\n        /* \"src/ribbonVault.sol\":5093:5143  pointsMin = _pointsMin*10**_Ipointscoin.decimals() */\n      sstore\n      pop\n        /* \"src/ribbonVault.sol\":5021:5151  function setMinPointsToSWap(uint _pointsMin)public onlyOwner{... */\n      jump\t// out\n        /* \"src/ribbonVault.sol\":8160:8521  function emergencyWithdraw(address _tokenAddress,address _to,uint _amount )public onlyOwner{... */\n    tag_116:\n        /* \"@openzeppelin/contracts/access/Ownable.sol\":1531:1544  _checkOwner() */\n      tag_236\n        /* \"@openzeppelin/contracts/access/Ownable.sol\":1531:1542  _checkOwner */\n      tag_154\n        /* \"@openzeppelin/contracts/access/Ownable.sol\":1531:1544  _checkOwner() */\n      jump\t// in\n    tag_236:\n      sub(shl(0xa0, 0x01), 0x01)\n        /* \"src/ribbonVault.sol\":8270:8297  _tokenAddress != address(0) */\n      dup4\n      and\n        /* \"src/ribbonVault.sol\":8262:8332  require(_tokenAddress != address(0),\"you are sending to zero address\") */\n      tag_238\n      jumpi\n      mload(0x40)\n      shl(0xe5, 0x461bcd)\n      dup2\n      mstore\n      0x04\n      add\n      tag_164\n      swap1\n      tag_165\n      jump\t// in\n    tag_238:\n      sub(shl(0xa0, 0x01), 0x01)\n        /* \"src/ribbonVault.sol\":8351:8368  _to != address(0) */\n      dup3\n      and\n        /* \"src/ribbonVault.sol\":8343:8403  require(_to != address(0),\"you are sending to zero address\") */\n      tag_240\n      jumpi\n      mload(0x40)\n      shl(0xe5, 0x461bcd)\n      dup2\n      mstore\n      0x04\n      add\n      tag_164\n      swap1\n      tag_165\n      jump\t// in\n    tag_240:\n        /* \"src/ribbonVault.sol\":8432:8433  0 */\n      0x00\n        /* \"src/ribbonVault.sol\":8422:8429  _amount */\n      dup2\n        /* \"src/ribbonVault.sol\":8422:8433  _amount > 0 */\n      gt\n        /* \"src/ribbonVault.sol\":8414:8458  require(_amount > 0,\"cant send zero amount\") */\n      tag_242\n      jumpi\n      mload(0x40)\n      shl(0xe5, 0x461bcd)\n      dup2\n      mstore\n        /* \"#utility.yul\":9820:9822   */\n      0x20\n        /* \"src/ribbonVault.sol\":8414:8458  require(_amount > 0,\"cant send zero amount\") */\n      0x04\n      dup3\n      add\n        /* \"#utility.yul\":9802:9823   */\n      mstore\n        /* \"#utility.yul\":9859:9861   */\n      0x15\n        /* \"#utility.yul\":9839:9857   */\n      0x24\n      dup3\n      add\n        /* \"#utility.yul\":9832:9862   */\n      mstore\n      shl(0x5a, 0x18d85b9d081cd95b99081e995c9bc8185b5bdd5b9d)\n        /* \"#utility.yul\":9878:9896   */\n      0x44\n      dup3\n      add\n        /* \"#utility.yul\":9871:9922   */\n      mstore\n        /* \"#utility.yul\":9939:9957   */\n      0x64\n      add\n        /* \"src/ribbonVault.sol\":8414:8458  require(_amount > 0,\"cant send zero amount\") */\n      tag_164\n        /* \"#utility.yul\":9618:9963   */\n      jump\n        /* \"src/ribbonVault.sol\":8414:8458  require(_amount > 0,\"cant send zero amount\") */\n    tag_242:\n        /* \"src/ribbonVault.sol\":8469:8513  IERC20T(_tokenAddress).transfer(_to,_amount) */\n      mload(0x40)\n      shl(0xe0, 0xa9059cbb)\n      dup2\n      mstore\n      sub(shl(0xa0, 0x01), 0x01)\n        /* \"#utility.yul\":10160:10192   */\n      dup4\n      dup2\n      and\n        /* \"src/ribbonVault.sol\":8469:8513  IERC20T(_tokenAddress).transfer(_to,_amount) */\n      0x04\n      dup4\n      add\n        /* \"#utility.yul\":10142:10193   */\n      mstore\n        /* \"#utility.yul\":10209:10227   */\n      0x24\n      dup3\n      add\n        /* \"#utility.yul\":10202:10236   */\n      dup4\n      swap1\n      mstore\n        /* \"src/ribbonVault.sol\":8469:8500  IERC20T(_tokenAddress).transfer */\n      dup5\n      and\n      swap1\n      0xa9059cbb\n      swap1\n        /* \"#utility.yul\":10115:10133   */\n      0x44\n      add\n        /* \"src/ribbonVault.sol\":8469:8513  IERC20T(_tokenAddress).transfer(_to,_amount) */\n      0x20\n      mload(0x40)\n      dup1\n      dup4\n      sub\n      dup2\n      0x00\n      dup8\n      gas\n      call\n      iszero\n      dup1\n      iszero\n      tag_248\n      jumpi\n      returndatasize\n      0x00\n      dup1\n      returndatacopy\n      revert(0x00, returndatasize)\n    tag_248:\n      pop\n      pop\n      pop\n      pop\n      mload(0x40)\n      returndatasize\n      not(0x1f)\n      0x1f\n      dup3\n      add\n      and\n      dup3\n      add\n      dup1\n      0x40\n      mstore\n      pop\n      dup2\n      add\n      swap1\n      tag_223\n      swap2\n      swap1\n      tag_250\n      jump\t// in\n        /* \"@openzeppelin/contracts/access/Ownable.sol\":2543:2758  function transferOwnership(address newOwner) public virtual onlyOwner {... */\n    tag_119:\n        /* \"@openzeppelin/contracts/access/Ownable.sol\":1531:1544  _checkOwner() */\n      tag_252\n        /* \"@openzeppelin/contracts/access/Ownable.sol\":1531:1542  _checkOwner */\n      tag_154\n        /* \"@openzeppelin/contracts/access/Ownable.sol\":1531:1544  _checkOwner() */\n      jump\t// in\n    tag_252:\n      sub(shl(0xa0, 0x01), 0x01)\n        /* \"@openzeppelin/contracts/access/Ownable.sol\":2627:2649  newOwner == address(0) */\n      dup2\n      and\n        /* \"@openzeppelin/contracts/access/Ownable.sol\":2623:2714  if (newOwner == address(0)) {... */\n      tag_254\n      jumpi\n        /* \"@openzeppelin/contracts/access/Ownable.sol\":2672:2703  OwnableInvalidOwner(address(0)) */\n      mload(0x40)\n      shl(0xe0, 0x1e4fbdf7)\n      dup2\n      mstore\n        /* \"@openzeppelin/contracts/access/Ownable.sol\":2700:2701  0 */\n      0x00\n        /* \"@openzeppelin/contracts/access/Ownable.sol\":2672:2703  OwnableInvalidOwner(address(0)) */\n      0x04\n      dup3\n      add\n        /* \"#utility.yul\":4640:4691   */\n      mstore\n        /* \"#utility.yul\":4613:4631   */\n      0x24\n      add\n        /* \"@openzeppelin/contracts/access/Ownable.sol\":2672:2703  OwnableInvalidOwner(address(0)) */\n      tag_164\n        /* \"#utility.yul\":4494:4697   */\n      jump\n        /* \"@openzeppelin/contracts/access/Ownable.sol\":2623:2714  if (newOwner == address(0)) {... */\n    tag_254:\n        /* \"@openzeppelin/contracts/access/Ownable.sol\":2723:2751  _transferOwnership(newOwner) */\n      tag_256\n        /* \"@openzeppelin/contracts/access/Ownable.sol\":2742:2750  newOwner */\n      dup2\n        /* \"@openzeppelin/contracts/access/Ownable.sol\":2723:2741  _transferOwnership */\n      tag_187\n        /* \"@openzeppelin/contracts/access/Ownable.sol\":2723:2751  _transferOwnership(newOwner) */\n      jump\t// in\n    tag_256:\n        /* \"@openzeppelin/contracts/access/Ownable.sol\":2543:2758  function transferOwnership(address newOwner) public virtual onlyOwner {... */\n      pop\n      jump\t// out\n        /* \"src/ribbonVault.sol\":7159:8047  function permitSwapToPaymentCoin(address user,uint pointToSwap,uint256 deadline,uint8 v,bytes32 r,bytes32 s)public {... */\n    tag_125:\n      sub(shl(0xa0, 0x01), 0x01)\n        /* \"src/ribbonVault.sol\":7293:7311  user != address(0) */\n      dup7\n      and\n        /* \"src/ribbonVault.sol\":7285:7346  require(user != address(0),\"you are sending to zero address\") */\n      tag_258\n      jumpi\n      mload(0x40)\n      shl(0xe5, 0x461bcd)\n      dup2\n      mstore\n      0x04\n      add\n      tag_164\n      swap1\n      tag_165\n      jump\t// in\n    tag_258:\n        /* \"src/ribbonVault.sol\":7357:7397  _permit(user,pointToSwap,deadline,v,r,s) */\n      tag_260\n        /* \"src/ribbonVault.sol\":7365:7369  user */\n      dup7\n        /* \"src/ribbonVault.sol\":7370:7381  pointToSwap */\n      dup7\n        /* \"src/ribbonVault.sol\":7382:7390  deadline */\n      dup7\n        /* \"src/ribbonVault.sol\":7391:7392  v */\n      dup7\n        /* \"src/ribbonVault.sol\":7393:7394  r */\n      dup7\n        /* \"src/ribbonVault.sol\":7395:7396  s */\n      dup7\n        /* \"src/ribbonVault.sol\":7357:7364  _permit */\n      tag_167\n        /* \"src/ribbonVault.sol\":7357:7397  _permit(user,pointToSwap,deadline,v,r,s) */\n      jump\t// in\n    tag_260:\n        /* \"src/ribbonVault.sol\":7416:7428  freezePermit */\n      sload(0x0f)\n      shl(0xa0, 0x01)\n      swap1\n      div\n      0xff\n      and\n        /* \"src/ribbonVault.sol\":7416:7435  freezePermit==false */\n      iszero\n        /* \"src/ribbonVault.sol\":7408:7455  require(freezePermit==false,\"contract freezed\") */\n      tag_261\n      jumpi\n      mload(0x40)\n      shl(0xe5, 0x461bcd)\n      dup2\n      mstore\n        /* \"#utility.yul\":8138:8140   */\n      0x20\n        /* \"src/ribbonVault.sol\":7408:7455  require(freezePermit==false,\"contract freezed\") */\n      0x04\n      dup3\n      add\n        /* \"#utility.yul\":8120:8141   */\n      mstore\n        /* \"#utility.yul\":8177:8179   */\n      0x10\n        /* \"#utility.yul\":8157:8175   */\n      0x24\n      dup3\n      add\n        /* \"#utility.yul\":8150:8180   */\n      mstore\n      shl(0x82, 0x18dbdb9d1c9858dd08199c99595e9959)\n        /* \"#utility.yul\":8196:8214   */\n      0x44\n      dup3\n      add\n        /* \"#utility.yul\":8189:8235   */\n      mstore\n        /* \"#utility.yul\":8252:8270   */\n      0x64\n      add\n        /* \"src/ribbonVault.sol\":7408:7455  require(freezePermit==false,\"contract freezed\") */\n      tag_164\n        /* \"#utility.yul\":7936:8276   */\n      jump\n        /* \"src/ribbonVault.sol\":7408:7455  require(freezePermit==false,\"contract freezed\") */\n    tag_261:\n        /* \"src/ribbonVault.sol\":7474:7486  _Ipointscoin */\n      0x04\n      dup1\n      sload\n        /* \"src/ribbonVault.sol\":7474:7502  _Ipointscoin.balanceOf(user) */\n      mload(0x40)\n      shl(0xe0, 0x70a08231)\n      dup2\n      mstore\n      sub(shl(0xa0, 0x01), 0x01)\n        /* \"#utility.yul\":4658:4690   */\n      dup10\n      dup2\n      and\n        /* \"src/ribbonVault.sol\":7474:7502  _Ipointscoin.balanceOf(user) */\n      swap4\n      dup3\n      add\n        /* \"#utility.yul\":4640:4691   */\n      swap4\n      swap1\n      swap4\n      mstore\n        /* \"src/ribbonVault.sol\":7505:7516  pointToSwap */\n      dup8\n      swap3\n        /* \"src/ribbonVault.sol\":7474:7486  _Ipointscoin */\n      swap1\n      swap2\n      and\n      swap1\n        /* \"src/ribbonVault.sol\":7474:7496  _Ipointscoin.balanceOf */\n      0x70a08231\n      swap1\n        /* \"#utility.yul\":4613:4631   */\n      0x24\n      add\n        /* \"src/ribbonVault.sol\":7474:7502  _Ipointscoin.balanceOf(user) */\n      0x20\n      mload(0x40)\n      dup1\n      dup4\n      sub\n      dup2\n      dup7\n      gas\n      staticcall\n      iszero\n      dup1\n      iszero\n      tag_265\n      jumpi\n      returndatasize\n      0x00\n      dup1\n      returndatacopy\n      revert(0x00, returndatasize)\n    tag_265:\n      pop\n      pop\n      pop\n      pop\n      mload(0x40)\n      returndatasize\n      not(0x1f)\n      0x1f\n      dup3\n      add\n      and\n      dup3\n      add\n      dup1\n      0x40\n      mstore\n      pop\n      dup2\n      add\n      swap1\n      tag_266\n      swap2\n      swap1\n      tag_210\n      jump\t// in\n    tag_266:\n        /* \"src/ribbonVault.sol\":7474:7516  _Ipointscoin.balanceOf(user)>= pointToSwap */\n      lt\n      iszero\n        /* \"src/ribbonVault.sol\":7466:7537  require(_Ipointscoin.balanceOf(user)>= pointToSwap,\"not enough points\") */\n      tag_267\n      jumpi\n      mload(0x40)\n      shl(0xe5, 0x461bcd)\n      dup2\n      mstore\n        /* \"#utility.yul\":10699:10701   */\n      0x20\n        /* \"src/ribbonVault.sol\":7466:7537  require(_Ipointscoin.balanceOf(user)>= pointToSwap,\"not enough points\") */\n      0x04\n      dup3\n      add\n        /* \"#utility.yul\":10681:10702   */\n      mstore\n        /* \"#utility.yul\":10738:10740   */\n      0x11\n        /* \"#utility.yul\":10718:10736   */\n      0x24\n      dup3\n      add\n        /* \"#utility.yul\":10711:10741   */\n      mstore\n      shl(0x78, 0x6e6f7420656e6f75676820706f696e7473)\n        /* \"#utility.yul\":10757:10775   */\n      0x44\n      dup3\n      add\n        /* \"#utility.yul\":10750:10797   */\n      mstore\n        /* \"#utility.yul\":10814:10832   */\n      0x64\n      add\n        /* \"src/ribbonVault.sol\":7466:7537  require(_Ipointscoin.balanceOf(user)>= pointToSwap,\"not enough points\") */\n      tag_164\n        /* \"#utility.yul\":10497:10838   */\n      jump\n        /* \"src/ribbonVault.sol\":7466:7537  require(_Ipointscoin.balanceOf(user)>= pointToSwap,\"not enough points\") */\n    tag_267:\n        /* \"src/ribbonVault.sol\":7571:7580  pointsMin */\n      sload(0x0a)\n        /* \"src/ribbonVault.sol\":7556:7567  pointToSwap */\n      dup6\n        /* \"src/ribbonVault.sol\":7556:7580  pointToSwap >= pointsMin */\n      lt\n      iszero\n        /* \"src/ribbonVault.sol\":7548:7618  require(pointToSwap >= pointsMin,\"points to swap less than minpoints\") */\n      tag_270\n      jumpi\n      mload(0x40)\n      shl(0xe5, 0x461bcd)\n      dup2\n      mstore\n        /* \"#utility.yul\":11045:11047   */\n      0x20\n        /* \"src/ribbonVault.sol\":7548:7618  require(pointToSwap >= pointsMin,\"points to swap less than minpoints\") */\n      0x04\n      dup3\n      add\n        /* \"#utility.yul\":11027:11048   */\n      mstore\n        /* \"#utility.yul\":11084:11086   */\n      0x22\n        /* \"#utility.yul\":11064:11082   */\n      0x24\n      dup3\n      add\n        /* \"#utility.yul\":11057:11087   */\n      mstore\n        /* \"#utility.yul\":11123:11157   */\n      0x706f696e747320746f2073776170206c657373207468616e206d696e706f696e\n        /* \"#utility.yul\":11103:11121   */\n      0x44\n      dup3\n      add\n        /* \"#utility.yul\":11096:11158   */\n      mstore\n      shl(0xf0, 0x7473)\n        /* \"#utility.yul\":11174:11192   */\n      0x64\n      dup3\n      add\n        /* \"#utility.yul\":11167:11199   */\n      mstore\n        /* \"#utility.yul\":11216:11235   */\n      0x84\n      add\n        /* \"src/ribbonVault.sol\":7548:7618  require(pointToSwap >= pointsMin,\"points to swap less than minpoints\") */\n      tag_164\n        /* \"#utility.yul\":10843:11241   */\n      jump\n        /* \"src/ribbonVault.sol\":7548:7618  require(pointToSwap >= pointsMin,\"points to swap less than minpoints\") */\n    tag_270:\n        /* \"src/ribbonVault.sol\":7629:7640  uint amount */\n      0x00\n        /* \"src/ribbonVault.sol\":7643:7675  checkAmountToRecive(pointToSwap) */\n      tag_273\n        /* \"src/ribbonVault.sol\":7663:7674  pointToSwap */\n      dup7\n        /* \"src/ribbonVault.sol\":7643:7662  checkAmountToRecive */\n      tag_47\n        /* \"src/ribbonVault.sol\":7643:7675  checkAmountToRecive(pointToSwap) */\n      jump\t// in\n    tag_273:\n        /* \"src/ribbonVault.sol\":7629:7675  uint amount = checkAmountToRecive(pointToSwap) */\n      swap1\n      pop\n        /* \"src/ribbonVault.sol\":7708:7714  amount */\n      dup1\n        /* \"src/ribbonVault.sol\":7686:7704  claimedPaymentCoin */\n      0x0c\n      0x00\n        /* \"src/ribbonVault.sol\":7686:7714  claimedPaymentCoin += amount */\n      dup3\n      dup3\n      sload\n      tag_274\n      swap2\n      swap1\n      tag_212\n      jump\t// in\n    tag_274:\n      swap1\n      swap2\n      sstore\n      pop\n      pop\n        /* \"src/ribbonVault.sol\":7745:7758  withdrawalFee */\n      sload(0x09)\n        /* \"src/ribbonVault.sol\":7725:7734  uint _fee */\n      0x00\n      swap1\n        /* \"src/ribbonVault.sol\":7760:7763  100 */\n      0x64\n      swap1\n        /* \"src/ribbonVault.sol\":7738:7758  amount*withdrawalFee */\n      tag_275\n      swap1\n        /* \"src/ribbonVault.sol\":7738:7744  amount */\n      dup5\n        /* \"src/ribbonVault.sol\":7738:7758  amount*withdrawalFee */\n      tag_143\n      jump\t// in\n    tag_275:\n        /* \"src/ribbonVault.sol\":7737:7763  (amount*withdrawalFee)/100 */\n      tag_276\n      swap2\n      swap1\n      tag_151\n      jump\t// in\n    tag_276:\n        /* \"src/ribbonVault.sol\":7725:7763  uint _fee = (amount*withdrawalFee)/100 */\n      swap1\n      pop\n        /* \"src/ribbonVault.sol\":7774:7792  uint amoutAfterFee */\n      0x00\n        /* \"src/ribbonVault.sol\":7795:7807  amount -_fee */\n      tag_277\n        /* \"src/ribbonVault.sol\":7725:7763  uint _fee = (amount*withdrawalFee)/100 */\n      dup3\n        /* \"src/ribbonVault.sol\":7795:7801  amount */\n      dup5\n        /* \"src/ribbonVault.sol\":7795:7807  amount -_fee */\n      tag_215\n      jump\t// in\n    tag_277:\n        /* \"src/ribbonVault.sol\":7818:7830  _Ipointscoin */\n      0x04\n      dup1\n      sload\n        /* \"src/ribbonVault.sol\":7818:7853  _Ipointscoin.burn(user,pointToSwap) */\n      mload(0x40)\n      shl(0xe2, 0x2770a7eb)\n      dup2\n      mstore\n      sub(shl(0xa0, 0x01), 0x01)\n        /* \"#utility.yul\":10160:10192   */\n      dup14\n      dup2\n      and\n        /* \"src/ribbonVault.sol\":7818:7853  _Ipointscoin.burn(user,pointToSwap) */\n      swap4\n      dup3\n      add\n        /* \"#utility.yul\":10142:10193   */\n      swap4\n      swap1\n      swap4\n      mstore\n        /* \"#utility.yul\":10209:10227   */\n      0x24\n      dup2\n      add\n        /* \"#utility.yul\":10202:10236   */\n      dup13\n      swap1\n      mstore\n        /* \"src/ribbonVault.sol\":7774:7807  uint amoutAfterFee = amount -_fee */\n      swap3\n      swap4\n      pop\n        /* \"src/ribbonVault.sol\":7818:7830  _Ipointscoin */\n      and\n      swap1\n        /* \"src/ribbonVault.sol\":7818:7835  _Ipointscoin.burn */\n      0x9dc29fac\n      swap1\n        /* \"#utility.yul\":10115:10133   */\n      0x44\n      add\n        /* \"src/ribbonVault.sol\":7818:7853  _Ipointscoin.burn(user,pointToSwap) */\n      0x00\n      mload(0x40)\n      dup1\n      dup4\n      sub\n      dup2\n      0x00\n      dup8\n      dup1\n      extcodesize\n      iszero\n      dup1\n      iszero\n      tag_279\n      jumpi\n      0x00\n      dup1\n      revert\n    tag_279:\n      pop\n      gas\n      call\n      iszero\n      dup1\n      iszero\n      tag_281\n      jumpi\n      returndatasize\n      0x00\n      dup1\n      returndatacopy\n      revert(0x00, returndatasize)\n    tag_281:\n      pop\n      pop\n        /* \"src/ribbonVault.sol\":7864:7878  _IpaymentcoinT */\n      sload(0x05)\n        /* \"src/ribbonVault.sol\":7864:7911  _IpaymentcoinT.safeTransfer(user,amoutAfterFee) */\n      tag_282\n      swap3\n      pop\n      sub(shl(0xa0, 0x01), 0x01)\n        /* \"src/ribbonVault.sol\":7864:7878  _IpaymentcoinT */\n      and\n      swap1\n      pop\n        /* \"src/ribbonVault.sol\":7892:7896  user */\n      dup11\n        /* \"src/ribbonVault.sol\":7897:7910  amoutAfterFee */\n      dup4\n        /* \"src/ribbonVault.sol\":7864:7891  _IpaymentcoinT.safeTransfer */\n      tag_175\n        /* \"src/ribbonVault.sol\":7864:7911  _IpaymentcoinT.safeTransfer(user,amoutAfterFee) */\n      jump\t// in\n    tag_282:\n        /* \"src/ribbonVault.sol\":7922:7936  _IpaymentcoinT */\n      sload(0x05)\n        /* \"src/ribbonVault.sol\":7922:7966  _IpaymentcoinT.safeTransfer(msg.sender,_fee) */\n      tag_283\n      swap1\n      sub(shl(0xa0, 0x01), 0x01)\n        /* \"src/ribbonVault.sol\":7922:7936  _IpaymentcoinT */\n      and\n        /* \"src/ribbonVault.sol\":7950:7960  msg.sender */\n      caller\n        /* \"src/ribbonVault.sol\":7961:7965  _fee */\n      dup5\n        /* \"src/ribbonVault.sol\":7922:7949  _IpaymentcoinT.safeTransfer */\n      tag_175\n        /* \"src/ribbonVault.sol\":7922:7966  _IpaymentcoinT.safeTransfer(msg.sender,_fee) */\n      jump\t// in\n    tag_283:\n        /* \"src/ribbonVault.sol\":7982:8039  swap(user,block.timestamp,pointToSwap,amoutAfterFee,_fee) */\n      0x40\n      dup1\n      mload\n        /* \"#utility.yul\":11448:11473   */\n      dup10\n      dup2\n      mstore\n        /* \"#utility.yul\":11504:11506   */\n      0x20\n        /* \"#utility.yul\":11489:11507   */\n      dup2\n      add\n        /* \"#utility.yul\":11482:11516   */\n      dup4\n      swap1\n      mstore\n        /* \"#utility.yul\":11532:11550   */\n      swap1\n      dup2\n      add\n        /* \"#utility.yul\":11525:11559   */\n      dup4\n      swap1\n      mstore\n        /* \"src/ribbonVault.sol\":7992:8007  block.timestamp */\n      timestamp\n      swap1\n      sub(shl(0xa0, 0x01), 0x01)\n        /* \"src/ribbonVault.sol\":7982:8039  swap(user,block.timestamp,pointToSwap,amoutAfterFee,_fee) */\n      dup12\n      and\n      swap1\n      0x9a5f60e59cc27a7c25a7f78275c910454cd9adacb21cecff527c98ed63e02877\n      swap1\n        /* \"#utility.yul\":11436:11438   */\n      0x60\n        /* \"#utility.yul\":11421:11439   */\n      add\n        /* \"src/ribbonVault.sol\":7982:8039  swap(user,block.timestamp,pointToSwap,amoutAfterFee,_fee) */\n      mload(0x40)\n      dup1\n      swap2\n      sub\n      swap1\n      log3\n        /* \"src/ribbonVault.sol\":7274:8047  {... */\n      pop\n      pop\n      pop\n        /* \"src/ribbonVault.sol\":7159:8047  function permitSwapToPaymentCoin(address user,uint pointToSwap,uint256 deadline,uint8 v,bytes32 r,bytes32 s)public {... */\n      pop\n      pop\n      pop\n      pop\n      pop\n      pop\n      jump\t// out\n        /* \"@openzeppelin/contracts/access/Ownable.sol\":1796:1958  function _checkOwner() internal view virtual {... */\n    tag_154:\n        /* \"@openzeppelin/contracts/access/Ownable.sol\":1684:1691  address */\n      0x00\n        /* \"@openzeppelin/contracts/access/Ownable.sol\":1710:1716  _owner */\n      sload\n      sub(shl(0xa0, 0x01), 0x01)\n      and\n        /* \"@openzeppelin/contracts/utils/Context.sol\":735:745  msg.sender */\n      caller\n        /* \"@openzeppelin/contracts/access/Ownable.sol\":1855:1878  owner() != _msgSender() */\n      eq\n        /* \"@openzeppelin/contracts/access/Ownable.sol\":1851:1952  if (owner() != _msgSender()) {... */\n      tag_186\n      jumpi\n        /* \"@openzeppelin/contracts/access/Ownable.sol\":1901:1941  OwnableUnauthorizedAccount(_msgSender()) */\n      mload(0x40)\n      shl(0xe0, 0x118cdaa7)\n      dup2\n      mstore\n        /* \"@openzeppelin/contracts/utils/Context.sol\":735:745  msg.sender */\n      caller\n        /* \"@openzeppelin/contracts/access/Ownable.sol\":1901:1941  OwnableUnauthorizedAccount(_msgSender()) */\n      0x04\n      dup3\n      add\n        /* \"#utility.yul\":4640:4691   */\n      mstore\n        /* \"#utility.yul\":4613:4631   */\n      0x24\n      add\n        /* \"@openzeppelin/contracts/access/Ownable.sol\":1901:1941  OwnableUnauthorizedAccount(_msgSender()) */\n      tag_164\n        /* \"#utility.yul\":4494:4697   */\n      jump\n        /* \"@openzeppelin/contracts/utils/cryptography/EIP712.sol\":3845:4107  function _domainSeparatorV4() internal view returns (bytes32) {... */\n    tag_161:\n        /* \"@openzeppelin/contracts/utils/cryptography/EIP712.sol\":3898:3905  bytes32 */\n      0x00\n        /* \"@openzeppelin/contracts/utils/cryptography/EIP712.sol\":3929:3933  this */\n      address\n      sub(shl(0xa0, 0x01), 0x01)\n        /* \"@openzeppelin/contracts/utils/cryptography/EIP712.sol\":3938:3949  _cachedThis */\n      immutable(\"0x03bb33715397e0038c873ba02d4426eebb2b65cc3940a0fa71a481a9b37d980d\")\n        /* \"@openzeppelin/contracts/utils/cryptography/EIP712.sol\":3921:3949  address(this) == _cachedThis */\n      and\n      eq\n        /* \"@openzeppelin/contracts/utils/cryptography/EIP712.sol\":3921:3984  address(this) == _cachedThis && block.chainid == _cachedChainId */\n      dup1\n      iszero\n      tag_294\n      jumpi\n      pop\n        /* \"@openzeppelin/contracts/utils/cryptography/EIP712.sol\":3970:3984  _cachedChainId */\n      immutable(\"0xbe147d0aaf628bab5d3600ba0e8222c4d7f0eec30321d0b98d9f641634fbb471\")\n        /* \"@openzeppelin/contracts/utils/cryptography/EIP712.sol\":3953:3966  block.chainid */\n      chainid\n        /* \"@openzeppelin/contracts/utils/cryptography/EIP712.sol\":3953:3984  block.chainid == _cachedChainId */\n      eq\n        /* \"@openzeppelin/contracts/utils/cryptography/EIP712.sol\":3921:3984  address(this) == _cachedThis && block.chainid == _cachedChainId */\n    tag_294:\n        /* \"@openzeppelin/contracts/utils/cryptography/EIP712.sol\":3917:4101  if (address(this) == _cachedThis && block.chainid == _cachedChainId) {... */\n      iszero\n      tag_295\n      jumpi\n      pop\n        /* \"@openzeppelin/contracts/utils/cryptography/EIP712.sol\":4007:4029  _cachedDomainSeparator */\n      immutable(\"0xa1c879b0284e72931b8cd098e080355084a332f82e911af96b3055fa2035b7e8\")\n      swap1\n        /* \"@openzeppelin/contracts/utils/cryptography/EIP712.sol\":3845:4107  function _domainSeparatorV4() internal view returns (bytes32) {... */\n      jump\t// out\n        /* \"@openzeppelin/contracts/utils/cryptography/EIP712.sol\":3917:4101  if (address(this) == _cachedThis && block.chainid == _cachedChainId) {... */\n    tag_295:\n        /* \"@openzeppelin/contracts/utils/cryptography/EIP712.sol\":4067:4090  _buildDomainSeparator() */\n      tag_160\n        /* \"@openzeppelin/contracts/utils/cryptography/EIP712.sol\":4204:4284  abi.encode(TYPE_HASH, _hashedName, _hashedVersion, block.chainid, address(this)) */\n      0x40\n      dup1\n      mload\n        /* \"@openzeppelin/contracts/utils/cryptography/EIP712.sol\":2079:2174  keccak256(\"EIP712Domain(string name,string version,uint256 chainId,address verifyingContract)\") */\n      0x8b73c3c69bb8fe3d512ecc4cf759cc79239f7b179b0ffacaa9a75d522b39400f\n        /* \"@openzeppelin/contracts/utils/cryptography/EIP712.sol\":4204:4284  abi.encode(TYPE_HASH, _hashedName, _hashedVersion, block.chainid, address(this)) */\n      0x20\n      dup3\n      add\n        /* \"#utility.yul\":12998:13023   */\n      mstore\n        /* \"@openzeppelin/contracts/utils/cryptography/EIP712.sol\":4226:4237  _hashedName */\n      immutable(\"0xdd8b51ee9128c681fbd81845dd6426716fdc986a3bb51fedf5af16f35ac2adb3\")\n        /* \"#utility.yul\":13039:13057   */\n      swap2\n      dup2\n      add\n        /* \"#utility.yul\":13032:13066   */\n      swap2\n      swap1\n      swap2\n      mstore\n        /* \"@openzeppelin/contracts/utils/cryptography/EIP712.sol\":4239:4253  _hashedVersion */\n      immutable(\"0x5a51cac41fe69f71b7795862cc646f7451dfff9d51b9de6ea410fc434c56d513\")\n        /* \"#utility.yul\":13082:13100   */\n      0x60\n      dup3\n      add\n        /* \"#utility.yul\":13075:13109   */\n      mstore\n        /* \"@openzeppelin/contracts/utils/cryptography/EIP712.sol\":4255:4268  block.chainid */\n      chainid\n        /* \"#utility.yul\":13125:13143   */\n      0x80\n      dup3\n      add\n        /* \"#utility.yul\":13118:13152   */\n      mstore\n        /* \"@openzeppelin/contracts/utils/cryptography/EIP712.sol\":4278:4282  this */\n      address\n        /* \"#utility.yul\":13168:13187   */\n      0xa0\n      dup3\n      add\n        /* \"#utility.yul\":13161:13222   */\n      mstore\n        /* \"@openzeppelin/contracts/utils/cryptography/EIP712.sol\":4168:4175  bytes32 */\n      0x00\n      swap1\n        /* \"#utility.yul\":12970:12989   */\n      0xc0\n      add\n        /* \"@openzeppelin/contracts/utils/cryptography/EIP712.sol\":4204:4284  abi.encode(TYPE_HASH, _hashedName, _hashedVersion, block.chainid, address(this)) */\n      mload(0x40)\n      0x20\n      dup2\n      dup4\n      sub\n      sub\n      dup2\n      mstore\n      swap1\n      0x40\n      mstore\n        /* \"@openzeppelin/contracts/utils/cryptography/EIP712.sol\":4194:4285  keccak256(abi.encode(TYPE_HASH, _hashedName, _hashedVersion, block.chainid, address(this))) */\n      dup1\n      mload\n      swap1\n      0x20\n      add\n      keccak256\n        /* \"@openzeppelin/contracts/utils/cryptography/EIP712.sol\":4187:4285  return keccak256(abi.encode(TYPE_HASH, _hashedName, _hashedVersion, block.chainid, address(this))) */\n      swap1\n      pop\n        /* \"@openzeppelin/contracts/utils/cryptography/EIP712.sol\":4113:4292  function _buildDomainSeparator() private view returns (bytes32) {... */\n      swap1\n      jump\n        /* \"src/ribbonVault.sol\":8822:9663  function _permit(... */\n    tag_167:\n        /* \"src/ribbonVault.sol\":9090:9098  sig_v[v] */\n      0xff\n      dup1\n      dup5\n      and\n      0x00\n      swap1\n      dup2\n      mstore\n        /* \"src/ribbonVault.sol\":9090:9095  sig_v */\n      0x10\n        /* \"src/ribbonVault.sol\":9090:9098  sig_v[v] */\n      0x20\n      mstore\n      0x40\n      swap1\n      keccak256\n      sload\n      and\n        /* \"src/ribbonVault.sol\":9090:9105  sig_v[v]==false */\n      iszero\n      dup1\n        /* \"src/ribbonVault.sol\":9090:9126  sig_v[v]==false || sig_r[r] == false */\n      tag_300\n      jumpi\n      pop\n        /* \"src/ribbonVault.sol\":9109:9117  sig_r[r] */\n      0x00\n      dup3\n      dup2\n      mstore\n        /* \"src/ribbonVault.sol\":9109:9114  sig_r */\n      0x11\n        /* \"src/ribbonVault.sol\":9109:9117  sig_r[r] */\n      0x20\n      mstore\n      0x40\n      swap1\n      keccak256\n      sload\n      0xff\n      and\n        /* \"src/ribbonVault.sol\":9109:9126  sig_r[r] == false */\n      iszero\n        /* \"src/ribbonVault.sol\":9090:9126  sig_v[v]==false || sig_r[r] == false */\n    tag_300:\n        /* \"src/ribbonVault.sol\":9090:9145  sig_v[v]==false || sig_r[r] == false || sig_s[s]==false */\n      dup1\n      tag_301\n      jumpi\n      pop\n        /* \"src/ribbonVault.sol\":9130:9138  sig_s[s] */\n      0x00\n      dup2\n      dup2\n      mstore\n        /* \"src/ribbonVault.sol\":9130:9135  sig_s */\n      0x12\n        /* \"src/ribbonVault.sol\":9130:9138  sig_s[s] */\n      0x20\n      mstore\n      0x40\n      swap1\n      keccak256\n      sload\n      0xff\n      and\n        /* \"src/ribbonVault.sol\":9130:9145  sig_s[s]==false */\n      iszero\n        /* \"src/ribbonVault.sol\":9090:9145  sig_v[v]==false || sig_r[r] == false || sig_s[s]==false */\n    tag_301:\n        /* \"src/ribbonVault.sol\":9082:9157  require(sig_v[v]==false || sig_r[r] == false || sig_s[s]==false,\"sig used\") */\n      tag_302\n      jumpi\n      mload(0x40)\n      shl(0xe5, 0x461bcd)\n      dup2\n      mstore\n        /* \"#utility.yul\":11772:11774   */\n      0x20\n        /* \"src/ribbonVault.sol\":9082:9157  require(sig_v[v]==false || sig_r[r] == false || sig_s[s]==false,\"sig used\") */\n      0x04\n      dup3\n      add\n        /* \"#utility.yul\":11754:11775   */\n      mstore\n        /* \"#utility.yul\":11811:11812   */\n      0x08\n        /* \"#utility.yul\":11791:11809   */\n      0x24\n      dup3\n      add\n        /* \"#utility.yul\":11784:11813   */\n      mstore\n      shl(0xc2, 0x1cda59c81d5cd959)\n        /* \"#utility.yul\":11829:11847   */\n      0x44\n      dup3\n      add\n        /* \"#utility.yul\":11822:11860   */\n      mstore\n        /* \"#utility.yul\":11877:11895   */\n      0x64\n      add\n        /* \"src/ribbonVault.sol\":9082:9157  require(sig_v[v]==false || sig_r[r] == false || sig_s[s]==false,\"sig used\") */\n      tag_164\n        /* \"#utility.yul\":11570:11901   */\n      jump\n        /* \"src/ribbonVault.sol\":9082:9157  require(sig_v[v]==false || sig_r[r] == false || sig_s[s]==false,\"sig used\") */\n    tag_302:\n        /* \"src/ribbonVault.sol\":9190:9198  deadline */\n      dup4\n        /* \"src/ribbonVault.sol\":9172:9187  block.timestamp */\n      timestamp\n        /* \"src/ribbonVault.sol\":9172:9198  block.timestamp > deadline */\n      gt\n        /* \"src/ribbonVault.sol\":9168:9267  if (block.timestamp > deadline) {... */\n      iszero\n      tag_305\n      jumpi\n        /* \"src/ribbonVault.sol\":9222:9255  ERC2612ExpiredSignature(deadline) */\n      mload(0x40)\n      shl(0xe1, 0x313c8981)\n      dup2\n      mstore\n      0x04\n      dup2\n      add\n        /* \"#utility.yul\":160:185   */\n      dup6\n      swap1\n      mstore\n        /* \"#utility.yul\":133:151   */\n      0x24\n      add\n        /* \"src/ribbonVault.sol\":9222:9255  ERC2612ExpiredSignature(deadline) */\n      tag_164\n        /* \"#utility.yul\":14:191   */\n      jump\n        /* \"src/ribbonVault.sol\":9168:9267  if (block.timestamp > deadline) {... */\n    tag_305:\n        /* \"src/ribbonVault.sol\":9336:9341  admin */\n      sload(0x0f)\n        /* \"src/ribbonVault.sol\":9308:9365  abi.encode(PERMIT_TYPEHASH, admin, user, value, deadline) */\n      0x40\n      dup1\n      mload\n        /* \"src/ribbonVault.sol\":765:846  keccak256(\"Permit(address owner,address spender,uint256 value,uint256 deadline)\") */\n      0x05619a74ecd0240afc3bfb1df2bd1319401220fb577809c3a09bf0ab809ac861\n        /* \"src/ribbonVault.sol\":9308:9365  abi.encode(PERMIT_TYPEHASH, admin, user, value, deadline) */\n      0x20\n      dup3\n      add\n        /* \"#utility.yul\":12165:12190   */\n      mstore\n      sub(shl(0xa0, 0x01), 0x01)\n        /* \"src/ribbonVault.sol\":9336:9341  admin */\n      swap3\n      dup4\n      and\n        /* \"#utility.yul\":12244:12262   */\n      swap2\n      dup2\n      add\n        /* \"#utility.yul\":12237:12280   */\n      swap2\n      swap1\n      swap2\n      mstore\n        /* \"#utility.yul\":12316:12331   */\n      swap1\n      dup8\n      and\n        /* \"#utility.yul\":12296:12314   */\n      0x60\n      dup3\n      add\n        /* \"#utility.yul\":12289:12332   */\n      mstore\n        /* \"#utility.yul\":12348:12366   */\n      0x80\n      dup2\n      add\n        /* \"#utility.yul\":12341:12375   */\n      dup7\n      swap1\n      mstore\n        /* \"#utility.yul\":12391:12410   */\n      0xa0\n      dup2\n      add\n        /* \"#utility.yul\":12384:12419   */\n      dup6\n      swap1\n      mstore\n        /* \"src/ribbonVault.sol\":9277:9295  bytes32 structHash */\n      0x00\n      swap1\n        /* \"#utility.yul\":12137:12156   */\n      0xc0\n      add\n        /* \"src/ribbonVault.sol\":9308:9365  abi.encode(PERMIT_TYPEHASH, admin, user, value, deadline) */\n      mload(0x40)\n      0x20\n      dup2\n      dup4\n      sub\n      sub\n      dup2\n      mstore\n      swap1\n      0x40\n      mstore\n        /* \"src/ribbonVault.sol\":9298:9366  keccak256(abi.encode(PERMIT_TYPEHASH, admin, user, value, deadline)) */\n      dup1\n      mload\n      swap1\n      0x20\n      add\n      keccak256\n        /* \"src/ribbonVault.sol\":9277:9366  bytes32 structHash = keccak256(abi.encode(PERMIT_TYPEHASH, admin, user, value, deadline)) */\n      swap1\n      pop\n        /* \"src/ribbonVault.sol\":9378:9390  bytes32 hash */\n      0x00\n        /* \"src/ribbonVault.sol\":9393:9421  _hashTypedDataV4(structHash) */\n      tag_309\n        /* \"src/ribbonVault.sol\":9410:9420  structHash */\n      dup3\n        /* \"src/ribbonVault.sol\":9393:9409  _hashTypedDataV4 */\n      tag_310\n        /* \"src/ribbonVault.sol\":9393:9421  _hashTypedDataV4(structHash) */\n      jump\t// in\n    tag_309:\n        /* \"src/ribbonVault.sol\":9378:9421  bytes32 hash = _hashTypedDataV4(structHash) */\n      swap1\n      pop\n        /* \"src/ribbonVault.sol\":9434:9448  address signer */\n      0x00\n        /* \"src/ribbonVault.sol\":9451:9479  ECDSA.recover(hash, v, r, s) */\n      tag_311\n        /* \"src/ribbonVault.sol\":9465:9469  hash */\n      dup3\n        /* \"src/ribbonVault.sol\":9471:9472  v */\n      dup8\n        /* \"src/ribbonVault.sol\":9474:9475  r */\n      dup8\n        /* \"src/ribbonVault.sol\":9477:9478  s */\n      dup8\n        /* \"src/ribbonVault.sol\":9451:9464  ECDSA.recover */\n      tag_312\n        /* \"src/ribbonVault.sol\":9451:9479  ECDSA.recover(hash, v, r, s) */\n      jump\t// in\n    tag_311:\n        /* \"src/ribbonVault.sol\":9504:9509  admin */\n      sload(0x0f)\n        /* \"src/ribbonVault.sol\":9434:9479  address signer = ECDSA.recover(hash, v, r, s) */\n      swap1\n      swap2\n      pop\n      sub(shl(0xa0, 0x01), 0x01)\n        /* \"src/ribbonVault.sol\":9494:9509  signer != admin */\n      dup1\n      dup4\n      and\n        /* \"src/ribbonVault.sol\":9504:9509  admin */\n      swap2\n      and\n        /* \"src/ribbonVault.sol\":9494:9509  signer != admin */\n      eq\n        /* \"src/ribbonVault.sol\":9490:9580  if (signer != admin) {... */\n      tag_313\n      jumpi\n        /* \"src/ribbonVault.sol\":9562:9567  admin */\n      sload(0x0f)\n        /* \"src/ribbonVault.sol\":9533:9568  ERC2612InvalidSigner(signer, admin) */\n      mload(0x40)\n      shl(0xe1, 0x25c00723)\n      dup2\n      mstore\n      sub(shl(0xa0, 0x01), 0x01)\n        /* \"#utility.yul\":12660:12675   */\n      dup1\n      dup5\n      and\n        /* \"src/ribbonVault.sol\":9533:9568  ERC2612InvalidSigner(signer, admin) */\n      0x04\n      dup4\n      add\n        /* \"#utility.yul\":12642:12676   */\n      mstore\n        /* \"src/ribbonVault.sol\":9562:9567  admin */\n      swap1\n      swap2\n      and\n        /* \"#utility.yul\":12692:12710   */\n      0x24\n      dup3\n      add\n        /* \"#utility.yul\":12685:12728   */\n      mstore\n        /* \"#utility.yul\":12577:12595   */\n      0x44\n      add\n        /* \"src/ribbonVault.sol\":9533:9568  ERC2612InvalidSigner(signer, admin) */\n      tag_164\n        /* \"#utility.yul\":12430:12734   */\n      jump\n        /* \"src/ribbonVault.sol\":9490:9580  if (signer != admin) {... */\n    tag_313:\n      pop\n      pop\n      pop\n        /* \"src/ribbonVault.sol\":9590:9598  sig_v[v] */\n      0xff\n      swap1\n      swap3\n      and\n      0x00\n      swap1\n      dup2\n      mstore\n        /* \"src/ribbonVault.sol\":9590:9595  sig_v */\n      0x10\n        /* \"src/ribbonVault.sol\":9590:9598  sig_v[v] */\n      0x20\n      swap1\n      dup2\n      mstore\n      0x40\n      dup1\n      dup4\n      keccak256\n        /* \"src/ribbonVault.sol\":9590:9603  sig_v[v]=true */\n      dup1\n      sload\n      not(0xff)\n      swap1\n      dup2\n      and\n        /* \"src/ribbonVault.sol\":9599:9603  true */\n      0x01\n        /* \"src/ribbonVault.sol\":9590:9603  sig_v[v]=true */\n      swap1\n      dup2\n      or\n      swap1\n      swap3\n      sstore\n        /* \"src/ribbonVault.sol\":9614:9622  sig_r[r] */\n      swap5\n      dup5\n      mstore\n        /* \"src/ribbonVault.sol\":9614:9619  sig_r */\n      0x11\n        /* \"src/ribbonVault.sol\":9614:9622  sig_r[r] */\n      dup4\n      mstore\n      dup2\n      dup5\n      keccak256\n        /* \"src/ribbonVault.sol\":9614:9627  sig_r[r]=true */\n      dup1\n      sload\n      dup7\n      and\n      dup3\n      or\n      swap1\n      sstore\n        /* \"src/ribbonVault.sol\":9638:9646  sig_s[s] */\n      swap5\n      dup4\n      mstore\n        /* \"src/ribbonVault.sol\":9638:9643  sig_s */\n      0x12\n        /* \"src/ribbonVault.sol\":9638:9646  sig_s[s] */\n      swap1\n      swap2\n      mstore\n      swap1\n      keccak256\n        /* \"src/ribbonVault.sol\":9638:9651  sig_s[s]=true */\n      dup1\n      sload\n      swap1\n      swap2\n      and\n      swap1\n      swap2\n      or\n      swap1\n      sstore\n      pop\n      pop\n      pop\n        /* \"src/ribbonVault.sol\":8822:9663  function _permit(... */\n      jump\t// out\n        /* \"@openzeppelin/contracts/token/ERC20/utils/SafeERC20.sol\":1303:1463  function safeTransfer(IERC20 token, address to, uint256 value) internal {... */\n    tag_175:\n        /* \"@openzeppelin/contracts/token/ERC20/utils/SafeERC20.sol\":1412:1455  abi.encodeCall(token.transfer, (to, value)) */\n      0x40\n      dup1\n      mload\n      sub(shl(0xa0, 0x01), 0x01)\n        /* \"#utility.yul\":10160:10192   */\n      dup5\n      and\n        /* \"@openzeppelin/contracts/token/ERC20/utils/SafeERC20.sol\":1412:1455  abi.encodeCall(token.transfer, (to, value)) */\n      0x24\n      dup3\n      add\n        /* \"#utility.yul\":10142:10193   */\n      mstore\n        /* \"#utility.yul\":10209:10227   */\n      0x44\n      dup1\n      dup3\n      add\n        /* \"#utility.yul\":10202:10236   */\n      dup5\n      swap1\n      mstore\n        /* \"@openzeppelin/contracts/token/ERC20/utils/SafeERC20.sol\":1412:1455  abi.encodeCall(token.transfer, (to, value)) */\n      dup3\n      mload\n      dup1\n      dup4\n      sub\n      swap1\n      swap2\n      add\n      dup2\n      mstore\n        /* \"#utility.yul\":10115:10133   */\n      0x64\n      swap1\n      swap2\n      add\n        /* \"@openzeppelin/contracts/token/ERC20/utils/SafeERC20.sol\":1412:1455  abi.encodeCall(token.transfer, (to, value)) */\n      swap1\n      swap2\n      mstore\n      0x20\n      dup2\n      add\n      dup1\n      mload\n      sub(shl(0xe0, 0x01), 0x01)\n      and\n      shl(0xe0, 0xa9059cbb)\n      or\n      swap1\n      mstore\n        /* \"@openzeppelin/contracts/token/ERC20/utils/SafeERC20.sol\":1385:1456  _callOptionalReturn(token, abi.encodeCall(token.transfer, (to, value))) */\n      tag_317\n      swap1\n        /* \"@openzeppelin/contracts/token/ERC20/utils/SafeERC20.sol\":1405:1410  token */\n      dup5\n      swap1\n        /* \"@openzeppelin/contracts/token/ERC20/utils/SafeERC20.sol\":1385:1404  _callOptionalReturn */\n      tag_319\n        /* \"@openzeppelin/contracts/token/ERC20/utils/SafeERC20.sol\":1385:1456  _callOptionalReturn(token, abi.encodeCall(token.transfer, (to, value))) */\n      jump\t// in\n    tag_317:\n        /* \"@openzeppelin/contracts/token/ERC20/utils/SafeERC20.sol\":1303:1463  function safeTransfer(IERC20 token, address to, uint256 value) internal {... */\n      pop\n      pop\n      pop\n      jump\t// out\n        /* \"@openzeppelin/contracts/access/Ownable.sol\":2912:3099  function _transferOwnership(address newOwner) internal virtual {... */\n    tag_187:\n        /* \"@openzeppelin/contracts/access/Ownable.sol\":2985:3001  address oldOwner */\n      0x00\n        /* \"@openzeppelin/contracts/access/Ownable.sol\":3004:3010  _owner */\n      dup1\n      sload\n      sub(shl(0xa0, 0x01), 0x01)\n        /* \"@openzeppelin/contracts/access/Ownable.sol\":3020:3037  _owner = newOwner */\n      dup4\n      dup2\n      and\n      not(sub(shl(0xa0, 0x01), 0x01))\n      dup4\n      and\n      dup2\n      or\n      dup5\n      sstore\n        /* \"@openzeppelin/contracts/access/Ownable.sol\":3052:3092  OwnershipTransferred(oldOwner, newOwner) */\n      mload(0x40)\n        /* \"@openzeppelin/contracts/access/Ownable.sol\":3004:3010  _owner */\n      swap2\n      swap1\n      swap3\n      and\n      swap3\n      dup4\n      swap2\n        /* \"@openzeppelin/contracts/access/Ownable.sol\":3052:3092  OwnershipTransferred(oldOwner, newOwner) */\n      0x8be0079c531659141344cd1fd0a4f28419497f9722a3daafe3b4186f6b6457e0\n      swap2\n        /* \"@openzeppelin/contracts/access/Ownable.sol\":2985:3001  address oldOwner */\n      swap1\n        /* \"@openzeppelin/contracts/access/Ownable.sol\":3052:3092  OwnershipTransferred(oldOwner, newOwner) */\n      log3\n        /* \"@openzeppelin/contracts/access/Ownable.sol\":2975:3099  {... */\n      pop\n        /* \"@openzeppelin/contracts/access/Ownable.sol\":2912:3099  function _transferOwnership(address newOwner) internal virtual {... */\n      pop\n      jump\t// out\n        /* \"@openzeppelin/contracts/utils/cryptography/EIP712.sol\":6021:6147  function _EIP712Name() internal view returns (string memory) {... */\n    tag_193:\n        /* \"@openzeppelin/contracts/utils/cryptography/EIP712.sol\":6067:6080  string memory */\n      0x60\n        /* \"@openzeppelin/contracts/utils/cryptography/EIP712.sol\":6099:6140  _name.toStringWithFallback(_nameFallback) */\n      tag_160\n        /* \"@openzeppelin/contracts/utils/cryptography/EIP712.sol\":6099:6104  _name */\n      immutable(\"0xeaf32fa183047e964e285a9ee962816e722361d0ef19b580cefefec39cdc1e6b\")\n        /* \"@openzeppelin/contracts/utils/cryptography/EIP712.sol\":6126:6139  _nameFallback */\n      0x01\n        /* \"@openzeppelin/contracts/utils/cryptography/EIP712.sol\":6099:6125  _name.toStringWithFallback */\n      tag_323\n        /* \"@openzeppelin/contracts/utils/cryptography/EIP712.sol\":6099:6140  _name.toStringWithFallback(_nameFallback) */\n      jump\t// in\n        /* \"@openzeppelin/contracts/utils/cryptography/EIP712.sol\":6473:6608  function _EIP712Version() internal view returns (string memory) {... */\n    tag_195:\n        /* \"@openzeppelin/contracts/utils/cryptography/EIP712.sol\":6522:6535  string memory */\n      0x60\n        /* \"@openzeppelin/contracts/utils/cryptography/EIP712.sol\":6554:6601  _version.toStringWithFallback(_versionFallback) */\n      tag_160\n        /* \"@openzeppelin/contracts/utils/cryptography/EIP712.sol\":6554:6562  _version */\n      immutable(\"0xf8488ee4284bdfced5e7ecbb6b2116f40bc259e448370e3da8f991f5c7e11002\")\n        /* \"@openzeppelin/contracts/utils/cryptography/EIP712.sol\":6584:6600  _versionFallback */\n      0x02\n        /* \"@openzeppelin/contracts/utils/cryptography/EIP712.sol\":6554:6583  _version.toStringWithFallback */\n      tag_323\n        /* \"@openzeppelin/contracts/utils/cryptography/EIP712.sol\":6554:6601  _version.toStringWithFallback(_versionFallback) */\n      jump\t// in\n        /* \"@openzeppelin/contracts/utils/cryptography/EIP712.sol\":4917:5093  function _hashTypedDataV4(bytes32 structHash) internal view virtual returns (bytes32) {... */\n    tag_310:\n        /* \"@openzeppelin/contracts/utils/cryptography/EIP712.sol\":4994:5001  bytes32 */\n      0x00\n        /* \"@openzeppelin/contracts/utils/cryptography/EIP712.sol\":5020:5086  MessageHashUtils.toTypedDataHash(_domainSeparatorV4(), structHash) */\n      tag_331\n        /* \"@openzeppelin/contracts/utils/cryptography/EIP712.sol\":5053:5073  _domainSeparatorV4() */\n      tag_332\n        /* \"@openzeppelin/contracts/utils/cryptography/EIP712.sol\":5053:5071  _domainSeparatorV4 */\n      tag_161\n        /* \"@openzeppelin/contracts/utils/cryptography/EIP712.sol\":5053:5073  _domainSeparatorV4() */\n      jump\t// in\n    tag_332:\n        /* \"@openzeppelin/contracts/utils/cryptography/EIP712.sol\":5075:5085  structHash */\n      dup4\n        /* \"@openzeppelin/contracts/utils/cryptography/MessageHashUtils.sol\":3555:3559  0x40 */\n      0x40\n        /* \"@openzeppelin/contracts/utils/cryptography/MessageHashUtils.sol\":3549:3560  mload(0x40) */\n      mload\n      shl(0xf0, 0x1901)\n        /* \"@openzeppelin/contracts/utils/cryptography/MessageHashUtils.sol\":3573:3596  mstore(ptr, hex\"19_01\") */\n      dup2\n      mstore\n        /* \"@openzeppelin/contracts/utils/cryptography/MessageHashUtils.sol\":3625:3629  0x02 */\n      0x02\n        /* \"@openzeppelin/contracts/utils/cryptography/MessageHashUtils.sol\":3616:3630  add(ptr, 0x02) */\n      dup2\n      add\n        /* \"@openzeppelin/contracts/utils/cryptography/MessageHashUtils.sol\":3609:3648  mstore(add(ptr, 0x02), domainSeparator) */\n      swap3\n      swap1\n      swap3\n      mstore\n        /* \"@openzeppelin/contracts/utils/cryptography/MessageHashUtils.sol\":3677:3681  0x22 */\n      0x22\n        /* \"@openzeppelin/contracts/utils/cryptography/MessageHashUtils.sol\":3668:3682  add(ptr, 0x22) */\n      dup3\n      add\n        /* \"@openzeppelin/contracts/utils/cryptography/MessageHashUtils.sol\":3661:3695  mstore(add(ptr, 0x22), structHash) */\n      mstore\n        /* \"@openzeppelin/contracts/utils/cryptography/MessageHashUtils.sol\":3733:3737  0x42 */\n      0x42\n        /* \"@openzeppelin/contracts/utils/cryptography/MessageHashUtils.sol\":3718:3738  keccak256(ptr, 0x42) */\n      swap1\n      keccak256\n      swap1\n        /* \"@openzeppelin/contracts/utils/cryptography/MessageHashUtils.sol\":3353:3754  function toTypedDataHash(bytes32 domainSeparator, bytes32 structHash) internal pure returns (bytes32 digest) {... */\n      jump\n        /* \"@openzeppelin/contracts/utils/cryptography/EIP712.sol\":5020:5086  MessageHashUtils.toTypedDataHash(_domainSeparatorV4(), structHash) */\n    tag_331:\n        /* \"@openzeppelin/contracts/utils/cryptography/EIP712.sol\":5013:5086  return MessageHashUtils.toTypedDataHash(_domainSeparatorV4(), structHash) */\n      swap3\n        /* \"@openzeppelin/contracts/utils/cryptography/EIP712.sol\":4917:5093  function _hashTypedDataV4(bytes32 structHash) internal view virtual returns (bytes32) {... */\n      swap2\n      pop\n      pop\n      jump\t// out\n        /* \"@openzeppelin/contracts/utils/cryptography/ECDSA.sol\":6803:7063  function recover(bytes32 hash, uint8 v, bytes32 r, bytes32 s) internal pure returns (address) {... */\n    tag_312:\n        /* \"@openzeppelin/contracts/utils/cryptography/ECDSA.sol\":6888:6895  address */\n      0x00\n        /* \"@openzeppelin/contracts/utils/cryptography/ECDSA.sol\":6908:6925  address recovered */\n      dup1\n        /* \"@openzeppelin/contracts/utils/cryptography/ECDSA.sol\":6927:6945  RecoverError error */\n      0x00\n        /* \"@openzeppelin/contracts/utils/cryptography/ECDSA.sol\":6947:6963  bytes32 errorArg */\n      dup1\n        /* \"@openzeppelin/contracts/utils/cryptography/ECDSA.sol\":6967:6992  tryRecover(hash, v, r, s) */\n      tag_335\n        /* \"@openzeppelin/contracts/utils/cryptography/ECDSA.sol\":6978:6982  hash */\n      dup9\n        /* \"@openzeppelin/contracts/utils/cryptography/ECDSA.sol\":6984:6985  v */\n      dup9\n        /* \"@openzeppelin/contracts/utils/cryptography/ECDSA.sol\":6987:6988  r */\n      dup9\n        /* \"@openzeppelin/contracts/utils/cryptography/ECDSA.sol\":6990:6991  s */\n      dup9\n        /* \"@openzeppelin/contracts/utils/cryptography/ECDSA.sol\":6967:6977  tryRecover */\n      tag_336\n        /* \"@openzeppelin/contracts/utils/cryptography/ECDSA.sol\":6967:6992  tryRecover(hash, v, r, s) */\n      jump\t// in\n    tag_335:\n        /* \"@openzeppelin/contracts/utils/cryptography/ECDSA.sol\":6907:6992  (address recovered, RecoverError error, bytes32 errorArg) = tryRecover(hash, v, r, s) */\n      swap3\n      pop\n      swap3\n      pop\n      swap3\n      pop\n        /* \"@openzeppelin/contracts/utils/cryptography/ECDSA.sol\":7002:7030  _throwError(error, errorArg) */\n      tag_337\n        /* \"@openzeppelin/contracts/utils/cryptography/ECDSA.sol\":7014:7019  error */\n      dup3\n        /* \"@openzeppelin/contracts/utils/cryptography/ECDSA.sol\":7021:7029  errorArg */\n      dup3\n        /* \"@openzeppelin/contracts/utils/cryptography/ECDSA.sol\":7002:7013  _throwError */\n      tag_338\n        /* \"@openzeppelin/contracts/utils/cryptography/ECDSA.sol\":7002:7030  _throwError(error, errorArg) */\n      jump\t// in\n    tag_337:\n      pop\n        /* \"@openzeppelin/contracts/utils/cryptography/ECDSA.sol\":7047:7056  recovered */\n      swap1\n      swap7\n        /* \"@openzeppelin/contracts/utils/cryptography/ECDSA.sol\":6803:7063  function recover(bytes32 hash, uint8 v, bytes32 r, bytes32 s) internal pure returns (address) {... */\n      swap6\n      pop\n      pop\n      pop\n      pop\n      pop\n      pop\n      jump\t// out\n        /* \"@openzeppelin/contracts/token/ERC20/utils/SafeERC20.sol\":4059:4688  function _callOptionalReturn(IERC20 token, bytes memory data) private {... */\n    tag_319:\n        /* \"@openzeppelin/contracts/token/ERC20/utils/SafeERC20.sol\":4478:4501  bytes memory returndata */\n      0x00\n        /* \"@openzeppelin/contracts/token/ERC20/utils/SafeERC20.sol\":4504:4537  address(token).functionCall(data) */\n      tag_340\n      sub(shl(0xa0, 0x01), 0x01)\n        /* \"@openzeppelin/contracts/token/ERC20/utils/SafeERC20.sol\":4504:4531  address(token).functionCall */\n      dup5\n      and\n        /* \"@openzeppelin/contracts/token/ERC20/utils/SafeERC20.sol\":4532:4536  data */\n      dup4\n        /* \"@openzeppelin/contracts/token/ERC20/utils/SafeERC20.sol\":4504:4531  address(token).functionCall */\n      tag_341\n        /* \"@openzeppelin/contracts/token/ERC20/utils/SafeERC20.sol\":4504:4537  address(token).functionCall(data) */\n      jump\t// in\n    tag_340:\n        /* \"@openzeppelin/contracts/token/ERC20/utils/SafeERC20.sol\":4478:4537  bytes memory returndata = address(token).functionCall(data) */\n      swap1\n      pop\n        /* \"@openzeppelin/contracts/token/ERC20/utils/SafeERC20.sol\":4551:4561  returndata */\n      dup1\n        /* \"@openzeppelin/contracts/token/ERC20/utils/SafeERC20.sol\":4551:4568  returndata.length */\n      mload\n        /* \"@openzeppelin/contracts/token/ERC20/utils/SafeERC20.sol\":4572:4573  0 */\n      0x00\n        /* \"@openzeppelin/contracts/token/ERC20/utils/SafeERC20.sol\":4551:4573  returndata.length != 0 */\n      eq\n      iszero\n        /* \"@openzeppelin/contracts/token/ERC20/utils/SafeERC20.sol\":4551:4608  returndata.length != 0 && !abi.decode(returndata, (bool)) */\n      dup1\n      iszero\n      tag_342\n      jumpi\n      pop\n        /* \"@openzeppelin/contracts/token/ERC20/utils/SafeERC20.sol\":4589:4599  returndata */\n      dup1\n        /* \"@openzeppelin/contracts/token/ERC20/utils/SafeERC20.sol\":4578:4608  abi.decode(returndata, (bool)) */\n      dup1\n      0x20\n      add\n      swap1\n      mload\n      dup2\n      add\n      swap1\n      tag_343\n      swap2\n      swap1\n      tag_250\n      jump\t// in\n    tag_343:\n        /* \"@openzeppelin/contracts/token/ERC20/utils/SafeERC20.sol\":4577:4608  !abi.decode(returndata, (bool)) */\n      iszero\n        /* \"@openzeppelin/contracts/token/ERC20/utils/SafeERC20.sol\":4551:4608  returndata.length != 0 && !abi.decode(returndata, (bool)) */\n    tag_342:\n        /* \"@openzeppelin/contracts/token/ERC20/utils/SafeERC20.sol\":4547:4682  if (returndata.length != 0 && !abi.decode(returndata, (bool))) {... */\n      iszero\n      tag_317\n      jumpi\n        /* \"@openzeppelin/contracts/token/ERC20/utils/SafeERC20.sol\":4631:4671  SafeERC20FailedOperation(address(token)) */\n      mload(0x40)\n      shl(0xe0, 0x5274afe7)\n      dup2\n      mstore\n      sub(shl(0xa0, 0x01), 0x01)\n        /* \"#utility.yul\":4658:4690   */\n      dup5\n      and\n        /* \"@openzeppelin/contracts/token/ERC20/utils/SafeERC20.sol\":4631:4671  SafeERC20FailedOperation(address(token)) */\n      0x04\n      dup3\n      add\n        /* \"#utility.yul\":4640:4691   */\n      mstore\n        /* \"#utility.yul\":4613:4631   */\n      0x24\n      add\n        /* \"@openzeppelin/contracts/token/ERC20/utils/SafeERC20.sol\":4631:4671  SafeERC20FailedOperation(address(token)) */\n      tag_164\n        /* \"#utility.yul\":4494:4697   */\n      jump\n        /* \"@openzeppelin/contracts/utils/ShortStrings.sol\":3385:3652  function toStringWithFallback(ShortString value, string storage store) internal pure returns (string memory) {... */\n    tag_323:\n        /* \"@openzeppelin/contracts/utils/ShortStrings.sol\":3479:3492  string memory */\n      0x60\n        /* \"@openzeppelin/contracts/utils/ShortStrings.sol\":1390:1456  0x00000000000000000000000000000000000000000000000000000000000000FF */\n      0xff\n        /* \"@openzeppelin/contracts/utils/ShortStrings.sol\":3508:3554  ShortString.unwrap(value) != FALLBACK_SENTINEL */\n      dup4\n      eq\n        /* \"@openzeppelin/contracts/utils/ShortStrings.sol\":3504:3646  if (ShortString.unwrap(value) != FALLBACK_SENTINEL) {... */\n      tag_347\n      jumpi\n        /* \"@openzeppelin/contracts/utils/ShortStrings.sol\":3577:3592  toString(value) */\n      tag_348\n        /* \"@openzeppelin/contracts/utils/ShortStrings.sol\":3586:3591  value */\n      dup4\n        /* \"@openzeppelin/contracts/utils/ShortStrings.sol\":3577:3585  toString */\n      tag_349\n        /* \"@openzeppelin/contracts/utils/ShortStrings.sol\":3577:3592  toString(value) */\n      jump\t// in\n    tag_348:\n        /* \"@openzeppelin/contracts/utils/ShortStrings.sol\":3570:3592  return toString(value) */\n      swap1\n      pop\n      jump(tag_331)\n        /* \"@openzeppelin/contracts/utils/ShortStrings.sol\":3504:3646  if (ShortString.unwrap(value) != FALLBACK_SENTINEL) {... */\n    tag_347:\n        /* \"@openzeppelin/contracts/utils/ShortStrings.sol\":3630:3635  store */\n      dup2\n        /* \"@openzeppelin/contracts/utils/ShortStrings.sol\":3623:3635  return store */\n      dup1\n      sload\n      tag_351\n      swap1\n      tag_130\n      jump\t// in\n    tag_351:\n      dup1\n      0x1f\n      add\n      0x20\n      dup1\n      swap2\n      div\n      mul\n      0x20\n      add\n      mload(0x40)\n      swap1\n      dup2\n      add\n      0x40\n      mstore\n      dup1\n      swap3\n      swap2\n      swap1\n      dup2\n      dup2\n      mstore\n      0x20\n      add\n      dup3\n      dup1\n      sload\n      tag_352\n      swap1\n      tag_130\n      jump\t// in\n    tag_352:\n      dup1\n      iszero\n      tag_353\n      jumpi\n      dup1\n      0x1f\n      lt\n      tag_354\n      jumpi\n      0x0100\n      dup1\n      dup4\n      sload\n      div\n      mul\n      dup4\n      mstore\n      swap2\n      0x20\n      add\n      swap2\n      jump(tag_353)\n    tag_354:\n      dup3\n      add\n      swap2\n      swap1\n      0x00\n      mstore\n      keccak256(0x00, 0x20)\n      swap1\n    tag_355:\n      dup2\n      sload\n      dup2\n      mstore\n      swap1\n      0x01\n      add\n      swap1\n      0x20\n      add\n      dup1\n      dup4\n      gt\n      tag_355\n      jumpi\n      dup3\n      swap1\n      sub\n      0x1f\n      and\n      dup3\n      add\n      swap2\n    tag_353:\n      pop\n      pop\n      pop\n      pop\n      pop\n      swap1\n      pop\n        /* \"@openzeppelin/contracts/utils/ShortStrings.sol\":3385:3652  function toStringWithFallback(ShortString value, string storage store) internal pure returns (string memory) {... */\n      swap3\n      swap2\n      pop\n      pop\n      jump\t// out\n        /* \"@openzeppelin/contracts/utils/cryptography/ECDSA.sol\":5140:6670  function tryRecover(... */\n    tag_336:\n        /* \"@openzeppelin/contracts/utils/cryptography/ECDSA.sol\":5266:5273  address */\n      0x00\n      dup1\n      dup1\n        /* \"@openzeppelin/contracts/utils/cryptography/ECDSA.sol\":6199:6265  0x7FFFFFFFFFFFFFFFFFFFFFFFFFFFFFFF5D576E7357A4501DDFE92F46681B20A0 */\n      0x7fffffffffffffffffffffffffffffff5d576e7357a4501ddfe92f46681b20a0\n        /* \"@openzeppelin/contracts/utils/cryptography/ECDSA.sol\":6186:6265  uint256(s) > 0x7FFFFFFFFFFFFFFFFFFFFFFFFFFFFFFF5D576E7357A4501DDFE92F46681B20A0 */\n      dup5\n      gt\n        /* \"@openzeppelin/contracts/utils/cryptography/ECDSA.sol\":6182:6346  if (uint256(s) > 0x7FFFFFFFFFFFFFFFFFFFFFFFFFFFFFFF5D576E7357A4501DDFE92F46681B20A0) {... */\n      iszero\n      tag_358\n      jumpi\n      pop\n        /* \"@openzeppelin/contracts/utils/cryptography/ECDSA.sol\":6297:6298  0 */\n      0x00\n      swap2\n      pop\n        /* \"@openzeppelin/contracts/utils/cryptography/ECDSA.sol\":6301:6331  RecoverError.InvalidSignatureS */\n      0x03\n      swap1\n      pop\n        /* \"@openzeppelin/contracts/utils/cryptography/ECDSA.sol\":6333:6334  s */\n      dup3\n        /* \"@openzeppelin/contracts/utils/cryptography/ECDSA.sol\":6281:6335  return (address(0), RecoverError.InvalidSignatureS, s) */\n      jump(tag_357)\n        /* \"@openzeppelin/contracts/utils/cryptography/ECDSA.sol\":6182:6346  if (uint256(s) > 0x7FFFFFFFFFFFFFFFFFFFFFFFFFFFFFFF5D576E7357A4501DDFE92F46681B20A0) {... */\n    tag_358:\n        /* \"@openzeppelin/contracts/utils/cryptography/ECDSA.sol\":6457:6481  ecrecover(hash, v, r, s) */\n      0x40\n      dup1\n      mload\n        /* \"@openzeppelin/contracts/utils/cryptography/ECDSA.sol\":6440:6454  address signer */\n      0x00\n        /* \"@openzeppelin/contracts/utils/cryptography/ECDSA.sol\":6457:6481  ecrecover(hash, v, r, s) */\n      dup1\n      dup3\n      mstore\n      0x20\n      dup3\n      add\n      dup1\n      dup5\n      mstore\n        /* \"#utility.yul\":13460:13485   */\n      dup11\n      swap1\n      mstore\n        /* \"#utility.yul\":13533:13537   */\n      0xff\n        /* \"#utility.yul\":13521:13538   */\n      dup10\n      and\n        /* \"#utility.yul\":13501:13519   */\n      swap3\n      dup3\n      add\n        /* \"#utility.yul\":13494:13539   */\n      swap3\n      swap1\n      swap3\n      mstore\n        /* \"#utility.yul\":13555:13573   */\n      0x60\n      dup2\n      add\n        /* \"#utility.yul\":13548:13582   */\n      dup8\n      swap1\n      mstore\n        /* \"#utility.yul\":13598:13616   */\n      0x80\n      dup2\n      add\n        /* \"#utility.yul\":13591:13625   */\n      dup7\n      swap1\n      mstore\n        /* \"@openzeppelin/contracts/utils/cryptography/ECDSA.sol\":6457:6481  ecrecover(hash, v, r, s) */\n      0x01\n      swap1\n        /* \"#utility.yul\":13432:13451   */\n      0xa0\n      add\n        /* \"@openzeppelin/contracts/utils/cryptography/ECDSA.sol\":6457:6481  ecrecover(hash, v, r, s) */\n      0x20\n      mload(0x40)\n      0x20\n      dup2\n      sub\n      swap1\n      dup1\n      dup5\n      sub\n      swap1\n      dup6\n      gas\n      staticcall\n      iszero\n      dup1\n      iszero\n      tag_362\n      jumpi\n      returndatasize\n      0x00\n      dup1\n      returndatacopy\n      revert(0x00, returndatasize)\n    tag_362:\n      pop\n      pop\n      mload(add(not(0x1f), mload(0x40)))\n      swap2\n      pop\n      pop\n      sub(shl(0xa0, 0x01), 0x01)\n        /* \"@openzeppelin/contracts/utils/cryptography/ECDSA.sol\":6495:6515  signer == address(0) */\n      dup2\n      and\n        /* \"@openzeppelin/contracts/utils/cryptography/ECDSA.sol\":6491:6604  if (signer == address(0)) {... */\n      tag_363\n      jumpi\n      pop\n        /* \"@openzeppelin/contracts/utils/cryptography/ECDSA.sol\":6547:6548  0 */\n      0x00\n      swap3\n      pop\n        /* \"@openzeppelin/contracts/utils/cryptography/ECDSA.sol\":6551:6580  RecoverError.InvalidSignature */\n      0x01\n      swap2\n      pop\n        /* \"@openzeppelin/contracts/utils/cryptography/ECDSA.sol\":6547:6548  0 */\n      dup3\n      swap1\n      pop\n        /* \"@openzeppelin/contracts/utils/cryptography/ECDSA.sol\":6531:6593  return (address(0), RecoverError.InvalidSignature, bytes32(0)) */\n      jump(tag_357)\n        /* \"@openzeppelin/contracts/utils/cryptography/ECDSA.sol\":6491:6604  if (signer == address(0)) {... */\n    tag_363:\n        /* \"@openzeppelin/contracts/utils/cryptography/ECDSA.sol\":6622:6628  signer */\n      swap3\n      pop\n        /* \"@openzeppelin/contracts/utils/cryptography/ECDSA.sol\":6630:6650  RecoverError.NoError */\n      0x00\n      swap2\n      pop\n      dup2\n      swap1\n      pop\n        /* \"@openzeppelin/contracts/utils/cryptography/ECDSA.sol\":5140:6670  function tryRecover(... */\n    tag_357:\n      swap5\n      pop\n      swap5\n      pop\n      swap5\n      swap2\n      pop\n      pop\n      jump\t// out\n        /* \"@openzeppelin/contracts/utils/cryptography/ECDSA.sol\":7196:7728  function _throwError(RecoverError error, bytes32 errorArg) private pure {... */\n    tag_338:\n        /* \"@openzeppelin/contracts/utils/cryptography/ECDSA.sol\":7291:7311  RecoverError.NoError */\n      0x00\n        /* \"@openzeppelin/contracts/utils/cryptography/ECDSA.sol\":7282:7287  error */\n      dup3\n        /* \"@openzeppelin/contracts/utils/cryptography/ECDSA.sol\":7282:7311  error == RecoverError.NoError */\n      0x03\n      dup2\n      gt\n      iszero\n      tag_369\n      jumpi\n      tag_369\n      tag_367\n      jump\t// in\n    tag_369:\n      sub\n        /* \"@openzeppelin/contracts/utils/cryptography/ECDSA.sol\":7278:7722  if (error == RecoverError.NoError) {... */\n      tag_370\n      jumpi\n        /* \"@openzeppelin/contracts/utils/cryptography/ECDSA.sol\":7196:7728  function _throwError(RecoverError error, bytes32 errorArg) private pure {... */\n      pop\n      pop\n      jump\t// out\n        /* \"@openzeppelin/contracts/utils/cryptography/ECDSA.sol\":7278:7722  if (error == RecoverError.NoError) {... */\n    tag_370:\n        /* \"@openzeppelin/contracts/utils/cryptography/ECDSA.sol\":7387:7416  RecoverError.InvalidSignature */\n      0x01\n        /* \"@openzeppelin/contracts/utils/cryptography/ECDSA.sol\":7378:7383  error */\n      dup3\n        /* \"@openzeppelin/contracts/utils/cryptography/ECDSA.sol\":7378:7416  error == RecoverError.InvalidSignature */\n      0x03\n      dup2\n      gt\n      iszero\n      tag_375\n      jumpi\n      tag_375\n      tag_367\n      jump\t// in\n    tag_375:\n      sub\n        /* \"@openzeppelin/contracts/utils/cryptography/ECDSA.sol\":7374:7722  if (error == RecoverError.InvalidSignature) {... */\n      tag_376\n      jumpi\n        /* \"@openzeppelin/contracts/utils/cryptography/ECDSA.sol\":7439:7462  ECDSAInvalidSignature() */\n      mload(0x40)\n      shl(0xe0, 0xf645eedf)\n      dup2\n      mstore\n      0x04\n      add\n      mload(0x40)\n      dup1\n      swap2\n      sub\n      swap1\n      revert\n        /* \"@openzeppelin/contracts/utils/cryptography/ECDSA.sol\":7374:7722  if (error == RecoverError.InvalidSignature) {... */\n    tag_376:\n        /* \"@openzeppelin/contracts/utils/cryptography/ECDSA.sol\":7492:7527  RecoverError.InvalidSignatureLength */\n      0x02\n        /* \"@openzeppelin/contracts/utils/cryptography/ECDSA.sol\":7483:7488  error */\n      dup3\n        /* \"@openzeppelin/contracts/utils/cryptography/ECDSA.sol\":7483:7527  error == RecoverError.InvalidSignatureLength */\n      0x03\n      dup2\n      gt\n      iszero\n      tag_381\n      jumpi\n      tag_381\n      tag_367\n      jump\t// in\n    tag_381:\n      sub\n        /* \"@openzeppelin/contracts/utils/cryptography/ECDSA.sol\":7479:7722  if (error == RecoverError.InvalidSignatureLength) {... */\n      tag_382\n      jumpi\n        /* \"@openzeppelin/contracts/utils/cryptography/ECDSA.sol\":7550:7596  ECDSAInvalidSignatureLength(uint256(errorArg)) */\n      mload(0x40)\n      shl(0xe0, 0xfce698f7)\n      dup2\n      mstore\n      0x04\n      dup2\n      add\n        /* \"#utility.yul\":160:185   */\n      dup3\n      swap1\n      mstore\n        /* \"#utility.yul\":133:151   */\n      0x24\n      add\n        /* \"@openzeppelin/contracts/utils/cryptography/ECDSA.sol\":7550:7596  ECDSAInvalidSignatureLength(uint256(errorArg)) */\n      tag_164\n        /* \"#utility.yul\":14:191   */\n      jump\n        /* \"@openzeppelin/contracts/utils/cryptography/ECDSA.sol\":7479:7722  if (error == RecoverError.InvalidSignatureLength) {... */\n    tag_382:\n        /* \"@openzeppelin/contracts/utils/cryptography/ECDSA.sol\":7626:7656  RecoverError.InvalidSignatureS */\n      0x03\n        /* \"@openzeppelin/contracts/utils/cryptography/ECDSA.sol\":7617:7622  error */\n      dup3\n        /* \"@openzeppelin/contracts/utils/cryptography/ECDSA.sol\":7617:7656  error == RecoverError.InvalidSignatureS */\n      0x03\n      dup2\n      gt\n      iszero\n      tag_388\n      jumpi\n      tag_388\n      tag_367\n      jump\t// in\n    tag_388:\n      sub\n        /* \"@openzeppelin/contracts/utils/cryptography/ECDSA.sol\":7613:7722  if (error == RecoverError.InvalidSignatureS) {... */\n      tag_389\n      jumpi\n        /* \"@openzeppelin/contracts/utils/cryptography/ECDSA.sol\":7679:7711  ECDSAInvalidSignatureS(errorArg) */\n      mload(0x40)\n      shl(0xe2, 0x35e2f383)\n      dup2\n      mstore\n      0x04\n      dup2\n      add\n        /* \"#utility.yul\":160:185   */\n      dup3\n      swap1\n      mstore\n        /* \"#utility.yul\":133:151   */\n      0x24\n      add\n        /* \"@openzeppelin/contracts/utils/cryptography/ECDSA.sol\":7679:7711  ECDSAInvalidSignatureS(errorArg) */\n      tag_164\n        /* \"#utility.yul\":14:191   */\n      jump\n        /* \"@openzeppelin/contracts/utils/cryptography/ECDSA.sol\":7613:7722  if (error == RecoverError.InvalidSignatureS) {... */\n    tag_389:\n        /* \"@openzeppelin/contracts/utils/cryptography/ECDSA.sol\":7196:7728  function _throwError(RecoverError error, bytes32 errorArg) private pure {... */\n      pop\n      pop\n      jump\t// out\n        /* \"@openzeppelin/contracts/utils/Address.sol\":2705:2856  function functionCall(address target, bytes memory data) internal returns (bytes memory) {... */\n    tag_341:\n        /* \"@openzeppelin/contracts/utils/Address.sol\":2780:2792  bytes memory */\n      0x60\n        /* \"@openzeppelin/contracts/utils/Address.sol\":2811:2849  functionCallWithValue(target, data, 0) */\n      tag_150\n        /* \"@openzeppelin/contracts/utils/Address.sol\":2833:2839  target */\n      dup4\n        /* \"@openzeppelin/contracts/utils/Address.sol\":2841:2845  data */\n      dup4\n        /* \"@openzeppelin/contracts/utils/Address.sol\":2847:2848  0 */\n      0x00\n        /* \"@openzeppelin/contracts/utils/Address.sol\":2811:2832  functionCallWithValue */\n      tag_393\n        /* \"@openzeppelin/contracts/utils/Address.sol\":2811:2849  functionCallWithValue(target, data, 0) */\n      jump\t// in\n        /* \"@openzeppelin/contracts/utils/ShortStrings.sol\":2078:2483  function toString(ShortString sstr) internal pure returns (string memory) {... */\n    tag_349:\n        /* \"@openzeppelin/contracts/utils/ShortStrings.sol\":2137:2150  string memory */\n      0x60\n        /* \"@openzeppelin/contracts/utils/ShortStrings.sol\":2162:2173  uint256 len */\n      0x00\n        /* \"@openzeppelin/contracts/utils/ShortStrings.sol\":2176:2192  byteLength(sstr) */\n      tag_395\n        /* \"@openzeppelin/contracts/utils/ShortStrings.sol\":2187:2191  sstr */\n      dup4\n        /* \"@openzeppelin/contracts/utils/ShortStrings.sol\":2176:2186  byteLength */\n      tag_396\n        /* \"@openzeppelin/contracts/utils/ShortStrings.sol\":2176:2192  byteLength(sstr) */\n      jump\t// in\n    tag_395:\n        /* \"@openzeppelin/contracts/utils/ShortStrings.sol\":2300:2314  new string(32) */\n      0x40\n      dup1\n      mload\n        /* \"@openzeppelin/contracts/utils/ShortStrings.sol\":2311:2313  32 */\n      0x20\n        /* \"@openzeppelin/contracts/utils/ShortStrings.sol\":2300:2314  new string(32) */\n      dup1\n      dup3\n      mstore\n      dup2\n      dup4\n      add\n      swap1\n      swap3\n      mstore\n        /* \"@openzeppelin/contracts/utils/ShortStrings.sol\":2162:2192  uint256 len = byteLength(sstr) */\n      swap2\n      swap3\n      pop\n        /* \"@openzeppelin/contracts/utils/ShortStrings.sol\":2280:2297  string memory str */\n      0x00\n      swap2\n        /* \"@openzeppelin/contracts/utils/ShortStrings.sol\":2300:2314  new string(32) */\n      swap1\n      0x20\n      dup3\n      add\n      dup2\n      dup1\n      calldatasize\n      dup4\n      calldatacopy\n      pop\n      pop\n      pop\n        /* \"@openzeppelin/contracts/utils/ShortStrings.sol\":2390:2406  mstore(str, len) */\n      swap2\n      dup3\n      mstore\n      pop\n        /* \"@openzeppelin/contracts/utils/ShortStrings.sol\":2435:2439  0x20 */\n      0x20\n        /* \"@openzeppelin/contracts/utils/ShortStrings.sol\":2426:2440  add(str, 0x20) */\n      dup2\n      add\n        /* \"@openzeppelin/contracts/utils/ShortStrings.sol\":2419:2447  mstore(add(str, 0x20), sstr) */\n      swap3\n      swap1\n      swap3\n      mstore\n      pop\n        /* \"@openzeppelin/contracts/utils/ShortStrings.sol\":2390:2406  mstore(str, len) */\n      swap1\n        /* \"@openzeppelin/contracts/utils/ShortStrings.sol\":2078:2483  function toString(ShortString sstr) internal pure returns (string memory) {... */\n      jump\t// out\n        /* \"@openzeppelin/contracts/utils/Address.sol\":3180:3572  function functionCallWithValue(address target, bytes memory data, uint256 value) internal returns (bytes memory) {... */\n    tag_393:\n        /* \"@openzeppelin/contracts/utils/Address.sol\":3279:3291  bytes memory */\n      0x60\n        /* \"@openzeppelin/contracts/utils/Address.sol\":3331:3336  value */\n      dup2\n        /* \"@openzeppelin/contracts/utils/Address.sol\":3307:3328  address(this).balance */\n      selfbalance\n        /* \"@openzeppelin/contracts/utils/Address.sol\":3307:3336  address(this).balance < value */\n      lt\n        /* \"@openzeppelin/contracts/utils/Address.sol\":3303:3411  if (address(this).balance < value) {... */\n      iszero\n      tag_401\n      jumpi\n        /* \"@openzeppelin/contracts/utils/Address.sol\":3359:3400  AddressInsufficientBalance(address(this)) */\n      mload(0x40)\n      shl(0xe0, 0xcd786059)\n      dup2\n      mstore\n        /* \"@openzeppelin/contracts/utils/Address.sol\":3394:3398  this */\n      address\n        /* \"@openzeppelin/contracts/utils/Address.sol\":3359:3400  AddressInsufficientBalance(address(this)) */\n      0x04\n      dup3\n      add\n        /* \"#utility.yul\":4640:4691   */\n      mstore\n        /* \"#utility.yul\":4613:4631   */\n      0x24\n      add\n        /* \"@openzeppelin/contracts/utils/Address.sol\":3359:3400  AddressInsufficientBalance(address(this)) */\n      tag_164\n        /* \"#utility.yul\":4494:4697   */\n      jump\n        /* \"@openzeppelin/contracts/utils/Address.sol\":3303:3411  if (address(this).balance < value) {... */\n    tag_401:\n        /* \"@openzeppelin/contracts/utils/Address.sol\":3421:3433  bool success */\n      0x00\n        /* \"@openzeppelin/contracts/utils/Address.sol\":3435:3458  bytes memory returndata */\n      dup1\n        /* \"@openzeppelin/contracts/utils/Address.sol\":3462:3468  target */\n      dup6\n      sub(shl(0xa0, 0x01), 0x01)\n        /* \"@openzeppelin/contracts/utils/Address.sol\":3462:3473  target.call */\n      and\n        /* \"@openzeppelin/contracts/utils/Address.sol\":3481:3486  value */\n      dup5\n        /* \"@openzeppelin/contracts/utils/Address.sol\":3488:3492  data */\n      dup7\n        /* \"@openzeppelin/contracts/utils/Address.sol\":3462:3493  target.call{value: value}(data) */\n      mload(0x40)\n      tag_403\n      swap2\n      swap1\n      tag_404\n      jump\t// in\n    tag_403:\n      0x00\n      mload(0x40)\n      dup1\n      dup4\n      sub\n      dup2\n      dup6\n      dup8\n      gas\n      call\n      swap3\n      pop\n      pop\n      pop\n      returndatasize\n      dup1\n      0x00\n      dup2\n      eq\n      tag_407\n      jumpi\n      mload(0x40)\n      swap2\n      pop\n      and(add(returndatasize, 0x3f), not(0x1f))\n      dup3\n      add\n      0x40\n      mstore\n      returndatasize\n      dup3\n      mstore\n      returndatasize\n      0x00\n      0x20\n      dup5\n      add\n      returndatacopy\n      jump(tag_406)\n    tag_407:\n      0x60\n      swap2\n      pop\n    tag_406:\n      pop\n        /* \"@openzeppelin/contracts/utils/Address.sol\":3420:3493  (bool success, bytes memory returndata) = target.call{value: value}(data) */\n      swap2\n      pop\n      swap2\n      pop\n        /* \"@openzeppelin/contracts/utils/Address.sol\":3510:3565  verifyCallResultFromTarget(target, success, returndata) */\n      tag_408\n        /* \"@openzeppelin/contracts/utils/Address.sol\":3537:3543  target */\n      dup7\n        /* \"@openzeppelin/contracts/utils/Address.sol\":3545:3552  success */\n      dup4\n        /* \"@openzeppelin/contracts/utils/Address.sol\":3554:3564  returndata */\n      dup4\n        /* \"@openzeppelin/contracts/utils/Address.sol\":3510:3536  verifyCallResultFromTarget */\n      tag_409\n        /* \"@openzeppelin/contracts/utils/Address.sol\":3510:3565  verifyCallResultFromTarget(target, success, returndata) */\n      jump\t// in\n    tag_408:\n        /* \"@openzeppelin/contracts/utils/Address.sol\":3503:3565  return verifyCallResultFromTarget(target, success, returndata) */\n      swap7\n        /* \"@openzeppelin/contracts/utils/Address.sol\":3180:3572  function functionCallWithValue(address target, bytes memory data, uint256 value) internal returns (bytes memory) {... */\n      swap6\n      pop\n      pop\n      pop\n      pop\n      pop\n      pop\n      jump\t// out\n        /* \"@openzeppelin/contracts/utils/ShortStrings.sol\":2555:2800  function byteLength(ShortString sstr) internal pure returns (uint256) {... */\n    tag_396:\n        /* \"@openzeppelin/contracts/utils/ShortStrings.sol\":2616:2623  uint256 */\n      0x00\n        /* \"@openzeppelin/contracts/utils/ShortStrings.sol\":2688:2692  0xFF */\n      0xff\n        /* \"@openzeppelin/contracts/utils/ShortStrings.sol\":2652:2692  uint256(ShortString.unwrap(sstr)) & 0xFF */\n      dup3\n      and\n        /* \"@openzeppelin/contracts/utils/ShortStrings.sol\":2715:2717  31 */\n      0x1f\n        /* \"@openzeppelin/contracts/utils/ShortStrings.sol\":2706:2717  result > 31 */\n      dup2\n      gt\n        /* \"@openzeppelin/contracts/utils/ShortStrings.sol\":2702:2771  if (result > 31) {... */\n      iszero\n      tag_331\n      jumpi\n        /* \"@openzeppelin/contracts/utils/ShortStrings.sol\":2740:2760  InvalidShortString() */\n      mload(0x40)\n      shl(0xe2, 0x2cd44ac3)\n      dup2\n      mstore\n      0x04\n      add\n      mload(0x40)\n      dup1\n      swap2\n      sub\n      swap1\n      revert\n        /* \"@openzeppelin/contracts/utils/Address.sol\":4625:5207  function verifyCallResultFromTarget(... */\n    tag_409:\n        /* \"@openzeppelin/contracts/utils/Address.sol\":4769:4781  bytes memory */\n      0x60\n        /* \"@openzeppelin/contracts/utils/Address.sol\":4798:4805  success */\n      dup3\n        /* \"@openzeppelin/contracts/utils/Address.sol\":4793:5201  if (!success) {... */\n      tag_413\n      jumpi\n        /* \"@openzeppelin/contracts/utils/Address.sol\":4821:4840  _revert(returndata) */\n      tag_414\n        /* \"@openzeppelin/contracts/utils/Address.sol\":4829:4839  returndata */\n      dup3\n        /* \"@openzeppelin/contracts/utils/Address.sol\":4821:4828  _revert */\n      tag_415\n        /* \"@openzeppelin/contracts/utils/Address.sol\":4821:4840  _revert(returndata) */\n      jump\t// in\n    tag_414:\n        /* \"@openzeppelin/contracts/utils/Address.sol\":4793:5201  if (!success) {... */\n      jump(tag_150)\n    tag_413:\n        /* \"@openzeppelin/contracts/utils/Address.sol\":5045:5062  returndata.length */\n      dup2\n      mload\n        /* \"@openzeppelin/contracts/utils/Address.sol\":5045:5067  returndata.length == 0 */\n      iszero\n        /* \"@openzeppelin/contracts/utils/Address.sol\":5045:5094  returndata.length == 0 && target.code.length == 0 */\n      dup1\n      iszero\n      tag_417\n      jumpi\n      pop\n      sub(shl(0xa0, 0x01), 0x01)\n        /* \"@openzeppelin/contracts/utils/Address.sol\":5071:5089  target.code.length */\n      dup5\n      and\n      extcodesize\n        /* \"@openzeppelin/contracts/utils/Address.sol\":5071:5094  target.code.length == 0 */\n      iszero\n        /* \"@openzeppelin/contracts/utils/Address.sol\":5045:5094  returndata.length == 0 && target.code.length == 0 */\n    tag_417:\n        /* \"@openzeppelin/contracts/utils/Address.sol\":5041:5160  if (returndata.length == 0 && target.code.length == 0) {... */\n      iszero\n      tag_418\n      jumpi\n        /* \"@openzeppelin/contracts/utils/Address.sol\":5121:5145  AddressEmptyCode(target) */\n      mload(0x40)\n      shl(0xe0, 0x9996b315)\n      dup2\n      mstore\n      sub(shl(0xa0, 0x01), 0x01)\n        /* \"#utility.yul\":4658:4690   */\n      dup6\n      and\n        /* \"@openzeppelin/contracts/utils/Address.sol\":5121:5145  AddressEmptyCode(target) */\n      0x04\n      dup3\n      add\n        /* \"#utility.yul\":4640:4691   */\n      mstore\n        /* \"#utility.yul\":4613:4631   */\n      0x24\n      add\n        /* \"@openzeppelin/contracts/utils/Address.sol\":5121:5145  AddressEmptyCode(target) */\n      tag_164\n        /* \"#utility.yul\":4494:4697   */\n      jump\n        /* \"@openzeppelin/contracts/utils/Address.sol\":5041:5160  if (returndata.length == 0 && target.code.length == 0) {... */\n    tag_418:\n      pop\n        /* \"@openzeppelin/contracts/utils/Address.sol\":5180:5190  returndata */\n      dup1\n        /* \"@openzeppelin/contracts/utils/Address.sol\":5173:5190  return returndata */\n      jump(tag_150)\n        /* \"@openzeppelin/contracts/utils/Address.sol\":5743:6259  function _revert(bytes memory returndata) private pure {... */\n    tag_415:\n        /* \"@openzeppelin/contracts/utils/Address.sol\":5874:5891  returndata.length */\n      dup1\n      mload\n        /* \"@openzeppelin/contracts/utils/Address.sol\":5874:5895  returndata.length > 0 */\n      iszero\n        /* \"@openzeppelin/contracts/utils/Address.sol\":5870:6253  if (returndata.length > 0) {... */\n      tag_421\n      jumpi\n        /* \"@openzeppelin/contracts/utils/Address.sol\":6102:6112  returndata */\n      dup1\n        /* \"@openzeppelin/contracts/utils/Address.sol\":6096:6113  mload(returndata) */\n      mload\n        /* \"@openzeppelin/contracts/utils/Address.sol\":6158:6173  returndata_size */\n      dup1\n        /* \"@openzeppelin/contracts/utils/Address.sol\":6145:6155  returndata */\n      dup3\n        /* \"@openzeppelin/contracts/utils/Address.sol\":6141:6143  32 */\n      0x20\n        /* \"@openzeppelin/contracts/utils/Address.sol\":6137:6156  add(32, returndata) */\n      add\n        /* \"@openzeppelin/contracts/utils/Address.sol\":6130:6174  revert(add(32, returndata), returndata_size) */\n      revert\n        /* \"@openzeppelin/contracts/utils/Address.sol\":5870:6253  if (returndata.length > 0) {... */\n    tag_421:\n        /* \"@openzeppelin/contracts/utils/Address.sol\":6225:6242  FailedInnerCall() */\n      mload(0x40)\n      shl(0xe1, 0x0a12f521)\n      dup2\n      mstore\n      0x04\n      add\n      mload(0x40)\n      dup1\n      swap2\n      sub\n      swap1\n      revert\n        /* \"#utility.yul\":196:446   */\n    tag_423:\n        /* \"#utility.yul\":281:282   */\n      0x00\n        /* \"#utility.yul\":291:404   */\n    tag_434:\n        /* \"#utility.yul\":305:311   */\n      dup4\n        /* \"#utility.yul\":302:303   */\n      dup2\n        /* \"#utility.yul\":299:312   */\n      lt\n        /* \"#utility.yul\":291:404   */\n      iszero\n      tag_436\n      jumpi\n        /* \"#utility.yul\":381:392   */\n      dup2\n      dup2\n      add\n        /* \"#utility.yul\":375:393   */\n      mload\n        /* \"#utility.yul\":362:373   */\n      dup4\n      dup3\n      add\n        /* \"#utility.yul\":355:394   */\n      mstore\n        /* \"#utility.yul\":327:329   */\n      0x20\n        /* \"#utility.yul\":320:330   */\n      add\n        /* \"#utility.yul\":291:404   */\n      jump(tag_434)\n    tag_436:\n      pop\n      pop\n        /* \"#utility.yul\":438:439   */\n      0x00\n        /* \"#utility.yul\":420:436   */\n      swap2\n      add\n        /* \"#utility.yul\":413:440   */\n      mstore\n        /* \"#utility.yul\":196:446   */\n      jump\t// out\n        /* \"#utility.yul\":451:722   */\n    tag_424:\n        /* \"#utility.yul\":493:496   */\n      0x00\n        /* \"#utility.yul\":531:536   */\n      dup2\n        /* \"#utility.yul\":525:537   */\n      mload\n        /* \"#utility.yul\":558:564   */\n      dup1\n        /* \"#utility.yul\":553:556   */\n      dup5\n        /* \"#utility.yul\":546:565   */\n      mstore\n        /* \"#utility.yul\":574:650   */\n      tag_438\n        /* \"#utility.yul\":643:649   */\n      dup2\n        /* \"#utility.yul\":636:640   */\n      0x20\n        /* \"#utility.yul\":631:634   */\n      dup7\n        /* \"#utility.yul\":627:641   */\n      add\n        /* \"#utility.yul\":620:624   */\n      0x20\n        /* \"#utility.yul\":613:618   */\n      dup7\n        /* \"#utility.yul\":609:625   */\n      add\n        /* \"#utility.yul\":574:650   */\n      tag_423\n      jump\t// in\n    tag_438:\n        /* \"#utility.yul\":704:706   */\n      0x1f\n        /* \"#utility.yul\":683:698   */\n      add\n      not(0x1f)\n        /* \"#utility.yul\":679:708   */\n      and\n        /* \"#utility.yul\":670:709   */\n      swap3\n      swap1\n      swap3\n      add\n        /* \"#utility.yul\":711:715   */\n      0x20\n        /* \"#utility.yul\":666:716   */\n      add\n      swap3\n        /* \"#utility.yul\":451:722   */\n      swap2\n      pop\n      pop\n      jump\t// out\n        /* \"#utility.yul\":727:947   */\n    tag_43:\n        /* \"#utility.yul\":876:878   */\n      0x20\n        /* \"#utility.yul\":865:874   */\n      dup2\n        /* \"#utility.yul\":858:879   */\n      mstore\n        /* \"#utility.yul\":839:843   */\n      0x00\n        /* \"#utility.yul\":896:941   */\n      tag_150\n        /* \"#utility.yul\":937:939   */\n      0x20\n        /* \"#utility.yul\":926:935   */\n      dup4\n        /* \"#utility.yul\":922:940   */\n      add\n        /* \"#utility.yul\":914:920   */\n      dup5\n        /* \"#utility.yul\":896:941   */\n      tag_424\n      jump\t// in\n        /* \"#utility.yul\":952:1132   */\n    tag_46:\n        /* \"#utility.yul\":1011:1017   */\n      0x00\n        /* \"#utility.yul\":1064:1066   */\n      0x20\n        /* \"#utility.yul\":1052:1061   */\n      dup3\n        /* \"#utility.yul\":1043:1050   */\n      dup5\n        /* \"#utility.yul\":1039:1062   */\n      sub\n        /* \"#utility.yul\":1035:1067   */\n      slt\n        /* \"#utility.yul\":1032:1084   */\n      iszero\n      tag_442\n      jumpi\n        /* \"#utility.yul\":1080:1081   */\n      0x00\n        /* \"#utility.yul\":1077:1078   */\n      dup1\n        /* \"#utility.yul\":1070:1082   */\n      revert\n        /* \"#utility.yul\":1032:1084   */\n    tag_442:\n      pop\n        /* \"#utility.yul\":1103:1126   */\n      calldataload\n      swap2\n        /* \"#utility.yul\":952:1132   */\n      swap1\n      pop\n      jump\t// out\n        /* \"#utility.yul\":1329:1502   */\n    tag_425:\n        /* \"#utility.yul\":1397:1417   */\n      dup1\n      calldataload\n      sub(shl(0xa0, 0x01), 0x01)\n        /* \"#utility.yul\":1446:1477   */\n      dup2\n      and\n        /* \"#utility.yul\":1436:1478   */\n      dup2\n      eq\n        /* \"#utility.yul\":1426:1496   */\n      tag_445\n      jumpi\n        /* \"#utility.yul\":1492:1493   */\n      0x00\n        /* \"#utility.yul\":1489:1490   */\n      dup1\n        /* \"#utility.yul\":1482:1494   */\n      revert\n        /* \"#utility.yul\":1426:1496   */\n    tag_445:\n        /* \"#utility.yul\":1329:1502   */\n      swap2\n      swap1\n      pop\n      jump\t// out\n        /* \"#utility.yul\":1507:1767   */\n    tag_55:\n        /* \"#utility.yul\":1575:1581   */\n      0x00\n        /* \"#utility.yul\":1583:1589   */\n      dup1\n        /* \"#utility.yul\":1636:1638   */\n      0x40\n        /* \"#utility.yul\":1624:1633   */\n      dup4\n        /* \"#utility.yul\":1615:1622   */\n      dup6\n        /* \"#utility.yul\":1611:1634   */\n      sub\n        /* \"#utility.yul\":1607:1639   */\n      slt\n        /* \"#utility.yul\":1604:1656   */\n      iszero\n      tag_447\n      jumpi\n        /* \"#utility.yul\":1652:1653   */\n      0x00\n        /* \"#utility.yul\":1649:1650   */\n      dup1\n        /* \"#utility.yul\":1642:1654   */\n      revert\n        /* \"#utility.yul\":1604:1656   */\n    tag_447:\n        /* \"#utility.yul\":1675:1704   */\n      tag_448\n        /* \"#utility.yul\":1694:1703   */\n      dup4\n        /* \"#utility.yul\":1675:1704   */\n      tag_425\n      jump\t// in\n    tag_448:\n        /* \"#utility.yul\":1665:1704   */\n      swap2\n      pop\n        /* \"#utility.yul\":1723:1761   */\n      tag_449\n        /* \"#utility.yul\":1757:1759   */\n      0x20\n        /* \"#utility.yul\":1746:1755   */\n      dup5\n        /* \"#utility.yul\":1742:1760   */\n      add\n        /* \"#utility.yul\":1723:1761   */\n      tag_425\n      jump\t// in\n    tag_449:\n        /* \"#utility.yul\":1713:1761   */\n      swap1\n      pop\n        /* \"#utility.yul\":1507:1767   */\n      swap3\n      pop\n      swap3\n      swap1\n      pop\n      jump\t// out\n        /* \"#utility.yul\":1954:2068   */\n    tag_426:\n        /* \"#utility.yul\":2038:2042   */\n      0xff\n        /* \"#utility.yul\":2031:2036   */\n      dup2\n        /* \"#utility.yul\":2027:2043   */\n      and\n        /* \"#utility.yul\":2020:2025   */\n      dup2\n        /* \"#utility.yul\":2017:2044   */\n      eq\n        /* \"#utility.yul\":2007:2062   */\n      tag_256\n      jumpi\n        /* \"#utility.yul\":2058:2059   */\n      0x00\n        /* \"#utility.yul\":2055:2056   */\n      dup1\n        /* \"#utility.yul\":2048:2060   */\n      revert\n        /* \"#utility.yul\":2073:2665   */\n    tag_69:\n        /* \"#utility.yul\":2175:2181   */\n      0x00\n        /* \"#utility.yul\":2183:2189   */\n      dup1\n        /* \"#utility.yul\":2191:2197   */\n      0x00\n        /* \"#utility.yul\":2199:2205   */\n      dup1\n        /* \"#utility.yul\":2207:2213   */\n      0x00\n        /* \"#utility.yul\":2215:2221   */\n      dup1\n        /* \"#utility.yul\":2268:2271   */\n      0xc0\n        /* \"#utility.yul\":2256:2265   */\n      dup8\n        /* \"#utility.yul\":2247:2254   */\n      dup10\n        /* \"#utility.yul\":2243:2266   */\n      sub\n        /* \"#utility.yul\":2239:2272   */\n      slt\n        /* \"#utility.yul\":2236:2289   */\n      iszero\n      tag_454\n      jumpi\n        /* \"#utility.yul\":2285:2286   */\n      0x00\n        /* \"#utility.yul\":2282:2283   */\n      dup1\n        /* \"#utility.yul\":2275:2287   */\n      revert\n        /* \"#utility.yul\":2236:2289   */\n    tag_454:\n        /* \"#utility.yul\":2308:2337   */\n      tag_455\n        /* \"#utility.yul\":2327:2336   */\n      dup8\n        /* \"#utility.yul\":2308:2337   */\n      tag_425\n      jump\t// in\n    tag_455:\n        /* \"#utility.yul\":2298:2337   */\n      swap6\n      pop\n        /* \"#utility.yul\":2384:2386   */\n      0x20\n        /* \"#utility.yul\":2373:2382   */\n      dup8\n        /* \"#utility.yul\":2369:2387   */\n      add\n        /* \"#utility.yul\":2356:2388   */\n      calldataload\n        /* \"#utility.yul\":2346:2388   */\n      swap5\n      pop\n        /* \"#utility.yul\":2435:2437   */\n      0x40\n        /* \"#utility.yul\":2424:2433   */\n      dup8\n        /* \"#utility.yul\":2420:2438   */\n      add\n        /* \"#utility.yul\":2407:2439   */\n      calldataload\n        /* \"#utility.yul\":2397:2439   */\n      swap4\n      pop\n        /* \"#utility.yul\":2489:2491   */\n      0x60\n        /* \"#utility.yul\":2478:2487   */\n      dup8\n        /* \"#utility.yul\":2474:2492   */\n      add\n        /* \"#utility.yul\":2461:2493   */\n      calldataload\n        /* \"#utility.yul\":2502:2531   */\n      tag_456\n        /* \"#utility.yul\":2525:2530   */\n      dup2\n        /* \"#utility.yul\":2502:2531   */\n      tag_426\n      jump\t// in\n    tag_456:\n        /* \"#utility.yul\":2073:2665   */\n      swap6\n      swap9\n      swap5\n      swap8\n      pop\n      swap3\n      swap6\n        /* \"#utility.yul\":2602:2605   */\n      0x80\n        /* \"#utility.yul\":2587:2606   */\n      dup2\n      add\n        /* \"#utility.yul\":2574:2607   */\n      calldataload\n      swap5\n        /* \"#utility.yul\":2654:2657   */\n      0xa0\n        /* \"#utility.yul\":2639:2658   */\n      swap1\n      swap2\n      add\n        /* \"#utility.yul\":2626:2659   */\n      calldataload\n      swap4\n      pop\n        /* \"#utility.yul\":2073:2665   */\n      swap2\n      pop\n      pop\n      jump\t// out\n        /* \"#utility.yul\":2670:2788   */\n    tag_427:\n        /* \"#utility.yul\":2756:2761   */\n      dup1\n        /* \"#utility.yul\":2749:2762   */\n      iszero\n        /* \"#utility.yul\":2742:2763   */\n      iszero\n        /* \"#utility.yul\":2735:2740   */\n      dup2\n        /* \"#utility.yul\":2732:2764   */\n      eq\n        /* \"#utility.yul\":2722:2782   */\n      tag_256\n      jumpi\n        /* \"#utility.yul\":2778:2779   */\n      0x00\n        /* \"#utility.yul\":2775:2776   */\n      dup1\n        /* \"#utility.yul\":2768:2780   */\n      revert\n        /* \"#utility.yul\":2793:3034   */\n    tag_76:\n        /* \"#utility.yul\":2849:2855   */\n      0x00\n        /* \"#utility.yul\":2902:2904   */\n      0x20\n        /* \"#utility.yul\":2890:2899   */\n      dup3\n        /* \"#utility.yul\":2881:2888   */\n      dup5\n        /* \"#utility.yul\":2877:2900   */\n      sub\n        /* \"#utility.yul\":2873:2905   */\n      slt\n        /* \"#utility.yul\":2870:2922   */\n      iszero\n      tag_460\n      jumpi\n        /* \"#utility.yul\":2918:2919   */\n      0x00\n        /* \"#utility.yul\":2915:2916   */\n      dup1\n        /* \"#utility.yul\":2908:2920   */\n      revert\n        /* \"#utility.yul\":2870:2922   */\n    tag_460:\n        /* \"#utility.yul\":2957:2966   */\n      dup2\n        /* \"#utility.yul\":2944:2967   */\n      calldataload\n        /* \"#utility.yul\":2976:3004   */\n      tag_150\n        /* \"#utility.yul\":2998:3003   */\n      dup2\n        /* \"#utility.yul\":2976:3004   */\n      tag_427\n      jump\t// in\n        /* \"#utility.yul\":3039:3225   */\n    tag_80:\n        /* \"#utility.yul\":3098:3104   */\n      0x00\n        /* \"#utility.yul\":3151:3153   */\n      0x20\n        /* \"#utility.yul\":3139:3148   */\n      dup3\n        /* \"#utility.yul\":3130:3137   */\n      dup5\n        /* \"#utility.yul\":3126:3149   */\n      sub\n        /* \"#utility.yul\":3122:3154   */\n      slt\n        /* \"#utility.yul\":3119:3171   */\n      iszero\n      tag_463\n      jumpi\n        /* \"#utility.yul\":3167:3168   */\n      0x00\n        /* \"#utility.yul\":3164:3165   */\n      dup1\n        /* \"#utility.yul\":3157:3169   */\n      revert\n        /* \"#utility.yul\":3119:3171   */\n    tag_463:\n        /* \"#utility.yul\":3190:3219   */\n      tag_150\n        /* \"#utility.yul\":3209:3218   */\n      dup3\n        /* \"#utility.yul\":3190:3219   */\n      tag_425\n      jump\t// in\n        /* \"#utility.yul\":3230:4489   */\n    tag_90:\n        /* \"#utility.yul\":3636:3639   */\n      0xff\n        /* \"#utility.yul\":3631:3634   */\n      0xf8\n        /* \"#utility.yul\":3627:3640   */\n      shl\n        /* \"#utility.yul\":3619:3625   */\n      dup9\n        /* \"#utility.yul\":3615:3641   */\n      and\n        /* \"#utility.yul\":3604:3613   */\n      dup2\n        /* \"#utility.yul\":3597:3642   */\n      mstore\n        /* \"#utility.yul\":3578:3582   */\n      0x00\n        /* \"#utility.yul\":3661:3663   */\n      0x20\n        /* \"#utility.yul\":3699:3702   */\n      0xe0\n        /* \"#utility.yul\":3694:3696   */\n      0x20\n        /* \"#utility.yul\":3683:3692   */\n      dup5\n        /* \"#utility.yul\":3679:3697   */\n      add\n        /* \"#utility.yul\":3672:3703   */\n      mstore\n        /* \"#utility.yul\":3726:3772   */\n      tag_466\n        /* \"#utility.yul\":3767:3770   */\n      0xe0\n        /* \"#utility.yul\":3756:3765   */\n      dup5\n        /* \"#utility.yul\":3752:3771   */\n      add\n        /* \"#utility.yul\":3744:3750   */\n      dup11\n        /* \"#utility.yul\":3726:3772   */\n      tag_424\n      jump\t// in\n    tag_466:\n        /* \"#utility.yul\":3820:3829   */\n      dup4\n        /* \"#utility.yul\":3812:3818   */\n      dup2\n        /* \"#utility.yul\":3808:3830   */\n      sub\n        /* \"#utility.yul\":3803:3805   */\n      0x40\n        /* \"#utility.yul\":3792:3801   */\n      dup6\n        /* \"#utility.yul\":3788:3806   */\n      add\n        /* \"#utility.yul\":3781:3831   */\n      mstore\n        /* \"#utility.yul\":3854:3887   */\n      tag_467\n        /* \"#utility.yul\":3880:3886   */\n      dup2\n        /* \"#utility.yul\":3872:3878   */\n      dup11\n        /* \"#utility.yul\":3854:3887   */\n      tag_424\n      jump\t// in\n    tag_467:\n        /* \"#utility.yul\":3918:3920   */\n      0x60\n        /* \"#utility.yul\":3903:3921   */\n      dup6\n      add\n        /* \"#utility.yul\":3896:3930   */\n      dup10\n      swap1\n      mstore\n      sub(shl(0xa0, 0x01), 0x01)\n        /* \"#utility.yul\":3967:3999   */\n      dup9\n      and\n        /* \"#utility.yul\":3961:3964   */\n      0x80\n        /* \"#utility.yul\":3946:3965   */\n      dup7\n      add\n        /* \"#utility.yul\":3939:4000   */\n      mstore\n        /* \"#utility.yul\":3987:3990   */\n      0xa0\n        /* \"#utility.yul\":4016:4035   */\n      dup6\n      add\n        /* \"#utility.yul\":4009:4044   */\n      dup8\n      swap1\n      mstore\n        /* \"#utility.yul\":4081:4103   */\n      dup5\n      dup2\n      sub\n        /* \"#utility.yul\":4075:4078   */\n      0xc0\n        /* \"#utility.yul\":4060:4079   */\n      dup7\n      add\n        /* \"#utility.yul\":4053:4104   */\n      mstore\n        /* \"#utility.yul\":4153:4166   */\n      dup6\n      mload\n        /* \"#utility.yul\":4175:4197   */\n      dup1\n      dup3\n      mstore\n        /* \"#utility.yul\":4225:4227   */\n      0x20\n        /* \"#utility.yul\":4251:4266   */\n      dup1\n      dup9\n      add\n      swap4\n      pop\n        /* \"#utility.yul\":4213:4228   */\n      swap1\n      swap2\n      add\n      swap1\n      0x00\n        /* \"#utility.yul\":4294:4463   */\n    tag_468:\n        /* \"#utility.yul\":4308:4314   */\n      dup2\n        /* \"#utility.yul\":4305:4306   */\n      dup2\n        /* \"#utility.yul\":4302:4315   */\n      lt\n        /* \"#utility.yul\":4294:4463   */\n      iszero\n      tag_470\n      jumpi\n        /* \"#utility.yul\":4369:4382   */\n      dup4\n      mload\n        /* \"#utility.yul\":4357:4383   */\n      dup4\n      mstore\n        /* \"#utility.yul\":4438:4453   */\n      swap3\n      dup5\n      add\n      swap3\n        /* \"#utility.yul\":4403:4415   */\n      swap2\n      dup5\n      add\n      swap2\n        /* \"#utility.yul\":4330:4331   */\n      0x01\n        /* \"#utility.yul\":4323:4332   */\n      add\n        /* \"#utility.yul\":4294:4463   */\n      jump(tag_468)\n    tag_470:\n      pop\n        /* \"#utility.yul\":4480:4483   */\n      swap1\n      swap13\n        /* \"#utility.yul\":3230:4489   */\n      swap12\n      pop\n      pop\n      pop\n      pop\n      pop\n      pop\n      pop\n      pop\n      pop\n      pop\n      pop\n      pop\n      jump\t// out\n        /* \"#utility.yul\":4702:5030   */\n    tag_115:\n        /* \"#utility.yul\":4779:4785   */\n      0x00\n        /* \"#utility.yul\":4787:4793   */\n      dup1\n        /* \"#utility.yul\":4795:4801   */\n      0x00\n        /* \"#utility.yul\":4848:4850   */\n      0x60\n        /* \"#utility.yul\":4836:4845   */\n      dup5\n        /* \"#utility.yul\":4827:4834   */\n      dup7\n        /* \"#utility.yul\":4823:4846   */\n      sub\n        /* \"#utility.yul\":4819:4851   */\n      slt\n        /* \"#utility.yul\":4816:4868   */\n      iszero\n      tag_473\n      jumpi\n        /* \"#utility.yul\":4864:4865   */\n      0x00\n        /* \"#utility.yul\":4861:4862   */\n      dup1\n        /* \"#utility.yul\":4854:4866   */\n      revert\n        /* \"#utility.yul\":4816:4868   */\n    tag_473:\n        /* \"#utility.yul\":4887:4916   */\n      tag_474\n        /* \"#utility.yul\":4906:4915   */\n      dup5\n        /* \"#utility.yul\":4887:4916   */\n      tag_425\n      jump\t// in\n    tag_474:\n        /* \"#utility.yul\":4877:4916   */\n      swap3\n      pop\n        /* \"#utility.yul\":4935:4973   */\n      tag_475\n        /* \"#utility.yul\":4969:4971   */\n      0x20\n        /* \"#utility.yul\":4958:4967   */\n      dup6\n        /* \"#utility.yul\":4954:4972   */\n      add\n        /* \"#utility.yul\":4935:4973   */\n      tag_425\n      jump\t// in\n    tag_475:\n        /* \"#utility.yul\":4925:4973   */\n      swap2\n      pop\n        /* \"#utility.yul\":5020:5022   */\n      0x40\n        /* \"#utility.yul\":5009:5018   */\n      dup5\n        /* \"#utility.yul\":5005:5023   */\n      add\n        /* \"#utility.yul\":4992:5024   */\n      calldataload\n        /* \"#utility.yul\":4982:5024   */\n      swap1\n      pop\n        /* \"#utility.yul\":4702:5030   */\n      swap3\n      pop\n      swap3\n      pop\n      swap3\n      jump\t// out\n        /* \"#utility.yul\":5035:5415   */\n    tag_130:\n        /* \"#utility.yul\":5114:5115   */\n      0x01\n        /* \"#utility.yul\":5110:5122   */\n      dup2\n      dup2\n      shr\n      swap1\n        /* \"#utility.yul\":5157:5169   */\n      dup3\n      and\n      dup1\n        /* \"#utility.yul\":5178:5239   */\n      tag_477\n      jumpi\n        /* \"#utility.yul\":5232:5236   */\n      0x7f\n        /* \"#utility.yul\":5224:5230   */\n      dup3\n        /* \"#utility.yul\":5220:5237   */\n      and\n        /* \"#utility.yul\":5210:5237   */\n      swap2\n      pop\n        /* \"#utility.yul\":5178:5239   */\n    tag_477:\n        /* \"#utility.yul\":5285:5287   */\n      0x20\n        /* \"#utility.yul\":5277:5283   */\n      dup3\n        /* \"#utility.yul\":5274:5288   */\n      lt\n        /* \"#utility.yul\":5254:5272   */\n      dup2\n        /* \"#utility.yul\":5251:5289   */\n      sub\n        /* \"#utility.yul\":5248:5409   */\n      tag_478\n      jumpi\n        /* \"#utility.yul\":5331:5341   */\n      0x4e487b71\n        /* \"#utility.yul\":5326:5329   */\n      0xe0\n        /* \"#utility.yul\":5322:5342   */\n      shl\n        /* \"#utility.yul\":5319:5320   */\n      0x00\n        /* \"#utility.yul\":5312:5343   */\n      mstore\n        /* \"#utility.yul\":5366:5370   */\n      0x22\n        /* \"#utility.yul\":5363:5364   */\n      0x04\n        /* \"#utility.yul\":5356:5371   */\n      mstore\n        /* \"#utility.yul\":5394:5398   */\n      0x24\n        /* \"#utility.yul\":5391:5392   */\n      0x00\n        /* \"#utility.yul\":5384:5399   */\n      revert\n        /* \"#utility.yul\":5248:5409   */\n    tag_478:\n      pop\n        /* \"#utility.yul\":5035:5415   */\n      swap2\n      swap1\n      pop\n      jump\t// out\n        /* \"#utility.yul\":5420:5667   */\n    tag_139:\n        /* \"#utility.yul\":5488:5494   */\n      0x00\n        /* \"#utility.yul\":5541:5543   */\n      0x20\n        /* \"#utility.yul\":5529:5538   */\n      dup3\n        /* \"#utility.yul\":5520:5527   */\n      dup5\n        /* \"#utility.yul\":5516:5539   */\n      sub\n        /* \"#utility.yul\":5512:5544   */\n      slt\n        /* \"#utility.yul\":5509:5561   */\n      iszero\n      tag_480\n      jumpi\n        /* \"#utility.yul\":5557:5558   */\n      0x00\n        /* \"#utility.yul\":5554:5555   */\n      dup1\n        /* \"#utility.yul\":5547:5559   */\n      revert\n        /* \"#utility.yul\":5509:5561   */\n    tag_480:\n        /* \"#utility.yul\":5589:5598   */\n      dup2\n        /* \"#utility.yul\":5583:5599   */\n      mload\n        /* \"#utility.yul\":5608:5637   */\n      tag_150\n        /* \"#utility.yul\":5631:5636   */\n      dup2\n        /* \"#utility.yul\":5608:5637   */\n      tag_426\n      jump\t// in\n        /* \"#utility.yul\":5672:5799   */\n    tag_428:\n        /* \"#utility.yul\":5733:5743   */\n      0x4e487b71\n        /* \"#utility.yul\":5728:5731   */\n      0xe0\n        /* \"#utility.yul\":5724:5744   */\n      shl\n        /* \"#utility.yul\":5721:5722   */\n      0x00\n        /* \"#utility.yul\":5714:5745   */\n      mstore\n        /* \"#utility.yul\":5764:5768   */\n      0x11\n        /* \"#utility.yul\":5761:5762   */\n      0x04\n        /* \"#utility.yul\":5754:5769   */\n      mstore\n        /* \"#utility.yul\":5788:5792   */\n      0x24\n        /* \"#utility.yul\":5785:5786   */\n      0x00\n        /* \"#utility.yul\":5778:5793   */\n      revert\n        /* \"#utility.yul\":5804:6220   */\n    tag_429:\n        /* \"#utility.yul\":5893:5894   */\n      0x01\n        /* \"#utility.yul\":5930:5935   */\n      dup2\n        /* \"#utility.yul\":5893:5894   */\n      dup2\n        /* \"#utility.yul\":5944:6214   */\n    tag_484:\n        /* \"#utility.yul\":5965:5972   */\n      dup1\n        /* \"#utility.yul\":5955:5963   */\n      dup6\n        /* \"#utility.yul\":5952:5973   */\n      gt\n        /* \"#utility.yul\":5944:6214   */\n      iszero\n      tag_486\n      jumpi\n        /* \"#utility.yul\":6024:6028   */\n      dup2\n        /* \"#utility.yul\":6020:6021   */\n      0x00\n        /* \"#utility.yul\":6016:6022   */\n      not\n        /* \"#utility.yul\":6012:6029   */\n      div\n        /* \"#utility.yul\":6006:6010   */\n      dup3\n        /* \"#utility.yul\":6003:6030   */\n      gt\n        /* \"#utility.yul\":6000:6053   */\n      iszero\n      tag_488\n      jumpi\n        /* \"#utility.yul\":6033:6051   */\n      tag_488\n      tag_428\n      jump\t// in\n    tag_488:\n        /* \"#utility.yul\":6083:6090   */\n      dup1\n        /* \"#utility.yul\":6073:6081   */\n      dup6\n        /* \"#utility.yul\":6069:6091   */\n      and\n        /* \"#utility.yul\":6066:6121   */\n      iszero\n      tag_489\n      jumpi\n        /* \"#utility.yul\":6103:6119   */\n      swap2\n      dup2\n      mul\n      swap2\n        /* \"#utility.yul\":6066:6121   */\n    tag_489:\n        /* \"#utility.yul\":6182:6204   */\n      swap4\n      dup5\n      shr\n      swap4\n        /* \"#utility.yul\":6142:6157   */\n      swap1\n      dup1\n      mul\n      swap1\n        /* \"#utility.yul\":5944:6214   */\n      jump(tag_484)\n    tag_486:\n        /* \"#utility.yul\":5948:5951   */\n      pop\n        /* \"#utility.yul\":5804:6220   */\n      swap3\n      pop\n      swap3\n      swap1\n      pop\n      jump\t// out\n        /* \"#utility.yul\":6225:7031   */\n    tag_430:\n        /* \"#utility.yul\":6274:6279   */\n      0x00\n        /* \"#utility.yul\":6304:6312   */\n      dup3\n        /* \"#utility.yul\":6294:6374   */\n      tag_491\n      jumpi\n      pop\n        /* \"#utility.yul\":6345:6346   */\n      0x01\n        /* \"#utility.yul\":6359:6364   */\n      jump(tag_331)\n        /* \"#utility.yul\":6294:6374   */\n    tag_491:\n        /* \"#utility.yul\":6393:6397   */\n      dup2\n        /* \"#utility.yul\":6383:6459   */\n      tag_492\n      jumpi\n      pop\n        /* \"#utility.yul\":6430:6431   */\n      0x00\n        /* \"#utility.yul\":6444:6449   */\n      jump(tag_331)\n        /* \"#utility.yul\":6383:6459   */\n    tag_492:\n        /* \"#utility.yul\":6475:6479   */\n      dup2\n        /* \"#utility.yul\":6493:6494   */\n      0x01\n        /* \"#utility.yul\":6488:6547   */\n      dup2\n      eq\n      tag_494\n      jumpi\n        /* \"#utility.yul\":6561:6562   */\n      0x02\n        /* \"#utility.yul\":6556:6686   */\n      dup2\n      eq\n      tag_495\n      jumpi\n        /* \"#utility.yul\":6468:6686   */\n      jump(tag_493)\n        /* \"#utility.yul\":6488:6547   */\n    tag_494:\n        /* \"#utility.yul\":6518:6519   */\n      0x01\n        /* \"#utility.yul\":6509:6519   */\n      swap2\n      pop\n        /* \"#utility.yul\":6532:6537   */\n      pop\n      jump(tag_331)\n        /* \"#utility.yul\":6556:6686   */\n    tag_495:\n        /* \"#utility.yul\":6593:6596   */\n      0xff\n        /* \"#utility.yul\":6583:6591   */\n      dup5\n        /* \"#utility.yul\":6580:6597   */\n      gt\n        /* \"#utility.yul\":6577:6620   */\n      iszero\n      tag_497\n      jumpi\n        /* \"#utility.yul\":6600:6618   */\n      tag_497\n      tag_428\n      jump\t// in\n    tag_497:\n      pop\n      pop\n        /* \"#utility.yul\":6656:6657   */\n      0x01\n        /* \"#utility.yul\":6642:6658   */\n      dup3\n      shl\n        /* \"#utility.yul\":6671:6676   */\n      jump(tag_331)\n        /* \"#utility.yul\":6468:6686   */\n    tag_493:\n      pop\n        /* \"#utility.yul\":6770:6772   */\n      0x20\n        /* \"#utility.yul\":6760:6768   */\n      dup4\n        /* \"#utility.yul\":6757:6773   */\n      lt\n        /* \"#utility.yul\":6751:6754   */\n      0x0133\n        /* \"#utility.yul\":6745:6749   */\n      dup4\n        /* \"#utility.yul\":6742:6755   */\n      lt\n        /* \"#utility.yul\":6738:6774   */\n      and\n        /* \"#utility.yul\":6732:6734   */\n      0x4e\n        /* \"#utility.yul\":6722:6730   */\n      dup5\n        /* \"#utility.yul\":6719:6735   */\n      lt\n        /* \"#utility.yul\":6714:6716   */\n      0x0b\n        /* \"#utility.yul\":6708:6712   */\n      dup5\n        /* \"#utility.yul\":6705:6717   */\n      lt\n        /* \"#utility.yul\":6701:6736   */\n      and\n        /* \"#utility.yul\":6698:6775   */\n      or\n        /* \"#utility.yul\":6695:6854   */\n      iszero\n      tag_498\n      jumpi\n      pop\n        /* \"#utility.yul\":6807:6826   */\n      dup2\n      dup2\n      exp\n        /* \"#utility.yul\":6839:6844   */\n      jump(tag_331)\n        /* \"#utility.yul\":6695:6854   */\n    tag_498:\n        /* \"#utility.yul\":6886:6920   */\n      tag_499\n        /* \"#utility.yul\":6911:6919   */\n      dup4\n        /* \"#utility.yul\":6905:6909   */\n      dup4\n        /* \"#utility.yul\":6886:6920   */\n      tag_429\n      jump\t// in\n    tag_499:\n        /* \"#utility.yul\":6956:6962   */\n      dup1\n        /* \"#utility.yul\":6952:6953   */\n      0x00\n        /* \"#utility.yul\":6948:6954   */\n      not\n        /* \"#utility.yul\":6944:6963   */\n      div\n        /* \"#utility.yul\":6935:6942   */\n      dup3\n        /* \"#utility.yul\":6932:6964   */\n      gt\n        /* \"#utility.yul\":6929:6987   */\n      iszero\n      tag_501\n      jumpi\n        /* \"#utility.yul\":6967:6985   */\n      tag_501\n      tag_428\n      jump\t// in\n    tag_501:\n        /* \"#utility.yul\":7005:7025   */\n      mul\n      swap4\n        /* \"#utility.yul\":6225:7031   */\n      swap3\n      pop\n      pop\n      pop\n      jump\t// out\n        /* \"#utility.yul\":7036:7176   */\n    tag_141:\n        /* \"#utility.yul\":7094:7099   */\n      0x00\n        /* \"#utility.yul\":7123:7170   */\n      tag_150\n        /* \"#utility.yul\":7164:7168   */\n      0xff\n        /* \"#utility.yul\":7154:7162   */\n      dup5\n        /* \"#utility.yul\":7150:7169   */\n      and\n        /* \"#utility.yul\":7144:7148   */\n      dup4\n        /* \"#utility.yul\":7123:7170   */\n      tag_430\n      jump\t// in\n        /* \"#utility.yul\":7181:7349   */\n    tag_143:\n        /* \"#utility.yul\":7254:7263   */\n      dup1\n      dup3\n      mul\n        /* \"#utility.yul\":7285:7294   */\n      dup2\n      iszero\n        /* \"#utility.yul\":7302:7317   */\n      dup3\n      dup3\n      div\n        /* \"#utility.yul\":7296:7318   */\n      dup5\n      eq\n        /* \"#utility.yul\":7282:7319   */\n      or\n        /* \"#utility.yul\":7272:7343   */\n      tag_331\n      jumpi\n        /* \"#utility.yul\":7323:7341   */\n      tag_331\n      tag_428\n      jump\t// in\n        /* \"#utility.yul\":7354:7571   */\n    tag_151:\n        /* \"#utility.yul\":7394:7395   */\n      0x00\n        /* \"#utility.yul\":7420:7421   */\n      dup3\n        /* \"#utility.yul\":7410:7542   */\n      tag_508\n      jumpi\n        /* \"#utility.yul\":7464:7474   */\n      0x4e487b71\n        /* \"#utility.yul\":7459:7462   */\n      0xe0\n        /* \"#utility.yul\":7455:7475   */\n      shl\n        /* \"#utility.yul\":7452:7453   */\n      0x00\n        /* \"#utility.yul\":7445:7476   */\n      mstore\n        /* \"#utility.yul\":7499:7503   */\n      0x12\n        /* \"#utility.yul\":7496:7497   */\n      0x04\n        /* \"#utility.yul\":7489:7504   */\n      mstore\n        /* \"#utility.yul\":7527:7531   */\n      0x24\n        /* \"#utility.yul\":7524:7525   */\n      0x00\n        /* \"#utility.yul\":7517:7532   */\n      revert\n        /* \"#utility.yul\":7410:7542   */\n    tag_508:\n      pop\n        /* \"#utility.yul\":7556:7565   */\n      div\n      swap1\n        /* \"#utility.yul\":7354:7571   */\n      jump\t// out\n        /* \"#utility.yul\":7576:7931   */\n    tag_165:\n        /* \"#utility.yul\":7778:7780   */\n      0x20\n        /* \"#utility.yul\":7760:7781   */\n      dup1\n      dup3\n      mstore\n        /* \"#utility.yul\":7817:7819   */\n      0x1f\n        /* \"#utility.yul\":7797:7815   */\n      swap1\n      dup3\n      add\n        /* \"#utility.yul\":7790:7820   */\n      mstore\n        /* \"#utility.yul\":7856:7889   */\n      0x796f75206172652073656e64696e6720746f207a65726f206164647265737300\n        /* \"#utility.yul\":7851:7853   */\n      0x40\n        /* \"#utility.yul\":7836:7854   */\n      dup3\n      add\n        /* \"#utility.yul\":7829:7890   */\n      mstore\n        /* \"#utility.yul\":7922:7924   */\n      0x60\n        /* \"#utility.yul\":7907:7925   */\n      add\n      swap1\n        /* \"#utility.yul\":7576:7931   */\n      jump\t// out\n        /* \"#utility.yul\":8817:9001   */\n    tag_210:\n        /* \"#utility.yul\":8887:8893   */\n      0x00\n        /* \"#utility.yul\":8940:8942   */\n      0x20\n        /* \"#utility.yul\":8928:8937   */\n      dup3\n        /* \"#utility.yul\":8919:8926   */\n      dup5\n        /* \"#utility.yul\":8915:8938   */\n      sub\n        /* \"#utility.yul\":8911:8943   */\n      slt\n        /* \"#utility.yul\":8908:8960   */\n      iszero\n      tag_514\n      jumpi\n        /* \"#utility.yul\":8956:8957   */\n      0x00\n        /* \"#utility.yul\":8953:8954   */\n      dup1\n        /* \"#utility.yul\":8946:8958   */\n      revert\n        /* \"#utility.yul\":8908:8960   */\n    tag_514:\n      pop\n        /* \"#utility.yul\":8979:8995   */\n      mload\n      swap2\n        /* \"#utility.yul\":8817:9001   */\n      swap1\n      pop\n      jump\t// out\n        /* \"#utility.yul\":9006:9131   */\n    tag_212:\n        /* \"#utility.yul\":9071:9080   */\n      dup1\n      dup3\n      add\n        /* \"#utility.yul\":9092:9102   */\n      dup1\n      dup3\n      gt\n        /* \"#utility.yul\":9089:9125   */\n      iszero\n      tag_331\n      jumpi\n        /* \"#utility.yul\":9105:9123   */\n      tag_331\n      tag_428\n      jump\t// in\n        /* \"#utility.yul\":9136:9264   */\n    tag_215:\n        /* \"#utility.yul\":9203:9212   */\n      dup2\n      dup2\n      sub\n        /* \"#utility.yul\":9224:9235   */\n      dup2\n      dup2\n      gt\n        /* \"#utility.yul\":9221:9258   */\n      iszero\n      tag_331\n      jumpi\n        /* \"#utility.yul\":9238:9256   */\n      tag_331\n      tag_428\n      jump\t// in\n        /* \"#utility.yul\":10247:10492   */\n    tag_250:\n        /* \"#utility.yul\":10314:10320   */\n      0x00\n        /* \"#utility.yul\":10367:10369   */\n      0x20\n        /* \"#utility.yul\":10355:10364   */\n      dup3\n        /* \"#utility.yul\":10346:10353   */\n      dup5\n        /* \"#utility.yul\":10342:10365   */\n      sub\n        /* \"#utility.yul\":10338:10370   */\n      slt\n        /* \"#utility.yul\":10335:10387   */\n      iszero\n      tag_525\n      jumpi\n        /* \"#utility.yul\":10383:10384   */\n      0x00\n        /* \"#utility.yul\":10380:10381   */\n      dup1\n        /* \"#utility.yul\":10373:10385   */\n      revert\n        /* \"#utility.yul\":10335:10387   */\n    tag_525:\n        /* \"#utility.yul\":10415:10424   */\n      dup2\n        /* \"#utility.yul\":10409:10425   */\n      mload\n        /* \"#utility.yul\":10434:10462   */\n      tag_150\n        /* \"#utility.yul\":10456:10461   */\n      dup2\n        /* \"#utility.yul\":10434:10462   */\n      tag_427\n      jump\t// in\n        /* \"#utility.yul\":13636:13763   */\n    tag_367:\n        /* \"#utility.yul\":13697:13707   */\n      0x4e487b71\n        /* \"#utility.yul\":13692:13695   */\n      0xe0\n        /* \"#utility.yul\":13688:13708   */\n      shl\n        /* \"#utility.yul\":13685:13686   */\n      0x00\n        /* \"#utility.yul\":13678:13709   */\n      mstore\n        /* \"#utility.yul\":13728:13732   */\n      0x21\n        /* \"#utility.yul\":13725:13726   */\n      0x04\n        /* \"#utility.yul\":13718:13733   */\n      mstore\n        /* \"#utility.yul\":13752:13756   */\n      0x24\n        /* \"#utility.yul\":13749:13750   */\n      0x00\n        /* \"#utility.yul\":13742:13757   */\n      revert\n        /* \"#utility.yul\":13768:14055   */\n    tag_404:\n        /* \"#utility.yul\":13897:13900   */\n      0x00\n        /* \"#utility.yul\":13935:13941   */\n      dup3\n        /* \"#utility.yul\":13929:13942   */\n      mload\n        /* \"#utility.yul\":13951:14017   */\n      tag_537\n        /* \"#utility.yul\":14010:14016   */\n      dup2\n        /* \"#utility.yul\":14005:14008   */\n      dup5\n        /* \"#utility.yul\":13998:14002   */\n      0x20\n        /* \"#utility.yul\":13990:13996   */\n      dup8\n        /* \"#utility.yul\":13986:14003   */\n      add\n        /* \"#utility.yul\":13951:14017   */\n      tag_423\n      jump\t// in\n    tag_537:\n        /* \"#utility.yul\":14033:14049   */\n      swap2\n      swap1\n      swap2\n      add\n      swap3\n        /* \"#utility.yul\":13768:14055   */\n      swap2\n      pop\n      pop\n      jump\t// out\n\n    auxdata: 0xa2646970667358221220d913f9c0904da8096a2643bda76507f4e1c800f38cb8b3510490a12c3028af9a64736f6c63430008160033\n}\n",
				"bytecode": {
					"linkReferences": {},
					"object": "61016060405234801562000011575f80fd5b50604051620022be380380620022be833981016040819052620000349162000360565b6040805180820190915260018152603160f81b60208201528390856001600160a01b0381166200007e57604051631e4fbdf760e01b81525f60048201526024015b60405180910390fd5b620000898162000243565b506200009782600162000292565b61012052620000a881600262000292565b61014052815160208084019190912060e052815190820120610100524660a0526200013560e05161010051604080517f8b73c3c69bb8fe3d512ecc4cf759cc79239f7b179b0ffacaa9a75d522b39400f60208201529081019290925260608201524660808201523060a08201525f9060c00160405160208183030381529060405280519060200120905090565b60805250503060c052600e6200014c8482620004d7565b50600a600755611388600855600380546001600160a01b038085166001600160a01b0319928316811790935560058054831690931790925560048054928416928216831781556006805490921683179091556040805163313ce56760e01b8152905163313ce567928281019260209291908290030181865afa158015620001d5573d5f803e3d5ffd5b505050506040513d601f19601f82011682018060405250810190620001fb9190620005a3565b6200020890600a620006d9565b6200021690612710620006e9565b600a555050600f80546001600160a01b0319166001600160a01b039390931692909217909155506200075b565b5f80546001600160a01b038381166001600160a01b0319831681178455604051919092169283917f8be0079c531659141344cd1fd0a4f28419497f9722a3daafe3b4186f6b6457e09190a35050565b5f602083511015620002b157620002a983620002ca565b9050620002c4565b81620002be8482620004d7565b5060ff90505b92915050565b5f80829050601f81511115620002f7578260405163305a27a960e01b815260040162000075919062000703565b8051620003048262000737565b179392505050565b80516001600160a01b038116811462000323575f80fd5b919050565b634e487b7160e01b5f52604160045260245ffd5b5f5b83811015620003585781810151838201526020016200033e565b50505f910152565b5f805f806080858703121562000374575f80fd5b6200037f856200030c565b60208601519094506001600160401b03808211156200039c575f80fd5b818701915087601f830112620003b0575f80fd5b815181811115620003c557620003c562000328565b604051601f8201601f19908116603f01168101908382118183101715620003f057620003f062000328565b816040528281528a602084870101111562000409575f80fd5b6200041c8360208301602088016200033c565b809750505050505062000432604086016200030c565b915062000442606086016200030c565b905092959194509250565b600181811c908216806200046257607f821691505b6020821081036200048157634e487b7160e01b5f52602260045260245ffd5b50919050565b601f821115620004d257805f5260205f20601f840160051c81016020851015620004ae5750805b601f840160051c820191505b81811015620004cf575f8155600101620004ba565b50505b505050565b81516001600160401b03811115620004f357620004f362000328565b6200050b816200050484546200044d565b8462000487565b602080601f83116001811462000541575f8415620005295750858301515b5f19600386901b1c1916600185901b1785556200059b565b5f85815260208120601f198616915b82811015620005715788860151825594840194600190910190840162000550565b50858210156200058f57878501515f19600388901b60f8161c191681555b505060018460011b0185555b505050505050565b5f60208284031215620005b4575f80fd5b815160ff81168114620005c5575f80fd5b9392505050565b634e487b7160e01b5f52601160045260245ffd5b600181815b808511156200062057815f1904821115620006045762000604620005cc565b808516156200061257918102915b93841c9390800290620005e5565b509250929050565b5f826200063857506001620002c4565b816200064657505f620002c4565b81600181146200065f57600281146200066a576200068a565b6001915050620002c4565b60ff8411156200067e576200067e620005cc565b50506001821b620002c4565b5060208310610133831016604e8410600b8410161715620006af575081810a620002c4565b620006bb8383620005e0565b805f1904821115620006d157620006d1620005cc565b029392505050565b5f620005c560ff84168362000628565b8082028115828204841417620002c457620002c4620005cc565b602081525f8251806020840152620007238160408501602087016200033c565b601f01601f19169190910160400192915050565b8051602080830151919081101562000481575f1960209190910360031b1b16919050565b60805160a05160c05160e051610100516101205161014051611b11620007ad5f395f6111b901525f61118c01525f610ec701525f610e9f01525f610dfa01525f610e2401525f610e4e0152611b115ff3fe608060405234801561000f575f80fd5b50600436106101a1575f3560e01c806376ee947f116100f3578063c4a9e85811610093578063f2fde38b1161006e578063f2fde38b14610349578063f851a4401461035c578063f9c3a1e81461036f578063fd91871614610382575f80fd5b8063c4a9e85814610324578063e1fefd421461032d578063e63ea40814610336575f80fd5b80638da5cb5b116100ce5780638da5cb5b146102c75780639683cdc4146102eb578063ac1e5025146102fe578063c08e728614610311575f80fd5b806376ee947f1461029057806384b0196e146102a35780638bc7e8c4146102be575f80fd5b806334fcf4371161015e57806367a527931161013957806367a52793146102595780636b4c078914610262578063704b6c0214610275578063715018a614610288575f80fd5b806334fcf4371461022b5780633644e5151461023e5780636313c6d814610246575f80fd5b806306e0e582146101a55780630ace9ca0146101c15780630d461e61146101d6578063252de51b146101e9578063258ba1ee1461020d5780632c4e722e14610222575b5f80fd5b6101ae600b5481565b6040519081526020015b60405180910390f35b6101c961038b565b6040516101b891906116a8565b6101ae6101e43660046116ba565b610417565b600f546101fd90600160a01b900460ff1681565b60405190151581526020016101b8565b61022061021b3660046116ec565b61053e565b005b6101ae60085481565b6102206102393660046116ba565b61058e565b6101ae61059b565b61022061025436600461172b565b6105a9565b6101ae60075481565b61022061027036600461178e565b6106f4565b6102206102833660046117a9565b61071a565b610220610744565b61022061029e3660046116ba565b610757565b6102ab610764565b6040516101b897969594939291906117c2565b6101ae60095481565b5f546001600160a01b03165b6040516001600160a01b0390911681526020016101b8565b6102206102f93660046117a9565b6107a6565b61022061030c3660046116ba565b610918565b61022061031f3660046116ba565b610925565b6101ae600d5481565b6101ae600a5481565b610220610344366004611859565b6109b1565b6102206103573660046117a9565b610abc565b600f546102d3906001600160a01b031681565b61022061037d36600461172b565b610af9565b6101ae600c5481565b600e805461039890611892565b80601f01602080910402602001604051908101604052809291908181526020018280546103c490611892565b801561040f5780601f106103e65761010080835404028352916020019161040f565b820191905f5260205f20905b8154815290600101906020018083116103f257829003601f168201915b505050505081565b600480546040805163313ce56760e01b815290515f9384936001600160a01b03169263313ce56792818301926020928290030181865afa15801561045d573d5f803e3d5ffd5b505050506040513d601f19601f8201168201806040525081019061048191906118ca565b61048c90600a6119d9565b60085461049991906119e7565b60035f9054906101000a90046001600160a01b03166001600160a01b031663313ce5676040518163ffffffff1660e01b8152600401602060405180830381865afa1580156104e9573d5f803e3d5ffd5b505050506040513d601f19601f8201168201806040525081019061050d91906118ca565b61051890600a6119d9565b6105238560016119e7565b61052d91906119e7565b61053791906119fe565b9392505050565b610546610dc2565b600380546001600160a01b039384166001600160a01b031991821681179092556005805482169092179091556004805492909316918116821790925560068054909216179055565b610596610dc2565b600855565b5f6105a4610dee565b905090565b6001600160a01b0386166105d85760405162461bcd60e51b81526004016105cf90611a1d565b60405180910390fd5b6105e6868686868686610f17565b600f54600160a01b900460ff16156106335760405162461bcd60e51b815260206004820152601060248201526f18dbdb9d1c9858dd08199c99595e995960821b60448201526064016105cf565b600a548510156106915760405162461bcd60e51b815260206004820152602360248201527f706f696e747320746f20636c61696d206c657373207468616e206d696e706f696044820152626e747360e81b60648201526084016105cf565b6006546106a8906001600160a01b031687876110df565b42866001600160a01b03167fd8fb6dbeaadff1d38bb96624ec3bd037611260d2b198d0f78cc1f0955563e756876040516106e491815260200190565b60405180910390a3505050505050565b6106fc610dc2565b600f8054911515600160a01b0260ff60a01b19909216919091179055565b610722610dc2565b600f80546001600160a01b0319166001600160a01b0392909216919091179055565b61074c610dc2565b6107555f611136565b565b61075f610dc2565b600755565b5f6060805f805f6060610775611185565b61077d6111b2565b604080515f80825260208201909252600f60f81b9b939a50919850469750309650945092509050565b6107ae610dc2565b6001600160a01b0381166107d45760405162461bcd60e51b81526004016105cf90611a1d565b6003546040516370a0823160e01b81523060048201525f916001600160a01b0316906370a0823190602401602060405180830381865afa15801561081a573d5f803e3d5ffd5b505050506040513d601f19601f8201168201806040525081019061083e9190611a54565b90505f600b54600d54600c54846108559190611a6b565b61085f9190611a6b565b6108699190611a7e565b905080600b5f82825461087c9190611a6b565b90915550506007545f9060649061089390846119e7565b61089d91906119fe565b90505f81116108e55760405162461bcd60e51b81526020600482015260146024820152731b9bc81b995dc819195c1bdcda5d08185919195960621b60448201526064016105cf565b80600d5f8282546108f69190611a6b565b9091555050600554610912906001600160a01b031685836110df565b50505050565b610920610dc2565b600955565b61092d610dc2565b600480546040805163313ce56760e01b815290516001600160a01b039092169263313ce5679282820192602092908290030181865afa158015610972573d5f803e3d5ffd5b505050506040513d601f19601f8201168201806040525081019061099691906118ca565b6109a190600a6119d9565b6109ab90826119e7565b600a5550565b6109b9610dc2565b6001600160a01b0383166109df5760405162461bcd60e51b81526004016105cf90611a1d565b6001600160a01b038216610a055760405162461bcd60e51b81526004016105cf90611a1d565b5f8111610a4c5760405162461bcd60e51b815260206004820152601560248201527418d85b9d081cd95b99081e995c9bc8185b5bdd5b9d605a1b60448201526064016105cf565b60405163a9059cbb60e01b81526001600160a01b0383811660048301526024820183905284169063a9059cbb906044016020604051808303815f875af1158015610a98573d5f803e3d5ffd5b505050506040513d601f19601f820116820180604052508101906109129190611a91565b610ac4610dc2565b6001600160a01b038116610aed57604051631e4fbdf760e01b81525f60048201526024016105cf565b610af681611136565b50565b6001600160a01b038616610b1f5760405162461bcd60e51b81526004016105cf90611a1d565b610b2d868686868686610f17565b600f54600160a01b900460ff1615610b7a5760405162461bcd60e51b815260206004820152601060248201526f18dbdb9d1c9858dd08199c99595e995960821b60448201526064016105cf565b600480546040516370a0823160e01b81526001600160a01b03898116938201939093528792909116906370a0823190602401602060405180830381865afa158015610bc7573d5f803e3d5ffd5b505050506040513d601f19601f82011682018060405250810190610beb9190611a54565b1015610c2d5760405162461bcd60e51b81526020600482015260116024820152706e6f7420656e6f75676820706f696e747360781b60448201526064016105cf565b600a54851015610c8a5760405162461bcd60e51b815260206004820152602260248201527f706f696e747320746f2073776170206c657373207468616e206d696e706f696e604482015261747360f01b60648201526084016105cf565b5f610c9486610417565b905080600c5f828254610ca79190611a6b565b90915550506009545f90606490610cbe90846119e7565b610cc891906119fe565b90505f610cd58284611a7e565b60048054604051632770a7eb60e21b81526001600160a01b038d811693820193909352602481018c90529293501690639dc29fac906044015f604051808303815f87803b158015610d24575f80fd5b505af1158015610d36573d5f803e3d5ffd5b5050600554610d5292506001600160a01b031690508a836110df565b600554610d69906001600160a01b031633846110df565b604080518981526020810183905290810183905242906001600160a01b038b16907f9a5f60e59cc27a7c25a7f78275c910454cd9adacb21cecff527c98ed63e028779060600160405180910390a3505050505050505050565b5f546001600160a01b031633146107555760405163118cdaa760e01b81523360048201526024016105cf565b5f306001600160a01b037f000000000000000000000000000000000000000000000000000000000000000016148015610e4657507f000000000000000000000000000000000000000000000000000000000000000046145b15610e7057507f000000000000000000000000000000000000000000000000000000000000000090565b6105a4604080517f8b73c3c69bb8fe3d512ecc4cf759cc79239f7b179b0ffacaa9a75d522b39400f60208201527f0000000000000000000000000000000000000000000000000000000000000000918101919091527f000000000000000000000000000000000000000000000000000000000000000060608201524660808201523060a08201525f9060c00160405160208183030381529060405280519060200120905090565b60ff8084165f90815260106020526040902054161580610f4557505f8281526011602052604090205460ff16155b80610f5e57505f8181526012602052604090205460ff16155b610f955760405162461bcd60e51b81526020600482015260086024820152671cda59c81d5cd95960c21b60448201526064016105cf565b83421115610fb95760405163313c898160e11b8152600481018590526024016105cf565b600f54604080517f05619a74ecd0240afc3bfb1df2bd1319401220fb577809c3a09bf0ab809ac86160208201526001600160a01b039283169181019190915290871660608201526080810186905260a081018590525f9060c0016040516020818303038152906040528051906020012090505f611035826111df565b90505f61104482878787611211565b600f549091506001600160a01b0380831691161461108c57600f546040516325c0072360e11b81526001600160a01b03808416600483015290911660248201526044016105cf565b50505060ff9092165f908152601060209081526040808320805460ff1990811660019081179092559484526011835281842080548616821790559483526012909152902080549091169091179055505050565b604080516001600160a01b038416602482015260448082018490528251808303909101815260649091019091526020810180516001600160e01b031663a9059cbb60e01b17905261113190849061123d565b505050565b5f80546001600160a01b038381166001600160a01b0319831681178455604051919092169283917f8be0079c531659141344cd1fd0a4f28419497f9722a3daafe3b4186f6b6457e09190a35050565b60606105a47f0000000000000000000000000000000000000000000000000000000000000000600161129e565b60606105a47f0000000000000000000000000000000000000000000000000000000000000000600261129e565b5f61120b6111eb610dee565b8360405161190160f01b8152600281019290925260228201526042902090565b92915050565b5f805f8061122188888888611348565b9250925092506112318282611410565b50909695505050505050565b5f6112516001600160a01b038416836114cc565b905080515f141580156112755750808060200190518101906112739190611a91565b155b1561113157604051635274afe760e01b81526001600160a01b03841660048201526024016105cf565b606060ff83146112b8576112b1836114d9565b905061120b565b8180546112c490611892565b80601f01602080910402602001604051908101604052809291908181526020018280546112f090611892565b801561133b5780601f106113125761010080835404028352916020019161133b565b820191905f5260205f20905b81548152906001019060200180831161131e57829003601f168201915b5050505050905092915050565b5f80807f7fffffffffffffffffffffffffffffff5d576e7357a4501ddfe92f46681b20a084111561138157505f91506003905082611406565b604080515f808252602082018084528a905260ff891692820192909252606081018790526080810186905260019060a0016020604051602081039080840390855afa1580156113d2573d5f803e3d5ffd5b5050604051601f1901519150506001600160a01b0381166113fd57505f925060019150829050611406565b92505f91508190505b9450945094915050565b5f82600381111561142357611423611aac565b0361142c575050565b600182600381111561144057611440611aac565b0361145e5760405163f645eedf60e01b815260040160405180910390fd5b600282600381111561147257611472611aac565b036114935760405163fce698f760e01b8152600481018290526024016105cf565b60038260038111156114a7576114a7611aac565b036114c8576040516335e2f38360e21b8152600481018290526024016105cf565b5050565b606061053783835f611516565b60605f6114e5836115af565b6040805160208082528183019092529192505f91906020820181803683375050509182525060208101929092525090565b60608147101561153b5760405163cd78605960e01b81523060048201526024016105cf565b5f80856001600160a01b031684866040516115569190611ac0565b5f6040518083038185875af1925050503d805f8114611590576040519150601f19603f3d011682016040523d82523d5f602084013e611595565b606091505b50915091506115a58683836115d6565b9695505050505050565b5f60ff8216601f81111561120b57604051632cd44ac360e21b815260040160405180910390fd5b6060826115eb576115e682611632565b610537565b815115801561160257506001600160a01b0384163b155b1561162b57604051639996b31560e01b81526001600160a01b03851660048201526024016105cf565b5080610537565b8051156116425780518082602001fd5b604051630a12f52160e11b815260040160405180910390fd5b5f5b8381101561167557818101518382015260200161165d565b50505f910152565b5f815180845261169481602086016020860161165b565b601f01601f19169290920160200192915050565b602081525f610537602083018461167d565b5f602082840312156116ca575f80fd5b5035919050565b80356001600160a01b03811681146116e7575f80fd5b919050565b5f80604083850312156116fd575f80fd5b611706836116d1565b9150611714602084016116d1565b90509250929050565b60ff81168114610af6575f80fd5b5f805f805f8060c08789031215611740575f80fd5b611749876116d1565b9550602087013594506040870135935060608701356117678161171d565b9598949750929560808101359460a0909101359350915050565b8015158114610af6575f80fd5b5f6020828403121561179e575f80fd5b813561053781611781565b5f602082840312156117b9575f80fd5b610537826116d1565b60ff60f81b881681525f602060e060208401526117e260e084018a61167d565b83810360408501526117f4818a61167d565b606085018990526001600160a01b038816608086015260a0850187905284810360c0860152855180825260208088019350909101905f5b818110156118475783518352928401929184019160010161182b565b50909c9b505050505050505050505050565b5f805f6060848603121561186b575f80fd5b611874846116d1565b9250611882602085016116d1565b9150604084013590509250925092565b600181811c908216806118a657607f821691505b6020821081036118c457634e487b7160e01b5f52602260045260245ffd5b50919050565b5f602082840312156118da575f80fd5b81516105378161171d565b634e487b7160e01b5f52601160045260245ffd5b600181815b8085111561193357815f1904821115611919576119196118e5565b8085161561192657918102915b93841c93908002906118fe565b509250929050565b5f826119495750600161120b565b8161195557505f61120b565b816001811461196b576002811461197557611991565b600191505061120b565b60ff841115611986576119866118e5565b50506001821b61120b565b5060208310610133831016604e8410600b84101617156119b4575081810a61120b565b6119be83836118f9565b805f19048211156119d1576119d16118e5565b029392505050565b5f61053760ff84168361193b565b808202811582820484141761120b5761120b6118e5565b5f82611a1857634e487b7160e01b5f52601260045260245ffd5b500490565b6020808252601f908201527f796f75206172652073656e64696e6720746f207a65726f206164647265737300604082015260600190565b5f60208284031215611a64575f80fd5b5051919050565b8082018082111561120b5761120b6118e5565b8181038181111561120b5761120b6118e5565b5f60208284031215611aa1575f80fd5b815161053781611781565b634e487b7160e01b5f52602160045260245ffd5b5f8251611ad181846020870161165b565b919091019291505056fea2646970667358221220d913f9c0904da8096a2643bda76507f4e1c800f38cb8b3510490a12c3028af9a64736f6c63430008160033",
					"opcodes": "PUSH2 0x160 PUSH1 0x40 MSTORE CALLVALUE DUP1 ISZERO PUSH3 0x11 JUMPI PUSH0 DUP1 REVERT JUMPDEST POP PUSH1 0x40 MLOAD PUSH3 0x22BE CODESIZE SUB DUP1 PUSH3 0x22BE DUP4 CODECOPY DUP2 ADD PUSH1 0x40 DUP2 SWAP1 MSTORE PUSH3 0x34 SWAP2 PUSH3 0x360 JUMP JUMPDEST PUSH1 0x40 DUP1 MLOAD DUP1 DUP3 ADD SWAP1 SWAP2 MSTORE PUSH1 0x1 DUP2 MSTORE PUSH1 0x31 PUSH1 0xF8 SHL PUSH1 0x20 DUP3 ADD MSTORE DUP4 SWAP1 DUP6 PUSH1 0x1 PUSH1 0x1 PUSH1 0xA0 SHL SUB DUP2 AND PUSH3 0x7E JUMPI PUSH1 0x40 MLOAD PUSH4 0x1E4FBDF7 PUSH1 0xE0 SHL DUP2 MSTORE PUSH0 PUSH1 0x4 DUP3 ADD MSTORE PUSH1 0x24 ADD JUMPDEST PUSH1 0x40 MLOAD DUP1 SWAP2 SUB SWAP1 REVERT JUMPDEST PUSH3 0x89 DUP2 PUSH3 0x243 JUMP JUMPDEST POP PUSH3 0x97 DUP3 PUSH1 0x1 PUSH3 0x292 JUMP JUMPDEST PUSH2 0x120 MSTORE PUSH3 0xA8 DUP2 PUSH1 0x2 PUSH3 0x292 JUMP JUMPDEST PUSH2 0x140 MSTORE DUP2 MLOAD PUSH1 0x20 DUP1 DUP5 ADD SWAP2 SWAP1 SWAP2 KECCAK256 PUSH1 0xE0 MSTORE DUP2 MLOAD SWAP1 DUP3 ADD KECCAK256 PUSH2 0x100 MSTORE CHAINID PUSH1 0xA0 MSTORE PUSH3 0x135 PUSH1 0xE0 MLOAD PUSH2 0x100 MLOAD PUSH1 0x40 DUP1 MLOAD PUSH32 0x8B73C3C69BB8FE3D512ECC4CF759CC79239F7B179B0FFACAA9A75D522B39400F PUSH1 0x20 DUP3 ADD MSTORE SWAP1 DUP2 ADD SWAP3 SWAP1 SWAP3 MSTORE PUSH1 0x60 DUP3 ADD MSTORE CHAINID PUSH1 0x80 DUP3 ADD MSTORE ADDRESS PUSH1 0xA0 DUP3 ADD MSTORE PUSH0 SWAP1 PUSH1 0xC0 ADD PUSH1 0x40 MLOAD PUSH1 0x20 DUP2 DUP4 SUB SUB DUP2 MSTORE SWAP1 PUSH1 0x40 MSTORE DUP1 MLOAD SWAP1 PUSH1 0x20 ADD KECCAK256 SWAP1 POP SWAP1 JUMP JUMPDEST PUSH1 0x80 MSTORE POP POP ADDRESS PUSH1 0xC0 MSTORE PUSH1 0xE PUSH3 0x14C DUP5 DUP3 PUSH3 0x4D7 JUMP JUMPDEST POP PUSH1 0xA PUSH1 0x7 SSTORE PUSH2 0x1388 PUSH1 0x8 SSTORE PUSH1 0x3 DUP1 SLOAD PUSH1 0x1 PUSH1 0x1 PUSH1 0xA0 SHL SUB DUP1 DUP6 AND PUSH1 0x1 PUSH1 0x1 PUSH1 0xA0 SHL SUB NOT SWAP3 DUP4 AND DUP2 OR SWAP1 SWAP4 SSTORE PUSH1 0x5 DUP1 SLOAD DUP4 AND SWAP1 SWAP4 OR SWAP1 SWAP3 SSTORE PUSH1 0x4 DUP1 SLOAD SWAP3 DUP5 AND SWAP3 DUP3 AND DUP4 OR DUP2 SSTORE PUSH1 0x6 DUP1 SLOAD SWAP1 SWAP3 AND DUP4 OR SWAP1 SWAP2 SSTORE PUSH1 0x40 DUP1 MLOAD PUSH4 0x313CE567 PUSH1 0xE0 SHL DUP2 MSTORE SWAP1 MLOAD PUSH4 0x313CE567 SWAP3 DUP3 DUP2 ADD SWAP3 PUSH1 0x20 SWAP3 SWAP2 SWAP1 DUP3 SWAP1 SUB ADD DUP2 DUP7 GAS STATICCALL ISZERO DUP1 ISZERO PUSH3 0x1D5 JUMPI RETURNDATASIZE PUSH0 DUP1 RETURNDATACOPY RETURNDATASIZE PUSH0 REVERT JUMPDEST POP POP POP POP PUSH1 0x40 MLOAD RETURNDATASIZE PUSH1 0x1F NOT PUSH1 0x1F DUP3 ADD AND DUP3 ADD DUP1 PUSH1 0x40 MSTORE POP DUP2 ADD SWAP1 PUSH3 0x1FB SWAP2 SWAP1 PUSH3 0x5A3 JUMP JUMPDEST PUSH3 0x208 SWAP1 PUSH1 0xA PUSH3 0x6D9 JUMP JUMPDEST PUSH3 0x216 SWAP1 PUSH2 0x2710 PUSH3 0x6E9 JUMP JUMPDEST PUSH1 0xA SSTORE POP POP PUSH1 0xF DUP1 SLOAD PUSH1 0x1 PUSH1 0x1 PUSH1 0xA0 SHL SUB NOT AND PUSH1 0x1 PUSH1 0x1 PUSH1 0xA0 SHL SUB SWAP4 SWAP1 SWAP4 AND SWAP3 SWAP1 SWAP3 OR SWAP1 SWAP2 SSTORE POP PUSH3 0x75B JUMP JUMPDEST PUSH0 DUP1 SLOAD PUSH1 0x1 PUSH1 0x1 PUSH1 0xA0 SHL SUB DUP4 DUP2 AND PUSH1 0x1 PUSH1 0x1 PUSH1 0xA0 SHL SUB NOT DUP4 AND DUP2 OR DUP5 SSTORE PUSH1 0x40 MLOAD SWAP2 SWAP1 SWAP3 AND SWAP3 DUP4 SWAP2 PUSH32 0x8BE0079C531659141344CD1FD0A4F28419497F9722A3DAAFE3B4186F6B6457E0 SWAP2 SWAP1 LOG3 POP POP JUMP JUMPDEST PUSH0 PUSH1 0x20 DUP4 MLOAD LT ISZERO PUSH3 0x2B1 JUMPI PUSH3 0x2A9 DUP4 PUSH3 0x2CA JUMP JUMPDEST SWAP1 POP PUSH3 0x2C4 JUMP JUMPDEST DUP2 PUSH3 0x2BE DUP5 DUP3 PUSH3 0x4D7 JUMP JUMPDEST POP PUSH1 0xFF SWAP1 POP JUMPDEST SWAP3 SWAP2 POP POP JUMP JUMPDEST PUSH0 DUP1 DUP3 SWAP1 POP PUSH1 0x1F DUP2 MLOAD GT ISZERO PUSH3 0x2F7 JUMPI DUP3 PUSH1 0x40 MLOAD PUSH4 0x305A27A9 PUSH1 0xE0 SHL DUP2 MSTORE PUSH1 0x4 ADD PUSH3 0x75 SWAP2 SWAP1 PUSH3 0x703 JUMP JUMPDEST DUP1 MLOAD PUSH3 0x304 DUP3 PUSH3 0x737 JUMP JUMPDEST OR SWAP4 SWAP3 POP POP POP JUMP JUMPDEST DUP1 MLOAD PUSH1 0x1 PUSH1 0x1 PUSH1 0xA0 SHL SUB DUP2 AND DUP2 EQ PUSH3 0x323 JUMPI PUSH0 DUP1 REVERT JUMPDEST SWAP2 SWAP1 POP JUMP JUMPDEST PUSH4 0x4E487B71 PUSH1 0xE0 SHL PUSH0 MSTORE PUSH1 0x41 PUSH1 0x4 MSTORE PUSH1 0x24 PUSH0 REVERT JUMPDEST PUSH0 JUMPDEST DUP4 DUP2 LT ISZERO PUSH3 0x358 JUMPI DUP2 DUP2 ADD MLOAD DUP4 DUP3 ADD MSTORE PUSH1 0x20 ADD PUSH3 0x33E JUMP JUMPDEST POP POP PUSH0 SWAP2 ADD MSTORE JUMP JUMPDEST PUSH0 DUP1 PUSH0 DUP1 PUSH1 0x80 DUP6 DUP8 SUB SLT ISZERO PUSH3 0x374 JUMPI PUSH0 DUP1 REVERT JUMPDEST PUSH3 0x37F DUP6 PUSH3 0x30C JUMP JUMPDEST PUSH1 0x20 DUP7 ADD MLOAD SWAP1 SWAP5 POP PUSH1 0x1 PUSH1 0x1 PUSH1 0x40 SHL SUB DUP1 DUP3 GT ISZERO PUSH3 0x39C JUMPI PUSH0 DUP1 REVERT JUMPDEST DUP2 DUP8 ADD SWAP2 POP DUP8 PUSH1 0x1F DUP4 ADD SLT PUSH3 0x3B0 JUMPI PUSH0 DUP1 REVERT JUMPDEST DUP2 MLOAD DUP2 DUP2 GT ISZERO PUSH3 0x3C5 JUMPI PUSH3 0x3C5 PUSH3 0x328 JUMP JUMPDEST PUSH1 0x40 MLOAD PUSH1 0x1F DUP3 ADD PUSH1 0x1F NOT SWAP1 DUP2 AND PUSH1 0x3F ADD AND DUP2 ADD SWAP1 DUP4 DUP3 GT DUP2 DUP4 LT OR ISZERO PUSH3 0x3F0 JUMPI PUSH3 0x3F0 PUSH3 0x328 JUMP JUMPDEST DUP2 PUSH1 0x40 MSTORE DUP3 DUP2 MSTORE DUP11 PUSH1 0x20 DUP5 DUP8 ADD ADD GT ISZERO PUSH3 0x409 JUMPI PUSH0 DUP1 REVERT JUMPDEST PUSH3 0x41C DUP4 PUSH1 0x20 DUP4 ADD PUSH1 0x20 DUP9 ADD PUSH3 0x33C JUMP JUMPDEST DUP1 SWAP8 POP POP POP POP POP POP PUSH3 0x432 PUSH1 0x40 DUP7 ADD PUSH3 0x30C JUMP JUMPDEST SWAP2 POP PUSH3 0x442 PUSH1 0x60 DUP7 ADD PUSH3 0x30C JUMP JUMPDEST SWAP1 POP SWAP3 SWAP6 SWAP2 SWAP5 POP SWAP3 POP JUMP JUMPDEST PUSH1 0x1 DUP2 DUP2 SHR SWAP1 DUP3 AND DUP1 PUSH3 0x462 JUMPI PUSH1 0x7F DUP3 AND SWAP2 POP JUMPDEST PUSH1 0x20 DUP3 LT DUP2 SUB PUSH3 0x481 JUMPI PUSH4 0x4E487B71 PUSH1 0xE0 SHL PUSH0 MSTORE PUSH1 0x22 PUSH1 0x4 MSTORE PUSH1 0x24 PUSH0 REVERT JUMPDEST POP SWAP2 SWAP1 POP JUMP JUMPDEST PUSH1 0x1F DUP3 GT ISZERO PUSH3 0x4D2 JUMPI DUP1 PUSH0 MSTORE PUSH1 0x20 PUSH0 KECCAK256 PUSH1 0x1F DUP5 ADD PUSH1 0x5 SHR DUP2 ADD PUSH1 0x20 DUP6 LT ISZERO PUSH3 0x4AE JUMPI POP DUP1 JUMPDEST PUSH1 0x1F DUP5 ADD PUSH1 0x5 SHR DUP3 ADD SWAP2 POP JUMPDEST DUP2 DUP2 LT ISZERO PUSH3 0x4CF JUMPI PUSH0 DUP2 SSTORE PUSH1 0x1 ADD PUSH3 0x4BA JUMP JUMPDEST POP POP JUMPDEST POP POP POP JUMP JUMPDEST DUP2 MLOAD PUSH1 0x1 PUSH1 0x1 PUSH1 0x40 SHL SUB DUP2 GT ISZERO PUSH3 0x4F3 JUMPI PUSH3 0x4F3 PUSH3 0x328 JUMP JUMPDEST PUSH3 0x50B DUP2 PUSH3 0x504 DUP5 SLOAD PUSH3 0x44D JUMP JUMPDEST DUP5 PUSH3 0x487 JUMP JUMPDEST PUSH1 0x20 DUP1 PUSH1 0x1F DUP4 GT PUSH1 0x1 DUP2 EQ PUSH3 0x541 JUMPI PUSH0 DUP5 ISZERO PUSH3 0x529 JUMPI POP DUP6 DUP4 ADD MLOAD JUMPDEST PUSH0 NOT PUSH1 0x3 DUP7 SWAP1 SHL SHR NOT AND PUSH1 0x1 DUP6 SWAP1 SHL OR DUP6 SSTORE PUSH3 0x59B JUMP JUMPDEST PUSH0 DUP6 DUP2 MSTORE PUSH1 0x20 DUP2 KECCAK256 PUSH1 0x1F NOT DUP7 AND SWAP2 JUMPDEST DUP3 DUP2 LT ISZERO PUSH3 0x571 JUMPI DUP9 DUP7 ADD MLOAD DUP3 SSTORE SWAP5 DUP5 ADD SWAP5 PUSH1 0x1 SWAP1 SWAP2 ADD SWAP1 DUP5 ADD PUSH3 0x550 JUMP JUMPDEST POP DUP6 DUP3 LT ISZERO PUSH3 0x58F JUMPI DUP8 DUP6 ADD MLOAD PUSH0 NOT PUSH1 0x3 DUP9 SWAP1 SHL PUSH1 0xF8 AND SHR NOT AND DUP2 SSTORE JUMPDEST POP POP PUSH1 0x1 DUP5 PUSH1 0x1 SHL ADD DUP6 SSTORE JUMPDEST POP POP POP POP POP POP JUMP JUMPDEST PUSH0 PUSH1 0x20 DUP3 DUP5 SUB SLT ISZERO PUSH3 0x5B4 JUMPI PUSH0 DUP1 REVERT JUMPDEST DUP2 MLOAD PUSH1 0xFF DUP2 AND DUP2 EQ PUSH3 0x5C5 JUMPI PUSH0 DUP1 REVERT JUMPDEST SWAP4 SWAP3 POP POP POP JUMP JUMPDEST PUSH4 0x4E487B71 PUSH1 0xE0 SHL PUSH0 MSTORE PUSH1 0x11 PUSH1 0x4 MSTORE PUSH1 0x24 PUSH0 REVERT JUMPDEST PUSH1 0x1 DUP2 DUP2 JUMPDEST DUP1 DUP6 GT ISZERO PUSH3 0x620 JUMPI DUP2 PUSH0 NOT DIV DUP3 GT ISZERO PUSH3 0x604 JUMPI PUSH3 0x604 PUSH3 0x5CC JUMP JUMPDEST DUP1 DUP6 AND ISZERO PUSH3 0x612 JUMPI SWAP2 DUP2 MUL SWAP2 JUMPDEST SWAP4 DUP5 SHR SWAP4 SWAP1 DUP1 MUL SWAP1 PUSH3 0x5E5 JUMP JUMPDEST POP SWAP3 POP SWAP3 SWAP1 POP JUMP JUMPDEST PUSH0 DUP3 PUSH3 0x638 JUMPI POP PUSH1 0x1 PUSH3 0x2C4 JUMP JUMPDEST DUP2 PUSH3 0x646 JUMPI POP PUSH0 PUSH3 0x2C4 JUMP JUMPDEST DUP2 PUSH1 0x1 DUP2 EQ PUSH3 0x65F JUMPI PUSH1 0x2 DUP2 EQ PUSH3 0x66A JUMPI PUSH3 0x68A JUMP JUMPDEST PUSH1 0x1 SWAP2 POP POP PUSH3 0x2C4 JUMP JUMPDEST PUSH1 0xFF DUP5 GT ISZERO PUSH3 0x67E JUMPI PUSH3 0x67E PUSH3 0x5CC JUMP JUMPDEST POP POP PUSH1 0x1 DUP3 SHL PUSH3 0x2C4 JUMP JUMPDEST POP PUSH1 0x20 DUP4 LT PUSH2 0x133 DUP4 LT AND PUSH1 0x4E DUP5 LT PUSH1 0xB DUP5 LT AND OR ISZERO PUSH3 0x6AF JUMPI POP DUP2 DUP2 EXP PUSH3 0x2C4 JUMP JUMPDEST PUSH3 0x6BB DUP4 DUP4 PUSH3 0x5E0 JUMP JUMPDEST DUP1 PUSH0 NOT DIV DUP3 GT ISZERO PUSH3 0x6D1 JUMPI PUSH3 0x6D1 PUSH3 0x5CC JUMP JUMPDEST MUL SWAP4 SWAP3 POP POP POP JUMP JUMPDEST PUSH0 PUSH3 0x5C5 PUSH1 0xFF DUP5 AND DUP4 PUSH3 0x628 JUMP JUMPDEST DUP1 DUP3 MUL DUP2 ISZERO DUP3 DUP3 DIV DUP5 EQ OR PUSH3 0x2C4 JUMPI PUSH3 0x2C4 PUSH3 0x5CC JUMP JUMPDEST PUSH1 0x20 DUP2 MSTORE PUSH0 DUP3 MLOAD DUP1 PUSH1 0x20 DUP5 ADD MSTORE PUSH3 0x723 DUP2 PUSH1 0x40 DUP6 ADD PUSH1 0x20 DUP8 ADD PUSH3 0x33C JUMP JUMPDEST PUSH1 0x1F ADD PUSH1 0x1F NOT AND SWAP2 SWAP1 SWAP2 ADD PUSH1 0x40 ADD SWAP3 SWAP2 POP POP JUMP JUMPDEST DUP1 MLOAD PUSH1 0x20 DUP1 DUP4 ADD MLOAD SWAP2 SWAP1 DUP2 LT ISZERO PUSH3 0x481 JUMPI PUSH0 NOT PUSH1 0x20 SWAP2 SWAP1 SWAP2 SUB PUSH1 0x3 SHL SHL AND SWAP2 SWAP1 POP JUMP JUMPDEST PUSH1 0x80 MLOAD PUSH1 0xA0 MLOAD PUSH1 0xC0 MLOAD PUSH1 0xE0 MLOAD PUSH2 0x100 MLOAD PUSH2 0x120 MLOAD PUSH2 0x140 MLOAD PUSH2 0x1B11 PUSH3 0x7AD PUSH0 CODECOPY PUSH0 PUSH2 0x11B9 ADD MSTORE PUSH0 PUSH2 0x118C ADD MSTORE PUSH0 PUSH2 0xEC7 ADD MSTORE PUSH0 PUSH2 0xE9F ADD MSTORE PUSH0 PUSH2 0xDFA ADD MSTORE PUSH0 PUSH2 0xE24 ADD MSTORE PUSH0 PUSH2 0xE4E ADD MSTORE PUSH2 0x1B11 PUSH0 RETURN INVALID PUSH1 0x80 PUSH1 0x40 MSTORE CALLVALUE DUP1 ISZERO PUSH2 0xF JUMPI PUSH0 DUP1 REVERT JUMPDEST POP PUSH1 0x4 CALLDATASIZE LT PUSH2 0x1A1 JUMPI PUSH0 CALLDATALOAD PUSH1 0xE0 SHR DUP1 PUSH4 0x76EE947F GT PUSH2 0xF3 JUMPI DUP1 PUSH4 0xC4A9E858 GT PUSH2 0x93 JUMPI DUP1 PUSH4 0xF2FDE38B GT PUSH2 0x6E JUMPI DUP1 PUSH4 0xF2FDE38B EQ PUSH2 0x349 JUMPI DUP1 PUSH4 0xF851A440 EQ PUSH2 0x35C JUMPI DUP1 PUSH4 0xF9C3A1E8 EQ PUSH2 0x36F JUMPI DUP1 PUSH4 0xFD918716 EQ PUSH2 0x382 JUMPI PUSH0 DUP1 REVERT JUMPDEST DUP1 PUSH4 0xC4A9E858 EQ PUSH2 0x324 JUMPI DUP1 PUSH4 0xE1FEFD42 EQ PUSH2 0x32D JUMPI DUP1 PUSH4 0xE63EA408 EQ PUSH2 0x336 JUMPI PUSH0 DUP1 REVERT JUMPDEST DUP1 PUSH4 0x8DA5CB5B GT PUSH2 0xCE JUMPI DUP1 PUSH4 0x8DA5CB5B EQ PUSH2 0x2C7 JUMPI DUP1 PUSH4 0x9683CDC4 EQ PUSH2 0x2EB JUMPI DUP1 PUSH4 0xAC1E5025 EQ PUSH2 0x2FE JUMPI DUP1 PUSH4 0xC08E7286 EQ PUSH2 0x311 JUMPI PUSH0 DUP1 REVERT JUMPDEST DUP1 PUSH4 0x76EE947F EQ PUSH2 0x290 JUMPI DUP1 PUSH4 0x84B0196E EQ PUSH2 0x2A3 JUMPI DUP1 PUSH4 0x8BC7E8C4 EQ PUSH2 0x2BE JUMPI PUSH0 DUP1 REVERT JUMPDEST DUP1 PUSH4 0x34FCF437 GT PUSH2 0x15E JUMPI DUP1 PUSH4 0x67A52793 GT PUSH2 0x139 JUMPI DUP1 PUSH4 0x67A52793 EQ PUSH2 0x259 JUMPI DUP1 PUSH4 0x6B4C0789 EQ PUSH2 0x262 JUMPI DUP1 PUSH4 0x704B6C02 EQ PUSH2 0x275 JUMPI DUP1 PUSH4 0x715018A6 EQ PUSH2 0x288 JUMPI PUSH0 DUP1 REVERT JUMPDEST DUP1 PUSH4 0x34FCF437 EQ PUSH2 0x22B JUMPI DUP1 PUSH4 0x3644E515 EQ PUSH2 0x23E JUMPI DUP1 PUSH4 0x6313C6D8 EQ PUSH2 0x246 JUMPI PUSH0 DUP1 REVERT JUMPDEST DUP1 PUSH4 0x6E0E582 EQ PUSH2 0x1A5 JUMPI DUP1 PUSH4 0xACE9CA0 EQ PUSH2 0x1C1 JUMPI DUP1 PUSH4 0xD461E61 EQ PUSH2 0x1D6 JUMPI DUP1 PUSH4 0x252DE51B EQ PUSH2 0x1E9 JUMPI DUP1 PUSH4 0x258BA1EE EQ PUSH2 0x20D JUMPI DUP1 PUSH4 0x2C4E722E EQ PUSH2 0x222 JUMPI JUMPDEST PUSH0 DUP1 REVERT JUMPDEST PUSH2 0x1AE PUSH1 0xB SLOAD DUP2 JUMP JUMPDEST PUSH1 0x40 MLOAD SWAP1 DUP2 MSTORE PUSH1 0x20 ADD JUMPDEST PUSH1 0x40 MLOAD DUP1 SWAP2 SUB SWAP1 RETURN JUMPDEST PUSH2 0x1C9 PUSH2 0x38B JUMP JUMPDEST PUSH1 0x40 MLOAD PUSH2 0x1B8 SWAP2 SWAP1 PUSH2 0x16A8 JUMP JUMPDEST PUSH2 0x1AE PUSH2 0x1E4 CALLDATASIZE PUSH1 0x4 PUSH2 0x16BA JUMP JUMPDEST PUSH2 0x417 JUMP JUMPDEST PUSH1 0xF SLOAD PUSH2 0x1FD SWAP1 PUSH1 0x1 PUSH1 0xA0 SHL SWAP1 DIV PUSH1 0xFF AND DUP2 JUMP JUMPDEST PUSH1 0x40 MLOAD SWAP1 ISZERO ISZERO DUP2 MSTORE PUSH1 0x20 ADD PUSH2 0x1B8 JUMP JUMPDEST PUSH2 0x220 PUSH2 0x21B CALLDATASIZE PUSH1 0x4 PUSH2 0x16EC JUMP JUMPDEST PUSH2 0x53E JUMP JUMPDEST STOP JUMPDEST PUSH2 0x1AE PUSH1 0x8 SLOAD DUP2 JUMP JUMPDEST PUSH2 0x220 PUSH2 0x239 CALLDATASIZE PUSH1 0x4 PUSH2 0x16BA JUMP JUMPDEST PUSH2 0x58E JUMP JUMPDEST PUSH2 0x1AE PUSH2 0x59B JUMP JUMPDEST PUSH2 0x220 PUSH2 0x254 CALLDATASIZE PUSH1 0x4 PUSH2 0x172B JUMP JUMPDEST PUSH2 0x5A9 JUMP JUMPDEST PUSH2 0x1AE PUSH1 0x7 SLOAD DUP2 JUMP JUMPDEST PUSH2 0x220 PUSH2 0x270 CALLDATASIZE PUSH1 0x4 PUSH2 0x178E JUMP JUMPDEST PUSH2 0x6F4 JUMP JUMPDEST PUSH2 0x220 PUSH2 0x283 CALLDATASIZE PUSH1 0x4 PUSH2 0x17A9 JUMP JUMPDEST PUSH2 0x71A JUMP JUMPDEST PUSH2 0x220 PUSH2 0x744 JUMP JUMPDEST PUSH2 0x220 PUSH2 0x29E CALLDATASIZE PUSH1 0x4 PUSH2 0x16BA JUMP JUMPDEST PUSH2 0x757 JUMP JUMPDEST PUSH2 0x2AB PUSH2 0x764 JUMP JUMPDEST PUSH1 0x40 MLOAD PUSH2 0x1B8 SWAP8 SWAP7 SWAP6 SWAP5 SWAP4 SWAP3 SWAP2 SWAP1 PUSH2 0x17C2 JUMP JUMPDEST PUSH2 0x1AE PUSH1 0x9 SLOAD DUP2 JUMP JUMPDEST PUSH0 SLOAD PUSH1 0x1 PUSH1 0x1 PUSH1 0xA0 SHL SUB AND JUMPDEST PUSH1 0x40 MLOAD PUSH1 0x1 PUSH1 0x1 PUSH1 0xA0 SHL SUB SWAP1 SWAP2 AND DUP2 MSTORE PUSH1 0x20 ADD PUSH2 0x1B8 JUMP JUMPDEST PUSH2 0x220 PUSH2 0x2F9 CALLDATASIZE PUSH1 0x4 PUSH2 0x17A9 JUMP JUMPDEST PUSH2 0x7A6 JUMP JUMPDEST PUSH2 0x220 PUSH2 0x30C CALLDATASIZE PUSH1 0x4 PUSH2 0x16BA JUMP JUMPDEST PUSH2 0x918 JUMP JUMPDEST PUSH2 0x220 PUSH2 0x31F CALLDATASIZE PUSH1 0x4 PUSH2 0x16BA JUMP JUMPDEST PUSH2 0x925 JUMP JUMPDEST PUSH2 0x1AE PUSH1 0xD SLOAD DUP2 JUMP JUMPDEST PUSH2 0x1AE PUSH1 0xA SLOAD DUP2 JUMP JUMPDEST PUSH2 0x220 PUSH2 0x344 CALLDATASIZE PUSH1 0x4 PUSH2 0x1859 JUMP JUMPDEST PUSH2 0x9B1 JUMP JUMPDEST PUSH2 0x220 PUSH2 0x357 CALLDATASIZE PUSH1 0x4 PUSH2 0x17A9 JUMP JUMPDEST PUSH2 0xABC JUMP JUMPDEST PUSH1 0xF SLOAD PUSH2 0x2D3 SWAP1 PUSH1 0x1 PUSH1 0x1 PUSH1 0xA0 SHL SUB AND DUP2 JUMP JUMPDEST PUSH2 0x220 PUSH2 0x37D CALLDATASIZE PUSH1 0x4 PUSH2 0x172B JUMP JUMPDEST PUSH2 0xAF9 JUMP JUMPDEST PUSH2 0x1AE PUSH1 0xC SLOAD DUP2 JUMP JUMPDEST PUSH1 0xE DUP1 SLOAD PUSH2 0x398 SWAP1 PUSH2 0x1892 JUMP JUMPDEST DUP1 PUSH1 0x1F ADD PUSH1 0x20 DUP1 SWAP2 DIV MUL PUSH1 0x20 ADD PUSH1 0x40 MLOAD SWAP1 DUP2 ADD PUSH1 0x40 MSTORE DUP1 SWAP3 SWAP2 SWAP1 DUP2 DUP2 MSTORE PUSH1 0x20 ADD DUP3 DUP1 SLOAD PUSH2 0x3C4 SWAP1 PUSH2 0x1892 JUMP JUMPDEST DUP1 ISZERO PUSH2 0x40F JUMPI DUP1 PUSH1 0x1F LT PUSH2 0x3E6 JUMPI PUSH2 0x100 DUP1 DUP4 SLOAD DIV MUL DUP4 MSTORE SWAP2 PUSH1 0x20 ADD SWAP2 PUSH2 0x40F JUMP JUMPDEST DUP3 ADD SWAP2 SWAP1 PUSH0 MSTORE PUSH1 0x20 PUSH0 KECCAK256 SWAP1 JUMPDEST DUP2 SLOAD DUP2 MSTORE SWAP1 PUSH1 0x1 ADD SWAP1 PUSH1 0x20 ADD DUP1 DUP4 GT PUSH2 0x3F2 JUMPI DUP3 SWAP1 SUB PUSH1 0x1F AND DUP3 ADD SWAP2 JUMPDEST POP POP POP POP POP DUP2 JUMP JUMPDEST PUSH1 0x4 DUP1 SLOAD PUSH1 0x40 DUP1 MLOAD PUSH4 0x313CE567 PUSH1 0xE0 SHL DUP2 MSTORE SWAP1 MLOAD PUSH0 SWAP4 DUP5 SWAP4 PUSH1 0x1 PUSH1 0x1 PUSH1 0xA0 SHL SUB AND SWAP3 PUSH4 0x313CE567 SWAP3 DUP2 DUP4 ADD SWAP3 PUSH1 0x20 SWAP3 DUP3 SWAP1 SUB ADD DUP2 DUP7 GAS STATICCALL ISZERO DUP1 ISZERO PUSH2 0x45D JUMPI RETURNDATASIZE PUSH0 DUP1 RETURNDATACOPY RETURNDATASIZE PUSH0 REVERT JUMPDEST POP POP POP POP PUSH1 0x40 MLOAD RETURNDATASIZE PUSH1 0x1F NOT PUSH1 0x1F DUP3 ADD AND DUP3 ADD DUP1 PUSH1 0x40 MSTORE POP DUP2 ADD SWAP1 PUSH2 0x481 SWAP2 SWAP1 PUSH2 0x18CA JUMP JUMPDEST PUSH2 0x48C SWAP1 PUSH1 0xA PUSH2 0x19D9 JUMP JUMPDEST PUSH1 0x8 SLOAD PUSH2 0x499 SWAP2 SWAP1 PUSH2 0x19E7 JUMP JUMPDEST PUSH1 0x3 PUSH0 SWAP1 SLOAD SWAP1 PUSH2 0x100 EXP SWAP1 DIV PUSH1 0x1 PUSH1 0x1 PUSH1 0xA0 SHL SUB AND PUSH1 0x1 PUSH1 0x1 PUSH1 0xA0 SHL SUB AND PUSH4 0x313CE567 PUSH1 0x40 MLOAD DUP2 PUSH4 0xFFFFFFFF AND PUSH1 0xE0 SHL DUP2 MSTORE PUSH1 0x4 ADD PUSH1 0x20 PUSH1 0x40 MLOAD DUP1 DUP4 SUB DUP2 DUP7 GAS STATICCALL ISZERO DUP1 ISZERO PUSH2 0x4E9 JUMPI RETURNDATASIZE PUSH0 DUP1 RETURNDATACOPY RETURNDATASIZE PUSH0 REVERT JUMPDEST POP POP POP POP PUSH1 0x40 MLOAD RETURNDATASIZE PUSH1 0x1F NOT PUSH1 0x1F DUP3 ADD AND DUP3 ADD DUP1 PUSH1 0x40 MSTORE POP DUP2 ADD SWAP1 PUSH2 0x50D SWAP2 SWAP1 PUSH2 0x18CA JUMP JUMPDEST PUSH2 0x518 SWAP1 PUSH1 0xA PUSH2 0x19D9 JUMP JUMPDEST PUSH2 0x523 DUP6 PUSH1 0x1 PUSH2 0x19E7 JUMP JUMPDEST PUSH2 0x52D SWAP2 SWAP1 PUSH2 0x19E7 JUMP JUMPDEST PUSH2 0x537 SWAP2 SWAP1 PUSH2 0x19FE JUMP JUMPDEST SWAP4 SWAP3 POP POP POP JUMP JUMPDEST PUSH2 0x546 PUSH2 0xDC2 JUMP JUMPDEST PUSH1 0x3 DUP1 SLOAD PUSH1 0x1 PUSH1 0x1 PUSH1 0xA0 SHL SUB SWAP4 DUP5 AND PUSH1 0x1 PUSH1 0x1 PUSH1 0xA0 SHL SUB NOT SWAP2 DUP3 AND DUP2 OR SWAP1 SWAP3 SSTORE PUSH1 0x5 DUP1 SLOAD DUP3 AND SWAP1 SWAP3 OR SWAP1 SWAP2 SSTORE PUSH1 0x4 DUP1 SLOAD SWAP3 SWAP1 SWAP4 AND SWAP2 DUP2 AND DUP3 OR SWAP1 SWAP3 SSTORE PUSH1 0x6 DUP1 SLOAD SWAP1 SWAP3 AND OR SWAP1 SSTORE JUMP JUMPDEST PUSH2 0x596 PUSH2 0xDC2 JUMP JUMPDEST PUSH1 0x8 SSTORE JUMP JUMPDEST PUSH0 PUSH2 0x5A4 PUSH2 0xDEE JUMP JUMPDEST SWAP1 POP SWAP1 JUMP JUMPDEST PUSH1 0x1 PUSH1 0x1 PUSH1 0xA0 SHL SUB DUP7 AND PUSH2 0x5D8 JUMPI PUSH1 0x40 MLOAD PUSH3 0x461BCD PUSH1 0xE5 SHL DUP2 MSTORE PUSH1 0x4 ADD PUSH2 0x5CF SWAP1 PUSH2 0x1A1D JUMP JUMPDEST PUSH1 0x40 MLOAD DUP1 SWAP2 SUB SWAP1 REVERT JUMPDEST PUSH2 0x5E6 DUP7 DUP7 DUP7 DUP7 DUP7 DUP7 PUSH2 0xF17 JUMP JUMPDEST PUSH1 0xF SLOAD PUSH1 0x1 PUSH1 0xA0 SHL SWAP1 DIV PUSH1 0xFF AND ISZERO PUSH2 0x633 JUMPI PUSH1 0x40 MLOAD PUSH3 0x461BCD PUSH1 0xE5 SHL DUP2 MSTORE PUSH1 0x20 PUSH1 0x4 DUP3 ADD MSTORE PUSH1 0x10 PUSH1 0x24 DUP3 ADD MSTORE PUSH16 0x18DBDB9D1C9858DD08199C99595E9959 PUSH1 0x82 SHL PUSH1 0x44 DUP3 ADD MSTORE PUSH1 0x64 ADD PUSH2 0x5CF JUMP JUMPDEST PUSH1 0xA SLOAD DUP6 LT ISZERO PUSH2 0x691 JUMPI PUSH1 0x40 MLOAD PUSH3 0x461BCD PUSH1 0xE5 SHL DUP2 MSTORE PUSH1 0x20 PUSH1 0x4 DUP3 ADD MSTORE PUSH1 0x23 PUSH1 0x24 DUP3 ADD MSTORE PUSH32 0x706F696E747320746F20636C61696D206C657373207468616E206D696E706F69 PUSH1 0x44 DUP3 ADD MSTORE PUSH3 0x6E7473 PUSH1 0xE8 SHL PUSH1 0x64 DUP3 ADD MSTORE PUSH1 0x84 ADD PUSH2 0x5CF JUMP JUMPDEST PUSH1 0x6 SLOAD PUSH2 0x6A8 SWAP1 PUSH1 0x1 PUSH1 0x1 PUSH1 0xA0 SHL SUB AND DUP8 DUP8 PUSH2 0x10DF JUMP JUMPDEST TIMESTAMP DUP7 PUSH1 0x1 PUSH1 0x1 PUSH1 0xA0 SHL SUB AND PUSH32 0xD8FB6DBEAADFF1D38BB96624EC3BD037611260D2B198D0F78CC1F0955563E756 DUP8 PUSH1 0x40 MLOAD PUSH2 0x6E4 SWAP2 DUP2 MSTORE PUSH1 0x20 ADD SWAP1 JUMP JUMPDEST PUSH1 0x40 MLOAD DUP1 SWAP2 SUB SWAP1 LOG3 POP POP POP POP POP POP JUMP JUMPDEST PUSH2 0x6FC PUSH2 0xDC2 JUMP JUMPDEST PUSH1 0xF DUP1 SLOAD SWAP2 ISZERO ISZERO PUSH1 0x1 PUSH1 0xA0 SHL MUL PUSH1 0xFF PUSH1 0xA0 SHL NOT SWAP1 SWAP3 AND SWAP2 SWAP1 SWAP2 OR SWAP1 SSTORE JUMP JUMPDEST PUSH2 0x722 PUSH2 0xDC2 JUMP JUMPDEST PUSH1 0xF DUP1 SLOAD PUSH1 0x1 PUSH1 0x1 PUSH1 0xA0 SHL SUB NOT AND PUSH1 0x1 PUSH1 0x1 PUSH1 0xA0 SHL SUB SWAP3 SWAP1 SWAP3 AND SWAP2 SWAP1 SWAP2 OR SWAP1 SSTORE JUMP JUMPDEST PUSH2 0x74C PUSH2 0xDC2 JUMP JUMPDEST PUSH2 0x755 PUSH0 PUSH2 0x1136 JUMP JUMPDEST JUMP JUMPDEST PUSH2 0x75F PUSH2 0xDC2 JUMP JUMPDEST PUSH1 0x7 SSTORE JUMP JUMPDEST PUSH0 PUSH1 0x60 DUP1 PUSH0 DUP1 PUSH0 PUSH1 0x60 PUSH2 0x775 PUSH2 0x1185 JUMP JUMPDEST PUSH2 0x77D PUSH2 0x11B2 JUMP JUMPDEST PUSH1 0x40 DUP1 MLOAD PUSH0 DUP1 DUP3 MSTORE PUSH1 0x20 DUP3 ADD SWAP1 SWAP3 MSTORE PUSH1 0xF PUSH1 0xF8 SHL SWAP12 SWAP4 SWAP11 POP SWAP2 SWAP9 POP CHAINID SWAP8 POP ADDRESS SWAP7 POP SWAP5 POP SWAP3 POP SWAP1 POP JUMP JUMPDEST PUSH2 0x7AE PUSH2 0xDC2 JUMP JUMPDEST PUSH1 0x1 PUSH1 0x1 PUSH1 0xA0 SHL SUB DUP2 AND PUSH2 0x7D4 JUMPI PUSH1 0x40 MLOAD PUSH3 0x461BCD PUSH1 0xE5 SHL DUP2 MSTORE PUSH1 0x4 ADD PUSH2 0x5CF SWAP1 PUSH2 0x1A1D JUMP JUMPDEST PUSH1 0x3 SLOAD PUSH1 0x40 MLOAD PUSH4 0x70A08231 PUSH1 0xE0 SHL DUP2 MSTORE ADDRESS PUSH1 0x4 DUP3 ADD MSTORE PUSH0 SWAP2 PUSH1 0x1 PUSH1 0x1 PUSH1 0xA0 SHL SUB AND SWAP1 PUSH4 0x70A08231 SWAP1 PUSH1 0x24 ADD PUSH1 0x20 PUSH1 0x40 MLOAD DUP1 DUP4 SUB DUP2 DUP7 GAS STATICCALL ISZERO DUP1 ISZERO PUSH2 0x81A JUMPI RETURNDATASIZE PUSH0 DUP1 RETURNDATACOPY RETURNDATASIZE PUSH0 REVERT JUMPDEST POP POP POP POP PUSH1 0x40 MLOAD RETURNDATASIZE PUSH1 0x1F NOT PUSH1 0x1F DUP3 ADD AND DUP3 ADD DUP1 PUSH1 0x40 MSTORE POP DUP2 ADD SWAP1 PUSH2 0x83E SWAP2 SWAP1 PUSH2 0x1A54 JUMP JUMPDEST SWAP1 POP PUSH0 PUSH1 0xB SLOAD PUSH1 0xD SLOAD PUSH1 0xC SLOAD DUP5 PUSH2 0x855 SWAP2 SWAP1 PUSH2 0x1A6B JUMP JUMPDEST PUSH2 0x85F SWAP2 SWAP1 PUSH2 0x1A6B JUMP JUMPDEST PUSH2 0x869 SWAP2 SWAP1 PUSH2 0x1A7E JUMP JUMPDEST SWAP1 POP DUP1 PUSH1 0xB PUSH0 DUP3 DUP3 SLOAD PUSH2 0x87C SWAP2 SWAP1 PUSH2 0x1A6B JUMP JUMPDEST SWAP1 SWAP2 SSTORE POP POP PUSH1 0x7 SLOAD PUSH0 SWAP1 PUSH1 0x64 SWAP1 PUSH2 0x893 SWAP1 DUP5 PUSH2 0x19E7 JUMP JUMPDEST PUSH2 0x89D SWAP2 SWAP1 PUSH2 0x19FE JUMP JUMPDEST SWAP1 POP PUSH0 DUP2 GT PUSH2 0x8E5 JUMPI PUSH1 0x40 MLOAD PUSH3 0x461BCD PUSH1 0xE5 SHL DUP2 MSTORE PUSH1 0x20 PUSH1 0x4 DUP3 ADD MSTORE PUSH1 0x14 PUSH1 0x24 DUP3 ADD MSTORE PUSH20 0x1B9BC81B995DC819195C1BDCDA5D081859191959 PUSH1 0x62 SHL PUSH1 0x44 DUP3 ADD MSTORE PUSH1 0x64 ADD PUSH2 0x5CF JUMP JUMPDEST DUP1 PUSH1 0xD PUSH0 DUP3 DUP3 SLOAD PUSH2 0x8F6 SWAP2 SWAP1 PUSH2 0x1A6B JUMP JUMPDEST SWAP1 SWAP2 SSTORE POP POP PUSH1 0x5 SLOAD PUSH2 0x912 SWAP1 PUSH1 0x1 PUSH1 0x1 PUSH1 0xA0 SHL SUB AND DUP6 DUP4 PUSH2 0x10DF JUMP JUMPDEST POP POP POP POP JUMP JUMPDEST PUSH2 0x920 PUSH2 0xDC2 JUMP JUMPDEST PUSH1 0x9 SSTORE JUMP JUMPDEST PUSH2 0x92D PUSH2 0xDC2 JUMP JUMPDEST PUSH1 0x4 DUP1 SLOAD PUSH1 0x40 DUP1 MLOAD PUSH4 0x313CE567 PUSH1 0xE0 SHL DUP2 MSTORE SWAP1 MLOAD PUSH1 0x1 PUSH1 0x1 PUSH1 0xA0 SHL SUB SWAP1 SWAP3 AND SWAP3 PUSH4 0x313CE567 SWAP3 DUP3 DUP3 ADD SWAP3 PUSH1 0x20 SWAP3 SWAP1 DUP3 SWAP1 SUB ADD DUP2 DUP7 GAS STATICCALL ISZERO DUP1 ISZERO PUSH2 0x972 JUMPI RETURNDATASIZE PUSH0 DUP1 RETURNDATACOPY RETURNDATASIZE PUSH0 REVERT JUMPDEST POP POP POP POP PUSH1 0x40 MLOAD RETURNDATASIZE PUSH1 0x1F NOT PUSH1 0x1F DUP3 ADD AND DUP3 ADD DUP1 PUSH1 0x40 MSTORE POP DUP2 ADD SWAP1 PUSH2 0x996 SWAP2 SWAP1 PUSH2 0x18CA JUMP JUMPDEST PUSH2 0x9A1 SWAP1 PUSH1 0xA PUSH2 0x19D9 JUMP JUMPDEST PUSH2 0x9AB SWAP1 DUP3 PUSH2 0x19E7 JUMP JUMPDEST PUSH1 0xA SSTORE POP JUMP JUMPDEST PUSH2 0x9B9 PUSH2 0xDC2 JUMP JUMPDEST PUSH1 0x1 PUSH1 0x1 PUSH1 0xA0 SHL SUB DUP4 AND PUSH2 0x9DF JUMPI PUSH1 0x40 MLOAD PUSH3 0x461BCD PUSH1 0xE5 SHL DUP2 MSTORE PUSH1 0x4 ADD PUSH2 0x5CF SWAP1 PUSH2 0x1A1D JUMP JUMPDEST PUSH1 0x1 PUSH1 0x1 PUSH1 0xA0 SHL SUB DUP3 AND PUSH2 0xA05 JUMPI PUSH1 0x40 MLOAD PUSH3 0x461BCD PUSH1 0xE5 SHL DUP2 MSTORE PUSH1 0x4 ADD PUSH2 0x5CF SWAP1 PUSH2 0x1A1D JUMP JUMPDEST PUSH0 DUP2 GT PUSH2 0xA4C JUMPI PUSH1 0x40 MLOAD PUSH3 0x461BCD PUSH1 0xE5 SHL DUP2 MSTORE PUSH1 0x20 PUSH1 0x4 DUP3 ADD MSTORE PUSH1 0x15 PUSH1 0x24 DUP3 ADD MSTORE PUSH21 0x18D85B9D081CD95B99081E995C9BC8185B5BDD5B9D PUSH1 0x5A SHL PUSH1 0x44 DUP3 ADD MSTORE PUSH1 0x64 ADD PUSH2 0x5CF JUMP JUMPDEST PUSH1 0x40 MLOAD PUSH4 0xA9059CBB PUSH1 0xE0 SHL DUP2 MSTORE PUSH1 0x1 PUSH1 0x1 PUSH1 0xA0 SHL SUB DUP4 DUP2 AND PUSH1 0x4 DUP4 ADD MSTORE PUSH1 0x24 DUP3 ADD DUP4 SWAP1 MSTORE DUP5 AND SWAP1 PUSH4 0xA9059CBB SWAP1 PUSH1 0x44 ADD PUSH1 0x20 PUSH1 0x40 MLOAD DUP1 DUP4 SUB DUP2 PUSH0 DUP8 GAS CALL ISZERO DUP1 ISZERO PUSH2 0xA98 JUMPI RETURNDATASIZE PUSH0 DUP1 RETURNDATACOPY RETURNDATASIZE PUSH0 REVERT JUMPDEST POP POP POP POP PUSH1 0x40 MLOAD RETURNDATASIZE PUSH1 0x1F NOT PUSH1 0x1F DUP3 ADD AND DUP3 ADD DUP1 PUSH1 0x40 MSTORE POP DUP2 ADD SWAP1 PUSH2 0x912 SWAP2 SWAP1 PUSH2 0x1A91 JUMP JUMPDEST PUSH2 0xAC4 PUSH2 0xDC2 JUMP JUMPDEST PUSH1 0x1 PUSH1 0x1 PUSH1 0xA0 SHL SUB DUP2 AND PUSH2 0xAED JUMPI PUSH1 0x40 MLOAD PUSH4 0x1E4FBDF7 PUSH1 0xE0 SHL DUP2 MSTORE PUSH0 PUSH1 0x4 DUP3 ADD MSTORE PUSH1 0x24 ADD PUSH2 0x5CF JUMP JUMPDEST PUSH2 0xAF6 DUP2 PUSH2 0x1136 JUMP JUMPDEST POP JUMP JUMPDEST PUSH1 0x1 PUSH1 0x1 PUSH1 0xA0 SHL SUB DUP7 AND PUSH2 0xB1F JUMPI PUSH1 0x40 MLOAD PUSH3 0x461BCD PUSH1 0xE5 SHL DUP2 MSTORE PUSH1 0x4 ADD PUSH2 0x5CF SWAP1 PUSH2 0x1A1D JUMP JUMPDEST PUSH2 0xB2D DUP7 DUP7 DUP7 DUP7 DUP7 DUP7 PUSH2 0xF17 JUMP JUMPDEST PUSH1 0xF SLOAD PUSH1 0x1 PUSH1 0xA0 SHL SWAP1 DIV PUSH1 0xFF AND ISZERO PUSH2 0xB7A JUMPI PUSH1 0x40 MLOAD PUSH3 0x461BCD PUSH1 0xE5 SHL DUP2 MSTORE PUSH1 0x20 PUSH1 0x4 DUP3 ADD MSTORE PUSH1 0x10 PUSH1 0x24 DUP3 ADD MSTORE PUSH16 0x18DBDB9D1C9858DD08199C99595E9959 PUSH1 0x82 SHL PUSH1 0x44 DUP3 ADD MSTORE PUSH1 0x64 ADD PUSH2 0x5CF JUMP JUMPDEST PUSH1 0x4 DUP1 SLOAD PUSH1 0x40 MLOAD PUSH4 0x70A08231 PUSH1 0xE0 SHL DUP2 MSTORE PUSH1 0x1 PUSH1 0x1 PUSH1 0xA0 SHL SUB DUP10 DUP2 AND SWAP4 DUP3 ADD SWAP4 SWAP1 SWAP4 MSTORE DUP8 SWAP3 SWAP1 SWAP2 AND SWAP1 PUSH4 0x70A08231 SWAP1 PUSH1 0x24 ADD PUSH1 0x20 PUSH1 0x40 MLOAD DUP1 DUP4 SUB DUP2 DUP7 GAS STATICCALL ISZERO DUP1 ISZERO PUSH2 0xBC7 JUMPI RETURNDATASIZE PUSH0 DUP1 RETURNDATACOPY RETURNDATASIZE PUSH0 REVERT JUMPDEST POP POP POP POP PUSH1 0x40 MLOAD RETURNDATASIZE PUSH1 0x1F NOT PUSH1 0x1F DUP3 ADD AND DUP3 ADD DUP1 PUSH1 0x40 MSTORE POP DUP2 ADD SWAP1 PUSH2 0xBEB SWAP2 SWAP1 PUSH2 0x1A54 JUMP JUMPDEST LT ISZERO PUSH2 0xC2D JUMPI PUSH1 0x40 MLOAD PUSH3 0x461BCD PUSH1 0xE5 SHL DUP2 MSTORE PUSH1 0x20 PUSH1 0x4 DUP3 ADD MSTORE PUSH1 0x11 PUSH1 0x24 DUP3 ADD MSTORE PUSH17 0x6E6F7420656E6F75676820706F696E7473 PUSH1 0x78 SHL PUSH1 0x44 DUP3 ADD MSTORE PUSH1 0x64 ADD PUSH2 0x5CF JUMP JUMPDEST PUSH1 0xA SLOAD DUP6 LT ISZERO PUSH2 0xC8A JUMPI PUSH1 0x40 MLOAD PUSH3 0x461BCD PUSH1 0xE5 SHL DUP2 MSTORE PUSH1 0x20 PUSH1 0x4 DUP3 ADD MSTORE PUSH1 0x22 PUSH1 0x24 DUP3 ADD MSTORE PUSH32 0x706F696E747320746F2073776170206C657373207468616E206D696E706F696E PUSH1 0x44 DUP3 ADD MSTORE PUSH2 0x7473 PUSH1 0xF0 SHL PUSH1 0x64 DUP3 ADD MSTORE PUSH1 0x84 ADD PUSH2 0x5CF JUMP JUMPDEST PUSH0 PUSH2 0xC94 DUP7 PUSH2 0x417 JUMP JUMPDEST SWAP1 POP DUP1 PUSH1 0xC PUSH0 DUP3 DUP3 SLOAD PUSH2 0xCA7 SWAP2 SWAP1 PUSH2 0x1A6B JUMP JUMPDEST SWAP1 SWAP2 SSTORE POP POP PUSH1 0x9 SLOAD PUSH0 SWAP1 PUSH1 0x64 SWAP1 PUSH2 0xCBE SWAP1 DUP5 PUSH2 0x19E7 JUMP JUMPDEST PUSH2 0xCC8 SWAP2 SWAP1 PUSH2 0x19FE JUMP JUMPDEST SWAP1 POP PUSH0 PUSH2 0xCD5 DUP3 DUP5 PUSH2 0x1A7E JUMP JUMPDEST PUSH1 0x4 DUP1 SLOAD PUSH1 0x40 MLOAD PUSH4 0x2770A7EB PUSH1 0xE2 SHL DUP2 MSTORE PUSH1 0x1 PUSH1 0x1 PUSH1 0xA0 SHL SUB DUP14 DUP2 AND SWAP4 DUP3 ADD SWAP4 SWAP1 SWAP4 MSTORE PUSH1 0x24 DUP2 ADD DUP13 SWAP1 MSTORE SWAP3 SWAP4 POP AND SWAP1 PUSH4 0x9DC29FAC SWAP1 PUSH1 0x44 ADD PUSH0 PUSH1 0x40 MLOAD DUP1 DUP4 SUB DUP2 PUSH0 DUP8 DUP1 EXTCODESIZE ISZERO DUP1 ISZERO PUSH2 0xD24 JUMPI PUSH0 DUP1 REVERT JUMPDEST POP GAS CALL ISZERO DUP1 ISZERO PUSH2 0xD36 JUMPI RETURNDATASIZE PUSH0 DUP1 RETURNDATACOPY RETURNDATASIZE PUSH0 REVERT JUMPDEST POP POP PUSH1 0x5 SLOAD PUSH2 0xD52 SWAP3 POP PUSH1 0x1 PUSH1 0x1 PUSH1 0xA0 SHL SUB AND SWAP1 POP DUP11 DUP4 PUSH2 0x10DF JUMP JUMPDEST PUSH1 0x5 SLOAD PUSH2 0xD69 SWAP1 PUSH1 0x1 PUSH1 0x1 PUSH1 0xA0 SHL SUB AND CALLER DUP5 PUSH2 0x10DF JUMP JUMPDEST PUSH1 0x40 DUP1 MLOAD DUP10 DUP2 MSTORE PUSH1 0x20 DUP2 ADD DUP4 SWAP1 MSTORE SWAP1 DUP2 ADD DUP4 SWAP1 MSTORE TIMESTAMP SWAP1 PUSH1 0x1 PUSH1 0x1 PUSH1 0xA0 SHL SUB DUP12 AND SWAP1 PUSH32 0x9A5F60E59CC27A7C25A7F78275C910454CD9ADACB21CECFF527C98ED63E02877 SWAP1 PUSH1 0x60 ADD PUSH1 0x40 MLOAD DUP1 SWAP2 SUB SWAP1 LOG3 POP POP POP POP POP POP POP POP POP JUMP JUMPDEST PUSH0 SLOAD PUSH1 0x1 PUSH1 0x1 PUSH1 0xA0 SHL SUB AND CALLER EQ PUSH2 0x755 JUMPI PUSH1 0x40 MLOAD PUSH4 0x118CDAA7 PUSH1 0xE0 SHL DUP2 MSTORE CALLER PUSH1 0x4 DUP3 ADD MSTORE PUSH1 0x24 ADD PUSH2 0x5CF JUMP JUMPDEST PUSH0 ADDRESS PUSH1 0x1 PUSH1 0x1 PUSH1 0xA0 SHL SUB PUSH32 0x0 AND EQ DUP1 ISZERO PUSH2 0xE46 JUMPI POP PUSH32 0x0 CHAINID EQ JUMPDEST ISZERO PUSH2 0xE70 JUMPI POP PUSH32 0x0 SWAP1 JUMP JUMPDEST PUSH2 0x5A4 PUSH1 0x40 DUP1 MLOAD PUSH32 0x8B73C3C69BB8FE3D512ECC4CF759CC79239F7B179B0FFACAA9A75D522B39400F PUSH1 0x20 DUP3 ADD MSTORE PUSH32 0x0 SWAP2 DUP2 ADD SWAP2 SWAP1 SWAP2 MSTORE PUSH32 0x0 PUSH1 0x60 DUP3 ADD MSTORE CHAINID PUSH1 0x80 DUP3 ADD MSTORE ADDRESS PUSH1 0xA0 DUP3 ADD MSTORE PUSH0 SWAP1 PUSH1 0xC0 ADD PUSH1 0x40 MLOAD PUSH1 0x20 DUP2 DUP4 SUB SUB DUP2 MSTORE SWAP1 PUSH1 0x40 MSTORE DUP1 MLOAD SWAP1 PUSH1 0x20 ADD KECCAK256 SWAP1 POP SWAP1 JUMP JUMPDEST PUSH1 0xFF DUP1 DUP5 AND PUSH0 SWAP1 DUP2 MSTORE PUSH1 0x10 PUSH1 0x20 MSTORE PUSH1 0x40 SWAP1 KECCAK256 SLOAD AND ISZERO DUP1 PUSH2 0xF45 JUMPI POP PUSH0 DUP3 DUP2 MSTORE PUSH1 0x11 PUSH1 0x20 MSTORE PUSH1 0x40 SWAP1 KECCAK256 SLOAD PUSH1 0xFF AND ISZERO JUMPDEST DUP1 PUSH2 0xF5E JUMPI POP PUSH0 DUP2 DUP2 MSTORE PUSH1 0x12 PUSH1 0x20 MSTORE PUSH1 0x40 SWAP1 KECCAK256 SLOAD PUSH1 0xFF AND ISZERO JUMPDEST PUSH2 0xF95 JUMPI PUSH1 0x40 MLOAD PUSH3 0x461BCD PUSH1 0xE5 SHL DUP2 MSTORE PUSH1 0x20 PUSH1 0x4 DUP3 ADD MSTORE PUSH1 0x8 PUSH1 0x24 DUP3 ADD MSTORE PUSH8 0x1CDA59C81D5CD959 PUSH1 0xC2 SHL PUSH1 0x44 DUP3 ADD MSTORE PUSH1 0x64 ADD PUSH2 0x5CF JUMP JUMPDEST DUP4 TIMESTAMP GT ISZERO PUSH2 0xFB9 JUMPI PUSH1 0x40 MLOAD PUSH4 0x313C8981 PUSH1 0xE1 SHL DUP2 MSTORE PUSH1 0x4 DUP2 ADD DUP6 SWAP1 MSTORE PUSH1 0x24 ADD PUSH2 0x5CF JUMP JUMPDEST PUSH1 0xF SLOAD PUSH1 0x40 DUP1 MLOAD PUSH32 0x5619A74ECD0240AFC3BFB1DF2BD1319401220FB577809C3A09BF0AB809AC861 PUSH1 0x20 DUP3 ADD MSTORE PUSH1 0x1 PUSH1 0x1 PUSH1 0xA0 SHL SUB SWAP3 DUP4 AND SWAP2 DUP2 ADD SWAP2 SWAP1 SWAP2 MSTORE SWAP1 DUP8 AND PUSH1 0x60 DUP3 ADD MSTORE PUSH1 0x80 DUP2 ADD DUP7 SWAP1 MSTORE PUSH1 0xA0 DUP2 ADD DUP6 SWAP1 MSTORE PUSH0 SWAP1 PUSH1 0xC0 ADD PUSH1 0x40 MLOAD PUSH1 0x20 DUP2 DUP4 SUB SUB DUP2 MSTORE SWAP1 PUSH1 0x40 MSTORE DUP1 MLOAD SWAP1 PUSH1 0x20 ADD KECCAK256 SWAP1 POP PUSH0 PUSH2 0x1035 DUP3 PUSH2 0x11DF JUMP JUMPDEST SWAP1 POP PUSH0 PUSH2 0x1044 DUP3 DUP8 DUP8 DUP8 PUSH2 0x1211 JUMP JUMPDEST PUSH1 0xF SLOAD SWAP1 SWAP2 POP PUSH1 0x1 PUSH1 0x1 PUSH1 0xA0 SHL SUB DUP1 DUP4 AND SWAP2 AND EQ PUSH2 0x108C JUMPI PUSH1 0xF SLOAD PUSH1 0x40 MLOAD PUSH4 0x25C00723 PUSH1 0xE1 SHL DUP2 MSTORE PUSH1 0x1 PUSH1 0x1 PUSH1 0xA0 SHL SUB DUP1 DUP5 AND PUSH1 0x4 DUP4 ADD MSTORE SWAP1 SWAP2 AND PUSH1 0x24 DUP3 ADD MSTORE PUSH1 0x44 ADD PUSH2 0x5CF JUMP JUMPDEST POP POP POP PUSH1 0xFF SWAP1 SWAP3 AND PUSH0 SWAP1 DUP2 MSTORE PUSH1 0x10 PUSH1 0x20 SWAP1 DUP2 MSTORE PUSH1 0x40 DUP1 DUP4 KECCAK256 DUP1 SLOAD PUSH1 0xFF NOT SWAP1 DUP2 AND PUSH1 0x1 SWAP1 DUP2 OR SWAP1 SWAP3 SSTORE SWAP5 DUP5 MSTORE PUSH1 0x11 DUP4 MSTORE DUP2 DUP5 KECCAK256 DUP1 SLOAD DUP7 AND DUP3 OR SWAP1 SSTORE SWAP5 DUP4 MSTORE PUSH1 0x12 SWAP1 SWAP2 MSTORE SWAP1 KECCAK256 DUP1 SLOAD SWAP1 SWAP2 AND SWAP1 SWAP2 OR SWAP1 SSTORE POP POP POP JUMP JUMPDEST PUSH1 0x40 DUP1 MLOAD PUSH1 0x1 PUSH1 0x1 PUSH1 0xA0 SHL SUB DUP5 AND PUSH1 0x24 DUP3 ADD MSTORE PUSH1 0x44 DUP1 DUP3 ADD DUP5 SWAP1 MSTORE DUP3 MLOAD DUP1 DUP4 SUB SWAP1 SWAP2 ADD DUP2 MSTORE PUSH1 0x64 SWAP1 SWAP2 ADD SWAP1 SWAP2 MSTORE PUSH1 0x20 DUP2 ADD DUP1 MLOAD PUSH1 0x1 PUSH1 0x1 PUSH1 0xE0 SHL SUB AND PUSH4 0xA9059CBB PUSH1 0xE0 SHL OR SWAP1 MSTORE PUSH2 0x1131 SWAP1 DUP5 SWAP1 PUSH2 0x123D JUMP JUMPDEST POP POP POP JUMP JUMPDEST PUSH0 DUP1 SLOAD PUSH1 0x1 PUSH1 0x1 PUSH1 0xA0 SHL SUB DUP4 DUP2 AND PUSH1 0x1 PUSH1 0x1 PUSH1 0xA0 SHL SUB NOT DUP4 AND DUP2 OR DUP5 SSTORE PUSH1 0x40 MLOAD SWAP2 SWAP1 SWAP3 AND SWAP3 DUP4 SWAP2 PUSH32 0x8BE0079C531659141344CD1FD0A4F28419497F9722A3DAAFE3B4186F6B6457E0 SWAP2 SWAP1 LOG3 POP POP JUMP JUMPDEST PUSH1 0x60 PUSH2 0x5A4 PUSH32 0x0 PUSH1 0x1 PUSH2 0x129E JUMP JUMPDEST PUSH1 0x60 PUSH2 0x5A4 PUSH32 0x0 PUSH1 0x2 PUSH2 0x129E JUMP JUMPDEST PUSH0 PUSH2 0x120B PUSH2 0x11EB PUSH2 0xDEE JUMP JUMPDEST DUP4 PUSH1 0x40 MLOAD PUSH2 0x1901 PUSH1 0xF0 SHL DUP2 MSTORE PUSH1 0x2 DUP2 ADD SWAP3 SWAP1 SWAP3 MSTORE PUSH1 0x22 DUP3 ADD MSTORE PUSH1 0x42 SWAP1 KECCAK256 SWAP1 JUMP JUMPDEST SWAP3 SWAP2 POP POP JUMP JUMPDEST PUSH0 DUP1 PUSH0 DUP1 PUSH2 0x1221 DUP9 DUP9 DUP9 DUP9 PUSH2 0x1348 JUMP JUMPDEST SWAP3 POP SWAP3 POP SWAP3 POP PUSH2 0x1231 DUP3 DUP3 PUSH2 0x1410 JUMP JUMPDEST POP SWAP1 SWAP7 SWAP6 POP POP POP POP POP POP JUMP JUMPDEST PUSH0 PUSH2 0x1251 PUSH1 0x1 PUSH1 0x1 PUSH1 0xA0 SHL SUB DUP5 AND DUP4 PUSH2 0x14CC JUMP JUMPDEST SWAP1 POP DUP1 MLOAD PUSH0 EQ ISZERO DUP1 ISZERO PUSH2 0x1275 JUMPI POP DUP1 DUP1 PUSH1 0x20 ADD SWAP1 MLOAD DUP2 ADD SWAP1 PUSH2 0x1273 SWAP2 SWAP1 PUSH2 0x1A91 JUMP JUMPDEST ISZERO JUMPDEST ISZERO PUSH2 0x1131 JUMPI PUSH1 0x40 MLOAD PUSH4 0x5274AFE7 PUSH1 0xE0 SHL DUP2 MSTORE PUSH1 0x1 PUSH1 0x1 PUSH1 0xA0 SHL SUB DUP5 AND PUSH1 0x4 DUP3 ADD MSTORE PUSH1 0x24 ADD PUSH2 0x5CF JUMP JUMPDEST PUSH1 0x60 PUSH1 0xFF DUP4 EQ PUSH2 0x12B8 JUMPI PUSH2 0x12B1 DUP4 PUSH2 0x14D9 JUMP JUMPDEST SWAP1 POP PUSH2 0x120B JUMP JUMPDEST DUP2 DUP1 SLOAD PUSH2 0x12C4 SWAP1 PUSH2 0x1892 JUMP JUMPDEST DUP1 PUSH1 0x1F ADD PUSH1 0x20 DUP1 SWAP2 DIV MUL PUSH1 0x20 ADD PUSH1 0x40 MLOAD SWAP1 DUP2 ADD PUSH1 0x40 MSTORE DUP1 SWAP3 SWAP2 SWAP1 DUP2 DUP2 MSTORE PUSH1 0x20 ADD DUP3 DUP1 SLOAD PUSH2 0x12F0 SWAP1 PUSH2 0x1892 JUMP JUMPDEST DUP1 ISZERO PUSH2 0x133B JUMPI DUP1 PUSH1 0x1F LT PUSH2 0x1312 JUMPI PUSH2 0x100 DUP1 DUP4 SLOAD DIV MUL DUP4 MSTORE SWAP2 PUSH1 0x20 ADD SWAP2 PUSH2 0x133B JUMP JUMPDEST DUP3 ADD SWAP2 SWAP1 PUSH0 MSTORE PUSH1 0x20 PUSH0 KECCAK256 SWAP1 JUMPDEST DUP2 SLOAD DUP2 MSTORE SWAP1 PUSH1 0x1 ADD SWAP1 PUSH1 0x20 ADD DUP1 DUP4 GT PUSH2 0x131E JUMPI DUP3 SWAP1 SUB PUSH1 0x1F AND DUP3 ADD SWAP2 JUMPDEST POP POP POP POP POP SWAP1 POP SWAP3 SWAP2 POP POP JUMP JUMPDEST PUSH0 DUP1 DUP1 PUSH32 0x7FFFFFFFFFFFFFFFFFFFFFFFFFFFFFFF5D576E7357A4501DDFE92F46681B20A0 DUP5 GT ISZERO PUSH2 0x1381 JUMPI POP PUSH0 SWAP2 POP PUSH1 0x3 SWAP1 POP DUP3 PUSH2 0x1406 JUMP JUMPDEST PUSH1 0x40 DUP1 MLOAD PUSH0 DUP1 DUP3 MSTORE PUSH1 0x20 DUP3 ADD DUP1 DUP5 MSTORE DUP11 SWAP1 MSTORE PUSH1 0xFF DUP10 AND SWAP3 DUP3 ADD SWAP3 SWAP1 SWAP3 MSTORE PUSH1 0x60 DUP2 ADD DUP8 SWAP1 MSTORE PUSH1 0x80 DUP2 ADD DUP7 SWAP1 MSTORE PUSH1 0x1 SWAP1 PUSH1 0xA0 ADD PUSH1 0x20 PUSH1 0x40 MLOAD PUSH1 0x20 DUP2 SUB SWAP1 DUP1 DUP5 SUB SWAP1 DUP6 GAS STATICCALL ISZERO DUP1 ISZERO PUSH2 0x13D2 JUMPI RETURNDATASIZE PUSH0 DUP1 RETURNDATACOPY RETURNDATASIZE PUSH0 REVERT JUMPDEST POP POP PUSH1 0x40 MLOAD PUSH1 0x1F NOT ADD MLOAD SWAP2 POP POP PUSH1 0x1 PUSH1 0x1 PUSH1 0xA0 SHL SUB DUP2 AND PUSH2 0x13FD JUMPI POP PUSH0 SWAP3 POP PUSH1 0x1 SWAP2 POP DUP3 SWAP1 POP PUSH2 0x1406 JUMP JUMPDEST SWAP3 POP PUSH0 SWAP2 POP DUP2 SWAP1 POP JUMPDEST SWAP5 POP SWAP5 POP SWAP5 SWAP2 POP POP JUMP JUMPDEST PUSH0 DUP3 PUSH1 0x3 DUP2 GT ISZERO PUSH2 0x1423 JUMPI PUSH2 0x1423 PUSH2 0x1AAC JUMP JUMPDEST SUB PUSH2 0x142C JUMPI POP POP JUMP JUMPDEST PUSH1 0x1 DUP3 PUSH1 0x3 DUP2 GT ISZERO PUSH2 0x1440 JUMPI PUSH2 0x1440 PUSH2 0x1AAC JUMP JUMPDEST SUB PUSH2 0x145E JUMPI PUSH1 0x40 MLOAD PUSH4 0xF645EEDF PUSH1 0xE0 SHL DUP2 MSTORE PUSH1 0x4 ADD PUSH1 0x40 MLOAD DUP1 SWAP2 SUB SWAP1 REVERT JUMPDEST PUSH1 0x2 DUP3 PUSH1 0x3 DUP2 GT ISZERO PUSH2 0x1472 JUMPI PUSH2 0x1472 PUSH2 0x1AAC JUMP JUMPDEST SUB PUSH2 0x1493 JUMPI PUSH1 0x40 MLOAD PUSH4 0xFCE698F7 PUSH1 0xE0 SHL DUP2 MSTORE PUSH1 0x4 DUP2 ADD DUP3 SWAP1 MSTORE PUSH1 0x24 ADD PUSH2 0x5CF JUMP JUMPDEST PUSH1 0x3 DUP3 PUSH1 0x3 DUP2 GT ISZERO PUSH2 0x14A7 JUMPI PUSH2 0x14A7 PUSH2 0x1AAC JUMP JUMPDEST SUB PUSH2 0x14C8 JUMPI PUSH1 0x40 MLOAD PUSH4 0x35E2F383 PUSH1 0xE2 SHL DUP2 MSTORE PUSH1 0x4 DUP2 ADD DUP3 SWAP1 MSTORE PUSH1 0x24 ADD PUSH2 0x5CF JUMP JUMPDEST POP POP JUMP JUMPDEST PUSH1 0x60 PUSH2 0x537 DUP4 DUP4 PUSH0 PUSH2 0x1516 JUMP JUMPDEST PUSH1 0x60 PUSH0 PUSH2 0x14E5 DUP4 PUSH2 0x15AF JUMP JUMPDEST PUSH1 0x40 DUP1 MLOAD PUSH1 0x20 DUP1 DUP3 MSTORE DUP2 DUP4 ADD SWAP1 SWAP3 MSTORE SWAP2 SWAP3 POP PUSH0 SWAP2 SWAP1 PUSH1 0x20 DUP3 ADD DUP2 DUP1 CALLDATASIZE DUP4 CALLDATACOPY POP POP POP SWAP2 DUP3 MSTORE POP PUSH1 0x20 DUP2 ADD SWAP3 SWAP1 SWAP3 MSTORE POP SWAP1 JUMP JUMPDEST PUSH1 0x60 DUP2 SELFBALANCE LT ISZERO PUSH2 0x153B JUMPI PUSH1 0x40 MLOAD PUSH4 0xCD786059 PUSH1 0xE0 SHL DUP2 MSTORE ADDRESS PUSH1 0x4 DUP3 ADD MSTORE PUSH1 0x24 ADD PUSH2 0x5CF JUMP JUMPDEST PUSH0 DUP1 DUP6 PUSH1 0x1 PUSH1 0x1 PUSH1 0xA0 SHL SUB AND DUP5 DUP7 PUSH1 0x40 MLOAD PUSH2 0x1556 SWAP2 SWAP1 PUSH2 0x1AC0 JUMP JUMPDEST PUSH0 PUSH1 0x40 MLOAD DUP1 DUP4 SUB DUP2 DUP6 DUP8 GAS CALL SWAP3 POP POP POP RETURNDATASIZE DUP1 PUSH0 DUP2 EQ PUSH2 0x1590 JUMPI PUSH1 0x40 MLOAD SWAP2 POP PUSH1 0x1F NOT PUSH1 0x3F RETURNDATASIZE ADD AND DUP3 ADD PUSH1 0x40 MSTORE RETURNDATASIZE DUP3 MSTORE RETURNDATASIZE PUSH0 PUSH1 0x20 DUP5 ADD RETURNDATACOPY PUSH2 0x1595 JUMP JUMPDEST PUSH1 0x60 SWAP2 POP JUMPDEST POP SWAP2 POP SWAP2 POP PUSH2 0x15A5 DUP7 DUP4 DUP4 PUSH2 0x15D6 JUMP JUMPDEST SWAP7 SWAP6 POP POP POP POP POP POP JUMP JUMPDEST PUSH0 PUSH1 0xFF DUP3 AND PUSH1 0x1F DUP2 GT ISZERO PUSH2 0x120B JUMPI PUSH1 0x40 MLOAD PUSH4 0x2CD44AC3 PUSH1 0xE2 SHL DUP2 MSTORE PUSH1 0x4 ADD PUSH1 0x40 MLOAD DUP1 SWAP2 SUB SWAP1 REVERT JUMPDEST PUSH1 0x60 DUP3 PUSH2 0x15EB JUMPI PUSH2 0x15E6 DUP3 PUSH2 0x1632 JUMP JUMPDEST PUSH2 0x537 JUMP JUMPDEST DUP2 MLOAD ISZERO DUP1 ISZERO PUSH2 0x1602 JUMPI POP PUSH1 0x1 PUSH1 0x1 PUSH1 0xA0 SHL SUB DUP5 AND EXTCODESIZE ISZERO JUMPDEST ISZERO PUSH2 0x162B JUMPI PUSH1 0x40 MLOAD PUSH4 0x9996B315 PUSH1 0xE0 SHL DUP2 MSTORE PUSH1 0x1 PUSH1 0x1 PUSH1 0xA0 SHL SUB DUP6 AND PUSH1 0x4 DUP3 ADD MSTORE PUSH1 0x24 ADD PUSH2 0x5CF JUMP JUMPDEST POP DUP1 PUSH2 0x537 JUMP JUMPDEST DUP1 MLOAD ISZERO PUSH2 0x1642 JUMPI DUP1 MLOAD DUP1 DUP3 PUSH1 0x20 ADD REVERT JUMPDEST PUSH1 0x40 MLOAD PUSH4 0xA12F521 PUSH1 0xE1 SHL DUP2 MSTORE PUSH1 0x4 ADD PUSH1 0x40 MLOAD DUP1 SWAP2 SUB SWAP1 REVERT JUMPDEST PUSH0 JUMPDEST DUP4 DUP2 LT ISZERO PUSH2 0x1675 JUMPI DUP2 DUP2 ADD MLOAD DUP4 DUP3 ADD MSTORE PUSH1 0x20 ADD PUSH2 0x165D JUMP JUMPDEST POP POP PUSH0 SWAP2 ADD MSTORE JUMP JUMPDEST PUSH0 DUP2 MLOAD DUP1 DUP5 MSTORE PUSH2 0x1694 DUP2 PUSH1 0x20 DUP7 ADD PUSH1 0x20 DUP7 ADD PUSH2 0x165B JUMP JUMPDEST PUSH1 0x1F ADD PUSH1 0x1F NOT AND SWAP3 SWAP1 SWAP3 ADD PUSH1 0x20 ADD SWAP3 SWAP2 POP POP JUMP JUMPDEST PUSH1 0x20 DUP2 MSTORE PUSH0 PUSH2 0x537 PUSH1 0x20 DUP4 ADD DUP5 PUSH2 0x167D JUMP JUMPDEST PUSH0 PUSH1 0x20 DUP3 DUP5 SUB SLT ISZERO PUSH2 0x16CA JUMPI PUSH0 DUP1 REVERT JUMPDEST POP CALLDATALOAD SWAP2 SWAP1 POP JUMP JUMPDEST DUP1 CALLDATALOAD PUSH1 0x1 PUSH1 0x1 PUSH1 0xA0 SHL SUB DUP2 AND DUP2 EQ PUSH2 0x16E7 JUMPI PUSH0 DUP1 REVERT JUMPDEST SWAP2 SWAP1 POP JUMP JUMPDEST PUSH0 DUP1 PUSH1 0x40 DUP4 DUP6 SUB SLT ISZERO PUSH2 0x16FD JUMPI PUSH0 DUP1 REVERT JUMPDEST PUSH2 0x1706 DUP4 PUSH2 0x16D1 JUMP JUMPDEST SWAP2 POP PUSH2 0x1714 PUSH1 0x20 DUP5 ADD PUSH2 0x16D1 JUMP JUMPDEST SWAP1 POP SWAP3 POP SWAP3 SWAP1 POP JUMP JUMPDEST PUSH1 0xFF DUP2 AND DUP2 EQ PUSH2 0xAF6 JUMPI PUSH0 DUP1 REVERT JUMPDEST PUSH0 DUP1 PUSH0 DUP1 PUSH0 DUP1 PUSH1 0xC0 DUP8 DUP10 SUB SLT ISZERO PUSH2 0x1740 JUMPI PUSH0 DUP1 REVERT JUMPDEST PUSH2 0x1749 DUP8 PUSH2 0x16D1 JUMP JUMPDEST SWAP6 POP PUSH1 0x20 DUP8 ADD CALLDATALOAD SWAP5 POP PUSH1 0x40 DUP8 ADD CALLDATALOAD SWAP4 POP PUSH1 0x60 DUP8 ADD CALLDATALOAD PUSH2 0x1767 DUP2 PUSH2 0x171D JUMP JUMPDEST SWAP6 SWAP9 SWAP5 SWAP8 POP SWAP3 SWAP6 PUSH1 0x80 DUP2 ADD CALLDATALOAD SWAP5 PUSH1 0xA0 SWAP1 SWAP2 ADD CALLDATALOAD SWAP4 POP SWAP2 POP POP JUMP JUMPDEST DUP1 ISZERO ISZERO DUP2 EQ PUSH2 0xAF6 JUMPI PUSH0 DUP1 REVERT JUMPDEST PUSH0 PUSH1 0x20 DUP3 DUP5 SUB SLT ISZERO PUSH2 0x179E JUMPI PUSH0 DUP1 REVERT JUMPDEST DUP2 CALLDATALOAD PUSH2 0x537 DUP2 PUSH2 0x1781 JUMP JUMPDEST PUSH0 PUSH1 0x20 DUP3 DUP5 SUB SLT ISZERO PUSH2 0x17B9 JUMPI PUSH0 DUP1 REVERT JUMPDEST PUSH2 0x537 DUP3 PUSH2 0x16D1 JUMP JUMPDEST PUSH1 0xFF PUSH1 0xF8 SHL DUP9 AND DUP2 MSTORE PUSH0 PUSH1 0x20 PUSH1 0xE0 PUSH1 0x20 DUP5 ADD MSTORE PUSH2 0x17E2 PUSH1 0xE0 DUP5 ADD DUP11 PUSH2 0x167D JUMP JUMPDEST DUP4 DUP2 SUB PUSH1 0x40 DUP6 ADD MSTORE PUSH2 0x17F4 DUP2 DUP11 PUSH2 0x167D JUMP JUMPDEST PUSH1 0x60 DUP6 ADD DUP10 SWAP1 MSTORE PUSH1 0x1 PUSH1 0x1 PUSH1 0xA0 SHL SUB DUP9 AND PUSH1 0x80 DUP7 ADD MSTORE PUSH1 0xA0 DUP6 ADD DUP8 SWAP1 MSTORE DUP5 DUP2 SUB PUSH1 0xC0 DUP7 ADD MSTORE DUP6 MLOAD DUP1 DUP3 MSTORE PUSH1 0x20 DUP1 DUP9 ADD SWAP4 POP SWAP1 SWAP2 ADD SWAP1 PUSH0 JUMPDEST DUP2 DUP2 LT ISZERO PUSH2 0x1847 JUMPI DUP4 MLOAD DUP4 MSTORE SWAP3 DUP5 ADD SWAP3 SWAP2 DUP5 ADD SWAP2 PUSH1 0x1 ADD PUSH2 0x182B JUMP JUMPDEST POP SWAP1 SWAP13 SWAP12 POP POP POP POP POP POP POP POP POP POP POP POP JUMP JUMPDEST PUSH0 DUP1 PUSH0 PUSH1 0x60 DUP5 DUP7 SUB SLT ISZERO PUSH2 0x186B JUMPI PUSH0 DUP1 REVERT JUMPDEST PUSH2 0x1874 DUP5 PUSH2 0x16D1 JUMP JUMPDEST SWAP3 POP PUSH2 0x1882 PUSH1 0x20 DUP6 ADD PUSH2 0x16D1 JUMP JUMPDEST SWAP2 POP PUSH1 0x40 DUP5 ADD CALLDATALOAD SWAP1 POP SWAP3 POP SWAP3 POP SWAP3 JUMP JUMPDEST PUSH1 0x1 DUP2 DUP2 SHR SWAP1 DUP3 AND DUP1 PUSH2 0x18A6 JUMPI PUSH1 0x7F DUP3 AND SWAP2 POP JUMPDEST PUSH1 0x20 DUP3 LT DUP2 SUB PUSH2 0x18C4 JUMPI PUSH4 0x4E487B71 PUSH1 0xE0 SHL PUSH0 MSTORE PUSH1 0x22 PUSH1 0x4 MSTORE PUSH1 0x24 PUSH0 REVERT JUMPDEST POP SWAP2 SWAP1 POP JUMP JUMPDEST PUSH0 PUSH1 0x20 DUP3 DUP5 SUB SLT ISZERO PUSH2 0x18DA JUMPI PUSH0 DUP1 REVERT JUMPDEST DUP2 MLOAD PUSH2 0x537 DUP2 PUSH2 0x171D JUMP JUMPDEST PUSH4 0x4E487B71 PUSH1 0xE0 SHL PUSH0 MSTORE PUSH1 0x11 PUSH1 0x4 MSTORE PUSH1 0x24 PUSH0 REVERT JUMPDEST PUSH1 0x1 DUP2 DUP2 JUMPDEST DUP1 DUP6 GT ISZERO PUSH2 0x1933 JUMPI DUP2 PUSH0 NOT DIV DUP3 GT ISZERO PUSH2 0x1919 JUMPI PUSH2 0x1919 PUSH2 0x18E5 JUMP JUMPDEST DUP1 DUP6 AND ISZERO PUSH2 0x1926 JUMPI SWAP2 DUP2 MUL SWAP2 JUMPDEST SWAP4 DUP5 SHR SWAP4 SWAP1 DUP1 MUL SWAP1 PUSH2 0x18FE JUMP JUMPDEST POP SWAP3 POP SWAP3 SWAP1 POP JUMP JUMPDEST PUSH0 DUP3 PUSH2 0x1949 JUMPI POP PUSH1 0x1 PUSH2 0x120B JUMP JUMPDEST DUP2 PUSH2 0x1955 JUMPI POP PUSH0 PUSH2 0x120B JUMP JUMPDEST DUP2 PUSH1 0x1 DUP2 EQ PUSH2 0x196B JUMPI PUSH1 0x2 DUP2 EQ PUSH2 0x1975 JUMPI PUSH2 0x1991 JUMP JUMPDEST PUSH1 0x1 SWAP2 POP POP PUSH2 0x120B JUMP JUMPDEST PUSH1 0xFF DUP5 GT ISZERO PUSH2 0x1986 JUMPI PUSH2 0x1986 PUSH2 0x18E5 JUMP JUMPDEST POP POP PUSH1 0x1 DUP3 SHL PUSH2 0x120B JUMP JUMPDEST POP PUSH1 0x20 DUP4 LT PUSH2 0x133 DUP4 LT AND PUSH1 0x4E DUP5 LT PUSH1 0xB DUP5 LT AND OR ISZERO PUSH2 0x19B4 JUMPI POP DUP2 DUP2 EXP PUSH2 0x120B JUMP JUMPDEST PUSH2 0x19BE DUP4 DUP4 PUSH2 0x18F9 JUMP JUMPDEST DUP1 PUSH0 NOT DIV DUP3 GT ISZERO PUSH2 0x19D1 JUMPI PUSH2 0x19D1 PUSH2 0x18E5 JUMP JUMPDEST MUL SWAP4 SWAP3 POP POP POP JUMP JUMPDEST PUSH0 PUSH2 0x537 PUSH1 0xFF DUP5 AND DUP4 PUSH2 0x193B JUMP JUMPDEST DUP1 DUP3 MUL DUP2 ISZERO DUP3 DUP3 DIV DUP5 EQ OR PUSH2 0x120B JUMPI PUSH2 0x120B PUSH2 0x18E5 JUMP JUMPDEST PUSH0 DUP3 PUSH2 0x1A18 JUMPI PUSH4 0x4E487B71 PUSH1 0xE0 SHL PUSH0 MSTORE PUSH1 0x12 PUSH1 0x4 MSTORE PUSH1 0x24 PUSH0 REVERT JUMPDEST POP DIV SWAP1 JUMP JUMPDEST PUSH1 0x20 DUP1 DUP3 MSTORE PUSH1 0x1F SWAP1 DUP3 ADD MSTORE PUSH32 0x796F75206172652073656E64696E6720746F207A65726F206164647265737300 PUSH1 0x40 DUP3 ADD MSTORE PUSH1 0x60 ADD SWAP1 JUMP JUMPDEST PUSH0 PUSH1 0x20 DUP3 DUP5 SUB SLT ISZERO PUSH2 0x1A64 JUMPI PUSH0 DUP1 REVERT JUMPDEST POP MLOAD SWAP2 SWAP1 POP JUMP JUMPDEST DUP1 DUP3 ADD DUP1 DUP3 GT ISZERO PUSH2 0x120B JUMPI PUSH2 0x120B PUSH2 0x18E5 JUMP JUMPDEST DUP2 DUP2 SUB DUP2 DUP2 GT ISZERO PUSH2 0x120B JUMPI PUSH2 0x120B PUSH2 0x18E5 JUMP JUMPDEST PUSH0 PUSH1 0x20 DUP3 DUP5 SUB SLT ISZERO PUSH2 0x1AA1 JUMPI PUSH0 DUP1 REVERT JUMPDEST DUP2 MLOAD PUSH2 0x537 DUP2 PUSH2 0x1781 JUMP JUMPDEST PUSH4 0x4E487B71 PUSH1 0xE0 SHL PUSH0 MSTORE PUSH1 0x21 PUSH1 0x4 MSTORE PUSH1 0x24 PUSH0 REVERT JUMPDEST PUSH0 DUP3 MLOAD PUSH2 0x1AD1 DUP2 DUP5 PUSH1 0x20 DUP8 ADD PUSH2 0x165B JUMP JUMPDEST SWAP2 SWAP1 SWAP2 ADD SWAP3 SWAP2 POP POP JUMP INVALID LOG2 PUSH5 0x6970667358 0x22 SLT KECCAK256 0xD9 SGT 0xF9 0xC0 SWAP1 0x4D 0xA8 MULMOD PUSH11 0x2643BDA76507F4E1C800F3 DUP13 0xB8 0xB3 MLOAD DIV SWAP1 LOG1 0x2C ADDRESS 0x28 0xAF SWAP11 PUSH5 0x736F6C6343 STOP ADDMOD AND STOP CALLER "
				},
				"gasEstimates": {
					"creation": {
						"codeDepositCost": "1385800",
						"executionCost": "infinite",
						"totalCost": "infinite"
					},
					"external": {
						"DOMAIN_SEPARATOR()": "infinite",
						"TotalfeescollectedPaymentCoin()": "2328",
						"admin()": "2402",
						"checkAmountToRecive(uint256)": "infinite",
						"claimedPaymentCoin()": "2393",
						"depositFee()": "2328",
						"eip712Domain()": "infinite",
						"emergencyWithdraw(address,address,uint256)": "infinite",
						"freezeContract(bool)": "26777",
						"freezePermit()": "2416",
						"initContractBalancePaymentCoin()": "2307",
						"owner()": "2363",
						"permitClaimPoints(address,uint256,uint256,uint8,bytes32,bytes32)": "infinite",
						"permitSwapToPaymentCoin(address,uint256,uint256,uint8,bytes32,bytes32)": "infinite",
						"pointsMin()": "2350",
						"rate()": "2417",
						"renounceOwnership()": "infinite",
						"setAdmin(address)": "26821",
						"setMinPointsToSWap(uint256)": "infinite",
						"setPaymentDepositfees(uint256)": "24531",
						"setRate(uint256)": "24531",
						"setWithdrawalFee(uint256)": "24574",
						"setpaymentTokenAndpoints(address,address)": "infinite",
						"transferOwnership(address)": "28373",
						"vaultName()": "infinite",
						"withdrawalFee()": "2373",
						"withdrawfees(address)": "infinite"
					},
					"internal": {
						"_permit(address,uint256,uint256,uint8,bytes32,bytes32)": "infinite"
					}
				},
				"methodIdentifiers": {
					"DOMAIN_SEPARATOR()": "3644e515",
					"TotalfeescollectedPaymentCoin()": "c4a9e858",
					"admin()": "f851a440",
					"checkAmountToRecive(uint256)": "0d461e61",
					"claimedPaymentCoin()": "fd918716",
					"depositFee()": "67a52793",
					"eip712Domain()": "84b0196e",
					"emergencyWithdraw(address,address,uint256)": "e63ea408",
					"freezeContract(bool)": "6b4c0789",
					"freezePermit()": "252de51b",
					"initContractBalancePaymentCoin()": "06e0e582",
					"owner()": "8da5cb5b",
					"permitClaimPoints(address,uint256,uint256,uint8,bytes32,bytes32)": "6313c6d8",
					"permitSwapToPaymentCoin(address,uint256,uint256,uint8,bytes32,bytes32)": "f9c3a1e8",
					"pointsMin()": "e1fefd42",
					"rate()": "2c4e722e",
					"renounceOwnership()": "715018a6",
					"setAdmin(address)": "704b6c02",
					"setMinPointsToSWap(uint256)": "c08e7286",
					"setPaymentDepositfees(uint256)": "76ee947f",
					"setRate(uint256)": "34fcf437",
					"setWithdrawalFee(uint256)": "ac1e5025",
					"setpaymentTokenAndpoints(address,address)": "258ba1ee",
					"transferOwnership(address)": "f2fde38b",
					"vaultName()": "0ace9ca0",
					"withdrawalFee()": "8bc7e8c4",
					"withdrawfees(address)": "9683cdc4"
				}
			},
			"storageLayout": {
				"storage": [
					{
						"astId": 8,
						"contract": "src/ribbonVault.sol:vault",
						"label": "_owner",
						"offset": 0,
						"slot": "0",
						"type": "t_address"
					},
					{
						"astId": 1826,
						"contract": "src/ribbonVault.sol:vault",
						"label": "_nameFallback",
						"offset": 0,
						"slot": "1",
						"type": "t_string_storage"
					},
					{
						"astId": 1828,
						"contract": "src/ribbonVault.sol:vault",
						"label": "_versionFallback",
						"offset": 0,
						"slot": "2",
						"type": "t_string_storage"
					},
					{
						"astId": 3301,
						"contract": "src/ribbonVault.sol:vault",
						"label": "_Ipaymentcoin",
						"offset": 0,
						"slot": "3",
						"type": "t_contract(IERC20T)3284"
					},
					{
						"astId": 3304,
						"contract": "src/ribbonVault.sol:vault",
						"label": "_Ipointscoin",
						"offset": 0,
						"slot": "4",
						"type": "t_contract(IERC20T)3284"
					},
					{
						"astId": 3307,
						"contract": "src/ribbonVault.sol:vault",
						"label": "_IpaymentcoinT",
						"offset": 0,
						"slot": "5",
						"type": "t_contract(IERC20)250"
					},
					{
						"astId": 3310,
						"contract": "src/ribbonVault.sol:vault",
						"label": "_IpointscoinT",
						"offset": 0,
						"slot": "6",
						"type": "t_contract(IERC20)250"
					},
					{
						"astId": 3312,
						"contract": "src/ribbonVault.sol:vault",
						"label": "depositFee",
						"offset": 0,
						"slot": "7",
						"type": "t_uint256"
					},
					{
						"astId": 3314,
						"contract": "src/ribbonVault.sol:vault",
						"label": "rate",
						"offset": 0,
						"slot": "8",
						"type": "t_uint256"
					},
					{
						"astId": 3316,
						"contract": "src/ribbonVault.sol:vault",
						"label": "withdrawalFee",
						"offset": 0,
						"slot": "9",
						"type": "t_uint256"
					},
					{
						"astId": 3318,
						"contract": "src/ribbonVault.sol:vault",
						"label": "pointsMin",
						"offset": 0,
						"slot": "10",
						"type": "t_uint256"
					},
					{
						"astId": 3320,
						"contract": "src/ribbonVault.sol:vault",
						"label": "initContractBalancePaymentCoin",
						"offset": 0,
						"slot": "11",
						"type": "t_uint256"
					},
					{
						"astId": 3322,
						"contract": "src/ribbonVault.sol:vault",
						"label": "claimedPaymentCoin",
						"offset": 0,
						"slot": "12",
						"type": "t_uint256"
					},
					{
						"astId": 3324,
						"contract": "src/ribbonVault.sol:vault",
						"label": "TotalfeescollectedPaymentCoin",
						"offset": 0,
						"slot": "13",
						"type": "t_uint256"
					},
					{
						"astId": 3326,
						"contract": "src/ribbonVault.sol:vault",
						"label": "vaultName",
						"offset": 0,
						"slot": "14",
						"type": "t_string_storage"
					},
					{
						"astId": 3328,
						"contract": "src/ribbonVault.sol:vault",
						"label": "admin",
						"offset": 0,
						"slot": "15",
						"type": "t_address"
					},
					{
						"astId": 3330,
						"contract": "src/ribbonVault.sol:vault",
						"label": "freezePermit",
						"offset": 20,
						"slot": "15",
						"type": "t_bool"
					},
					{
						"astId": 3364,
						"contract": "src/ribbonVault.sol:vault",
						"label": "sig_v",
						"offset": 0,
						"slot": "16",
						"type": "t_mapping(t_uint8,t_bool)"
					},
					{
						"astId": 3368,
						"contract": "src/ribbonVault.sol:vault",
						"label": "sig_r",
						"offset": 0,
						"slot": "17",
						"type": "t_mapping(t_bytes32,t_bool)"
					},
					{
						"astId": 3372,
						"contract": "src/ribbonVault.sol:vault",
						"label": "sig_s",
						"offset": 0,
						"slot": "18",
						"type": "t_mapping(t_bytes32,t_bool)"
					}
				],
				"types": {
					"t_address": {
						"encoding": "inplace",
						"label": "address",
						"numberOfBytes": "20"
					},
					"t_bool": {
						"encoding": "inplace",
						"label": "bool",
						"numberOfBytes": "1"
					},
					"t_bytes32": {
						"encoding": "inplace",
						"label": "bytes32",
						"numberOfBytes": "32"
					},
					"t_contract(IERC20)250": {
						"encoding": "inplace",
						"label": "contract IERC20",
						"numberOfBytes": "20"
					},
					"t_contract(IERC20T)3284": {
						"encoding": "inplace",
						"label": "contract IERC20T",
						"numberOfBytes": "20"
					},
					"t_mapping(t_bytes32,t_bool)": {
						"encoding": "mapping",
						"key": "t_bytes32",
						"label": "mapping(bytes32 => bool)",
						"numberOfBytes": "32",
						"value": "t_bool"
					},
					"t_mapping(t_uint8,t_bool)": {
						"encoding": "mapping",
						"key": "t_uint8",
						"label": "mapping(uint8 => bool)",
						"numberOfBytes": "32",
						"value": "t_bool"
					},
					"t_string_storage": {
						"encoding": "bytes",
						"label": "string",
						"numberOfBytes": "32"
					},
					"t_uint256": {
						"encoding": "inplace",
						"label": "uint256",
						"numberOfBytes": "32"
					},
					"t_uint8": {
						"encoding": "inplace",
						"label": "uint8",
						"numberOfBytes": "1"
					}
				}
			},
			"userdoc": {
				"kind": "user",
				"methods": {
					"setMinPointsToSWap(uint256)": {
						"notice": "18 decimal was hardcoded because the points contract is 18 decimal"
					}
				},
				"version": 1
			}
		}
	}
}