{
	"src/ribbonVault1.sol": {
		"vault": {
			"abi": [
				{
					"inputs": [
						{
							"internalType": "address",
							"name": "owner",
							"type": "address"
						},
						{
							"internalType": "string",
							"name": "name",
							"type": "string"
						},
						{
							"internalType": "address",
							"name": "paymentAddress",
							"type": "address"
						}
					],
					"stateMutability": "nonpayable",
					"type": "constructor"
				},
				{
					"inputs": [
						{
							"internalType": "address",
							"name": "target",
							"type": "address"
						}
					],
					"name": "AddressEmptyCode",
					"type": "error"
				},
				{
					"inputs": [
						{
							"internalType": "address",
							"name": "account",
							"type": "address"
						}
					],
					"name": "AddressInsufficientBalance",
					"type": "error"
				},
				{
					"inputs": [],
					"name": "ECDSAInvalidSignature",
					"type": "error"
				},
				{
					"inputs": [
						{
							"internalType": "uint256",
							"name": "length",
							"type": "uint256"
						}
					],
					"name": "ECDSAInvalidSignatureLength",
					"type": "error"
				},
				{
					"inputs": [
						{
							"internalType": "bytes32",
							"name": "s",
							"type": "bytes32"
						}
					],
					"name": "ECDSAInvalidSignatureS",
					"type": "error"
				},
				{
					"inputs": [
						{
							"internalType": "uint256",
							"name": "deadline",
							"type": "uint256"
						}
					],
					"name": "ERC2612ExpiredSignature",
					"type": "error"
				},
				{
					"inputs": [
						{
							"internalType": "address",
							"name": "signer",
							"type": "address"
						},
						{
							"internalType": "address",
							"name": "owner",
							"type": "address"
						}
					],
					"name": "ERC2612InvalidSigner",
					"type": "error"
				},
				{
					"inputs": [],
					"name": "FailedInnerCall",
					"type": "error"
				},
				{
					"inputs": [],
					"name": "InvalidShortString",
					"type": "error"
				},
				{
					"inputs": [
						{
							"internalType": "address",
							"name": "owner",
							"type": "address"
						}
					],
					"name": "OwnableInvalidOwner",
					"type": "error"
				},
				{
					"inputs": [
						{
							"internalType": "address",
							"name": "account",
							"type": "address"
						}
					],
					"name": "OwnableUnauthorizedAccount",
					"type": "error"
				},
				{
					"inputs": [
						{
							"internalType": "address",
							"name": "token",
							"type": "address"
						}
					],
					"name": "SafeERC20FailedOperation",
					"type": "error"
				},
				{
					"inputs": [
						{
							"internalType": "string",
							"name": "str",
							"type": "string"
						}
					],
					"name": "StringTooLong",
					"type": "error"
				},
				{
					"anonymous": false,
					"inputs": [],
					"name": "EIP712DomainChanged",
					"type": "event"
				},
				{
					"anonymous": false,
					"inputs": [
						{
							"indexed": true,
							"internalType": "address",
							"name": "previousOwner",
							"type": "address"
						},
						{
							"indexed": true,
							"internalType": "address",
							"name": "newOwner",
							"type": "address"
						}
					],
					"name": "OwnershipTransferred",
					"type": "event"
				},
				{
					"anonymous": false,
					"inputs": [
						{
							"indexed": true,
							"internalType": "address",
							"name": "user",
							"type": "address"
						},
						{
							"indexed": true,
							"internalType": "uint256",
							"name": "timestamp",
							"type": "uint256"
						},
						{
							"indexed": false,
							"internalType": "uint256",
							"name": "amount",
							"type": "uint256"
						}
					],
					"name": "PointsClaimed",
					"type": "event"
				},
				{
					"anonymous": false,
					"inputs": [
						{
							"indexed": true,
							"internalType": "address",
							"name": "user",
							"type": "address"
						},
						{
							"indexed": true,
							"internalType": "uint256",
							"name": "timestamp",
							"type": "uint256"
						},
						{
							"indexed": false,
							"internalType": "uint256",
							"name": "pointToSwap",
							"type": "uint256"
						},
						{
							"indexed": false,
							"internalType": "uint256",
							"name": "paymentTokenRecieved",
							"type": "uint256"
						},
						{
							"indexed": false,
							"internalType": "uint256",
							"name": "_fees",
							"type": "uint256"
						}
					],
					"name": "swap",
					"type": "event"
				},
				{
					"inputs": [],
					"name": "DOMAIN_SEPARATOR",
					"outputs": [
						{
							"internalType": "bytes32",
							"name": "",
							"type": "bytes32"
						}
					],
					"stateMutability": "view",
					"type": "function"
				},
				{
					"inputs": [],
					"name": "TotalfeescollectedPaymentCoin",
					"outputs": [
						{
							"internalType": "uint256",
							"name": "",
							"type": "uint256"
						}
					],
					"stateMutability": "view",
					"type": "function"
				},
				{
					"inputs": [],
					"name": "admin",
					"outputs": [
						{
							"internalType": "address",
							"name": "",
							"type": "address"
						}
					],
					"stateMutability": "view",
					"type": "function"
				},
				{
					"inputs": [
						{
							"internalType": "uint256",
							"name": "pointToSwap",
							"type": "uint256"
						}
					],
					"name": "checkAmountToRecive",
					"outputs": [
						{
							"internalType": "uint256",
							"name": "",
							"type": "uint256"
						}
					],
					"stateMutability": "view",
					"type": "function"
				},
				{
					"inputs": [],
					"name": "claimedPaymentCoin",
					"outputs": [
						{
							"internalType": "uint256",
							"name": "",
							"type": "uint256"
						}
					],
					"stateMutability": "view",
					"type": "function"
				},
				{
					"inputs": [],
					"name": "depositFee",
					"outputs": [
						{
							"internalType": "uint256",
							"name": "",
							"type": "uint256"
						}
					],
					"stateMutability": "view",
					"type": "function"
				},
				{
					"inputs": [],
					"name": "eip712Domain",
					"outputs": [
						{
							"internalType": "bytes1",
							"name": "fields",
							"type": "bytes1"
						},
						{
							"internalType": "string",
							"name": "name",
							"type": "string"
						},
						{
							"internalType": "string",
							"name": "version",
							"type": "string"
						},
						{
							"internalType": "uint256",
							"name": "chainId",
							"type": "uint256"
						},
						{
							"internalType": "address",
							"name": "verifyingContract",
							"type": "address"
						},
						{
							"internalType": "bytes32",
							"name": "salt",
							"type": "bytes32"
						},
						{
							"internalType": "uint256[]",
							"name": "extensions",
							"type": "uint256[]"
						}
					],
					"stateMutability": "view",
					"type": "function"
				},
				{
					"inputs": [
						{
							"internalType": "address",
							"name": "_tokenAddress",
							"type": "address"
						},
						{
							"internalType": "address",
							"name": "_to",
							"type": "address"
						},
						{
							"internalType": "uint256",
							"name": "_amount",
							"type": "uint256"
						}
					],
					"name": "emergencyWithdraw",
					"outputs": [],
					"stateMutability": "nonpayable",
					"type": "function"
				},
				{
					"inputs": [
						{
							"internalType": "bool",
							"name": "_freeze",
							"type": "bool"
						}
					],
					"name": "freezeContract",
					"outputs": [],
					"stateMutability": "nonpayable",
					"type": "function"
				},
				{
					"inputs": [],
					"name": "freezePermit",
					"outputs": [
						{
							"internalType": "bool",
							"name": "",
							"type": "bool"
						}
					],
					"stateMutability": "view",
					"type": "function"
				},
				{
					"inputs": [],
					"name": "initContractBalancePaymentCoin",
					"outputs": [
						{
							"internalType": "uint256",
							"name": "",
							"type": "uint256"
						}
					],
					"stateMutability": "view",
					"type": "function"
				},
				{
					"inputs": [],
					"name": "owner",
					"outputs": [
						{
							"internalType": "address",
							"name": "",
							"type": "address"
						}
					],
					"stateMutability": "view",
					"type": "function"
				},
				{
					"inputs": [
						{
							"internalType": "address",
							"name": "user",
							"type": "address"
						},
						{
							"internalType": "uint256",
							"name": "pointToSwap",
							"type": "uint256"
						},
						{
							"internalType": "uint256",
							"name": "deadline",
							"type": "uint256"
						},
						{
							"internalType": "uint8",
							"name": "v",
							"type": "uint8"
						},
						{
							"internalType": "bytes32",
							"name": "r",
							"type": "bytes32"
						},
						{
							"internalType": "bytes32",
							"name": "s",
							"type": "bytes32"
						}
					],
					"name": "permitSwapToPaymentCoin",
					"outputs": [],
					"stateMutability": "nonpayable",
					"type": "function"
				},
				{
					"inputs": [],
					"name": "pointsMin",
					"outputs": [
						{
							"internalType": "uint256",
							"name": "",
							"type": "uint256"
						}
					],
					"stateMutability": "view",
					"type": "function"
				},
				{
					"inputs": [],
					"name": "rate",
					"outputs": [
						{
							"internalType": "uint256",
							"name": "",
							"type": "uint256"
						}
					],
					"stateMutability": "view",
					"type": "function"
				},
				{
					"inputs": [],
					"name": "renounceOwnership",
					"outputs": [],
					"stateMutability": "nonpayable",
					"type": "function"
				},
				{
					"inputs": [
						{
							"internalType": "address",
							"name": "_admin",
							"type": "address"
						}
					],
					"name": "setAdmin",
					"outputs": [],
					"stateMutability": "nonpayable",
					"type": "function"
				},
				{
					"inputs": [
						{
							"internalType": "uint256",
							"name": "_pointsMin",
							"type": "uint256"
						}
					],
					"name": "setMinPointsToSWap",
					"outputs": [],
					"stateMutability": "nonpayable",
					"type": "function"
				},
				{
					"inputs": [
						{
							"internalType": "uint256",
							"name": "_fee",
							"type": "uint256"
						}
					],
					"name": "setPaymentDepositfees",
					"outputs": [],
					"stateMutability": "nonpayable",
					"type": "function"
				},
				{
					"inputs": [
						{
							"internalType": "uint256",
							"name": "_rate",
							"type": "uint256"
						}
					],
					"name": "setRate",
					"outputs": [],
					"stateMutability": "nonpayable",
					"type": "function"
				},
				{
					"inputs": [
						{
							"internalType": "uint256",
							"name": "_fee",
							"type": "uint256"
						}
					],
					"name": "setWithdrawalFee",
					"outputs": [],
					"stateMutability": "nonpayable",
					"type": "function"
				},
				{
					"inputs": [
						{
							"internalType": "address",
							"name": "paymentAddress",
							"type": "address"
						}
					],
					"name": "setpaymentTokenAndpoints",
					"outputs": [],
					"stateMutability": "nonpayable",
					"type": "function"
				},
				{
					"inputs": [
						{
							"internalType": "address",
							"name": "newOwner",
							"type": "address"
						}
					],
					"name": "transferOwnership",
					"outputs": [],
					"stateMutability": "nonpayable",
					"type": "function"
				},
				{
					"inputs": [],
					"name": "vaultName",
					"outputs": [
						{
							"internalType": "string",
							"name": "",
							"type": "string"
						}
					],
					"stateMutability": "view",
					"type": "function"
				},
				{
					"inputs": [],
					"name": "withdrawalFee",
					"outputs": [
						{
							"internalType": "uint256",
							"name": "",
							"type": "uint256"
						}
					],
					"stateMutability": "view",
					"type": "function"
				},
				{
					"inputs": [
						{
							"internalType": "address",
							"name": "feeTakerAddress",
							"type": "address"
						}
					],
					"name": "withdrawfees",
					"outputs": [],
					"stateMutability": "nonpayable",
					"type": "function"
				}
			],
			"devdoc": {
				"errors": {
					"AddressEmptyCode(address)": [
						{
							"details": "There's no code at `target` (it is not a contract)."
						}
					],
					"AddressInsufficientBalance(address)": [
						{
							"details": "The ETH balance of the account is not enough to perform the operation."
						}
					],
					"ECDSAInvalidSignature()": [
						{
							"details": "The signature derives the `address(0)`."
						}
					],
					"ECDSAInvalidSignatureLength(uint256)": [
						{
							"details": "The signature has an invalid length."
						}
					],
					"ECDSAInvalidSignatureS(bytes32)": [
						{
							"details": "The signature has an S value that is in the upper half order."
						}
					],
					"FailedInnerCall()": [
						{
							"details": "A call to an address target failed. The target may have reverted."
						}
					],
					"OwnableInvalidOwner(address)": [
						{
							"details": "The owner is not a valid owner account. (eg. `address(0)`)"
						}
					],
					"OwnableUnauthorizedAccount(address)": [
						{
							"details": "The caller account is not authorized to perform an operation."
						}
					],
					"SafeERC20FailedOperation(address)": [
						{
							"details": "An operation with an ERC20 token failed."
						}
					]
				},
				"events": {
					"EIP712DomainChanged()": {
						"details": "MAY be emitted to signal that the domain could have changed."
					}
				},
				"kind": "dev",
				"methods": {
					"checkAmountToRecive(uint256)": {
						"details": "used to calcultae amount of the worldcoin token or other payment token to recieve at a specific rate specified"
					},
					"constructor": {
						"params": {
							"paymentAddress": "the contract address that the points would be swaped into"
						}
					},
					"eip712Domain()": {
						"details": "See {IERC-5267}."
					},
					"emergencyWithdraw(address,address,uint256)": {
						"details": "this is used to withdraw any asset stuck in the contract by mistake by only the admin"
					},
					"freezeContract(bool)": {
						"details": "used to stop the permit functions to claim point and and swap points to worldcoin token or other payment coin "
					},
					"owner()": {
						"details": "Returns the address of the current owner."
					},
					"permitSwapToPaymentCoin(address,uint256,uint256,uint8,bytes32,bytes32)": {
						"details": "admin signs a user ,amount ,deadline  ofchain and pass the signature  to the user to swap points to worldcoin or payment coin ,but this is done automatically "
					},
					"renounceOwnership()": {
						"details": "Leaves the contract without owner. It will not be possible to call `onlyOwner` functions. Can only be called by the current owner. NOTE: Renouncing ownership will leave the contract without an owner, thereby disabling any functionality that is only available to the owner."
					},
					"setAdmin(address)": {
						"details": "update padmin address"
					},
					"setMinPointsToSWap(uint256)": {
						"details": "set minimum points to swap without decimal"
					},
					"setPaymentDepositfees(uint256)": {
						"details": "set depositFee  without decimal "
					},
					"setRate(uint256)": {
						"details": "set _rate  without decimal "
					},
					"setWithdrawalFee(uint256)": {
						"details": "set withdrawalFee  without decimal "
					},
					"setpaymentTokenAndpoints(address)": {
						"details": "update points contract address and worldcoin token or other payment contract address"
					},
					"transferOwnership(address)": {
						"details": "Transfers ownership of the contract to a new account (`newOwner`). Can only be called by the current owner."
					},
					"withdrawfees(address)": {
						"details": "used withdraw fees when a new deposit is address into the contract the computation allows fees to be deducted when new deposit is added  when no new deposit is added and this function is called it will revert"
					}
				},
				"title": "RibbonVault",
				"version": 1
			},
			"evm": {
				"assembly": "    /* \"src/ribbonVault1.sol\":650:8548  contract  vault is Ownable,EIP712 {... */\n  mstore(0x40, 0x0160)\n    /* \"src/ribbonVault1.sol\":2408:2713  constructor(address owner,string memory name,address paymentAddress)Ownable(owner)EIP712(name, \"1\"){... */\n  callvalue\n  dup1\n  iszero\n  tag_1\n  jumpi\n  0x00\n  dup1\n  revert\ntag_1:\n  pop\n  mload(0x40)\n  sub(codesize, bytecodeSize)\n  dup1\n  bytecodeSize\n  dup4\n  codecopy\n  dup2\n  add\n  0x40\n  dup2\n  swap1\n  mstore\n  tag_2\n  swap2\n  tag_3\n  jump\t// in\ntag_2:\n    /* \"@openzeppelin/contracts/utils/cryptography/EIP712.sol\":3328:3759  constructor(string memory name, string memory version) {... */\n  0x40\n  dup1\n  mload\n  dup1\n  dup3\n  add\n  swap1\n  swap2\n  mstore\n  0x01\n  dup2\n  mstore\n  shl(0xf8, 0x31)\n  0x20\n  dup3\n  add\n  mstore\n    /* \"src/ribbonVault1.sol\":2497:2501  name */\n  dup3\n  swap1\n    /* \"src/ribbonVault1.sol\":2484:2489  owner */\n  dup5\n  sub(shl(0xa0, 0x01), 0x01)\n    /* \"@openzeppelin/contracts/access/Ownable.sol\":1273:1299  initialOwner == address(0) */\n  dup2\n  and\n    /* \"@openzeppelin/contracts/access/Ownable.sol\":1269:1364  if (initialOwner == address(0)) {... */\n  tag_8\n  jumpi\n    /* \"@openzeppelin/contracts/access/Ownable.sol\":1322:1353  OwnableInvalidOwner(address(0)) */\n  mload(0x40)\n  shl(0xe0, 0x1e4fbdf7)\n  dup2\n  mstore\n    /* \"@openzeppelin/contracts/access/Ownable.sol\":1350:1351  0 */\n  0x00\n    /* \"@openzeppelin/contracts/access/Ownable.sol\":1322:1353  OwnableInvalidOwner(address(0)) */\n  0x04\n  dup3\n  add\n    /* \"#utility.yul\":1801:1852   */\n  mstore\n    /* \"#utility.yul\":1774:1792   */\n  0x24\n  add\n    /* \"@openzeppelin/contracts/access/Ownable.sol\":1322:1353  OwnableInvalidOwner(address(0)) */\ntag_9:\n  mload(0x40)\n  dup1\n  swap2\n  sub\n  swap1\n  revert\n    /* \"@openzeppelin/contracts/access/Ownable.sol\":1269:1364  if (initialOwner == address(0)) {... */\ntag_8:\n    /* \"@openzeppelin/contracts/access/Ownable.sol\":1373:1405  _transferOwnership(initialOwner) */\n  tag_11\n    /* \"@openzeppelin/contracts/access/Ownable.sol\":1392:1404  initialOwner */\n  dup2\n    /* \"@openzeppelin/contracts/access/Ownable.sol\":1373:1391  _transferOwnership */\n  tag_12\n    /* \"@openzeppelin/contracts/access/Ownable.sol\":1373:1405  _transferOwnership(initialOwner) */\n  jump\t// in\ntag_11:\n  pop\n    /* \"@openzeppelin/contracts/utils/cryptography/EIP712.sol\":3401:3446  name.toShortStringWithFallback(_nameFallback) */\n  tag_14\n    /* \"@openzeppelin/contracts/utils/cryptography/EIP712.sol\":3401:3405  name */\n  dup3\n    /* \"@openzeppelin/contracts/utils/cryptography/EIP712.sol\":3432:3445  _nameFallback */\n  0x01\n    /* \"@openzeppelin/contracts/utils/cryptography/EIP712.sol\":3401:3431  name.toShortStringWithFallback */\n  tag_15\n    /* \"@openzeppelin/contracts/utils/cryptography/EIP712.sol\":3401:3446  name.toShortStringWithFallback(_nameFallback) */\n  jump\t// in\ntag_14:\n    /* \"@openzeppelin/contracts/utils/cryptography/EIP712.sol\":3393:3446  _name = name.toShortStringWithFallback(_nameFallback) */\n  0x0120\n  mstore\n    /* \"@openzeppelin/contracts/utils/cryptography/EIP712.sol\":3467:3518  version.toShortStringWithFallback(_versionFallback) */\n  tag_16\n    /* \"@openzeppelin/contracts/utils/cryptography/EIP712.sol\":3467:3474  version */\n  dup2\n    /* \"@openzeppelin/contracts/utils/cryptography/EIP712.sol\":3501:3517  _versionFallback */\n  0x02\n    /* \"@openzeppelin/contracts/utils/cryptography/EIP712.sol\":3467:3500  version.toShortStringWithFallback */\n  tag_15\n    /* \"@openzeppelin/contracts/utils/cryptography/EIP712.sol\":3467:3518  version.toShortStringWithFallback(_versionFallback) */\n  jump\t// in\ntag_16:\n    /* \"@openzeppelin/contracts/utils/cryptography/EIP712.sol\":3456:3518  _version = version.toShortStringWithFallback(_versionFallback) */\n  0x0140\n  mstore\n    /* \"@openzeppelin/contracts/utils/cryptography/EIP712.sol\":3542:3564  keccak256(bytes(name)) */\n  dup2\n  mload\n  0x20\n  dup1\n  dup5\n  add\n  swap2\n  swap1\n  swap2\n  keccak256\n    /* \"@openzeppelin/contracts/utils/cryptography/EIP712.sol\":3528:3564  _hashedName = keccak256(bytes(name)) */\n  0xe0\n  mstore\n    /* \"@openzeppelin/contracts/utils/cryptography/EIP712.sol\":3591:3616  keccak256(bytes(version)) */\n  dup2\n  mload\n  swap1\n  dup3\n  add\n  keccak256\n    /* \"@openzeppelin/contracts/utils/cryptography/EIP712.sol\":3574:3616  _hashedVersion = keccak256(bytes(version)) */\n  0x0100\n  mstore\n    /* \"@openzeppelin/contracts/utils/cryptography/EIP712.sol\":3644:3657  block.chainid */\n  chainid\n    /* \"@openzeppelin/contracts/utils/cryptography/EIP712.sol\":3627:3657  _cachedChainId = block.chainid */\n  0xa0\n  mstore\n    /* \"@openzeppelin/contracts/utils/cryptography/EIP712.sol\":3692:3715  _buildDomainSeparator() */\n  tag_17\n    /* \"@openzeppelin/contracts/utils/cryptography/EIP712.sol\":4226:4237  _hashedName */\n  mload(0xe0)\n    /* \"@openzeppelin/contracts/utils/cryptography/EIP712.sol\":4239:4253  _hashedVersion */\n  mload(0x0100)\n    /* \"@openzeppelin/contracts/utils/cryptography/EIP712.sol\":4204:4284  abi.encode(TYPE_HASH, _hashedName, _hashedVersion, block.chainid, address(this)) */\n  0x40\n  dup1\n  mload\n    /* \"@openzeppelin/contracts/utils/cryptography/EIP712.sol\":2079:2174  keccak256(\"EIP712Domain(string name,string version,uint256 chainId,address verifyingContract)\") */\n  0x8b73c3c69bb8fe3d512ecc4cf759cc79239f7b179b0ffacaa9a75d522b39400f\n    /* \"@openzeppelin/contracts/utils/cryptography/EIP712.sol\":4204:4284  abi.encode(TYPE_HASH, _hashedName, _hashedVersion, block.chainid, address(this)) */\n  0x20\n  dup3\n  add\n    /* \"#utility.yul\":4677:4702   */\n  mstore\n    /* \"#utility.yul\":4718:4736   */\n  swap1\n  dup2\n  add\n    /* \"#utility.yul\":4711:4745   */\n  swap3\n  swap1\n  swap3\n  mstore\n    /* \"#utility.yul\":4761:4779   */\n  0x60\n  dup3\n  add\n    /* \"#utility.yul\":4754:4788   */\n  mstore\n    /* \"@openzeppelin/contracts/utils/cryptography/EIP712.sol\":4255:4268  block.chainid */\n  chainid\n    /* \"#utility.yul\":4804:4822   */\n  0x80\n  dup3\n  add\n    /* \"#utility.yul\":4797:4831   */\n  mstore\n    /* \"@openzeppelin/contracts/utils/cryptography/EIP712.sol\":4278:4282  this */\n  address\n    /* \"#utility.yul\":4847:4866   */\n  0xa0\n  dup3\n  add\n    /* \"#utility.yul\":4840:4901   */\n  mstore\n    /* \"@openzeppelin/contracts/utils/cryptography/EIP712.sol\":4168:4175  bytes32 */\n  0x00\n  swap1\n    /* \"#utility.yul\":4649:4668   */\n  0xc0\n  add\n    /* \"@openzeppelin/contracts/utils/cryptography/EIP712.sol\":4204:4284  abi.encode(TYPE_HASH, _hashedName, _hashedVersion, block.chainid, address(this)) */\n  mload(0x40)\n  0x20\n  dup2\n  dup4\n  sub\n  sub\n  dup2\n  mstore\n  swap1\n  0x40\n  mstore\n    /* \"@openzeppelin/contracts/utils/cryptography/EIP712.sol\":4194:4285  keccak256(abi.encode(TYPE_HASH, _hashedName, _hashedVersion, block.chainid, address(this))) */\n  dup1\n  mload\n  swap1\n  0x20\n  add\n  keccak256\n    /* \"@openzeppelin/contracts/utils/cryptography/EIP712.sol\":4187:4285  return keccak256(abi.encode(TYPE_HASH, _hashedName, _hashedVersion, block.chainid, address(this))) */\n  swap1\n  pop\n    /* \"@openzeppelin/contracts/utils/cryptography/EIP712.sol\":4113:4292  function _buildDomainSeparator() private view returns (bytes32) {... */\n  swap1\n  jump\n    /* \"@openzeppelin/contracts/utils/cryptography/EIP712.sol\":3692:3715  _buildDomainSeparator() */\ntag_17:\n    /* \"@openzeppelin/contracts/utils/cryptography/EIP712.sol\":3667:3715  _cachedDomainSeparator = _buildDomainSeparator() */\n  0x80\n  mstore\n  pop\n  pop\n    /* \"@openzeppelin/contracts/utils/cryptography/EIP712.sol\":3747:3751  this */\n  address\n    /* \"@openzeppelin/contracts/utils/cryptography/EIP712.sol\":3725:3752  _cachedThis = address(this) */\n  0xc0\n  mstore\n    /* \"src/ribbonVault1.sol\":2518:2527  vaultName */\n  0x0c\n    /* \"src/ribbonVault1.sol\":2518:2532  vaultName=name */\n  tag_20\n    /* \"src/ribbonVault1.sol\":2528:2532  name */\n  dup4\n    /* \"src/ribbonVault1.sol\":2518:2527  vaultName */\n  dup3\n    /* \"src/ribbonVault1.sol\":2518:2532  vaultName=name */\n  tag_21\n  jump\t// in\ntag_20:\n  pop\n    /* \"src/ribbonVault1.sol\":2555:2557  10 */\n  0x0a\n    /* \"src/ribbonVault1.sol\":2543:2553  depositFee */\n  0x05\n    /* \"src/ribbonVault1.sol\":2543:2557  depositFee =10 */\n  sstore\n    /* \"src/ribbonVault1.sol\":2575:2579  5000 */\n  0x1388\n    /* \"src/ribbonVault1.sol\":2568:2572  rate */\n  0x06\n    /* \"src/ribbonVault1.sol\":2568:2579  rate = 5000 */\n  sstore\n    /* \"src/ribbonVault1.sol\":2590:2603  _Ipaymentcoin */\n  0x03\n    /* \"src/ribbonVault1.sol\":2590:2629  _Ipaymentcoin = IERC20T(paymentAddress) */\n  dup1\n  sload\n  sub(shl(0xa0, 0x01), 0x01)\n  swap3\n  dup4\n  and\n  not(sub(shl(0xa0, 0x01), 0x01))\n  swap2\n  dup3\n  and\n  dup2\n  or\n  swap1\n  swap3\n  sstore\n    /* \"src/ribbonVault1.sol\":2640:2654  _IpaymentcoinT */\n  0x04\n    /* \"src/ribbonVault1.sol\":2640:2679  _IpaymentcoinT = IERC20(paymentAddress) */\n  dup1\n  sload\n  dup3\n  and\n  swap1\n  swap3\n  or\n  swap1\n  swap2\n  sstore\n    /* \"src/ribbonVault1.sol\":2690:2695  admin */\n  0x0d\n    /* \"src/ribbonVault1.sol\":2690:2703  admin = owner */\n  dup1\n  sload\n  swap5\n  swap1\n  swap3\n  and\n  swap4\n  and\n  swap3\n  swap1\n  swap3\n  or\n  swap1\n  swap2\n  sstore\n  pop\n    /* \"src/ribbonVault1.sol\":650:8548  contract  vault is Ownable,EIP712 {... */\n  jump(tag_49)\n    /* \"@openzeppelin/contracts/access/Ownable.sol\":2912:3099  function _transferOwnership(address newOwner) internal virtual {... */\ntag_12:\n    /* \"@openzeppelin/contracts/access/Ownable.sol\":2985:3001  address oldOwner */\n  0x00\n    /* \"@openzeppelin/contracts/access/Ownable.sol\":3004:3010  _owner */\n  dup1\n  sload\n  sub(shl(0xa0, 0x01), 0x01)\n    /* \"@openzeppelin/contracts/access/Ownable.sol\":3020:3037  _owner = newOwner */\n  dup4\n  dup2\n  and\n  not(sub(shl(0xa0, 0x01), 0x01))\n  dup4\n  and\n  dup2\n  or\n  dup5\n  sstore\n    /* \"@openzeppelin/contracts/access/Ownable.sol\":3052:3092  OwnershipTransferred(oldOwner, newOwner) */\n  mload(0x40)\n    /* \"@openzeppelin/contracts/access/Ownable.sol\":3004:3010  _owner */\n  swap2\n  swap1\n  swap3\n  and\n  swap3\n  dup4\n  swap2\n    /* \"@openzeppelin/contracts/access/Ownable.sol\":3052:3092  OwnershipTransferred(oldOwner, newOwner) */\n  0x8be0079c531659141344cd1fd0a4f28419497f9722a3daafe3b4186f6b6457e0\n  swap2\n    /* \"@openzeppelin/contracts/access/Ownable.sol\":2985:3001  address oldOwner */\n  swap1\n    /* \"@openzeppelin/contracts/access/Ownable.sol\":3052:3092  OwnershipTransferred(oldOwner, newOwner) */\n  log3\n    /* \"@openzeppelin/contracts/access/Ownable.sol\":2975:3099  {... */\n  pop\n    /* \"@openzeppelin/contracts/access/Ownable.sol\":2912:3099  function _transferOwnership(address newOwner) internal virtual {... */\n  pop\n  jump\t// out\n    /* \"@openzeppelin/contracts/utils/ShortStrings.sol\":2914:3254  function toShortStringWithFallback(string memory value, string storage store) internal returns (ShortString) {... */\ntag_15:\n    /* \"@openzeppelin/contracts/utils/ShortStrings.sol\":3010:3021  ShortString */\n  0x00\n    /* \"@openzeppelin/contracts/utils/ShortStrings.sol\":3059:3061  32 */\n  0x20\n    /* \"@openzeppelin/contracts/utils/ShortStrings.sol\":3043:3048  value */\n  dup4\n    /* \"@openzeppelin/contracts/utils/ShortStrings.sol\":3037:3056  bytes(value).length */\n  mload\n    /* \"@openzeppelin/contracts/utils/ShortStrings.sol\":3037:3061  bytes(value).length < 32 */\n  lt\n    /* \"@openzeppelin/contracts/utils/ShortStrings.sol\":3033:3248  if (bytes(value).length < 32) {... */\n  iszero\n  tag_25\n  jumpi\n    /* \"@openzeppelin/contracts/utils/ShortStrings.sol\":3084:3104  toShortString(value) */\n  tag_26\n    /* \"@openzeppelin/contracts/utils/ShortStrings.sol\":3098:3103  value */\n  dup4\n    /* \"@openzeppelin/contracts/utils/ShortStrings.sol\":3084:3097  toShortString */\n  tag_27\n    /* \"@openzeppelin/contracts/utils/ShortStrings.sol\":3084:3104  toShortString(value) */\n  jump\t// in\ntag_26:\n    /* \"@openzeppelin/contracts/utils/ShortStrings.sol\":3077:3104  return toShortString(value) */\n  swap1\n  pop\n  jump(tag_28)\n    /* \"@openzeppelin/contracts/utils/ShortStrings.sol\":3033:3248  if (bytes(value).length < 32) {... */\ntag_25:\n    /* \"@openzeppelin/contracts/utils/ShortStrings.sol\":3161:3166  store */\n  dup2\n    /* \"@openzeppelin/contracts/utils/ShortStrings.sol\":3135:3181  StorageSlot.getStringSlot(store).value = value */\n  tag_31\n    /* \"@openzeppelin/contracts/utils/ShortStrings.sol\":3176:3181  value */\n  dup5\n    /* \"@openzeppelin/contracts/utils/ShortStrings.sol\":3161:3166  store */\n  dup3\n    /* \"@openzeppelin/contracts/utils/ShortStrings.sol\":3135:3181  StorageSlot.getStringSlot(store).value = value */\n  tag_21\n  jump\t// in\ntag_31:\n  pop\n    /* \"@openzeppelin/contracts/utils/ShortStrings.sol\":1390:1456  0x00000000000000000000000000000000000000000000000000000000000000FF */\n  0xff\n  swap1\n  pop\n    /* \"@openzeppelin/contracts/utils/ShortStrings.sol\":3033:3248  if (bytes(value).length < 32) {... */\ntag_28:\n    /* \"@openzeppelin/contracts/utils/ShortStrings.sol\":2914:3254  function toShortStringWithFallback(string memory value, string storage store) internal returns (ShortString) {... */\n  swap3\n  swap2\n  pop\n  pop\n  jump\t// out\n    /* \"@openzeppelin/contracts/utils/ShortStrings.sol\":1708:1994  function toShortString(string memory str) internal pure returns (ShortString) {... */\ntag_27:\n    /* \"@openzeppelin/contracts/utils/ShortStrings.sol\":1773:1784  ShortString */\n  0x00\n    /* \"@openzeppelin/contracts/utils/ShortStrings.sol\":1796:1813  bytes memory bstr */\n  dup1\n    /* \"@openzeppelin/contracts/utils/ShortStrings.sol\":1822:1825  str */\n  dup3\n    /* \"@openzeppelin/contracts/utils/ShortStrings.sol\":1796:1826  bytes memory bstr = bytes(str) */\n  swap1\n  pop\n    /* \"@openzeppelin/contracts/utils/ShortStrings.sol\":1854:1856  31 */\n  0x1f\n    /* \"@openzeppelin/contracts/utils/ShortStrings.sol\":1840:1844  bstr */\n  dup2\n    /* \"@openzeppelin/contracts/utils/ShortStrings.sol\":1840:1851  bstr.length */\n  mload\n    /* \"@openzeppelin/contracts/utils/ShortStrings.sol\":1840:1856  bstr.length > 31 */\n  gt\n    /* \"@openzeppelin/contracts/utils/ShortStrings.sol\":1836:1908  if (bstr.length > 31) {... */\n  iszero\n  tag_36\n  jumpi\n    /* \"@openzeppelin/contracts/utils/ShortStrings.sol\":1893:1896  str */\n  dup3\n    /* \"@openzeppelin/contracts/utils/ShortStrings.sol\":1879:1897  StringTooLong(str) */\n  mload(0x40)\n  shl(0xe0, 0x305a27a9)\n  dup2\n  mstore\n  0x04\n  add\n  tag_9\n  swap2\n  swap1\n  tag_38\n  jump\t// in\n    /* \"@openzeppelin/contracts/utils/ShortStrings.sol\":1836:1908  if (bstr.length > 31) {... */\ntag_36:\n    /* \"@openzeppelin/contracts/utils/ShortStrings.sol\":1974:1985  bstr.length */\n  dup1\n  mload\n    /* \"@openzeppelin/contracts/utils/ShortStrings.sol\":1957:1970  bytes32(bstr) */\n  tag_39\n    /* \"@openzeppelin/contracts/utils/ShortStrings.sol\":1974:1978  bstr */\n  dup3\n    /* \"@openzeppelin/contracts/utils/ShortStrings.sol\":1957:1970  bytes32(bstr) */\n  tag_40\n  jump\t// in\ntag_39:\n    /* \"@openzeppelin/contracts/utils/ShortStrings.sol\":1949:1985  uint256(bytes32(bstr)) | bstr.length */\n  or\n  swap4\n    /* \"@openzeppelin/contracts/utils/ShortStrings.sol\":1708:1994  function toShortString(string memory str) internal pure returns (ShortString) {... */\n  swap3\n  pop\n  pop\n  pop\n  jump\t// out\n    /* \"#utility.yul\":14:191   */\ntag_42:\n    /* \"#utility.yul\":93:106   */\n  dup1\n  mload\n  sub(shl(0xa0, 0x01), 0x01)\n    /* \"#utility.yul\":135:166   */\n  dup2\n  and\n    /* \"#utility.yul\":125:167   */\n  dup2\n  eq\n    /* \"#utility.yul\":115:185   */\n  tag_51\n  jumpi\n    /* \"#utility.yul\":181:182   */\n  0x00\n    /* \"#utility.yul\":178:179   */\n  dup1\n    /* \"#utility.yul\":171:183   */\n  revert\n    /* \"#utility.yul\":115:185   */\ntag_51:\n    /* \"#utility.yul\":14:191   */\n  swap2\n  swap1\n  pop\n  jump\t// out\n    /* \"#utility.yul\":196:323   */\ntag_43:\n    /* \"#utility.yul\":257:267   */\n  0x4e487b71\n    /* \"#utility.yul\":252:255   */\n  0xe0\n    /* \"#utility.yul\":248:268   */\n  shl\n    /* \"#utility.yul\":245:246   */\n  0x00\n    /* \"#utility.yul\":238:269   */\n  mstore\n    /* \"#utility.yul\":288:292   */\n  0x41\n    /* \"#utility.yul\":285:286   */\n  0x04\n    /* \"#utility.yul\":278:293   */\n  mstore\n    /* \"#utility.yul\":312:316   */\n  0x24\n    /* \"#utility.yul\":309:310   */\n  0x00\n    /* \"#utility.yul\":302:317   */\n  revert\n    /* \"#utility.yul\":328:578   */\ntag_44:\n    /* \"#utility.yul\":413:414   */\n  0x00\n    /* \"#utility.yul\":423:536   */\ntag_54:\n    /* \"#utility.yul\":437:443   */\n  dup4\n    /* \"#utility.yul\":434:435   */\n  dup2\n    /* \"#utility.yul\":431:444   */\n  lt\n    /* \"#utility.yul\":423:536   */\n  iszero\n  tag_56\n  jumpi\n    /* \"#utility.yul\":513:524   */\n  dup2\n  dup2\n  add\n    /* \"#utility.yul\":507:525   */\n  mload\n    /* \"#utility.yul\":494:505   */\n  dup4\n  dup3\n  add\n    /* \"#utility.yul\":487:526   */\n  mstore\n    /* \"#utility.yul\":459:461   */\n  0x20\n    /* \"#utility.yul\":452:462   */\n  add\n    /* \"#utility.yul\":423:536   */\n  jump(tag_54)\ntag_56:\n  pop\n  pop\n    /* \"#utility.yul\":570:571   */\n  0x00\n    /* \"#utility.yul\":552:568   */\n  swap2\n  add\n    /* \"#utility.yul\":545:572   */\n  mstore\n    /* \"#utility.yul\":328:578   */\n  jump\t// out\n    /* \"#utility.yul\":583:1650   */\ntag_3:\n    /* \"#utility.yul\":681:687   */\n  0x00\n    /* \"#utility.yul\":689:695   */\n  dup1\n    /* \"#utility.yul\":697:703   */\n  0x00\n    /* \"#utility.yul\":750:752   */\n  0x60\n    /* \"#utility.yul\":738:747   */\n  dup5\n    /* \"#utility.yul\":729:736   */\n  dup7\n    /* \"#utility.yul\":725:748   */\n  sub\n    /* \"#utility.yul\":721:753   */\n  slt\n    /* \"#utility.yul\":718:770   */\n  iszero\n  tag_58\n  jumpi\n    /* \"#utility.yul\":766:767   */\n  0x00\n    /* \"#utility.yul\":763:764   */\n  dup1\n    /* \"#utility.yul\":756:768   */\n  revert\n    /* \"#utility.yul\":718:770   */\ntag_58:\n    /* \"#utility.yul\":789:829   */\n  tag_59\n    /* \"#utility.yul\":819:828   */\n  dup5\n    /* \"#utility.yul\":789:829   */\n  tag_42\n  jump\t// in\ntag_59:\n    /* \"#utility.yul\":873:875   */\n  0x20\n    /* \"#utility.yul\":858:876   */\n  dup6\n  add\n    /* \"#utility.yul\":852:877   */\n  mload\n    /* \"#utility.yul\":779:829   */\n  swap1\n  swap4\n  pop\n  sub(shl(0x40, 0x01), 0x01)\n    /* \"#utility.yul\":926:940   */\n  dup1\n  dup3\n  gt\n    /* \"#utility.yul\":923:957   */\n  iszero\n  tag_60\n  jumpi\n    /* \"#utility.yul\":953:954   */\n  0x00\n    /* \"#utility.yul\":950:951   */\n  dup1\n    /* \"#utility.yul\":943:955   */\n  revert\n    /* \"#utility.yul\":923:957   */\ntag_60:\n    /* \"#utility.yul\":991:997   */\n  dup2\n    /* \"#utility.yul\":980:989   */\n  dup7\n    /* \"#utility.yul\":976:998   */\n  add\n    /* \"#utility.yul\":966:998   */\n  swap2\n  pop\n    /* \"#utility.yul\":1036:1043   */\n  dup7\n    /* \"#utility.yul\":1029:1033   */\n  0x1f\n    /* \"#utility.yul\":1025:1027   */\n  dup4\n    /* \"#utility.yul\":1021:1034   */\n  add\n    /* \"#utility.yul\":1017:1044   */\n  slt\n    /* \"#utility.yul\":1007:1062   */\n  tag_61\n  jumpi\n    /* \"#utility.yul\":1058:1059   */\n  0x00\n    /* \"#utility.yul\":1055:1056   */\n  dup1\n    /* \"#utility.yul\":1048:1060   */\n  revert\n    /* \"#utility.yul\":1007:1062   */\ntag_61:\n    /* \"#utility.yul\":1087:1089   */\n  dup2\n    /* \"#utility.yul\":1081:1090   */\n  mload\n    /* \"#utility.yul\":1109:1111   */\n  dup2\n    /* \"#utility.yul\":1105:1107   */\n  dup2\n    /* \"#utility.yul\":1102:1112   */\n  gt\n    /* \"#utility.yul\":1099:1135   */\n  iszero\n  tag_63\n  jumpi\n    /* \"#utility.yul\":1115:1133   */\n  tag_63\n  tag_43\n  jump\t// in\ntag_63:\n    /* \"#utility.yul\":1190:1192   */\n  0x40\n    /* \"#utility.yul\":1184:1193   */\n  mload\n    /* \"#utility.yul\":1158:1160   */\n  0x1f\n    /* \"#utility.yul\":1244:1257   */\n  dup3\n  add\n  not(0x1f)\n    /* \"#utility.yul\":1240:1262   */\n  swap1\n  dup2\n  and\n    /* \"#utility.yul\":1264:1266   */\n  0x3f\n    /* \"#utility.yul\":1236:1267   */\n  add\n    /* \"#utility.yul\":1232:1272   */\n  and\n    /* \"#utility.yul\":1220:1273   */\n  dup2\n  add\n  swap1\n    /* \"#utility.yul\":1288:1306   */\n  dup4\n  dup3\n  gt\n    /* \"#utility.yul\":1308:1330   */\n  dup2\n  dup4\n  lt\n    /* \"#utility.yul\":1285:1331   */\n  or\n    /* \"#utility.yul\":1282:1354   */\n  iszero\n  tag_65\n  jumpi\n    /* \"#utility.yul\":1334:1352   */\n  tag_65\n  tag_43\n  jump\t// in\ntag_65:\n    /* \"#utility.yul\":1374:1384   */\n  dup2\n    /* \"#utility.yul\":1370:1372   */\n  0x40\n    /* \"#utility.yul\":1363:1385   */\n  mstore\n    /* \"#utility.yul\":1409:1411   */\n  dup3\n    /* \"#utility.yul\":1401:1407   */\n  dup2\n    /* \"#utility.yul\":1394:1412   */\n  mstore\n    /* \"#utility.yul\":1449:1456   */\n  dup10\n    /* \"#utility.yul\":1444:1446   */\n  0x20\n    /* \"#utility.yul\":1439:1441   */\n  dup5\n    /* \"#utility.yul\":1435:1437   */\n  dup8\n    /* \"#utility.yul\":1431:1442   */\n  add\n    /* \"#utility.yul\":1427:1447   */\n  add\n    /* \"#utility.yul\":1424:1457   */\n  gt\n    /* \"#utility.yul\":1421:1474   */\n  iszero\n  tag_66\n  jumpi\n    /* \"#utility.yul\":1470:1471   */\n  0x00\n    /* \"#utility.yul\":1467:1468   */\n  dup1\n    /* \"#utility.yul\":1460:1472   */\n  revert\n    /* \"#utility.yul\":1421:1474   */\ntag_66:\n    /* \"#utility.yul\":1483:1551   */\n  tag_67\n    /* \"#utility.yul\":1548:1550   */\n  dup4\n    /* \"#utility.yul\":1543:1545   */\n  0x20\n    /* \"#utility.yul\":1535:1541   */\n  dup4\n    /* \"#utility.yul\":1531:1546   */\n  add\n    /* \"#utility.yul\":1526:1528   */\n  0x20\n    /* \"#utility.yul\":1522:1524   */\n  dup9\n    /* \"#utility.yul\":1518:1529   */\n  add\n    /* \"#utility.yul\":1483:1551   */\n  tag_44\n  jump\t// in\ntag_67:\n    /* \"#utility.yul\":1570:1576   */\n  dup1\n    /* \"#utility.yul\":1560:1576   */\n  swap7\n  pop\n  pop\n  pop\n  pop\n  pop\n  pop\n    /* \"#utility.yul\":1595:1644   */\n  tag_68\n    /* \"#utility.yul\":1640:1642   */\n  0x40\n    /* \"#utility.yul\":1629:1638   */\n  dup6\n    /* \"#utility.yul\":1625:1643   */\n  add\n    /* \"#utility.yul\":1595:1644   */\n  tag_42\n  jump\t// in\ntag_68:\n    /* \"#utility.yul\":1585:1644   */\n  swap1\n  pop\n    /* \"#utility.yul\":583:1650   */\n  swap3\n  pop\n  swap3\n  pop\n  swap3\n  jump\t// out\n    /* \"#utility.yul\":1863:2243   */\ntag_45:\n    /* \"#utility.yul\":1942:1943   */\n  0x01\n    /* \"#utility.yul\":1938:1950   */\n  dup2\n  dup2\n  shr\n  swap1\n    /* \"#utility.yul\":1985:1997   */\n  dup3\n  and\n  dup1\n    /* \"#utility.yul\":2006:2067   */\n  tag_71\n  jumpi\n    /* \"#utility.yul\":2060:2064   */\n  0x7f\n    /* \"#utility.yul\":2052:2058   */\n  dup3\n    /* \"#utility.yul\":2048:2065   */\n  and\n    /* \"#utility.yul\":2038:2065   */\n  swap2\n  pop\n    /* \"#utility.yul\":2006:2067   */\ntag_71:\n    /* \"#utility.yul\":2113:2115   */\n  0x20\n    /* \"#utility.yul\":2105:2111   */\n  dup3\n    /* \"#utility.yul\":2102:2116   */\n  lt\n    /* \"#utility.yul\":2082:2100   */\n  dup2\n    /* \"#utility.yul\":2079:2117   */\n  sub\n    /* \"#utility.yul\":2076:2237   */\n  tag_72\n  jumpi\n    /* \"#utility.yul\":2159:2169   */\n  0x4e487b71\n    /* \"#utility.yul\":2154:2157   */\n  0xe0\n    /* \"#utility.yul\":2150:2170   */\n  shl\n    /* \"#utility.yul\":2147:2148   */\n  0x00\n    /* \"#utility.yul\":2140:2171   */\n  mstore\n    /* \"#utility.yul\":2194:2198   */\n  0x22\n    /* \"#utility.yul\":2191:2192   */\n  0x04\n    /* \"#utility.yul\":2184:2199   */\n  mstore\n    /* \"#utility.yul\":2222:2226   */\n  0x24\n    /* \"#utility.yul\":2219:2220   */\n  0x00\n    /* \"#utility.yul\":2212:2227   */\n  revert\n    /* \"#utility.yul\":2076:2237   */\ntag_72:\n  pop\n    /* \"#utility.yul\":1863:2243   */\n  swap2\n  swap1\n  pop\n  jump\t// out\n    /* \"#utility.yul\":2374:2892   */\ntag_47:\n    /* \"#utility.yul\":2476:2478   */\n  0x1f\n    /* \"#utility.yul\":2471:2474   */\n  dup3\n    /* \"#utility.yul\":2468:2479   */\n  gt\n    /* \"#utility.yul\":2465:2886   */\n  iszero\n  tag_75\n  jumpi\n    /* \"#utility.yul\":2512:2517   */\n  dup1\n    /* \"#utility.yul\":2509:2510   */\n  0x00\n    /* \"#utility.yul\":2502:2518   */\n  mstore\n    /* \"#utility.yul\":2556:2560   */\n  0x20\n    /* \"#utility.yul\":2553:2554   */\n  0x00\n    /* \"#utility.yul\":2543:2561   */\n  keccak256\n    /* \"#utility.yul\":2626:2628   */\n  0x1f\n    /* \"#utility.yul\":2614:2624   */\n  dup5\n    /* \"#utility.yul\":2610:2629   */\n  add\n    /* \"#utility.yul\":2607:2608   */\n  0x05\n    /* \"#utility.yul\":2603:2630   */\n  shr\n    /* \"#utility.yul\":2597:2601   */\n  dup2\n    /* \"#utility.yul\":2593:2631   */\n  add\n    /* \"#utility.yul\":2662:2666   */\n  0x20\n    /* \"#utility.yul\":2650:2660   */\n  dup6\n    /* \"#utility.yul\":2647:2667   */\n  lt\n    /* \"#utility.yul\":2644:2691   */\n  iszero\n  tag_76\n  jumpi\n  pop\n    /* \"#utility.yul\":2685:2689   */\n  dup1\n    /* \"#utility.yul\":2644:2691   */\ntag_76:\n    /* \"#utility.yul\":2740:2742   */\n  0x1f\n    /* \"#utility.yul\":2735:2738   */\n  dup5\n    /* \"#utility.yul\":2731:2743   */\n  add\n    /* \"#utility.yul\":2728:2729   */\n  0x05\n    /* \"#utility.yul\":2724:2744   */\n  shr\n    /* \"#utility.yul\":2718:2722   */\n  dup3\n    /* \"#utility.yul\":2714:2745   */\n  add\n    /* \"#utility.yul\":2704:2745   */\n  swap2\n  pop\n    /* \"#utility.yul\":2795:2876   */\ntag_77:\n    /* \"#utility.yul\":2813:2815   */\n  dup2\n    /* \"#utility.yul\":2806:2811   */\n  dup2\n    /* \"#utility.yul\":2803:2816   */\n  lt\n    /* \"#utility.yul\":2795:2876   */\n  iszero\n  tag_79\n  jumpi\n    /* \"#utility.yul\":2872:2873   */\n  0x00\n    /* \"#utility.yul\":2858:2874   */\n  dup2\n  sstore\n    /* \"#utility.yul\":2839:2840   */\n  0x01\n    /* \"#utility.yul\":2828:2841   */\n  add\n    /* \"#utility.yul\":2795:2876   */\n  jump(tag_77)\ntag_79:\n    /* \"#utility.yul\":2799:2802   */\n  pop\n  pop\n    /* \"#utility.yul\":2465:2886   */\ntag_75:\n    /* \"#utility.yul\":2374:2892   */\n  pop\n  pop\n  pop\n  jump\t// out\n    /* \"#utility.yul\":3068:4413   */\ntag_21:\n    /* \"#utility.yul\":3188:3198   */\n  dup2\n  mload\n  sub(shl(0x40, 0x01), 0x01)\n    /* \"#utility.yul\":3210:3240   */\n  dup2\n  gt\n    /* \"#utility.yul\":3207:3263   */\n  iszero\n  tag_83\n  jumpi\n    /* \"#utility.yul\":3243:3261   */\n  tag_83\n  tag_43\n  jump\t// in\ntag_83:\n    /* \"#utility.yul\":3272:3369   */\n  tag_84\n    /* \"#utility.yul\":3362:3368   */\n  dup2\n    /* \"#utility.yul\":3322:3360   */\n  tag_85\n    /* \"#utility.yul\":3354:3358   */\n  dup5\n    /* \"#utility.yul\":3348:3359   */\n  sload\n    /* \"#utility.yul\":3322:3360   */\n  tag_45\n  jump\t// in\ntag_85:\n    /* \"#utility.yul\":3316:3320   */\n  dup5\n    /* \"#utility.yul\":3272:3369   */\n  tag_47\n  jump\t// in\ntag_84:\n    /* \"#utility.yul\":3424:3428   */\n  0x20\n  dup1\n    /* \"#utility.yul\":3481:3483   */\n  0x1f\n    /* \"#utility.yul\":3470:3484   */\n  dup4\n  gt\n    /* \"#utility.yul\":3498:3499   */\n  0x01\n    /* \"#utility.yul\":3493:4156   */\n  dup2\n  eq\n  tag_87\n  jumpi\n    /* \"#utility.yul\":4200:4201   */\n  0x00\n    /* \"#utility.yul\":4217:4223   */\n  dup5\n    /* \"#utility.yul\":4214:4303   */\n  iszero\n  tag_88\n  jumpi\n  pop\n    /* \"#utility.yul\":4269:4288   */\n  dup6\n  dup4\n  add\n    /* \"#utility.yul\":4263:4289   */\n  mload\n    /* \"#utility.yul\":4214:4303   */\ntag_88:\n  not(0x00)\n    /* \"#utility.yul\":3025:3026   */\n  0x03\n    /* \"#utility.yul\":3021:3032   */\n  dup7\n  swap1\n  shl\n    /* \"#utility.yul\":3017:3041   */\n  shr\n    /* \"#utility.yul\":3013:3042   */\n  not\n    /* \"#utility.yul\":3003:3043   */\n  and\n    /* \"#utility.yul\":3049:3050   */\n  0x01\n    /* \"#utility.yul\":3045:3056   */\n  dup6\n  swap1\n  shl\n    /* \"#utility.yul\":3000:3057   */\n  or\n    /* \"#utility.yul\":4316:4397   */\n  dup6\n  sstore\n    /* \"#utility.yul\":3463:4407   */\n  jump(tag_86)\n    /* \"#utility.yul\":3493:4156   */\ntag_87:\n    /* \"#utility.yul\":2321:2322   */\n  0x00\n    /* \"#utility.yul\":2314:2328   */\n  dup6\n  dup2\n  mstore\n    /* \"#utility.yul\":2358:2362   */\n  0x20\n    /* \"#utility.yul\":2345:2363   */\n  dup2\n  keccak256\n  not(0x1f)\n    /* \"#utility.yul\":3529:3549   */\n  dup7\n  and\n  swap2\n    /* \"#utility.yul\":3647:3883   */\ntag_91:\n    /* \"#utility.yul\":3661:3668   */\n  dup3\n    /* \"#utility.yul\":3658:3659   */\n  dup2\n    /* \"#utility.yul\":3655:3669   */\n  lt\n    /* \"#utility.yul\":3647:3883   */\n  iszero\n  tag_93\n  jumpi\n    /* \"#utility.yul\":3750:3769   */\n  dup9\n  dup7\n  add\n    /* \"#utility.yul\":3744:3770   */\n  mload\n    /* \"#utility.yul\":3729:3771   */\n  dup3\n  sstore\n    /* \"#utility.yul\":3842:3869   */\n  swap5\n  dup5\n  add\n  swap5\n    /* \"#utility.yul\":3810:3811   */\n  0x01\n    /* \"#utility.yul\":3798:3812   */\n  swap1\n  swap2\n  add\n  swap1\n    /* \"#utility.yul\":3677:3696   */\n  dup5\n  add\n    /* \"#utility.yul\":3647:3883   */\n  jump(tag_91)\ntag_93:\n    /* \"#utility.yul\":3651:3654   */\n  pop\n    /* \"#utility.yul\":3911:3917   */\n  dup6\n    /* \"#utility.yul\":3902:3909   */\n  dup3\n    /* \"#utility.yul\":3899:3918   */\n  lt\n    /* \"#utility.yul\":3896:4097   */\n  iszero\n  tag_94\n  jumpi\n    /* \"#utility.yul\":3972:3991   */\n  dup8\n  dup6\n  add\n    /* \"#utility.yul\":3966:3992   */\n  mload\n  not(0x00)\n    /* \"#utility.yul\":4055:4056   */\n  0x03\n    /* \"#utility.yul\":4051:4065   */\n  dup9\n  swap1\n  shl\n    /* \"#utility.yul\":4067:4070   */\n  0xf8\n    /* \"#utility.yul\":4047:4071   */\n  and\n    /* \"#utility.yul\":4043:4080   */\n  shr\n    /* \"#utility.yul\":4039:4081   */\n  not\n    /* \"#utility.yul\":4024:4082   */\n  and\n    /* \"#utility.yul\":4009:4083   */\n  dup2\n  sstore\n    /* \"#utility.yul\":3896:4097   */\ntag_94:\n  pop\n  pop\n    /* \"#utility.yul\":4143:4144   */\n  0x01\n    /* \"#utility.yul\":4134:4140   */\n  dup5\n    /* \"#utility.yul\":4131:4132   */\n  0x01\n    /* \"#utility.yul\":4127:4141   */\n  shl\n    /* \"#utility.yul\":4123:4145   */\n  add\n    /* \"#utility.yul\":4117:4121   */\n  dup6\n    /* \"#utility.yul\":4110:4146   */\n  sstore\n    /* \"#utility.yul\":3463:4407   */\ntag_86:\n  pop\n  pop\n  pop\n  pop\n    /* \"#utility.yul\":3068:4413   */\n  pop\n  pop\n  jump\t// out\n    /* \"#utility.yul\":4912:5308   */\ntag_38:\n    /* \"#utility.yul\":5061:5063   */\n  0x20\n    /* \"#utility.yul\":5050:5059   */\n  dup2\n    /* \"#utility.yul\":5043:5064   */\n  mstore\n    /* \"#utility.yul\":5024:5028   */\n  0x00\n    /* \"#utility.yul\":5093:5099   */\n  dup3\n    /* \"#utility.yul\":5087:5100   */\n  mload\n    /* \"#utility.yul\":5136:5142   */\n  dup1\n    /* \"#utility.yul\":5131:5133   */\n  0x20\n    /* \"#utility.yul\":5120:5129   */\n  dup5\n    /* \"#utility.yul\":5116:5134   */\n  add\n    /* \"#utility.yul\":5109:5143   */\n  mstore\n    /* \"#utility.yul\":5152:5231   */\n  tag_97\n    /* \"#utility.yul\":5224:5230   */\n  dup2\n    /* \"#utility.yul\":5219:5221   */\n  0x40\n    /* \"#utility.yul\":5208:5217   */\n  dup6\n    /* \"#utility.yul\":5204:5222   */\n  add\n    /* \"#utility.yul\":5199:5201   */\n  0x20\n    /* \"#utility.yul\":5191:5197   */\n  dup8\n    /* \"#utility.yul\":5187:5202   */\n  add\n    /* \"#utility.yul\":5152:5231   */\n  tag_44\n  jump\t// in\ntag_97:\n    /* \"#utility.yul\":5292:5294   */\n  0x1f\n    /* \"#utility.yul\":5271:5286   */\n  add\n  not(0x1f)\n    /* \"#utility.yul\":5267:5296   */\n  and\n    /* \"#utility.yul\":5252:5297   */\n  swap2\n  swap1\n  swap2\n  add\n    /* \"#utility.yul\":5299:5301   */\n  0x40\n    /* \"#utility.yul\":5248:5302   */\n  add\n  swap3\n    /* \"#utility.yul\":4912:5308   */\n  swap2\n  pop\n  pop\n  jump\t// out\n    /* \"#utility.yul\":5313:5610   */\ntag_40:\n    /* \"#utility.yul\":5431:5443   */\n  dup1\n  mload\n    /* \"#utility.yul\":5478:5482   */\n  0x20\n    /* \"#utility.yul\":5467:5483   */\n  dup1\n  dup4\n  add\n    /* \"#utility.yul\":5461:5484   */\n  mload\n  swap2\n    /* \"#utility.yul\":5431:5443   */\n  swap1\n    /* \"#utility.yul\":5496:5512   */\n  dup2\n  lt\n    /* \"#utility.yul\":5493:5604   */\n  iszero\n  tag_72\n  jumpi\n  not(0x00)\n    /* \"#utility.yul\":5570:5574   */\n  0x20\n    /* \"#utility.yul\":5566:5583   */\n  swap2\n  swap1\n  swap2\n  sub\n    /* \"#utility.yul\":5563:5564   */\n  0x03\n    /* \"#utility.yul\":5559:5584   */\n  shl\n    /* \"#utility.yul\":5555:5593   */\n  shl\n    /* \"#utility.yul\":5544:5594   */\n  and\n  swap2\n    /* \"#utility.yul\":5313:5610   */\n  swap1\n  pop\n  jump\t// out\ntag_49:\n    /* \"src/ribbonVault1.sol\":650:8548  contract  vault is Ownable,EIP712 {... */\n  mload(0x80)\n  mload(0xa0)\n  mload(0xc0)\n  mload(0xe0)\n  mload(0x0100)\n  mload(0x0120)\n  mload(0x0140)\n  codecopy(0x00, dataOffset(sub_0), dataSize(sub_0))\n  0x00\n  assignImmutable(\"0xf8488ee4284bdfced5e7ecbb6b2116f40bc259e448370e3da8f991f5c7e11002\")\n  0x00\n  assignImmutable(\"0xeaf32fa183047e964e285a9ee962816e722361d0ef19b580cefefec39cdc1e6b\")\n  0x00\n  assignImmutable(\"0x5a51cac41fe69f71b7795862cc646f7451dfff9d51b9de6ea410fc434c56d513\")\n  0x00\n  assignImmutable(\"0xdd8b51ee9128c681fbd81845dd6426716fdc986a3bb51fedf5af16f35ac2adb3\")\n  0x00\n  assignImmutable(\"0x03bb33715397e0038c873ba02d4426eebb2b65cc3940a0fa71a481a9b37d980d\")\n  0x00\n  assignImmutable(\"0xbe147d0aaf628bab5d3600ba0e8222c4d7f0eec30321d0b98d9f641634fbb471\")\n  0x00\n  assignImmutable(\"0xa1c879b0284e72931b8cd098e080355084a332f82e911af96b3055fa2035b7e8\")\n  return(0x00, dataSize(sub_0))\nstop\n\nsub_0: assembly {\n        /* \"src/ribbonVault1.sol\":650:8548  contract  vault is Ownable,EIP712 {... */\n      mstore(0x40, 0x80)\n      callvalue\n      dup1\n      iszero\n      tag_1\n      jumpi\n      0x00\n      dup1\n      revert\n    tag_1:\n      pop\n      jumpi(tag_2, lt(calldatasize, 0x04))\n      shr(0xe0, calldataload(0x00))\n      dup1\n      0x8bc7e8c4\n      gt\n      tag_29\n      jumpi\n      dup1\n      0xcbeacb80\n      gt\n      tag_30\n      jumpi\n      dup1\n      0xf2fde38b\n      gt\n      tag_31\n      jumpi\n      dup1\n      0xf2fde38b\n      eq\n      tag_25\n      jumpi\n      dup1\n      0xf851a440\n      eq\n      tag_26\n      jumpi\n      dup1\n      0xf9c3a1e8\n      eq\n      tag_27\n      jumpi\n      dup1\n      0xfd918716\n      eq\n      tag_28\n      jumpi\n      0x00\n      dup1\n      revert\n    tag_31:\n      dup1\n      0xcbeacb80\n      eq\n      tag_22\n      jumpi\n      dup1\n      0xe1fefd42\n      eq\n      tag_23\n      jumpi\n      dup1\n      0xe63ea408\n      eq\n      tag_24\n      jumpi\n      0x00\n      dup1\n      revert\n    tag_30:\n      dup1\n      0x8bc7e8c4\n      eq\n      tag_16\n      jumpi\n      dup1\n      0x8da5cb5b\n      eq\n      tag_17\n      jumpi\n      dup1\n      0x9683cdc4\n      eq\n      tag_18\n      jumpi\n      dup1\n      0xac1e5025\n      eq\n      tag_19\n      jumpi\n      dup1\n      0xc08e7286\n      eq\n      tag_20\n      jumpi\n      dup1\n      0xc4a9e858\n      eq\n      tag_21\n      jumpi\n      0x00\n      dup1\n      revert\n    tag_29:\n      dup1\n      0x3644e515\n      gt\n      tag_32\n      jumpi\n      dup1\n      0x704b6c02\n      gt\n      tag_33\n      jumpi\n      dup1\n      0x704b6c02\n      eq\n      tag_12\n      jumpi\n      dup1\n      0x715018a6\n      eq\n      tag_13\n      jumpi\n      dup1\n      0x76ee947f\n      eq\n      tag_14\n      jumpi\n      dup1\n      0x84b0196e\n      eq\n      tag_15\n      jumpi\n      0x00\n      dup1\n      revert\n    tag_33:\n      dup1\n      0x3644e515\n      eq\n      tag_9\n      jumpi\n      dup1\n      0x67a52793\n      eq\n      tag_10\n      jumpi\n      dup1\n      0x6b4c0789\n      eq\n      tag_11\n      jumpi\n      0x00\n      dup1\n      revert\n    tag_32:\n      dup1\n      0x06e0e582\n      eq\n      tag_3\n      jumpi\n      dup1\n      0x0ace9ca0\n      eq\n      tag_4\n      jumpi\n      dup1\n      0x0d461e61\n      eq\n      tag_5\n      jumpi\n      dup1\n      0x252de51b\n      eq\n      tag_6\n      jumpi\n      dup1\n      0x2c4e722e\n      eq\n      tag_7\n      jumpi\n      dup1\n      0x34fcf437\n      eq\n      tag_8\n      jumpi\n    tag_2:\n      0x00\n      dup1\n      revert\n        /* \"src/ribbonVault1.sol\":1322:1364  uint public initContractBalancePaymentCoin */\n    tag_3:\n      tag_34\n      sload(0x09)\n      dup2\n      jump\n    tag_34:\n      mload(0x40)\n        /* \"#utility.yul\":160:185   */\n      swap1\n      dup2\n      mstore\n        /* \"#utility.yul\":148:150   */\n      0x20\n        /* \"#utility.yul\":133:151   */\n      add\n        /* \"src/ribbonVault1.sol\":1322:1364  uint public initContractBalancePaymentCoin */\n    tag_36:\n      mload(0x40)\n      dup1\n      swap2\n      sub\n      swap1\n      return\n        /* \"src/ribbonVault1.sol\":1456:1479  string public vaultName */\n    tag_4:\n      tag_38\n      tag_39\n      jump\t// in\n    tag_38:\n      mload(0x40)\n      tag_36\n      swap2\n      swap1\n      tag_41\n      jump\t// in\n        /* \"src/ribbonVault1.sol\":3064:3266  function checkAmountToRecive(uint pointToSwap)public view returns(uint){... */\n    tag_5:\n      tag_34\n      tag_43\n      calldatasize\n      0x04\n      tag_44\n      jump\t// in\n    tag_43:\n      tag_45\n      jump\t// in\n        /* \"src/ribbonVault1.sol\":1513:1537  bool public freezePermit */\n    tag_6:\n      sload(0x0d)\n      tag_47\n      swap1\n      shl(0xa0, 0x01)\n      swap1\n      div\n      0xff\n      and\n      dup2\n      jump\n    tag_47:\n      mload(0x40)\n        /* \"#utility.yul\":1302:1316   */\n      swap1\n      iszero\n        /* \"#utility.yul\":1295:1317   */\n      iszero\n        /* \"#utility.yul\":1277:1318   */\n      dup2\n      mstore\n        /* \"#utility.yul\":1265:1267   */\n      0x20\n        /* \"#utility.yul\":1250:1268   */\n      add\n        /* \"src/ribbonVault1.sol\":1513:1537  bool public freezePermit */\n      tag_36\n        /* \"#utility.yul\":1137:1324   */\n      jump\n        /* \"src/ribbonVault1.sol\":1239:1255  uint public rate */\n    tag_7:\n      tag_34\n      sload(0x06)\n      dup2\n      jump\n        /* \"src/ribbonVault1.sol\":4372:4448  function setRate(uint _rate)public onlyOwner{... */\n    tag_8:\n      tag_54\n      tag_55\n      calldatasize\n      0x04\n      tag_44\n      jump\t// in\n    tag_55:\n      tag_56\n      jump\t// in\n    tag_54:\n      stop\n        /* \"src/ribbonVault1.sol\":3278:3392  function DOMAIN_SEPARATOR() external view virtual returns (bytes32) {... */\n    tag_9:\n      tag_34\n      tag_58\n      jump\t// in\n        /* \"src/ribbonVault1.sol\":1210:1232  uint public depositFee */\n    tag_10:\n      tag_34\n      sload(0x05)\n      dup2\n      jump\n        /* \"src/ribbonVault1.sol\":4839:4930  function freezeContract(bool _freeze)public onlyOwner{... */\n    tag_11:\n      tag_54\n      tag_65\n      calldatasize\n      0x04\n      tag_66\n      jump\t// in\n    tag_65:\n      tag_67\n      jump\t// in\n        /* \"src/ribbonVault1.sol\":3648:3727  function setAdmin(address _admin)public onlyOwner{... */\n    tag_12:\n      tag_54\n      tag_69\n      calldatasize\n      0x04\n      tag_70\n      jump\t// in\n    tag_69:\n      tag_71\n      jump\t// in\n        /* \"@openzeppelin/contracts/access/Ownable.sol\":2293:2394  function renounceOwnership() public virtual onlyOwner {... */\n    tag_13:\n      tag_54\n      tag_73\n      jump\t// in\n        /* \"src/ribbonVault1.sol\":4082:4174  function setPaymentDepositfees(uint _fee)public onlyOwner{... */\n    tag_14:\n      tag_54\n      tag_75\n      calldatasize\n      0x04\n      tag_44\n      jump\t// in\n    tag_75:\n      tag_76\n      jump\t// in\n        /* \"@openzeppelin/contracts/utils/cryptography/EIP712.sol\":5144:5701  function eip712Domain()... */\n    tag_15:\n      tag_77\n      tag_78\n      jump\t// in\n    tag_77:\n      mload(0x40)\n      tag_36\n      swap8\n      swap7\n      swap6\n      swap5\n      swap4\n      swap3\n      swap2\n      swap1\n      tag_80\n      jump\t// in\n        /* \"src/ribbonVault1.sol\":1262:1287  uint public withdrawalFee */\n    tag_16:\n      tag_34\n      sload(0x07)\n      dup2\n      jump\n        /* \"@openzeppelin/contracts/access/Ownable.sol\":1638:1723  function owner() public view virtual returns (address) {... */\n    tag_17:\n        /* \"@openzeppelin/contracts/access/Ownable.sol\":1684:1691  address */\n      0x00\n        /* \"@openzeppelin/contracts/access/Ownable.sol\":1710:1716  _owner */\n      sload\n      sub(shl(0xa0, 0x01), 0x01)\n      and\n        /* \"@openzeppelin/contracts/access/Ownable.sol\":1638:1723  function owner() public view virtual returns (address) {... */\n    tag_84:\n      mload(0x40)\n      sub(shl(0xa0, 0x01), 0x01)\n        /* \"#utility.yul\":3677:3709   */\n      swap1\n      swap2\n      and\n        /* \"#utility.yul\":3659:3710   */\n      dup2\n      mstore\n        /* \"#utility.yul\":3647:3649   */\n      0x20\n        /* \"#utility.yul\":3632:3650   */\n      add\n        /* \"@openzeppelin/contracts/access/Ownable.sol\":1638:1723  function owner() public view virtual returns (address) {... */\n      tag_36\n        /* \"#utility.yul\":3513:3716   */\n      jump\n        /* \"src/ribbonVault1.sol\":5170:5801  function withdrawfees(address feeTakerAddress) public onlyOwner{... */\n    tag_18:\n      tag_54\n      tag_89\n      calldatasize\n      0x04\n      tag_70\n      jump\t// in\n    tag_89:\n      tag_90\n      jump\t// in\n        /* \"src/ribbonVault1.sol\":4232:4322  function setWithdrawalFee(uint _fee)public onlyOwner{... */\n    tag_19:\n      tag_54\n      tag_92\n      calldatasize\n      0x04\n      tag_44\n      jump\t// in\n    tag_92:\n      tag_93\n      jump\t// in\n        /* \"src/ribbonVault1.sol\":4597:4706  function setMinPointsToSWap(uint _pointsMin)public onlyOwner{... */\n    tag_20:\n      tag_54\n      tag_95\n      calldatasize\n      0x04\n      tag_44\n      jump\t// in\n    tag_95:\n      tag_96\n      jump\t// in\n        /* \"src/ribbonVault1.sol\":1408:1449  uint public TotalfeescollectedPaymentCoin */\n    tag_21:\n      tag_34\n      sload(0x0b)\n      dup2\n      jump\n        /* \"src/ribbonVault1.sol\":3835:4027  function setpaymentTokenAndpoints(address paymentAddress)public onlyOwner{... */\n    tag_22:\n      tag_54\n      tag_101\n      calldatasize\n      0x04\n      tag_70\n      jump\t// in\n    tag_101:\n      tag_102\n      jump\t// in\n        /* \"src/ribbonVault1.sol\":1294:1315  uint public pointsMin */\n    tag_23:\n      tag_34\n      sload(0x08)\n      dup2\n      jump\n        /* \"src/ribbonVault1.sol\":7039:7400  function emergencyWithdraw(address _tokenAddress,address _to,uint _amount )public onlyOwner{... */\n    tag_24:\n      tag_54\n      tag_107\n      calldatasize\n      0x04\n      tag_108\n      jump\t// in\n    tag_107:\n      tag_109\n      jump\t// in\n        /* \"@openzeppelin/contracts/access/Ownable.sol\":2543:2758  function transferOwnership(address newOwner) public virtual onlyOwner {... */\n    tag_25:\n      tag_54\n      tag_111\n      calldatasize\n      0x04\n      tag_70\n      jump\t// in\n    tag_111:\n      tag_112\n      jump\t// in\n        /* \"src/ribbonVault1.sol\":1486:1506  address public admin */\n    tag_26:\n      sload(0x0d)\n      tag_84\n      swap1\n      sub(shl(0xa0, 0x01), 0x01)\n      and\n      dup2\n      jump\n        /* \"src/ribbonVault1.sol\":6032:6926  function permitSwapToPaymentCoin(address user,uint pointToSwap,uint256 deadline,uint8 v,bytes32 r,bytes32 s)public {... */\n    tag_27:\n      tag_54\n      tag_117\n      calldatasize\n      0x04\n      tag_118\n      jump\t// in\n    tag_117:\n      tag_119\n      jump\t// in\n        /* \"src/ribbonVault1.sol\":1371:1401  uint public claimedPaymentCoin */\n    tag_28:\n      tag_34\n      sload(0x0a)\n      dup2\n      jump\n        /* \"src/ribbonVault1.sol\":1456:1479  string public vaultName */\n    tag_39:\n      0x0c\n      dup1\n      sload\n      tag_123\n      swap1\n      tag_124\n      jump\t// in\n    tag_123:\n      dup1\n      0x1f\n      add\n      0x20\n      dup1\n      swap2\n      div\n      mul\n      0x20\n      add\n      mload(0x40)\n      swap1\n      dup2\n      add\n      0x40\n      mstore\n      dup1\n      swap3\n      swap2\n      swap1\n      dup2\n      dup2\n      mstore\n      0x20\n      add\n      dup3\n      dup1\n      sload\n      tag_125\n      swap1\n      tag_124\n      jump\t// in\n    tag_125:\n      dup1\n      iszero\n      tag_126\n      jumpi\n      dup1\n      0x1f\n      lt\n      tag_127\n      jumpi\n      0x0100\n      dup1\n      dup4\n      sload\n      div\n      mul\n      dup4\n      mstore\n      swap2\n      0x20\n      add\n      swap2\n      jump(tag_126)\n    tag_127:\n      dup3\n      add\n      swap2\n      swap1\n      0x00\n      mstore\n      keccak256(0x00, 0x20)\n      swap1\n    tag_128:\n      dup2\n      sload\n      dup2\n      mstore\n      swap1\n      0x01\n      add\n      swap1\n      0x20\n      add\n      dup1\n      dup4\n      gt\n      tag_128\n      jumpi\n      dup3\n      swap1\n      sub\n      0x1f\n      and\n      dup3\n      add\n      swap2\n    tag_126:\n      pop\n      pop\n      pop\n      pop\n      pop\n      dup2\n      jump\t// out\n        /* \"src/ribbonVault1.sol\":3064:3266  function checkAmountToRecive(uint pointToSwap)public view returns(uint){... */\n    tag_45:\n        /* \"src/ribbonVault1.sol\":3130:3134  uint */\n      0x00\n        /* \"src/ribbonVault1.sol\":3148:3158  uint _rate */\n      dup1\n        /* \"src/ribbonVault1.sol\":3209:3213  rate */\n      sload(0x06)\n        /* \"src/ribbonVault1.sol\":3214:3220  10**18 */\n      0x0de0b6b3a7640000\n        /* \"src/ribbonVault1.sol\":3209:3220  rate*10**18 */\n      tag_130\n      swap2\n      swap1\n      tag_131\n      jump\t// in\n    tag_130:\n        /* \"src/ribbonVault1.sol\":3182:3195  _Ipaymentcoin */\n      0x03\n      0x00\n      swap1\n      sload\n      swap1\n      0x0100\n      exp\n      swap1\n      div\n      sub(shl(0xa0, 0x01), 0x01)\n      and\n      sub(shl(0xa0, 0x01), 0x01)\n        /* \"src/ribbonVault1.sol\":3182:3204  _Ipaymentcoin.decimals */\n      and\n      0x313ce567\n        /* \"src/ribbonVault1.sol\":3182:3206  _Ipaymentcoin.decimals() */\n      mload(0x40)\n      dup2\n      0xffffffff\n      and\n      0xe0\n      shl\n      dup2\n      mstore\n      0x04\n      add\n      0x20\n      mload(0x40)\n      dup1\n      dup4\n      sub\n      dup2\n      dup7\n      gas\n      staticcall\n      iszero\n      dup1\n      iszero\n      tag_133\n      jumpi\n      returndatasize\n      0x00\n      dup1\n      returndatacopy\n      revert(0x00, returndatasize)\n    tag_133:\n      pop\n      pop\n      pop\n      pop\n      mload(0x40)\n      returndatasize\n      not(0x1f)\n      0x1f\n      dup3\n      add\n      and\n      dup3\n      add\n      dup1\n      0x40\n      mstore\n      pop\n      dup2\n      add\n      swap1\n      tag_134\n      swap2\n      swap1\n      tag_135\n      jump\t// in\n    tag_134:\n        /* \"src/ribbonVault1.sol\":3178:3206  10**_Ipaymentcoin.decimals() */\n      tag_136\n      swap1\n        /* \"src/ribbonVault1.sol\":3178:3180  10 */\n      0x0a\n        /* \"src/ribbonVault1.sol\":3178:3206  10**_Ipaymentcoin.decimals() */\n      tag_137\n      jump\t// in\n    tag_136:\n        /* \"src/ribbonVault1.sol\":3162:3177  pointToSwap * 1 */\n      tag_138\n        /* \"src/ribbonVault1.sol\":3162:3173  pointToSwap */\n      dup6\n        /* \"src/ribbonVault1.sol\":3176:3177  1 */\n      0x01\n        /* \"src/ribbonVault1.sol\":3162:3177  pointToSwap * 1 */\n      tag_131\n      jump\t// in\n    tag_138:\n        /* \"src/ribbonVault1.sol\":3162:3206  pointToSwap * 1*10**_Ipaymentcoin.decimals() */\n      tag_139\n      swap2\n      swap1\n      tag_131\n      jump\t// in\n    tag_139:\n        /* \"src/ribbonVault1.sol\":3161:3221  (pointToSwap * 1*10**_Ipaymentcoin.decimals())/(rate*10**18) */\n      tag_140\n      swap2\n      swap1\n      tag_141\n      jump\t// in\n    tag_140:\n        /* \"src/ribbonVault1.sol\":3148:3221  uint _rate = (pointToSwap * 1*10**_Ipaymentcoin.decimals())/(rate*10**18) */\n      swap4\n        /* \"src/ribbonVault1.sol\":3064:3266  function checkAmountToRecive(uint pointToSwap)public view returns(uint){... */\n      swap3\n      pop\n      pop\n      pop\n      jump\t// out\n        /* \"src/ribbonVault1.sol\":4372:4448  function setRate(uint _rate)public onlyOwner{... */\n    tag_56:\n        /* \"@openzeppelin/contracts/access/Ownable.sol\":1531:1544  _checkOwner() */\n      tag_143\n        /* \"@openzeppelin/contracts/access/Ownable.sol\":1531:1542  _checkOwner */\n      tag_144\n        /* \"@openzeppelin/contracts/access/Ownable.sol\":1531:1544  _checkOwner() */\n      jump\t// in\n    tag_143:\n        /* \"src/ribbonVault1.sol\":4428:4432  rate */\n      0x06\n        /* \"src/ribbonVault1.sol\":4428:4440  rate = _rate */\n      sstore\n        /* \"src/ribbonVault1.sol\":4372:4448  function setRate(uint _rate)public onlyOwner{... */\n      jump\t// out\n        /* \"src/ribbonVault1.sol\":3278:3392  function DOMAIN_SEPARATOR() external view virtual returns (bytes32) {... */\n    tag_58:\n        /* \"src/ribbonVault1.sol\":3337:3344  bytes32 */\n      0x00\n        /* \"src/ribbonVault1.sol\":3364:3384  _domainSeparatorV4() */\n      tag_147\n        /* \"src/ribbonVault1.sol\":3364:3382  _domainSeparatorV4 */\n      tag_148\n        /* \"src/ribbonVault1.sol\":3364:3384  _domainSeparatorV4() */\n      jump\t// in\n    tag_147:\n        /* \"src/ribbonVault1.sol\":3357:3384  return _domainSeparatorV4() */\n      swap1\n      pop\n        /* \"src/ribbonVault1.sol\":3278:3392  function DOMAIN_SEPARATOR() external view virtual returns (bytes32) {... */\n      swap1\n      jump\t// out\n        /* \"src/ribbonVault1.sol\":4839:4930  function freezeContract(bool _freeze)public onlyOwner{... */\n    tag_67:\n        /* \"@openzeppelin/contracts/access/Ownable.sol\":1531:1544  _checkOwner() */\n      tag_150\n        /* \"@openzeppelin/contracts/access/Ownable.sol\":1531:1542  _checkOwner */\n      tag_144\n        /* \"@openzeppelin/contracts/access/Ownable.sol\":1531:1544  _checkOwner() */\n      jump\t// in\n    tag_150:\n        /* \"src/ribbonVault1.sol\":4900:4912  freezePermit */\n      0x0d\n        /* \"src/ribbonVault1.sol\":4900:4922  freezePermit = _freeze */\n      dup1\n      sload\n      swap2\n      iszero\n      iszero\n      shl(0xa0, 0x01)\n      mul\n      not(shl(0xa0, 0xff))\n      swap1\n      swap3\n      and\n      swap2\n      swap1\n      swap2\n      or\n      swap1\n      sstore\n        /* \"src/ribbonVault1.sol\":4839:4930  function freezeContract(bool _freeze)public onlyOwner{... */\n      jump\t// out\n        /* \"src/ribbonVault1.sol\":3648:3727  function setAdmin(address _admin)public onlyOwner{... */\n    tag_71:\n        /* \"@openzeppelin/contracts/access/Ownable.sol\":1531:1544  _checkOwner() */\n      tag_153\n        /* \"@openzeppelin/contracts/access/Ownable.sol\":1531:1542  _checkOwner */\n      tag_144\n        /* \"@openzeppelin/contracts/access/Ownable.sol\":1531:1544  _checkOwner() */\n      jump\t// in\n    tag_153:\n        /* \"src/ribbonVault1.sol\":3706:3711  admin */\n      0x0d\n        /* \"src/ribbonVault1.sol\":3706:3719  admin =_admin */\n      dup1\n      sload\n      not(sub(shl(0xa0, 0x01), 0x01))\n      and\n      sub(shl(0xa0, 0x01), 0x01)\n      swap3\n      swap1\n      swap3\n      and\n      swap2\n      swap1\n      swap2\n      or\n      swap1\n      sstore\n        /* \"src/ribbonVault1.sol\":3648:3727  function setAdmin(address _admin)public onlyOwner{... */\n      jump\t// out\n        /* \"@openzeppelin/contracts/access/Ownable.sol\":2293:2394  function renounceOwnership() public virtual onlyOwner {... */\n    tag_73:\n        /* \"@openzeppelin/contracts/access/Ownable.sol\":1531:1544  _checkOwner() */\n      tag_156\n        /* \"@openzeppelin/contracts/access/Ownable.sol\":1531:1542  _checkOwner */\n      tag_144\n        /* \"@openzeppelin/contracts/access/Ownable.sol\":1531:1544  _checkOwner() */\n      jump\t// in\n    tag_156:\n        /* \"@openzeppelin/contracts/access/Ownable.sol\":2357:2387  _transferOwnership(address(0)) */\n      tag_158\n        /* \"@openzeppelin/contracts/access/Ownable.sol\":2384:2385  0 */\n      0x00\n        /* \"@openzeppelin/contracts/access/Ownable.sol\":2357:2375  _transferOwnership */\n      tag_159\n        /* \"@openzeppelin/contracts/access/Ownable.sol\":2357:2387  _transferOwnership(address(0)) */\n      jump\t// in\n    tag_158:\n        /* \"@openzeppelin/contracts/access/Ownable.sol\":2293:2394  function renounceOwnership() public virtual onlyOwner {... */\n      jump\t// out\n        /* \"src/ribbonVault1.sol\":4082:4174  function setPaymentDepositfees(uint _fee)public onlyOwner{... */\n    tag_76:\n        /* \"@openzeppelin/contracts/access/Ownable.sol\":1531:1544  _checkOwner() */\n      tag_161\n        /* \"@openzeppelin/contracts/access/Ownable.sol\":1531:1542  _checkOwner */\n      tag_144\n        /* \"@openzeppelin/contracts/access/Ownable.sol\":1531:1544  _checkOwner() */\n      jump\t// in\n    tag_161:\n        /* \"src/ribbonVault1.sol\":4149:4159  depositFee */\n      0x05\n        /* \"src/ribbonVault1.sol\":4149:4166  depositFee = _fee */\n      sstore\n        /* \"src/ribbonVault1.sol\":4082:4174  function setPaymentDepositfees(uint _fee)public onlyOwner{... */\n      jump\t// out\n        /* \"@openzeppelin/contracts/utils/cryptography/EIP712.sol\":5144:5701  function eip712Domain()... */\n    tag_78:\n        /* \"@openzeppelin/contracts/utils/cryptography/EIP712.sol\":5242:5255  bytes1 fields */\n      0x00\n        /* \"@openzeppelin/contracts/utils/cryptography/EIP712.sol\":5269:5287  string memory name */\n      0x60\n        /* \"@openzeppelin/contracts/utils/cryptography/EIP712.sol\":5301:5322  string memory version */\n      dup1\n        /* \"@openzeppelin/contracts/utils/cryptography/EIP712.sol\":5336:5351  uint256 chainId */\n      0x00\n        /* \"@openzeppelin/contracts/utils/cryptography/EIP712.sol\":5365:5390  address verifyingContract */\n      dup1\n        /* \"@openzeppelin/contracts/utils/cryptography/EIP712.sol\":5404:5416  bytes32 salt */\n      0x00\n        /* \"@openzeppelin/contracts/utils/cryptography/EIP712.sol\":5430:5457  uint256[] memory extensions */\n      0x60\n        /* \"@openzeppelin/contracts/utils/cryptography/EIP712.sol\":5533:5546  _EIP712Name() */\n      tag_164\n        /* \"@openzeppelin/contracts/utils/cryptography/EIP712.sol\":5533:5544  _EIP712Name */\n      tag_165\n        /* \"@openzeppelin/contracts/utils/cryptography/EIP712.sol\":5533:5546  _EIP712Name() */\n      jump\t// in\n    tag_164:\n        /* \"@openzeppelin/contracts/utils/cryptography/EIP712.sol\":5560:5576  _EIP712Version() */\n      tag_166\n        /* \"@openzeppelin/contracts/utils/cryptography/EIP712.sol\":5560:5574  _EIP712Version */\n      tag_167\n        /* \"@openzeppelin/contracts/utils/cryptography/EIP712.sol\":5560:5576  _EIP712Version() */\n      jump\t// in\n    tag_166:\n        /* \"@openzeppelin/contracts/utils/cryptography/EIP712.sol\":5668:5684  new uint256[](0) */\n      0x40\n      dup1\n      mload\n        /* \"@openzeppelin/contracts/utils/cryptography/EIP712.sol\":5652:5653  0 */\n      0x00\n        /* \"@openzeppelin/contracts/utils/cryptography/EIP712.sol\":5668:5684  new uint256[](0) */\n      dup1\n      dup3\n      mstore\n      0x20\n      dup3\n      add\n      swap1\n      swap3\n      mstore\n      shl(0xf8, 0x0f)\n        /* \"@openzeppelin/contracts/utils/cryptography/EIP712.sol\":5482:5694  return (... */\n      swap12\n      swap4\n      swap11\n      pop\n      swap2\n      swap9\n      pop\n        /* \"@openzeppelin/contracts/utils/cryptography/EIP712.sol\":5590:5603  block.chainid */\n      chainid\n      swap8\n      pop\n        /* \"@openzeppelin/contracts/utils/cryptography/EIP712.sol\":5625:5629  this */\n      address\n      swap7\n      pop\n        /* \"@openzeppelin/contracts/utils/cryptography/EIP712.sol\":5652:5653  0 */\n      swap5\n      pop\n        /* \"@openzeppelin/contracts/utils/cryptography/EIP712.sol\":5668:5684  new uint256[](0) */\n      swap3\n      pop\n        /* \"@openzeppelin/contracts/utils/cryptography/EIP712.sol\":5482:5694  return (... */\n      swap1\n      pop\n        /* \"@openzeppelin/contracts/utils/cryptography/EIP712.sol\":5144:5701  function eip712Domain()... */\n      jump\t// out\n        /* \"src/ribbonVault1.sol\":5170:5801  function withdrawfees(address feeTakerAddress) public onlyOwner{... */\n    tag_90:\n        /* \"@openzeppelin/contracts/access/Ownable.sol\":1531:1544  _checkOwner() */\n      tag_174\n        /* \"@openzeppelin/contracts/access/Ownable.sol\":1531:1542  _checkOwner */\n      tag_144\n        /* \"@openzeppelin/contracts/access/Ownable.sol\":1531:1544  _checkOwner() */\n      jump\t// in\n    tag_174:\n      sub(shl(0xa0, 0x01), 0x01)\n        /* \"src/ribbonVault1.sol\":5251:5280  feeTakerAddress != address(0) */\n      dup2\n      and\n        /* \"src/ribbonVault1.sol\":5243:5315  require(feeTakerAddress != address(0),\"you are sending to zero address\") */\n      tag_176\n      jumpi\n      mload(0x40)\n      shl(0xe5, 0x461bcd)\n      dup2\n      mstore\n      0x04\n      add\n      tag_177\n      swap1\n      tag_178\n      jump\t// in\n    tag_177:\n      mload(0x40)\n      dup1\n      swap2\n      sub\n      swap1\n      revert\n    tag_176:\n        /* \"src/ribbonVault1.sol\":5347:5360  _Ipaymentcoin */\n      sload(0x03)\n        /* \"src/ribbonVault1.sol\":5347:5385  _Ipaymentcoin.balanceOf(address(this)) */\n      mload(0x40)\n      shl(0xe0, 0x70a08231)\n      dup2\n      mstore\n        /* \"src/ribbonVault1.sol\":5379:5383  this */\n      address\n        /* \"src/ribbonVault1.sol\":5347:5385  _Ipaymentcoin.balanceOf(address(this)) */\n      0x04\n      dup3\n      add\n        /* \"#utility.yul\":3659:3710   */\n      mstore\n        /* \"src/ribbonVault1.sol\":5325:5345  uint contractBalance */\n      0x00\n      swap2\n      sub(shl(0xa0, 0x01), 0x01)\n        /* \"src/ribbonVault1.sol\":5347:5360  _Ipaymentcoin */\n      and\n      swap1\n        /* \"src/ribbonVault1.sol\":5347:5370  _Ipaymentcoin.balanceOf */\n      0x70a08231\n      swap1\n        /* \"#utility.yul\":3632:3650   */\n      0x24\n      add\n        /* \"src/ribbonVault1.sol\":5347:5385  _Ipaymentcoin.balanceOf(address(this)) */\n      0x20\n      mload(0x40)\n      dup1\n      dup4\n      sub\n      dup2\n      dup7\n      gas\n      staticcall\n      iszero\n      dup1\n      iszero\n      tag_181\n      jumpi\n      returndatasize\n      0x00\n      dup1\n      returndatacopy\n      revert(0x00, returndatasize)\n    tag_181:\n      pop\n      pop\n      pop\n      pop\n      mload(0x40)\n      returndatasize\n      not(0x1f)\n      0x1f\n      dup3\n      add\n      and\n      dup3\n      add\n      dup1\n      0x40\n      mstore\n      pop\n      dup2\n      add\n      swap1\n      tag_182\n      swap2\n      swap1\n      tag_183\n      jump\t// in\n    tag_182:\n        /* \"src/ribbonVault1.sol\":5325:5385  uint contractBalance =_Ipaymentcoin.balanceOf(address(this)) */\n      swap1\n      pop\n        /* \"src/ribbonVault1.sol\":5395:5416  uint balanceDeposited */\n      0x00\n        /* \"src/ribbonVault1.sol\":5492:5522  initContractBalancePaymentCoin */\n      sload(0x09)\n        /* \"src/ribbonVault1.sol\":5459:5488  TotalfeescollectedPaymentCoin */\n      sload(0x0b)\n        /* \"src/ribbonVault1.sol\":5438:5456  claimedPaymentCoin */\n      sload(0x0a)\n        /* \"src/ribbonVault1.sol\":5420:5435  contractBalance */\n      dup5\n        /* \"src/ribbonVault1.sol\":5420:5456  contractBalance + claimedPaymentCoin */\n      tag_184\n      swap2\n      swap1\n      tag_185\n      jump\t// in\n    tag_184:\n        /* \"src/ribbonVault1.sol\":5420:5488  contractBalance + claimedPaymentCoin + TotalfeescollectedPaymentCoin */\n      tag_186\n      swap2\n      swap1\n      tag_185\n      jump\t// in\n    tag_186:\n        /* \"src/ribbonVault1.sol\":5419:5522  (contractBalance + claimedPaymentCoin + TotalfeescollectedPaymentCoin) - initContractBalancePaymentCoin */\n      tag_187\n      swap2\n      swap1\n      tag_188\n      jump\t// in\n    tag_187:\n        /* \"src/ribbonVault1.sol\":5395:5522  uint balanceDeposited = (contractBalance + claimedPaymentCoin + TotalfeescollectedPaymentCoin) - initContractBalancePaymentCoin */\n      swap1\n      pop\n        /* \"src/ribbonVault1.sol\":5566:5582  balanceDeposited */\n      dup1\n        /* \"src/ribbonVault1.sol\":5532:5562  initContractBalancePaymentCoin */\n      0x09\n      0x00\n        /* \"src/ribbonVault1.sol\":5532:5582  initContractBalancePaymentCoin += balanceDeposited */\n      dup3\n      dup3\n      sload\n      tag_189\n      swap2\n      swap1\n      tag_185\n      jump\t// in\n    tag_189:\n      swap1\n      swap2\n      sstore\n      pop\n      pop\n        /* \"src/ribbonVault1.sol\":5622:5632  depositFee */\n      sload(0x05)\n        /* \"src/ribbonVault1.sol\":5592:5601  uint _fee */\n      0x00\n      swap1\n        /* \"src/ribbonVault1.sol\":5634:5637  100 */\n      0x64\n      swap1\n        /* \"src/ribbonVault1.sol\":5605:5632  balanceDeposited*depositFee */\n      tag_190\n      swap1\n        /* \"src/ribbonVault1.sol\":5605:5621  balanceDeposited */\n      dup5\n        /* \"src/ribbonVault1.sol\":5605:5632  balanceDeposited*depositFee */\n      tag_131\n      jump\t// in\n    tag_190:\n        /* \"src/ribbonVault1.sol\":5604:5637  (balanceDeposited*depositFee)/100 */\n      tag_191\n      swap2\n      swap1\n      tag_141\n      jump\t// in\n    tag_191:\n        /* \"src/ribbonVault1.sol\":5592:5637  uint _fee = (balanceDeposited*depositFee)/100 */\n      swap1\n      pop\n        /* \"src/ribbonVault1.sol\":5662:5663  0 */\n      0x00\n        /* \"src/ribbonVault1.sol\":5655:5659  _fee */\n      dup2\n        /* \"src/ribbonVault1.sol\":5655:5663  _fee > 0 */\n      gt\n        /* \"src/ribbonVault1.sol\":5647:5687  require(_fee > 0,\"no new deposit added\") */\n      tag_192\n      jumpi\n      mload(0x40)\n      shl(0xe5, 0x461bcd)\n      dup2\n      mstore\n        /* \"#utility.yul\":8457:8459   */\n      0x20\n        /* \"src/ribbonVault1.sol\":5647:5687  require(_fee > 0,\"no new deposit added\") */\n      0x04\n      dup3\n      add\n        /* \"#utility.yul\":8439:8460   */\n      mstore\n        /* \"#utility.yul\":8496:8498   */\n      0x14\n        /* \"#utility.yul\":8476:8494   */\n      0x24\n      dup3\n      add\n        /* \"#utility.yul\":8469:8499   */\n      mstore\n      shl(0x62, 0x1b9bc81b995dc819195c1bdcda5d081859191959)\n        /* \"#utility.yul\":8515:8533   */\n      0x44\n      dup3\n      add\n        /* \"#utility.yul\":8508:8558   */\n      mstore\n        /* \"#utility.yul\":8575:8593   */\n      0x64\n      add\n        /* \"src/ribbonVault1.sol\":5647:5687  require(_fee > 0,\"no new deposit added\") */\n      tag_177\n        /* \"#utility.yul\":8255:8599   */\n      jump\n        /* \"src/ribbonVault1.sol\":5647:5687  require(_fee > 0,\"no new deposit added\") */\n    tag_192:\n        /* \"src/ribbonVault1.sol\":5730:5734  _fee */\n      dup1\n        /* \"src/ribbonVault1.sol\":5697:5726  TotalfeescollectedPaymentCoin */\n      0x0b\n      0x00\n        /* \"src/ribbonVault1.sol\":5697:5734  TotalfeescollectedPaymentCoin += _fee */\n      dup3\n      dup3\n      sload\n      tag_195\n      swap2\n      swap1\n      tag_185\n      jump\t// in\n    tag_195:\n      swap1\n      swap2\n      sstore\n      pop\n      pop\n        /* \"src/ribbonVault1.sol\":5744:5758  _IpaymentcoinT */\n      sload(0x04)\n        /* \"src/ribbonVault1.sol\":5744:5793  _IpaymentcoinT.safeTransfer(feeTakerAddress,_fee) */\n      tag_196\n      swap1\n      sub(shl(0xa0, 0x01), 0x01)\n        /* \"src/ribbonVault1.sol\":5744:5758  _IpaymentcoinT */\n      and\n        /* \"src/ribbonVault1.sol\":5772:5787  feeTakerAddress */\n      dup6\n        /* \"src/ribbonVault1.sol\":5788:5792  _fee */\n      dup4\n        /* \"src/ribbonVault1.sol\":5744:5771  _IpaymentcoinT.safeTransfer */\n      tag_197\n        /* \"src/ribbonVault1.sol\":5744:5793  _IpaymentcoinT.safeTransfer(feeTakerAddress,_fee) */\n      jump\t// in\n    tag_196:\n        /* \"src/ribbonVault1.sol\":5233:5801  {... */\n      pop\n      pop\n      pop\n        /* \"src/ribbonVault1.sol\":5170:5801  function withdrawfees(address feeTakerAddress) public onlyOwner{... */\n      pop\n      jump\t// out\n        /* \"src/ribbonVault1.sol\":4232:4322  function setWithdrawalFee(uint _fee)public onlyOwner{... */\n    tag_93:\n        /* \"@openzeppelin/contracts/access/Ownable.sol\":1531:1544  _checkOwner() */\n      tag_199\n        /* \"@openzeppelin/contracts/access/Ownable.sol\":1531:1542  _checkOwner */\n      tag_144\n        /* \"@openzeppelin/contracts/access/Ownable.sol\":1531:1544  _checkOwner() */\n      jump\t// in\n    tag_199:\n        /* \"src/ribbonVault1.sol\":4294:4307  withdrawalFee */\n      0x07\n        /* \"src/ribbonVault1.sol\":4294:4314  withdrawalFee = _fee */\n      sstore\n        /* \"src/ribbonVault1.sol\":4232:4322  function setWithdrawalFee(uint _fee)public onlyOwner{... */\n      jump\t// out\n        /* \"src/ribbonVault1.sol\":4597:4706  function setMinPointsToSWap(uint _pointsMin)public onlyOwner{... */\n    tag_96:\n        /* \"@openzeppelin/contracts/access/Ownable.sol\":1531:1544  _checkOwner() */\n      tag_202\n        /* \"@openzeppelin/contracts/access/Ownable.sol\":1531:1542  _checkOwner */\n      tag_144\n        /* \"@openzeppelin/contracts/access/Ownable.sol\":1531:1544  _checkOwner() */\n      jump\t// in\n    tag_202:\n        /* \"src/ribbonVault1.sol\":4681:4698  _pointsMin*10**18 */\n      tag_204\n        /* \"src/ribbonVault1.sol\":4681:4691  _pointsMin */\n      dup2\n        /* \"src/ribbonVault1.sol\":4692:4698  10**18 */\n      0x0de0b6b3a7640000\n        /* \"src/ribbonVault1.sol\":4681:4698  _pointsMin*10**18 */\n      tag_131\n      jump\t// in\n    tag_204:\n        /* \"src/ribbonVault1.sol\":4669:4678  pointsMin */\n      0x08\n        /* \"src/ribbonVault1.sol\":4669:4698  pointsMin = _pointsMin*10**18 */\n      sstore\n      pop\n        /* \"src/ribbonVault1.sol\":4597:4706  function setMinPointsToSWap(uint _pointsMin)public onlyOwner{... */\n      jump\t// out\n        /* \"src/ribbonVault1.sol\":3835:4027  function setpaymentTokenAndpoints(address paymentAddress)public onlyOwner{... */\n    tag_102:\n        /* \"@openzeppelin/contracts/access/Ownable.sol\":1531:1544  _checkOwner() */\n      tag_206\n        /* \"@openzeppelin/contracts/access/Ownable.sol\":1531:1542  _checkOwner */\n      tag_144\n        /* \"@openzeppelin/contracts/access/Ownable.sol\":1531:1544  _checkOwner() */\n      jump\t// in\n    tag_206:\n        /* \"src/ribbonVault1.sol\":3918:3931  _Ipaymentcoin */\n      0x03\n        /* \"src/ribbonVault1.sol\":3918:3957  _Ipaymentcoin = IERC20T(paymentAddress) */\n      dup1\n      sload\n      sub(shl(0xa0, 0x01), 0x01)\n      swap1\n      swap3\n      and\n      not(sub(shl(0xa0, 0x01), 0x01))\n      swap3\n      dup4\n      and\n      dup2\n      or\n      swap1\n      swap2\n      sstore\n        /* \"src/ribbonVault1.sol\":3967:3981  _IpaymentcoinT */\n      0x04\n        /* \"src/ribbonVault1.sol\":3967:4006  _IpaymentcoinT = IERC20(paymentAddress) */\n      dup1\n      sload\n      swap1\n      swap3\n      and\n      or\n      swap1\n      sstore\n        /* \"src/ribbonVault1.sol\":3835:4027  function setpaymentTokenAndpoints(address paymentAddress)public onlyOwner{... */\n      jump\t// out\n        /* \"src/ribbonVault1.sol\":7039:7400  function emergencyWithdraw(address _tokenAddress,address _to,uint _amount )public onlyOwner{... */\n    tag_109:\n        /* \"@openzeppelin/contracts/access/Ownable.sol\":1531:1544  _checkOwner() */\n      tag_209\n        /* \"@openzeppelin/contracts/access/Ownable.sol\":1531:1542  _checkOwner */\n      tag_144\n        /* \"@openzeppelin/contracts/access/Ownable.sol\":1531:1544  _checkOwner() */\n      jump\t// in\n    tag_209:\n      sub(shl(0xa0, 0x01), 0x01)\n        /* \"src/ribbonVault1.sol\":7149:7176  _tokenAddress != address(0) */\n      dup4\n      and\n        /* \"src/ribbonVault1.sol\":7141:7211  require(_tokenAddress != address(0),\"you are sending to zero address\") */\n      tag_211\n      jumpi\n      mload(0x40)\n      shl(0xe5, 0x461bcd)\n      dup2\n      mstore\n      0x04\n      add\n      tag_177\n      swap1\n      tag_178\n      jump\t// in\n    tag_211:\n      sub(shl(0xa0, 0x01), 0x01)\n        /* \"src/ribbonVault1.sol\":7230:7247  _to != address(0) */\n      dup3\n      and\n        /* \"src/ribbonVault1.sol\":7222:7282  require(_to != address(0),\"you are sending to zero address\") */\n      tag_213\n      jumpi\n      mload(0x40)\n      shl(0xe5, 0x461bcd)\n      dup2\n      mstore\n      0x04\n      add\n      tag_177\n      swap1\n      tag_178\n      jump\t// in\n    tag_213:\n        /* \"src/ribbonVault1.sol\":7311:7312  0 */\n      0x00\n        /* \"src/ribbonVault1.sol\":7301:7308  _amount */\n      dup2\n        /* \"src/ribbonVault1.sol\":7301:7312  _amount > 0 */\n      gt\n        /* \"src/ribbonVault1.sol\":7293:7337  require(_amount > 0,\"cant send zero amount\") */\n      tag_215\n      jumpi\n      mload(0x40)\n      shl(0xe5, 0x461bcd)\n      dup2\n      mstore\n        /* \"#utility.yul\":8806:8808   */\n      0x20\n        /* \"src/ribbonVault1.sol\":7293:7337  require(_amount > 0,\"cant send zero amount\") */\n      0x04\n      dup3\n      add\n        /* \"#utility.yul\":8788:8809   */\n      mstore\n        /* \"#utility.yul\":8845:8847   */\n      0x15\n        /* \"#utility.yul\":8825:8843   */\n      0x24\n      dup3\n      add\n        /* \"#utility.yul\":8818:8848   */\n      mstore\n      shl(0x5a, 0x18d85b9d081cd95b99081e995c9bc8185b5bdd5b9d)\n        /* \"#utility.yul\":8864:8882   */\n      0x44\n      dup3\n      add\n        /* \"#utility.yul\":8857:8908   */\n      mstore\n        /* \"#utility.yul\":8925:8943   */\n      0x64\n      add\n        /* \"src/ribbonVault1.sol\":7293:7337  require(_amount > 0,\"cant send zero amount\") */\n      tag_177\n        /* \"#utility.yul\":8604:8949   */\n      jump\n        /* \"src/ribbonVault1.sol\":7293:7337  require(_amount > 0,\"cant send zero amount\") */\n    tag_215:\n        /* \"src/ribbonVault1.sol\":7348:7392  IERC20T(_tokenAddress).transfer(_to,_amount) */\n      mload(0x40)\n      shl(0xe0, 0xa9059cbb)\n      dup2\n      mstore\n      sub(shl(0xa0, 0x01), 0x01)\n        /* \"#utility.yul\":9146:9178   */\n      dup4\n      dup2\n      and\n        /* \"src/ribbonVault1.sol\":7348:7392  IERC20T(_tokenAddress).transfer(_to,_amount) */\n      0x04\n      dup4\n      add\n        /* \"#utility.yul\":9128:9179   */\n      mstore\n        /* \"#utility.yul\":9195:9213   */\n      0x24\n      dup3\n      add\n        /* \"#utility.yul\":9188:9222   */\n      dup4\n      swap1\n      mstore\n        /* \"src/ribbonVault1.sol\":7348:7379  IERC20T(_tokenAddress).transfer */\n      dup5\n      and\n      swap1\n      0xa9059cbb\n      swap1\n        /* \"#utility.yul\":9101:9119   */\n      0x44\n      add\n        /* \"src/ribbonVault1.sol\":7348:7392  IERC20T(_tokenAddress).transfer(_to,_amount) */\n      0x20\n      mload(0x40)\n      dup1\n      dup4\n      sub\n      dup2\n      0x00\n      dup8\n      gas\n      call\n      iszero\n      dup1\n      iszero\n      tag_221\n      jumpi\n      returndatasize\n      0x00\n      dup1\n      returndatacopy\n      revert(0x00, returndatasize)\n    tag_221:\n      pop\n      pop\n      pop\n      pop\n      mload(0x40)\n      returndatasize\n      not(0x1f)\n      0x1f\n      dup3\n      add\n      and\n      dup3\n      add\n      dup1\n      0x40\n      mstore\n      pop\n      dup2\n      add\n      swap1\n      tag_196\n      swap2\n      swap1\n      tag_223\n      jump\t// in\n        /* \"@openzeppelin/contracts/access/Ownable.sol\":2543:2758  function transferOwnership(address newOwner) public virtual onlyOwner {... */\n    tag_112:\n        /* \"@openzeppelin/contracts/access/Ownable.sol\":1531:1544  _checkOwner() */\n      tag_225\n        /* \"@openzeppelin/contracts/access/Ownable.sol\":1531:1542  _checkOwner */\n      tag_144\n        /* \"@openzeppelin/contracts/access/Ownable.sol\":1531:1544  _checkOwner() */\n      jump\t// in\n    tag_225:\n      sub(shl(0xa0, 0x01), 0x01)\n        /* \"@openzeppelin/contracts/access/Ownable.sol\":2627:2649  newOwner == address(0) */\n      dup2\n      and\n        /* \"@openzeppelin/contracts/access/Ownable.sol\":2623:2714  if (newOwner == address(0)) {... */\n      tag_227\n      jumpi\n        /* \"@openzeppelin/contracts/access/Ownable.sol\":2672:2703  OwnableInvalidOwner(address(0)) */\n      mload(0x40)\n      shl(0xe0, 0x1e4fbdf7)\n      dup2\n      mstore\n        /* \"@openzeppelin/contracts/access/Ownable.sol\":2700:2701  0 */\n      0x00\n        /* \"@openzeppelin/contracts/access/Ownable.sol\":2672:2703  OwnableInvalidOwner(address(0)) */\n      0x04\n      dup3\n      add\n        /* \"#utility.yul\":3659:3710   */\n      mstore\n        /* \"#utility.yul\":3632:3650   */\n      0x24\n      add\n        /* \"@openzeppelin/contracts/access/Ownable.sol\":2672:2703  OwnableInvalidOwner(address(0)) */\n      tag_177\n        /* \"#utility.yul\":3513:3716   */\n      jump\n        /* \"@openzeppelin/contracts/access/Ownable.sol\":2623:2714  if (newOwner == address(0)) {... */\n    tag_227:\n        /* \"@openzeppelin/contracts/access/Ownable.sol\":2723:2751  _transferOwnership(newOwner) */\n      tag_229\n        /* \"@openzeppelin/contracts/access/Ownable.sol\":2742:2750  newOwner */\n      dup2\n        /* \"@openzeppelin/contracts/access/Ownable.sol\":2723:2741  _transferOwnership */\n      tag_159\n        /* \"@openzeppelin/contracts/access/Ownable.sol\":2723:2751  _transferOwnership(newOwner) */\n      jump\t// in\n    tag_229:\n        /* \"@openzeppelin/contracts/access/Ownable.sol\":2543:2758  function transferOwnership(address newOwner) public virtual onlyOwner {... */\n      pop\n      jump\t// out\n        /* \"src/ribbonVault1.sol\":6032:6926  function permitSwapToPaymentCoin(address user,uint pointToSwap,uint256 deadline,uint8 v,bytes32 r,bytes32 s)public {... */\n    tag_119:\n      sub(shl(0xa0, 0x01), 0x01)\n        /* \"src/ribbonVault1.sol\":6166:6184  user != address(0) */\n      dup7\n      and\n        /* \"src/ribbonVault1.sol\":6158:6219  require(user != address(0),\"you are sending to zero address\") */\n      tag_231\n      jumpi\n      mload(0x40)\n      shl(0xe5, 0x461bcd)\n      dup2\n      mstore\n      0x04\n      add\n      tag_177\n      swap1\n      tag_178\n      jump\t// in\n    tag_231:\n        /* \"src/ribbonVault1.sol\":6230:6270  _permit(user,pointToSwap,deadline,v,r,s) */\n      tag_233\n        /* \"src/ribbonVault1.sol\":6238:6242  user */\n      dup7\n        /* \"src/ribbonVault1.sol\":6243:6254  pointToSwap */\n      dup7\n        /* \"src/ribbonVault1.sol\":6255:6263  deadline */\n      dup7\n        /* \"src/ribbonVault1.sol\":6264:6265  v */\n      dup7\n        /* \"src/ribbonVault1.sol\":6266:6267  r */\n      dup7\n        /* \"src/ribbonVault1.sol\":6268:6269  s */\n      dup7\n        /* \"src/ribbonVault1.sol\":6230:6237  _permit */\n      tag_234\n        /* \"src/ribbonVault1.sol\":6230:6270  _permit(user,pointToSwap,deadline,v,r,s) */\n      jump\t// in\n    tag_233:\n        /* \"src/ribbonVault1.sol\":6289:6301  freezePermit */\n      sload(0x0d)\n      shl(0xa0, 0x01)\n      swap1\n      div\n      0xff\n      and\n        /* \"src/ribbonVault1.sol\":6289:6308  freezePermit==false */\n      iszero\n        /* \"src/ribbonVault1.sol\":6281:6328  require(freezePermit==false,\"contract freezed\") */\n      tag_235\n      jumpi\n      mload(0x40)\n      shl(0xe5, 0x461bcd)\n      dup2\n      mstore\n        /* \"#utility.yul\":9685:9687   */\n      0x20\n        /* \"src/ribbonVault1.sol\":6281:6328  require(freezePermit==false,\"contract freezed\") */\n      0x04\n      dup3\n      add\n        /* \"#utility.yul\":9667:9688   */\n      mstore\n        /* \"#utility.yul\":9724:9726   */\n      0x10\n        /* \"#utility.yul\":9704:9722   */\n      0x24\n      dup3\n      add\n        /* \"#utility.yul\":9697:9727   */\n      mstore\n      shl(0x82, 0x18dbdb9d1c9858dd08199c99595e9959)\n        /* \"#utility.yul\":9743:9761   */\n      0x44\n      dup3\n      add\n        /* \"#utility.yul\":9736:9782   */\n      mstore\n        /* \"#utility.yul\":9799:9817   */\n      0x64\n      add\n        /* \"src/ribbonVault1.sol\":6281:6328  require(freezePermit==false,\"contract freezed\") */\n      tag_177\n        /* \"#utility.yul\":9483:9823   */\n      jump\n        /* \"src/ribbonVault1.sol\":6281:6328  require(freezePermit==false,\"contract freezed\") */\n    tag_235:\n        /* \"src/ribbonVault1.sol\":6447:6456  pointsMin */\n      sload(0x08)\n        /* \"src/ribbonVault1.sol\":6432:6443  pointToSwap */\n      dup6\n        /* \"src/ribbonVault1.sol\":6432:6456  pointToSwap >= pointsMin */\n      lt\n      iszero\n        /* \"src/ribbonVault1.sol\":6424:6494  require(pointToSwap >= pointsMin,\"points to swap less than minpoints\") */\n      tag_238\n      jumpi\n      mload(0x40)\n      shl(0xe5, 0x461bcd)\n      dup2\n      mstore\n        /* \"#utility.yul\":10030:10032   */\n      0x20\n        /* \"src/ribbonVault1.sol\":6424:6494  require(pointToSwap >= pointsMin,\"points to swap less than minpoints\") */\n      0x04\n      dup3\n      add\n        /* \"#utility.yul\":10012:10033   */\n      mstore\n        /* \"#utility.yul\":10069:10071   */\n      0x22\n        /* \"#utility.yul\":10049:10067   */\n      0x24\n      dup3\n      add\n        /* \"#utility.yul\":10042:10072   */\n      mstore\n        /* \"#utility.yul\":10108:10142   */\n      0x706f696e747320746f2073776170206c657373207468616e206d696e706f696e\n        /* \"#utility.yul\":10088:10106   */\n      0x44\n      dup3\n      add\n        /* \"#utility.yul\":10081:10143   */\n      mstore\n      shl(0xf0, 0x7473)\n        /* \"#utility.yul\":10159:10177   */\n      0x64\n      dup3\n      add\n        /* \"#utility.yul\":10152:10184   */\n      mstore\n        /* \"#utility.yul\":10201:10220   */\n      0x84\n      add\n        /* \"src/ribbonVault1.sol\":6424:6494  require(pointToSwap >= pointsMin,\"points to swap less than minpoints\") */\n      tag_177\n        /* \"#utility.yul\":9828:10226   */\n      jump\n        /* \"src/ribbonVault1.sol\":6424:6494  require(pointToSwap >= pointsMin,\"points to swap less than minpoints\") */\n    tag_238:\n        /* \"src/ribbonVault1.sol\":6505:6516  uint amount */\n      0x00\n        /* \"src/ribbonVault1.sol\":6519:6551  checkAmountToRecive(pointToSwap) */\n      tag_241\n        /* \"src/ribbonVault1.sol\":6539:6550  pointToSwap */\n      dup7\n        /* \"src/ribbonVault1.sol\":6519:6538  checkAmountToRecive */\n      tag_45\n        /* \"src/ribbonVault1.sol\":6519:6551  checkAmountToRecive(pointToSwap) */\n      jump\t// in\n    tag_241:\n        /* \"src/ribbonVault1.sol\":6505:6551  uint amount = checkAmountToRecive(pointToSwap) */\n      swap1\n      pop\n        /* \"src/ribbonVault1.sol\":6584:6590  amount */\n      dup1\n        /* \"src/ribbonVault1.sol\":6562:6580  claimedPaymentCoin */\n      0x0a\n      0x00\n        /* \"src/ribbonVault1.sol\":6562:6590  claimedPaymentCoin += amount */\n      dup3\n      dup3\n      sload\n      tag_242\n      swap2\n      swap1\n      tag_185\n      jump\t// in\n    tag_242:\n      swap1\n      swap2\n      sstore\n      pop\n      pop\n        /* \"src/ribbonVault1.sol\":6621:6634  withdrawalFee */\n      sload(0x07)\n        /* \"src/ribbonVault1.sol\":6601:6610  uint _fee */\n      0x00\n      swap1\n        /* \"src/ribbonVault1.sol\":6636:6639  100 */\n      0x64\n      swap1\n        /* \"src/ribbonVault1.sol\":6614:6634  amount*withdrawalFee */\n      tag_243\n      swap1\n        /* \"src/ribbonVault1.sol\":6614:6620  amount */\n      dup5\n        /* \"src/ribbonVault1.sol\":6614:6634  amount*withdrawalFee */\n      tag_131\n      jump\t// in\n    tag_243:\n        /* \"src/ribbonVault1.sol\":6613:6639  (amount*withdrawalFee)/100 */\n      tag_244\n      swap2\n      swap1\n      tag_141\n      jump\t// in\n    tag_244:\n        /* \"src/ribbonVault1.sol\":6601:6639  uint _fee = (amount*withdrawalFee)/100 */\n      swap1\n      pop\n        /* \"src/ribbonVault1.sol\":6650:6668  uint amoutAfterFee */\n      0x00\n        /* \"src/ribbonVault1.sol\":6671:6683  amount -_fee */\n      tag_245\n        /* \"src/ribbonVault1.sol\":6601:6639  uint _fee = (amount*withdrawalFee)/100 */\n      dup3\n        /* \"src/ribbonVault1.sol\":6671:6677  amount */\n      dup5\n        /* \"src/ribbonVault1.sol\":6671:6683  amount -_fee */\n      tag_188\n      jump\t// in\n    tag_245:\n        /* \"src/ribbonVault1.sol\":6743:6757  _IpaymentcoinT */\n      sload(0x04)\n        /* \"src/ribbonVault1.sol\":6650:6683  uint amoutAfterFee = amount -_fee */\n      swap1\n      swap2\n      pop\n        /* \"src/ribbonVault1.sol\":6743:6790  _IpaymentcoinT.safeTransfer(user,amoutAfterFee) */\n      tag_246\n      swap1\n      sub(shl(0xa0, 0x01), 0x01)\n        /* \"src/ribbonVault1.sol\":6743:6757  _IpaymentcoinT */\n      and\n        /* \"src/ribbonVault1.sol\":6771:6775  user */\n      dup11\n        /* \"src/ribbonVault1.sol\":6650:6683  uint amoutAfterFee = amount -_fee */\n      dup4\n        /* \"src/ribbonVault1.sol\":6743:6770  _IpaymentcoinT.safeTransfer */\n      tag_197\n        /* \"src/ribbonVault1.sol\":6743:6790  _IpaymentcoinT.safeTransfer(user,amoutAfterFee) */\n      jump\t// in\n    tag_246:\n        /* \"src/ribbonVault1.sol\":6801:6815  _IpaymentcoinT */\n      sload(0x04)\n        /* \"src/ribbonVault1.sol\":6801:6845  _IpaymentcoinT.safeTransfer(msg.sender,_fee) */\n      tag_247\n      swap1\n      sub(shl(0xa0, 0x01), 0x01)\n        /* \"src/ribbonVault1.sol\":6801:6815  _IpaymentcoinT */\n      and\n        /* \"src/ribbonVault1.sol\":6829:6839  msg.sender */\n      caller\n        /* \"src/ribbonVault1.sol\":6840:6844  _fee */\n      dup5\n        /* \"src/ribbonVault1.sol\":6801:6828  _IpaymentcoinT.safeTransfer */\n      tag_197\n        /* \"src/ribbonVault1.sol\":6801:6845  _IpaymentcoinT.safeTransfer(msg.sender,_fee) */\n      jump\t// in\n    tag_247:\n        /* \"src/ribbonVault1.sol\":6861:6918  swap(user,block.timestamp,pointToSwap,amoutAfterFee,_fee) */\n      0x40\n      dup1\n      mload\n        /* \"#utility.yul\":10433:10458   */\n      dup10\n      dup2\n      mstore\n        /* \"#utility.yul\":10489:10491   */\n      0x20\n        /* \"#utility.yul\":10474:10492   */\n      dup2\n      add\n        /* \"#utility.yul\":10467:10501   */\n      dup4\n      swap1\n      mstore\n        /* \"#utility.yul\":10517:10535   */\n      swap1\n      dup2\n      add\n        /* \"#utility.yul\":10510:10544   */\n      dup4\n      swap1\n      mstore\n        /* \"src/ribbonVault1.sol\":6871:6886  block.timestamp */\n      timestamp\n      swap1\n      sub(shl(0xa0, 0x01), 0x01)\n        /* \"src/ribbonVault1.sol\":6861:6918  swap(user,block.timestamp,pointToSwap,amoutAfterFee,_fee) */\n      dup12\n      and\n      swap1\n      0x9a5f60e59cc27a7c25a7f78275c910454cd9adacb21cecff527c98ed63e02877\n      swap1\n        /* \"#utility.yul\":10421:10423   */\n      0x60\n        /* \"#utility.yul\":10406:10424   */\n      add\n        /* \"src/ribbonVault1.sol\":6861:6918  swap(user,block.timestamp,pointToSwap,amoutAfterFee,_fee) */\n      mload(0x40)\n      dup1\n      swap2\n      sub\n      swap1\n      log3\n        /* \"src/ribbonVault1.sol\":6147:6926  {... */\n      pop\n      pop\n      pop\n        /* \"src/ribbonVault1.sol\":6032:6926  function permitSwapToPaymentCoin(address user,uint pointToSwap,uint256 deadline,uint8 v,bytes32 r,bytes32 s)public {... */\n      pop\n      pop\n      pop\n      pop\n      pop\n      pop\n      jump\t// out\n        /* \"@openzeppelin/contracts/access/Ownable.sol\":1796:1958  function _checkOwner() internal view virtual {... */\n    tag_144:\n        /* \"@openzeppelin/contracts/access/Ownable.sol\":1684:1691  address */\n      0x00\n        /* \"@openzeppelin/contracts/access/Ownable.sol\":1710:1716  _owner */\n      sload\n      sub(shl(0xa0, 0x01), 0x01)\n      and\n        /* \"@openzeppelin/contracts/utils/Context.sol\":735:745  msg.sender */\n      caller\n        /* \"@openzeppelin/contracts/access/Ownable.sol\":1855:1878  owner() != _msgSender() */\n      eq\n        /* \"@openzeppelin/contracts/access/Ownable.sol\":1851:1952  if (owner() != _msgSender()) {... */\n      tag_158\n      jumpi\n        /* \"@openzeppelin/contracts/access/Ownable.sol\":1901:1941  OwnableUnauthorizedAccount(_msgSender()) */\n      mload(0x40)\n      shl(0xe0, 0x118cdaa7)\n      dup2\n      mstore\n        /* \"@openzeppelin/contracts/utils/Context.sol\":735:745  msg.sender */\n      caller\n        /* \"@openzeppelin/contracts/access/Ownable.sol\":1901:1941  OwnableUnauthorizedAccount(_msgSender()) */\n      0x04\n      dup3\n      add\n        /* \"#utility.yul\":3659:3710   */\n      mstore\n        /* \"#utility.yul\":3632:3650   */\n      0x24\n      add\n        /* \"@openzeppelin/contracts/access/Ownable.sol\":1901:1941  OwnableUnauthorizedAccount(_msgSender()) */\n      tag_177\n        /* \"#utility.yul\":3513:3716   */\n      jump\n        /* \"@openzeppelin/contracts/utils/cryptography/EIP712.sol\":3845:4107  function _domainSeparatorV4() internal view returns (bytes32) {... */\n    tag_148:\n        /* \"@openzeppelin/contracts/utils/cryptography/EIP712.sol\":3898:3905  bytes32 */\n      0x00\n        /* \"@openzeppelin/contracts/utils/cryptography/EIP712.sol\":3929:3933  this */\n      address\n      sub(shl(0xa0, 0x01), 0x01)\n        /* \"@openzeppelin/contracts/utils/cryptography/EIP712.sol\":3938:3949  _cachedThis */\n      immutable(\"0x03bb33715397e0038c873ba02d4426eebb2b65cc3940a0fa71a481a9b37d980d\")\n        /* \"@openzeppelin/contracts/utils/cryptography/EIP712.sol\":3921:3949  address(this) == _cachedThis */\n      and\n      eq\n        /* \"@openzeppelin/contracts/utils/cryptography/EIP712.sol\":3921:3984  address(this) == _cachedThis && block.chainid == _cachedChainId */\n      dup1\n      iszero\n      tag_258\n      jumpi\n      pop\n        /* \"@openzeppelin/contracts/utils/cryptography/EIP712.sol\":3970:3984  _cachedChainId */\n      immutable(\"0xbe147d0aaf628bab5d3600ba0e8222c4d7f0eec30321d0b98d9f641634fbb471\")\n        /* \"@openzeppelin/contracts/utils/cryptography/EIP712.sol\":3953:3966  block.chainid */\n      chainid\n        /* \"@openzeppelin/contracts/utils/cryptography/EIP712.sol\":3953:3984  block.chainid == _cachedChainId */\n      eq\n        /* \"@openzeppelin/contracts/utils/cryptography/EIP712.sol\":3921:3984  address(this) == _cachedThis && block.chainid == _cachedChainId */\n    tag_258:\n        /* \"@openzeppelin/contracts/utils/cryptography/EIP712.sol\":3917:4101  if (address(this) == _cachedThis && block.chainid == _cachedChainId) {... */\n      iszero\n      tag_259\n      jumpi\n      pop\n        /* \"@openzeppelin/contracts/utils/cryptography/EIP712.sol\":4007:4029  _cachedDomainSeparator */\n      immutable(\"0xa1c879b0284e72931b8cd098e080355084a332f82e911af96b3055fa2035b7e8\")\n      swap1\n        /* \"@openzeppelin/contracts/utils/cryptography/EIP712.sol\":3845:4107  function _domainSeparatorV4() internal view returns (bytes32) {... */\n      jump\t// out\n        /* \"@openzeppelin/contracts/utils/cryptography/EIP712.sol\":3917:4101  if (address(this) == _cachedThis && block.chainid == _cachedChainId) {... */\n    tag_259:\n        /* \"@openzeppelin/contracts/utils/cryptography/EIP712.sol\":4067:4090  _buildDomainSeparator() */\n      tag_147\n        /* \"@openzeppelin/contracts/utils/cryptography/EIP712.sol\":4204:4284  abi.encode(TYPE_HASH, _hashedName, _hashedVersion, block.chainid, address(this)) */\n      0x40\n      dup1\n      mload\n        /* \"@openzeppelin/contracts/utils/cryptography/EIP712.sol\":2079:2174  keccak256(\"EIP712Domain(string name,string version,uint256 chainId,address verifyingContract)\") */\n      0x8b73c3c69bb8fe3d512ecc4cf759cc79239f7b179b0ffacaa9a75d522b39400f\n        /* \"@openzeppelin/contracts/utils/cryptography/EIP712.sol\":4204:4284  abi.encode(TYPE_HASH, _hashedName, _hashedVersion, block.chainid, address(this)) */\n      0x20\n      dup3\n      add\n        /* \"#utility.yul\":11983:12008   */\n      mstore\n        /* \"@openzeppelin/contracts/utils/cryptography/EIP712.sol\":4226:4237  _hashedName */\n      immutable(\"0xdd8b51ee9128c681fbd81845dd6426716fdc986a3bb51fedf5af16f35ac2adb3\")\n        /* \"#utility.yul\":12024:12042   */\n      swap2\n      dup2\n      add\n        /* \"#utility.yul\":12017:12051   */\n      swap2\n      swap1\n      swap2\n      mstore\n        /* \"@openzeppelin/contracts/utils/cryptography/EIP712.sol\":4239:4253  _hashedVersion */\n      immutable(\"0x5a51cac41fe69f71b7795862cc646f7451dfff9d51b9de6ea410fc434c56d513\")\n        /* \"#utility.yul\":12067:12085   */\n      0x60\n      dup3\n      add\n        /* \"#utility.yul\":12060:12094   */\n      mstore\n        /* \"@openzeppelin/contracts/utils/cryptography/EIP712.sol\":4255:4268  block.chainid */\n      chainid\n        /* \"#utility.yul\":12110:12128   */\n      0x80\n      dup3\n      add\n        /* \"#utility.yul\":12103:12137   */\n      mstore\n        /* \"@openzeppelin/contracts/utils/cryptography/EIP712.sol\":4278:4282  this */\n      address\n        /* \"#utility.yul\":12153:12172   */\n      0xa0\n      dup3\n      add\n        /* \"#utility.yul\":12146:12207   */\n      mstore\n        /* \"@openzeppelin/contracts/utils/cryptography/EIP712.sol\":4168:4175  bytes32 */\n      0x00\n      swap1\n        /* \"#utility.yul\":11955:11974   */\n      0xc0\n      add\n        /* \"@openzeppelin/contracts/utils/cryptography/EIP712.sol\":4204:4284  abi.encode(TYPE_HASH, _hashedName, _hashedVersion, block.chainid, address(this)) */\n      mload(0x40)\n      0x20\n      dup2\n      dup4\n      sub\n      sub\n      dup2\n      mstore\n      swap1\n      0x40\n      mstore\n        /* \"@openzeppelin/contracts/utils/cryptography/EIP712.sol\":4194:4285  keccak256(abi.encode(TYPE_HASH, _hashedName, _hashedVersion, block.chainid, address(this))) */\n      dup1\n      mload\n      swap1\n      0x20\n      add\n      keccak256\n        /* \"@openzeppelin/contracts/utils/cryptography/EIP712.sol\":4187:4285  return keccak256(abi.encode(TYPE_HASH, _hashedName, _hashedVersion, block.chainid, address(this))) */\n      swap1\n      pop\n        /* \"@openzeppelin/contracts/utils/cryptography/EIP712.sol\":4113:4292  function _buildDomainSeparator() private view returns (bytes32) {... */\n      swap1\n      jump\n        /* \"@openzeppelin/contracts/access/Ownable.sol\":2912:3099  function _transferOwnership(address newOwner) internal virtual {... */\n    tag_159:\n        /* \"@openzeppelin/contracts/access/Ownable.sol\":2985:3001  address oldOwner */\n      0x00\n        /* \"@openzeppelin/contracts/access/Ownable.sol\":3004:3010  _owner */\n      dup1\n      sload\n      sub(shl(0xa0, 0x01), 0x01)\n        /* \"@openzeppelin/contracts/access/Ownable.sol\":3020:3037  _owner = newOwner */\n      dup4\n      dup2\n      and\n      not(sub(shl(0xa0, 0x01), 0x01))\n      dup4\n      and\n      dup2\n      or\n      dup5\n      sstore\n        /* \"@openzeppelin/contracts/access/Ownable.sol\":3052:3092  OwnershipTransferred(oldOwner, newOwner) */\n      mload(0x40)\n        /* \"@openzeppelin/contracts/access/Ownable.sol\":3004:3010  _owner */\n      swap2\n      swap1\n      swap3\n      and\n      swap3\n      dup4\n      swap2\n        /* \"@openzeppelin/contracts/access/Ownable.sol\":3052:3092  OwnershipTransferred(oldOwner, newOwner) */\n      0x8be0079c531659141344cd1fd0a4f28419497f9722a3daafe3b4186f6b6457e0\n      swap2\n        /* \"@openzeppelin/contracts/access/Ownable.sol\":2985:3001  address oldOwner */\n      swap1\n        /* \"@openzeppelin/contracts/access/Ownable.sol\":3052:3092  OwnershipTransferred(oldOwner, newOwner) */\n      log3\n        /* \"@openzeppelin/contracts/access/Ownable.sol\":2975:3099  {... */\n      pop\n        /* \"@openzeppelin/contracts/access/Ownable.sol\":2912:3099  function _transferOwnership(address newOwner) internal virtual {... */\n      pop\n      jump\t// out\n        /* \"@openzeppelin/contracts/utils/cryptography/EIP712.sol\":6021:6147  function _EIP712Name() internal view returns (string memory) {... */\n    tag_165:\n        /* \"@openzeppelin/contracts/utils/cryptography/EIP712.sol\":6067:6080  string memory */\n      0x60\n        /* \"@openzeppelin/contracts/utils/cryptography/EIP712.sol\":6099:6140  _name.toStringWithFallback(_nameFallback) */\n      tag_147\n        /* \"@openzeppelin/contracts/utils/cryptography/EIP712.sol\":6099:6104  _name */\n      immutable(\"0xeaf32fa183047e964e285a9ee962816e722361d0ef19b580cefefec39cdc1e6b\")\n        /* \"@openzeppelin/contracts/utils/cryptography/EIP712.sol\":6126:6139  _nameFallback */\n      0x01\n        /* \"@openzeppelin/contracts/utils/cryptography/EIP712.sol\":6099:6125  _name.toStringWithFallback */\n      tag_266\n        /* \"@openzeppelin/contracts/utils/cryptography/EIP712.sol\":6099:6140  _name.toStringWithFallback(_nameFallback) */\n      jump\t// in\n        /* \"@openzeppelin/contracts/utils/cryptography/EIP712.sol\":6473:6608  function _EIP712Version() internal view returns (string memory) {... */\n    tag_167:\n        /* \"@openzeppelin/contracts/utils/cryptography/EIP712.sol\":6522:6535  string memory */\n      0x60\n        /* \"@openzeppelin/contracts/utils/cryptography/EIP712.sol\":6554:6601  _version.toStringWithFallback(_versionFallback) */\n      tag_147\n        /* \"@openzeppelin/contracts/utils/cryptography/EIP712.sol\":6554:6562  _version */\n      immutable(\"0xf8488ee4284bdfced5e7ecbb6b2116f40bc259e448370e3da8f991f5c7e11002\")\n        /* \"@openzeppelin/contracts/utils/cryptography/EIP712.sol\":6584:6600  _versionFallback */\n      0x02\n        /* \"@openzeppelin/contracts/utils/cryptography/EIP712.sol\":6554:6583  _version.toStringWithFallback */\n      tag_266\n        /* \"@openzeppelin/contracts/utils/cryptography/EIP712.sol\":6554:6601  _version.toStringWithFallback(_versionFallback) */\n      jump\t// in\n        /* \"@openzeppelin/contracts/token/ERC20/utils/SafeERC20.sol\":1303:1463  function safeTransfer(IERC20 token, address to, uint256 value) internal {... */\n    tag_197:\n        /* \"@openzeppelin/contracts/token/ERC20/utils/SafeERC20.sol\":1412:1455  abi.encodeCall(token.transfer, (to, value)) */\n      0x40\n      dup1\n      mload\n      sub(shl(0xa0, 0x01), 0x01)\n        /* \"#utility.yul\":9146:9178   */\n      dup5\n      and\n        /* \"@openzeppelin/contracts/token/ERC20/utils/SafeERC20.sol\":1412:1455  abi.encodeCall(token.transfer, (to, value)) */\n      0x24\n      dup3\n      add\n        /* \"#utility.yul\":9128:9179   */\n      mstore\n        /* \"#utility.yul\":9195:9213   */\n      0x44\n      dup1\n      dup3\n      add\n        /* \"#utility.yul\":9188:9222   */\n      dup5\n      swap1\n      mstore\n        /* \"@openzeppelin/contracts/token/ERC20/utils/SafeERC20.sol\":1412:1455  abi.encodeCall(token.transfer, (to, value)) */\n      dup3\n      mload\n      dup1\n      dup4\n      sub\n      swap1\n      swap2\n      add\n      dup2\n      mstore\n        /* \"#utility.yul\":9101:9119   */\n      0x64\n      swap1\n      swap2\n      add\n        /* \"@openzeppelin/contracts/token/ERC20/utils/SafeERC20.sol\":1412:1455  abi.encodeCall(token.transfer, (to, value)) */\n      swap1\n      swap2\n      mstore\n      0x20\n      dup2\n      add\n      dup1\n      mload\n      sub(shl(0xe0, 0x01), 0x01)\n      and\n      shl(0xe0, 0xa9059cbb)\n      or\n      swap1\n      mstore\n        /* \"@openzeppelin/contracts/token/ERC20/utils/SafeERC20.sol\":1385:1456  _callOptionalReturn(token, abi.encodeCall(token.transfer, (to, value))) */\n      tag_270\n      swap1\n        /* \"@openzeppelin/contracts/token/ERC20/utils/SafeERC20.sol\":1405:1410  token */\n      dup5\n      swap1\n        /* \"@openzeppelin/contracts/token/ERC20/utils/SafeERC20.sol\":1385:1404  _callOptionalReturn */\n      tag_272\n        /* \"@openzeppelin/contracts/token/ERC20/utils/SafeERC20.sol\":1385:1456  _callOptionalReturn(token, abi.encodeCall(token.transfer, (to, value))) */\n      jump\t// in\n    tag_270:\n        /* \"@openzeppelin/contracts/token/ERC20/utils/SafeERC20.sol\":1303:1463  function safeTransfer(IERC20 token, address to, uint256 value) internal {... */\n      pop\n      pop\n      pop\n      jump\t// out\n        /* \"src/ribbonVault1.sol\":7701:8542  function _permit(... */\n    tag_234:\n        /* \"src/ribbonVault1.sol\":7969:7977  sig_v[v] */\n      0xff\n      dup1\n      dup5\n      and\n      0x00\n      swap1\n      dup2\n      mstore\n        /* \"src/ribbonVault1.sol\":7969:7974  sig_v */\n      0x0e\n        /* \"src/ribbonVault1.sol\":7969:7977  sig_v[v] */\n      0x20\n      mstore\n      0x40\n      swap1\n      keccak256\n      sload\n      and\n        /* \"src/ribbonVault1.sol\":7969:7984  sig_v[v]==false */\n      iszero\n      dup1\n        /* \"src/ribbonVault1.sol\":7969:8005  sig_v[v]==false || sig_r[r] == false */\n      tag_274\n      jumpi\n      pop\n        /* \"src/ribbonVault1.sol\":7988:7996  sig_r[r] */\n      0x00\n      dup3\n      dup2\n      mstore\n        /* \"src/ribbonVault1.sol\":7988:7993  sig_r */\n      0x0f\n        /* \"src/ribbonVault1.sol\":7988:7996  sig_r[r] */\n      0x20\n      mstore\n      0x40\n      swap1\n      keccak256\n      sload\n      0xff\n      and\n        /* \"src/ribbonVault1.sol\":7988:8005  sig_r[r] == false */\n      iszero\n        /* \"src/ribbonVault1.sol\":7969:8005  sig_v[v]==false || sig_r[r] == false */\n    tag_274:\n        /* \"src/ribbonVault1.sol\":7969:8024  sig_v[v]==false || sig_r[r] == false || sig_s[s]==false */\n      dup1\n      tag_275\n      jumpi\n      pop\n        /* \"src/ribbonVault1.sol\":8009:8017  sig_s[s] */\n      0x00\n      dup2\n      dup2\n      mstore\n        /* \"src/ribbonVault1.sol\":8009:8014  sig_s */\n      0x10\n        /* \"src/ribbonVault1.sol\":8009:8017  sig_s[s] */\n      0x20\n      mstore\n      0x40\n      swap1\n      keccak256\n      sload\n      0xff\n      and\n        /* \"src/ribbonVault1.sol\":8009:8024  sig_s[s]==false */\n      iszero\n        /* \"src/ribbonVault1.sol\":7969:8024  sig_v[v]==false || sig_r[r] == false || sig_s[s]==false */\n    tag_275:\n        /* \"src/ribbonVault1.sol\":7961:8036  require(sig_v[v]==false || sig_r[r] == false || sig_s[s]==false,\"sig used\") */\n      tag_276\n      jumpi\n      mload(0x40)\n      shl(0xe5, 0x461bcd)\n      dup2\n      mstore\n        /* \"#utility.yul\":10757:10759   */\n      0x20\n        /* \"src/ribbonVault1.sol\":7961:8036  require(sig_v[v]==false || sig_r[r] == false || sig_s[s]==false,\"sig used\") */\n      0x04\n      dup3\n      add\n        /* \"#utility.yul\":10739:10760   */\n      mstore\n        /* \"#utility.yul\":10796:10797   */\n      0x08\n        /* \"#utility.yul\":10776:10794   */\n      0x24\n      dup3\n      add\n        /* \"#utility.yul\":10769:10798   */\n      mstore\n      shl(0xc2, 0x1cda59c81d5cd959)\n        /* \"#utility.yul\":10814:10832   */\n      0x44\n      dup3\n      add\n        /* \"#utility.yul\":10807:10845   */\n      mstore\n        /* \"#utility.yul\":10862:10880   */\n      0x64\n      add\n        /* \"src/ribbonVault1.sol\":7961:8036  require(sig_v[v]==false || sig_r[r] == false || sig_s[s]==false,\"sig used\") */\n      tag_177\n        /* \"#utility.yul\":10555:10886   */\n      jump\n        /* \"src/ribbonVault1.sol\":7961:8036  require(sig_v[v]==false || sig_r[r] == false || sig_s[s]==false,\"sig used\") */\n    tag_276:\n        /* \"src/ribbonVault1.sol\":8069:8077  deadline */\n      dup4\n        /* \"src/ribbonVault1.sol\":8051:8066  block.timestamp */\n      timestamp\n        /* \"src/ribbonVault1.sol\":8051:8077  block.timestamp > deadline */\n      gt\n        /* \"src/ribbonVault1.sol\":8047:8146  if (block.timestamp > deadline) {... */\n      iszero\n      tag_279\n      jumpi\n        /* \"src/ribbonVault1.sol\":8101:8134  ERC2612ExpiredSignature(deadline) */\n      mload(0x40)\n      shl(0xe1, 0x313c8981)\n      dup2\n      mstore\n      0x04\n      dup2\n      add\n        /* \"#utility.yul\":160:185   */\n      dup6\n      swap1\n      mstore\n        /* \"#utility.yul\":133:151   */\n      0x24\n      add\n        /* \"src/ribbonVault1.sol\":8101:8134  ERC2612ExpiredSignature(deadline) */\n      tag_177\n        /* \"#utility.yul\":14:191   */\n      jump\n        /* \"src/ribbonVault1.sol\":8047:8146  if (block.timestamp > deadline) {... */\n    tag_279:\n        /* \"src/ribbonVault1.sol\":8215:8220  admin */\n      sload(0x0d)\n        /* \"src/ribbonVault1.sol\":8187:8244  abi.encode(PERMIT_TYPEHASH, admin, user, value, deadline) */\n      0x40\n      dup1\n      mload\n        /* \"src/ribbonVault1.sol\":765:846  keccak256(\"Permit(address owner,address spender,uint256 value,uint256 deadline)\") */\n      0x05619a74ecd0240afc3bfb1df2bd1319401220fb577809c3a09bf0ab809ac861\n        /* \"src/ribbonVault1.sol\":8187:8244  abi.encode(PERMIT_TYPEHASH, admin, user, value, deadline) */\n      0x20\n      dup3\n      add\n        /* \"#utility.yul\":11150:11175   */\n      mstore\n      sub(shl(0xa0, 0x01), 0x01)\n        /* \"src/ribbonVault1.sol\":8215:8220  admin */\n      swap3\n      dup4\n      and\n        /* \"#utility.yul\":11229:11247   */\n      swap2\n      dup2\n      add\n        /* \"#utility.yul\":11222:11265   */\n      swap2\n      swap1\n      swap2\n      mstore\n        /* \"#utility.yul\":11301:11316   */\n      swap1\n      dup8\n      and\n        /* \"#utility.yul\":11281:11299   */\n      0x60\n      dup3\n      add\n        /* \"#utility.yul\":11274:11317   */\n      mstore\n        /* \"#utility.yul\":11333:11351   */\n      0x80\n      dup2\n      add\n        /* \"#utility.yul\":11326:11360   */\n      dup7\n      swap1\n      mstore\n        /* \"#utility.yul\":11376:11395   */\n      0xa0\n      dup2\n      add\n        /* \"#utility.yul\":11369:11404   */\n      dup6\n      swap1\n      mstore\n        /* \"src/ribbonVault1.sol\":8156:8174  bytes32 structHash */\n      0x00\n      swap1\n        /* \"#utility.yul\":11122:11141   */\n      0xc0\n      add\n        /* \"src/ribbonVault1.sol\":8187:8244  abi.encode(PERMIT_TYPEHASH, admin, user, value, deadline) */\n      mload(0x40)\n      0x20\n      dup2\n      dup4\n      sub\n      sub\n      dup2\n      mstore\n      swap1\n      0x40\n      mstore\n        /* \"src/ribbonVault1.sol\":8177:8245  keccak256(abi.encode(PERMIT_TYPEHASH, admin, user, value, deadline)) */\n      dup1\n      mload\n      swap1\n      0x20\n      add\n      keccak256\n        /* \"src/ribbonVault1.sol\":8156:8245  bytes32 structHash = keccak256(abi.encode(PERMIT_TYPEHASH, admin, user, value, deadline)) */\n      swap1\n      pop\n        /* \"src/ribbonVault1.sol\":8257:8269  bytes32 hash */\n      0x00\n        /* \"src/ribbonVault1.sol\":8272:8300  _hashTypedDataV4(structHash) */\n      tag_283\n        /* \"src/ribbonVault1.sol\":8289:8299  structHash */\n      dup3\n        /* \"src/ribbonVault1.sol\":8272:8288  _hashTypedDataV4 */\n      tag_284\n        /* \"src/ribbonVault1.sol\":8272:8300  _hashTypedDataV4(structHash) */\n      jump\t// in\n    tag_283:\n        /* \"src/ribbonVault1.sol\":8257:8300  bytes32 hash = _hashTypedDataV4(structHash) */\n      swap1\n      pop\n        /* \"src/ribbonVault1.sol\":8313:8327  address signer */\n      0x00\n        /* \"src/ribbonVault1.sol\":8330:8358  ECDSA.recover(hash, v, r, s) */\n      tag_285\n        /* \"src/ribbonVault1.sol\":8344:8348  hash */\n      dup3\n        /* \"src/ribbonVault1.sol\":8350:8351  v */\n      dup8\n        /* \"src/ribbonVault1.sol\":8353:8354  r */\n      dup8\n        /* \"src/ribbonVault1.sol\":8356:8357  s */\n      dup8\n        /* \"src/ribbonVault1.sol\":8330:8343  ECDSA.recover */\n      tag_286\n        /* \"src/ribbonVault1.sol\":8330:8358  ECDSA.recover(hash, v, r, s) */\n      jump\t// in\n    tag_285:\n        /* \"src/ribbonVault1.sol\":8383:8388  admin */\n      sload(0x0d)\n        /* \"src/ribbonVault1.sol\":8313:8358  address signer = ECDSA.recover(hash, v, r, s) */\n      swap1\n      swap2\n      pop\n      sub(shl(0xa0, 0x01), 0x01)\n        /* \"src/ribbonVault1.sol\":8373:8388  signer != admin */\n      dup1\n      dup4\n      and\n        /* \"src/ribbonVault1.sol\":8383:8388  admin */\n      swap2\n      and\n        /* \"src/ribbonVault1.sol\":8373:8388  signer != admin */\n      eq\n        /* \"src/ribbonVault1.sol\":8369:8459  if (signer != admin) {... */\n      tag_287\n      jumpi\n        /* \"src/ribbonVault1.sol\":8441:8446  admin */\n      sload(0x0d)\n        /* \"src/ribbonVault1.sol\":8412:8447  ERC2612InvalidSigner(signer, admin) */\n      mload(0x40)\n      shl(0xe1, 0x25c00723)\n      dup2\n      mstore\n      sub(shl(0xa0, 0x01), 0x01)\n        /* \"#utility.yul\":11645:11660   */\n      dup1\n      dup5\n      and\n        /* \"src/ribbonVault1.sol\":8412:8447  ERC2612InvalidSigner(signer, admin) */\n      0x04\n      dup4\n      add\n        /* \"#utility.yul\":11627:11661   */\n      mstore\n        /* \"src/ribbonVault1.sol\":8441:8446  admin */\n      swap1\n      swap2\n      and\n        /* \"#utility.yul\":11677:11695   */\n      0x24\n      dup3\n      add\n        /* \"#utility.yul\":11670:11713   */\n      mstore\n        /* \"#utility.yul\":11562:11580   */\n      0x44\n      add\n        /* \"src/ribbonVault1.sol\":8412:8447  ERC2612InvalidSigner(signer, admin) */\n      tag_177\n        /* \"#utility.yul\":11415:11719   */\n      jump\n        /* \"src/ribbonVault1.sol\":8369:8459  if (signer != admin) {... */\n    tag_287:\n      pop\n      pop\n      pop\n        /* \"src/ribbonVault1.sol\":8469:8477  sig_v[v] */\n      0xff\n      swap1\n      swap3\n      and\n      0x00\n      swap1\n      dup2\n      mstore\n        /* \"src/ribbonVault1.sol\":8469:8474  sig_v */\n      0x0e\n        /* \"src/ribbonVault1.sol\":8469:8477  sig_v[v] */\n      0x20\n      swap1\n      dup2\n      mstore\n      0x40\n      dup1\n      dup4\n      keccak256\n        /* \"src/ribbonVault1.sol\":8469:8482  sig_v[v]=true */\n      dup1\n      sload\n      not(0xff)\n      swap1\n      dup2\n      and\n        /* \"src/ribbonVault1.sol\":8478:8482  true */\n      0x01\n        /* \"src/ribbonVault1.sol\":8469:8482  sig_v[v]=true */\n      swap1\n      dup2\n      or\n      swap1\n      swap3\n      sstore\n        /* \"src/ribbonVault1.sol\":8493:8501  sig_r[r] */\n      swap5\n      dup5\n      mstore\n        /* \"src/ribbonVault1.sol\":8493:8498  sig_r */\n      0x0f\n        /* \"src/ribbonVault1.sol\":8493:8501  sig_r[r] */\n      dup4\n      mstore\n      dup2\n      dup5\n      keccak256\n        /* \"src/ribbonVault1.sol\":8493:8506  sig_r[r]=true */\n      dup1\n      sload\n      dup7\n      and\n      dup3\n      or\n      swap1\n      sstore\n        /* \"src/ribbonVault1.sol\":8517:8525  sig_s[s] */\n      swap5\n      dup4\n      mstore\n        /* \"src/ribbonVault1.sol\":8517:8522  sig_s */\n      0x10\n        /* \"src/ribbonVault1.sol\":8517:8525  sig_s[s] */\n      swap1\n      swap2\n      mstore\n      swap1\n      keccak256\n        /* \"src/ribbonVault1.sol\":8517:8530  sig_s[s]=true */\n      dup1\n      sload\n      swap1\n      swap2\n      and\n      swap1\n      swap2\n      or\n      swap1\n      sstore\n      pop\n      pop\n      pop\n        /* \"src/ribbonVault1.sol\":7701:8542  function _permit(... */\n      jump\t// out\n        /* \"@openzeppelin/contracts/utils/ShortStrings.sol\":3385:3652  function toStringWithFallback(ShortString value, string storage store) internal pure returns (string memory) {... */\n    tag_266:\n        /* \"@openzeppelin/contracts/utils/ShortStrings.sol\":3479:3492  string memory */\n      0x60\n        /* \"@openzeppelin/contracts/utils/ShortStrings.sol\":1390:1456  0x00000000000000000000000000000000000000000000000000000000000000FF */\n      0xff\n        /* \"@openzeppelin/contracts/utils/ShortStrings.sol\":3508:3554  ShortString.unwrap(value) != FALLBACK_SENTINEL */\n      dup4\n      eq\n        /* \"@openzeppelin/contracts/utils/ShortStrings.sol\":3504:3646  if (ShortString.unwrap(value) != FALLBACK_SENTINEL) {... */\n      tag_295\n      jumpi\n        /* \"@openzeppelin/contracts/utils/ShortStrings.sol\":3577:3592  toString(value) */\n      tag_296\n        /* \"@openzeppelin/contracts/utils/ShortStrings.sol\":3586:3591  value */\n      dup4\n        /* \"@openzeppelin/contracts/utils/ShortStrings.sol\":3577:3585  toString */\n      tag_297\n        /* \"@openzeppelin/contracts/utils/ShortStrings.sol\":3577:3592  toString(value) */\n      jump\t// in\n    tag_296:\n        /* \"@openzeppelin/contracts/utils/ShortStrings.sol\":3570:3592  return toString(value) */\n      swap1\n      pop\n      jump(tag_298)\n        /* \"@openzeppelin/contracts/utils/ShortStrings.sol\":3504:3646  if (ShortString.unwrap(value) != FALLBACK_SENTINEL) {... */\n    tag_295:\n        /* \"@openzeppelin/contracts/utils/ShortStrings.sol\":3630:3635  store */\n      dup2\n        /* \"@openzeppelin/contracts/utils/ShortStrings.sol\":3623:3635  return store */\n      dup1\n      sload\n      tag_299\n      swap1\n      tag_124\n      jump\t// in\n    tag_299:\n      dup1\n      0x1f\n      add\n      0x20\n      dup1\n      swap2\n      div\n      mul\n      0x20\n      add\n      mload(0x40)\n      swap1\n      dup2\n      add\n      0x40\n      mstore\n      dup1\n      swap3\n      swap2\n      swap1\n      dup2\n      dup2\n      mstore\n      0x20\n      add\n      dup3\n      dup1\n      sload\n      tag_300\n      swap1\n      tag_124\n      jump\t// in\n    tag_300:\n      dup1\n      iszero\n      tag_301\n      jumpi\n      dup1\n      0x1f\n      lt\n      tag_302\n      jumpi\n      0x0100\n      dup1\n      dup4\n      sload\n      div\n      mul\n      dup4\n      mstore\n      swap2\n      0x20\n      add\n      swap2\n      jump(tag_301)\n    tag_302:\n      dup3\n      add\n      swap2\n      swap1\n      0x00\n      mstore\n      keccak256(0x00, 0x20)\n      swap1\n    tag_303:\n      dup2\n      sload\n      dup2\n      mstore\n      swap1\n      0x01\n      add\n      swap1\n      0x20\n      add\n      dup1\n      dup4\n      gt\n      tag_303\n      jumpi\n      dup3\n      swap1\n      sub\n      0x1f\n      and\n      dup3\n      add\n      swap2\n    tag_301:\n      pop\n      pop\n      pop\n      pop\n      pop\n      swap1\n      pop\n        /* \"@openzeppelin/contracts/utils/ShortStrings.sol\":3504:3646  if (ShortString.unwrap(value) != FALLBACK_SENTINEL) {... */\n    tag_298:\n        /* \"@openzeppelin/contracts/utils/ShortStrings.sol\":3385:3652  function toStringWithFallback(ShortString value, string storage store) internal pure returns (string memory) {... */\n      swap3\n      swap2\n      pop\n      pop\n      jump\t// out\n        /* \"@openzeppelin/contracts/token/ERC20/utils/SafeERC20.sol\":4059:4688  function _callOptionalReturn(IERC20 token, bytes memory data) private {... */\n    tag_272:\n        /* \"@openzeppelin/contracts/token/ERC20/utils/SafeERC20.sol\":4478:4501  bytes memory returndata */\n      0x00\n        /* \"@openzeppelin/contracts/token/ERC20/utils/SafeERC20.sol\":4504:4537  address(token).functionCall(data) */\n      tag_305\n      sub(shl(0xa0, 0x01), 0x01)\n        /* \"@openzeppelin/contracts/token/ERC20/utils/SafeERC20.sol\":4504:4531  address(token).functionCall */\n      dup5\n      and\n        /* \"@openzeppelin/contracts/token/ERC20/utils/SafeERC20.sol\":4532:4536  data */\n      dup4\n        /* \"@openzeppelin/contracts/token/ERC20/utils/SafeERC20.sol\":4504:4531  address(token).functionCall */\n      tag_306\n        /* \"@openzeppelin/contracts/token/ERC20/utils/SafeERC20.sol\":4504:4537  address(token).functionCall(data) */\n      jump\t// in\n    tag_305:\n        /* \"@openzeppelin/contracts/token/ERC20/utils/SafeERC20.sol\":4478:4537  bytes memory returndata = address(token).functionCall(data) */\n      swap1\n      pop\n        /* \"@openzeppelin/contracts/token/ERC20/utils/SafeERC20.sol\":4551:4561  returndata */\n      dup1\n        /* \"@openzeppelin/contracts/token/ERC20/utils/SafeERC20.sol\":4551:4568  returndata.length */\n      mload\n        /* \"@openzeppelin/contracts/token/ERC20/utils/SafeERC20.sol\":4572:4573  0 */\n      0x00\n        /* \"@openzeppelin/contracts/token/ERC20/utils/SafeERC20.sol\":4551:4573  returndata.length != 0 */\n      eq\n      iszero\n        /* \"@openzeppelin/contracts/token/ERC20/utils/SafeERC20.sol\":4551:4608  returndata.length != 0 && !abi.decode(returndata, (bool)) */\n      dup1\n      iszero\n      tag_307\n      jumpi\n      pop\n        /* \"@openzeppelin/contracts/token/ERC20/utils/SafeERC20.sol\":4589:4599  returndata */\n      dup1\n        /* \"@openzeppelin/contracts/token/ERC20/utils/SafeERC20.sol\":4578:4608  abi.decode(returndata, (bool)) */\n      dup1\n      0x20\n      add\n      swap1\n      mload\n      dup2\n      add\n      swap1\n      tag_308\n      swap2\n      swap1\n      tag_223\n      jump\t// in\n    tag_308:\n        /* \"@openzeppelin/contracts/token/ERC20/utils/SafeERC20.sol\":4577:4608  !abi.decode(returndata, (bool)) */\n      iszero\n        /* \"@openzeppelin/contracts/token/ERC20/utils/SafeERC20.sol\":4551:4608  returndata.length != 0 && !abi.decode(returndata, (bool)) */\n    tag_307:\n        /* \"@openzeppelin/contracts/token/ERC20/utils/SafeERC20.sol\":4547:4682  if (returndata.length != 0 && !abi.decode(returndata, (bool))) {... */\n      iszero\n      tag_270\n      jumpi\n        /* \"@openzeppelin/contracts/token/ERC20/utils/SafeERC20.sol\":4631:4671  SafeERC20FailedOperation(address(token)) */\n      mload(0x40)\n      shl(0xe0, 0x5274afe7)\n      dup2\n      mstore\n      sub(shl(0xa0, 0x01), 0x01)\n        /* \"#utility.yul\":3677:3709   */\n      dup5\n      and\n        /* \"@openzeppelin/contracts/token/ERC20/utils/SafeERC20.sol\":4631:4671  SafeERC20FailedOperation(address(token)) */\n      0x04\n      dup3\n      add\n        /* \"#utility.yul\":3659:3710   */\n      mstore\n        /* \"#utility.yul\":3632:3650   */\n      0x24\n      add\n        /* \"@openzeppelin/contracts/token/ERC20/utils/SafeERC20.sol\":4631:4671  SafeERC20FailedOperation(address(token)) */\n      tag_177\n        /* \"#utility.yul\":3513:3716   */\n      jump\n        /* \"@openzeppelin/contracts/utils/cryptography/EIP712.sol\":4917:5093  function _hashTypedDataV4(bytes32 structHash) internal view virtual returns (bytes32) {... */\n    tag_284:\n        /* \"@openzeppelin/contracts/utils/cryptography/EIP712.sol\":4994:5001  bytes32 */\n      0x00\n        /* \"@openzeppelin/contracts/utils/cryptography/EIP712.sol\":5020:5086  MessageHashUtils.toTypedDataHash(_domainSeparatorV4(), structHash) */\n      tag_298\n        /* \"@openzeppelin/contracts/utils/cryptography/EIP712.sol\":5053:5073  _domainSeparatorV4() */\n      tag_313\n        /* \"@openzeppelin/contracts/utils/cryptography/EIP712.sol\":5053:5071  _domainSeparatorV4 */\n      tag_148\n        /* \"@openzeppelin/contracts/utils/cryptography/EIP712.sol\":5053:5073  _domainSeparatorV4() */\n      jump\t// in\n    tag_313:\n        /* \"@openzeppelin/contracts/utils/cryptography/EIP712.sol\":5075:5085  structHash */\n      dup4\n        /* \"@openzeppelin/contracts/utils/cryptography/MessageHashUtils.sol\":3555:3559  0x40 */\n      0x40\n        /* \"@openzeppelin/contracts/utils/cryptography/MessageHashUtils.sol\":3549:3560  mload(0x40) */\n      mload\n      shl(0xf0, 0x1901)\n        /* \"@openzeppelin/contracts/utils/cryptography/MessageHashUtils.sol\":3573:3596  mstore(ptr, hex\"19_01\") */\n      dup2\n      mstore\n        /* \"@openzeppelin/contracts/utils/cryptography/MessageHashUtils.sol\":3625:3629  0x02 */\n      0x02\n        /* \"@openzeppelin/contracts/utils/cryptography/MessageHashUtils.sol\":3616:3630  add(ptr, 0x02) */\n      dup2\n      add\n        /* \"@openzeppelin/contracts/utils/cryptography/MessageHashUtils.sol\":3609:3648  mstore(add(ptr, 0x02), domainSeparator) */\n      swap3\n      swap1\n      swap3\n      mstore\n        /* \"@openzeppelin/contracts/utils/cryptography/MessageHashUtils.sol\":3677:3681  0x22 */\n      0x22\n        /* \"@openzeppelin/contracts/utils/cryptography/MessageHashUtils.sol\":3668:3682  add(ptr, 0x22) */\n      dup3\n      add\n        /* \"@openzeppelin/contracts/utils/cryptography/MessageHashUtils.sol\":3661:3695  mstore(add(ptr, 0x22), structHash) */\n      mstore\n        /* \"@openzeppelin/contracts/utils/cryptography/MessageHashUtils.sol\":3733:3737  0x42 */\n      0x42\n        /* \"@openzeppelin/contracts/utils/cryptography/MessageHashUtils.sol\":3718:3738  keccak256(ptr, 0x42) */\n      swap1\n      keccak256\n      swap1\n        /* \"@openzeppelin/contracts/utils/cryptography/MessageHashUtils.sol\":3353:3754  function toTypedDataHash(bytes32 domainSeparator, bytes32 structHash) internal pure returns (bytes32 digest) {... */\n      jump\n        /* \"@openzeppelin/contracts/utils/cryptography/ECDSA.sol\":6803:7063  function recover(bytes32 hash, uint8 v, bytes32 r, bytes32 s) internal pure returns (address) {... */\n    tag_286:\n        /* \"@openzeppelin/contracts/utils/cryptography/ECDSA.sol\":6888:6895  address */\n      0x00\n        /* \"@openzeppelin/contracts/utils/cryptography/ECDSA.sol\":6908:6925  address recovered */\n      dup1\n        /* \"@openzeppelin/contracts/utils/cryptography/ECDSA.sol\":6927:6945  RecoverError error */\n      0x00\n        /* \"@openzeppelin/contracts/utils/cryptography/ECDSA.sol\":6947:6963  bytes32 errorArg */\n      dup1\n        /* \"@openzeppelin/contracts/utils/cryptography/ECDSA.sol\":6967:6992  tryRecover(hash, v, r, s) */\n      tag_316\n        /* \"@openzeppelin/contracts/utils/cryptography/ECDSA.sol\":6978:6982  hash */\n      dup9\n        /* \"@openzeppelin/contracts/utils/cryptography/ECDSA.sol\":6984:6985  v */\n      dup9\n        /* \"@openzeppelin/contracts/utils/cryptography/ECDSA.sol\":6987:6988  r */\n      dup9\n        /* \"@openzeppelin/contracts/utils/cryptography/ECDSA.sol\":6990:6991  s */\n      dup9\n        /* \"@openzeppelin/contracts/utils/cryptography/ECDSA.sol\":6967:6977  tryRecover */\n      tag_317\n        /* \"@openzeppelin/contracts/utils/cryptography/ECDSA.sol\":6967:6992  tryRecover(hash, v, r, s) */\n      jump\t// in\n    tag_316:\n        /* \"@openzeppelin/contracts/utils/cryptography/ECDSA.sol\":6907:6992  (address recovered, RecoverError error, bytes32 errorArg) = tryRecover(hash, v, r, s) */\n      swap3\n      pop\n      swap3\n      pop\n      swap3\n      pop\n        /* \"@openzeppelin/contracts/utils/cryptography/ECDSA.sol\":7002:7030  _throwError(error, errorArg) */\n      tag_318\n        /* \"@openzeppelin/contracts/utils/cryptography/ECDSA.sol\":7014:7019  error */\n      dup3\n        /* \"@openzeppelin/contracts/utils/cryptography/ECDSA.sol\":7021:7029  errorArg */\n      dup3\n        /* \"@openzeppelin/contracts/utils/cryptography/ECDSA.sol\":7002:7013  _throwError */\n      tag_319\n        /* \"@openzeppelin/contracts/utils/cryptography/ECDSA.sol\":7002:7030  _throwError(error, errorArg) */\n      jump\t// in\n    tag_318:\n      pop\n        /* \"@openzeppelin/contracts/utils/cryptography/ECDSA.sol\":7047:7056  recovered */\n      swap1\n      swap7\n        /* \"@openzeppelin/contracts/utils/cryptography/ECDSA.sol\":6803:7063  function recover(bytes32 hash, uint8 v, bytes32 r, bytes32 s) internal pure returns (address) {... */\n      swap6\n      pop\n      pop\n      pop\n      pop\n      pop\n      pop\n      jump\t// out\n        /* \"@openzeppelin/contracts/utils/ShortStrings.sol\":2078:2483  function toString(ShortString sstr) internal pure returns (string memory) {... */\n    tag_297:\n        /* \"@openzeppelin/contracts/utils/ShortStrings.sol\":2137:2150  string memory */\n      0x60\n        /* \"@openzeppelin/contracts/utils/ShortStrings.sol\":2162:2173  uint256 len */\n      0x00\n        /* \"@openzeppelin/contracts/utils/ShortStrings.sol\":2176:2192  byteLength(sstr) */\n      tag_321\n        /* \"@openzeppelin/contracts/utils/ShortStrings.sol\":2187:2191  sstr */\n      dup4\n        /* \"@openzeppelin/contracts/utils/ShortStrings.sol\":2176:2186  byteLength */\n      tag_322\n        /* \"@openzeppelin/contracts/utils/ShortStrings.sol\":2176:2192  byteLength(sstr) */\n      jump\t// in\n    tag_321:\n        /* \"@openzeppelin/contracts/utils/ShortStrings.sol\":2300:2314  new string(32) */\n      0x40\n      dup1\n      mload\n        /* \"@openzeppelin/contracts/utils/ShortStrings.sol\":2311:2313  32 */\n      0x20\n        /* \"@openzeppelin/contracts/utils/ShortStrings.sol\":2300:2314  new string(32) */\n      dup1\n      dup3\n      mstore\n      dup2\n      dup4\n      add\n      swap1\n      swap3\n      mstore\n        /* \"@openzeppelin/contracts/utils/ShortStrings.sol\":2162:2192  uint256 len = byteLength(sstr) */\n      swap2\n      swap3\n      pop\n        /* \"@openzeppelin/contracts/utils/ShortStrings.sol\":2280:2297  string memory str */\n      0x00\n      swap2\n        /* \"@openzeppelin/contracts/utils/ShortStrings.sol\":2300:2314  new string(32) */\n      swap1\n      0x20\n      dup3\n      add\n      dup2\n      dup1\n      calldatasize\n      dup4\n      calldatacopy\n      pop\n      pop\n      pop\n        /* \"@openzeppelin/contracts/utils/ShortStrings.sol\":2390:2406  mstore(str, len) */\n      swap2\n      dup3\n      mstore\n      pop\n        /* \"@openzeppelin/contracts/utils/ShortStrings.sol\":2435:2439  0x20 */\n      0x20\n        /* \"@openzeppelin/contracts/utils/ShortStrings.sol\":2426:2440  add(str, 0x20) */\n      dup2\n      add\n        /* \"@openzeppelin/contracts/utils/ShortStrings.sol\":2419:2447  mstore(add(str, 0x20), sstr) */\n      swap3\n      swap1\n      swap3\n      mstore\n      pop\n        /* \"@openzeppelin/contracts/utils/ShortStrings.sol\":2390:2406  mstore(str, len) */\n      swap1\n        /* \"@openzeppelin/contracts/utils/ShortStrings.sol\":2078:2483  function toString(ShortString sstr) internal pure returns (string memory) {... */\n      jump\t// out\n        /* \"@openzeppelin/contracts/utils/Address.sol\":2705:2856  function functionCall(address target, bytes memory data) internal returns (bytes memory) {... */\n    tag_306:\n        /* \"@openzeppelin/contracts/utils/Address.sol\":2780:2792  bytes memory */\n      0x60\n        /* \"@openzeppelin/contracts/utils/Address.sol\":2811:2849  functionCallWithValue(target, data, 0) */\n      tag_140\n        /* \"@openzeppelin/contracts/utils/Address.sol\":2833:2839  target */\n      dup4\n        /* \"@openzeppelin/contracts/utils/Address.sol\":2841:2845  data */\n      dup4\n        /* \"@openzeppelin/contracts/utils/Address.sol\":2847:2848  0 */\n      0x00\n        /* \"@openzeppelin/contracts/utils/Address.sol\":2811:2832  functionCallWithValue */\n      tag_328\n        /* \"@openzeppelin/contracts/utils/Address.sol\":2811:2849  functionCallWithValue(target, data, 0) */\n      jump\t// in\n        /* \"@openzeppelin/contracts/utils/cryptography/ECDSA.sol\":5140:6670  function tryRecover(... */\n    tag_317:\n        /* \"@openzeppelin/contracts/utils/cryptography/ECDSA.sol\":5266:5273  address */\n      0x00\n      dup1\n      dup1\n        /* \"@openzeppelin/contracts/utils/cryptography/ECDSA.sol\":6199:6265  0x7FFFFFFFFFFFFFFFFFFFFFFFFFFFFFFF5D576E7357A4501DDFE92F46681B20A0 */\n      0x7fffffffffffffffffffffffffffffff5d576e7357a4501ddfe92f46681b20a0\n        /* \"@openzeppelin/contracts/utils/cryptography/ECDSA.sol\":6186:6265  uint256(s) > 0x7FFFFFFFFFFFFFFFFFFFFFFFFFFFFFFF5D576E7357A4501DDFE92F46681B20A0 */\n      dup5\n      gt\n        /* \"@openzeppelin/contracts/utils/cryptography/ECDSA.sol\":6182:6346  if (uint256(s) > 0x7FFFFFFFFFFFFFFFFFFFFFFFFFFFFFFF5D576E7357A4501DDFE92F46681B20A0) {... */\n      iszero\n      tag_331\n      jumpi\n      pop\n        /* \"@openzeppelin/contracts/utils/cryptography/ECDSA.sol\":6297:6298  0 */\n      0x00\n      swap2\n      pop\n        /* \"@openzeppelin/contracts/utils/cryptography/ECDSA.sol\":6301:6331  RecoverError.InvalidSignatureS */\n      0x03\n      swap1\n      pop\n        /* \"@openzeppelin/contracts/utils/cryptography/ECDSA.sol\":6333:6334  s */\n      dup3\n        /* \"@openzeppelin/contracts/utils/cryptography/ECDSA.sol\":6281:6335  return (address(0), RecoverError.InvalidSignatureS, s) */\n      jump(tag_330)\n        /* \"@openzeppelin/contracts/utils/cryptography/ECDSA.sol\":6182:6346  if (uint256(s) > 0x7FFFFFFFFFFFFFFFFFFFFFFFFFFFFFFF5D576E7357A4501DDFE92F46681B20A0) {... */\n    tag_331:\n        /* \"@openzeppelin/contracts/utils/cryptography/ECDSA.sol\":6457:6481  ecrecover(hash, v, r, s) */\n      0x40\n      dup1\n      mload\n        /* \"@openzeppelin/contracts/utils/cryptography/ECDSA.sol\":6440:6454  address signer */\n      0x00\n        /* \"@openzeppelin/contracts/utils/cryptography/ECDSA.sol\":6457:6481  ecrecover(hash, v, r, s) */\n      dup1\n      dup3\n      mstore\n      0x20\n      dup3\n      add\n      dup1\n      dup5\n      mstore\n        /* \"#utility.yul\":12445:12470   */\n      dup11\n      swap1\n      mstore\n        /* \"#utility.yul\":12518:12522   */\n      0xff\n        /* \"#utility.yul\":12506:12523   */\n      dup10\n      and\n        /* \"#utility.yul\":12486:12504   */\n      swap3\n      dup3\n      add\n        /* \"#utility.yul\":12479:12524   */\n      swap3\n      swap1\n      swap3\n      mstore\n        /* \"#utility.yul\":12540:12558   */\n      0x60\n      dup2\n      add\n        /* \"#utility.yul\":12533:12567   */\n      dup8\n      swap1\n      mstore\n        /* \"#utility.yul\":12583:12601   */\n      0x80\n      dup2\n      add\n        /* \"#utility.yul\":12576:12610   */\n      dup7\n      swap1\n      mstore\n        /* \"@openzeppelin/contracts/utils/cryptography/ECDSA.sol\":6457:6481  ecrecover(hash, v, r, s) */\n      0x01\n      swap1\n        /* \"#utility.yul\":12417:12436   */\n      0xa0\n      add\n        /* \"@openzeppelin/contracts/utils/cryptography/ECDSA.sol\":6457:6481  ecrecover(hash, v, r, s) */\n      0x20\n      mload(0x40)\n      0x20\n      dup2\n      sub\n      swap1\n      dup1\n      dup5\n      sub\n      swap1\n      dup6\n      gas\n      staticcall\n      iszero\n      dup1\n      iszero\n      tag_335\n      jumpi\n      returndatasize\n      0x00\n      dup1\n      returndatacopy\n      revert(0x00, returndatasize)\n    tag_335:\n      pop\n      pop\n      mload(add(not(0x1f), mload(0x40)))\n      swap2\n      pop\n      pop\n      sub(shl(0xa0, 0x01), 0x01)\n        /* \"@openzeppelin/contracts/utils/cryptography/ECDSA.sol\":6495:6515  signer == address(0) */\n      dup2\n      and\n        /* \"@openzeppelin/contracts/utils/cryptography/ECDSA.sol\":6491:6604  if (signer == address(0)) {... */\n      tag_336\n      jumpi\n      pop\n        /* \"@openzeppelin/contracts/utils/cryptography/ECDSA.sol\":6547:6548  0 */\n      0x00\n      swap3\n      pop\n        /* \"@openzeppelin/contracts/utils/cryptography/ECDSA.sol\":6551:6580  RecoverError.InvalidSignature */\n      0x01\n      swap2\n      pop\n        /* \"@openzeppelin/contracts/utils/cryptography/ECDSA.sol\":6547:6548  0 */\n      dup3\n      swap1\n      pop\n        /* \"@openzeppelin/contracts/utils/cryptography/ECDSA.sol\":6531:6593  return (address(0), RecoverError.InvalidSignature, bytes32(0)) */\n      jump(tag_330)\n        /* \"@openzeppelin/contracts/utils/cryptography/ECDSA.sol\":6491:6604  if (signer == address(0)) {... */\n    tag_336:\n        /* \"@openzeppelin/contracts/utils/cryptography/ECDSA.sol\":6622:6628  signer */\n      swap3\n      pop\n        /* \"@openzeppelin/contracts/utils/cryptography/ECDSA.sol\":6630:6650  RecoverError.NoError */\n      0x00\n      swap2\n      pop\n      dup2\n      swap1\n      pop\n        /* \"@openzeppelin/contracts/utils/cryptography/ECDSA.sol\":5140:6670  function tryRecover(... */\n    tag_330:\n      swap5\n      pop\n      swap5\n      pop\n      swap5\n      swap2\n      pop\n      pop\n      jump\t// out\n        /* \"@openzeppelin/contracts/utils/cryptography/ECDSA.sol\":7196:7728  function _throwError(RecoverError error, bytes32 errorArg) private pure {... */\n    tag_319:\n        /* \"@openzeppelin/contracts/utils/cryptography/ECDSA.sol\":7291:7311  RecoverError.NoError */\n      0x00\n        /* \"@openzeppelin/contracts/utils/cryptography/ECDSA.sol\":7282:7287  error */\n      dup3\n        /* \"@openzeppelin/contracts/utils/cryptography/ECDSA.sol\":7282:7311  error == RecoverError.NoError */\n      0x03\n      dup2\n      gt\n      iszero\n      tag_342\n      jumpi\n      tag_342\n      tag_340\n      jump\t// in\n    tag_342:\n      sub\n        /* \"@openzeppelin/contracts/utils/cryptography/ECDSA.sol\":7278:7722  if (error == RecoverError.NoError) {... */\n      tag_343\n      jumpi\n        /* \"@openzeppelin/contracts/utils/cryptography/ECDSA.sol\":7196:7728  function _throwError(RecoverError error, bytes32 errorArg) private pure {... */\n      pop\n      pop\n      jump\t// out\n        /* \"@openzeppelin/contracts/utils/cryptography/ECDSA.sol\":7278:7722  if (error == RecoverError.NoError) {... */\n    tag_343:\n        /* \"@openzeppelin/contracts/utils/cryptography/ECDSA.sol\":7387:7416  RecoverError.InvalidSignature */\n      0x01\n        /* \"@openzeppelin/contracts/utils/cryptography/ECDSA.sol\":7378:7383  error */\n      dup3\n        /* \"@openzeppelin/contracts/utils/cryptography/ECDSA.sol\":7378:7416  error == RecoverError.InvalidSignature */\n      0x03\n      dup2\n      gt\n      iszero\n      tag_348\n      jumpi\n      tag_348\n      tag_340\n      jump\t// in\n    tag_348:\n      sub\n        /* \"@openzeppelin/contracts/utils/cryptography/ECDSA.sol\":7374:7722  if (error == RecoverError.InvalidSignature) {... */\n      tag_349\n      jumpi\n        /* \"@openzeppelin/contracts/utils/cryptography/ECDSA.sol\":7439:7462  ECDSAInvalidSignature() */\n      mload(0x40)\n      shl(0xe0, 0xf645eedf)\n      dup2\n      mstore\n      0x04\n      add\n      mload(0x40)\n      dup1\n      swap2\n      sub\n      swap1\n      revert\n        /* \"@openzeppelin/contracts/utils/cryptography/ECDSA.sol\":7374:7722  if (error == RecoverError.InvalidSignature) {... */\n    tag_349:\n        /* \"@openzeppelin/contracts/utils/cryptography/ECDSA.sol\":7492:7527  RecoverError.InvalidSignatureLength */\n      0x02\n        /* \"@openzeppelin/contracts/utils/cryptography/ECDSA.sol\":7483:7488  error */\n      dup3\n        /* \"@openzeppelin/contracts/utils/cryptography/ECDSA.sol\":7483:7527  error == RecoverError.InvalidSignatureLength */\n      0x03\n      dup2\n      gt\n      iszero\n      tag_354\n      jumpi\n      tag_354\n      tag_340\n      jump\t// in\n    tag_354:\n      sub\n        /* \"@openzeppelin/contracts/utils/cryptography/ECDSA.sol\":7479:7722  if (error == RecoverError.InvalidSignatureLength) {... */\n      tag_355\n      jumpi\n        /* \"@openzeppelin/contracts/utils/cryptography/ECDSA.sol\":7550:7596  ECDSAInvalidSignatureLength(uint256(errorArg)) */\n      mload(0x40)\n      shl(0xe0, 0xfce698f7)\n      dup2\n      mstore\n      0x04\n      dup2\n      add\n        /* \"#utility.yul\":160:185   */\n      dup3\n      swap1\n      mstore\n        /* \"#utility.yul\":133:151   */\n      0x24\n      add\n        /* \"@openzeppelin/contracts/utils/cryptography/ECDSA.sol\":7550:7596  ECDSAInvalidSignatureLength(uint256(errorArg)) */\n      tag_177\n        /* \"#utility.yul\":14:191   */\n      jump\n        /* \"@openzeppelin/contracts/utils/cryptography/ECDSA.sol\":7479:7722  if (error == RecoverError.InvalidSignatureLength) {... */\n    tag_355:\n        /* \"@openzeppelin/contracts/utils/cryptography/ECDSA.sol\":7626:7656  RecoverError.InvalidSignatureS */\n      0x03\n        /* \"@openzeppelin/contracts/utils/cryptography/ECDSA.sol\":7617:7622  error */\n      dup3\n        /* \"@openzeppelin/contracts/utils/cryptography/ECDSA.sol\":7617:7656  error == RecoverError.InvalidSignatureS */\n      0x03\n      dup2\n      gt\n      iszero\n      tag_361\n      jumpi\n      tag_361\n      tag_340\n      jump\t// in\n    tag_361:\n      sub\n        /* \"@openzeppelin/contracts/utils/cryptography/ECDSA.sol\":7613:7722  if (error == RecoverError.InvalidSignatureS) {... */\n      tag_362\n      jumpi\n        /* \"@openzeppelin/contracts/utils/cryptography/ECDSA.sol\":7679:7711  ECDSAInvalidSignatureS(errorArg) */\n      mload(0x40)\n      shl(0xe2, 0x35e2f383)\n      dup2\n      mstore\n      0x04\n      dup2\n      add\n        /* \"#utility.yul\":160:185   */\n      dup3\n      swap1\n      mstore\n        /* \"#utility.yul\":133:151   */\n      0x24\n      add\n        /* \"@openzeppelin/contracts/utils/cryptography/ECDSA.sol\":7679:7711  ECDSAInvalidSignatureS(errorArg) */\n      tag_177\n        /* \"#utility.yul\":14:191   */\n      jump\n        /* \"@openzeppelin/contracts/utils/cryptography/ECDSA.sol\":7613:7722  if (error == RecoverError.InvalidSignatureS) {... */\n    tag_362:\n        /* \"@openzeppelin/contracts/utils/cryptography/ECDSA.sol\":7196:7728  function _throwError(RecoverError error, bytes32 errorArg) private pure {... */\n      pop\n      pop\n      jump\t// out\n        /* \"@openzeppelin/contracts/utils/ShortStrings.sol\":2555:2800  function byteLength(ShortString sstr) internal pure returns (uint256) {... */\n    tag_322:\n        /* \"@openzeppelin/contracts/utils/ShortStrings.sol\":2616:2623  uint256 */\n      0x00\n        /* \"@openzeppelin/contracts/utils/ShortStrings.sol\":2688:2692  0xFF */\n      0xff\n        /* \"@openzeppelin/contracts/utils/ShortStrings.sol\":2652:2692  uint256(ShortString.unwrap(sstr)) & 0xFF */\n      dup3\n      and\n        /* \"@openzeppelin/contracts/utils/ShortStrings.sol\":2715:2717  31 */\n      0x1f\n        /* \"@openzeppelin/contracts/utils/ShortStrings.sol\":2706:2717  result > 31 */\n      dup2\n      gt\n        /* \"@openzeppelin/contracts/utils/ShortStrings.sol\":2702:2771  if (result > 31) {... */\n      iszero\n      tag_298\n      jumpi\n        /* \"@openzeppelin/contracts/utils/ShortStrings.sol\":2740:2760  InvalidShortString() */\n      mload(0x40)\n      shl(0xe2, 0x2cd44ac3)\n      dup2\n      mstore\n      0x04\n      add\n      mload(0x40)\n      dup1\n      swap2\n      sub\n      swap1\n      revert\n        /* \"@openzeppelin/contracts/utils/Address.sol\":3180:3572  function functionCallWithValue(address target, bytes memory data, uint256 value) internal returns (bytes memory) {... */\n    tag_328:\n        /* \"@openzeppelin/contracts/utils/Address.sol\":3279:3291  bytes memory */\n      0x60\n        /* \"@openzeppelin/contracts/utils/Address.sol\":3331:3336  value */\n      dup2\n        /* \"@openzeppelin/contracts/utils/Address.sol\":3307:3328  address(this).balance */\n      selfbalance\n        /* \"@openzeppelin/contracts/utils/Address.sol\":3307:3336  address(this).balance < value */\n      lt\n        /* \"@openzeppelin/contracts/utils/Address.sol\":3303:3411  if (address(this).balance < value) {... */\n      iszero\n      tag_367\n      jumpi\n        /* \"@openzeppelin/contracts/utils/Address.sol\":3359:3400  AddressInsufficientBalance(address(this)) */\n      mload(0x40)\n      shl(0xe0, 0xcd786059)\n      dup2\n      mstore\n        /* \"@openzeppelin/contracts/utils/Address.sol\":3394:3398  this */\n      address\n        /* \"@openzeppelin/contracts/utils/Address.sol\":3359:3400  AddressInsufficientBalance(address(this)) */\n      0x04\n      dup3\n      add\n        /* \"#utility.yul\":3659:3710   */\n      mstore\n        /* \"#utility.yul\":3632:3650   */\n      0x24\n      add\n        /* \"@openzeppelin/contracts/utils/Address.sol\":3359:3400  AddressInsufficientBalance(address(this)) */\n      tag_177\n        /* \"#utility.yul\":3513:3716   */\n      jump\n        /* \"@openzeppelin/contracts/utils/Address.sol\":3303:3411  if (address(this).balance < value) {... */\n    tag_367:\n        /* \"@openzeppelin/contracts/utils/Address.sol\":3421:3433  bool success */\n      0x00\n        /* \"@openzeppelin/contracts/utils/Address.sol\":3435:3458  bytes memory returndata */\n      dup1\n        /* \"@openzeppelin/contracts/utils/Address.sol\":3462:3468  target */\n      dup6\n      sub(shl(0xa0, 0x01), 0x01)\n        /* \"@openzeppelin/contracts/utils/Address.sol\":3462:3473  target.call */\n      and\n        /* \"@openzeppelin/contracts/utils/Address.sol\":3481:3486  value */\n      dup5\n        /* \"@openzeppelin/contracts/utils/Address.sol\":3488:3492  data */\n      dup7\n        /* \"@openzeppelin/contracts/utils/Address.sol\":3462:3493  target.call{value: value}(data) */\n      mload(0x40)\n      tag_369\n      swap2\n      swap1\n      tag_370\n      jump\t// in\n    tag_369:\n      0x00\n      mload(0x40)\n      dup1\n      dup4\n      sub\n      dup2\n      dup6\n      dup8\n      gas\n      call\n      swap3\n      pop\n      pop\n      pop\n      returndatasize\n      dup1\n      0x00\n      dup2\n      eq\n      tag_373\n      jumpi\n      mload(0x40)\n      swap2\n      pop\n      and(add(returndatasize, 0x3f), not(0x1f))\n      dup3\n      add\n      0x40\n      mstore\n      returndatasize\n      dup3\n      mstore\n      returndatasize\n      0x00\n      0x20\n      dup5\n      add\n      returndatacopy\n      jump(tag_372)\n    tag_373:\n      0x60\n      swap2\n      pop\n    tag_372:\n      pop\n        /* \"@openzeppelin/contracts/utils/Address.sol\":3420:3493  (bool success, bytes memory returndata) = target.call{value: value}(data) */\n      swap2\n      pop\n      swap2\n      pop\n        /* \"@openzeppelin/contracts/utils/Address.sol\":3510:3565  verifyCallResultFromTarget(target, success, returndata) */\n      tag_374\n        /* \"@openzeppelin/contracts/utils/Address.sol\":3537:3543  target */\n      dup7\n        /* \"@openzeppelin/contracts/utils/Address.sol\":3545:3552  success */\n      dup4\n        /* \"@openzeppelin/contracts/utils/Address.sol\":3554:3564  returndata */\n      dup4\n        /* \"@openzeppelin/contracts/utils/Address.sol\":3510:3536  verifyCallResultFromTarget */\n      tag_375\n        /* \"@openzeppelin/contracts/utils/Address.sol\":3510:3565  verifyCallResultFromTarget(target, success, returndata) */\n      jump\t// in\n    tag_374:\n        /* \"@openzeppelin/contracts/utils/Address.sol\":3503:3565  return verifyCallResultFromTarget(target, success, returndata) */\n      swap7\n        /* \"@openzeppelin/contracts/utils/Address.sol\":3180:3572  function functionCallWithValue(address target, bytes memory data, uint256 value) internal returns (bytes memory) {... */\n      swap6\n      pop\n      pop\n      pop\n      pop\n      pop\n      pop\n      jump\t// out\n        /* \"@openzeppelin/contracts/utils/Address.sol\":4625:5207  function verifyCallResultFromTarget(... */\n    tag_375:\n        /* \"@openzeppelin/contracts/utils/Address.sol\":4769:4781  bytes memory */\n      0x60\n        /* \"@openzeppelin/contracts/utils/Address.sol\":4798:4805  success */\n      dup3\n        /* \"@openzeppelin/contracts/utils/Address.sol\":4793:5201  if (!success) {... */\n      tag_377\n      jumpi\n        /* \"@openzeppelin/contracts/utils/Address.sol\":4821:4840  _revert(returndata) */\n      tag_378\n        /* \"@openzeppelin/contracts/utils/Address.sol\":4829:4839  returndata */\n      dup3\n        /* \"@openzeppelin/contracts/utils/Address.sol\":4821:4828  _revert */\n      tag_379\n        /* \"@openzeppelin/contracts/utils/Address.sol\":4821:4840  _revert(returndata) */\n      jump\t// in\n    tag_378:\n        /* \"@openzeppelin/contracts/utils/Address.sol\":4793:5201  if (!success) {... */\n      jump(tag_140)\n    tag_377:\n        /* \"@openzeppelin/contracts/utils/Address.sol\":5045:5062  returndata.length */\n      dup2\n      mload\n        /* \"@openzeppelin/contracts/utils/Address.sol\":5045:5067  returndata.length == 0 */\n      iszero\n        /* \"@openzeppelin/contracts/utils/Address.sol\":5045:5094  returndata.length == 0 && target.code.length == 0 */\n      dup1\n      iszero\n      tag_381\n      jumpi\n      pop\n      sub(shl(0xa0, 0x01), 0x01)\n        /* \"@openzeppelin/contracts/utils/Address.sol\":5071:5089  target.code.length */\n      dup5\n      and\n      extcodesize\n        /* \"@openzeppelin/contracts/utils/Address.sol\":5071:5094  target.code.length == 0 */\n      iszero\n        /* \"@openzeppelin/contracts/utils/Address.sol\":5045:5094  returndata.length == 0 && target.code.length == 0 */\n    tag_381:\n        /* \"@openzeppelin/contracts/utils/Address.sol\":5041:5160  if (returndata.length == 0 && target.code.length == 0) {... */\n      iszero\n      tag_382\n      jumpi\n        /* \"@openzeppelin/contracts/utils/Address.sol\":5121:5145  AddressEmptyCode(target) */\n      mload(0x40)\n      shl(0xe0, 0x9996b315)\n      dup2\n      mstore\n      sub(shl(0xa0, 0x01), 0x01)\n        /* \"#utility.yul\":3677:3709   */\n      dup6\n      and\n        /* \"@openzeppelin/contracts/utils/Address.sol\":5121:5145  AddressEmptyCode(target) */\n      0x04\n      dup3\n      add\n        /* \"#utility.yul\":3659:3710   */\n      mstore\n        /* \"#utility.yul\":3632:3650   */\n      0x24\n      add\n        /* \"@openzeppelin/contracts/utils/Address.sol\":5121:5145  AddressEmptyCode(target) */\n      tag_177\n        /* \"#utility.yul\":3513:3716   */\n      jump\n        /* \"@openzeppelin/contracts/utils/Address.sol\":5041:5160  if (returndata.length == 0 && target.code.length == 0) {... */\n    tag_382:\n      pop\n        /* \"@openzeppelin/contracts/utils/Address.sol\":5180:5190  returndata */\n      dup1\n        /* \"@openzeppelin/contracts/utils/Address.sol\":5173:5190  return returndata */\n      jump(tag_140)\n        /* \"@openzeppelin/contracts/utils/Address.sol\":5743:6259  function _revert(bytes memory returndata) private pure {... */\n    tag_379:\n        /* \"@openzeppelin/contracts/utils/Address.sol\":5874:5891  returndata.length */\n      dup1\n      mload\n        /* \"@openzeppelin/contracts/utils/Address.sol\":5874:5895  returndata.length > 0 */\n      iszero\n        /* \"@openzeppelin/contracts/utils/Address.sol\":5870:6253  if (returndata.length > 0) {... */\n      tag_385\n      jumpi\n        /* \"@openzeppelin/contracts/utils/Address.sol\":6102:6112  returndata */\n      dup1\n        /* \"@openzeppelin/contracts/utils/Address.sol\":6096:6113  mload(returndata) */\n      mload\n        /* \"@openzeppelin/contracts/utils/Address.sol\":6158:6173  returndata_size */\n      dup1\n        /* \"@openzeppelin/contracts/utils/Address.sol\":6145:6155  returndata */\n      dup3\n        /* \"@openzeppelin/contracts/utils/Address.sol\":6141:6143  32 */\n      0x20\n        /* \"@openzeppelin/contracts/utils/Address.sol\":6137:6156  add(32, returndata) */\n      add\n        /* \"@openzeppelin/contracts/utils/Address.sol\":6130:6174  revert(add(32, returndata), returndata_size) */\n      revert\n        /* \"@openzeppelin/contracts/utils/Address.sol\":5870:6253  if (returndata.length > 0) {... */\n    tag_385:\n        /* \"@openzeppelin/contracts/utils/Address.sol\":6225:6242  FailedInnerCall() */\n      mload(0x40)\n      shl(0xe1, 0x0a12f521)\n      dup2\n      mstore\n      0x04\n      add\n      mload(0x40)\n      dup1\n      swap2\n      sub\n      swap1\n      revert\n        /* \"#utility.yul\":196:446   */\n    tag_387:\n        /* \"#utility.yul\":281:282   */\n      0x00\n        /* \"#utility.yul\":291:404   */\n    tag_398:\n        /* \"#utility.yul\":305:311   */\n      dup4\n        /* \"#utility.yul\":302:303   */\n      dup2\n        /* \"#utility.yul\":299:312   */\n      lt\n        /* \"#utility.yul\":291:404   */\n      iszero\n      tag_400\n      jumpi\n        /* \"#utility.yul\":381:392   */\n      dup2\n      dup2\n      add\n        /* \"#utility.yul\":375:393   */\n      mload\n        /* \"#utility.yul\":362:373   */\n      dup4\n      dup3\n      add\n        /* \"#utility.yul\":355:394   */\n      mstore\n        /* \"#utility.yul\":327:329   */\n      0x20\n        /* \"#utility.yul\":320:330   */\n      add\n        /* \"#utility.yul\":291:404   */\n      jump(tag_398)\n    tag_400:\n      pop\n      pop\n        /* \"#utility.yul\":438:439   */\n      0x00\n        /* \"#utility.yul\":420:436   */\n      swap2\n      add\n        /* \"#utility.yul\":413:440   */\n      mstore\n        /* \"#utility.yul\":196:446   */\n      jump\t// out\n        /* \"#utility.yul\":451:722   */\n    tag_388:\n        /* \"#utility.yul\":493:496   */\n      0x00\n        /* \"#utility.yul\":531:536   */\n      dup2\n        /* \"#utility.yul\":525:537   */\n      mload\n        /* \"#utility.yul\":558:564   */\n      dup1\n        /* \"#utility.yul\":553:556   */\n      dup5\n        /* \"#utility.yul\":546:565   */\n      mstore\n        /* \"#utility.yul\":574:650   */\n      tag_402\n        /* \"#utility.yul\":643:649   */\n      dup2\n        /* \"#utility.yul\":636:640   */\n      0x20\n        /* \"#utility.yul\":631:634   */\n      dup7\n        /* \"#utility.yul\":627:641   */\n      add\n        /* \"#utility.yul\":620:624   */\n      0x20\n        /* \"#utility.yul\":613:618   */\n      dup7\n        /* \"#utility.yul\":609:625   */\n      add\n        /* \"#utility.yul\":574:650   */\n      tag_387\n      jump\t// in\n    tag_402:\n        /* \"#utility.yul\":704:706   */\n      0x1f\n        /* \"#utility.yul\":683:698   */\n      add\n      not(0x1f)\n        /* \"#utility.yul\":679:708   */\n      and\n        /* \"#utility.yul\":670:709   */\n      swap3\n      swap1\n      swap3\n      add\n        /* \"#utility.yul\":711:715   */\n      0x20\n        /* \"#utility.yul\":666:716   */\n      add\n      swap3\n        /* \"#utility.yul\":451:722   */\n      swap2\n      pop\n      pop\n      jump\t// out\n        /* \"#utility.yul\":727:947   */\n    tag_41:\n        /* \"#utility.yul\":876:878   */\n      0x20\n        /* \"#utility.yul\":865:874   */\n      dup2\n        /* \"#utility.yul\":858:879   */\n      mstore\n        /* \"#utility.yul\":839:843   */\n      0x00\n        /* \"#utility.yul\":896:941   */\n      tag_140\n        /* \"#utility.yul\":937:939   */\n      0x20\n        /* \"#utility.yul\":926:935   */\n      dup4\n        /* \"#utility.yul\":922:940   */\n      add\n        /* \"#utility.yul\":914:920   */\n      dup5\n        /* \"#utility.yul\":896:941   */\n      tag_388\n      jump\t// in\n        /* \"#utility.yul\":952:1132   */\n    tag_44:\n        /* \"#utility.yul\":1011:1017   */\n      0x00\n        /* \"#utility.yul\":1064:1066   */\n      0x20\n        /* \"#utility.yul\":1052:1061   */\n      dup3\n        /* \"#utility.yul\":1043:1050   */\n      dup5\n        /* \"#utility.yul\":1039:1062   */\n      sub\n        /* \"#utility.yul\":1035:1067   */\n      slt\n        /* \"#utility.yul\":1032:1084   */\n      iszero\n      tag_406\n      jumpi\n        /* \"#utility.yul\":1080:1081   */\n      0x00\n        /* \"#utility.yul\":1077:1078   */\n      dup1\n        /* \"#utility.yul\":1070:1082   */\n      revert\n        /* \"#utility.yul\":1032:1084   */\n    tag_406:\n      pop\n        /* \"#utility.yul\":1103:1126   */\n      calldataload\n      swap2\n        /* \"#utility.yul\":952:1132   */\n      swap1\n      pop\n      jump\t// out\n        /* \"#utility.yul\":1511:1629   */\n    tag_389:\n        /* \"#utility.yul\":1597:1602   */\n      dup1\n        /* \"#utility.yul\":1590:1603   */\n      iszero\n        /* \"#utility.yul\":1583:1604   */\n      iszero\n        /* \"#utility.yul\":1576:1581   */\n      dup2\n        /* \"#utility.yul\":1573:1605   */\n      eq\n        /* \"#utility.yul\":1563:1623   */\n      tag_229\n      jumpi\n        /* \"#utility.yul\":1619:1620   */\n      0x00\n        /* \"#utility.yul\":1616:1617   */\n      dup1\n        /* \"#utility.yul\":1609:1621   */\n      revert\n        /* \"#utility.yul\":1634:1875   */\n    tag_66:\n        /* \"#utility.yul\":1690:1696   */\n      0x00\n        /* \"#utility.yul\":1743:1745   */\n      0x20\n        /* \"#utility.yul\":1731:1740   */\n      dup3\n        /* \"#utility.yul\":1722:1729   */\n      dup5\n        /* \"#utility.yul\":1718:1741   */\n      sub\n        /* \"#utility.yul\":1714:1746   */\n      slt\n        /* \"#utility.yul\":1711:1763   */\n      iszero\n      tag_412\n      jumpi\n        /* \"#utility.yul\":1759:1760   */\n      0x00\n        /* \"#utility.yul\":1756:1757   */\n      dup1\n        /* \"#utility.yul\":1749:1761   */\n      revert\n        /* \"#utility.yul\":1711:1763   */\n    tag_412:\n        /* \"#utility.yul\":1798:1807   */\n      dup2\n        /* \"#utility.yul\":1785:1808   */\n      calldataload\n        /* \"#utility.yul\":1817:1845   */\n      tag_140\n        /* \"#utility.yul\":1839:1844   */\n      dup2\n        /* \"#utility.yul\":1817:1845   */\n      tag_389\n      jump\t// in\n        /* \"#utility.yul\":1880:2053   */\n    tag_390:\n        /* \"#utility.yul\":1948:1968   */\n      dup1\n      calldataload\n      sub(shl(0xa0, 0x01), 0x01)\n        /* \"#utility.yul\":1997:2028   */\n      dup2\n      and\n        /* \"#utility.yul\":1987:2029   */\n      dup2\n      eq\n        /* \"#utility.yul\":1977:2047   */\n      tag_415\n      jumpi\n        /* \"#utility.yul\":2043:2044   */\n      0x00\n        /* \"#utility.yul\":2040:2041   */\n      dup1\n        /* \"#utility.yul\":2033:2045   */\n      revert\n        /* \"#utility.yul\":1977:2047   */\n    tag_415:\n        /* \"#utility.yul\":1880:2053   */\n      swap2\n      swap1\n      pop\n      jump\t// out\n        /* \"#utility.yul\":2058:2244   */\n    tag_70:\n        /* \"#utility.yul\":2117:2123   */\n      0x00\n        /* \"#utility.yul\":2170:2172   */\n      0x20\n        /* \"#utility.yul\":2158:2167   */\n      dup3\n        /* \"#utility.yul\":2149:2156   */\n      dup5\n        /* \"#utility.yul\":2145:2168   */\n      sub\n        /* \"#utility.yul\":2141:2173   */\n      slt\n        /* \"#utility.yul\":2138:2190   */\n      iszero\n      tag_417\n      jumpi\n        /* \"#utility.yul\":2186:2187   */\n      0x00\n        /* \"#utility.yul\":2183:2184   */\n      dup1\n        /* \"#utility.yul\":2176:2188   */\n      revert\n        /* \"#utility.yul\":2138:2190   */\n    tag_417:\n        /* \"#utility.yul\":2209:2238   */\n      tag_140\n        /* \"#utility.yul\":2228:2237   */\n      dup3\n        /* \"#utility.yul\":2209:2238   */\n      tag_390\n      jump\t// in\n        /* \"#utility.yul\":2249:3508   */\n    tag_80:\n        /* \"#utility.yul\":2655:2658   */\n      0xff\n        /* \"#utility.yul\":2650:2653   */\n      0xf8\n        /* \"#utility.yul\":2646:2659   */\n      shl\n        /* \"#utility.yul\":2638:2644   */\n      dup9\n        /* \"#utility.yul\":2634:2660   */\n      and\n        /* \"#utility.yul\":2623:2632   */\n      dup2\n        /* \"#utility.yul\":2616:2661   */\n      mstore\n        /* \"#utility.yul\":2597:2601   */\n      0x00\n        /* \"#utility.yul\":2680:2682   */\n      0x20\n        /* \"#utility.yul\":2718:2721   */\n      0xe0\n        /* \"#utility.yul\":2713:2715   */\n      0x20\n        /* \"#utility.yul\":2702:2711   */\n      dup5\n        /* \"#utility.yul\":2698:2716   */\n      add\n        /* \"#utility.yul\":2691:2722   */\n      mstore\n        /* \"#utility.yul\":2745:2791   */\n      tag_420\n        /* \"#utility.yul\":2786:2789   */\n      0xe0\n        /* \"#utility.yul\":2775:2784   */\n      dup5\n        /* \"#utility.yul\":2771:2790   */\n      add\n        /* \"#utility.yul\":2763:2769   */\n      dup11\n        /* \"#utility.yul\":2745:2791   */\n      tag_388\n      jump\t// in\n    tag_420:\n        /* \"#utility.yul\":2839:2848   */\n      dup4\n        /* \"#utility.yul\":2831:2837   */\n      dup2\n        /* \"#utility.yul\":2827:2849   */\n      sub\n        /* \"#utility.yul\":2822:2824   */\n      0x40\n        /* \"#utility.yul\":2811:2820   */\n      dup6\n        /* \"#utility.yul\":2807:2825   */\n      add\n        /* \"#utility.yul\":2800:2850   */\n      mstore\n        /* \"#utility.yul\":2873:2906   */\n      tag_421\n        /* \"#utility.yul\":2899:2905   */\n      dup2\n        /* \"#utility.yul\":2891:2897   */\n      dup11\n        /* \"#utility.yul\":2873:2906   */\n      tag_388\n      jump\t// in\n    tag_421:\n        /* \"#utility.yul\":2937:2939   */\n      0x60\n        /* \"#utility.yul\":2922:2940   */\n      dup6\n      add\n        /* \"#utility.yul\":2915:2949   */\n      dup10\n      swap1\n      mstore\n      sub(shl(0xa0, 0x01), 0x01)\n        /* \"#utility.yul\":2986:3018   */\n      dup9\n      and\n        /* \"#utility.yul\":2980:2983   */\n      0x80\n        /* \"#utility.yul\":2965:2984   */\n      dup7\n      add\n        /* \"#utility.yul\":2958:3019   */\n      mstore\n        /* \"#utility.yul\":3006:3009   */\n      0xa0\n        /* \"#utility.yul\":3035:3054   */\n      dup6\n      add\n        /* \"#utility.yul\":3028:3063   */\n      dup8\n      swap1\n      mstore\n        /* \"#utility.yul\":3100:3122   */\n      dup5\n      dup2\n      sub\n        /* \"#utility.yul\":3094:3097   */\n      0xc0\n        /* \"#utility.yul\":3079:3098   */\n      dup7\n      add\n        /* \"#utility.yul\":3072:3123   */\n      mstore\n        /* \"#utility.yul\":3172:3185   */\n      dup6\n      mload\n        /* \"#utility.yul\":3194:3216   */\n      dup1\n      dup3\n      mstore\n        /* \"#utility.yul\":3244:3246   */\n      0x20\n        /* \"#utility.yul\":3270:3285   */\n      dup1\n      dup9\n      add\n      swap4\n      pop\n        /* \"#utility.yul\":3232:3247   */\n      swap1\n      swap2\n      add\n      swap1\n      0x00\n        /* \"#utility.yul\":3313:3482   */\n    tag_422:\n        /* \"#utility.yul\":3327:3333   */\n      dup2\n        /* \"#utility.yul\":3324:3325   */\n      dup2\n        /* \"#utility.yul\":3321:3334   */\n      lt\n        /* \"#utility.yul\":3313:3482   */\n      iszero\n      tag_424\n      jumpi\n        /* \"#utility.yul\":3388:3401   */\n      dup4\n      mload\n        /* \"#utility.yul\":3376:3402   */\n      dup4\n      mstore\n        /* \"#utility.yul\":3457:3472   */\n      swap3\n      dup5\n      add\n      swap3\n        /* \"#utility.yul\":3422:3434   */\n      swap2\n      dup5\n      add\n      swap2\n        /* \"#utility.yul\":3349:3350   */\n      0x01\n        /* \"#utility.yul\":3342:3351   */\n      add\n        /* \"#utility.yul\":3313:3482   */\n      jump(tag_422)\n    tag_424:\n      pop\n        /* \"#utility.yul\":3499:3502   */\n      swap1\n      swap13\n        /* \"#utility.yul\":2249:3508   */\n      swap12\n      pop\n      pop\n      pop\n      pop\n      pop\n      pop\n      pop\n      pop\n      pop\n      pop\n      pop\n      pop\n      jump\t// out\n        /* \"#utility.yul\":3721:4049   */\n    tag_108:\n        /* \"#utility.yul\":3798:3804   */\n      0x00\n        /* \"#utility.yul\":3806:3812   */\n      dup1\n        /* \"#utility.yul\":3814:3820   */\n      0x00\n        /* \"#utility.yul\":3867:3869   */\n      0x60\n        /* \"#utility.yul\":3855:3864   */\n      dup5\n        /* \"#utility.yul\":3846:3853   */\n      dup7\n        /* \"#utility.yul\":3842:3865   */\n      sub\n        /* \"#utility.yul\":3838:3870   */\n      slt\n        /* \"#utility.yul\":3835:3887   */\n      iszero\n      tag_427\n      jumpi\n        /* \"#utility.yul\":3883:3884   */\n      0x00\n        /* \"#utility.yul\":3880:3881   */\n      dup1\n        /* \"#utility.yul\":3873:3885   */\n      revert\n        /* \"#utility.yul\":3835:3887   */\n    tag_427:\n        /* \"#utility.yul\":3906:3935   */\n      tag_428\n        /* \"#utility.yul\":3925:3934   */\n      dup5\n        /* \"#utility.yul\":3906:3935   */\n      tag_390\n      jump\t// in\n    tag_428:\n        /* \"#utility.yul\":3896:3935   */\n      swap3\n      pop\n        /* \"#utility.yul\":3954:3992   */\n      tag_429\n        /* \"#utility.yul\":3988:3990   */\n      0x20\n        /* \"#utility.yul\":3977:3986   */\n      dup6\n        /* \"#utility.yul\":3973:3991   */\n      add\n        /* \"#utility.yul\":3954:3992   */\n      tag_390\n      jump\t// in\n    tag_429:\n        /* \"#utility.yul\":3944:3992   */\n      swap2\n      pop\n        /* \"#utility.yul\":4039:4041   */\n      0x40\n        /* \"#utility.yul\":4028:4037   */\n      dup5\n        /* \"#utility.yul\":4024:4042   */\n      add\n        /* \"#utility.yul\":4011:4043   */\n      calldataload\n        /* \"#utility.yul\":4001:4043   */\n      swap1\n      pop\n        /* \"#utility.yul\":3721:4049   */\n      swap3\n      pop\n      swap3\n      pop\n      swap3\n      jump\t// out\n        /* \"#utility.yul\":4054:4168   */\n    tag_391:\n        /* \"#utility.yul\":4138:4142   */\n      0xff\n        /* \"#utility.yul\":4131:4136   */\n      dup2\n        /* \"#utility.yul\":4127:4143   */\n      and\n        /* \"#utility.yul\":4120:4125   */\n      dup2\n        /* \"#utility.yul\":4117:4144   */\n      eq\n        /* \"#utility.yul\":4107:4162   */\n      tag_229\n      jumpi\n        /* \"#utility.yul\":4158:4159   */\n      0x00\n        /* \"#utility.yul\":4155:4156   */\n      dup1\n        /* \"#utility.yul\":4148:4160   */\n      revert\n        /* \"#utility.yul\":4173:4765   */\n    tag_118:\n        /* \"#utility.yul\":4275:4281   */\n      0x00\n        /* \"#utility.yul\":4283:4289   */\n      dup1\n        /* \"#utility.yul\":4291:4297   */\n      0x00\n        /* \"#utility.yul\":4299:4305   */\n      dup1\n        /* \"#utility.yul\":4307:4313   */\n      0x00\n        /* \"#utility.yul\":4315:4321   */\n      dup1\n        /* \"#utility.yul\":4368:4371   */\n      0xc0\n        /* \"#utility.yul\":4356:4365   */\n      dup8\n        /* \"#utility.yul\":4347:4354   */\n      dup10\n        /* \"#utility.yul\":4343:4366   */\n      sub\n        /* \"#utility.yul\":4339:4372   */\n      slt\n        /* \"#utility.yul\":4336:4389   */\n      iszero\n      tag_433\n      jumpi\n        /* \"#utility.yul\":4385:4386   */\n      0x00\n        /* \"#utility.yul\":4382:4383   */\n      dup1\n        /* \"#utility.yul\":4375:4387   */\n      revert\n        /* \"#utility.yul\":4336:4389   */\n    tag_433:\n        /* \"#utility.yul\":4408:4437   */\n      tag_434\n        /* \"#utility.yul\":4427:4436   */\n      dup8\n        /* \"#utility.yul\":4408:4437   */\n      tag_390\n      jump\t// in\n    tag_434:\n        /* \"#utility.yul\":4398:4437   */\n      swap6\n      pop\n        /* \"#utility.yul\":4484:4486   */\n      0x20\n        /* \"#utility.yul\":4473:4482   */\n      dup8\n        /* \"#utility.yul\":4469:4487   */\n      add\n        /* \"#utility.yul\":4456:4488   */\n      calldataload\n        /* \"#utility.yul\":4446:4488   */\n      swap5\n      pop\n        /* \"#utility.yul\":4535:4537   */\n      0x40\n        /* \"#utility.yul\":4524:4533   */\n      dup8\n        /* \"#utility.yul\":4520:4538   */\n      add\n        /* \"#utility.yul\":4507:4539   */\n      calldataload\n        /* \"#utility.yul\":4497:4539   */\n      swap4\n      pop\n        /* \"#utility.yul\":4589:4591   */\n      0x60\n        /* \"#utility.yul\":4578:4587   */\n      dup8\n        /* \"#utility.yul\":4574:4592   */\n      add\n        /* \"#utility.yul\":4561:4593   */\n      calldataload\n        /* \"#utility.yul\":4602:4631   */\n      tag_435\n        /* \"#utility.yul\":4625:4630   */\n      dup2\n        /* \"#utility.yul\":4602:4631   */\n      tag_391\n      jump\t// in\n    tag_435:\n        /* \"#utility.yul\":4173:4765   */\n      swap6\n      swap9\n      swap5\n      swap8\n      pop\n      swap3\n      swap6\n        /* \"#utility.yul\":4702:4705   */\n      0x80\n        /* \"#utility.yul\":4687:4706   */\n      dup2\n      add\n        /* \"#utility.yul\":4674:4707   */\n      calldataload\n      swap5\n        /* \"#utility.yul\":4754:4757   */\n      0xa0\n        /* \"#utility.yul\":4739:4758   */\n      swap1\n      swap2\n      add\n        /* \"#utility.yul\":4726:4759   */\n      calldataload\n      swap4\n      pop\n        /* \"#utility.yul\":4173:4765   */\n      swap2\n      pop\n      pop\n      jump\t// out\n        /* \"#utility.yul\":4770:5150   */\n    tag_124:\n        /* \"#utility.yul\":4849:4850   */\n      0x01\n        /* \"#utility.yul\":4845:4857   */\n      dup2\n      dup2\n      shr\n      swap1\n        /* \"#utility.yul\":4892:4904   */\n      dup3\n      and\n      dup1\n        /* \"#utility.yul\":4913:4974   */\n      tag_437\n      jumpi\n        /* \"#utility.yul\":4967:4971   */\n      0x7f\n        /* \"#utility.yul\":4959:4965   */\n      dup3\n        /* \"#utility.yul\":4955:4972   */\n      and\n        /* \"#utility.yul\":4945:4972   */\n      swap2\n      pop\n        /* \"#utility.yul\":4913:4974   */\n    tag_437:\n        /* \"#utility.yul\":5020:5022   */\n      0x20\n        /* \"#utility.yul\":5012:5018   */\n      dup3\n        /* \"#utility.yul\":5009:5023   */\n      lt\n        /* \"#utility.yul\":4989:5007   */\n      dup2\n        /* \"#utility.yul\":4986:5024   */\n      sub\n        /* \"#utility.yul\":4983:5144   */\n      tag_438\n      jumpi\n        /* \"#utility.yul\":5066:5076   */\n      0x4e487b71\n        /* \"#utility.yul\":5061:5064   */\n      0xe0\n        /* \"#utility.yul\":5057:5077   */\n      shl\n        /* \"#utility.yul\":5054:5055   */\n      0x00\n        /* \"#utility.yul\":5047:5078   */\n      mstore\n        /* \"#utility.yul\":5101:5105   */\n      0x22\n        /* \"#utility.yul\":5098:5099   */\n      0x04\n        /* \"#utility.yul\":5091:5106   */\n      mstore\n        /* \"#utility.yul\":5129:5133   */\n      0x24\n        /* \"#utility.yul\":5126:5127   */\n      0x00\n        /* \"#utility.yul\":5119:5134   */\n      revert\n        /* \"#utility.yul\":4983:5144   */\n    tag_438:\n      pop\n        /* \"#utility.yul\":4770:5150   */\n      swap2\n      swap1\n      pop\n      jump\t// out\n        /* \"#utility.yul\":5155:5282   */\n    tag_392:\n        /* \"#utility.yul\":5216:5226   */\n      0x4e487b71\n        /* \"#utility.yul\":5211:5214   */\n      0xe0\n        /* \"#utility.yul\":5207:5227   */\n      shl\n        /* \"#utility.yul\":5204:5205   */\n      0x00\n        /* \"#utility.yul\":5197:5228   */\n      mstore\n        /* \"#utility.yul\":5247:5251   */\n      0x11\n        /* \"#utility.yul\":5244:5245   */\n      0x04\n        /* \"#utility.yul\":5237:5252   */\n      mstore\n        /* \"#utility.yul\":5271:5275   */\n      0x24\n        /* \"#utility.yul\":5268:5269   */\n      0x00\n        /* \"#utility.yul\":5261:5276   */\n      revert\n        /* \"#utility.yul\":5287:5455   */\n    tag_131:\n        /* \"#utility.yul\":5360:5369   */\n      dup1\n      dup3\n      mul\n        /* \"#utility.yul\":5391:5400   */\n      dup2\n      iszero\n        /* \"#utility.yul\":5408:5423   */\n      dup3\n      dup3\n      div\n        /* \"#utility.yul\":5402:5424   */\n      dup5\n      eq\n        /* \"#utility.yul\":5388:5425   */\n      or\n        /* \"#utility.yul\":5378:5449   */\n      tag_298\n      jumpi\n        /* \"#utility.yul\":5429:5447   */\n      tag_298\n      tag_392\n      jump\t// in\n        /* \"#utility.yul\":5460:5707   */\n    tag_135:\n        /* \"#utility.yul\":5528:5534   */\n      0x00\n        /* \"#utility.yul\":5581:5583   */\n      0x20\n        /* \"#utility.yul\":5569:5578   */\n      dup3\n        /* \"#utility.yul\":5560:5567   */\n      dup5\n        /* \"#utility.yul\":5556:5579   */\n      sub\n        /* \"#utility.yul\":5552:5584   */\n      slt\n        /* \"#utility.yul\":5549:5601   */\n      iszero\n      tag_444\n      jumpi\n        /* \"#utility.yul\":5597:5598   */\n      0x00\n        /* \"#utility.yul\":5594:5595   */\n      dup1\n        /* \"#utility.yul\":5587:5599   */\n      revert\n        /* \"#utility.yul\":5549:5601   */\n    tag_444:\n        /* \"#utility.yul\":5629:5638   */\n      dup2\n        /* \"#utility.yul\":5623:5639   */\n      mload\n        /* \"#utility.yul\":5648:5677   */\n      tag_140\n        /* \"#utility.yul\":5671:5676   */\n      dup2\n        /* \"#utility.yul\":5648:5677   */\n      tag_391\n      jump\t// in\n        /* \"#utility.yul\":5712:6128   */\n    tag_393:\n        /* \"#utility.yul\":5801:5802   */\n      0x01\n        /* \"#utility.yul\":5838:5843   */\n      dup2\n        /* \"#utility.yul\":5801:5802   */\n      dup2\n        /* \"#utility.yul\":5852:6122   */\n    tag_447:\n        /* \"#utility.yul\":5873:5880   */\n      dup1\n        /* \"#utility.yul\":5863:5871   */\n      dup6\n        /* \"#utility.yul\":5860:5881   */\n      gt\n        /* \"#utility.yul\":5852:6122   */\n      iszero\n      tag_449\n      jumpi\n        /* \"#utility.yul\":5932:5936   */\n      dup2\n        /* \"#utility.yul\":5928:5929   */\n      0x00\n        /* \"#utility.yul\":5924:5930   */\n      not\n        /* \"#utility.yul\":5920:5937   */\n      div\n        /* \"#utility.yul\":5914:5918   */\n      dup3\n        /* \"#utility.yul\":5911:5938   */\n      gt\n        /* \"#utility.yul\":5908:5961   */\n      iszero\n      tag_451\n      jumpi\n        /* \"#utility.yul\":5941:5959   */\n      tag_451\n      tag_392\n      jump\t// in\n    tag_451:\n        /* \"#utility.yul\":5991:5998   */\n      dup1\n        /* \"#utility.yul\":5981:5989   */\n      dup6\n        /* \"#utility.yul\":5977:5999   */\n      and\n        /* \"#utility.yul\":5974:6029   */\n      iszero\n      tag_452\n      jumpi\n        /* \"#utility.yul\":6011:6027   */\n      swap2\n      dup2\n      mul\n      swap2\n        /* \"#utility.yul\":5974:6029   */\n    tag_452:\n        /* \"#utility.yul\":6090:6112   */\n      swap4\n      dup5\n      shr\n      swap4\n        /* \"#utility.yul\":6050:6065   */\n      swap1\n      dup1\n      mul\n      swap1\n        /* \"#utility.yul\":5852:6122   */\n      jump(tag_447)\n    tag_449:\n        /* \"#utility.yul\":5856:5859   */\n      pop\n        /* \"#utility.yul\":5712:6128   */\n      swap3\n      pop\n      swap3\n      swap1\n      pop\n      jump\t// out\n        /* \"#utility.yul\":6133:6939   */\n    tag_394:\n        /* \"#utility.yul\":6182:6187   */\n      0x00\n        /* \"#utility.yul\":6212:6220   */\n      dup3\n        /* \"#utility.yul\":6202:6282   */\n      tag_454\n      jumpi\n      pop\n        /* \"#utility.yul\":6253:6254   */\n      0x01\n        /* \"#utility.yul\":6267:6272   */\n      jump(tag_298)\n        /* \"#utility.yul\":6202:6282   */\n    tag_454:\n        /* \"#utility.yul\":6301:6305   */\n      dup2\n        /* \"#utility.yul\":6291:6367   */\n      tag_455\n      jumpi\n      pop\n        /* \"#utility.yul\":6338:6339   */\n      0x00\n        /* \"#utility.yul\":6352:6357   */\n      jump(tag_298)\n        /* \"#utility.yul\":6291:6367   */\n    tag_455:\n        /* \"#utility.yul\":6383:6387   */\n      dup2\n        /* \"#utility.yul\":6401:6402   */\n      0x01\n        /* \"#utility.yul\":6396:6455   */\n      dup2\n      eq\n      tag_457\n      jumpi\n        /* \"#utility.yul\":6469:6470   */\n      0x02\n        /* \"#utility.yul\":6464:6594   */\n      dup2\n      eq\n      tag_458\n      jumpi\n        /* \"#utility.yul\":6376:6594   */\n      jump(tag_456)\n        /* \"#utility.yul\":6396:6455   */\n    tag_457:\n        /* \"#utility.yul\":6426:6427   */\n      0x01\n        /* \"#utility.yul\":6417:6427   */\n      swap2\n      pop\n        /* \"#utility.yul\":6440:6445   */\n      pop\n      jump(tag_298)\n        /* \"#utility.yul\":6464:6594   */\n    tag_458:\n        /* \"#utility.yul\":6501:6504   */\n      0xff\n        /* \"#utility.yul\":6491:6499   */\n      dup5\n        /* \"#utility.yul\":6488:6505   */\n      gt\n        /* \"#utility.yul\":6485:6528   */\n      iszero\n      tag_460\n      jumpi\n        /* \"#utility.yul\":6508:6526   */\n      tag_460\n      tag_392\n      jump\t// in\n    tag_460:\n      pop\n      pop\n        /* \"#utility.yul\":6564:6565   */\n      0x01\n        /* \"#utility.yul\":6550:6566   */\n      dup3\n      shl\n        /* \"#utility.yul\":6579:6584   */\n      jump(tag_298)\n        /* \"#utility.yul\":6376:6594   */\n    tag_456:\n      pop\n        /* \"#utility.yul\":6678:6680   */\n      0x20\n        /* \"#utility.yul\":6668:6676   */\n      dup4\n        /* \"#utility.yul\":6665:6681   */\n      lt\n        /* \"#utility.yul\":6659:6662   */\n      0x0133\n        /* \"#utility.yul\":6653:6657   */\n      dup4\n        /* \"#utility.yul\":6650:6663   */\n      lt\n        /* \"#utility.yul\":6646:6682   */\n      and\n        /* \"#utility.yul\":6640:6642   */\n      0x4e\n        /* \"#utility.yul\":6630:6638   */\n      dup5\n        /* \"#utility.yul\":6627:6643   */\n      lt\n        /* \"#utility.yul\":6622:6624   */\n      0x0b\n        /* \"#utility.yul\":6616:6620   */\n      dup5\n        /* \"#utility.yul\":6613:6625   */\n      lt\n        /* \"#utility.yul\":6609:6644   */\n      and\n        /* \"#utility.yul\":6606:6683   */\n      or\n        /* \"#utility.yul\":6603:6762   */\n      iszero\n      tag_461\n      jumpi\n      pop\n        /* \"#utility.yul\":6715:6734   */\n      dup2\n      dup2\n      exp\n        /* \"#utility.yul\":6747:6752   */\n      jump(tag_298)\n        /* \"#utility.yul\":6603:6762   */\n    tag_461:\n        /* \"#utility.yul\":6794:6828   */\n      tag_462\n        /* \"#utility.yul\":6819:6827   */\n      dup4\n        /* \"#utility.yul\":6813:6817   */\n      dup4\n        /* \"#utility.yul\":6794:6828   */\n      tag_393\n      jump\t// in\n    tag_462:\n        /* \"#utility.yul\":6864:6870   */\n      dup1\n        /* \"#utility.yul\":6860:6861   */\n      0x00\n        /* \"#utility.yul\":6856:6862   */\n      not\n        /* \"#utility.yul\":6852:6871   */\n      div\n        /* \"#utility.yul\":6843:6850   */\n      dup3\n        /* \"#utility.yul\":6840:6872   */\n      gt\n        /* \"#utility.yul\":6837:6895   */\n      iszero\n      tag_464\n      jumpi\n        /* \"#utility.yul\":6875:6893   */\n      tag_464\n      tag_392\n      jump\t// in\n    tag_464:\n        /* \"#utility.yul\":6913:6933   */\n      mul\n      swap4\n        /* \"#utility.yul\":6133:6939   */\n      swap3\n      pop\n      pop\n      pop\n      jump\t// out\n        /* \"#utility.yul\":6944:7084   */\n    tag_137:\n        /* \"#utility.yul\":7002:7007   */\n      0x00\n        /* \"#utility.yul\":7031:7078   */\n      tag_140\n        /* \"#utility.yul\":7072:7076   */\n      0xff\n        /* \"#utility.yul\":7062:7070   */\n      dup5\n        /* \"#utility.yul\":7058:7077   */\n      and\n        /* \"#utility.yul\":7052:7056   */\n      dup4\n        /* \"#utility.yul\":7031:7078   */\n      tag_394\n      jump\t// in\n        /* \"#utility.yul\":7089:7306   */\n    tag_141:\n        /* \"#utility.yul\":7129:7130   */\n      0x00\n        /* \"#utility.yul\":7155:7156   */\n      dup3\n        /* \"#utility.yul\":7145:7277   */\n      tag_468\n      jumpi\n        /* \"#utility.yul\":7199:7209   */\n      0x4e487b71\n        /* \"#utility.yul\":7194:7197   */\n      0xe0\n        /* \"#utility.yul\":7190:7210   */\n      shl\n        /* \"#utility.yul\":7187:7188   */\n      0x00\n        /* \"#utility.yul\":7180:7211   */\n      mstore\n        /* \"#utility.yul\":7234:7238   */\n      0x12\n        /* \"#utility.yul\":7231:7232   */\n      0x04\n        /* \"#utility.yul\":7224:7239   */\n      mstore\n        /* \"#utility.yul\":7262:7266   */\n      0x24\n        /* \"#utility.yul\":7259:7260   */\n      0x00\n        /* \"#utility.yul\":7252:7267   */\n      revert\n        /* \"#utility.yul\":7145:7277   */\n    tag_468:\n      pop\n        /* \"#utility.yul\":7291:7300   */\n      div\n      swap1\n        /* \"#utility.yul\":7089:7306   */\n      jump\t// out\n        /* \"#utility.yul\":7443:7798   */\n    tag_178:\n        /* \"#utility.yul\":7645:7647   */\n      0x20\n        /* \"#utility.yul\":7627:7648   */\n      dup1\n      dup3\n      mstore\n        /* \"#utility.yul\":7684:7686   */\n      0x1f\n        /* \"#utility.yul\":7664:7682   */\n      swap1\n      dup3\n      add\n        /* \"#utility.yul\":7657:7687   */\n      mstore\n        /* \"#utility.yul\":7723:7756   */\n      0x796f75206172652073656e64696e6720746f207a65726f206164647265737300\n        /* \"#utility.yul\":7718:7720   */\n      0x40\n        /* \"#utility.yul\":7703:7721   */\n      dup3\n      add\n        /* \"#utility.yul\":7696:7757   */\n      mstore\n        /* \"#utility.yul\":7789:7791   */\n      0x60\n        /* \"#utility.yul\":7774:7792   */\n      add\n      swap1\n        /* \"#utility.yul\":7443:7798   */\n      jump\t// out\n        /* \"#utility.yul\":7803:7987   */\n    tag_183:\n        /* \"#utility.yul\":7873:7879   */\n      0x00\n        /* \"#utility.yul\":7926:7928   */\n      0x20\n        /* \"#utility.yul\":7914:7923   */\n      dup3\n        /* \"#utility.yul\":7905:7912   */\n      dup5\n        /* \"#utility.yul\":7901:7924   */\n      sub\n        /* \"#utility.yul\":7897:7929   */\n      slt\n        /* \"#utility.yul\":7894:7946   */\n      iszero\n      tag_472\n      jumpi\n        /* \"#utility.yul\":7942:7943   */\n      0x00\n        /* \"#utility.yul\":7939:7940   */\n      dup1\n        /* \"#utility.yul\":7932:7944   */\n      revert\n        /* \"#utility.yul\":7894:7946   */\n    tag_472:\n      pop\n        /* \"#utility.yul\":7965:7981   */\n      mload\n      swap2\n        /* \"#utility.yul\":7803:7987   */\n      swap1\n      pop\n      jump\t// out\n        /* \"#utility.yul\":7992:8117   */\n    tag_185:\n        /* \"#utility.yul\":8057:8066   */\n      dup1\n      dup3\n      add\n        /* \"#utility.yul\":8078:8088   */\n      dup1\n      dup3\n      gt\n        /* \"#utility.yul\":8075:8111   */\n      iszero\n      tag_298\n      jumpi\n        /* \"#utility.yul\":8091:8109   */\n      tag_298\n      tag_392\n      jump\t// in\n        /* \"#utility.yul\":8122:8250   */\n    tag_188:\n        /* \"#utility.yul\":8189:8198   */\n      dup2\n      dup2\n      sub\n        /* \"#utility.yul\":8210:8221   */\n      dup2\n      dup2\n      gt\n        /* \"#utility.yul\":8207:8244   */\n      iszero\n      tag_298\n      jumpi\n        /* \"#utility.yul\":8224:8242   */\n      tag_298\n      tag_392\n      jump\t// in\n        /* \"#utility.yul\":9233:9478   */\n    tag_223:\n        /* \"#utility.yul\":9300:9306   */\n      0x00\n        /* \"#utility.yul\":9353:9355   */\n      0x20\n        /* \"#utility.yul\":9341:9350   */\n      dup3\n        /* \"#utility.yul\":9332:9339   */\n      dup5\n        /* \"#utility.yul\":9328:9351   */\n      sub\n        /* \"#utility.yul\":9324:9356   */\n      slt\n        /* \"#utility.yul\":9321:9373   */\n      iszero\n      tag_483\n      jumpi\n        /* \"#utility.yul\":9369:9370   */\n      0x00\n        /* \"#utility.yul\":9366:9367   */\n      dup1\n        /* \"#utility.yul\":9359:9371   */\n      revert\n        /* \"#utility.yul\":9321:9373   */\n    tag_483:\n        /* \"#utility.yul\":9401:9410   */\n      dup2\n        /* \"#utility.yul\":9395:9411   */\n      mload\n        /* \"#utility.yul\":9420:9448   */\n      tag_140\n        /* \"#utility.yul\":9442:9447   */\n      dup2\n        /* \"#utility.yul\":9420:9448   */\n      tag_389\n      jump\t// in\n        /* \"#utility.yul\":12621:12748   */\n    tag_340:\n        /* \"#utility.yul\":12682:12692   */\n      0x4e487b71\n        /* \"#utility.yul\":12677:12680   */\n      0xe0\n        /* \"#utility.yul\":12673:12693   */\n      shl\n        /* \"#utility.yul\":12670:12671   */\n      0x00\n        /* \"#utility.yul\":12663:12694   */\n      mstore\n        /* \"#utility.yul\":12713:12717   */\n      0x21\n        /* \"#utility.yul\":12710:12711   */\n      0x04\n        /* \"#utility.yul\":12703:12718   */\n      mstore\n        /* \"#utility.yul\":12737:12741   */\n      0x24\n        /* \"#utility.yul\":12734:12735   */\n      0x00\n        /* \"#utility.yul\":12727:12742   */\n      revert\n        /* \"#utility.yul\":12753:13040   */\n    tag_370:\n        /* \"#utility.yul\":12882:12885   */\n      0x00\n        /* \"#utility.yul\":12920:12926   */\n      dup3\n        /* \"#utility.yul\":12914:12927   */\n      mload\n        /* \"#utility.yul\":12936:13002   */\n      tag_495\n        /* \"#utility.yul\":12995:13001   */\n      dup2\n        /* \"#utility.yul\":12990:12993   */\n      dup5\n        /* \"#utility.yul\":12983:12987   */\n      0x20\n        /* \"#utility.yul\":12975:12981   */\n      dup8\n        /* \"#utility.yul\":12971:12988   */\n      add\n        /* \"#utility.yul\":12936:13002   */\n      tag_387\n      jump\t// in\n    tag_495:\n        /* \"#utility.yul\":13018:13034   */\n      swap2\n      swap1\n      swap2\n      add\n      swap3\n        /* \"#utility.yul\":12753:13040   */\n      swap2\n      pop\n      pop\n      jump\t// out\n\n    auxdata: 0xa2646970667358221220200b4ce79d87c1aec0797c58112fa52c8f87218bedf4b4598d52c0cc4b05dcdd64736f6c63430008160033\n}\n",
				"bytecode": {
					"linkReferences": {},
					"object": "61016060405234801562000011575f80fd5b5060405162001cf738038062001cf78339810160408190526200003491620002b9565b6040805180820190915260018152603160f81b60208201528290846001600160a01b0381166200007e57604051631e4fbdf760e01b81525f60048201526024015b60405180910390fd5b62000089816200019c565b5062000097826001620001eb565b61012052620000a8816002620001eb565b61014052815160208084019190912060e052815190820120610100524660a0526200013560e05161010051604080517f8b73c3c69bb8fe3d512ecc4cf759cc79239f7b179b0ffacaa9a75d522b39400f60208201529081019290925260608201524660808201523060a08201525f9060c00160405160208183030381529060405280519060200120905090565b60805250503060c052600c6200014c83826200041d565b50600a600555611388600655600380546001600160a01b039283166001600160a01b03199182168117909255600480548216909217909155600d8054949092169316929092179091555062000541565b5f80546001600160a01b038381166001600160a01b0319831681178455604051919092169283917f8be0079c531659141344cd1fd0a4f28419497f9722a3daafe3b4186f6b6457e09190a35050565b5f6020835110156200020a57620002028362000223565b90506200021d565b816200021784826200041d565b5060ff90505b92915050565b5f80829050601f8151111562000250578260405163305a27a960e01b8152600401620000759190620004e9565b80516200025d826200051d565b179392505050565b80516001600160a01b03811681146200027c575f80fd5b919050565b634e487b7160e01b5f52604160045260245ffd5b5f5b83811015620002b157818101518382015260200162000297565b50505f910152565b5f805f60608486031215620002cc575f80fd5b620002d78462000265565b60208501519093506001600160401b0380821115620002f4575f80fd5b818601915086601f83011262000308575f80fd5b8151818111156200031d576200031d62000281565b604051601f8201601f19908116603f0116810190838211818310171562000348576200034862000281565b8160405282815289602084870101111562000361575f80fd5b6200037483602083016020880162000295565b80965050505050506200038a6040850162000265565b90509250925092565b600181811c90821680620003a857607f821691505b602082108103620003c757634e487b7160e01b5f52602260045260245ffd5b50919050565b601f8211156200041857805f5260205f20601f840160051c81016020851015620003f45750805b601f840160051c820191505b8181101562000415575f815560010162000400565b50505b505050565b81516001600160401b0381111562000439576200043962000281565b62000451816200044a845462000393565b84620003cd565b602080601f83116001811462000487575f84156200046f5750858301515b5f19600386901b1c1916600185901b178555620004e1565b5f85815260208120601f198616915b82811015620004b75788860151825594840194600190910190840162000496565b5085821015620004d557878501515f19600388901b60f8161c191681555b505060018460011b0185555b505050505050565b602081525f82518060208401526200050981604085016020870162000295565b601f01601f19169190910160400192915050565b80516020808301519190811015620003c7575f1960209190910360031b1b16919050565b60805160a05160c05160e051610100516101205161014051611764620005935f395f610c2301525f610bf601525f610b5001525f610b2801525f610a8301525f610aad01525f610ad701526117645ff3fe608060405234801561000f575f80fd5b5060043610610187575f3560e01c80638bc7e8c4116100d9578063cbeacb8011610093578063f2fde38b1161006e578063f2fde38b1461031c578063f851a4401461032f578063f9c3a1e814610342578063fd91871614610355575f80fd5b8063cbeacb80146102ed578063e1fefd4214610300578063e63ea40814610309575f80fd5b80638bc7e8c41461027e5780638da5cb5b146102875780639683cdc4146102ab578063ac1e5025146102be578063c08e7286146102d1578063c4a9e858146102e4575f80fd5b80633644e51511610144578063704b6c021161011f578063704b6c0214610235578063715018a61461024857806376ee947f1461025057806384b0196e14610263575f80fd5b80633644e5151461021157806367a52793146102195780636b4c078914610222575f80fd5b806306e0e5821461018b5780630ace9ca0146101a75780630d461e61146101bc578063252de51b146101cf5780632c4e722e146101f357806334fcf437146101fc575b5f80fd5b61019460095481565b6040519081526020015b60405180910390f35b6101af61035e565b60405161019e919061132c565b6101946101ca36600461133e565b6103ea565b600d546101e390600160a01b900460ff1681565b604051901515815260200161019e565b61019460065481565b61020f61020a36600461133e565b6104a7565b005b6101946104b4565b61019460055481565b61020f610230366004611362565b6104c2565b61020f610243366004611398565b6104e8565b61020f610512565b61020f61025e36600461133e565b610525565b61026b610532565b60405161019e97969594939291906113b1565b61019460075481565b5f546001600160a01b03165b6040516001600160a01b03909116815260200161019e565b61020f6102b9366004611398565b610574565b61020f6102cc36600461133e565b6106ef565b61020f6102df36600461133e565b6106fc565b610194600b5481565b61020f6102fb366004611398565b61071c565b61019460085481565b61020f610317366004611448565b610750565b61020f61032a366004611398565b61085b565b600d54610293906001600160a01b031681565b61020f61035036600461148f565b610898565b610194600a5481565b600c805461036b906114e5565b80601f0160208091040260200160405190810160405280929190818152602001828054610397906114e5565b80156103e25780601f106103b9576101008083540402835291602001916103e2565b820191905f5260205f20905b8154815290600101906020018083116103c557829003601f168201915b505050505081565b5f80600654670de0b6b3a76400006104029190611531565b60035f9054906101000a90046001600160a01b03166001600160a01b031663313ce5676040518163ffffffff1660e01b8152600401602060405180830381865afa158015610452573d5f803e3d5ffd5b505050506040513d601f19601f820116820180604052508101906104769190611548565b61048190600a611643565b61048c856001611531565b6104969190611531565b6104a09190611651565b9392505050565b6104af610a4b565b600655565b5f6104bd610a77565b905090565b6104ca610a4b565b600d8054911515600160a01b0260ff60a01b19909216919091179055565b6104f0610a4b565b600d80546001600160a01b0319166001600160a01b0392909216919091179055565b61051a610a4b565b6105235f610ba0565b565b61052d610a4b565b600555565b5f6060805f805f6060610543610bef565b61054b610c1c565b604080515f80825260208201909252600f60f81b9b939a50919850469750309650945092509050565b61057c610a4b565b6001600160a01b0381166105ab5760405162461bcd60e51b81526004016105a290611670565b60405180910390fd5b6003546040516370a0823160e01b81523060048201525f916001600160a01b0316906370a0823190602401602060405180830381865afa1580156105f1573d5f803e3d5ffd5b505050506040513d601f19601f8201168201806040525081019061061591906116a7565b90505f600954600b54600a548461062c91906116be565b61063691906116be565b61064091906116d1565b90508060095f82825461065391906116be565b90915550506005545f9060649061066a9084611531565b6106749190611651565b90505f81116106bc5760405162461bcd60e51b81526020600482015260146024820152731b9bc81b995dc819195c1bdcda5d08185919195960621b60448201526064016105a2565b80600b5f8282546106cd91906116be565b90915550506004546106e9906001600160a01b03168583610c49565b50505050565b6106f7610a4b565b600755565b610704610a4b565b61071681670de0b6b3a7640000611531565b60085550565b610724610a4b565b600380546001600160a01b039092166001600160a01b0319928316811790915560048054909216179055565b610758610a4b565b6001600160a01b03831661077e5760405162461bcd60e51b81526004016105a290611670565b6001600160a01b0382166107a45760405162461bcd60e51b81526004016105a290611670565b5f81116107eb5760405162461bcd60e51b815260206004820152601560248201527418d85b9d081cd95b99081e995c9bc8185b5bdd5b9d605a1b60448201526064016105a2565b60405163a9059cbb60e01b81526001600160a01b0383811660048301526024820183905284169063a9059cbb906044016020604051808303815f875af1158015610837573d5f803e3d5ffd5b505050506040513d601f19601f820116820180604052508101906106e991906116e4565b610863610a4b565b6001600160a01b03811661088c57604051631e4fbdf760e01b81525f60048201526024016105a2565b61089581610ba0565b50565b6001600160a01b0386166108be5760405162461bcd60e51b81526004016105a290611670565b6108cc868686868686610ca0565b600d54600160a01b900460ff16156109195760405162461bcd60e51b815260206004820152601060248201526f18dbdb9d1c9858dd08199c99595e995960821b60448201526064016105a2565b6008548510156109765760405162461bcd60e51b815260206004820152602260248201527f706f696e747320746f2073776170206c657373207468616e206d696e706f696e604482015261747360f01b60648201526084016105a2565b5f610980866103ea565b905080600a5f82825461099391906116be565b90915550506007545f906064906109aa9084611531565b6109b49190611651565b90505f6109c182846116d1565b6004549091506109db906001600160a01b03168a83610c49565b6004546109f2906001600160a01b03163384610c49565b604080518981526020810183905290810183905242906001600160a01b038b16907f9a5f60e59cc27a7c25a7f78275c910454cd9adacb21cecff527c98ed63e028779060600160405180910390a3505050505050505050565b5f546001600160a01b031633146105235760405163118cdaa760e01b81523360048201526024016105a2565b5f306001600160a01b037f000000000000000000000000000000000000000000000000000000000000000016148015610acf57507f000000000000000000000000000000000000000000000000000000000000000046145b15610af957507f000000000000000000000000000000000000000000000000000000000000000090565b6104bd604080517f8b73c3c69bb8fe3d512ecc4cf759cc79239f7b179b0ffacaa9a75d522b39400f60208201527f0000000000000000000000000000000000000000000000000000000000000000918101919091527f000000000000000000000000000000000000000000000000000000000000000060608201524660808201523060a08201525f9060c00160405160208183030381529060405280519060200120905090565b5f80546001600160a01b038381166001600160a01b0319831681178455604051919092169283917f8be0079c531659141344cd1fd0a4f28419497f9722a3daafe3b4186f6b6457e09190a35050565b60606104bd7f00000000000000000000000000000000000000000000000000000000000000006001610e68565b60606104bd7f00000000000000000000000000000000000000000000000000000000000000006002610e68565b604080516001600160a01b038416602482015260448082018490528251808303909101815260649091019091526020810180516001600160e01b031663a9059cbb60e01b179052610c9b908490610f13565b505050565b60ff8084165f908152600e6020526040902054161580610cce57505f828152600f602052604090205460ff16155b80610ce757505f8181526010602052604090205460ff16155b610d1e5760405162461bcd60e51b81526020600482015260086024820152671cda59c81d5cd95960c21b60448201526064016105a2565b83421115610d425760405163313c898160e11b8152600481018590526024016105a2565b600d54604080517f05619a74ecd0240afc3bfb1df2bd1319401220fb577809c3a09bf0ab809ac86160208201526001600160a01b039283169181019190915290871660608201526080810186905260a081018590525f9060c0016040516020818303038152906040528051906020012090505f610dbe82610f74565b90505f610dcd82878787610fa0565b600d549091506001600160a01b03808316911614610e1557600d546040516325c0072360e11b81526001600160a01b03808416600483015290911660248201526044016105a2565b50505060ff9092165f908152600e60209081526040808320805460ff199081166001908117909255948452600f835281842080548616821790559483526010909152902080549091169091179055505050565b606060ff8314610e8257610e7b83610fcc565b9050610f0d565b818054610e8e906114e5565b80601f0160208091040260200160405190810160405280929190818152602001828054610eba906114e5565b8015610f055780601f10610edc57610100808354040283529160200191610f05565b820191905f5260205f20905b815481529060010190602001808311610ee857829003601f168201915b505050505090505b92915050565b5f610f276001600160a01b03841683611009565b905080515f14158015610f4b575080806020019051810190610f4991906116e4565b155b15610c9b57604051635274afe760e01b81526001600160a01b03841660048201526024016105a2565b5f610f0d610f80610a77565b8360405161190160f01b8152600281019290925260228201526042902090565b5f805f80610fb088888888611016565b925092509250610fc082826110de565b50909695505050505050565b60605f610fd88361119a565b6040805160208082528183019092529192505f91906020820181803683375050509182525060208101929092525090565b60606104a083835f6111c1565b5f80807f7fffffffffffffffffffffffffffffff5d576e7357a4501ddfe92f46681b20a084111561104f57505f915060039050826110d4565b604080515f808252602082018084528a905260ff891692820192909252606081018790526080810186905260019060a0016020604051602081039080840390855afa1580156110a0573d5f803e3d5ffd5b5050604051601f1901519150506001600160a01b0381166110cb57505f9250600191508290506110d4565b92505f91508190505b9450945094915050565b5f8260038111156110f1576110f16116ff565b036110fa575050565b600182600381111561110e5761110e6116ff565b0361112c5760405163f645eedf60e01b815260040160405180910390fd5b6002826003811115611140576111406116ff565b036111615760405163fce698f760e01b8152600481018290526024016105a2565b6003826003811115611175576111756116ff565b03611196576040516335e2f38360e21b8152600481018290526024016105a2565b5050565b5f60ff8216601f811115610f0d57604051632cd44ac360e21b815260040160405180910390fd5b6060814710156111e65760405163cd78605960e01b81523060048201526024016105a2565b5f80856001600160a01b031684866040516112019190611713565b5f6040518083038185875af1925050503d805f811461123b576040519150601f19603f3d011682016040523d82523d5f602084013e611240565b606091505b509150915061125086838361125a565b9695505050505050565b60608261126f5761126a826112b6565b6104a0565b815115801561128657506001600160a01b0384163b155b156112af57604051639996b31560e01b81526001600160a01b03851660048201526024016105a2565b50806104a0565b8051156112c65780518082602001fd5b604051630a12f52160e11b815260040160405180910390fd5b5f5b838110156112f95781810151838201526020016112e1565b50505f910152565b5f81518084526113188160208601602086016112df565b601f01601f19169290920160200192915050565b602081525f6104a06020830184611301565b5f6020828403121561134e575f80fd5b5035919050565b8015158114610895575f80fd5b5f60208284031215611372575f80fd5b81356104a081611355565b80356001600160a01b0381168114611393575f80fd5b919050565b5f602082840312156113a8575f80fd5b6104a08261137d565b60ff60f81b881681525f602060e060208401526113d160e084018a611301565b83810360408501526113e3818a611301565b606085018990526001600160a01b038816608086015260a0850187905284810360c0860152855180825260208088019350909101905f5b818110156114365783518352928401929184019160010161141a565b50909c9b505050505050505050505050565b5f805f6060848603121561145a575f80fd5b6114638461137d565b92506114716020850161137d565b9150604084013590509250925092565b60ff81168114610895575f80fd5b5f805f805f8060c087890312156114a4575f80fd5b6114ad8761137d565b9550602087013594506040870135935060608701356114cb81611481565b9598949750929560808101359460a0909101359350915050565b600181811c908216806114f957607f821691505b60208210810361151757634e487b7160e01b5f52602260045260245ffd5b50919050565b634e487b7160e01b5f52601160045260245ffd5b8082028115828204841417610f0d57610f0d61151d565b5f60208284031215611558575f80fd5b81516104a081611481565b600181815b8085111561159d57815f19048211156115835761158361151d565b8085161561159057918102915b93841c9390800290611568565b509250929050565b5f826115b357506001610f0d565b816115bf57505f610f0d565b81600181146115d557600281146115df576115fb565b6001915050610f0d565b60ff8411156115f0576115f061151d565b50506001821b610f0d565b5060208310610133831016604e8410600b841016171561161e575081810a610f0d565b6116288383611563565b805f190482111561163b5761163b61151d565b029392505050565b5f6104a060ff8416836115a5565b5f8261166b57634e487b7160e01b5f52601260045260245ffd5b500490565b6020808252601f908201527f796f75206172652073656e64696e6720746f207a65726f206164647265737300604082015260600190565b5f602082840312156116b7575f80fd5b5051919050565b80820180821115610f0d57610f0d61151d565b81810381811115610f0d57610f0d61151d565b5f602082840312156116f4575f80fd5b81516104a081611355565b634e487b7160e01b5f52602160045260245ffd5b5f82516117248184602087016112df565b919091019291505056fea2646970667358221220200b4ce79d87c1aec0797c58112fa52c8f87218bedf4b4598d52c0cc4b05dcdd64736f6c63430008160033",
					"opcodes": "PUSH2 0x160 PUSH1 0x40 MSTORE CALLVALUE DUP1 ISZERO PUSH3 0x11 JUMPI PUSH0 DUP1 REVERT JUMPDEST POP PUSH1 0x40 MLOAD PUSH3 0x1CF7 CODESIZE SUB DUP1 PUSH3 0x1CF7 DUP4 CODECOPY DUP2 ADD PUSH1 0x40 DUP2 SWAP1 MSTORE PUSH3 0x34 SWAP2 PUSH3 0x2B9 JUMP JUMPDEST PUSH1 0x40 DUP1 MLOAD DUP1 DUP3 ADD SWAP1 SWAP2 MSTORE PUSH1 0x1 DUP2 MSTORE PUSH1 0x31 PUSH1 0xF8 SHL PUSH1 0x20 DUP3 ADD MSTORE DUP3 SWAP1 DUP5 PUSH1 0x1 PUSH1 0x1 PUSH1 0xA0 SHL SUB DUP2 AND PUSH3 0x7E JUMPI PUSH1 0x40 MLOAD PUSH4 0x1E4FBDF7 PUSH1 0xE0 SHL DUP2 MSTORE PUSH0 PUSH1 0x4 DUP3 ADD MSTORE PUSH1 0x24 ADD JUMPDEST PUSH1 0x40 MLOAD DUP1 SWAP2 SUB SWAP1 REVERT JUMPDEST PUSH3 0x89 DUP2 PUSH3 0x19C JUMP JUMPDEST POP PUSH3 0x97 DUP3 PUSH1 0x1 PUSH3 0x1EB JUMP JUMPDEST PUSH2 0x120 MSTORE PUSH3 0xA8 DUP2 PUSH1 0x2 PUSH3 0x1EB JUMP JUMPDEST PUSH2 0x140 MSTORE DUP2 MLOAD PUSH1 0x20 DUP1 DUP5 ADD SWAP2 SWAP1 SWAP2 KECCAK256 PUSH1 0xE0 MSTORE DUP2 MLOAD SWAP1 DUP3 ADD KECCAK256 PUSH2 0x100 MSTORE CHAINID PUSH1 0xA0 MSTORE PUSH3 0x135 PUSH1 0xE0 MLOAD PUSH2 0x100 MLOAD PUSH1 0x40 DUP1 MLOAD PUSH32 0x8B73C3C69BB8FE3D512ECC4CF759CC79239F7B179B0FFACAA9A75D522B39400F PUSH1 0x20 DUP3 ADD MSTORE SWAP1 DUP2 ADD SWAP3 SWAP1 SWAP3 MSTORE PUSH1 0x60 DUP3 ADD MSTORE CHAINID PUSH1 0x80 DUP3 ADD MSTORE ADDRESS PUSH1 0xA0 DUP3 ADD MSTORE PUSH0 SWAP1 PUSH1 0xC0 ADD PUSH1 0x40 MLOAD PUSH1 0x20 DUP2 DUP4 SUB SUB DUP2 MSTORE SWAP1 PUSH1 0x40 MSTORE DUP1 MLOAD SWAP1 PUSH1 0x20 ADD KECCAK256 SWAP1 POP SWAP1 JUMP JUMPDEST PUSH1 0x80 MSTORE POP POP ADDRESS PUSH1 0xC0 MSTORE PUSH1 0xC PUSH3 0x14C DUP4 DUP3 PUSH3 0x41D JUMP JUMPDEST POP PUSH1 0xA PUSH1 0x5 SSTORE PUSH2 0x1388 PUSH1 0x6 SSTORE PUSH1 0x3 DUP1 SLOAD PUSH1 0x1 PUSH1 0x1 PUSH1 0xA0 SHL SUB SWAP3 DUP4 AND PUSH1 0x1 PUSH1 0x1 PUSH1 0xA0 SHL SUB NOT SWAP2 DUP3 AND DUP2 OR SWAP1 SWAP3 SSTORE PUSH1 0x4 DUP1 SLOAD DUP3 AND SWAP1 SWAP3 OR SWAP1 SWAP2 SSTORE PUSH1 0xD DUP1 SLOAD SWAP5 SWAP1 SWAP3 AND SWAP4 AND SWAP3 SWAP1 SWAP3 OR SWAP1 SWAP2 SSTORE POP PUSH3 0x541 JUMP JUMPDEST PUSH0 DUP1 SLOAD PUSH1 0x1 PUSH1 0x1 PUSH1 0xA0 SHL SUB DUP4 DUP2 AND PUSH1 0x1 PUSH1 0x1 PUSH1 0xA0 SHL SUB NOT DUP4 AND DUP2 OR DUP5 SSTORE PUSH1 0x40 MLOAD SWAP2 SWAP1 SWAP3 AND SWAP3 DUP4 SWAP2 PUSH32 0x8BE0079C531659141344CD1FD0A4F28419497F9722A3DAAFE3B4186F6B6457E0 SWAP2 SWAP1 LOG3 POP POP JUMP JUMPDEST PUSH0 PUSH1 0x20 DUP4 MLOAD LT ISZERO PUSH3 0x20A JUMPI PUSH3 0x202 DUP4 PUSH3 0x223 JUMP JUMPDEST SWAP1 POP PUSH3 0x21D JUMP JUMPDEST DUP2 PUSH3 0x217 DUP5 DUP3 PUSH3 0x41D JUMP JUMPDEST POP PUSH1 0xFF SWAP1 POP JUMPDEST SWAP3 SWAP2 POP POP JUMP JUMPDEST PUSH0 DUP1 DUP3 SWAP1 POP PUSH1 0x1F DUP2 MLOAD GT ISZERO PUSH3 0x250 JUMPI DUP3 PUSH1 0x40 MLOAD PUSH4 0x305A27A9 PUSH1 0xE0 SHL DUP2 MSTORE PUSH1 0x4 ADD PUSH3 0x75 SWAP2 SWAP1 PUSH3 0x4E9 JUMP JUMPDEST DUP1 MLOAD PUSH3 0x25D DUP3 PUSH3 0x51D JUMP JUMPDEST OR SWAP4 SWAP3 POP POP POP JUMP JUMPDEST DUP1 MLOAD PUSH1 0x1 PUSH1 0x1 PUSH1 0xA0 SHL SUB DUP2 AND DUP2 EQ PUSH3 0x27C JUMPI PUSH0 DUP1 REVERT JUMPDEST SWAP2 SWAP1 POP JUMP JUMPDEST PUSH4 0x4E487B71 PUSH1 0xE0 SHL PUSH0 MSTORE PUSH1 0x41 PUSH1 0x4 MSTORE PUSH1 0x24 PUSH0 REVERT JUMPDEST PUSH0 JUMPDEST DUP4 DUP2 LT ISZERO PUSH3 0x2B1 JUMPI DUP2 DUP2 ADD MLOAD DUP4 DUP3 ADD MSTORE PUSH1 0x20 ADD PUSH3 0x297 JUMP JUMPDEST POP POP PUSH0 SWAP2 ADD MSTORE JUMP JUMPDEST PUSH0 DUP1 PUSH0 PUSH1 0x60 DUP5 DUP7 SUB SLT ISZERO PUSH3 0x2CC JUMPI PUSH0 DUP1 REVERT JUMPDEST PUSH3 0x2D7 DUP5 PUSH3 0x265 JUMP JUMPDEST PUSH1 0x20 DUP6 ADD MLOAD SWAP1 SWAP4 POP PUSH1 0x1 PUSH1 0x1 PUSH1 0x40 SHL SUB DUP1 DUP3 GT ISZERO PUSH3 0x2F4 JUMPI PUSH0 DUP1 REVERT JUMPDEST DUP2 DUP7 ADD SWAP2 POP DUP7 PUSH1 0x1F DUP4 ADD SLT PUSH3 0x308 JUMPI PUSH0 DUP1 REVERT JUMPDEST DUP2 MLOAD DUP2 DUP2 GT ISZERO PUSH3 0x31D JUMPI PUSH3 0x31D PUSH3 0x281 JUMP JUMPDEST PUSH1 0x40 MLOAD PUSH1 0x1F DUP3 ADD PUSH1 0x1F NOT SWAP1 DUP2 AND PUSH1 0x3F ADD AND DUP2 ADD SWAP1 DUP4 DUP3 GT DUP2 DUP4 LT OR ISZERO PUSH3 0x348 JUMPI PUSH3 0x348 PUSH3 0x281 JUMP JUMPDEST DUP2 PUSH1 0x40 MSTORE DUP3 DUP2 MSTORE DUP10 PUSH1 0x20 DUP5 DUP8 ADD ADD GT ISZERO PUSH3 0x361 JUMPI PUSH0 DUP1 REVERT JUMPDEST PUSH3 0x374 DUP4 PUSH1 0x20 DUP4 ADD PUSH1 0x20 DUP9 ADD PUSH3 0x295 JUMP JUMPDEST DUP1 SWAP7 POP POP POP POP POP POP PUSH3 0x38A PUSH1 0x40 DUP6 ADD PUSH3 0x265 JUMP JUMPDEST SWAP1 POP SWAP3 POP SWAP3 POP SWAP3 JUMP JUMPDEST PUSH1 0x1 DUP2 DUP2 SHR SWAP1 DUP3 AND DUP1 PUSH3 0x3A8 JUMPI PUSH1 0x7F DUP3 AND SWAP2 POP JUMPDEST PUSH1 0x20 DUP3 LT DUP2 SUB PUSH3 0x3C7 JUMPI PUSH4 0x4E487B71 PUSH1 0xE0 SHL PUSH0 MSTORE PUSH1 0x22 PUSH1 0x4 MSTORE PUSH1 0x24 PUSH0 REVERT JUMPDEST POP SWAP2 SWAP1 POP JUMP JUMPDEST PUSH1 0x1F DUP3 GT ISZERO PUSH3 0x418 JUMPI DUP1 PUSH0 MSTORE PUSH1 0x20 PUSH0 KECCAK256 PUSH1 0x1F DUP5 ADD PUSH1 0x5 SHR DUP2 ADD PUSH1 0x20 DUP6 LT ISZERO PUSH3 0x3F4 JUMPI POP DUP1 JUMPDEST PUSH1 0x1F DUP5 ADD PUSH1 0x5 SHR DUP3 ADD SWAP2 POP JUMPDEST DUP2 DUP2 LT ISZERO PUSH3 0x415 JUMPI PUSH0 DUP2 SSTORE PUSH1 0x1 ADD PUSH3 0x400 JUMP JUMPDEST POP POP JUMPDEST POP POP POP JUMP JUMPDEST DUP2 MLOAD PUSH1 0x1 PUSH1 0x1 PUSH1 0x40 SHL SUB DUP2 GT ISZERO PUSH3 0x439 JUMPI PUSH3 0x439 PUSH3 0x281 JUMP JUMPDEST PUSH3 0x451 DUP2 PUSH3 0x44A DUP5 SLOAD PUSH3 0x393 JUMP JUMPDEST DUP5 PUSH3 0x3CD JUMP JUMPDEST PUSH1 0x20 DUP1 PUSH1 0x1F DUP4 GT PUSH1 0x1 DUP2 EQ PUSH3 0x487 JUMPI PUSH0 DUP5 ISZERO PUSH3 0x46F JUMPI POP DUP6 DUP4 ADD MLOAD JUMPDEST PUSH0 NOT PUSH1 0x3 DUP7 SWAP1 SHL SHR NOT AND PUSH1 0x1 DUP6 SWAP1 SHL OR DUP6 SSTORE PUSH3 0x4E1 JUMP JUMPDEST PUSH0 DUP6 DUP2 MSTORE PUSH1 0x20 DUP2 KECCAK256 PUSH1 0x1F NOT DUP7 AND SWAP2 JUMPDEST DUP3 DUP2 LT ISZERO PUSH3 0x4B7 JUMPI DUP9 DUP7 ADD MLOAD DUP3 SSTORE SWAP5 DUP5 ADD SWAP5 PUSH1 0x1 SWAP1 SWAP2 ADD SWAP1 DUP5 ADD PUSH3 0x496 JUMP JUMPDEST POP DUP6 DUP3 LT ISZERO PUSH3 0x4D5 JUMPI DUP8 DUP6 ADD MLOAD PUSH0 NOT PUSH1 0x3 DUP9 SWAP1 SHL PUSH1 0xF8 AND SHR NOT AND DUP2 SSTORE JUMPDEST POP POP PUSH1 0x1 DUP5 PUSH1 0x1 SHL ADD DUP6 SSTORE JUMPDEST POP POP POP POP POP POP JUMP JUMPDEST PUSH1 0x20 DUP2 MSTORE PUSH0 DUP3 MLOAD DUP1 PUSH1 0x20 DUP5 ADD MSTORE PUSH3 0x509 DUP2 PUSH1 0x40 DUP6 ADD PUSH1 0x20 DUP8 ADD PUSH3 0x295 JUMP JUMPDEST PUSH1 0x1F ADD PUSH1 0x1F NOT AND SWAP2 SWAP1 SWAP2 ADD PUSH1 0x40 ADD SWAP3 SWAP2 POP POP JUMP JUMPDEST DUP1 MLOAD PUSH1 0x20 DUP1 DUP4 ADD MLOAD SWAP2 SWAP1 DUP2 LT ISZERO PUSH3 0x3C7 JUMPI PUSH0 NOT PUSH1 0x20 SWAP2 SWAP1 SWAP2 SUB PUSH1 0x3 SHL SHL AND SWAP2 SWAP1 POP JUMP JUMPDEST PUSH1 0x80 MLOAD PUSH1 0xA0 MLOAD PUSH1 0xC0 MLOAD PUSH1 0xE0 MLOAD PUSH2 0x100 MLOAD PUSH2 0x120 MLOAD PUSH2 0x140 MLOAD PUSH2 0x1764 PUSH3 0x593 PUSH0 CODECOPY PUSH0 PUSH2 0xC23 ADD MSTORE PUSH0 PUSH2 0xBF6 ADD MSTORE PUSH0 PUSH2 0xB50 ADD MSTORE PUSH0 PUSH2 0xB28 ADD MSTORE PUSH0 PUSH2 0xA83 ADD MSTORE PUSH0 PUSH2 0xAAD ADD MSTORE PUSH0 PUSH2 0xAD7 ADD MSTORE PUSH2 0x1764 PUSH0 RETURN INVALID PUSH1 0x80 PUSH1 0x40 MSTORE CALLVALUE DUP1 ISZERO PUSH2 0xF JUMPI PUSH0 DUP1 REVERT JUMPDEST POP PUSH1 0x4 CALLDATASIZE LT PUSH2 0x187 JUMPI PUSH0 CALLDATALOAD PUSH1 0xE0 SHR DUP1 PUSH4 0x8BC7E8C4 GT PUSH2 0xD9 JUMPI DUP1 PUSH4 0xCBEACB80 GT PUSH2 0x93 JUMPI DUP1 PUSH4 0xF2FDE38B GT PUSH2 0x6E JUMPI DUP1 PUSH4 0xF2FDE38B EQ PUSH2 0x31C JUMPI DUP1 PUSH4 0xF851A440 EQ PUSH2 0x32F JUMPI DUP1 PUSH4 0xF9C3A1E8 EQ PUSH2 0x342 JUMPI DUP1 PUSH4 0xFD918716 EQ PUSH2 0x355 JUMPI PUSH0 DUP1 REVERT JUMPDEST DUP1 PUSH4 0xCBEACB80 EQ PUSH2 0x2ED JUMPI DUP1 PUSH4 0xE1FEFD42 EQ PUSH2 0x300 JUMPI DUP1 PUSH4 0xE63EA408 EQ PUSH2 0x309 JUMPI PUSH0 DUP1 REVERT JUMPDEST DUP1 PUSH4 0x8BC7E8C4 EQ PUSH2 0x27E JUMPI DUP1 PUSH4 0x8DA5CB5B EQ PUSH2 0x287 JUMPI DUP1 PUSH4 0x9683CDC4 EQ PUSH2 0x2AB JUMPI DUP1 PUSH4 0xAC1E5025 EQ PUSH2 0x2BE JUMPI DUP1 PUSH4 0xC08E7286 EQ PUSH2 0x2D1 JUMPI DUP1 PUSH4 0xC4A9E858 EQ PUSH2 0x2E4 JUMPI PUSH0 DUP1 REVERT JUMPDEST DUP1 PUSH4 0x3644E515 GT PUSH2 0x144 JUMPI DUP1 PUSH4 0x704B6C02 GT PUSH2 0x11F JUMPI DUP1 PUSH4 0x704B6C02 EQ PUSH2 0x235 JUMPI DUP1 PUSH4 0x715018A6 EQ PUSH2 0x248 JUMPI DUP1 PUSH4 0x76EE947F EQ PUSH2 0x250 JUMPI DUP1 PUSH4 0x84B0196E EQ PUSH2 0x263 JUMPI PUSH0 DUP1 REVERT JUMPDEST DUP1 PUSH4 0x3644E515 EQ PUSH2 0x211 JUMPI DUP1 PUSH4 0x67A52793 EQ PUSH2 0x219 JUMPI DUP1 PUSH4 0x6B4C0789 EQ PUSH2 0x222 JUMPI PUSH0 DUP1 REVERT JUMPDEST DUP1 PUSH4 0x6E0E582 EQ PUSH2 0x18B JUMPI DUP1 PUSH4 0xACE9CA0 EQ PUSH2 0x1A7 JUMPI DUP1 PUSH4 0xD461E61 EQ PUSH2 0x1BC JUMPI DUP1 PUSH4 0x252DE51B EQ PUSH2 0x1CF JUMPI DUP1 PUSH4 0x2C4E722E EQ PUSH2 0x1F3 JUMPI DUP1 PUSH4 0x34FCF437 EQ PUSH2 0x1FC JUMPI JUMPDEST PUSH0 DUP1 REVERT JUMPDEST PUSH2 0x194 PUSH1 0x9 SLOAD DUP2 JUMP JUMPDEST PUSH1 0x40 MLOAD SWAP1 DUP2 MSTORE PUSH1 0x20 ADD JUMPDEST PUSH1 0x40 MLOAD DUP1 SWAP2 SUB SWAP1 RETURN JUMPDEST PUSH2 0x1AF PUSH2 0x35E JUMP JUMPDEST PUSH1 0x40 MLOAD PUSH2 0x19E SWAP2 SWAP1 PUSH2 0x132C JUMP JUMPDEST PUSH2 0x194 PUSH2 0x1CA CALLDATASIZE PUSH1 0x4 PUSH2 0x133E JUMP JUMPDEST PUSH2 0x3EA JUMP JUMPDEST PUSH1 0xD SLOAD PUSH2 0x1E3 SWAP1 PUSH1 0x1 PUSH1 0xA0 SHL SWAP1 DIV PUSH1 0xFF AND DUP2 JUMP JUMPDEST PUSH1 0x40 MLOAD SWAP1 ISZERO ISZERO DUP2 MSTORE PUSH1 0x20 ADD PUSH2 0x19E JUMP JUMPDEST PUSH2 0x194 PUSH1 0x6 SLOAD DUP2 JUMP JUMPDEST PUSH2 0x20F PUSH2 0x20A CALLDATASIZE PUSH1 0x4 PUSH2 0x133E JUMP JUMPDEST PUSH2 0x4A7 JUMP JUMPDEST STOP JUMPDEST PUSH2 0x194 PUSH2 0x4B4 JUMP JUMPDEST PUSH2 0x194 PUSH1 0x5 SLOAD DUP2 JUMP JUMPDEST PUSH2 0x20F PUSH2 0x230 CALLDATASIZE PUSH1 0x4 PUSH2 0x1362 JUMP JUMPDEST PUSH2 0x4C2 JUMP JUMPDEST PUSH2 0x20F PUSH2 0x243 CALLDATASIZE PUSH1 0x4 PUSH2 0x1398 JUMP JUMPDEST PUSH2 0x4E8 JUMP JUMPDEST PUSH2 0x20F PUSH2 0x512 JUMP JUMPDEST PUSH2 0x20F PUSH2 0x25E CALLDATASIZE PUSH1 0x4 PUSH2 0x133E JUMP JUMPDEST PUSH2 0x525 JUMP JUMPDEST PUSH2 0x26B PUSH2 0x532 JUMP JUMPDEST PUSH1 0x40 MLOAD PUSH2 0x19E SWAP8 SWAP7 SWAP6 SWAP5 SWAP4 SWAP3 SWAP2 SWAP1 PUSH2 0x13B1 JUMP JUMPDEST PUSH2 0x194 PUSH1 0x7 SLOAD DUP2 JUMP JUMPDEST PUSH0 SLOAD PUSH1 0x1 PUSH1 0x1 PUSH1 0xA0 SHL SUB AND JUMPDEST PUSH1 0x40 MLOAD PUSH1 0x1 PUSH1 0x1 PUSH1 0xA0 SHL SUB SWAP1 SWAP2 AND DUP2 MSTORE PUSH1 0x20 ADD PUSH2 0x19E JUMP JUMPDEST PUSH2 0x20F PUSH2 0x2B9 CALLDATASIZE PUSH1 0x4 PUSH2 0x1398 JUMP JUMPDEST PUSH2 0x574 JUMP JUMPDEST PUSH2 0x20F PUSH2 0x2CC CALLDATASIZE PUSH1 0x4 PUSH2 0x133E JUMP JUMPDEST PUSH2 0x6EF JUMP JUMPDEST PUSH2 0x20F PUSH2 0x2DF CALLDATASIZE PUSH1 0x4 PUSH2 0x133E JUMP JUMPDEST PUSH2 0x6FC JUMP JUMPDEST PUSH2 0x194 PUSH1 0xB SLOAD DUP2 JUMP JUMPDEST PUSH2 0x20F PUSH2 0x2FB CALLDATASIZE PUSH1 0x4 PUSH2 0x1398 JUMP JUMPDEST PUSH2 0x71C JUMP JUMPDEST PUSH2 0x194 PUSH1 0x8 SLOAD DUP2 JUMP JUMPDEST PUSH2 0x20F PUSH2 0x317 CALLDATASIZE PUSH1 0x4 PUSH2 0x1448 JUMP JUMPDEST PUSH2 0x750 JUMP JUMPDEST PUSH2 0x20F PUSH2 0x32A CALLDATASIZE PUSH1 0x4 PUSH2 0x1398 JUMP JUMPDEST PUSH2 0x85B JUMP JUMPDEST PUSH1 0xD SLOAD PUSH2 0x293 SWAP1 PUSH1 0x1 PUSH1 0x1 PUSH1 0xA0 SHL SUB AND DUP2 JUMP JUMPDEST PUSH2 0x20F PUSH2 0x350 CALLDATASIZE PUSH1 0x4 PUSH2 0x148F JUMP JUMPDEST PUSH2 0x898 JUMP JUMPDEST PUSH2 0x194 PUSH1 0xA SLOAD DUP2 JUMP JUMPDEST PUSH1 0xC DUP1 SLOAD PUSH2 0x36B SWAP1 PUSH2 0x14E5 JUMP JUMPDEST DUP1 PUSH1 0x1F ADD PUSH1 0x20 DUP1 SWAP2 DIV MUL PUSH1 0x20 ADD PUSH1 0x40 MLOAD SWAP1 DUP2 ADD PUSH1 0x40 MSTORE DUP1 SWAP3 SWAP2 SWAP1 DUP2 DUP2 MSTORE PUSH1 0x20 ADD DUP3 DUP1 SLOAD PUSH2 0x397 SWAP1 PUSH2 0x14E5 JUMP JUMPDEST DUP1 ISZERO PUSH2 0x3E2 JUMPI DUP1 PUSH1 0x1F LT PUSH2 0x3B9 JUMPI PUSH2 0x100 DUP1 DUP4 SLOAD DIV MUL DUP4 MSTORE SWAP2 PUSH1 0x20 ADD SWAP2 PUSH2 0x3E2 JUMP JUMPDEST DUP3 ADD SWAP2 SWAP1 PUSH0 MSTORE PUSH1 0x20 PUSH0 KECCAK256 SWAP1 JUMPDEST DUP2 SLOAD DUP2 MSTORE SWAP1 PUSH1 0x1 ADD SWAP1 PUSH1 0x20 ADD DUP1 DUP4 GT PUSH2 0x3C5 JUMPI DUP3 SWAP1 SUB PUSH1 0x1F AND DUP3 ADD SWAP2 JUMPDEST POP POP POP POP POP DUP2 JUMP JUMPDEST PUSH0 DUP1 PUSH1 0x6 SLOAD PUSH8 0xDE0B6B3A7640000 PUSH2 0x402 SWAP2 SWAP1 PUSH2 0x1531 JUMP JUMPDEST PUSH1 0x3 PUSH0 SWAP1 SLOAD SWAP1 PUSH2 0x100 EXP SWAP1 DIV PUSH1 0x1 PUSH1 0x1 PUSH1 0xA0 SHL SUB AND PUSH1 0x1 PUSH1 0x1 PUSH1 0xA0 SHL SUB AND PUSH4 0x313CE567 PUSH1 0x40 MLOAD DUP2 PUSH4 0xFFFFFFFF AND PUSH1 0xE0 SHL DUP2 MSTORE PUSH1 0x4 ADD PUSH1 0x20 PUSH1 0x40 MLOAD DUP1 DUP4 SUB DUP2 DUP7 GAS STATICCALL ISZERO DUP1 ISZERO PUSH2 0x452 JUMPI RETURNDATASIZE PUSH0 DUP1 RETURNDATACOPY RETURNDATASIZE PUSH0 REVERT JUMPDEST POP POP POP POP PUSH1 0x40 MLOAD RETURNDATASIZE PUSH1 0x1F NOT PUSH1 0x1F DUP3 ADD AND DUP3 ADD DUP1 PUSH1 0x40 MSTORE POP DUP2 ADD SWAP1 PUSH2 0x476 SWAP2 SWAP1 PUSH2 0x1548 JUMP JUMPDEST PUSH2 0x481 SWAP1 PUSH1 0xA PUSH2 0x1643 JUMP JUMPDEST PUSH2 0x48C DUP6 PUSH1 0x1 PUSH2 0x1531 JUMP JUMPDEST PUSH2 0x496 SWAP2 SWAP1 PUSH2 0x1531 JUMP JUMPDEST PUSH2 0x4A0 SWAP2 SWAP1 PUSH2 0x1651 JUMP JUMPDEST SWAP4 SWAP3 POP POP POP JUMP JUMPDEST PUSH2 0x4AF PUSH2 0xA4B JUMP JUMPDEST PUSH1 0x6 SSTORE JUMP JUMPDEST PUSH0 PUSH2 0x4BD PUSH2 0xA77 JUMP JUMPDEST SWAP1 POP SWAP1 JUMP JUMPDEST PUSH2 0x4CA PUSH2 0xA4B JUMP JUMPDEST PUSH1 0xD DUP1 SLOAD SWAP2 ISZERO ISZERO PUSH1 0x1 PUSH1 0xA0 SHL MUL PUSH1 0xFF PUSH1 0xA0 SHL NOT SWAP1 SWAP3 AND SWAP2 SWAP1 SWAP2 OR SWAP1 SSTORE JUMP JUMPDEST PUSH2 0x4F0 PUSH2 0xA4B JUMP JUMPDEST PUSH1 0xD DUP1 SLOAD PUSH1 0x1 PUSH1 0x1 PUSH1 0xA0 SHL SUB NOT AND PUSH1 0x1 PUSH1 0x1 PUSH1 0xA0 SHL SUB SWAP3 SWAP1 SWAP3 AND SWAP2 SWAP1 SWAP2 OR SWAP1 SSTORE JUMP JUMPDEST PUSH2 0x51A PUSH2 0xA4B JUMP JUMPDEST PUSH2 0x523 PUSH0 PUSH2 0xBA0 JUMP JUMPDEST JUMP JUMPDEST PUSH2 0x52D PUSH2 0xA4B JUMP JUMPDEST PUSH1 0x5 SSTORE JUMP JUMPDEST PUSH0 PUSH1 0x60 DUP1 PUSH0 DUP1 PUSH0 PUSH1 0x60 PUSH2 0x543 PUSH2 0xBEF JUMP JUMPDEST PUSH2 0x54B PUSH2 0xC1C JUMP JUMPDEST PUSH1 0x40 DUP1 MLOAD PUSH0 DUP1 DUP3 MSTORE PUSH1 0x20 DUP3 ADD SWAP1 SWAP3 MSTORE PUSH1 0xF PUSH1 0xF8 SHL SWAP12 SWAP4 SWAP11 POP SWAP2 SWAP9 POP CHAINID SWAP8 POP ADDRESS SWAP7 POP SWAP5 POP SWAP3 POP SWAP1 POP JUMP JUMPDEST PUSH2 0x57C PUSH2 0xA4B JUMP JUMPDEST PUSH1 0x1 PUSH1 0x1 PUSH1 0xA0 SHL SUB DUP2 AND PUSH2 0x5AB JUMPI PUSH1 0x40 MLOAD PUSH3 0x461BCD PUSH1 0xE5 SHL DUP2 MSTORE PUSH1 0x4 ADD PUSH2 0x5A2 SWAP1 PUSH2 0x1670 JUMP JUMPDEST PUSH1 0x40 MLOAD DUP1 SWAP2 SUB SWAP1 REVERT JUMPDEST PUSH1 0x3 SLOAD PUSH1 0x40 MLOAD PUSH4 0x70A08231 PUSH1 0xE0 SHL DUP2 MSTORE ADDRESS PUSH1 0x4 DUP3 ADD MSTORE PUSH0 SWAP2 PUSH1 0x1 PUSH1 0x1 PUSH1 0xA0 SHL SUB AND SWAP1 PUSH4 0x70A08231 SWAP1 PUSH1 0x24 ADD PUSH1 0x20 PUSH1 0x40 MLOAD DUP1 DUP4 SUB DUP2 DUP7 GAS STATICCALL ISZERO DUP1 ISZERO PUSH2 0x5F1 JUMPI RETURNDATASIZE PUSH0 DUP1 RETURNDATACOPY RETURNDATASIZE PUSH0 REVERT JUMPDEST POP POP POP POP PUSH1 0x40 MLOAD RETURNDATASIZE PUSH1 0x1F NOT PUSH1 0x1F DUP3 ADD AND DUP3 ADD DUP1 PUSH1 0x40 MSTORE POP DUP2 ADD SWAP1 PUSH2 0x615 SWAP2 SWAP1 PUSH2 0x16A7 JUMP JUMPDEST SWAP1 POP PUSH0 PUSH1 0x9 SLOAD PUSH1 0xB SLOAD PUSH1 0xA SLOAD DUP5 PUSH2 0x62C SWAP2 SWAP1 PUSH2 0x16BE JUMP JUMPDEST PUSH2 0x636 SWAP2 SWAP1 PUSH2 0x16BE JUMP JUMPDEST PUSH2 0x640 SWAP2 SWAP1 PUSH2 0x16D1 JUMP JUMPDEST SWAP1 POP DUP1 PUSH1 0x9 PUSH0 DUP3 DUP3 SLOAD PUSH2 0x653 SWAP2 SWAP1 PUSH2 0x16BE JUMP JUMPDEST SWAP1 SWAP2 SSTORE POP POP PUSH1 0x5 SLOAD PUSH0 SWAP1 PUSH1 0x64 SWAP1 PUSH2 0x66A SWAP1 DUP5 PUSH2 0x1531 JUMP JUMPDEST PUSH2 0x674 SWAP2 SWAP1 PUSH2 0x1651 JUMP JUMPDEST SWAP1 POP PUSH0 DUP2 GT PUSH2 0x6BC JUMPI PUSH1 0x40 MLOAD PUSH3 0x461BCD PUSH1 0xE5 SHL DUP2 MSTORE PUSH1 0x20 PUSH1 0x4 DUP3 ADD MSTORE PUSH1 0x14 PUSH1 0x24 DUP3 ADD MSTORE PUSH20 0x1B9BC81B995DC819195C1BDCDA5D081859191959 PUSH1 0x62 SHL PUSH1 0x44 DUP3 ADD MSTORE PUSH1 0x64 ADD PUSH2 0x5A2 JUMP JUMPDEST DUP1 PUSH1 0xB PUSH0 DUP3 DUP3 SLOAD PUSH2 0x6CD SWAP2 SWAP1 PUSH2 0x16BE JUMP JUMPDEST SWAP1 SWAP2 SSTORE POP POP PUSH1 0x4 SLOAD PUSH2 0x6E9 SWAP1 PUSH1 0x1 PUSH1 0x1 PUSH1 0xA0 SHL SUB AND DUP6 DUP4 PUSH2 0xC49 JUMP JUMPDEST POP POP POP POP JUMP JUMPDEST PUSH2 0x6F7 PUSH2 0xA4B JUMP JUMPDEST PUSH1 0x7 SSTORE JUMP JUMPDEST PUSH2 0x704 PUSH2 0xA4B JUMP JUMPDEST PUSH2 0x716 DUP2 PUSH8 0xDE0B6B3A7640000 PUSH2 0x1531 JUMP JUMPDEST PUSH1 0x8 SSTORE POP JUMP JUMPDEST PUSH2 0x724 PUSH2 0xA4B JUMP JUMPDEST PUSH1 0x3 DUP1 SLOAD PUSH1 0x1 PUSH1 0x1 PUSH1 0xA0 SHL SUB SWAP1 SWAP3 AND PUSH1 0x1 PUSH1 0x1 PUSH1 0xA0 SHL SUB NOT SWAP3 DUP4 AND DUP2 OR SWAP1 SWAP2 SSTORE PUSH1 0x4 DUP1 SLOAD SWAP1 SWAP3 AND OR SWAP1 SSTORE JUMP JUMPDEST PUSH2 0x758 PUSH2 0xA4B JUMP JUMPDEST PUSH1 0x1 PUSH1 0x1 PUSH1 0xA0 SHL SUB DUP4 AND PUSH2 0x77E JUMPI PUSH1 0x40 MLOAD PUSH3 0x461BCD PUSH1 0xE5 SHL DUP2 MSTORE PUSH1 0x4 ADD PUSH2 0x5A2 SWAP1 PUSH2 0x1670 JUMP JUMPDEST PUSH1 0x1 PUSH1 0x1 PUSH1 0xA0 SHL SUB DUP3 AND PUSH2 0x7A4 JUMPI PUSH1 0x40 MLOAD PUSH3 0x461BCD PUSH1 0xE5 SHL DUP2 MSTORE PUSH1 0x4 ADD PUSH2 0x5A2 SWAP1 PUSH2 0x1670 JUMP JUMPDEST PUSH0 DUP2 GT PUSH2 0x7EB JUMPI PUSH1 0x40 MLOAD PUSH3 0x461BCD PUSH1 0xE5 SHL DUP2 MSTORE PUSH1 0x20 PUSH1 0x4 DUP3 ADD MSTORE PUSH1 0x15 PUSH1 0x24 DUP3 ADD MSTORE PUSH21 0x18D85B9D081CD95B99081E995C9BC8185B5BDD5B9D PUSH1 0x5A SHL PUSH1 0x44 DUP3 ADD MSTORE PUSH1 0x64 ADD PUSH2 0x5A2 JUMP JUMPDEST PUSH1 0x40 MLOAD PUSH4 0xA9059CBB PUSH1 0xE0 SHL DUP2 MSTORE PUSH1 0x1 PUSH1 0x1 PUSH1 0xA0 SHL SUB DUP4 DUP2 AND PUSH1 0x4 DUP4 ADD MSTORE PUSH1 0x24 DUP3 ADD DUP4 SWAP1 MSTORE DUP5 AND SWAP1 PUSH4 0xA9059CBB SWAP1 PUSH1 0x44 ADD PUSH1 0x20 PUSH1 0x40 MLOAD DUP1 DUP4 SUB DUP2 PUSH0 DUP8 GAS CALL ISZERO DUP1 ISZERO PUSH2 0x837 JUMPI RETURNDATASIZE PUSH0 DUP1 RETURNDATACOPY RETURNDATASIZE PUSH0 REVERT JUMPDEST POP POP POP POP PUSH1 0x40 MLOAD RETURNDATASIZE PUSH1 0x1F NOT PUSH1 0x1F DUP3 ADD AND DUP3 ADD DUP1 PUSH1 0x40 MSTORE POP DUP2 ADD SWAP1 PUSH2 0x6E9 SWAP2 SWAP1 PUSH2 0x16E4 JUMP JUMPDEST PUSH2 0x863 PUSH2 0xA4B JUMP JUMPDEST PUSH1 0x1 PUSH1 0x1 PUSH1 0xA0 SHL SUB DUP2 AND PUSH2 0x88C JUMPI PUSH1 0x40 MLOAD PUSH4 0x1E4FBDF7 PUSH1 0xE0 SHL DUP2 MSTORE PUSH0 PUSH1 0x4 DUP3 ADD MSTORE PUSH1 0x24 ADD PUSH2 0x5A2 JUMP JUMPDEST PUSH2 0x895 DUP2 PUSH2 0xBA0 JUMP JUMPDEST POP JUMP JUMPDEST PUSH1 0x1 PUSH1 0x1 PUSH1 0xA0 SHL SUB DUP7 AND PUSH2 0x8BE JUMPI PUSH1 0x40 MLOAD PUSH3 0x461BCD PUSH1 0xE5 SHL DUP2 MSTORE PUSH1 0x4 ADD PUSH2 0x5A2 SWAP1 PUSH2 0x1670 JUMP JUMPDEST PUSH2 0x8CC DUP7 DUP7 DUP7 DUP7 DUP7 DUP7 PUSH2 0xCA0 JUMP JUMPDEST PUSH1 0xD SLOAD PUSH1 0x1 PUSH1 0xA0 SHL SWAP1 DIV PUSH1 0xFF AND ISZERO PUSH2 0x919 JUMPI PUSH1 0x40 MLOAD PUSH3 0x461BCD PUSH1 0xE5 SHL DUP2 MSTORE PUSH1 0x20 PUSH1 0x4 DUP3 ADD MSTORE PUSH1 0x10 PUSH1 0x24 DUP3 ADD MSTORE PUSH16 0x18DBDB9D1C9858DD08199C99595E9959 PUSH1 0x82 SHL PUSH1 0x44 DUP3 ADD MSTORE PUSH1 0x64 ADD PUSH2 0x5A2 JUMP JUMPDEST PUSH1 0x8 SLOAD DUP6 LT ISZERO PUSH2 0x976 JUMPI PUSH1 0x40 MLOAD PUSH3 0x461BCD PUSH1 0xE5 SHL DUP2 MSTORE PUSH1 0x20 PUSH1 0x4 DUP3 ADD MSTORE PUSH1 0x22 PUSH1 0x24 DUP3 ADD MSTORE PUSH32 0x706F696E747320746F2073776170206C657373207468616E206D696E706F696E PUSH1 0x44 DUP3 ADD MSTORE PUSH2 0x7473 PUSH1 0xF0 SHL PUSH1 0x64 DUP3 ADD MSTORE PUSH1 0x84 ADD PUSH2 0x5A2 JUMP JUMPDEST PUSH0 PUSH2 0x980 DUP7 PUSH2 0x3EA JUMP JUMPDEST SWAP1 POP DUP1 PUSH1 0xA PUSH0 DUP3 DUP3 SLOAD PUSH2 0x993 SWAP2 SWAP1 PUSH2 0x16BE JUMP JUMPDEST SWAP1 SWAP2 SSTORE POP POP PUSH1 0x7 SLOAD PUSH0 SWAP1 PUSH1 0x64 SWAP1 PUSH2 0x9AA SWAP1 DUP5 PUSH2 0x1531 JUMP JUMPDEST PUSH2 0x9B4 SWAP2 SWAP1 PUSH2 0x1651 JUMP JUMPDEST SWAP1 POP PUSH0 PUSH2 0x9C1 DUP3 DUP5 PUSH2 0x16D1 JUMP JUMPDEST PUSH1 0x4 SLOAD SWAP1 SWAP2 POP PUSH2 0x9DB SWAP1 PUSH1 0x1 PUSH1 0x1 PUSH1 0xA0 SHL SUB AND DUP11 DUP4 PUSH2 0xC49 JUMP JUMPDEST PUSH1 0x4 SLOAD PUSH2 0x9F2 SWAP1 PUSH1 0x1 PUSH1 0x1 PUSH1 0xA0 SHL SUB AND CALLER DUP5 PUSH2 0xC49 JUMP JUMPDEST PUSH1 0x40 DUP1 MLOAD DUP10 DUP2 MSTORE PUSH1 0x20 DUP2 ADD DUP4 SWAP1 MSTORE SWAP1 DUP2 ADD DUP4 SWAP1 MSTORE TIMESTAMP SWAP1 PUSH1 0x1 PUSH1 0x1 PUSH1 0xA0 SHL SUB DUP12 AND SWAP1 PUSH32 0x9A5F60E59CC27A7C25A7F78275C910454CD9ADACB21CECFF527C98ED63E02877 SWAP1 PUSH1 0x60 ADD PUSH1 0x40 MLOAD DUP1 SWAP2 SUB SWAP1 LOG3 POP POP POP POP POP POP POP POP POP JUMP JUMPDEST PUSH0 SLOAD PUSH1 0x1 PUSH1 0x1 PUSH1 0xA0 SHL SUB AND CALLER EQ PUSH2 0x523 JUMPI PUSH1 0x40 MLOAD PUSH4 0x118CDAA7 PUSH1 0xE0 SHL DUP2 MSTORE CALLER PUSH1 0x4 DUP3 ADD MSTORE PUSH1 0x24 ADD PUSH2 0x5A2 JUMP JUMPDEST PUSH0 ADDRESS PUSH1 0x1 PUSH1 0x1 PUSH1 0xA0 SHL SUB PUSH32 0x0 AND EQ DUP1 ISZERO PUSH2 0xACF JUMPI POP PUSH32 0x0 CHAINID EQ JUMPDEST ISZERO PUSH2 0xAF9 JUMPI POP PUSH32 0x0 SWAP1 JUMP JUMPDEST PUSH2 0x4BD PUSH1 0x40 DUP1 MLOAD PUSH32 0x8B73C3C69BB8FE3D512ECC4CF759CC79239F7B179B0FFACAA9A75D522B39400F PUSH1 0x20 DUP3 ADD MSTORE PUSH32 0x0 SWAP2 DUP2 ADD SWAP2 SWAP1 SWAP2 MSTORE PUSH32 0x0 PUSH1 0x60 DUP3 ADD MSTORE CHAINID PUSH1 0x80 DUP3 ADD MSTORE ADDRESS PUSH1 0xA0 DUP3 ADD MSTORE PUSH0 SWAP1 PUSH1 0xC0 ADD PUSH1 0x40 MLOAD PUSH1 0x20 DUP2 DUP4 SUB SUB DUP2 MSTORE SWAP1 PUSH1 0x40 MSTORE DUP1 MLOAD SWAP1 PUSH1 0x20 ADD KECCAK256 SWAP1 POP SWAP1 JUMP JUMPDEST PUSH0 DUP1 SLOAD PUSH1 0x1 PUSH1 0x1 PUSH1 0xA0 SHL SUB DUP4 DUP2 AND PUSH1 0x1 PUSH1 0x1 PUSH1 0xA0 SHL SUB NOT DUP4 AND DUP2 OR DUP5 SSTORE PUSH1 0x40 MLOAD SWAP2 SWAP1 SWAP3 AND SWAP3 DUP4 SWAP2 PUSH32 0x8BE0079C531659141344CD1FD0A4F28419497F9722A3DAAFE3B4186F6B6457E0 SWAP2 SWAP1 LOG3 POP POP JUMP JUMPDEST PUSH1 0x60 PUSH2 0x4BD PUSH32 0x0 PUSH1 0x1 PUSH2 0xE68 JUMP JUMPDEST PUSH1 0x60 PUSH2 0x4BD PUSH32 0x0 PUSH1 0x2 PUSH2 0xE68 JUMP JUMPDEST PUSH1 0x40 DUP1 MLOAD PUSH1 0x1 PUSH1 0x1 PUSH1 0xA0 SHL SUB DUP5 AND PUSH1 0x24 DUP3 ADD MSTORE PUSH1 0x44 DUP1 DUP3 ADD DUP5 SWAP1 MSTORE DUP3 MLOAD DUP1 DUP4 SUB SWAP1 SWAP2 ADD DUP2 MSTORE PUSH1 0x64 SWAP1 SWAP2 ADD SWAP1 SWAP2 MSTORE PUSH1 0x20 DUP2 ADD DUP1 MLOAD PUSH1 0x1 PUSH1 0x1 PUSH1 0xE0 SHL SUB AND PUSH4 0xA9059CBB PUSH1 0xE0 SHL OR SWAP1 MSTORE PUSH2 0xC9B SWAP1 DUP5 SWAP1 PUSH2 0xF13 JUMP JUMPDEST POP POP POP JUMP JUMPDEST PUSH1 0xFF DUP1 DUP5 AND PUSH0 SWAP1 DUP2 MSTORE PUSH1 0xE PUSH1 0x20 MSTORE PUSH1 0x40 SWAP1 KECCAK256 SLOAD AND ISZERO DUP1 PUSH2 0xCCE JUMPI POP PUSH0 DUP3 DUP2 MSTORE PUSH1 0xF PUSH1 0x20 MSTORE PUSH1 0x40 SWAP1 KECCAK256 SLOAD PUSH1 0xFF AND ISZERO JUMPDEST DUP1 PUSH2 0xCE7 JUMPI POP PUSH0 DUP2 DUP2 MSTORE PUSH1 0x10 PUSH1 0x20 MSTORE PUSH1 0x40 SWAP1 KECCAK256 SLOAD PUSH1 0xFF AND ISZERO JUMPDEST PUSH2 0xD1E JUMPI PUSH1 0x40 MLOAD PUSH3 0x461BCD PUSH1 0xE5 SHL DUP2 MSTORE PUSH1 0x20 PUSH1 0x4 DUP3 ADD MSTORE PUSH1 0x8 PUSH1 0x24 DUP3 ADD MSTORE PUSH8 0x1CDA59C81D5CD959 PUSH1 0xC2 SHL PUSH1 0x44 DUP3 ADD MSTORE PUSH1 0x64 ADD PUSH2 0x5A2 JUMP JUMPDEST DUP4 TIMESTAMP GT ISZERO PUSH2 0xD42 JUMPI PUSH1 0x40 MLOAD PUSH4 0x313C8981 PUSH1 0xE1 SHL DUP2 MSTORE PUSH1 0x4 DUP2 ADD DUP6 SWAP1 MSTORE PUSH1 0x24 ADD PUSH2 0x5A2 JUMP JUMPDEST PUSH1 0xD SLOAD PUSH1 0x40 DUP1 MLOAD PUSH32 0x5619A74ECD0240AFC3BFB1DF2BD1319401220FB577809C3A09BF0AB809AC861 PUSH1 0x20 DUP3 ADD MSTORE PUSH1 0x1 PUSH1 0x1 PUSH1 0xA0 SHL SUB SWAP3 DUP4 AND SWAP2 DUP2 ADD SWAP2 SWAP1 SWAP2 MSTORE SWAP1 DUP8 AND PUSH1 0x60 DUP3 ADD MSTORE PUSH1 0x80 DUP2 ADD DUP7 SWAP1 MSTORE PUSH1 0xA0 DUP2 ADD DUP6 SWAP1 MSTORE PUSH0 SWAP1 PUSH1 0xC0 ADD PUSH1 0x40 MLOAD PUSH1 0x20 DUP2 DUP4 SUB SUB DUP2 MSTORE SWAP1 PUSH1 0x40 MSTORE DUP1 MLOAD SWAP1 PUSH1 0x20 ADD KECCAK256 SWAP1 POP PUSH0 PUSH2 0xDBE DUP3 PUSH2 0xF74 JUMP JUMPDEST SWAP1 POP PUSH0 PUSH2 0xDCD DUP3 DUP8 DUP8 DUP8 PUSH2 0xFA0 JUMP JUMPDEST PUSH1 0xD SLOAD SWAP1 SWAP2 POP PUSH1 0x1 PUSH1 0x1 PUSH1 0xA0 SHL SUB DUP1 DUP4 AND SWAP2 AND EQ PUSH2 0xE15 JUMPI PUSH1 0xD SLOAD PUSH1 0x40 MLOAD PUSH4 0x25C00723 PUSH1 0xE1 SHL DUP2 MSTORE PUSH1 0x1 PUSH1 0x1 PUSH1 0xA0 SHL SUB DUP1 DUP5 AND PUSH1 0x4 DUP4 ADD MSTORE SWAP1 SWAP2 AND PUSH1 0x24 DUP3 ADD MSTORE PUSH1 0x44 ADD PUSH2 0x5A2 JUMP JUMPDEST POP POP POP PUSH1 0xFF SWAP1 SWAP3 AND PUSH0 SWAP1 DUP2 MSTORE PUSH1 0xE PUSH1 0x20 SWAP1 DUP2 MSTORE PUSH1 0x40 DUP1 DUP4 KECCAK256 DUP1 SLOAD PUSH1 0xFF NOT SWAP1 DUP2 AND PUSH1 0x1 SWAP1 DUP2 OR SWAP1 SWAP3 SSTORE SWAP5 DUP5 MSTORE PUSH1 0xF DUP4 MSTORE DUP2 DUP5 KECCAK256 DUP1 SLOAD DUP7 AND DUP3 OR SWAP1 SSTORE SWAP5 DUP4 MSTORE PUSH1 0x10 SWAP1 SWAP2 MSTORE SWAP1 KECCAK256 DUP1 SLOAD SWAP1 SWAP2 AND SWAP1 SWAP2 OR SWAP1 SSTORE POP POP POP JUMP JUMPDEST PUSH1 0x60 PUSH1 0xFF DUP4 EQ PUSH2 0xE82 JUMPI PUSH2 0xE7B DUP4 PUSH2 0xFCC JUMP JUMPDEST SWAP1 POP PUSH2 0xF0D JUMP JUMPDEST DUP2 DUP1 SLOAD PUSH2 0xE8E SWAP1 PUSH2 0x14E5 JUMP JUMPDEST DUP1 PUSH1 0x1F ADD PUSH1 0x20 DUP1 SWAP2 DIV MUL PUSH1 0x20 ADD PUSH1 0x40 MLOAD SWAP1 DUP2 ADD PUSH1 0x40 MSTORE DUP1 SWAP3 SWAP2 SWAP1 DUP2 DUP2 MSTORE PUSH1 0x20 ADD DUP3 DUP1 SLOAD PUSH2 0xEBA SWAP1 PUSH2 0x14E5 JUMP JUMPDEST DUP1 ISZERO PUSH2 0xF05 JUMPI DUP1 PUSH1 0x1F LT PUSH2 0xEDC JUMPI PUSH2 0x100 DUP1 DUP4 SLOAD DIV MUL DUP4 MSTORE SWAP2 PUSH1 0x20 ADD SWAP2 PUSH2 0xF05 JUMP JUMPDEST DUP3 ADD SWAP2 SWAP1 PUSH0 MSTORE PUSH1 0x20 PUSH0 KECCAK256 SWAP1 JUMPDEST DUP2 SLOAD DUP2 MSTORE SWAP1 PUSH1 0x1 ADD SWAP1 PUSH1 0x20 ADD DUP1 DUP4 GT PUSH2 0xEE8 JUMPI DUP3 SWAP1 SUB PUSH1 0x1F AND DUP3 ADD SWAP2 JUMPDEST POP POP POP POP POP SWAP1 POP JUMPDEST SWAP3 SWAP2 POP POP JUMP JUMPDEST PUSH0 PUSH2 0xF27 PUSH1 0x1 PUSH1 0x1 PUSH1 0xA0 SHL SUB DUP5 AND DUP4 PUSH2 0x1009 JUMP JUMPDEST SWAP1 POP DUP1 MLOAD PUSH0 EQ ISZERO DUP1 ISZERO PUSH2 0xF4B JUMPI POP DUP1 DUP1 PUSH1 0x20 ADD SWAP1 MLOAD DUP2 ADD SWAP1 PUSH2 0xF49 SWAP2 SWAP1 PUSH2 0x16E4 JUMP JUMPDEST ISZERO JUMPDEST ISZERO PUSH2 0xC9B JUMPI PUSH1 0x40 MLOAD PUSH4 0x5274AFE7 PUSH1 0xE0 SHL DUP2 MSTORE PUSH1 0x1 PUSH1 0x1 PUSH1 0xA0 SHL SUB DUP5 AND PUSH1 0x4 DUP3 ADD MSTORE PUSH1 0x24 ADD PUSH2 0x5A2 JUMP JUMPDEST PUSH0 PUSH2 0xF0D PUSH2 0xF80 PUSH2 0xA77 JUMP JUMPDEST DUP4 PUSH1 0x40 MLOAD PUSH2 0x1901 PUSH1 0xF0 SHL DUP2 MSTORE PUSH1 0x2 DUP2 ADD SWAP3 SWAP1 SWAP3 MSTORE PUSH1 0x22 DUP3 ADD MSTORE PUSH1 0x42 SWAP1 KECCAK256 SWAP1 JUMP JUMPDEST PUSH0 DUP1 PUSH0 DUP1 PUSH2 0xFB0 DUP9 DUP9 DUP9 DUP9 PUSH2 0x1016 JUMP JUMPDEST SWAP3 POP SWAP3 POP SWAP3 POP PUSH2 0xFC0 DUP3 DUP3 PUSH2 0x10DE JUMP JUMPDEST POP SWAP1 SWAP7 SWAP6 POP POP POP POP POP POP JUMP JUMPDEST PUSH1 0x60 PUSH0 PUSH2 0xFD8 DUP4 PUSH2 0x119A JUMP JUMPDEST PUSH1 0x40 DUP1 MLOAD PUSH1 0x20 DUP1 DUP3 MSTORE DUP2 DUP4 ADD SWAP1 SWAP3 MSTORE SWAP2 SWAP3 POP PUSH0 SWAP2 SWAP1 PUSH1 0x20 DUP3 ADD DUP2 DUP1 CALLDATASIZE DUP4 CALLDATACOPY POP POP POP SWAP2 DUP3 MSTORE POP PUSH1 0x20 DUP2 ADD SWAP3 SWAP1 SWAP3 MSTORE POP SWAP1 JUMP JUMPDEST PUSH1 0x60 PUSH2 0x4A0 DUP4 DUP4 PUSH0 PUSH2 0x11C1 JUMP JUMPDEST PUSH0 DUP1 DUP1 PUSH32 0x7FFFFFFFFFFFFFFFFFFFFFFFFFFFFFFF5D576E7357A4501DDFE92F46681B20A0 DUP5 GT ISZERO PUSH2 0x104F JUMPI POP PUSH0 SWAP2 POP PUSH1 0x3 SWAP1 POP DUP3 PUSH2 0x10D4 JUMP JUMPDEST PUSH1 0x40 DUP1 MLOAD PUSH0 DUP1 DUP3 MSTORE PUSH1 0x20 DUP3 ADD DUP1 DUP5 MSTORE DUP11 SWAP1 MSTORE PUSH1 0xFF DUP10 AND SWAP3 DUP3 ADD SWAP3 SWAP1 SWAP3 MSTORE PUSH1 0x60 DUP2 ADD DUP8 SWAP1 MSTORE PUSH1 0x80 DUP2 ADD DUP7 SWAP1 MSTORE PUSH1 0x1 SWAP1 PUSH1 0xA0 ADD PUSH1 0x20 PUSH1 0x40 MLOAD PUSH1 0x20 DUP2 SUB SWAP1 DUP1 DUP5 SUB SWAP1 DUP6 GAS STATICCALL ISZERO DUP1 ISZERO PUSH2 0x10A0 JUMPI RETURNDATASIZE PUSH0 DUP1 RETURNDATACOPY RETURNDATASIZE PUSH0 REVERT JUMPDEST POP POP PUSH1 0x40 MLOAD PUSH1 0x1F NOT ADD MLOAD SWAP2 POP POP PUSH1 0x1 PUSH1 0x1 PUSH1 0xA0 SHL SUB DUP2 AND PUSH2 0x10CB JUMPI POP PUSH0 SWAP3 POP PUSH1 0x1 SWAP2 POP DUP3 SWAP1 POP PUSH2 0x10D4 JUMP JUMPDEST SWAP3 POP PUSH0 SWAP2 POP DUP2 SWAP1 POP JUMPDEST SWAP5 POP SWAP5 POP SWAP5 SWAP2 POP POP JUMP JUMPDEST PUSH0 DUP3 PUSH1 0x3 DUP2 GT ISZERO PUSH2 0x10F1 JUMPI PUSH2 0x10F1 PUSH2 0x16FF JUMP JUMPDEST SUB PUSH2 0x10FA JUMPI POP POP JUMP JUMPDEST PUSH1 0x1 DUP3 PUSH1 0x3 DUP2 GT ISZERO PUSH2 0x110E JUMPI PUSH2 0x110E PUSH2 0x16FF JUMP JUMPDEST SUB PUSH2 0x112C JUMPI PUSH1 0x40 MLOAD PUSH4 0xF645EEDF PUSH1 0xE0 SHL DUP2 MSTORE PUSH1 0x4 ADD PUSH1 0x40 MLOAD DUP1 SWAP2 SUB SWAP1 REVERT JUMPDEST PUSH1 0x2 DUP3 PUSH1 0x3 DUP2 GT ISZERO PUSH2 0x1140 JUMPI PUSH2 0x1140 PUSH2 0x16FF JUMP JUMPDEST SUB PUSH2 0x1161 JUMPI PUSH1 0x40 MLOAD PUSH4 0xFCE698F7 PUSH1 0xE0 SHL DUP2 MSTORE PUSH1 0x4 DUP2 ADD DUP3 SWAP1 MSTORE PUSH1 0x24 ADD PUSH2 0x5A2 JUMP JUMPDEST PUSH1 0x3 DUP3 PUSH1 0x3 DUP2 GT ISZERO PUSH2 0x1175 JUMPI PUSH2 0x1175 PUSH2 0x16FF JUMP JUMPDEST SUB PUSH2 0x1196 JUMPI PUSH1 0x40 MLOAD PUSH4 0x35E2F383 PUSH1 0xE2 SHL DUP2 MSTORE PUSH1 0x4 DUP2 ADD DUP3 SWAP1 MSTORE PUSH1 0x24 ADD PUSH2 0x5A2 JUMP JUMPDEST POP POP JUMP JUMPDEST PUSH0 PUSH1 0xFF DUP3 AND PUSH1 0x1F DUP2 GT ISZERO PUSH2 0xF0D JUMPI PUSH1 0x40 MLOAD PUSH4 0x2CD44AC3 PUSH1 0xE2 SHL DUP2 MSTORE PUSH1 0x4 ADD PUSH1 0x40 MLOAD DUP1 SWAP2 SUB SWAP1 REVERT JUMPDEST PUSH1 0x60 DUP2 SELFBALANCE LT ISZERO PUSH2 0x11E6 JUMPI PUSH1 0x40 MLOAD PUSH4 0xCD786059 PUSH1 0xE0 SHL DUP2 MSTORE ADDRESS PUSH1 0x4 DUP3 ADD MSTORE PUSH1 0x24 ADD PUSH2 0x5A2 JUMP JUMPDEST PUSH0 DUP1 DUP6 PUSH1 0x1 PUSH1 0x1 PUSH1 0xA0 SHL SUB AND DUP5 DUP7 PUSH1 0x40 MLOAD PUSH2 0x1201 SWAP2 SWAP1 PUSH2 0x1713 JUMP JUMPDEST PUSH0 PUSH1 0x40 MLOAD DUP1 DUP4 SUB DUP2 DUP6 DUP8 GAS CALL SWAP3 POP POP POP RETURNDATASIZE DUP1 PUSH0 DUP2 EQ PUSH2 0x123B JUMPI PUSH1 0x40 MLOAD SWAP2 POP PUSH1 0x1F NOT PUSH1 0x3F RETURNDATASIZE ADD AND DUP3 ADD PUSH1 0x40 MSTORE RETURNDATASIZE DUP3 MSTORE RETURNDATASIZE PUSH0 PUSH1 0x20 DUP5 ADD RETURNDATACOPY PUSH2 0x1240 JUMP JUMPDEST PUSH1 0x60 SWAP2 POP JUMPDEST POP SWAP2 POP SWAP2 POP PUSH2 0x1250 DUP7 DUP4 DUP4 PUSH2 0x125A JUMP JUMPDEST SWAP7 SWAP6 POP POP POP POP POP POP JUMP JUMPDEST PUSH1 0x60 DUP3 PUSH2 0x126F JUMPI PUSH2 0x126A DUP3 PUSH2 0x12B6 JUMP JUMPDEST PUSH2 0x4A0 JUMP JUMPDEST DUP2 MLOAD ISZERO DUP1 ISZERO PUSH2 0x1286 JUMPI POP PUSH1 0x1 PUSH1 0x1 PUSH1 0xA0 SHL SUB DUP5 AND EXTCODESIZE ISZERO JUMPDEST ISZERO PUSH2 0x12AF JUMPI PUSH1 0x40 MLOAD PUSH4 0x9996B315 PUSH1 0xE0 SHL DUP2 MSTORE PUSH1 0x1 PUSH1 0x1 PUSH1 0xA0 SHL SUB DUP6 AND PUSH1 0x4 DUP3 ADD MSTORE PUSH1 0x24 ADD PUSH2 0x5A2 JUMP JUMPDEST POP DUP1 PUSH2 0x4A0 JUMP JUMPDEST DUP1 MLOAD ISZERO PUSH2 0x12C6 JUMPI DUP1 MLOAD DUP1 DUP3 PUSH1 0x20 ADD REVERT JUMPDEST PUSH1 0x40 MLOAD PUSH4 0xA12F521 PUSH1 0xE1 SHL DUP2 MSTORE PUSH1 0x4 ADD PUSH1 0x40 MLOAD DUP1 SWAP2 SUB SWAP1 REVERT JUMPDEST PUSH0 JUMPDEST DUP4 DUP2 LT ISZERO PUSH2 0x12F9 JUMPI DUP2 DUP2 ADD MLOAD DUP4 DUP3 ADD MSTORE PUSH1 0x20 ADD PUSH2 0x12E1 JUMP JUMPDEST POP POP PUSH0 SWAP2 ADD MSTORE JUMP JUMPDEST PUSH0 DUP2 MLOAD DUP1 DUP5 MSTORE PUSH2 0x1318 DUP2 PUSH1 0x20 DUP7 ADD PUSH1 0x20 DUP7 ADD PUSH2 0x12DF JUMP JUMPDEST PUSH1 0x1F ADD PUSH1 0x1F NOT AND SWAP3 SWAP1 SWAP3 ADD PUSH1 0x20 ADD SWAP3 SWAP2 POP POP JUMP JUMPDEST PUSH1 0x20 DUP2 MSTORE PUSH0 PUSH2 0x4A0 PUSH1 0x20 DUP4 ADD DUP5 PUSH2 0x1301 JUMP JUMPDEST PUSH0 PUSH1 0x20 DUP3 DUP5 SUB SLT ISZERO PUSH2 0x134E JUMPI PUSH0 DUP1 REVERT JUMPDEST POP CALLDATALOAD SWAP2 SWAP1 POP JUMP JUMPDEST DUP1 ISZERO ISZERO DUP2 EQ PUSH2 0x895 JUMPI PUSH0 DUP1 REVERT JUMPDEST PUSH0 PUSH1 0x20 DUP3 DUP5 SUB SLT ISZERO PUSH2 0x1372 JUMPI PUSH0 DUP1 REVERT JUMPDEST DUP2 CALLDATALOAD PUSH2 0x4A0 DUP2 PUSH2 0x1355 JUMP JUMPDEST DUP1 CALLDATALOAD PUSH1 0x1 PUSH1 0x1 PUSH1 0xA0 SHL SUB DUP2 AND DUP2 EQ PUSH2 0x1393 JUMPI PUSH0 DUP1 REVERT JUMPDEST SWAP2 SWAP1 POP JUMP JUMPDEST PUSH0 PUSH1 0x20 DUP3 DUP5 SUB SLT ISZERO PUSH2 0x13A8 JUMPI PUSH0 DUP1 REVERT JUMPDEST PUSH2 0x4A0 DUP3 PUSH2 0x137D JUMP JUMPDEST PUSH1 0xFF PUSH1 0xF8 SHL DUP9 AND DUP2 MSTORE PUSH0 PUSH1 0x20 PUSH1 0xE0 PUSH1 0x20 DUP5 ADD MSTORE PUSH2 0x13D1 PUSH1 0xE0 DUP5 ADD DUP11 PUSH2 0x1301 JUMP JUMPDEST DUP4 DUP2 SUB PUSH1 0x40 DUP6 ADD MSTORE PUSH2 0x13E3 DUP2 DUP11 PUSH2 0x1301 JUMP JUMPDEST PUSH1 0x60 DUP6 ADD DUP10 SWAP1 MSTORE PUSH1 0x1 PUSH1 0x1 PUSH1 0xA0 SHL SUB DUP9 AND PUSH1 0x80 DUP7 ADD MSTORE PUSH1 0xA0 DUP6 ADD DUP8 SWAP1 MSTORE DUP5 DUP2 SUB PUSH1 0xC0 DUP7 ADD MSTORE DUP6 MLOAD DUP1 DUP3 MSTORE PUSH1 0x20 DUP1 DUP9 ADD SWAP4 POP SWAP1 SWAP2 ADD SWAP1 PUSH0 JUMPDEST DUP2 DUP2 LT ISZERO PUSH2 0x1436 JUMPI DUP4 MLOAD DUP4 MSTORE SWAP3 DUP5 ADD SWAP3 SWAP2 DUP5 ADD SWAP2 PUSH1 0x1 ADD PUSH2 0x141A JUMP JUMPDEST POP SWAP1 SWAP13 SWAP12 POP POP POP POP POP POP POP POP POP POP POP POP JUMP JUMPDEST PUSH0 DUP1 PUSH0 PUSH1 0x60 DUP5 DUP7 SUB SLT ISZERO PUSH2 0x145A JUMPI PUSH0 DUP1 REVERT JUMPDEST PUSH2 0x1463 DUP5 PUSH2 0x137D JUMP JUMPDEST SWAP3 POP PUSH2 0x1471 PUSH1 0x20 DUP6 ADD PUSH2 0x137D JUMP JUMPDEST SWAP2 POP PUSH1 0x40 DUP5 ADD CALLDATALOAD SWAP1 POP SWAP3 POP SWAP3 POP SWAP3 JUMP JUMPDEST PUSH1 0xFF DUP2 AND DUP2 EQ PUSH2 0x895 JUMPI PUSH0 DUP1 REVERT JUMPDEST PUSH0 DUP1 PUSH0 DUP1 PUSH0 DUP1 PUSH1 0xC0 DUP8 DUP10 SUB SLT ISZERO PUSH2 0x14A4 JUMPI PUSH0 DUP1 REVERT JUMPDEST PUSH2 0x14AD DUP8 PUSH2 0x137D JUMP JUMPDEST SWAP6 POP PUSH1 0x20 DUP8 ADD CALLDATALOAD SWAP5 POP PUSH1 0x40 DUP8 ADD CALLDATALOAD SWAP4 POP PUSH1 0x60 DUP8 ADD CALLDATALOAD PUSH2 0x14CB DUP2 PUSH2 0x1481 JUMP JUMPDEST SWAP6 SWAP9 SWAP5 SWAP8 POP SWAP3 SWAP6 PUSH1 0x80 DUP2 ADD CALLDATALOAD SWAP5 PUSH1 0xA0 SWAP1 SWAP2 ADD CALLDATALOAD SWAP4 POP SWAP2 POP POP JUMP JUMPDEST PUSH1 0x1 DUP2 DUP2 SHR SWAP1 DUP3 AND DUP1 PUSH2 0x14F9 JUMPI PUSH1 0x7F DUP3 AND SWAP2 POP JUMPDEST PUSH1 0x20 DUP3 LT DUP2 SUB PUSH2 0x1517 JUMPI PUSH4 0x4E487B71 PUSH1 0xE0 SHL PUSH0 MSTORE PUSH1 0x22 PUSH1 0x4 MSTORE PUSH1 0x24 PUSH0 REVERT JUMPDEST POP SWAP2 SWAP1 POP JUMP JUMPDEST PUSH4 0x4E487B71 PUSH1 0xE0 SHL PUSH0 MSTORE PUSH1 0x11 PUSH1 0x4 MSTORE PUSH1 0x24 PUSH0 REVERT JUMPDEST DUP1 DUP3 MUL DUP2 ISZERO DUP3 DUP3 DIV DUP5 EQ OR PUSH2 0xF0D JUMPI PUSH2 0xF0D PUSH2 0x151D JUMP JUMPDEST PUSH0 PUSH1 0x20 DUP3 DUP5 SUB SLT ISZERO PUSH2 0x1558 JUMPI PUSH0 DUP1 REVERT JUMPDEST DUP2 MLOAD PUSH2 0x4A0 DUP2 PUSH2 0x1481 JUMP JUMPDEST PUSH1 0x1 DUP2 DUP2 JUMPDEST DUP1 DUP6 GT ISZERO PUSH2 0x159D JUMPI DUP2 PUSH0 NOT DIV DUP3 GT ISZERO PUSH2 0x1583 JUMPI PUSH2 0x1583 PUSH2 0x151D JUMP JUMPDEST DUP1 DUP6 AND ISZERO PUSH2 0x1590 JUMPI SWAP2 DUP2 MUL SWAP2 JUMPDEST SWAP4 DUP5 SHR SWAP4 SWAP1 DUP1 MUL SWAP1 PUSH2 0x1568 JUMP JUMPDEST POP SWAP3 POP SWAP3 SWAP1 POP JUMP JUMPDEST PUSH0 DUP3 PUSH2 0x15B3 JUMPI POP PUSH1 0x1 PUSH2 0xF0D JUMP JUMPDEST DUP2 PUSH2 0x15BF JUMPI POP PUSH0 PUSH2 0xF0D JUMP JUMPDEST DUP2 PUSH1 0x1 DUP2 EQ PUSH2 0x15D5 JUMPI PUSH1 0x2 DUP2 EQ PUSH2 0x15DF JUMPI PUSH2 0x15FB JUMP JUMPDEST PUSH1 0x1 SWAP2 POP POP PUSH2 0xF0D JUMP JUMPDEST PUSH1 0xFF DUP5 GT ISZERO PUSH2 0x15F0 JUMPI PUSH2 0x15F0 PUSH2 0x151D JUMP JUMPDEST POP POP PUSH1 0x1 DUP3 SHL PUSH2 0xF0D JUMP JUMPDEST POP PUSH1 0x20 DUP4 LT PUSH2 0x133 DUP4 LT AND PUSH1 0x4E DUP5 LT PUSH1 0xB DUP5 LT AND OR ISZERO PUSH2 0x161E JUMPI POP DUP2 DUP2 EXP PUSH2 0xF0D JUMP JUMPDEST PUSH2 0x1628 DUP4 DUP4 PUSH2 0x1563 JUMP JUMPDEST DUP1 PUSH0 NOT DIV DUP3 GT ISZERO PUSH2 0x163B JUMPI PUSH2 0x163B PUSH2 0x151D JUMP JUMPDEST MUL SWAP4 SWAP3 POP POP POP JUMP JUMPDEST PUSH0 PUSH2 0x4A0 PUSH1 0xFF DUP5 AND DUP4 PUSH2 0x15A5 JUMP JUMPDEST PUSH0 DUP3 PUSH2 0x166B JUMPI PUSH4 0x4E487B71 PUSH1 0xE0 SHL PUSH0 MSTORE PUSH1 0x12 PUSH1 0x4 MSTORE PUSH1 0x24 PUSH0 REVERT JUMPDEST POP DIV SWAP1 JUMP JUMPDEST PUSH1 0x20 DUP1 DUP3 MSTORE PUSH1 0x1F SWAP1 DUP3 ADD MSTORE PUSH32 0x796F75206172652073656E64696E6720746F207A65726F206164647265737300 PUSH1 0x40 DUP3 ADD MSTORE PUSH1 0x60 ADD SWAP1 JUMP JUMPDEST PUSH0 PUSH1 0x20 DUP3 DUP5 SUB SLT ISZERO PUSH2 0x16B7 JUMPI PUSH0 DUP1 REVERT JUMPDEST POP MLOAD SWAP2 SWAP1 POP JUMP JUMPDEST DUP1 DUP3 ADD DUP1 DUP3 GT ISZERO PUSH2 0xF0D JUMPI PUSH2 0xF0D PUSH2 0x151D JUMP JUMPDEST DUP2 DUP2 SUB DUP2 DUP2 GT ISZERO PUSH2 0xF0D JUMPI PUSH2 0xF0D PUSH2 0x151D JUMP JUMPDEST PUSH0 PUSH1 0x20 DUP3 DUP5 SUB SLT ISZERO PUSH2 0x16F4 JUMPI PUSH0 DUP1 REVERT JUMPDEST DUP2 MLOAD PUSH2 0x4A0 DUP2 PUSH2 0x1355 JUMP JUMPDEST PUSH4 0x4E487B71 PUSH1 0xE0 SHL PUSH0 MSTORE PUSH1 0x21 PUSH1 0x4 MSTORE PUSH1 0x24 PUSH0 REVERT JUMPDEST PUSH0 DUP3 MLOAD PUSH2 0x1724 DUP2 DUP5 PUSH1 0x20 DUP8 ADD PUSH2 0x12DF JUMP JUMPDEST SWAP2 SWAP1 SWAP2 ADD SWAP3 SWAP2 POP POP JUMP INVALID LOG2 PUSH5 0x6970667358 0x22 SLT KECCAK256 KECCAK256 SIGNEXTEND 0x4C 0xE7 SWAP14 DUP8 0xC1 0xAE 0xC0 PUSH26 0x7C58112FA52C8F87218BEDF4B4598D52C0CC4B05DCDD64736F6C PUSH4 0x43000816 STOP CALLER "
				},
				"gasEstimates": {
					"creation": {
						"codeDepositCost": "1197600",
						"executionCost": "infinite",
						"totalCost": "infinite"
					},
					"external": {
						"DOMAIN_SEPARATOR()": "infinite",
						"TotalfeescollectedPaymentCoin()": "2416",
						"admin()": "2402",
						"checkAmountToRecive(uint256)": "infinite",
						"claimedPaymentCoin()": "2393",
						"depositFee()": "2351",
						"eip712Domain()": "infinite",
						"emergencyWithdraw(address,address,uint256)": "infinite",
						"freezeContract(bool)": "26800",
						"freezePermit()": "2416",
						"initContractBalancePaymentCoin()": "2307",
						"owner()": "2363",
						"permitSwapToPaymentCoin(address,uint256,uint256,uint8,bytes32,bytes32)": "infinite",
						"pointsMin()": "2350",
						"rate()": "2395",
						"renounceOwnership()": "infinite",
						"setAdmin(address)": "26777",
						"setMinPointsToSWap(uint256)": "24689",
						"setPaymentDepositfees(uint256)": "24574",
						"setRate(uint256)": "24619",
						"setWithdrawalFee(uint256)": "24574",
						"setpaymentTokenAndpoints(address)": "50998",
						"transferOwnership(address)": "28373",
						"vaultName()": "infinite",
						"withdrawalFee()": "2306",
						"withdrawfees(address)": "infinite"
					},
					"internal": {
						"_permit(address,uint256,uint256,uint8,bytes32,bytes32)": "infinite"
					}
				},
				"methodIdentifiers": {
					"DOMAIN_SEPARATOR()": "3644e515",
					"TotalfeescollectedPaymentCoin()": "c4a9e858",
					"admin()": "f851a440",
					"checkAmountToRecive(uint256)": "0d461e61",
					"claimedPaymentCoin()": "fd918716",
					"depositFee()": "67a52793",
					"eip712Domain()": "84b0196e",
					"emergencyWithdraw(address,address,uint256)": "e63ea408",
					"freezeContract(bool)": "6b4c0789",
					"freezePermit()": "252de51b",
					"initContractBalancePaymentCoin()": "06e0e582",
					"owner()": "8da5cb5b",
					"permitSwapToPaymentCoin(address,uint256,uint256,uint8,bytes32,bytes32)": "f9c3a1e8",
					"pointsMin()": "e1fefd42",
					"rate()": "2c4e722e",
					"renounceOwnership()": "715018a6",
					"setAdmin(address)": "704b6c02",
					"setMinPointsToSWap(uint256)": "c08e7286",
					"setPaymentDepositfees(uint256)": "76ee947f",
					"setRate(uint256)": "34fcf437",
					"setWithdrawalFee(uint256)": "ac1e5025",
					"setpaymentTokenAndpoints(address)": "cbeacb80",
					"transferOwnership(address)": "f2fde38b",
					"vaultName()": "0ace9ca0",
					"withdrawalFee()": "8bc7e8c4",
					"withdrawfees(address)": "9683cdc4"
				}
			},
			"storageLayout": {
				"storage": [
					{
						"astId": 8,
						"contract": "src/ribbonVault1.sol:vault",
						"label": "_owner",
						"offset": 0,
						"slot": "0",
						"type": "t_address"
					},
					{
						"astId": 1826,
						"contract": "src/ribbonVault1.sol:vault",
						"label": "_nameFallback",
						"offset": 0,
						"slot": "1",
						"type": "t_string_storage"
					},
					{
						"astId": 1828,
						"contract": "src/ribbonVault1.sol:vault",
						"label": "_versionFallback",
						"offset": 0,
						"slot": "2",
						"type": "t_string_storage"
					},
					{
						"astId": 3301,
						"contract": "src/ribbonVault1.sol:vault",
						"label": "_Ipaymentcoin",
						"offset": 0,
						"slot": "3",
						"type": "t_contract(IERC20T)3284"
					},
					{
						"astId": 3304,
						"contract": "src/ribbonVault1.sol:vault",
						"label": "_IpaymentcoinT",
						"offset": 0,
						"slot": "4",
						"type": "t_contract(IERC20)250"
					},
					{
						"astId": 3306,
						"contract": "src/ribbonVault1.sol:vault",
						"label": "depositFee",
						"offset": 0,
						"slot": "5",
						"type": "t_uint256"
					},
					{
						"astId": 3308,
						"contract": "src/ribbonVault1.sol:vault",
						"label": "rate",
						"offset": 0,
						"slot": "6",
						"type": "t_uint256"
					},
					{
						"astId": 3310,
						"contract": "src/ribbonVault1.sol:vault",
						"label": "withdrawalFee",
						"offset": 0,
						"slot": "7",
						"type": "t_uint256"
					},
					{
						"astId": 3312,
						"contract": "src/ribbonVault1.sol:vault",
						"label": "pointsMin",
						"offset": 0,
						"slot": "8",
						"type": "t_uint256"
					},
					{
						"astId": 3314,
						"contract": "src/ribbonVault1.sol:vault",
						"label": "initContractBalancePaymentCoin",
						"offset": 0,
						"slot": "9",
						"type": "t_uint256"
					},
					{
						"astId": 3316,
						"contract": "src/ribbonVault1.sol:vault",
						"label": "claimedPaymentCoin",
						"offset": 0,
						"slot": "10",
						"type": "t_uint256"
					},
					{
						"astId": 3318,
						"contract": "src/ribbonVault1.sol:vault",
						"label": "TotalfeescollectedPaymentCoin",
						"offset": 0,
						"slot": "11",
						"type": "t_uint256"
					},
					{
						"astId": 3320,
						"contract": "src/ribbonVault1.sol:vault",
						"label": "vaultName",
						"offset": 0,
						"slot": "12",
						"type": "t_string_storage"
					},
					{
						"astId": 3322,
						"contract": "src/ribbonVault1.sol:vault",
						"label": "admin",
						"offset": 0,
						"slot": "13",
						"type": "t_address"
					},
					{
						"astId": 3324,
						"contract": "src/ribbonVault1.sol:vault",
						"label": "freezePermit",
						"offset": 20,
						"slot": "13",
						"type": "t_bool"
					},
					{
						"astId": 3358,
						"contract": "src/ribbonVault1.sol:vault",
						"label": "sig_v",
						"offset": 0,
						"slot": "14",
						"type": "t_mapping(t_uint8,t_bool)"
					},
					{
						"astId": 3362,
						"contract": "src/ribbonVault1.sol:vault",
						"label": "sig_r",
						"offset": 0,
						"slot": "15",
						"type": "t_mapping(t_bytes32,t_bool)"
					},
					{
						"astId": 3366,
						"contract": "src/ribbonVault1.sol:vault",
						"label": "sig_s",
						"offset": 0,
						"slot": "16",
						"type": "t_mapping(t_bytes32,t_bool)"
					}
				],
				"types": {
					"t_address": {
						"encoding": "inplace",
						"label": "address",
						"numberOfBytes": "20"
					},
					"t_bool": {
						"encoding": "inplace",
						"label": "bool",
						"numberOfBytes": "1"
					},
					"t_bytes32": {
						"encoding": "inplace",
						"label": "bytes32",
						"numberOfBytes": "32"
					},
					"t_contract(IERC20)250": {
						"encoding": "inplace",
						"label": "contract IERC20",
						"numberOfBytes": "20"
					},
					"t_contract(IERC20T)3284": {
						"encoding": "inplace",
						"label": "contract IERC20T",
						"numberOfBytes": "20"
					},
					"t_mapping(t_bytes32,t_bool)": {
						"encoding": "mapping",
						"key": "t_bytes32",
						"label": "mapping(bytes32 => bool)",
						"numberOfBytes": "32",
						"value": "t_bool"
					},
					"t_mapping(t_uint8,t_bool)": {
						"encoding": "mapping",
						"key": "t_uint8",
						"label": "mapping(uint8 => bool)",
						"numberOfBytes": "32",
						"value": "t_bool"
					},
					"t_string_storage": {
						"encoding": "bytes",
						"label": "string",
						"numberOfBytes": "32"
					},
					"t_uint256": {
						"encoding": "inplace",
						"label": "uint256",
						"numberOfBytes": "32"
					},
					"t_uint8": {
						"encoding": "inplace",
						"label": "uint8",
						"numberOfBytes": "1"
					}
				}
			},
			"userdoc": {
				"kind": "user",
				"methods": {
					"setMinPointsToSWap(uint256)": {
						"notice": "18 decimal was hardcoded because the points contract is 18 decimal"
					}
				},
				"version": 1
			}
		}
	}
}