{
	"data": {
		"bytecode": {
			"linkReferences": {},
			"object": "6080604052600160065534801562000015575f80fd5b50604051620038c5380380620038c58339810160408190526200003891620002d6565b6040805180820182526006808252652934b13137b760d11b602080840182905284518086019095529184529083015233916003620000778382620003a3565b506004620000868282620003a3565b5050506001600160a01b038116620000b857604051631e4fbdf760e01b81525f60048201526024015b60405180910390fd5b620000c3816200011a565b50620000dc336b1363156bbee3016d700000006200016b565b620000f4306b0cecb8f27f4200f3a00000006200016b565b600780546001600160a01b0319166001600160a01b039290921691909117905562000495565b600580546001600160a01b038381166001600160a01b0319831681179093556040519116919082907f8be0079c531659141344cd1fd0a4f28419497f9722a3daafe3b4186f6b6457e0905f90a35050565b6001600160a01b038216620001965760405163ec442f0560e01b81525f6004820152602401620000af565b620001a35f8383620001a7565b5050565b6001600160a01b038316620001d5578060025f828254620001c991906200046f565b90915550620002479050565b6001600160a01b0383165f9081526020819052604090205481811015620002295760405163391434e360e21b81526001600160a01b03851660048201526024810182905260448101839052606401620000af565b6001600160a01b0384165f9081526020819052604090209082900390555b6001600160a01b038216620002655760028054829003905562000283565b6001600160a01b0382165f9081526020819052604090208054820190555b816001600160a01b0316836001600160a01b03167fddf252ad1be2c89b69c2b068fc378daa952ba7f163c4a11628f55a4df523b3ef83604051620002c991815260200190565b60405180910390a3505050565b5f60208284031215620002e7575f80fd5b81516001600160a01b0381168114620002fe575f80fd5b9392505050565b634e487b7160e01b5f52604160045260245ffd5b600181811c908216806200032e57607f821691505b6020821081036200034d57634e487b7160e01b5f52602260045260245ffd5b50919050565b601f8211156200039e57805f5260205f20601f840160051c810160208510156200037a5750805b601f840160051c820191505b818110156200039b575f815560010162000386565b50505b505050565b81516001600160401b03811115620003bf57620003bf62000305565b620003d781620003d0845462000319565b8462000353565b602080601f8311600181146200040d575f8415620003f55750858301515b5f19600386901b1c1916600185901b17855562000467565b5f85815260208120601f198616915b828110156200043d578886015182559484019460019091019084016200041c565b50858210156200045b57878501515f19600388901b60f8161c191681555b505060018460011b0185555b505050505050565b808201808211156200048f57634e487b7160e01b5f52601160045260245ffd5b92915050565b61342280620004a35f395ff3fe608060405234801562000010575f80fd5b50600436106200014c575f3560e01c8063715018a611620000c3578063d0a5e51e1162000083578063d0a5e51e14620002d5578063d9f0bdd114620002df578063dd62ed3e14620002f6578063e7f6f2251462000331578063ea83cbf41462000345578063f2fde38b146200035c575f80fd5b8063715018a6146200026d5780638da5cb5b146200027757806395d89b41146200029d5780639dc29fac14620002a7578063a9059cbb14620002be575f80fd5b806323b872dd116200010f57806323b872dd14620001ed5780632850fa6f1462000204578063313ce567146200021b57806340c10f19146200022b57806370a082311462000242575f80fd5b806305ac59f1146200015057806306fdde031462000169578063095ea7b3146200018b57806309b77eef14620001b357806318160ddd14620001da575b5f80fd5b620001676200016136600462000c9c565b62000373565b005b620001736200039f565b60405162000182919062000d10565b60405180910390f35b620001a26200019c36600462000d24565b62000437565b604051901515815260200162000182565b620001ca620001c436600462000d4f565b62000452565b6040516200018292919062000d67565b6002545b60405190815260200162000182565b620001a2620001fe36600462000d94565b62000506565b620001676200021536600462000dd2565b6200052d565b6040516012815260200162000182565b620001676200023c36600462000d24565b62000547565b620001de6200025336600462000c9c565b6001600160a01b03165f9081526020819052604090205490565b620001676200055d565b6005546001600160a01b03165b6040516001600160a01b03909116815260200162000182565b6200017362000574565b62000167620002b836600462000d24565b62000585565b620001a2620002cf36600462000d24565b620005fa565b620001de60065481565b62000167620002f036600462000d24565b62000609565b620001de6200030736600462000e0f565b6001600160a01b039182165f90815260016020908152604080832093909416825291909152205490565b60075462000284906001600160a01b031681565b620001a26200035636600462000e59565b62000660565b620001676200036d36600462000c9c565b620007fd565b6200037d62000840565b600780546001600160a01b0319166001600160a01b0392909216919091179055565b606060038054620003b09062000f3a565b80601f0160208091040260200160405190810160405280929190818152602001828054620003de9062000f3a565b80156200042d5780601f1062000403576101008083540402835291602001916200042d565b820191905f5260205f20905b8154815290600101906020018083116200040f57829003601f168201915b5050505050905090565b5f33620004468185856200086f565b60019150505b92915050565b60096020525f9081526040902080546001820180546001600160a01b0390921692916200047f9062000f3a565b80601f0160208091040260200160405190810160405280929190818152602001828054620004ad9062000f3a565b8015620004fc5780601f10620004d257610100808354040283529160200191620004fc565b820191905f5260205f20905b815481529060010190602001808311620004de57829003601f168201915b5050505050905082565b5f336200051585828562000883565b6200052285858562000903565b506001949350505050565b6200053762000840565b62000543828262000966565b5050565b6200055162000840565b62000543828262000990565b6200056762000840565b620005725f620009c8565b565b606060048054620003b09062000f3a565b335f908152600a602052604090205460ff161515600114620005ee5760405162461bcd60e51b815260206004820152601c60248201527f796f7520617265206e6f7420617070726f76656420746f206275726e0000000060448201526064015b60405180910390fd5b62000543828262000a19565b5f336200044681858562000903565b6007546001600160a01b03163314620006545760405162461bcd60e51b815260206004820152600c60248201526b1b9bdd08185c1c1c9bdd995960a21b6044820152606401620005e5565b62000543828262000a51565b6007545f906001600160a01b03163314620006ad5760405162461bcd60e51b815260206004820152600c60248201526b1b9bdd08185c1c1c9bdd995960a21b6044820152606401620005e5565b6006545f90815260096020526040908190209051600890620006d190889062000f74565b9081526040519081900360200190205460ff1615620007205760405162461bcd60e51b815260206004820152600a6024820152693730b6b2903a30b5b2b760b11b6044820152606401620005e5565b600160088760405162000734919062000f74565b90815260200160405180910390205f6101000a81548160ff0219169083151502179055505f858786306040516200076b9062000c72565b6200077a949392919062000f91565b604051809103905ff08015801562000794573d5f803e3d5ffd5b5082546001600160a01b0319166001600160a01b038216178355905060018201620007c088826200101c565b50620007cd818562000a51565b60068054905f620007de83620010fd565b9190505550620007f081600162000966565b5060019695505050505050565b6200080762000840565b6001600160a01b0381166200083257604051631e4fbdf760e01b81525f6004820152602401620005e5565b6200083d81620009c8565b50565b6005546001600160a01b03163314620005725760405163118cdaa760e01b8152336004820152602401620005e5565b6200087e838383600162000a6b565b505050565b6001600160a01b038381165f908152600160209081526040808320938616835292905220545f198114620008fd5781811015620008ed57604051637dc7a0d960e11b81526001600160a01b03841660048201526024810182905260448101839052606401620005e5565b620008fd84848484035f62000a6b565b50505050565b6001600160a01b0383166200092e57604051634b637e8f60e11b81525f6004820152602401620005e5565b6001600160a01b038216620009595760405163ec442f0560e01b81525f6004820152602401620005e5565b6200087e83838362000b43565b6001600160a01b03919091165f908152600a60205260409020805460ff1916911515919091179055565b6001600160a01b038216620009bb5760405163ec442f0560e01b81525f6004820152602401620005e5565b620005435f838362000b43565b600580546001600160a01b038381166001600160a01b0319831681179093556040519116919082907f8be0079c531659141344cd1fd0a4f28419497f9722a3daafe3b4186f6b6457e0905f90a35050565b6001600160a01b03821662000a4457604051634b637e8f60e11b81525f6004820152602401620005e5565b62000543825f8362000b43565b62000a5e3033836200086f565b6200087e30838362000506565b6001600160a01b03841662000a965760405163e602df0560e01b81525f6004820152602401620005e5565b6001600160a01b03831662000ac157604051634a1406b160e11b81525f6004820152602401620005e5565b6001600160a01b038085165f9081526001602090815260408083209387168352929052208290558015620008fd57826001600160a01b0316846001600160a01b03167f8c5be1e5ebec7d5bd14f71427d1e84f3dd0314c0f7b2291e5b200ac8c7c3b9258460405162000b3591815260200190565b60405180910390a350505050565b6001600160a01b03831662000b71578060025f82825462000b65919062001118565b9091555062000be39050565b6001600160a01b0383165f908152602081905260409020548181101562000bc55760405163391434e360e21b81526001600160a01b03851660048201526024810182905260448101839052606401620005e5565b6001600160a01b0384165f9081526020819052604090209082900390555b6001600160a01b03821662000c015760028054829003905562000c1f565b6001600160a01b0382165f9081526020819052604090208054820190555b816001600160a01b0316836001600160a01b03167fddf252ad1be2c89b69c2b068fc378daa952ba7f163c4a11628f55a4df523b3ef8360405162000c6591815260200190565b60405180910390a3505050565b6122be806200112f83390190565b80356001600160a01b038116811462000c97575f80fd5b919050565b5f6020828403121562000cad575f80fd5b62000cb88262000c80565b9392505050565b5f5b8381101562000cdb57818101518382015260200162000cc1565b50505f910152565b5f815180845262000cfc81602086016020860162000cbf565b601f01601f19169290920160200192915050565b602081525f62000cb8602083018462000ce3565b5f806040838503121562000d36575f80fd5b62000d418362000c80565b946020939093013593505050565b5f6020828403121562000d60575f80fd5b5035919050565b6001600160a01b03831681526040602082018190525f9062000d8c9083018462000ce3565b949350505050565b5f805f6060848603121562000da7575f80fd5b62000db28462000c80565b925062000dc26020850162000c80565b9150604084013590509250925092565b5f806040838503121562000de4575f80fd5b62000def8362000c80565b91506020830135801515811462000e04575f80fd5b809150509250929050565b5f806040838503121562000e21575f80fd5b62000e2c8362000c80565b915062000e3c6020840162000c80565b90509250929050565b634e487b7160e01b5f52604160045260245ffd5b5f805f806080858703121562000e6d575f80fd5b843567ffffffffffffffff8082111562000e85575f80fd5b818701915087601f83011262000e99575f80fd5b81358181111562000eae5762000eae62000e45565b604051601f8201601f19908116603f0116810190838211818310171562000ed95762000ed962000e45565b816040528281528a602084870101111562000ef2575f80fd5b826020860160208301375f60208483010152809850505050505062000f1a6020860162000c80565b925062000f2a6040860162000c80565b9396929550929360600135925050565b600181811c9082168062000f4f57607f821691505b60208210810362000f6e57634e487b7160e01b5f52602260045260245ffd5b50919050565b5f825162000f8781846020870162000cbf565b9190910192915050565b5f60018060a01b0380871683526080602084015262000fb4608084018762000ce3565b9481166040840152929092166060909101525092915050565b601f8211156200087e57805f5260205f20601f840160051c8101602085101562000ff45750805b601f840160051c820191505b8181101562001015575f815560010162001000565b5050505050565b815167ffffffffffffffff81111562001039576200103962000e45565b62001051816200104a845462000f3a565b8462000fcd565b602080601f83116001811462001087575f84156200106f5750858301515b5f19600386901b1c1916600185901b178555620010e1565b5f85815260208120601f198616915b82811015620010b75788860151825594840194600190910190840162001096565b5085821015620010d557878501515f19600388901b60f8161c191681555b505060018460011b0185555b505050505050565b634e487b7160e01b5f52601160045260245ffd5b5f60018201620011115762001111620010e9565b5060010190565b808201808211156200044c576200044c620010e956fe61016060405234801562000011575f80fd5b50604051620022be380380620022be833981016040819052620000349162000360565b6040805180820190915260018152603160f81b60208201528390856001600160a01b0381166200007e57604051631e4fbdf760e01b81525f60048201526024015b60405180910390fd5b620000898162000243565b506200009782600162000292565b61012052620000a881600262000292565b61014052815160208084019190912060e052815190820120610100524660a0526200013560e05161010051604080517f8b73c3c69bb8fe3d512ecc4cf759cc79239f7b179b0ffacaa9a75d522b39400f60208201529081019290925260608201524660808201523060a08201525f9060c00160405160208183030381529060405280519060200120905090565b60805250503060c052600e6200014c8482620004d7565b50600a600755611388600855600380546001600160a01b038085166001600160a01b0319928316811790935560058054831690931790925560048054928416928216831781556006805490921683179091556040805163313ce56760e01b8152905163313ce567928281019260209291908290030181865afa158015620001d5573d5f803e3d5ffd5b505050506040513d601f19601f82011682018060405250810190620001fb9190620005a3565b6200020890600a620006d9565b6200021690612710620006e9565b600a555050600f80546001600160a01b0319166001600160a01b039390931692909217909155506200075b565b5f80546001600160a01b038381166001600160a01b0319831681178455604051919092169283917f8be0079c531659141344cd1fd0a4f28419497f9722a3daafe3b4186f6b6457e09190a35050565b5f602083511015620002b157620002a983620002ca565b9050620002c4565b81620002be8482620004d7565b5060ff90505b92915050565b5f80829050601f81511115620002f7578260405163305a27a960e01b815260040162000075919062000703565b8051620003048262000737565b179392505050565b80516001600160a01b038116811462000323575f80fd5b919050565b634e487b7160e01b5f52604160045260245ffd5b5f5b83811015620003585781810151838201526020016200033e565b50505f910152565b5f805f806080858703121562000374575f80fd5b6200037f856200030c565b60208601519094506001600160401b03808211156200039c575f80fd5b818701915087601f830112620003b0575f80fd5b815181811115620003c557620003c562000328565b604051601f8201601f19908116603f01168101908382118183101715620003f057620003f062000328565b816040528281528a602084870101111562000409575f80fd5b6200041c8360208301602088016200033c565b809750505050505062000432604086016200030c565b915062000442606086016200030c565b905092959194509250565b600181811c908216806200046257607f821691505b6020821081036200048157634e487b7160e01b5f52602260045260245ffd5b50919050565b601f821115620004d257805f5260205f20601f840160051c81016020851015620004ae5750805b601f840160051c820191505b81811015620004cf575f8155600101620004ba565b50505b505050565b81516001600160401b03811115620004f357620004f362000328565b6200050b816200050484546200044d565b8462000487565b602080601f83116001811462000541575f8415620005295750858301515b5f19600386901b1c1916600185901b1785556200059b565b5f85815260208120601f198616915b82811015620005715788860151825594840194600190910190840162000550565b50858210156200058f57878501515f19600388901b60f8161c191681555b505060018460011b0185555b505050505050565b5f60208284031215620005b4575f80fd5b815160ff81168114620005c5575f80fd5b9392505050565b634e487b7160e01b5f52601160045260245ffd5b600181815b808511156200062057815f1904821115620006045762000604620005cc565b808516156200061257918102915b93841c9390800290620005e5565b509250929050565b5f826200063857506001620002c4565b816200064657505f620002c4565b81600181146200065f57600281146200066a576200068a565b6001915050620002c4565b60ff8411156200067e576200067e620005cc565b50506001821b620002c4565b5060208310610133831016604e8410600b8410161715620006af575081810a620002c4565b620006bb8383620005e0565b805f1904821115620006d157620006d1620005cc565b029392505050565b5f620005c560ff84168362000628565b8082028115828204841417620002c457620002c4620005cc565b602081525f8251806020840152620007238160408501602087016200033c565b601f01601f19169190910160400192915050565b8051602080830151919081101562000481575f1960209190910360031b1b16919050565b60805160a05160c05160e051610100516101205161014051611b11620007ad5f395f6111b901525f61118c01525f610ec701525f610e9f01525f610dfa01525f610e2401525f610e4e0152611b115ff3fe608060405234801561000f575f80fd5b50600436106101a1575f3560e01c806376ee947f116100f3578063c4a9e85811610093578063f2fde38b1161006e578063f2fde38b14610349578063f851a4401461035c578063f9c3a1e81461036f578063fd91871614610382575f80fd5b8063c4a9e85814610324578063e1fefd421461032d578063e63ea40814610336575f80fd5b80638da5cb5b116100ce5780638da5cb5b146102c75780639683cdc4146102eb578063ac1e5025146102fe578063c08e728614610311575f80fd5b806376ee947f1461029057806384b0196e146102a35780638bc7e8c4146102be575f80fd5b806334fcf4371161015e57806367a527931161013957806367a52793146102595780636b4c078914610262578063704b6c0214610275578063715018a614610288575f80fd5b806334fcf4371461022b5780633644e5151461023e5780636313c6d814610246575f80fd5b806306e0e582146101a55780630ace9ca0146101c15780630d461e61146101d6578063252de51b146101e9578063258ba1ee1461020d5780632c4e722e14610222575b5f80fd5b6101ae600b5481565b6040519081526020015b60405180910390f35b6101c961038b565b6040516101b891906116a8565b6101ae6101e43660046116ba565b610417565b600f546101fd90600160a01b900460ff1681565b60405190151581526020016101b8565b61022061021b3660046116ec565b61053e565b005b6101ae60085481565b6102206102393660046116ba565b61058e565b6101ae61059b565b61022061025436600461172b565b6105a9565b6101ae60075481565b61022061027036600461178e565b6106f4565b6102206102833660046117a9565b61071a565b610220610744565b61022061029e3660046116ba565b610757565b6102ab610764565b6040516101b897969594939291906117c2565b6101ae60095481565b5f546001600160a01b03165b6040516001600160a01b0390911681526020016101b8565b6102206102f93660046117a9565b6107a6565b61022061030c3660046116ba565b610918565b61022061031f3660046116ba565b610925565b6101ae600d5481565b6101ae600a5481565b610220610344366004611859565b6109b1565b6102206103573660046117a9565b610abc565b600f546102d3906001600160a01b031681565b61022061037d36600461172b565b610af9565b6101ae600c5481565b600e805461039890611892565b80601f01602080910402602001604051908101604052809291908181526020018280546103c490611892565b801561040f5780601f106103e65761010080835404028352916020019161040f565b820191905f5260205f20905b8154815290600101906020018083116103f257829003601f168201915b505050505081565b600480546040805163313ce56760e01b815290515f9384936001600160a01b03169263313ce56792818301926020928290030181865afa15801561045d573d5f803e3d5ffd5b505050506040513d601f19601f8201168201806040525081019061048191906118ca565b61048c90600a6119d9565b60085461049991906119e7565b60035f9054906101000a90046001600160a01b03166001600160a01b031663313ce5676040518163ffffffff1660e01b8152600401602060405180830381865afa1580156104e9573d5f803e3d5ffd5b505050506040513d601f19601f8201168201806040525081019061050d91906118ca565b61051890600a6119d9565b6105238560016119e7565b61052d91906119e7565b61053791906119fe565b9392505050565b610546610dc2565b600380546001600160a01b039384166001600160a01b031991821681179092556005805482169092179091556004805492909316918116821790925560068054909216179055565b610596610dc2565b600855565b5f6105a4610dee565b905090565b6001600160a01b0386166105d85760405162461bcd60e51b81526004016105cf90611a1d565b60405180910390fd5b6105e6868686868686610f17565b600f54600160a01b900460ff16156106335760405162461bcd60e51b815260206004820152601060248201526f18dbdb9d1c9858dd08199c99595e995960821b60448201526064016105cf565b600a548510156106915760405162461bcd60e51b815260206004820152602360248201527f706f696e747320746f20636c61696d206c657373207468616e206d696e706f696044820152626e747360e81b60648201526084016105cf565b6006546106a8906001600160a01b031687876110df565b42866001600160a01b03167fd8fb6dbeaadff1d38bb96624ec3bd037611260d2b198d0f78cc1f0955563e756876040516106e491815260200190565b60405180910390a3505050505050565b6106fc610dc2565b600f8054911515600160a01b0260ff60a01b19909216919091179055565b610722610dc2565b600f80546001600160a01b0319166001600160a01b0392909216919091179055565b61074c610dc2565b6107555f611136565b565b61075f610dc2565b600755565b5f6060805f805f6060610775611185565b61077d6111b2565b604080515f80825260208201909252600f60f81b9b939a50919850469750309650945092509050565b6107ae610dc2565b6001600160a01b0381166107d45760405162461bcd60e51b81526004016105cf90611a1d565b6003546040516370a0823160e01b81523060048201525f916001600160a01b0316906370a0823190602401602060405180830381865afa15801561081a573d5f803e3d5ffd5b505050506040513d601f19601f8201168201806040525081019061083e9190611a54565b90505f600b54600d54600c54846108559190611a6b565b61085f9190611a6b565b6108699190611a7e565b905080600b5f82825461087c9190611a6b565b90915550506007545f9060649061089390846119e7565b61089d91906119fe565b90505f81116108e55760405162461bcd60e51b81526020600482015260146024820152731b9bc81b995dc819195c1bdcda5d08185919195960621b60448201526064016105cf565b80600d5f8282546108f69190611a6b565b9091555050600554610912906001600160a01b031685836110df565b50505050565b610920610dc2565b600955565b61092d610dc2565b600480546040805163313ce56760e01b815290516001600160a01b039092169263313ce5679282820192602092908290030181865afa158015610972573d5f803e3d5ffd5b505050506040513d601f19601f8201168201806040525081019061099691906118ca565b6109a190600a6119d9565b6109ab90826119e7565b600a5550565b6109b9610dc2565b6001600160a01b0383166109df5760405162461bcd60e51b81526004016105cf90611a1d565b6001600160a01b038216610a055760405162461bcd60e51b81526004016105cf90611a1d565b5f8111610a4c5760405162461bcd60e51b815260206004820152601560248201527418d85b9d081cd95b99081e995c9bc8185b5bdd5b9d605a1b60448201526064016105cf565b60405163a9059cbb60e01b81526001600160a01b0383811660048301526024820183905284169063a9059cbb906044016020604051808303815f875af1158015610a98573d5f803e3d5ffd5b505050506040513d601f19601f820116820180604052508101906109129190611a91565b610ac4610dc2565b6001600160a01b038116610aed57604051631e4fbdf760e01b81525f60048201526024016105cf565b610af681611136565b50565b6001600160a01b038616610b1f5760405162461bcd60e51b81526004016105cf90611a1d565b610b2d868686868686610f17565b600f54600160a01b900460ff1615610b7a5760405162461bcd60e51b815260206004820152601060248201526f18dbdb9d1c9858dd08199c99595e995960821b60448201526064016105cf565b600480546040516370a0823160e01b81526001600160a01b03898116938201939093528792909116906370a0823190602401602060405180830381865afa158015610bc7573d5f803e3d5ffd5b505050506040513d601f19601f82011682018060405250810190610beb9190611a54565b1015610c2d5760405162461bcd60e51b81526020600482015260116024820152706e6f7420656e6f75676820706f696e747360781b60448201526064016105cf565b600a54851015610c8a5760405162461bcd60e51b815260206004820152602260248201527f706f696e747320746f2073776170206c657373207468616e206d696e706f696e604482015261747360f01b60648201526084016105cf565b5f610c9486610417565b905080600c5f828254610ca79190611a6b565b90915550506009545f90606490610cbe90846119e7565b610cc891906119fe565b90505f610cd58284611a7e565b60048054604051632770a7eb60e21b81526001600160a01b038d811693820193909352602481018c90529293501690639dc29fac906044015f604051808303815f87803b158015610d24575f80fd5b505af1158015610d36573d5f803e3d5ffd5b5050600554610d5292506001600160a01b031690508a836110df565b600554610d69906001600160a01b031633846110df565b604080518981526020810183905290810183905242906001600160a01b038b16907f9a5f60e59cc27a7c25a7f78275c910454cd9adacb21cecff527c98ed63e028779060600160405180910390a3505050505050505050565b5f546001600160a01b031633146107555760405163118cdaa760e01b81523360048201526024016105cf565b5f306001600160a01b037f000000000000000000000000000000000000000000000000000000000000000016148015610e4657507f000000000000000000000000000000000000000000000000000000000000000046145b15610e7057507f000000000000000000000000000000000000000000000000000000000000000090565b6105a4604080517f8b73c3c69bb8fe3d512ecc4cf759cc79239f7b179b0ffacaa9a75d522b39400f60208201527f0000000000000000000000000000000000000000000000000000000000000000918101919091527f000000000000000000000000000000000000000000000000000000000000000060608201524660808201523060a08201525f9060c00160405160208183030381529060405280519060200120905090565b60ff8084165f90815260106020526040902054161580610f4557505f8281526011602052604090205460ff16155b80610f5e57505f8181526012602052604090205460ff16155b610f955760405162461bcd60e51b81526020600482015260086024820152671cda59c81d5cd95960c21b60448201526064016105cf565b83421115610fb95760405163313c898160e11b8152600481018590526024016105cf565b600f54604080517f05619a74ecd0240afc3bfb1df2bd1319401220fb577809c3a09bf0ab809ac86160208201526001600160a01b039283169181019190915290871660608201526080810186905260a081018590525f9060c0016040516020818303038152906040528051906020012090505f611035826111df565b90505f61104482878787611211565b600f549091506001600160a01b0380831691161461108c57600f546040516325c0072360e11b81526001600160a01b03808416600483015290911660248201526044016105cf565b50505060ff9092165f908152601060209081526040808320805460ff1990811660019081179092559484526011835281842080548616821790559483526012909152902080549091169091179055505050565b604080516001600160a01b038416602482015260448082018490528251808303909101815260649091019091526020810180516001600160e01b031663a9059cbb60e01b17905261113190849061123d565b505050565b5f80546001600160a01b038381166001600160a01b0319831681178455604051919092169283917f8be0079c531659141344cd1fd0a4f28419497f9722a3daafe3b4186f6b6457e09190a35050565b60606105a47f0000000000000000000000000000000000000000000000000000000000000000600161129e565b60606105a47f0000000000000000000000000000000000000000000000000000000000000000600261129e565b5f61120b6111eb610dee565b8360405161190160f01b8152600281019290925260228201526042902090565b92915050565b5f805f8061122188888888611348565b9250925092506112318282611410565b50909695505050505050565b5f6112516001600160a01b038416836114cc565b905080515f141580156112755750808060200190518101906112739190611a91565b155b1561113157604051635274afe760e01b81526001600160a01b03841660048201526024016105cf565b606060ff83146112b8576112b1836114d9565b905061120b565b8180546112c490611892565b80601f01602080910402602001604051908101604052809291908181526020018280546112f090611892565b801561133b5780601f106113125761010080835404028352916020019161133b565b820191905f5260205f20905b81548152906001019060200180831161131e57829003601f168201915b5050505050905092915050565b5f80807f7fffffffffffffffffffffffffffffff5d576e7357a4501ddfe92f46681b20a084111561138157505f91506003905082611406565b604080515f808252602082018084528a905260ff891692820192909252606081018790526080810186905260019060a0016020604051602081039080840390855afa1580156113d2573d5f803e3d5ffd5b5050604051601f1901519150506001600160a01b0381166113fd57505f925060019150829050611406565b92505f91508190505b9450945094915050565b5f82600381111561142357611423611aac565b0361142c575050565b600182600381111561144057611440611aac565b0361145e5760405163f645eedf60e01b815260040160405180910390fd5b600282600381111561147257611472611aac565b036114935760405163fce698f760e01b8152600481018290526024016105cf565b60038260038111156114a7576114a7611aac565b036114c8576040516335e2f38360e21b8152600481018290526024016105cf565b5050565b606061053783835f611516565b60605f6114e5836115af565b6040805160208082528183019092529192505f91906020820181803683375050509182525060208101929092525090565b60608147101561153b5760405163cd78605960e01b81523060048201526024016105cf565b5f80856001600160a01b031684866040516115569190611ac0565b5f6040518083038185875af1925050503d805f8114611590576040519150601f19603f3d011682016040523d82523d5f602084013e611595565b606091505b50915091506115a58683836115d6565b9695505050505050565b5f60ff8216601f81111561120b57604051632cd44ac360e21b815260040160405180910390fd5b6060826115eb576115e682611632565b610537565b815115801561160257506001600160a01b0384163b155b1561162b57604051639996b31560e01b81526001600160a01b03851660048201526024016105cf565b5080610537565b8051156116425780518082602001fd5b604051630a12f52160e11b815260040160405180910390fd5b5f5b8381101561167557818101518382015260200161165d565b50505f910152565b5f815180845261169481602086016020860161165b565b601f01601f19169290920160200192915050565b602081525f610537602083018461167d565b5f602082840312156116ca575f80fd5b5035919050565b80356001600160a01b03811681146116e7575f80fd5b919050565b5f80604083850312156116fd575f80fd5b611706836116d1565b9150611714602084016116d1565b90509250929050565b60ff81168114610af6575f80fd5b5f805f805f8060c08789031215611740575f80fd5b611749876116d1565b9550602087013594506040870135935060608701356117678161171d565b9598949750929560808101359460a0909101359350915050565b8015158114610af6575f80fd5b5f6020828403121561179e575f80fd5b813561053781611781565b5f602082840312156117b9575f80fd5b610537826116d1565b60ff60f81b881681525f602060e060208401526117e260e084018a61167d565b83810360408501526117f4818a61167d565b606085018990526001600160a01b038816608086015260a0850187905284810360c0860152855180825260208088019350909101905f5b818110156118475783518352928401929184019160010161182b565b50909c9b505050505050505050505050565b5f805f6060848603121561186b575f80fd5b611874846116d1565b9250611882602085016116d1565b9150604084013590509250925092565b600181811c908216806118a657607f821691505b6020821081036118c457634e487b7160e01b5f52602260045260245ffd5b50919050565b5f602082840312156118da575f80fd5b81516105378161171d565b634e487b7160e01b5f52601160045260245ffd5b600181815b8085111561193357815f1904821115611919576119196118e5565b8085161561192657918102915b93841c93908002906118fe565b509250929050565b5f826119495750600161120b565b8161195557505f61120b565b816001811461196b576002811461197557611991565b600191505061120b565b60ff841115611986576119866118e5565b50506001821b61120b565b5060208310610133831016604e8410600b84101617156119b4575081810a61120b565b6119be83836118f9565b805f19048211156119d1576119d16118e5565b029392505050565b5f61053760ff84168361193b565b808202811582820484141761120b5761120b6118e5565b5f82611a1857634e487b7160e01b5f52601260045260245ffd5b500490565b6020808252601f908201527f796f75206172652073656e64696e6720746f207a65726f206164647265737300604082015260600190565b5f60208284031215611a64575f80fd5b5051919050565b8082018082111561120b5761120b6118e5565b8181038181111561120b5761120b6118e5565b5f60208284031215611aa1575f80fd5b815161053781611781565b634e487b7160e01b5f52602160045260245ffd5b5f8251611ad181846020870161165b565b919091019291505056fea2646970667358221220d913f9c0904da8096a2643bda76507f4e1c800f38cb8b3510490a12c3028af9a64736f6c63430008160033a2646970667358221220f2fdae2acd830c4bbf8afc779a98620253a532f92e1e79097153c012f25a4aae64736f6c63430008160033",
			"opcodes": "PUSH1 0x80 PUSH1 0x40 MSTORE PUSH1 0x1 PUSH1 0x6 SSTORE CALLVALUE DUP1 ISZERO PUSH3 0x15 JUMPI PUSH0 DUP1 REVERT JUMPDEST POP PUSH1 0x40 MLOAD PUSH3 0x38C5 CODESIZE SUB DUP1 PUSH3 0x38C5 DUP4 CODECOPY DUP2 ADD PUSH1 0x40 DUP2 SWAP1 MSTORE PUSH3 0x38 SWAP2 PUSH3 0x2D6 JUMP JUMPDEST PUSH1 0x40 DUP1 MLOAD DUP1 DUP3 ADD DUP3 MSTORE PUSH1 0x6 DUP1 DUP3 MSTORE PUSH6 0x2934B13137B7 PUSH1 0xD1 SHL PUSH1 0x20 DUP1 DUP5 ADD DUP3 SWAP1 MSTORE DUP5 MLOAD DUP1 DUP7 ADD SWAP1 SWAP6 MSTORE SWAP2 DUP5 MSTORE SWAP1 DUP4 ADD MSTORE CALLER SWAP2 PUSH1 0x3 PUSH3 0x77 DUP4 DUP3 PUSH3 0x3A3 JUMP JUMPDEST POP PUSH1 0x4 PUSH3 0x86 DUP3 DUP3 PUSH3 0x3A3 JUMP JUMPDEST POP POP POP PUSH1 0x1 PUSH1 0x1 PUSH1 0xA0 SHL SUB DUP2 AND PUSH3 0xB8 JUMPI PUSH1 0x40 MLOAD PUSH4 0x1E4FBDF7 PUSH1 0xE0 SHL DUP2 MSTORE PUSH0 PUSH1 0x4 DUP3 ADD MSTORE PUSH1 0x24 ADD JUMPDEST PUSH1 0x40 MLOAD DUP1 SWAP2 SUB SWAP1 REVERT JUMPDEST PUSH3 0xC3 DUP2 PUSH3 0x11A JUMP JUMPDEST POP PUSH3 0xDC CALLER PUSH12 0x1363156BBEE3016D70000000 PUSH3 0x16B JUMP JUMPDEST PUSH3 0xF4 ADDRESS PUSH12 0xCECB8F27F4200F3A0000000 PUSH3 0x16B JUMP JUMPDEST PUSH1 0x7 DUP1 SLOAD PUSH1 0x1 PUSH1 0x1 PUSH1 0xA0 SHL SUB NOT AND PUSH1 0x1 PUSH1 0x1 PUSH1 0xA0 SHL SUB SWAP3 SWAP1 SWAP3 AND SWAP2 SWAP1 SWAP2 OR SWAP1 SSTORE PUSH3 0x495 JUMP JUMPDEST PUSH1 0x5 DUP1 SLOAD PUSH1 0x1 PUSH1 0x1 PUSH1 0xA0 SHL SUB DUP4 DUP2 AND PUSH1 0x1 PUSH1 0x1 PUSH1 0xA0 SHL SUB NOT DUP4 AND DUP2 OR SWAP1 SWAP4 SSTORE PUSH1 0x40 MLOAD SWAP2 AND SWAP2 SWAP1 DUP3 SWAP1 PUSH32 0x8BE0079C531659141344CD1FD0A4F28419497F9722A3DAAFE3B4186F6B6457E0 SWAP1 PUSH0 SWAP1 LOG3 POP POP JUMP JUMPDEST PUSH1 0x1 PUSH1 0x1 PUSH1 0xA0 SHL SUB DUP3 AND PUSH3 0x196 JUMPI PUSH1 0x40 MLOAD PUSH4 0xEC442F05 PUSH1 0xE0 SHL DUP2 MSTORE PUSH0 PUSH1 0x4 DUP3 ADD MSTORE PUSH1 0x24 ADD PUSH3 0xAF JUMP JUMPDEST PUSH3 0x1A3 PUSH0 DUP4 DUP4 PUSH3 0x1A7 JUMP JUMPDEST POP POP JUMP JUMPDEST PUSH1 0x1 PUSH1 0x1 PUSH1 0xA0 SHL SUB DUP4 AND PUSH3 0x1D5 JUMPI DUP1 PUSH1 0x2 PUSH0 DUP3 DUP3 SLOAD PUSH3 0x1C9 SWAP2 SWAP1 PUSH3 0x46F JUMP JUMPDEST SWAP1 SWAP2 SSTORE POP PUSH3 0x247 SWAP1 POP JUMP JUMPDEST PUSH1 0x1 PUSH1 0x1 PUSH1 0xA0 SHL SUB DUP4 AND PUSH0 SWAP1 DUP2 MSTORE PUSH1 0x20 DUP2 SWAP1 MSTORE PUSH1 0x40 SWAP1 KECCAK256 SLOAD DUP2 DUP2 LT ISZERO PUSH3 0x229 JUMPI PUSH1 0x40 MLOAD PUSH4 0x391434E3 PUSH1 0xE2 SHL DUP2 MSTORE PUSH1 0x1 PUSH1 0x1 PUSH1 0xA0 SHL SUB DUP6 AND PUSH1 0x4 DUP3 ADD MSTORE PUSH1 0x24 DUP2 ADD DUP3 SWAP1 MSTORE PUSH1 0x44 DUP2 ADD DUP4 SWAP1 MSTORE PUSH1 0x64 ADD PUSH3 0xAF JUMP JUMPDEST PUSH1 0x1 PUSH1 0x1 PUSH1 0xA0 SHL SUB DUP5 AND PUSH0 SWAP1 DUP2 MSTORE PUSH1 0x20 DUP2 SWAP1 MSTORE PUSH1 0x40 SWAP1 KECCAK256 SWAP1 DUP3 SWAP1 SUB SWAP1 SSTORE JUMPDEST PUSH1 0x1 PUSH1 0x1 PUSH1 0xA0 SHL SUB DUP3 AND PUSH3 0x265 JUMPI PUSH1 0x2 DUP1 SLOAD DUP3 SWAP1 SUB SWAP1 SSTORE PUSH3 0x283 JUMP JUMPDEST PUSH1 0x1 PUSH1 0x1 PUSH1 0xA0 SHL SUB DUP3 AND PUSH0 SWAP1 DUP2 MSTORE PUSH1 0x20 DUP2 SWAP1 MSTORE PUSH1 0x40 SWAP1 KECCAK256 DUP1 SLOAD DUP3 ADD SWAP1 SSTORE JUMPDEST DUP2 PUSH1 0x1 PUSH1 0x1 PUSH1 0xA0 SHL SUB AND DUP4 PUSH1 0x1 PUSH1 0x1 PUSH1 0xA0 SHL SUB AND PUSH32 0xDDF252AD1BE2C89B69C2B068FC378DAA952BA7F163C4A11628F55A4DF523B3EF DUP4 PUSH1 0x40 MLOAD PUSH3 0x2C9 SWAP2 DUP2 MSTORE PUSH1 0x20 ADD SWAP1 JUMP JUMPDEST PUSH1 0x40 MLOAD DUP1 SWAP2 SUB SWAP1 LOG3 POP POP POP JUMP JUMPDEST PUSH0 PUSH1 0x20 DUP3 DUP5 SUB SLT ISZERO PUSH3 0x2E7 JUMPI PUSH0 DUP1 REVERT JUMPDEST DUP2 MLOAD PUSH1 0x1 PUSH1 0x1 PUSH1 0xA0 SHL SUB DUP2 AND DUP2 EQ PUSH3 0x2FE JUMPI PUSH0 DUP1 REVERT JUMPDEST SWAP4 SWAP3 POP POP POP JUMP JUMPDEST PUSH4 0x4E487B71 PUSH1 0xE0 SHL PUSH0 MSTORE PUSH1 0x41 PUSH1 0x4 MSTORE PUSH1 0x24 PUSH0 REVERT JUMPDEST PUSH1 0x1 DUP2 DUP2 SHR SWAP1 DUP3 AND DUP1 PUSH3 0x32E JUMPI PUSH1 0x7F DUP3 AND SWAP2 POP JUMPDEST PUSH1 0x20 DUP3 LT DUP2 SUB PUSH3 0x34D JUMPI PUSH4 0x4E487B71 PUSH1 0xE0 SHL PUSH0 MSTORE PUSH1 0x22 PUSH1 0x4 MSTORE PUSH1 0x24 PUSH0 REVERT JUMPDEST POP SWAP2 SWAP1 POP JUMP JUMPDEST PUSH1 0x1F DUP3 GT ISZERO PUSH3 0x39E JUMPI DUP1 PUSH0 MSTORE PUSH1 0x20 PUSH0 KECCAK256 PUSH1 0x1F DUP5 ADD PUSH1 0x5 SHR DUP2 ADD PUSH1 0x20 DUP6 LT ISZERO PUSH3 0x37A JUMPI POP DUP1 JUMPDEST PUSH1 0x1F DUP5 ADD PUSH1 0x5 SHR DUP3 ADD SWAP2 POP JUMPDEST DUP2 DUP2 LT ISZERO PUSH3 0x39B JUMPI PUSH0 DUP2 SSTORE PUSH1 0x1 ADD PUSH3 0x386 JUMP JUMPDEST POP POP JUMPDEST POP POP POP JUMP JUMPDEST DUP2 MLOAD PUSH1 0x1 PUSH1 0x1 PUSH1 0x40 SHL SUB DUP2 GT ISZERO PUSH3 0x3BF JUMPI PUSH3 0x3BF PUSH3 0x305 JUMP JUMPDEST PUSH3 0x3D7 DUP2 PUSH3 0x3D0 DUP5 SLOAD PUSH3 0x319 JUMP JUMPDEST DUP5 PUSH3 0x353 JUMP JUMPDEST PUSH1 0x20 DUP1 PUSH1 0x1F DUP4 GT PUSH1 0x1 DUP2 EQ PUSH3 0x40D JUMPI PUSH0 DUP5 ISZERO PUSH3 0x3F5 JUMPI POP DUP6 DUP4 ADD MLOAD JUMPDEST PUSH0 NOT PUSH1 0x3 DUP7 SWAP1 SHL SHR NOT AND PUSH1 0x1 DUP6 SWAP1 SHL OR DUP6 SSTORE PUSH3 0x467 JUMP JUMPDEST PUSH0 DUP6 DUP2 MSTORE PUSH1 0x20 DUP2 KECCAK256 PUSH1 0x1F NOT DUP7 AND SWAP2 JUMPDEST DUP3 DUP2 LT ISZERO PUSH3 0x43D JUMPI DUP9 DUP7 ADD MLOAD DUP3 SSTORE SWAP5 DUP5 ADD SWAP5 PUSH1 0x1 SWAP1 SWAP2 ADD SWAP1 DUP5 ADD PUSH3 0x41C JUMP JUMPDEST POP DUP6 DUP3 LT ISZERO PUSH3 0x45B JUMPI DUP8 DUP6 ADD MLOAD PUSH0 NOT PUSH1 0x3 DUP9 SWAP1 SHL PUSH1 0xF8 AND SHR NOT AND DUP2 SSTORE JUMPDEST POP POP PUSH1 0x1 DUP5 PUSH1 0x1 SHL ADD DUP6 SSTORE JUMPDEST POP POP POP POP POP POP JUMP JUMPDEST DUP1 DUP3 ADD DUP1 DUP3 GT ISZERO PUSH3 0x48F JUMPI PUSH4 0x4E487B71 PUSH1 0xE0 SHL PUSH0 MSTORE PUSH1 0x11 PUSH1 0x4 MSTORE PUSH1 0x24 PUSH0 REVERT JUMPDEST SWAP3 SWAP2 POP POP JUMP JUMPDEST PUSH2 0x3422 DUP1 PUSH3 0x4A3 PUSH0 CODECOPY PUSH0 RETURN INVALID PUSH1 0x80 PUSH1 0x40 MSTORE CALLVALUE DUP1 ISZERO PUSH3 0x10 JUMPI PUSH0 DUP1 REVERT JUMPDEST POP PUSH1 0x4 CALLDATASIZE LT PUSH3 0x14C JUMPI PUSH0 CALLDATALOAD PUSH1 0xE0 SHR DUP1 PUSH4 0x715018A6 GT PUSH3 0xC3 JUMPI DUP1 PUSH4 0xD0A5E51E GT PUSH3 0x83 JUMPI DUP1 PUSH4 0xD0A5E51E EQ PUSH3 0x2D5 JUMPI DUP1 PUSH4 0xD9F0BDD1 EQ PUSH3 0x2DF JUMPI DUP1 PUSH4 0xDD62ED3E EQ PUSH3 0x2F6 JUMPI DUP1 PUSH4 0xE7F6F225 EQ PUSH3 0x331 JUMPI DUP1 PUSH4 0xEA83CBF4 EQ PUSH3 0x345 JUMPI DUP1 PUSH4 0xF2FDE38B EQ PUSH3 0x35C JUMPI PUSH0 DUP1 REVERT JUMPDEST DUP1 PUSH4 0x715018A6 EQ PUSH3 0x26D JUMPI DUP1 PUSH4 0x8DA5CB5B EQ PUSH3 0x277 JUMPI DUP1 PUSH4 0x95D89B41 EQ PUSH3 0x29D JUMPI DUP1 PUSH4 0x9DC29FAC EQ PUSH3 0x2A7 JUMPI DUP1 PUSH4 0xA9059CBB EQ PUSH3 0x2BE JUMPI PUSH0 DUP1 REVERT JUMPDEST DUP1 PUSH4 0x23B872DD GT PUSH3 0x10F JUMPI DUP1 PUSH4 0x23B872DD EQ PUSH3 0x1ED JUMPI DUP1 PUSH4 0x2850FA6F EQ PUSH3 0x204 JUMPI DUP1 PUSH4 0x313CE567 EQ PUSH3 0x21B JUMPI DUP1 PUSH4 0x40C10F19 EQ PUSH3 0x22B JUMPI DUP1 PUSH4 0x70A08231 EQ PUSH3 0x242 JUMPI PUSH0 DUP1 REVERT JUMPDEST DUP1 PUSH4 0x5AC59F1 EQ PUSH3 0x150 JUMPI DUP1 PUSH4 0x6FDDE03 EQ PUSH3 0x169 JUMPI DUP1 PUSH4 0x95EA7B3 EQ PUSH3 0x18B JUMPI DUP1 PUSH4 0x9B77EEF EQ PUSH3 0x1B3 JUMPI DUP1 PUSH4 0x18160DDD EQ PUSH3 0x1DA JUMPI JUMPDEST PUSH0 DUP1 REVERT JUMPDEST PUSH3 0x167 PUSH3 0x161 CALLDATASIZE PUSH1 0x4 PUSH3 0xC9C JUMP JUMPDEST PUSH3 0x373 JUMP JUMPDEST STOP JUMPDEST PUSH3 0x173 PUSH3 0x39F JUMP JUMPDEST PUSH1 0x40 MLOAD PUSH3 0x182 SWAP2 SWAP1 PUSH3 0xD10 JUMP JUMPDEST PUSH1 0x40 MLOAD DUP1 SWAP2 SUB SWAP1 RETURN JUMPDEST PUSH3 0x1A2 PUSH3 0x19C CALLDATASIZE PUSH1 0x4 PUSH3 0xD24 JUMP JUMPDEST PUSH3 0x437 JUMP JUMPDEST PUSH1 0x40 MLOAD SWAP1 ISZERO ISZERO DUP2 MSTORE PUSH1 0x20 ADD PUSH3 0x182 JUMP JUMPDEST PUSH3 0x1CA PUSH3 0x1C4 CALLDATASIZE PUSH1 0x4 PUSH3 0xD4F JUMP JUMPDEST PUSH3 0x452 JUMP JUMPDEST PUSH1 0x40 MLOAD PUSH3 0x182 SWAP3 SWAP2 SWAP1 PUSH3 0xD67 JUMP JUMPDEST PUSH1 0x2 SLOAD JUMPDEST PUSH1 0x40 MLOAD SWAP1 DUP2 MSTORE PUSH1 0x20 ADD PUSH3 0x182 JUMP JUMPDEST PUSH3 0x1A2 PUSH3 0x1FE CALLDATASIZE PUSH1 0x4 PUSH3 0xD94 JUMP JUMPDEST PUSH3 0x506 JUMP JUMPDEST PUSH3 0x167 PUSH3 0x215 CALLDATASIZE PUSH1 0x4 PUSH3 0xDD2 JUMP JUMPDEST PUSH3 0x52D JUMP JUMPDEST PUSH1 0x40 MLOAD PUSH1 0x12 DUP2 MSTORE PUSH1 0x20 ADD PUSH3 0x182 JUMP JUMPDEST PUSH3 0x167 PUSH3 0x23C CALLDATASIZE PUSH1 0x4 PUSH3 0xD24 JUMP JUMPDEST PUSH3 0x547 JUMP JUMPDEST PUSH3 0x1DE PUSH3 0x253 CALLDATASIZE PUSH1 0x4 PUSH3 0xC9C JUMP JUMPDEST PUSH1 0x1 PUSH1 0x1 PUSH1 0xA0 SHL SUB AND PUSH0 SWAP1 DUP2 MSTORE PUSH1 0x20 DUP2 SWAP1 MSTORE PUSH1 0x40 SWAP1 KECCAK256 SLOAD SWAP1 JUMP JUMPDEST PUSH3 0x167 PUSH3 0x55D JUMP JUMPDEST PUSH1 0x5 SLOAD PUSH1 0x1 PUSH1 0x1 PUSH1 0xA0 SHL SUB AND JUMPDEST PUSH1 0x40 MLOAD PUSH1 0x1 PUSH1 0x1 PUSH1 0xA0 SHL SUB SWAP1 SWAP2 AND DUP2 MSTORE PUSH1 0x20 ADD PUSH3 0x182 JUMP JUMPDEST PUSH3 0x173 PUSH3 0x574 JUMP JUMPDEST PUSH3 0x167 PUSH3 0x2B8 CALLDATASIZE PUSH1 0x4 PUSH3 0xD24 JUMP JUMPDEST PUSH3 0x585 JUMP JUMPDEST PUSH3 0x1A2 PUSH3 0x2CF CALLDATASIZE PUSH1 0x4 PUSH3 0xD24 JUMP JUMPDEST PUSH3 0x5FA JUMP JUMPDEST PUSH3 0x1DE PUSH1 0x6 SLOAD DUP2 JUMP JUMPDEST PUSH3 0x167 PUSH3 0x2F0 CALLDATASIZE PUSH1 0x4 PUSH3 0xD24 JUMP JUMPDEST PUSH3 0x609 JUMP JUMPDEST PUSH3 0x1DE PUSH3 0x307 CALLDATASIZE PUSH1 0x4 PUSH3 0xE0F JUMP JUMPDEST PUSH1 0x1 PUSH1 0x1 PUSH1 0xA0 SHL SUB SWAP2 DUP3 AND PUSH0 SWAP1 DUP2 MSTORE PUSH1 0x1 PUSH1 0x20 SWAP1 DUP2 MSTORE PUSH1 0x40 DUP1 DUP4 KECCAK256 SWAP4 SWAP1 SWAP5 AND DUP3 MSTORE SWAP2 SWAP1 SWAP2 MSTORE KECCAK256 SLOAD SWAP1 JUMP JUMPDEST PUSH1 0x7 SLOAD PUSH3 0x284 SWAP1 PUSH1 0x1 PUSH1 0x1 PUSH1 0xA0 SHL SUB AND DUP2 JUMP JUMPDEST PUSH3 0x1A2 PUSH3 0x356 CALLDATASIZE PUSH1 0x4 PUSH3 0xE59 JUMP JUMPDEST PUSH3 0x660 JUMP JUMPDEST PUSH3 0x167 PUSH3 0x36D CALLDATASIZE PUSH1 0x4 PUSH3 0xC9C JUMP JUMPDEST PUSH3 0x7FD JUMP JUMPDEST PUSH3 0x37D PUSH3 0x840 JUMP JUMPDEST PUSH1 0x7 DUP1 SLOAD PUSH1 0x1 PUSH1 0x1 PUSH1 0xA0 SHL SUB NOT AND PUSH1 0x1 PUSH1 0x1 PUSH1 0xA0 SHL SUB SWAP3 SWAP1 SWAP3 AND SWAP2 SWAP1 SWAP2 OR SWAP1 SSTORE JUMP JUMPDEST PUSH1 0x60 PUSH1 0x3 DUP1 SLOAD PUSH3 0x3B0 SWAP1 PUSH3 0xF3A JUMP JUMPDEST DUP1 PUSH1 0x1F ADD PUSH1 0x20 DUP1 SWAP2 DIV MUL PUSH1 0x20 ADD PUSH1 0x40 MLOAD SWAP1 DUP2 ADD PUSH1 0x40 MSTORE DUP1 SWAP3 SWAP2 SWAP1 DUP2 DUP2 MSTORE PUSH1 0x20 ADD DUP3 DUP1 SLOAD PUSH3 0x3DE SWAP1 PUSH3 0xF3A JUMP JUMPDEST DUP1 ISZERO PUSH3 0x42D JUMPI DUP1 PUSH1 0x1F LT PUSH3 0x403 JUMPI PUSH2 0x100 DUP1 DUP4 SLOAD DIV MUL DUP4 MSTORE SWAP2 PUSH1 0x20 ADD SWAP2 PUSH3 0x42D JUMP JUMPDEST DUP3 ADD SWAP2 SWAP1 PUSH0 MSTORE PUSH1 0x20 PUSH0 KECCAK256 SWAP1 JUMPDEST DUP2 SLOAD DUP2 MSTORE SWAP1 PUSH1 0x1 ADD SWAP1 PUSH1 0x20 ADD DUP1 DUP4 GT PUSH3 0x40F JUMPI DUP3 SWAP1 SUB PUSH1 0x1F AND DUP3 ADD SWAP2 JUMPDEST POP POP POP POP POP SWAP1 POP SWAP1 JUMP JUMPDEST PUSH0 CALLER PUSH3 0x446 DUP2 DUP6 DUP6 PUSH3 0x86F JUMP JUMPDEST PUSH1 0x1 SWAP2 POP POP JUMPDEST SWAP3 SWAP2 POP POP JUMP JUMPDEST PUSH1 0x9 PUSH1 0x20 MSTORE PUSH0 SWAP1 DUP2 MSTORE PUSH1 0x40 SWAP1 KECCAK256 DUP1 SLOAD PUSH1 0x1 DUP3 ADD DUP1 SLOAD PUSH1 0x1 PUSH1 0x1 PUSH1 0xA0 SHL SUB SWAP1 SWAP3 AND SWAP3 SWAP2 PUSH3 0x47F SWAP1 PUSH3 0xF3A JUMP JUMPDEST DUP1 PUSH1 0x1F ADD PUSH1 0x20 DUP1 SWAP2 DIV MUL PUSH1 0x20 ADD PUSH1 0x40 MLOAD SWAP1 DUP2 ADD PUSH1 0x40 MSTORE DUP1 SWAP3 SWAP2 SWAP1 DUP2 DUP2 MSTORE PUSH1 0x20 ADD DUP3 DUP1 SLOAD PUSH3 0x4AD SWAP1 PUSH3 0xF3A JUMP JUMPDEST DUP1 ISZERO PUSH3 0x4FC JUMPI DUP1 PUSH1 0x1F LT PUSH3 0x4D2 JUMPI PUSH2 0x100 DUP1 DUP4 SLOAD DIV MUL DUP4 MSTORE SWAP2 PUSH1 0x20 ADD SWAP2 PUSH3 0x4FC JUMP JUMPDEST DUP3 ADD SWAP2 SWAP1 PUSH0 MSTORE PUSH1 0x20 PUSH0 KECCAK256 SWAP1 JUMPDEST DUP2 SLOAD DUP2 MSTORE SWAP1 PUSH1 0x1 ADD SWAP1 PUSH1 0x20 ADD DUP1 DUP4 GT PUSH3 0x4DE JUMPI DUP3 SWAP1 SUB PUSH1 0x1F AND DUP3 ADD SWAP2 JUMPDEST POP POP POP POP POP SWAP1 POP DUP3 JUMP JUMPDEST PUSH0 CALLER PUSH3 0x515 DUP6 DUP3 DUP6 PUSH3 0x883 JUMP JUMPDEST PUSH3 0x522 DUP6 DUP6 DUP6 PUSH3 0x903 JUMP JUMPDEST POP PUSH1 0x1 SWAP5 SWAP4 POP POP POP POP JUMP JUMPDEST PUSH3 0x537 PUSH3 0x840 JUMP JUMPDEST PUSH3 0x543 DUP3 DUP3 PUSH3 0x966 JUMP JUMPDEST POP POP JUMP JUMPDEST PUSH3 0x551 PUSH3 0x840 JUMP JUMPDEST PUSH3 0x543 DUP3 DUP3 PUSH3 0x990 JUMP JUMPDEST PUSH3 0x567 PUSH3 0x840 JUMP JUMPDEST PUSH3 0x572 PUSH0 PUSH3 0x9C8 JUMP JUMPDEST JUMP JUMPDEST PUSH1 0x60 PUSH1 0x4 DUP1 SLOAD PUSH3 0x3B0 SWAP1 PUSH3 0xF3A JUMP JUMPDEST CALLER PUSH0 SWAP1 DUP2 MSTORE PUSH1 0xA PUSH1 0x20 MSTORE PUSH1 0x40 SWAP1 KECCAK256 SLOAD PUSH1 0xFF AND ISZERO ISZERO PUSH1 0x1 EQ PUSH3 0x5EE JUMPI PUSH1 0x40 MLOAD PUSH3 0x461BCD PUSH1 0xE5 SHL DUP2 MSTORE PUSH1 0x20 PUSH1 0x4 DUP3 ADD MSTORE PUSH1 0x1C PUSH1 0x24 DUP3 ADD MSTORE PUSH32 0x796F7520617265206E6F7420617070726F76656420746F206275726E00000000 PUSH1 0x44 DUP3 ADD MSTORE PUSH1 0x64 ADD JUMPDEST PUSH1 0x40 MLOAD DUP1 SWAP2 SUB SWAP1 REVERT JUMPDEST PUSH3 0x543 DUP3 DUP3 PUSH3 0xA19 JUMP JUMPDEST PUSH0 CALLER PUSH3 0x446 DUP2 DUP6 DUP6 PUSH3 0x903 JUMP JUMPDEST PUSH1 0x7 SLOAD PUSH1 0x1 PUSH1 0x1 PUSH1 0xA0 SHL SUB AND CALLER EQ PUSH3 0x654 JUMPI PUSH1 0x40 MLOAD PUSH3 0x461BCD PUSH1 0xE5 SHL DUP2 MSTORE PUSH1 0x20 PUSH1 0x4 DUP3 ADD MSTORE PUSH1 0xC PUSH1 0x24 DUP3 ADD MSTORE PUSH12 0x1B9BDD08185C1C1C9BDD9959 PUSH1 0xA2 SHL PUSH1 0x44 DUP3 ADD MSTORE PUSH1 0x64 ADD PUSH3 0x5E5 JUMP JUMPDEST PUSH3 0x543 DUP3 DUP3 PUSH3 0xA51 JUMP JUMPDEST PUSH1 0x7 SLOAD PUSH0 SWAP1 PUSH1 0x1 PUSH1 0x1 PUSH1 0xA0 SHL SUB AND CALLER EQ PUSH3 0x6AD JUMPI PUSH1 0x40 MLOAD PUSH3 0x461BCD PUSH1 0xE5 SHL DUP2 MSTORE PUSH1 0x20 PUSH1 0x4 DUP3 ADD MSTORE PUSH1 0xC PUSH1 0x24 DUP3 ADD MSTORE PUSH12 0x1B9BDD08185C1C1C9BDD9959 PUSH1 0xA2 SHL PUSH1 0x44 DUP3 ADD MSTORE PUSH1 0x64 ADD PUSH3 0x5E5 JUMP JUMPDEST PUSH1 0x6 SLOAD PUSH0 SWAP1 DUP2 MSTORE PUSH1 0x9 PUSH1 0x20 MSTORE PUSH1 0x40 SWAP1 DUP2 SWAP1 KECCAK256 SWAP1 MLOAD PUSH1 0x8 SWAP1 PUSH3 0x6D1 SWAP1 DUP9 SWAP1 PUSH3 0xF74 JUMP JUMPDEST SWAP1 DUP2 MSTORE PUSH1 0x40 MLOAD SWAP1 DUP2 SWAP1 SUB PUSH1 0x20 ADD SWAP1 KECCAK256 SLOAD PUSH1 0xFF AND ISZERO PUSH3 0x720 JUMPI PUSH1 0x40 MLOAD PUSH3 0x461BCD PUSH1 0xE5 SHL DUP2 MSTORE PUSH1 0x20 PUSH1 0x4 DUP3 ADD MSTORE PUSH1 0xA PUSH1 0x24 DUP3 ADD MSTORE PUSH10 0x3730B6B2903A30B5B2B7 PUSH1 0xB1 SHL PUSH1 0x44 DUP3 ADD MSTORE PUSH1 0x64 ADD PUSH3 0x5E5 JUMP JUMPDEST PUSH1 0x1 PUSH1 0x8 DUP8 PUSH1 0x40 MLOAD PUSH3 0x734 SWAP2 SWAP1 PUSH3 0xF74 JUMP JUMPDEST SWAP1 DUP2 MSTORE PUSH1 0x20 ADD PUSH1 0x40 MLOAD DUP1 SWAP2 SUB SWAP1 KECCAK256 PUSH0 PUSH2 0x100 EXP DUP2 SLOAD DUP2 PUSH1 0xFF MUL NOT AND SWAP1 DUP4 ISZERO ISZERO MUL OR SWAP1 SSTORE POP PUSH0 DUP6 DUP8 DUP7 ADDRESS PUSH1 0x40 MLOAD PUSH3 0x76B SWAP1 PUSH3 0xC72 JUMP JUMPDEST PUSH3 0x77A SWAP5 SWAP4 SWAP3 SWAP2 SWAP1 PUSH3 0xF91 JUMP JUMPDEST PUSH1 0x40 MLOAD DUP1 SWAP2 SUB SWAP1 PUSH0 CREATE DUP1 ISZERO DUP1 ISZERO PUSH3 0x794 JUMPI RETURNDATASIZE PUSH0 DUP1 RETURNDATACOPY RETURNDATASIZE PUSH0 REVERT JUMPDEST POP DUP3 SLOAD PUSH1 0x1 PUSH1 0x1 PUSH1 0xA0 SHL SUB NOT AND PUSH1 0x1 PUSH1 0x1 PUSH1 0xA0 SHL SUB DUP3 AND OR DUP4 SSTORE SWAP1 POP PUSH1 0x1 DUP3 ADD PUSH3 0x7C0 DUP9 DUP3 PUSH3 0x101C JUMP JUMPDEST POP PUSH3 0x7CD DUP2 DUP6 PUSH3 0xA51 JUMP JUMPDEST PUSH1 0x6 DUP1 SLOAD SWAP1 PUSH0 PUSH3 0x7DE DUP4 PUSH3 0x10FD JUMP JUMPDEST SWAP2 SWAP1 POP SSTORE POP PUSH3 0x7F0 DUP2 PUSH1 0x1 PUSH3 0x966 JUMP JUMPDEST POP PUSH1 0x1 SWAP7 SWAP6 POP POP POP POP POP POP JUMP JUMPDEST PUSH3 0x807 PUSH3 0x840 JUMP JUMPDEST PUSH1 0x1 PUSH1 0x1 PUSH1 0xA0 SHL SUB DUP2 AND PUSH3 0x832 JUMPI PUSH1 0x40 MLOAD PUSH4 0x1E4FBDF7 PUSH1 0xE0 SHL DUP2 MSTORE PUSH0 PUSH1 0x4 DUP3 ADD MSTORE PUSH1 0x24 ADD PUSH3 0x5E5 JUMP JUMPDEST PUSH3 0x83D DUP2 PUSH3 0x9C8 JUMP JUMPDEST POP JUMP JUMPDEST PUSH1 0x5 SLOAD PUSH1 0x1 PUSH1 0x1 PUSH1 0xA0 SHL SUB AND CALLER EQ PUSH3 0x572 JUMPI PUSH1 0x40 MLOAD PUSH4 0x118CDAA7 PUSH1 0xE0 SHL DUP2 MSTORE CALLER PUSH1 0x4 DUP3 ADD MSTORE PUSH1 0x24 ADD PUSH3 0x5E5 JUMP JUMPDEST PUSH3 0x87E DUP4 DUP4 DUP4 PUSH1 0x1 PUSH3 0xA6B JUMP JUMPDEST POP POP POP JUMP JUMPDEST PUSH1 0x1 PUSH1 0x1 PUSH1 0xA0 SHL SUB DUP4 DUP2 AND PUSH0 SWAP1 DUP2 MSTORE PUSH1 0x1 PUSH1 0x20 SWAP1 DUP2 MSTORE PUSH1 0x40 DUP1 DUP4 KECCAK256 SWAP4 DUP7 AND DUP4 MSTORE SWAP3 SWAP1 MSTORE KECCAK256 SLOAD PUSH0 NOT DUP2 EQ PUSH3 0x8FD JUMPI DUP2 DUP2 LT ISZERO PUSH3 0x8ED JUMPI PUSH1 0x40 MLOAD PUSH4 0x7DC7A0D9 PUSH1 0xE1 SHL DUP2 MSTORE PUSH1 0x1 PUSH1 0x1 PUSH1 0xA0 SHL SUB DUP5 AND PUSH1 0x4 DUP3 ADD MSTORE PUSH1 0x24 DUP2 ADD DUP3 SWAP1 MSTORE PUSH1 0x44 DUP2 ADD DUP4 SWAP1 MSTORE PUSH1 0x64 ADD PUSH3 0x5E5 JUMP JUMPDEST PUSH3 0x8FD DUP5 DUP5 DUP5 DUP5 SUB PUSH0 PUSH3 0xA6B JUMP JUMPDEST POP POP POP POP JUMP JUMPDEST PUSH1 0x1 PUSH1 0x1 PUSH1 0xA0 SHL SUB DUP4 AND PUSH3 0x92E JUMPI PUSH1 0x40 MLOAD PUSH4 0x4B637E8F PUSH1 0xE1 SHL DUP2 MSTORE PUSH0 PUSH1 0x4 DUP3 ADD MSTORE PUSH1 0x24 ADD PUSH3 0x5E5 JUMP JUMPDEST PUSH1 0x1 PUSH1 0x1 PUSH1 0xA0 SHL SUB DUP3 AND PUSH3 0x959 JUMPI PUSH1 0x40 MLOAD PUSH4 0xEC442F05 PUSH1 0xE0 SHL DUP2 MSTORE PUSH0 PUSH1 0x4 DUP3 ADD MSTORE PUSH1 0x24 ADD PUSH3 0x5E5 JUMP JUMPDEST PUSH3 0x87E DUP4 DUP4 DUP4 PUSH3 0xB43 JUMP JUMPDEST PUSH1 0x1 PUSH1 0x1 PUSH1 0xA0 SHL SUB SWAP2 SWAP1 SWAP2 AND PUSH0 SWAP1 DUP2 MSTORE PUSH1 0xA PUSH1 0x20 MSTORE PUSH1 0x40 SWAP1 KECCAK256 DUP1 SLOAD PUSH1 0xFF NOT AND SWAP2 ISZERO ISZERO SWAP2 SWAP1 SWAP2 OR SWAP1 SSTORE JUMP JUMPDEST PUSH1 0x1 PUSH1 0x1 PUSH1 0xA0 SHL SUB DUP3 AND PUSH3 0x9BB JUMPI PUSH1 0x40 MLOAD PUSH4 0xEC442F05 PUSH1 0xE0 SHL DUP2 MSTORE PUSH0 PUSH1 0x4 DUP3 ADD MSTORE PUSH1 0x24 ADD PUSH3 0x5E5 JUMP JUMPDEST PUSH3 0x543 PUSH0 DUP4 DUP4 PUSH3 0xB43 JUMP JUMPDEST PUSH1 0x5 DUP1 SLOAD PUSH1 0x1 PUSH1 0x1 PUSH1 0xA0 SHL SUB DUP4 DUP2 AND PUSH1 0x1 PUSH1 0x1 PUSH1 0xA0 SHL SUB NOT DUP4 AND DUP2 OR SWAP1 SWAP4 SSTORE PUSH1 0x40 MLOAD SWAP2 AND SWAP2 SWAP1 DUP3 SWAP1 PUSH32 0x8BE0079C531659141344CD1FD0A4F28419497F9722A3DAAFE3B4186F6B6457E0 SWAP1 PUSH0 SWAP1 LOG3 POP POP JUMP JUMPDEST PUSH1 0x1 PUSH1 0x1 PUSH1 0xA0 SHL SUB DUP3 AND PUSH3 0xA44 JUMPI PUSH1 0x40 MLOAD PUSH4 0x4B637E8F PUSH1 0xE1 SHL DUP2 MSTORE PUSH0 PUSH1 0x4 DUP3 ADD MSTORE PUSH1 0x24 ADD PUSH3 0x5E5 JUMP JUMPDEST PUSH3 0x543 DUP3 PUSH0 DUP4 PUSH3 0xB43 JUMP JUMPDEST PUSH3 0xA5E ADDRESS CALLER DUP4 PUSH3 0x86F JUMP JUMPDEST PUSH3 0x87E ADDRESS DUP4 DUP4 PUSH3 0x506 JUMP JUMPDEST PUSH1 0x1 PUSH1 0x1 PUSH1 0xA0 SHL SUB DUP5 AND PUSH3 0xA96 JUMPI PUSH1 0x40 MLOAD PUSH4 0xE602DF05 PUSH1 0xE0 SHL DUP2 MSTORE PUSH0 PUSH1 0x4 DUP3 ADD MSTORE PUSH1 0x24 ADD PUSH3 0x5E5 JUMP JUMPDEST PUSH1 0x1 PUSH1 0x1 PUSH1 0xA0 SHL SUB DUP4 AND PUSH3 0xAC1 JUMPI PUSH1 0x40 MLOAD PUSH4 0x4A1406B1 PUSH1 0xE1 SHL DUP2 MSTORE PUSH0 PUSH1 0x4 DUP3 ADD MSTORE PUSH1 0x24 ADD PUSH3 0x5E5 JUMP JUMPDEST PUSH1 0x1 PUSH1 0x1 PUSH1 0xA0 SHL SUB DUP1 DUP6 AND PUSH0 SWAP1 DUP2 MSTORE PUSH1 0x1 PUSH1 0x20 SWAP1 DUP2 MSTORE PUSH1 0x40 DUP1 DUP4 KECCAK256 SWAP4 DUP8 AND DUP4 MSTORE SWAP3 SWAP1 MSTORE KECCAK256 DUP3 SWAP1 SSTORE DUP1 ISZERO PUSH3 0x8FD JUMPI DUP3 PUSH1 0x1 PUSH1 0x1 PUSH1 0xA0 SHL SUB AND DUP5 PUSH1 0x1 PUSH1 0x1 PUSH1 0xA0 SHL SUB AND PUSH32 0x8C5BE1E5EBEC7D5BD14F71427D1E84F3DD0314C0F7B2291E5B200AC8C7C3B925 DUP5 PUSH1 0x40 MLOAD PUSH3 0xB35 SWAP2 DUP2 MSTORE PUSH1 0x20 ADD SWAP1 JUMP JUMPDEST PUSH1 0x40 MLOAD DUP1 SWAP2 SUB SWAP1 LOG3 POP POP POP POP JUMP JUMPDEST PUSH1 0x1 PUSH1 0x1 PUSH1 0xA0 SHL SUB DUP4 AND PUSH3 0xB71 JUMPI DUP1 PUSH1 0x2 PUSH0 DUP3 DUP3 SLOAD PUSH3 0xB65 SWAP2 SWAP1 PUSH3 0x1118 JUMP JUMPDEST SWAP1 SWAP2 SSTORE POP PUSH3 0xBE3 SWAP1 POP JUMP JUMPDEST PUSH1 0x1 PUSH1 0x1 PUSH1 0xA0 SHL SUB DUP4 AND PUSH0 SWAP1 DUP2 MSTORE PUSH1 0x20 DUP2 SWAP1 MSTORE PUSH1 0x40 SWAP1 KECCAK256 SLOAD DUP2 DUP2 LT ISZERO PUSH3 0xBC5 JUMPI PUSH1 0x40 MLOAD PUSH4 0x391434E3 PUSH1 0xE2 SHL DUP2 MSTORE PUSH1 0x1 PUSH1 0x1 PUSH1 0xA0 SHL SUB DUP6 AND PUSH1 0x4 DUP3 ADD MSTORE PUSH1 0x24 DUP2 ADD DUP3 SWAP1 MSTORE PUSH1 0x44 DUP2 ADD DUP4 SWAP1 MSTORE PUSH1 0x64 ADD PUSH3 0x5E5 JUMP JUMPDEST PUSH1 0x1 PUSH1 0x1 PUSH1 0xA0 SHL SUB DUP5 AND PUSH0 SWAP1 DUP2 MSTORE PUSH1 0x20 DUP2 SWAP1 MSTORE PUSH1 0x40 SWAP1 KECCAK256 SWAP1 DUP3 SWAP1 SUB SWAP1 SSTORE JUMPDEST PUSH1 0x1 PUSH1 0x1 PUSH1 0xA0 SHL SUB DUP3 AND PUSH3 0xC01 JUMPI PUSH1 0x2 DUP1 SLOAD DUP3 SWAP1 SUB SWAP1 SSTORE PUSH3 0xC1F JUMP JUMPDEST PUSH1 0x1 PUSH1 0x1 PUSH1 0xA0 SHL SUB DUP3 AND PUSH0 SWAP1 DUP2 MSTORE PUSH1 0x20 DUP2 SWAP1 MSTORE PUSH1 0x40 SWAP1 KECCAK256 DUP1 SLOAD DUP3 ADD SWAP1 SSTORE JUMPDEST DUP2 PUSH1 0x1 PUSH1 0x1 PUSH1 0xA0 SHL SUB AND DUP4 PUSH1 0x1 PUSH1 0x1 PUSH1 0xA0 SHL SUB AND PUSH32 0xDDF252AD1BE2C89B69C2B068FC378DAA952BA7F163C4A11628F55A4DF523B3EF DUP4 PUSH1 0x40 MLOAD PUSH3 0xC65 SWAP2 DUP2 MSTORE PUSH1 0x20 ADD SWAP1 JUMP JUMPDEST PUSH1 0x40 MLOAD DUP1 SWAP2 SUB SWAP1 LOG3 POP POP POP JUMP JUMPDEST PUSH2 0x22BE DUP1 PUSH3 0x112F DUP4 CODECOPY ADD SWAP1 JUMP JUMPDEST DUP1 CALLDATALOAD PUSH1 0x1 PUSH1 0x1 PUSH1 0xA0 SHL SUB DUP2 AND DUP2 EQ PUSH3 0xC97 JUMPI PUSH0 DUP1 REVERT JUMPDEST SWAP2 SWAP1 POP JUMP JUMPDEST PUSH0 PUSH1 0x20 DUP3 DUP5 SUB SLT ISZERO PUSH3 0xCAD JUMPI PUSH0 DUP1 REVERT JUMPDEST PUSH3 0xCB8 DUP3 PUSH3 0xC80 JUMP JUMPDEST SWAP4 SWAP3 POP POP POP JUMP JUMPDEST PUSH0 JUMPDEST DUP4 DUP2 LT ISZERO PUSH3 0xCDB JUMPI DUP2 DUP2 ADD MLOAD DUP4 DUP3 ADD MSTORE PUSH1 0x20 ADD PUSH3 0xCC1 JUMP JUMPDEST POP POP PUSH0 SWAP2 ADD MSTORE JUMP JUMPDEST PUSH0 DUP2 MLOAD DUP1 DUP5 MSTORE PUSH3 0xCFC DUP2 PUSH1 0x20 DUP7 ADD PUSH1 0x20 DUP7 ADD PUSH3 0xCBF JUMP JUMPDEST PUSH1 0x1F ADD PUSH1 0x1F NOT AND SWAP3 SWAP1 SWAP3 ADD PUSH1 0x20 ADD SWAP3 SWAP2 POP POP JUMP JUMPDEST PUSH1 0x20 DUP2 MSTORE PUSH0 PUSH3 0xCB8 PUSH1 0x20 DUP4 ADD DUP5 PUSH3 0xCE3 JUMP JUMPDEST PUSH0 DUP1 PUSH1 0x40 DUP4 DUP6 SUB SLT ISZERO PUSH3 0xD36 JUMPI PUSH0 DUP1 REVERT JUMPDEST PUSH3 0xD41 DUP4 PUSH3 0xC80 JUMP JUMPDEST SWAP5 PUSH1 0x20 SWAP4 SWAP1 SWAP4 ADD CALLDATALOAD SWAP4 POP POP POP JUMP JUMPDEST PUSH0 PUSH1 0x20 DUP3 DUP5 SUB SLT ISZERO PUSH3 0xD60 JUMPI PUSH0 DUP1 REVERT JUMPDEST POP CALLDATALOAD SWAP2 SWAP1 POP JUMP JUMPDEST PUSH1 0x1 PUSH1 0x1 PUSH1 0xA0 SHL SUB DUP4 AND DUP2 MSTORE PUSH1 0x40 PUSH1 0x20 DUP3 ADD DUP2 SWAP1 MSTORE PUSH0 SWAP1 PUSH3 0xD8C SWAP1 DUP4 ADD DUP5 PUSH3 0xCE3 JUMP JUMPDEST SWAP5 SWAP4 POP POP POP POP JUMP JUMPDEST PUSH0 DUP1 PUSH0 PUSH1 0x60 DUP5 DUP7 SUB SLT ISZERO PUSH3 0xDA7 JUMPI PUSH0 DUP1 REVERT JUMPDEST PUSH3 0xDB2 DUP5 PUSH3 0xC80 JUMP JUMPDEST SWAP3 POP PUSH3 0xDC2 PUSH1 0x20 DUP6 ADD PUSH3 0xC80 JUMP JUMPDEST SWAP2 POP PUSH1 0x40 DUP5 ADD CALLDATALOAD SWAP1 POP SWAP3 POP SWAP3 POP SWAP3 JUMP JUMPDEST PUSH0 DUP1 PUSH1 0x40 DUP4 DUP6 SUB SLT ISZERO PUSH3 0xDE4 JUMPI PUSH0 DUP1 REVERT JUMPDEST PUSH3 0xDEF DUP4 PUSH3 0xC80 JUMP JUMPDEST SWAP2 POP PUSH1 0x20 DUP4 ADD CALLDATALOAD DUP1 ISZERO ISZERO DUP2 EQ PUSH3 0xE04 JUMPI PUSH0 DUP1 REVERT JUMPDEST DUP1 SWAP2 POP POP SWAP3 POP SWAP3 SWAP1 POP JUMP JUMPDEST PUSH0 DUP1 PUSH1 0x40 DUP4 DUP6 SUB SLT ISZERO PUSH3 0xE21 JUMPI PUSH0 DUP1 REVERT JUMPDEST PUSH3 0xE2C DUP4 PUSH3 0xC80 JUMP JUMPDEST SWAP2 POP PUSH3 0xE3C PUSH1 0x20 DUP5 ADD PUSH3 0xC80 JUMP JUMPDEST SWAP1 POP SWAP3 POP SWAP3 SWAP1 POP JUMP JUMPDEST PUSH4 0x4E487B71 PUSH1 0xE0 SHL PUSH0 MSTORE PUSH1 0x41 PUSH1 0x4 MSTORE PUSH1 0x24 PUSH0 REVERT JUMPDEST PUSH0 DUP1 PUSH0 DUP1 PUSH1 0x80 DUP6 DUP8 SUB SLT ISZERO PUSH3 0xE6D JUMPI PUSH0 DUP1 REVERT JUMPDEST DUP5 CALLDATALOAD PUSH8 0xFFFFFFFFFFFFFFFF DUP1 DUP3 GT ISZERO PUSH3 0xE85 JUMPI PUSH0 DUP1 REVERT JUMPDEST DUP2 DUP8 ADD SWAP2 POP DUP8 PUSH1 0x1F DUP4 ADD SLT PUSH3 0xE99 JUMPI PUSH0 DUP1 REVERT JUMPDEST DUP2 CALLDATALOAD DUP2 DUP2 GT ISZERO PUSH3 0xEAE JUMPI PUSH3 0xEAE PUSH3 0xE45 JUMP JUMPDEST PUSH1 0x40 MLOAD PUSH1 0x1F DUP3 ADD PUSH1 0x1F NOT SWAP1 DUP2 AND PUSH1 0x3F ADD AND DUP2 ADD SWAP1 DUP4 DUP3 GT DUP2 DUP4 LT OR ISZERO PUSH3 0xED9 JUMPI PUSH3 0xED9 PUSH3 0xE45 JUMP JUMPDEST DUP2 PUSH1 0x40 MSTORE DUP3 DUP2 MSTORE DUP11 PUSH1 0x20 DUP5 DUP8 ADD ADD GT ISZERO PUSH3 0xEF2 JUMPI PUSH0 DUP1 REVERT JUMPDEST DUP3 PUSH1 0x20 DUP7 ADD PUSH1 0x20 DUP4 ADD CALLDATACOPY PUSH0 PUSH1 0x20 DUP5 DUP4 ADD ADD MSTORE DUP1 SWAP9 POP POP POP POP POP POP PUSH3 0xF1A PUSH1 0x20 DUP7 ADD PUSH3 0xC80 JUMP JUMPDEST SWAP3 POP PUSH3 0xF2A PUSH1 0x40 DUP7 ADD PUSH3 0xC80 JUMP JUMPDEST SWAP4 SWAP7 SWAP3 SWAP6 POP SWAP3 SWAP4 PUSH1 0x60 ADD CALLDATALOAD SWAP3 POP POP JUMP JUMPDEST PUSH1 0x1 DUP2 DUP2 SHR SWAP1 DUP3 AND DUP1 PUSH3 0xF4F JUMPI PUSH1 0x7F DUP3 AND SWAP2 POP JUMPDEST PUSH1 0x20 DUP3 LT DUP2 SUB PUSH3 0xF6E JUMPI PUSH4 0x4E487B71 PUSH1 0xE0 SHL PUSH0 MSTORE PUSH1 0x22 PUSH1 0x4 MSTORE PUSH1 0x24 PUSH0 REVERT JUMPDEST POP SWAP2 SWAP1 POP JUMP JUMPDEST PUSH0 DUP3 MLOAD PUSH3 0xF87 DUP2 DUP5 PUSH1 0x20 DUP8 ADD PUSH3 0xCBF JUMP JUMPDEST SWAP2 SWAP1 SWAP2 ADD SWAP3 SWAP2 POP POP JUMP JUMPDEST PUSH0 PUSH1 0x1 DUP1 PUSH1 0xA0 SHL SUB DUP1 DUP8 AND DUP4 MSTORE PUSH1 0x80 PUSH1 0x20 DUP5 ADD MSTORE PUSH3 0xFB4 PUSH1 0x80 DUP5 ADD DUP8 PUSH3 0xCE3 JUMP JUMPDEST SWAP5 DUP2 AND PUSH1 0x40 DUP5 ADD MSTORE SWAP3 SWAP1 SWAP3 AND PUSH1 0x60 SWAP1 SWAP2 ADD MSTORE POP SWAP3 SWAP2 POP POP JUMP JUMPDEST PUSH1 0x1F DUP3 GT ISZERO PUSH3 0x87E JUMPI DUP1 PUSH0 MSTORE PUSH1 0x20 PUSH0 KECCAK256 PUSH1 0x1F DUP5 ADD PUSH1 0x5 SHR DUP2 ADD PUSH1 0x20 DUP6 LT ISZERO PUSH3 0xFF4 JUMPI POP DUP1 JUMPDEST PUSH1 0x1F DUP5 ADD PUSH1 0x5 SHR DUP3 ADD SWAP2 POP JUMPDEST DUP2 DUP2 LT ISZERO PUSH3 0x1015 JUMPI PUSH0 DUP2 SSTORE PUSH1 0x1 ADD PUSH3 0x1000 JUMP JUMPDEST POP POP POP POP POP JUMP JUMPDEST DUP2 MLOAD PUSH8 0xFFFFFFFFFFFFFFFF DUP2 GT ISZERO PUSH3 0x1039 JUMPI PUSH3 0x1039 PUSH3 0xE45 JUMP JUMPDEST PUSH3 0x1051 DUP2 PUSH3 0x104A DUP5 SLOAD PUSH3 0xF3A JUMP JUMPDEST DUP5 PUSH3 0xFCD JUMP JUMPDEST PUSH1 0x20 DUP1 PUSH1 0x1F DUP4 GT PUSH1 0x1 DUP2 EQ PUSH3 0x1087 JUMPI PUSH0 DUP5 ISZERO PUSH3 0x106F JUMPI POP DUP6 DUP4 ADD MLOAD JUMPDEST PUSH0 NOT PUSH1 0x3 DUP7 SWAP1 SHL SHR NOT AND PUSH1 0x1 DUP6 SWAP1 SHL OR DUP6 SSTORE PUSH3 0x10E1 JUMP JUMPDEST PUSH0 DUP6 DUP2 MSTORE PUSH1 0x20 DUP2 KECCAK256 PUSH1 0x1F NOT DUP7 AND SWAP2 JUMPDEST DUP3 DUP2 LT ISZERO PUSH3 0x10B7 JUMPI DUP9 DUP7 ADD MLOAD DUP3 SSTORE SWAP5 DUP5 ADD SWAP5 PUSH1 0x1 SWAP1 SWAP2 ADD SWAP1 DUP5 ADD PUSH3 0x1096 JUMP JUMPDEST POP DUP6 DUP3 LT ISZERO PUSH3 0x10D5 JUMPI DUP8 DUP6 ADD MLOAD PUSH0 NOT PUSH1 0x3 DUP9 SWAP1 SHL PUSH1 0xF8 AND SHR NOT AND DUP2 SSTORE JUMPDEST POP POP PUSH1 0x1 DUP5 PUSH1 0x1 SHL ADD DUP6 SSTORE JUMPDEST POP POP POP POP POP POP JUMP JUMPDEST PUSH4 0x4E487B71 PUSH1 0xE0 SHL PUSH0 MSTORE PUSH1 0x11 PUSH1 0x4 MSTORE PUSH1 0x24 PUSH0 REVERT JUMPDEST PUSH0 PUSH1 0x1 DUP3 ADD PUSH3 0x1111 JUMPI PUSH3 0x1111 PUSH3 0x10E9 JUMP JUMPDEST POP PUSH1 0x1 ADD SWAP1 JUMP JUMPDEST DUP1 DUP3 ADD DUP1 DUP3 GT ISZERO PUSH3 0x44C JUMPI PUSH3 0x44C PUSH3 0x10E9 JUMP INVALID PUSH2 0x160 PUSH1 0x40 MSTORE CALLVALUE DUP1 ISZERO PUSH3 0x11 JUMPI PUSH0 DUP1 REVERT JUMPDEST POP PUSH1 0x40 MLOAD PUSH3 0x22BE CODESIZE SUB DUP1 PUSH3 0x22BE DUP4 CODECOPY DUP2 ADD PUSH1 0x40 DUP2 SWAP1 MSTORE PUSH3 0x34 SWAP2 PUSH3 0x360 JUMP JUMPDEST PUSH1 0x40 DUP1 MLOAD DUP1 DUP3 ADD SWAP1 SWAP2 MSTORE PUSH1 0x1 DUP2 MSTORE PUSH1 0x31 PUSH1 0xF8 SHL PUSH1 0x20 DUP3 ADD MSTORE DUP4 SWAP1 DUP6 PUSH1 0x1 PUSH1 0x1 PUSH1 0xA0 SHL SUB DUP2 AND PUSH3 0x7E JUMPI PUSH1 0x40 MLOAD PUSH4 0x1E4FBDF7 PUSH1 0xE0 SHL DUP2 MSTORE PUSH0 PUSH1 0x4 DUP3 ADD MSTORE PUSH1 0x24 ADD JUMPDEST PUSH1 0x40 MLOAD DUP1 SWAP2 SUB SWAP1 REVERT JUMPDEST PUSH3 0x89 DUP2 PUSH3 0x243 JUMP JUMPDEST POP PUSH3 0x97 DUP3 PUSH1 0x1 PUSH3 0x292 JUMP JUMPDEST PUSH2 0x120 MSTORE PUSH3 0xA8 DUP2 PUSH1 0x2 PUSH3 0x292 JUMP JUMPDEST PUSH2 0x140 MSTORE DUP2 MLOAD PUSH1 0x20 DUP1 DUP5 ADD SWAP2 SWAP1 SWAP2 KECCAK256 PUSH1 0xE0 MSTORE DUP2 MLOAD SWAP1 DUP3 ADD KECCAK256 PUSH2 0x100 MSTORE CHAINID PUSH1 0xA0 MSTORE PUSH3 0x135 PUSH1 0xE0 MLOAD PUSH2 0x100 MLOAD PUSH1 0x40 DUP1 MLOAD PUSH32 0x8B73C3C69BB8FE3D512ECC4CF759CC79239F7B179B0FFACAA9A75D522B39400F PUSH1 0x20 DUP3 ADD MSTORE SWAP1 DUP2 ADD SWAP3 SWAP1 SWAP3 MSTORE PUSH1 0x60 DUP3 ADD MSTORE CHAINID PUSH1 0x80 DUP3 ADD MSTORE ADDRESS PUSH1 0xA0 DUP3 ADD MSTORE PUSH0 SWAP1 PUSH1 0xC0 ADD PUSH1 0x40 MLOAD PUSH1 0x20 DUP2 DUP4 SUB SUB DUP2 MSTORE SWAP1 PUSH1 0x40 MSTORE DUP1 MLOAD SWAP1 PUSH1 0x20 ADD KECCAK256 SWAP1 POP SWAP1 JUMP JUMPDEST PUSH1 0x80 MSTORE POP POP ADDRESS PUSH1 0xC0 MSTORE PUSH1 0xE PUSH3 0x14C DUP5 DUP3 PUSH3 0x4D7 JUMP JUMPDEST POP PUSH1 0xA PUSH1 0x7 SSTORE PUSH2 0x1388 PUSH1 0x8 SSTORE PUSH1 0x3 DUP1 SLOAD PUSH1 0x1 PUSH1 0x1 PUSH1 0xA0 SHL SUB DUP1 DUP6 AND PUSH1 0x1 PUSH1 0x1 PUSH1 0xA0 SHL SUB NOT SWAP3 DUP4 AND DUP2 OR SWAP1 SWAP4 SSTORE PUSH1 0x5 DUP1 SLOAD DUP4 AND SWAP1 SWAP4 OR SWAP1 SWAP3 SSTORE PUSH1 0x4 DUP1 SLOAD SWAP3 DUP5 AND SWAP3 DUP3 AND DUP4 OR DUP2 SSTORE PUSH1 0x6 DUP1 SLOAD SWAP1 SWAP3 AND DUP4 OR SWAP1 SWAP2 SSTORE PUSH1 0x40 DUP1 MLOAD PUSH4 0x313CE567 PUSH1 0xE0 SHL DUP2 MSTORE SWAP1 MLOAD PUSH4 0x313CE567 SWAP3 DUP3 DUP2 ADD SWAP3 PUSH1 0x20 SWAP3 SWAP2 SWAP1 DUP3 SWAP1 SUB ADD DUP2 DUP7 GAS STATICCALL ISZERO DUP1 ISZERO PUSH3 0x1D5 JUMPI RETURNDATASIZE PUSH0 DUP1 RETURNDATACOPY RETURNDATASIZE PUSH0 REVERT JUMPDEST POP POP POP POP PUSH1 0x40 MLOAD RETURNDATASIZE PUSH1 0x1F NOT PUSH1 0x1F DUP3 ADD AND DUP3 ADD DUP1 PUSH1 0x40 MSTORE POP DUP2 ADD SWAP1 PUSH3 0x1FB SWAP2 SWAP1 PUSH3 0x5A3 JUMP JUMPDEST PUSH3 0x208 SWAP1 PUSH1 0xA PUSH3 0x6D9 JUMP JUMPDEST PUSH3 0x216 SWAP1 PUSH2 0x2710 PUSH3 0x6E9 JUMP JUMPDEST PUSH1 0xA SSTORE POP POP PUSH1 0xF DUP1 SLOAD PUSH1 0x1 PUSH1 0x1 PUSH1 0xA0 SHL SUB NOT AND PUSH1 0x1 PUSH1 0x1 PUSH1 0xA0 SHL SUB SWAP4 SWAP1 SWAP4 AND SWAP3 SWAP1 SWAP3 OR SWAP1 SWAP2 SSTORE POP PUSH3 0x75B JUMP JUMPDEST PUSH0 DUP1 SLOAD PUSH1 0x1 PUSH1 0x1 PUSH1 0xA0 SHL SUB DUP4 DUP2 AND PUSH1 0x1 PUSH1 0x1 PUSH1 0xA0 SHL SUB NOT DUP4 AND DUP2 OR DUP5 SSTORE PUSH1 0x40 MLOAD SWAP2 SWAP1 SWAP3 AND SWAP3 DUP4 SWAP2 PUSH32 0x8BE0079C531659141344CD1FD0A4F28419497F9722A3DAAFE3B4186F6B6457E0 SWAP2 SWAP1 LOG3 POP POP JUMP JUMPDEST PUSH0 PUSH1 0x20 DUP4 MLOAD LT ISZERO PUSH3 0x2B1 JUMPI PUSH3 0x2A9 DUP4 PUSH3 0x2CA JUMP JUMPDEST SWAP1 POP PUSH3 0x2C4 JUMP JUMPDEST DUP2 PUSH3 0x2BE DUP5 DUP3 PUSH3 0x4D7 JUMP JUMPDEST POP PUSH1 0xFF SWAP1 POP JUMPDEST SWAP3 SWAP2 POP POP JUMP JUMPDEST PUSH0 DUP1 DUP3 SWAP1 POP PUSH1 0x1F DUP2 MLOAD GT ISZERO PUSH3 0x2F7 JUMPI DUP3 PUSH1 0x40 MLOAD PUSH4 0x305A27A9 PUSH1 0xE0 SHL DUP2 MSTORE PUSH1 0x4 ADD PUSH3 0x75 SWAP2 SWAP1 PUSH3 0x703 JUMP JUMPDEST DUP1 MLOAD PUSH3 0x304 DUP3 PUSH3 0x737 JUMP JUMPDEST OR SWAP4 SWAP3 POP POP POP JUMP JUMPDEST DUP1 MLOAD PUSH1 0x1 PUSH1 0x1 PUSH1 0xA0 SHL SUB DUP2 AND DUP2 EQ PUSH3 0x323 JUMPI PUSH0 DUP1 REVERT JUMPDEST SWAP2 SWAP1 POP JUMP JUMPDEST PUSH4 0x4E487B71 PUSH1 0xE0 SHL PUSH0 MSTORE PUSH1 0x41 PUSH1 0x4 MSTORE PUSH1 0x24 PUSH0 REVERT JUMPDEST PUSH0 JUMPDEST DUP4 DUP2 LT ISZERO PUSH3 0x358 JUMPI DUP2 DUP2 ADD MLOAD DUP4 DUP3 ADD MSTORE PUSH1 0x20 ADD PUSH3 0x33E JUMP JUMPDEST POP POP PUSH0 SWAP2 ADD MSTORE JUMP JUMPDEST PUSH0 DUP1 PUSH0 DUP1 PUSH1 0x80 DUP6 DUP8 SUB SLT ISZERO PUSH3 0x374 JUMPI PUSH0 DUP1 REVERT JUMPDEST PUSH3 0x37F DUP6 PUSH3 0x30C JUMP JUMPDEST PUSH1 0x20 DUP7 ADD MLOAD SWAP1 SWAP5 POP PUSH1 0x1 PUSH1 0x1 PUSH1 0x40 SHL SUB DUP1 DUP3 GT ISZERO PUSH3 0x39C JUMPI PUSH0 DUP1 REVERT JUMPDEST DUP2 DUP8 ADD SWAP2 POP DUP8 PUSH1 0x1F DUP4 ADD SLT PUSH3 0x3B0 JUMPI PUSH0 DUP1 REVERT JUMPDEST DUP2 MLOAD DUP2 DUP2 GT ISZERO PUSH3 0x3C5 JUMPI PUSH3 0x3C5 PUSH3 0x328 JUMP JUMPDEST PUSH1 0x40 MLOAD PUSH1 0x1F DUP3 ADD PUSH1 0x1F NOT SWAP1 DUP2 AND PUSH1 0x3F ADD AND DUP2 ADD SWAP1 DUP4 DUP3 GT DUP2 DUP4 LT OR ISZERO PUSH3 0x3F0 JUMPI PUSH3 0x3F0 PUSH3 0x328 JUMP JUMPDEST DUP2 PUSH1 0x40 MSTORE DUP3 DUP2 MSTORE DUP11 PUSH1 0x20 DUP5 DUP8 ADD ADD GT ISZERO PUSH3 0x409 JUMPI PUSH0 DUP1 REVERT JUMPDEST PUSH3 0x41C DUP4 PUSH1 0x20 DUP4 ADD PUSH1 0x20 DUP9 ADD PUSH3 0x33C JUMP JUMPDEST DUP1 SWAP8 POP POP POP POP POP POP PUSH3 0x432 PUSH1 0x40 DUP7 ADD PUSH3 0x30C JUMP JUMPDEST SWAP2 POP PUSH3 0x442 PUSH1 0x60 DUP7 ADD PUSH3 0x30C JUMP JUMPDEST SWAP1 POP SWAP3 SWAP6 SWAP2 SWAP5 POP SWAP3 POP JUMP JUMPDEST PUSH1 0x1 DUP2 DUP2 SHR SWAP1 DUP3 AND DUP1 PUSH3 0x462 JUMPI PUSH1 0x7F DUP3 AND SWAP2 POP JUMPDEST PUSH1 0x20 DUP3 LT DUP2 SUB PUSH3 0x481 JUMPI PUSH4 0x4E487B71 PUSH1 0xE0 SHL PUSH0 MSTORE PUSH1 0x22 PUSH1 0x4 MSTORE PUSH1 0x24 PUSH0 REVERT JUMPDEST POP SWAP2 SWAP1 POP JUMP JUMPDEST PUSH1 0x1F DUP3 GT ISZERO PUSH3 0x4D2 JUMPI DUP1 PUSH0 MSTORE PUSH1 0x20 PUSH0 KECCAK256 PUSH1 0x1F DUP5 ADD PUSH1 0x5 SHR DUP2 ADD PUSH1 0x20 DUP6 LT ISZERO PUSH3 0x4AE JUMPI POP DUP1 JUMPDEST PUSH1 0x1F DUP5 ADD PUSH1 0x5 SHR DUP3 ADD SWAP2 POP JUMPDEST DUP2 DUP2 LT ISZERO PUSH3 0x4CF JUMPI PUSH0 DUP2 SSTORE PUSH1 0x1 ADD PUSH3 0x4BA JUMP JUMPDEST POP POP JUMPDEST POP POP POP JUMP JUMPDEST DUP2 MLOAD PUSH1 0x1 PUSH1 0x1 PUSH1 0x40 SHL SUB DUP2 GT ISZERO PUSH3 0x4F3 JUMPI PUSH3 0x4F3 PUSH3 0x328 JUMP JUMPDEST PUSH3 0x50B DUP2 PUSH3 0x504 DUP5 SLOAD PUSH3 0x44D JUMP JUMPDEST DUP5 PUSH3 0x487 JUMP JUMPDEST PUSH1 0x20 DUP1 PUSH1 0x1F DUP4 GT PUSH1 0x1 DUP2 EQ PUSH3 0x541 JUMPI PUSH0 DUP5 ISZERO PUSH3 0x529 JUMPI POP DUP6 DUP4 ADD MLOAD JUMPDEST PUSH0 NOT PUSH1 0x3 DUP7 SWAP1 SHL SHR NOT AND PUSH1 0x1 DUP6 SWAP1 SHL OR DUP6 SSTORE PUSH3 0x59B JUMP JUMPDEST PUSH0 DUP6 DUP2 MSTORE PUSH1 0x20 DUP2 KECCAK256 PUSH1 0x1F NOT DUP7 AND SWAP2 JUMPDEST DUP3 DUP2 LT ISZERO PUSH3 0x571 JUMPI DUP9 DUP7 ADD MLOAD DUP3 SSTORE SWAP5 DUP5 ADD SWAP5 PUSH1 0x1 SWAP1 SWAP2 ADD SWAP1 DUP5 ADD PUSH3 0x550 JUMP JUMPDEST POP DUP6 DUP3 LT ISZERO PUSH3 0x58F JUMPI DUP8 DUP6 ADD MLOAD PUSH0 NOT PUSH1 0x3 DUP9 SWAP1 SHL PUSH1 0xF8 AND SHR NOT AND DUP2 SSTORE JUMPDEST POP POP PUSH1 0x1 DUP5 PUSH1 0x1 SHL ADD DUP6 SSTORE JUMPDEST POP POP POP POP POP POP JUMP JUMPDEST PUSH0 PUSH1 0x20 DUP3 DUP5 SUB SLT ISZERO PUSH3 0x5B4 JUMPI PUSH0 DUP1 REVERT JUMPDEST DUP2 MLOAD PUSH1 0xFF DUP2 AND DUP2 EQ PUSH3 0x5C5 JUMPI PUSH0 DUP1 REVERT JUMPDEST SWAP4 SWAP3 POP POP POP JUMP JUMPDEST PUSH4 0x4E487B71 PUSH1 0xE0 SHL PUSH0 MSTORE PUSH1 0x11 PUSH1 0x4 MSTORE PUSH1 0x24 PUSH0 REVERT JUMPDEST PUSH1 0x1 DUP2 DUP2 JUMPDEST DUP1 DUP6 GT ISZERO PUSH3 0x620 JUMPI DUP2 PUSH0 NOT DIV DUP3 GT ISZERO PUSH3 0x604 JUMPI PUSH3 0x604 PUSH3 0x5CC JUMP JUMPDEST DUP1 DUP6 AND ISZERO PUSH3 0x612 JUMPI SWAP2 DUP2 MUL SWAP2 JUMPDEST SWAP4 DUP5 SHR SWAP4 SWAP1 DUP1 MUL SWAP1 PUSH3 0x5E5 JUMP JUMPDEST POP SWAP3 POP SWAP3 SWAP1 POP JUMP JUMPDEST PUSH0 DUP3 PUSH3 0x638 JUMPI POP PUSH1 0x1 PUSH3 0x2C4 JUMP JUMPDEST DUP2 PUSH3 0x646 JUMPI POP PUSH0 PUSH3 0x2C4 JUMP JUMPDEST DUP2 PUSH1 0x1 DUP2 EQ PUSH3 0x65F JUMPI PUSH1 0x2 DUP2 EQ PUSH3 0x66A JUMPI PUSH3 0x68A JUMP JUMPDEST PUSH1 0x1 SWAP2 POP POP PUSH3 0x2C4 JUMP JUMPDEST PUSH1 0xFF DUP5 GT ISZERO PUSH3 0x67E JUMPI PUSH3 0x67E PUSH3 0x5CC JUMP JUMPDEST POP POP PUSH1 0x1 DUP3 SHL PUSH3 0x2C4 JUMP JUMPDEST POP PUSH1 0x20 DUP4 LT PUSH2 0x133 DUP4 LT AND PUSH1 0x4E DUP5 LT PUSH1 0xB DUP5 LT AND OR ISZERO PUSH3 0x6AF JUMPI POP DUP2 DUP2 EXP PUSH3 0x2C4 JUMP JUMPDEST PUSH3 0x6BB DUP4 DUP4 PUSH3 0x5E0 JUMP JUMPDEST DUP1 PUSH0 NOT DIV DUP3 GT ISZERO PUSH3 0x6D1 JUMPI PUSH3 0x6D1 PUSH3 0x5CC JUMP JUMPDEST MUL SWAP4 SWAP3 POP POP POP JUMP JUMPDEST PUSH0 PUSH3 0x5C5 PUSH1 0xFF DUP5 AND DUP4 PUSH3 0x628 JUMP JUMPDEST DUP1 DUP3 MUL DUP2 ISZERO DUP3 DUP3 DIV DUP5 EQ OR PUSH3 0x2C4 JUMPI PUSH3 0x2C4 PUSH3 0x5CC JUMP JUMPDEST PUSH1 0x20 DUP2 MSTORE PUSH0 DUP3 MLOAD DUP1 PUSH1 0x20 DUP5 ADD MSTORE PUSH3 0x723 DUP2 PUSH1 0x40 DUP6 ADD PUSH1 0x20 DUP8 ADD PUSH3 0x33C JUMP JUMPDEST PUSH1 0x1F ADD PUSH1 0x1F NOT AND SWAP2 SWAP1 SWAP2 ADD PUSH1 0x40 ADD SWAP3 SWAP2 POP POP JUMP JUMPDEST DUP1 MLOAD PUSH1 0x20 DUP1 DUP4 ADD MLOAD SWAP2 SWAP1 DUP2 LT ISZERO PUSH3 0x481 JUMPI PUSH0 NOT PUSH1 0x20 SWAP2 SWAP1 SWAP2 SUB PUSH1 0x3 SHL SHL AND SWAP2 SWAP1 POP JUMP JUMPDEST PUSH1 0x80 MLOAD PUSH1 0xA0 MLOAD PUSH1 0xC0 MLOAD PUSH1 0xE0 MLOAD PUSH2 0x100 MLOAD PUSH2 0x120 MLOAD PUSH2 0x140 MLOAD PUSH2 0x1B11 PUSH3 0x7AD PUSH0 CODECOPY PUSH0 PUSH2 0x11B9 ADD MSTORE PUSH0 PUSH2 0x118C ADD MSTORE PUSH0 PUSH2 0xEC7 ADD MSTORE PUSH0 PUSH2 0xE9F ADD MSTORE PUSH0 PUSH2 0xDFA ADD MSTORE PUSH0 PUSH2 0xE24 ADD MSTORE PUSH0 PUSH2 0xE4E ADD MSTORE PUSH2 0x1B11 PUSH0 RETURN INVALID PUSH1 0x80 PUSH1 0x40 MSTORE CALLVALUE DUP1 ISZERO PUSH2 0xF JUMPI PUSH0 DUP1 REVERT JUMPDEST POP PUSH1 0x4 CALLDATASIZE LT PUSH2 0x1A1 JUMPI PUSH0 CALLDATALOAD PUSH1 0xE0 SHR DUP1 PUSH4 0x76EE947F GT PUSH2 0xF3 JUMPI DUP1 PUSH4 0xC4A9E858 GT PUSH2 0x93 JUMPI DUP1 PUSH4 0xF2FDE38B GT PUSH2 0x6E JUMPI DUP1 PUSH4 0xF2FDE38B EQ PUSH2 0x349 JUMPI DUP1 PUSH4 0xF851A440 EQ PUSH2 0x35C JUMPI DUP1 PUSH4 0xF9C3A1E8 EQ PUSH2 0x36F JUMPI DUP1 PUSH4 0xFD918716 EQ PUSH2 0x382 JUMPI PUSH0 DUP1 REVERT JUMPDEST DUP1 PUSH4 0xC4A9E858 EQ PUSH2 0x324 JUMPI DUP1 PUSH4 0xE1FEFD42 EQ PUSH2 0x32D JUMPI DUP1 PUSH4 0xE63EA408 EQ PUSH2 0x336 JUMPI PUSH0 DUP1 REVERT JUMPDEST DUP1 PUSH4 0x8DA5CB5B GT PUSH2 0xCE JUMPI DUP1 PUSH4 0x8DA5CB5B EQ PUSH2 0x2C7 JUMPI DUP1 PUSH4 0x9683CDC4 EQ PUSH2 0x2EB JUMPI DUP1 PUSH4 0xAC1E5025 EQ PUSH2 0x2FE JUMPI DUP1 PUSH4 0xC08E7286 EQ PUSH2 0x311 JUMPI PUSH0 DUP1 REVERT JUMPDEST DUP1 PUSH4 0x76EE947F EQ PUSH2 0x290 JUMPI DUP1 PUSH4 0x84B0196E EQ PUSH2 0x2A3 JUMPI DUP1 PUSH4 0x8BC7E8C4 EQ PUSH2 0x2BE JUMPI PUSH0 DUP1 REVERT JUMPDEST DUP1 PUSH4 0x34FCF437 GT PUSH2 0x15E JUMPI DUP1 PUSH4 0x67A52793 GT PUSH2 0x139 JUMPI DUP1 PUSH4 0x67A52793 EQ PUSH2 0x259 JUMPI DUP1 PUSH4 0x6B4C0789 EQ PUSH2 0x262 JUMPI DUP1 PUSH4 0x704B6C02 EQ PUSH2 0x275 JUMPI DUP1 PUSH4 0x715018A6 EQ PUSH2 0x288 JUMPI PUSH0 DUP1 REVERT JUMPDEST DUP1 PUSH4 0x34FCF437 EQ PUSH2 0x22B JUMPI DUP1 PUSH4 0x3644E515 EQ PUSH2 0x23E JUMPI DUP1 PUSH4 0x6313C6D8 EQ PUSH2 0x246 JUMPI PUSH0 DUP1 REVERT JUMPDEST DUP1 PUSH4 0x6E0E582 EQ PUSH2 0x1A5 JUMPI DUP1 PUSH4 0xACE9CA0 EQ PUSH2 0x1C1 JUMPI DUP1 PUSH4 0xD461E61 EQ PUSH2 0x1D6 JUMPI DUP1 PUSH4 0x252DE51B EQ PUSH2 0x1E9 JUMPI DUP1 PUSH4 0x258BA1EE EQ PUSH2 0x20D JUMPI DUP1 PUSH4 0x2C4E722E EQ PUSH2 0x222 JUMPI JUMPDEST PUSH0 DUP1 REVERT JUMPDEST PUSH2 0x1AE PUSH1 0xB SLOAD DUP2 JUMP JUMPDEST PUSH1 0x40 MLOAD SWAP1 DUP2 MSTORE PUSH1 0x20 ADD JUMPDEST PUSH1 0x40 MLOAD DUP1 SWAP2 SUB SWAP1 RETURN JUMPDEST PUSH2 0x1C9 PUSH2 0x38B JUMP JUMPDEST PUSH1 0x40 MLOAD PUSH2 0x1B8 SWAP2 SWAP1 PUSH2 0x16A8 JUMP JUMPDEST PUSH2 0x1AE PUSH2 0x1E4 CALLDATASIZE PUSH1 0x4 PUSH2 0x16BA JUMP JUMPDEST PUSH2 0x417 JUMP JUMPDEST PUSH1 0xF SLOAD PUSH2 0x1FD SWAP1 PUSH1 0x1 PUSH1 0xA0 SHL SWAP1 DIV PUSH1 0xFF AND DUP2 JUMP JUMPDEST PUSH1 0x40 MLOAD SWAP1 ISZERO ISZERO DUP2 MSTORE PUSH1 0x20 ADD PUSH2 0x1B8 JUMP JUMPDEST PUSH2 0x220 PUSH2 0x21B CALLDATASIZE PUSH1 0x4 PUSH2 0x16EC JUMP JUMPDEST PUSH2 0x53E JUMP JUMPDEST STOP JUMPDEST PUSH2 0x1AE PUSH1 0x8 SLOAD DUP2 JUMP JUMPDEST PUSH2 0x220 PUSH2 0x239 CALLDATASIZE PUSH1 0x4 PUSH2 0x16BA JUMP JUMPDEST PUSH2 0x58E JUMP JUMPDEST PUSH2 0x1AE PUSH2 0x59B JUMP JUMPDEST PUSH2 0x220 PUSH2 0x254 CALLDATASIZE PUSH1 0x4 PUSH2 0x172B JUMP JUMPDEST PUSH2 0x5A9 JUMP JUMPDEST PUSH2 0x1AE PUSH1 0x7 SLOAD DUP2 JUMP JUMPDEST PUSH2 0x220 PUSH2 0x270 CALLDATASIZE PUSH1 0x4 PUSH2 0x178E JUMP JUMPDEST PUSH2 0x6F4 JUMP JUMPDEST PUSH2 0x220 PUSH2 0x283 CALLDATASIZE PUSH1 0x4 PUSH2 0x17A9 JUMP JUMPDEST PUSH2 0x71A JUMP JUMPDEST PUSH2 0x220 PUSH2 0x744 JUMP JUMPDEST PUSH2 0x220 PUSH2 0x29E CALLDATASIZE PUSH1 0x4 PUSH2 0x16BA JUMP JUMPDEST PUSH2 0x757 JUMP JUMPDEST PUSH2 0x2AB PUSH2 0x764 JUMP JUMPDEST PUSH1 0x40 MLOAD PUSH2 0x1B8 SWAP8 SWAP7 SWAP6 SWAP5 SWAP4 SWAP3 SWAP2 SWAP1 PUSH2 0x17C2 JUMP JUMPDEST PUSH2 0x1AE PUSH1 0x9 SLOAD DUP2 JUMP JUMPDEST PUSH0 SLOAD PUSH1 0x1 PUSH1 0x1 PUSH1 0xA0 SHL SUB AND JUMPDEST PUSH1 0x40 MLOAD PUSH1 0x1 PUSH1 0x1 PUSH1 0xA0 SHL SUB SWAP1 SWAP2 AND DUP2 MSTORE PUSH1 0x20 ADD PUSH2 0x1B8 JUMP JUMPDEST PUSH2 0x220 PUSH2 0x2F9 CALLDATASIZE PUSH1 0x4 PUSH2 0x17A9 JUMP JUMPDEST PUSH2 0x7A6 JUMP JUMPDEST PUSH2 0x220 PUSH2 0x30C CALLDATASIZE PUSH1 0x4 PUSH2 0x16BA JUMP JUMPDEST PUSH2 0x918 JUMP JUMPDEST PUSH2 0x220 PUSH2 0x31F CALLDATASIZE PUSH1 0x4 PUSH2 0x16BA JUMP JUMPDEST PUSH2 0x925 JUMP JUMPDEST PUSH2 0x1AE PUSH1 0xD SLOAD DUP2 JUMP JUMPDEST PUSH2 0x1AE PUSH1 0xA SLOAD DUP2 JUMP JUMPDEST PUSH2 0x220 PUSH2 0x344 CALLDATASIZE PUSH1 0x4 PUSH2 0x1859 JUMP JUMPDEST PUSH2 0x9B1 JUMP JUMPDEST PUSH2 0x220 PUSH2 0x357 CALLDATASIZE PUSH1 0x4 PUSH2 0x17A9 JUMP JUMPDEST PUSH2 0xABC JUMP JUMPDEST PUSH1 0xF SLOAD PUSH2 0x2D3 SWAP1 PUSH1 0x1 PUSH1 0x1 PUSH1 0xA0 SHL SUB AND DUP2 JUMP JUMPDEST PUSH2 0x220 PUSH2 0x37D CALLDATASIZE PUSH1 0x4 PUSH2 0x172B JUMP JUMPDEST PUSH2 0xAF9 JUMP JUMPDEST PUSH2 0x1AE PUSH1 0xC SLOAD DUP2 JUMP JUMPDEST PUSH1 0xE DUP1 SLOAD PUSH2 0x398 SWAP1 PUSH2 0x1892 JUMP JUMPDEST DUP1 PUSH1 0x1F ADD PUSH1 0x20 DUP1 SWAP2 DIV MUL PUSH1 0x20 ADD PUSH1 0x40 MLOAD SWAP1 DUP2 ADD PUSH1 0x40 MSTORE DUP1 SWAP3 SWAP2 SWAP1 DUP2 DUP2 MSTORE PUSH1 0x20 ADD DUP3 DUP1 SLOAD PUSH2 0x3C4 SWAP1 PUSH2 0x1892 JUMP JUMPDEST DUP1 ISZERO PUSH2 0x40F JUMPI DUP1 PUSH1 0x1F LT PUSH2 0x3E6 JUMPI PUSH2 0x100 DUP1 DUP4 SLOAD DIV MUL DUP4 MSTORE SWAP2 PUSH1 0x20 ADD SWAP2 PUSH2 0x40F JUMP JUMPDEST DUP3 ADD SWAP2 SWAP1 PUSH0 MSTORE PUSH1 0x20 PUSH0 KECCAK256 SWAP1 JUMPDEST DUP2 SLOAD DUP2 MSTORE SWAP1 PUSH1 0x1 ADD SWAP1 PUSH1 0x20 ADD DUP1 DUP4 GT PUSH2 0x3F2 JUMPI DUP3 SWAP1 SUB PUSH1 0x1F AND DUP3 ADD SWAP2 JUMPDEST POP POP POP POP POP DUP2 JUMP JUMPDEST PUSH1 0x4 DUP1 SLOAD PUSH1 0x40 DUP1 MLOAD PUSH4 0x313CE567 PUSH1 0xE0 SHL DUP2 MSTORE SWAP1 MLOAD PUSH0 SWAP4 DUP5 SWAP4 PUSH1 0x1 PUSH1 0x1 PUSH1 0xA0 SHL SUB AND SWAP3 PUSH4 0x313CE567 SWAP3 DUP2 DUP4 ADD SWAP3 PUSH1 0x20 SWAP3 DUP3 SWAP1 SUB ADD DUP2 DUP7 GAS STATICCALL ISZERO DUP1 ISZERO PUSH2 0x45D JUMPI RETURNDATASIZE PUSH0 DUP1 RETURNDATACOPY RETURNDATASIZE PUSH0 REVERT JUMPDEST POP POP POP POP PUSH1 0x40 MLOAD RETURNDATASIZE PUSH1 0x1F NOT PUSH1 0x1F DUP3 ADD AND DUP3 ADD DUP1 PUSH1 0x40 MSTORE POP DUP2 ADD SWAP1 PUSH2 0x481 SWAP2 SWAP1 PUSH2 0x18CA JUMP JUMPDEST PUSH2 0x48C SWAP1 PUSH1 0xA PUSH2 0x19D9 JUMP JUMPDEST PUSH1 0x8 SLOAD PUSH2 0x499 SWAP2 SWAP1 PUSH2 0x19E7 JUMP JUMPDEST PUSH1 0x3 PUSH0 SWAP1 SLOAD SWAP1 PUSH2 0x100 EXP SWAP1 DIV PUSH1 0x1 PUSH1 0x1 PUSH1 0xA0 SHL SUB AND PUSH1 0x1 PUSH1 0x1 PUSH1 0xA0 SHL SUB AND PUSH4 0x313CE567 PUSH1 0x40 MLOAD DUP2 PUSH4 0xFFFFFFFF AND PUSH1 0xE0 SHL DUP2 MSTORE PUSH1 0x4 ADD PUSH1 0x20 PUSH1 0x40 MLOAD DUP1 DUP4 SUB DUP2 DUP7 GAS STATICCALL ISZERO DUP1 ISZERO PUSH2 0x4E9 JUMPI RETURNDATASIZE PUSH0 DUP1 RETURNDATACOPY RETURNDATASIZE PUSH0 REVERT JUMPDEST POP POP POP POP PUSH1 0x40 MLOAD RETURNDATASIZE PUSH1 0x1F NOT PUSH1 0x1F DUP3 ADD AND DUP3 ADD DUP1 PUSH1 0x40 MSTORE POP DUP2 ADD SWAP1 PUSH2 0x50D SWAP2 SWAP1 PUSH2 0x18CA JUMP JUMPDEST PUSH2 0x518 SWAP1 PUSH1 0xA PUSH2 0x19D9 JUMP JUMPDEST PUSH2 0x523 DUP6 PUSH1 0x1 PUSH2 0x19E7 JUMP JUMPDEST PUSH2 0x52D SWAP2 SWAP1 PUSH2 0x19E7 JUMP JUMPDEST PUSH2 0x537 SWAP2 SWAP1 PUSH2 0x19FE JUMP JUMPDEST SWAP4 SWAP3 POP POP POP JUMP JUMPDEST PUSH2 0x546 PUSH2 0xDC2 JUMP JUMPDEST PUSH1 0x3 DUP1 SLOAD PUSH1 0x1 PUSH1 0x1 PUSH1 0xA0 SHL SUB SWAP4 DUP5 AND PUSH1 0x1 PUSH1 0x1 PUSH1 0xA0 SHL SUB NOT SWAP2 DUP3 AND DUP2 OR SWAP1 SWAP3 SSTORE PUSH1 0x5 DUP1 SLOAD DUP3 AND SWAP1 SWAP3 OR SWAP1 SWAP2 SSTORE PUSH1 0x4 DUP1 SLOAD SWAP3 SWAP1 SWAP4 AND SWAP2 DUP2 AND DUP3 OR SWAP1 SWAP3 SSTORE PUSH1 0x6 DUP1 SLOAD SWAP1 SWAP3 AND OR SWAP1 SSTORE JUMP JUMPDEST PUSH2 0x596 PUSH2 0xDC2 JUMP JUMPDEST PUSH1 0x8 SSTORE JUMP JUMPDEST PUSH0 PUSH2 0x5A4 PUSH2 0xDEE JUMP JUMPDEST SWAP1 POP SWAP1 JUMP JUMPDEST PUSH1 0x1 PUSH1 0x1 PUSH1 0xA0 SHL SUB DUP7 AND PUSH2 0x5D8 JUMPI PUSH1 0x40 MLOAD PUSH3 0x461BCD PUSH1 0xE5 SHL DUP2 MSTORE PUSH1 0x4 ADD PUSH2 0x5CF SWAP1 PUSH2 0x1A1D JUMP JUMPDEST PUSH1 0x40 MLOAD DUP1 SWAP2 SUB SWAP1 REVERT JUMPDEST PUSH2 0x5E6 DUP7 DUP7 DUP7 DUP7 DUP7 DUP7 PUSH2 0xF17 JUMP JUMPDEST PUSH1 0xF SLOAD PUSH1 0x1 PUSH1 0xA0 SHL SWAP1 DIV PUSH1 0xFF AND ISZERO PUSH2 0x633 JUMPI PUSH1 0x40 MLOAD PUSH3 0x461BCD PUSH1 0xE5 SHL DUP2 MSTORE PUSH1 0x20 PUSH1 0x4 DUP3 ADD MSTORE PUSH1 0x10 PUSH1 0x24 DUP3 ADD MSTORE PUSH16 0x18DBDB9D1C9858DD08199C99595E9959 PUSH1 0x82 SHL PUSH1 0x44 DUP3 ADD MSTORE PUSH1 0x64 ADD PUSH2 0x5CF JUMP JUMPDEST PUSH1 0xA SLOAD DUP6 LT ISZERO PUSH2 0x691 JUMPI PUSH1 0x40 MLOAD PUSH3 0x461BCD PUSH1 0xE5 SHL DUP2 MSTORE PUSH1 0x20 PUSH1 0x4 DUP3 ADD MSTORE PUSH1 0x23 PUSH1 0x24 DUP3 ADD MSTORE PUSH32 0x706F696E747320746F20636C61696D206C657373207468616E206D696E706F69 PUSH1 0x44 DUP3 ADD MSTORE PUSH3 0x6E7473 PUSH1 0xE8 SHL PUSH1 0x64 DUP3 ADD MSTORE PUSH1 0x84 ADD PUSH2 0x5CF JUMP JUMPDEST PUSH1 0x6 SLOAD PUSH2 0x6A8 SWAP1 PUSH1 0x1 PUSH1 0x1 PUSH1 0xA0 SHL SUB AND DUP8 DUP8 PUSH2 0x10DF JUMP JUMPDEST TIMESTAMP DUP7 PUSH1 0x1 PUSH1 0x1 PUSH1 0xA0 SHL SUB AND PUSH32 0xD8FB6DBEAADFF1D38BB96624EC3BD037611260D2B198D0F78CC1F0955563E756 DUP8 PUSH1 0x40 MLOAD PUSH2 0x6E4 SWAP2 DUP2 MSTORE PUSH1 0x20 ADD SWAP1 JUMP JUMPDEST PUSH1 0x40 MLOAD DUP1 SWAP2 SUB SWAP1 LOG3 POP POP POP POP POP POP JUMP JUMPDEST PUSH2 0x6FC PUSH2 0xDC2 JUMP JUMPDEST PUSH1 0xF DUP1 SLOAD SWAP2 ISZERO ISZERO PUSH1 0x1 PUSH1 0xA0 SHL MUL PUSH1 0xFF PUSH1 0xA0 SHL NOT SWAP1 SWAP3 AND SWAP2 SWAP1 SWAP2 OR SWAP1 SSTORE JUMP JUMPDEST PUSH2 0x722 PUSH2 0xDC2 JUMP JUMPDEST PUSH1 0xF DUP1 SLOAD PUSH1 0x1 PUSH1 0x1 PUSH1 0xA0 SHL SUB NOT AND PUSH1 0x1 PUSH1 0x1 PUSH1 0xA0 SHL SUB SWAP3 SWAP1 SWAP3 AND SWAP2 SWAP1 SWAP2 OR SWAP1 SSTORE JUMP JUMPDEST PUSH2 0x74C PUSH2 0xDC2 JUMP JUMPDEST PUSH2 0x755 PUSH0 PUSH2 0x1136 JUMP JUMPDEST JUMP JUMPDEST PUSH2 0x75F PUSH2 0xDC2 JUMP JUMPDEST PUSH1 0x7 SSTORE JUMP JUMPDEST PUSH0 PUSH1 0x60 DUP1 PUSH0 DUP1 PUSH0 PUSH1 0x60 PUSH2 0x775 PUSH2 0x1185 JUMP JUMPDEST PUSH2 0x77D PUSH2 0x11B2 JUMP JUMPDEST PUSH1 0x40 DUP1 MLOAD PUSH0 DUP1 DUP3 MSTORE PUSH1 0x20 DUP3 ADD SWAP1 SWAP3 MSTORE PUSH1 0xF PUSH1 0xF8 SHL SWAP12 SWAP4 SWAP11 POP SWAP2 SWAP9 POP CHAINID SWAP8 POP ADDRESS SWAP7 POP SWAP5 POP SWAP3 POP SWAP1 POP JUMP JUMPDEST PUSH2 0x7AE PUSH2 0xDC2 JUMP JUMPDEST PUSH1 0x1 PUSH1 0x1 PUSH1 0xA0 SHL SUB DUP2 AND PUSH2 0x7D4 JUMPI PUSH1 0x40 MLOAD PUSH3 0x461BCD PUSH1 0xE5 SHL DUP2 MSTORE PUSH1 0x4 ADD PUSH2 0x5CF SWAP1 PUSH2 0x1A1D JUMP JUMPDEST PUSH1 0x3 SLOAD PUSH1 0x40 MLOAD PUSH4 0x70A08231 PUSH1 0xE0 SHL DUP2 MSTORE ADDRESS PUSH1 0x4 DUP3 ADD MSTORE PUSH0 SWAP2 PUSH1 0x1 PUSH1 0x1 PUSH1 0xA0 SHL SUB AND SWAP1 PUSH4 0x70A08231 SWAP1 PUSH1 0x24 ADD PUSH1 0x20 PUSH1 0x40 MLOAD DUP1 DUP4 SUB DUP2 DUP7 GAS STATICCALL ISZERO DUP1 ISZERO PUSH2 0x81A JUMPI RETURNDATASIZE PUSH0 DUP1 RETURNDATACOPY RETURNDATASIZE PUSH0 REVERT JUMPDEST POP POP POP POP PUSH1 0x40 MLOAD RETURNDATASIZE PUSH1 0x1F NOT PUSH1 0x1F DUP3 ADD AND DUP3 ADD DUP1 PUSH1 0x40 MSTORE POP DUP2 ADD SWAP1 PUSH2 0x83E SWAP2 SWAP1 PUSH2 0x1A54 JUMP JUMPDEST SWAP1 POP PUSH0 PUSH1 0xB SLOAD PUSH1 0xD SLOAD PUSH1 0xC SLOAD DUP5 PUSH2 0x855 SWAP2 SWAP1 PUSH2 0x1A6B JUMP JUMPDEST PUSH2 0x85F SWAP2 SWAP1 PUSH2 0x1A6B JUMP JUMPDEST PUSH2 0x869 SWAP2 SWAP1 PUSH2 0x1A7E JUMP JUMPDEST SWAP1 POP DUP1 PUSH1 0xB PUSH0 DUP3 DUP3 SLOAD PUSH2 0x87C SWAP2 SWAP1 PUSH2 0x1A6B JUMP JUMPDEST SWAP1 SWAP2 SSTORE POP POP PUSH1 0x7 SLOAD PUSH0 SWAP1 PUSH1 0x64 SWAP1 PUSH2 0x893 SWAP1 DUP5 PUSH2 0x19E7 JUMP JUMPDEST PUSH2 0x89D SWAP2 SWAP1 PUSH2 0x19FE JUMP JUMPDEST SWAP1 POP PUSH0 DUP2 GT PUSH2 0x8E5 JUMPI PUSH1 0x40 MLOAD PUSH3 0x461BCD PUSH1 0xE5 SHL DUP2 MSTORE PUSH1 0x20 PUSH1 0x4 DUP3 ADD MSTORE PUSH1 0x14 PUSH1 0x24 DUP3 ADD MSTORE PUSH20 0x1B9BC81B995DC819195C1BDCDA5D081859191959 PUSH1 0x62 SHL PUSH1 0x44 DUP3 ADD MSTORE PUSH1 0x64 ADD PUSH2 0x5CF JUMP JUMPDEST DUP1 PUSH1 0xD PUSH0 DUP3 DUP3 SLOAD PUSH2 0x8F6 SWAP2 SWAP1 PUSH2 0x1A6B JUMP JUMPDEST SWAP1 SWAP2 SSTORE POP POP PUSH1 0x5 SLOAD PUSH2 0x912 SWAP1 PUSH1 0x1 PUSH1 0x1 PUSH1 0xA0 SHL SUB AND DUP6 DUP4 PUSH2 0x10DF JUMP JUMPDEST POP POP POP POP JUMP JUMPDEST PUSH2 0x920 PUSH2 0xDC2 JUMP JUMPDEST PUSH1 0x9 SSTORE JUMP JUMPDEST PUSH2 0x92D PUSH2 0xDC2 JUMP JUMPDEST PUSH1 0x4 DUP1 SLOAD PUSH1 0x40 DUP1 MLOAD PUSH4 0x313CE567 PUSH1 0xE0 SHL DUP2 MSTORE SWAP1 MLOAD PUSH1 0x1 PUSH1 0x1 PUSH1 0xA0 SHL SUB SWAP1 SWAP3 AND SWAP3 PUSH4 0x313CE567 SWAP3 DUP3 DUP3 ADD SWAP3 PUSH1 0x20 SWAP3 SWAP1 DUP3 SWAP1 SUB ADD DUP2 DUP7 GAS STATICCALL ISZERO DUP1 ISZERO PUSH2 0x972 JUMPI RETURNDATASIZE PUSH0 DUP1 RETURNDATACOPY RETURNDATASIZE PUSH0 REVERT JUMPDEST POP POP POP POP PUSH1 0x40 MLOAD RETURNDATASIZE PUSH1 0x1F NOT PUSH1 0x1F DUP3 ADD AND DUP3 ADD DUP1 PUSH1 0x40 MSTORE POP DUP2 ADD SWAP1 PUSH2 0x996 SWAP2 SWAP1 PUSH2 0x18CA JUMP JUMPDEST PUSH2 0x9A1 SWAP1 PUSH1 0xA PUSH2 0x19D9 JUMP JUMPDEST PUSH2 0x9AB SWAP1 DUP3 PUSH2 0x19E7 JUMP JUMPDEST PUSH1 0xA SSTORE POP JUMP JUMPDEST PUSH2 0x9B9 PUSH2 0xDC2 JUMP JUMPDEST PUSH1 0x1 PUSH1 0x1 PUSH1 0xA0 SHL SUB DUP4 AND PUSH2 0x9DF JUMPI PUSH1 0x40 MLOAD PUSH3 0x461BCD PUSH1 0xE5 SHL DUP2 MSTORE PUSH1 0x4 ADD PUSH2 0x5CF SWAP1 PUSH2 0x1A1D JUMP JUMPDEST PUSH1 0x1 PUSH1 0x1 PUSH1 0xA0 SHL SUB DUP3 AND PUSH2 0xA05 JUMPI PUSH1 0x40 MLOAD PUSH3 0x461BCD PUSH1 0xE5 SHL DUP2 MSTORE PUSH1 0x4 ADD PUSH2 0x5CF SWAP1 PUSH2 0x1A1D JUMP JUMPDEST PUSH0 DUP2 GT PUSH2 0xA4C JUMPI PUSH1 0x40 MLOAD PUSH3 0x461BCD PUSH1 0xE5 SHL DUP2 MSTORE PUSH1 0x20 PUSH1 0x4 DUP3 ADD MSTORE PUSH1 0x15 PUSH1 0x24 DUP3 ADD MSTORE PUSH21 0x18D85B9D081CD95B99081E995C9BC8185B5BDD5B9D PUSH1 0x5A SHL PUSH1 0x44 DUP3 ADD MSTORE PUSH1 0x64 ADD PUSH2 0x5CF JUMP JUMPDEST PUSH1 0x40 MLOAD PUSH4 0xA9059CBB PUSH1 0xE0 SHL DUP2 MSTORE PUSH1 0x1 PUSH1 0x1 PUSH1 0xA0 SHL SUB DUP4 DUP2 AND PUSH1 0x4 DUP4 ADD MSTORE PUSH1 0x24 DUP3 ADD DUP4 SWAP1 MSTORE DUP5 AND SWAP1 PUSH4 0xA9059CBB SWAP1 PUSH1 0x44 ADD PUSH1 0x20 PUSH1 0x40 MLOAD DUP1 DUP4 SUB DUP2 PUSH0 DUP8 GAS CALL ISZERO DUP1 ISZERO PUSH2 0xA98 JUMPI RETURNDATASIZE PUSH0 DUP1 RETURNDATACOPY RETURNDATASIZE PUSH0 REVERT JUMPDEST POP POP POP POP PUSH1 0x40 MLOAD RETURNDATASIZE PUSH1 0x1F NOT PUSH1 0x1F DUP3 ADD AND DUP3 ADD DUP1 PUSH1 0x40 MSTORE POP DUP2 ADD SWAP1 PUSH2 0x912 SWAP2 SWAP1 PUSH2 0x1A91 JUMP JUMPDEST PUSH2 0xAC4 PUSH2 0xDC2 JUMP JUMPDEST PUSH1 0x1 PUSH1 0x1 PUSH1 0xA0 SHL SUB DUP2 AND PUSH2 0xAED JUMPI PUSH1 0x40 MLOAD PUSH4 0x1E4FBDF7 PUSH1 0xE0 SHL DUP2 MSTORE PUSH0 PUSH1 0x4 DUP3 ADD MSTORE PUSH1 0x24 ADD PUSH2 0x5CF JUMP JUMPDEST PUSH2 0xAF6 DUP2 PUSH2 0x1136 JUMP JUMPDEST POP JUMP JUMPDEST PUSH1 0x1 PUSH1 0x1 PUSH1 0xA0 SHL SUB DUP7 AND PUSH2 0xB1F JUMPI PUSH1 0x40 MLOAD PUSH3 0x461BCD PUSH1 0xE5 SHL DUP2 MSTORE PUSH1 0x4 ADD PUSH2 0x5CF SWAP1 PUSH2 0x1A1D JUMP JUMPDEST PUSH2 0xB2D DUP7 DUP7 DUP7 DUP7 DUP7 DUP7 PUSH2 0xF17 JUMP JUMPDEST PUSH1 0xF SLOAD PUSH1 0x1 PUSH1 0xA0 SHL SWAP1 DIV PUSH1 0xFF AND ISZERO PUSH2 0xB7A JUMPI PUSH1 0x40 MLOAD PUSH3 0x461BCD PUSH1 0xE5 SHL DUP2 MSTORE PUSH1 0x20 PUSH1 0x4 DUP3 ADD MSTORE PUSH1 0x10 PUSH1 0x24 DUP3 ADD MSTORE PUSH16 0x18DBDB9D1C9858DD08199C99595E9959 PUSH1 0x82 SHL PUSH1 0x44 DUP3 ADD MSTORE PUSH1 0x64 ADD PUSH2 0x5CF JUMP JUMPDEST PUSH1 0x4 DUP1 SLOAD PUSH1 0x40 MLOAD PUSH4 0x70A08231 PUSH1 0xE0 SHL DUP2 MSTORE PUSH1 0x1 PUSH1 0x1 PUSH1 0xA0 SHL SUB DUP10 DUP2 AND SWAP4 DUP3 ADD SWAP4 SWAP1 SWAP4 MSTORE DUP8 SWAP3 SWAP1 SWAP2 AND SWAP1 PUSH4 0x70A08231 SWAP1 PUSH1 0x24 ADD PUSH1 0x20 PUSH1 0x40 MLOAD DUP1 DUP4 SUB DUP2 DUP7 GAS STATICCALL ISZERO DUP1 ISZERO PUSH2 0xBC7 JUMPI RETURNDATASIZE PUSH0 DUP1 RETURNDATACOPY RETURNDATASIZE PUSH0 REVERT JUMPDEST POP POP POP POP PUSH1 0x40 MLOAD RETURNDATASIZE PUSH1 0x1F NOT PUSH1 0x1F DUP3 ADD AND DUP3 ADD DUP1 PUSH1 0x40 MSTORE POP DUP2 ADD SWAP1 PUSH2 0xBEB SWAP2 SWAP1 PUSH2 0x1A54 JUMP JUMPDEST LT ISZERO PUSH2 0xC2D JUMPI PUSH1 0x40 MLOAD PUSH3 0x461BCD PUSH1 0xE5 SHL DUP2 MSTORE PUSH1 0x20 PUSH1 0x4 DUP3 ADD MSTORE PUSH1 0x11 PUSH1 0x24 DUP3 ADD MSTORE PUSH17 0x6E6F7420656E6F75676820706F696E7473 PUSH1 0x78 SHL PUSH1 0x44 DUP3 ADD MSTORE PUSH1 0x64 ADD PUSH2 0x5CF JUMP JUMPDEST PUSH1 0xA SLOAD DUP6 LT ISZERO PUSH2 0xC8A JUMPI PUSH1 0x40 MLOAD PUSH3 0x461BCD PUSH1 0xE5 SHL DUP2 MSTORE PUSH1 0x20 PUSH1 0x4 DUP3 ADD MSTORE PUSH1 0x22 PUSH1 0x24 DUP3 ADD MSTORE PUSH32 0x706F696E747320746F2073776170206C657373207468616E206D696E706F696E PUSH1 0x44 DUP3 ADD MSTORE PUSH2 0x7473 PUSH1 0xF0 SHL PUSH1 0x64 DUP3 ADD MSTORE PUSH1 0x84 ADD PUSH2 0x5CF JUMP JUMPDEST PUSH0 PUSH2 0xC94 DUP7 PUSH2 0x417 JUMP JUMPDEST SWAP1 POP DUP1 PUSH1 0xC PUSH0 DUP3 DUP3 SLOAD PUSH2 0xCA7 SWAP2 SWAP1 PUSH2 0x1A6B JUMP JUMPDEST SWAP1 SWAP2 SSTORE POP POP PUSH1 0x9 SLOAD PUSH0 SWAP1 PUSH1 0x64 SWAP1 PUSH2 0xCBE SWAP1 DUP5 PUSH2 0x19E7 JUMP JUMPDEST PUSH2 0xCC8 SWAP2 SWAP1 PUSH2 0x19FE JUMP JUMPDEST SWAP1 POP PUSH0 PUSH2 0xCD5 DUP3 DUP5 PUSH2 0x1A7E JUMP JUMPDEST PUSH1 0x4 DUP1 SLOAD PUSH1 0x40 MLOAD PUSH4 0x2770A7EB PUSH1 0xE2 SHL DUP2 MSTORE PUSH1 0x1 PUSH1 0x1 PUSH1 0xA0 SHL SUB DUP14 DUP2 AND SWAP4 DUP3 ADD SWAP4 SWAP1 SWAP4 MSTORE PUSH1 0x24 DUP2 ADD DUP13 SWAP1 MSTORE SWAP3 SWAP4 POP AND SWAP1 PUSH4 0x9DC29FAC SWAP1 PUSH1 0x44 ADD PUSH0 PUSH1 0x40 MLOAD DUP1 DUP4 SUB DUP2 PUSH0 DUP8 DUP1 EXTCODESIZE ISZERO DUP1 ISZERO PUSH2 0xD24 JUMPI PUSH0 DUP1 REVERT JUMPDEST POP GAS CALL ISZERO DUP1 ISZERO PUSH2 0xD36 JUMPI RETURNDATASIZE PUSH0 DUP1 RETURNDATACOPY RETURNDATASIZE PUSH0 REVERT JUMPDEST POP POP PUSH1 0x5 SLOAD PUSH2 0xD52 SWAP3 POP PUSH1 0x1 PUSH1 0x1 PUSH1 0xA0 SHL SUB AND SWAP1 POP DUP11 DUP4 PUSH2 0x10DF JUMP JUMPDEST PUSH1 0x5 SLOAD PUSH2 0xD69 SWAP1 PUSH1 0x1 PUSH1 0x1 PUSH1 0xA0 SHL SUB AND CALLER DUP5 PUSH2 0x10DF JUMP JUMPDEST PUSH1 0x40 DUP1 MLOAD DUP10 DUP2 MSTORE PUSH1 0x20 DUP2 ADD DUP4 SWAP1 MSTORE SWAP1 DUP2 ADD DUP4 SWAP1 MSTORE TIMESTAMP SWAP1 PUSH1 0x1 PUSH1 0x1 PUSH1 0xA0 SHL SUB DUP12 AND SWAP1 PUSH32 0x9A5F60E59CC27A7C25A7F78275C910454CD9ADACB21CECFF527C98ED63E02877 SWAP1 PUSH1 0x60 ADD PUSH1 0x40 MLOAD DUP1 SWAP2 SUB SWAP1 LOG3 POP POP POP POP POP POP POP POP POP JUMP JUMPDEST PUSH0 SLOAD PUSH1 0x1 PUSH1 0x1 PUSH1 0xA0 SHL SUB AND CALLER EQ PUSH2 0x755 JUMPI PUSH1 0x40 MLOAD PUSH4 0x118CDAA7 PUSH1 0xE0 SHL DUP2 MSTORE CALLER PUSH1 0x4 DUP3 ADD MSTORE PUSH1 0x24 ADD PUSH2 0x5CF JUMP JUMPDEST PUSH0 ADDRESS PUSH1 0x1 PUSH1 0x1 PUSH1 0xA0 SHL SUB PUSH32 0x0 AND EQ DUP1 ISZERO PUSH2 0xE46 JUMPI POP PUSH32 0x0 CHAINID EQ JUMPDEST ISZERO PUSH2 0xE70 JUMPI POP PUSH32 0x0 SWAP1 JUMP JUMPDEST PUSH2 0x5A4 PUSH1 0x40 DUP1 MLOAD PUSH32 0x8B73C3C69BB8FE3D512ECC4CF759CC79239F7B179B0FFACAA9A75D522B39400F PUSH1 0x20 DUP3 ADD MSTORE PUSH32 0x0 SWAP2 DUP2 ADD SWAP2 SWAP1 SWAP2 MSTORE PUSH32 0x0 PUSH1 0x60 DUP3 ADD MSTORE CHAINID PUSH1 0x80 DUP3 ADD MSTORE ADDRESS PUSH1 0xA0 DUP3 ADD MSTORE PUSH0 SWAP1 PUSH1 0xC0 ADD PUSH1 0x40 MLOAD PUSH1 0x20 DUP2 DUP4 SUB SUB DUP2 MSTORE SWAP1 PUSH1 0x40 MSTORE DUP1 MLOAD SWAP1 PUSH1 0x20 ADD KECCAK256 SWAP1 POP SWAP1 JUMP JUMPDEST PUSH1 0xFF DUP1 DUP5 AND PUSH0 SWAP1 DUP2 MSTORE PUSH1 0x10 PUSH1 0x20 MSTORE PUSH1 0x40 SWAP1 KECCAK256 SLOAD AND ISZERO DUP1 PUSH2 0xF45 JUMPI POP PUSH0 DUP3 DUP2 MSTORE PUSH1 0x11 PUSH1 0x20 MSTORE PUSH1 0x40 SWAP1 KECCAK256 SLOAD PUSH1 0xFF AND ISZERO JUMPDEST DUP1 PUSH2 0xF5E JUMPI POP PUSH0 DUP2 DUP2 MSTORE PUSH1 0x12 PUSH1 0x20 MSTORE PUSH1 0x40 SWAP1 KECCAK256 SLOAD PUSH1 0xFF AND ISZERO JUMPDEST PUSH2 0xF95 JUMPI PUSH1 0x40 MLOAD PUSH3 0x461BCD PUSH1 0xE5 SHL DUP2 MSTORE PUSH1 0x20 PUSH1 0x4 DUP3 ADD MSTORE PUSH1 0x8 PUSH1 0x24 DUP3 ADD MSTORE PUSH8 0x1CDA59C81D5CD959 PUSH1 0xC2 SHL PUSH1 0x44 DUP3 ADD MSTORE PUSH1 0x64 ADD PUSH2 0x5CF JUMP JUMPDEST DUP4 TIMESTAMP GT ISZERO PUSH2 0xFB9 JUMPI PUSH1 0x40 MLOAD PUSH4 0x313C8981 PUSH1 0xE1 SHL DUP2 MSTORE PUSH1 0x4 DUP2 ADD DUP6 SWAP1 MSTORE PUSH1 0x24 ADD PUSH2 0x5CF JUMP JUMPDEST PUSH1 0xF SLOAD PUSH1 0x40 DUP1 MLOAD PUSH32 0x5619A74ECD0240AFC3BFB1DF2BD1319401220FB577809C3A09BF0AB809AC861 PUSH1 0x20 DUP3 ADD MSTORE PUSH1 0x1 PUSH1 0x1 PUSH1 0xA0 SHL SUB SWAP3 DUP4 AND SWAP2 DUP2 ADD SWAP2 SWAP1 SWAP2 MSTORE SWAP1 DUP8 AND PUSH1 0x60 DUP3 ADD MSTORE PUSH1 0x80 DUP2 ADD DUP7 SWAP1 MSTORE PUSH1 0xA0 DUP2 ADD DUP6 SWAP1 MSTORE PUSH0 SWAP1 PUSH1 0xC0 ADD PUSH1 0x40 MLOAD PUSH1 0x20 DUP2 DUP4 SUB SUB DUP2 MSTORE SWAP1 PUSH1 0x40 MSTORE DUP1 MLOAD SWAP1 PUSH1 0x20 ADD KECCAK256 SWAP1 POP PUSH0 PUSH2 0x1035 DUP3 PUSH2 0x11DF JUMP JUMPDEST SWAP1 POP PUSH0 PUSH2 0x1044 DUP3 DUP8 DUP8 DUP8 PUSH2 0x1211 JUMP JUMPDEST PUSH1 0xF SLOAD SWAP1 SWAP2 POP PUSH1 0x1 PUSH1 0x1 PUSH1 0xA0 SHL SUB DUP1 DUP4 AND SWAP2 AND EQ PUSH2 0x108C JUMPI PUSH1 0xF SLOAD PUSH1 0x40 MLOAD PUSH4 0x25C00723 PUSH1 0xE1 SHL DUP2 MSTORE PUSH1 0x1 PUSH1 0x1 PUSH1 0xA0 SHL SUB DUP1 DUP5 AND PUSH1 0x4 DUP4 ADD MSTORE SWAP1 SWAP2 AND PUSH1 0x24 DUP3 ADD MSTORE PUSH1 0x44 ADD PUSH2 0x5CF JUMP JUMPDEST POP POP POP PUSH1 0xFF SWAP1 SWAP3 AND PUSH0 SWAP1 DUP2 MSTORE PUSH1 0x10 PUSH1 0x20 SWAP1 DUP2 MSTORE PUSH1 0x40 DUP1 DUP4 KECCAK256 DUP1 SLOAD PUSH1 0xFF NOT SWAP1 DUP2 AND PUSH1 0x1 SWAP1 DUP2 OR SWAP1 SWAP3 SSTORE SWAP5 DUP5 MSTORE PUSH1 0x11 DUP4 MSTORE DUP2 DUP5 KECCAK256 DUP1 SLOAD DUP7 AND DUP3 OR SWAP1 SSTORE SWAP5 DUP4 MSTORE PUSH1 0x12 SWAP1 SWAP2 MSTORE SWAP1 KECCAK256 DUP1 SLOAD SWAP1 SWAP2 AND SWAP1 SWAP2 OR SWAP1 SSTORE POP POP POP JUMP JUMPDEST PUSH1 0x40 DUP1 MLOAD PUSH1 0x1 PUSH1 0x1 PUSH1 0xA0 SHL SUB DUP5 AND PUSH1 0x24 DUP3 ADD MSTORE PUSH1 0x44 DUP1 DUP3 ADD DUP5 SWAP1 MSTORE DUP3 MLOAD DUP1 DUP4 SUB SWAP1 SWAP2 ADD DUP2 MSTORE PUSH1 0x64 SWAP1 SWAP2 ADD SWAP1 SWAP2 MSTORE PUSH1 0x20 DUP2 ADD DUP1 MLOAD PUSH1 0x1 PUSH1 0x1 PUSH1 0xE0 SHL SUB AND PUSH4 0xA9059CBB PUSH1 0xE0 SHL OR SWAP1 MSTORE PUSH2 0x1131 SWAP1 DUP5 SWAP1 PUSH2 0x123D JUMP JUMPDEST POP POP POP JUMP JUMPDEST PUSH0 DUP1 SLOAD PUSH1 0x1 PUSH1 0x1 PUSH1 0xA0 SHL SUB DUP4 DUP2 AND PUSH1 0x1 PUSH1 0x1 PUSH1 0xA0 SHL SUB NOT DUP4 AND DUP2 OR DUP5 SSTORE PUSH1 0x40 MLOAD SWAP2 SWAP1 SWAP3 AND SWAP3 DUP4 SWAP2 PUSH32 0x8BE0079C531659141344CD1FD0A4F28419497F9722A3DAAFE3B4186F6B6457E0 SWAP2 SWAP1 LOG3 POP POP JUMP JUMPDEST PUSH1 0x60 PUSH2 0x5A4 PUSH32 0x0 PUSH1 0x1 PUSH2 0x129E JUMP JUMPDEST PUSH1 0x60 PUSH2 0x5A4 PUSH32 0x0 PUSH1 0x2 PUSH2 0x129E JUMP JUMPDEST PUSH0 PUSH2 0x120B PUSH2 0x11EB PUSH2 0xDEE JUMP JUMPDEST DUP4 PUSH1 0x40 MLOAD PUSH2 0x1901 PUSH1 0xF0 SHL DUP2 MSTORE PUSH1 0x2 DUP2 ADD SWAP3 SWAP1 SWAP3 MSTORE PUSH1 0x22 DUP3 ADD MSTORE PUSH1 0x42 SWAP1 KECCAK256 SWAP1 JUMP JUMPDEST SWAP3 SWAP2 POP POP JUMP JUMPDEST PUSH0 DUP1 PUSH0 DUP1 PUSH2 0x1221 DUP9 DUP9 DUP9 DUP9 PUSH2 0x1348 JUMP JUMPDEST SWAP3 POP SWAP3 POP SWAP3 POP PUSH2 0x1231 DUP3 DUP3 PUSH2 0x1410 JUMP JUMPDEST POP SWAP1 SWAP7 SWAP6 POP POP POP POP POP POP JUMP JUMPDEST PUSH0 PUSH2 0x1251 PUSH1 0x1 PUSH1 0x1 PUSH1 0xA0 SHL SUB DUP5 AND DUP4 PUSH2 0x14CC JUMP JUMPDEST SWAP1 POP DUP1 MLOAD PUSH0 EQ ISZERO DUP1 ISZERO PUSH2 0x1275 JUMPI POP DUP1 DUP1 PUSH1 0x20 ADD SWAP1 MLOAD DUP2 ADD SWAP1 PUSH2 0x1273 SWAP2 SWAP1 PUSH2 0x1A91 JUMP JUMPDEST ISZERO JUMPDEST ISZERO PUSH2 0x1131 JUMPI PUSH1 0x40 MLOAD PUSH4 0x5274AFE7 PUSH1 0xE0 SHL DUP2 MSTORE PUSH1 0x1 PUSH1 0x1 PUSH1 0xA0 SHL SUB DUP5 AND PUSH1 0x4 DUP3 ADD MSTORE PUSH1 0x24 ADD PUSH2 0x5CF JUMP JUMPDEST PUSH1 0x60 PUSH1 0xFF DUP4 EQ PUSH2 0x12B8 JUMPI PUSH2 0x12B1 DUP4 PUSH2 0x14D9 JUMP JUMPDEST SWAP1 POP PUSH2 0x120B JUMP JUMPDEST DUP2 DUP1 SLOAD PUSH2 0x12C4 SWAP1 PUSH2 0x1892 JUMP JUMPDEST DUP1 PUSH1 0x1F ADD PUSH1 0x20 DUP1 SWAP2 DIV MUL PUSH1 0x20 ADD PUSH1 0x40 MLOAD SWAP1 DUP2 ADD PUSH1 0x40 MSTORE DUP1 SWAP3 SWAP2 SWAP1 DUP2 DUP2 MSTORE PUSH1 0x20 ADD DUP3 DUP1 SLOAD PUSH2 0x12F0 SWAP1 PUSH2 0x1892 JUMP JUMPDEST DUP1 ISZERO PUSH2 0x133B JUMPI DUP1 PUSH1 0x1F LT PUSH2 0x1312 JUMPI PUSH2 0x100 DUP1 DUP4 SLOAD DIV MUL DUP4 MSTORE SWAP2 PUSH1 0x20 ADD SWAP2 PUSH2 0x133B JUMP JUMPDEST DUP3 ADD SWAP2 SWAP1 PUSH0 MSTORE PUSH1 0x20 PUSH0 KECCAK256 SWAP1 JUMPDEST DUP2 SLOAD DUP2 MSTORE SWAP1 PUSH1 0x1 ADD SWAP1 PUSH1 0x20 ADD DUP1 DUP4 GT PUSH2 0x131E JUMPI DUP3 SWAP1 SUB PUSH1 0x1F AND DUP3 ADD SWAP2 JUMPDEST POP POP POP POP POP SWAP1 POP SWAP3 SWAP2 POP POP JUMP JUMPDEST PUSH0 DUP1 DUP1 PUSH32 0x7FFFFFFFFFFFFFFFFFFFFFFFFFFFFFFF5D576E7357A4501DDFE92F46681B20A0 DUP5 GT ISZERO PUSH2 0x1381 JUMPI POP PUSH0 SWAP2 POP PUSH1 0x3 SWAP1 POP DUP3 PUSH2 0x1406 JUMP JUMPDEST PUSH1 0x40 DUP1 MLOAD PUSH0 DUP1 DUP3 MSTORE PUSH1 0x20 DUP3 ADD DUP1 DUP5 MSTORE DUP11 SWAP1 MSTORE PUSH1 0xFF DUP10 AND SWAP3 DUP3 ADD SWAP3 SWAP1 SWAP3 MSTORE PUSH1 0x60 DUP2 ADD DUP8 SWAP1 MSTORE PUSH1 0x80 DUP2 ADD DUP7 SWAP1 MSTORE PUSH1 0x1 SWAP1 PUSH1 0xA0 ADD PUSH1 0x20 PUSH1 0x40 MLOAD PUSH1 0x20 DUP2 SUB SWAP1 DUP1 DUP5 SUB SWAP1 DUP6 GAS STATICCALL ISZERO DUP1 ISZERO PUSH2 0x13D2 JUMPI RETURNDATASIZE PUSH0 DUP1 RETURNDATACOPY RETURNDATASIZE PUSH0 REVERT JUMPDEST POP POP PUSH1 0x40 MLOAD PUSH1 0x1F NOT ADD MLOAD SWAP2 POP POP PUSH1 0x1 PUSH1 0x1 PUSH1 0xA0 SHL SUB DUP2 AND PUSH2 0x13FD JUMPI POP PUSH0 SWAP3 POP PUSH1 0x1 SWAP2 POP DUP3 SWAP1 POP PUSH2 0x1406 JUMP JUMPDEST SWAP3 POP PUSH0 SWAP2 POP DUP2 SWAP1 POP JUMPDEST SWAP5 POP SWAP5 POP SWAP5 SWAP2 POP POP JUMP JUMPDEST PUSH0 DUP3 PUSH1 0x3 DUP2 GT ISZERO PUSH2 0x1423 JUMPI PUSH2 0x1423 PUSH2 0x1AAC JUMP JUMPDEST SUB PUSH2 0x142C JUMPI POP POP JUMP JUMPDEST PUSH1 0x1 DUP3 PUSH1 0x3 DUP2 GT ISZERO PUSH2 0x1440 JUMPI PUSH2 0x1440 PUSH2 0x1AAC JUMP JUMPDEST SUB PUSH2 0x145E JUMPI PUSH1 0x40 MLOAD PUSH4 0xF645EEDF PUSH1 0xE0 SHL DUP2 MSTORE PUSH1 0x4 ADD PUSH1 0x40 MLOAD DUP1 SWAP2 SUB SWAP1 REVERT JUMPDEST PUSH1 0x2 DUP3 PUSH1 0x3 DUP2 GT ISZERO PUSH2 0x1472 JUMPI PUSH2 0x1472 PUSH2 0x1AAC JUMP JUMPDEST SUB PUSH2 0x1493 JUMPI PUSH1 0x40 MLOAD PUSH4 0xFCE698F7 PUSH1 0xE0 SHL DUP2 MSTORE PUSH1 0x4 DUP2 ADD DUP3 SWAP1 MSTORE PUSH1 0x24 ADD PUSH2 0x5CF JUMP JUMPDEST PUSH1 0x3 DUP3 PUSH1 0x3 DUP2 GT ISZERO PUSH2 0x14A7 JUMPI PUSH2 0x14A7 PUSH2 0x1AAC JUMP JUMPDEST SUB PUSH2 0x14C8 JUMPI PUSH1 0x40 MLOAD PUSH4 0x35E2F383 PUSH1 0xE2 SHL DUP2 MSTORE PUSH1 0x4 DUP2 ADD DUP3 SWAP1 MSTORE PUSH1 0x24 ADD PUSH2 0x5CF JUMP JUMPDEST POP POP JUMP JUMPDEST PUSH1 0x60 PUSH2 0x537 DUP4 DUP4 PUSH0 PUSH2 0x1516 JUMP JUMPDEST PUSH1 0x60 PUSH0 PUSH2 0x14E5 DUP4 PUSH2 0x15AF JUMP JUMPDEST PUSH1 0x40 DUP1 MLOAD PUSH1 0x20 DUP1 DUP3 MSTORE DUP2 DUP4 ADD SWAP1 SWAP3 MSTORE SWAP2 SWAP3 POP PUSH0 SWAP2 SWAP1 PUSH1 0x20 DUP3 ADD DUP2 DUP1 CALLDATASIZE DUP4 CALLDATACOPY POP POP POP SWAP2 DUP3 MSTORE POP PUSH1 0x20 DUP2 ADD SWAP3 SWAP1 SWAP3 MSTORE POP SWAP1 JUMP JUMPDEST PUSH1 0x60 DUP2 SELFBALANCE LT ISZERO PUSH2 0x153B JUMPI PUSH1 0x40 MLOAD PUSH4 0xCD786059 PUSH1 0xE0 SHL DUP2 MSTORE ADDRESS PUSH1 0x4 DUP3 ADD MSTORE PUSH1 0x24 ADD PUSH2 0x5CF JUMP JUMPDEST PUSH0 DUP1 DUP6 PUSH1 0x1 PUSH1 0x1 PUSH1 0xA0 SHL SUB AND DUP5 DUP7 PUSH1 0x40 MLOAD PUSH2 0x1556 SWAP2 SWAP1 PUSH2 0x1AC0 JUMP JUMPDEST PUSH0 PUSH1 0x40 MLOAD DUP1 DUP4 SUB DUP2 DUP6 DUP8 GAS CALL SWAP3 POP POP POP RETURNDATASIZE DUP1 PUSH0 DUP2 EQ PUSH2 0x1590 JUMPI PUSH1 0x40 MLOAD SWAP2 POP PUSH1 0x1F NOT PUSH1 0x3F RETURNDATASIZE ADD AND DUP3 ADD PUSH1 0x40 MSTORE RETURNDATASIZE DUP3 MSTORE RETURNDATASIZE PUSH0 PUSH1 0x20 DUP5 ADD RETURNDATACOPY PUSH2 0x1595 JUMP JUMPDEST PUSH1 0x60 SWAP2 POP JUMPDEST POP SWAP2 POP SWAP2 POP PUSH2 0x15A5 DUP7 DUP4 DUP4 PUSH2 0x15D6 JUMP JUMPDEST SWAP7 SWAP6 POP POP POP POP POP POP JUMP JUMPDEST PUSH0 PUSH1 0xFF DUP3 AND PUSH1 0x1F DUP2 GT ISZERO PUSH2 0x120B JUMPI PUSH1 0x40 MLOAD PUSH4 0x2CD44AC3 PUSH1 0xE2 SHL DUP2 MSTORE PUSH1 0x4 ADD PUSH1 0x40 MLOAD DUP1 SWAP2 SUB SWAP1 REVERT JUMPDEST PUSH1 0x60 DUP3 PUSH2 0x15EB JUMPI PUSH2 0x15E6 DUP3 PUSH2 0x1632 JUMP JUMPDEST PUSH2 0x537 JUMP JUMPDEST DUP2 MLOAD ISZERO DUP1 ISZERO PUSH2 0x1602 JUMPI POP PUSH1 0x1 PUSH1 0x1 PUSH1 0xA0 SHL SUB DUP5 AND EXTCODESIZE ISZERO JUMPDEST ISZERO PUSH2 0x162B JUMPI PUSH1 0x40 MLOAD PUSH4 0x9996B315 PUSH1 0xE0 SHL DUP2 MSTORE PUSH1 0x1 PUSH1 0x1 PUSH1 0xA0 SHL SUB DUP6 AND PUSH1 0x4 DUP3 ADD MSTORE PUSH1 0x24 ADD PUSH2 0x5CF JUMP JUMPDEST POP DUP1 PUSH2 0x537 JUMP JUMPDEST DUP1 MLOAD ISZERO PUSH2 0x1642 JUMPI DUP1 MLOAD DUP1 DUP3 PUSH1 0x20 ADD REVERT JUMPDEST PUSH1 0x40 MLOAD PUSH4 0xA12F521 PUSH1 0xE1 SHL DUP2 MSTORE PUSH1 0x4 ADD PUSH1 0x40 MLOAD DUP1 SWAP2 SUB SWAP1 REVERT JUMPDEST PUSH0 JUMPDEST DUP4 DUP2 LT ISZERO PUSH2 0x1675 JUMPI DUP2 DUP2 ADD MLOAD DUP4 DUP3 ADD MSTORE PUSH1 0x20 ADD PUSH2 0x165D JUMP JUMPDEST POP POP PUSH0 SWAP2 ADD MSTORE JUMP JUMPDEST PUSH0 DUP2 MLOAD DUP1 DUP5 MSTORE PUSH2 0x1694 DUP2 PUSH1 0x20 DUP7 ADD PUSH1 0x20 DUP7 ADD PUSH2 0x165B JUMP JUMPDEST PUSH1 0x1F ADD PUSH1 0x1F NOT AND SWAP3 SWAP1 SWAP3 ADD PUSH1 0x20 ADD SWAP3 SWAP2 POP POP JUMP JUMPDEST PUSH1 0x20 DUP2 MSTORE PUSH0 PUSH2 0x537 PUSH1 0x20 DUP4 ADD DUP5 PUSH2 0x167D JUMP JUMPDEST PUSH0 PUSH1 0x20 DUP3 DUP5 SUB SLT ISZERO PUSH2 0x16CA JUMPI PUSH0 DUP1 REVERT JUMPDEST POP CALLDATALOAD SWAP2 SWAP1 POP JUMP JUMPDEST DUP1 CALLDATALOAD PUSH1 0x1 PUSH1 0x1 PUSH1 0xA0 SHL SUB DUP2 AND DUP2 EQ PUSH2 0x16E7 JUMPI PUSH0 DUP1 REVERT JUMPDEST SWAP2 SWAP1 POP JUMP JUMPDEST PUSH0 DUP1 PUSH1 0x40 DUP4 DUP6 SUB SLT ISZERO PUSH2 0x16FD JUMPI PUSH0 DUP1 REVERT JUMPDEST PUSH2 0x1706 DUP4 PUSH2 0x16D1 JUMP JUMPDEST SWAP2 POP PUSH2 0x1714 PUSH1 0x20 DUP5 ADD PUSH2 0x16D1 JUMP JUMPDEST SWAP1 POP SWAP3 POP SWAP3 SWAP1 POP JUMP JUMPDEST PUSH1 0xFF DUP2 AND DUP2 EQ PUSH2 0xAF6 JUMPI PUSH0 DUP1 REVERT JUMPDEST PUSH0 DUP1 PUSH0 DUP1 PUSH0 DUP1 PUSH1 0xC0 DUP8 DUP10 SUB SLT ISZERO PUSH2 0x1740 JUMPI PUSH0 DUP1 REVERT JUMPDEST PUSH2 0x1749 DUP8 PUSH2 0x16D1 JUMP JUMPDEST SWAP6 POP PUSH1 0x20 DUP8 ADD CALLDATALOAD SWAP5 POP PUSH1 0x40 DUP8 ADD CALLDATALOAD SWAP4 POP PUSH1 0x60 DUP8 ADD CALLDATALOAD PUSH2 0x1767 DUP2 PUSH2 0x171D JUMP JUMPDEST SWAP6 SWAP9 SWAP5 SWAP8 POP SWAP3 SWAP6 PUSH1 0x80 DUP2 ADD CALLDATALOAD SWAP5 PUSH1 0xA0 SWAP1 SWAP2 ADD CALLDATALOAD SWAP4 POP SWAP2 POP POP JUMP JUMPDEST DUP1 ISZERO ISZERO DUP2 EQ PUSH2 0xAF6 JUMPI PUSH0 DUP1 REVERT JUMPDEST PUSH0 PUSH1 0x20 DUP3 DUP5 SUB SLT ISZERO PUSH2 0x179E JUMPI PUSH0 DUP1 REVERT JUMPDEST DUP2 CALLDATALOAD PUSH2 0x537 DUP2 PUSH2 0x1781 JUMP JUMPDEST PUSH0 PUSH1 0x20 DUP3 DUP5 SUB SLT ISZERO PUSH2 0x17B9 JUMPI PUSH0 DUP1 REVERT JUMPDEST PUSH2 0x537 DUP3 PUSH2 0x16D1 JUMP JUMPDEST PUSH1 0xFF PUSH1 0xF8 SHL DUP9 AND DUP2 MSTORE PUSH0 PUSH1 0x20 PUSH1 0xE0 PUSH1 0x20 DUP5 ADD MSTORE PUSH2 0x17E2 PUSH1 0xE0 DUP5 ADD DUP11 PUSH2 0x167D JUMP JUMPDEST DUP4 DUP2 SUB PUSH1 0x40 DUP6 ADD MSTORE PUSH2 0x17F4 DUP2 DUP11 PUSH2 0x167D JUMP JUMPDEST PUSH1 0x60 DUP6 ADD DUP10 SWAP1 MSTORE PUSH1 0x1 PUSH1 0x1 PUSH1 0xA0 SHL SUB DUP9 AND PUSH1 0x80 DUP7 ADD MSTORE PUSH1 0xA0 DUP6 ADD DUP8 SWAP1 MSTORE DUP5 DUP2 SUB PUSH1 0xC0 DUP7 ADD MSTORE DUP6 MLOAD DUP1 DUP3 MSTORE PUSH1 0x20 DUP1 DUP9 ADD SWAP4 POP SWAP1 SWAP2 ADD SWAP1 PUSH0 JUMPDEST DUP2 DUP2 LT ISZERO PUSH2 0x1847 JUMPI DUP4 MLOAD DUP4 MSTORE SWAP3 DUP5 ADD SWAP3 SWAP2 DUP5 ADD SWAP2 PUSH1 0x1 ADD PUSH2 0x182B JUMP JUMPDEST POP SWAP1 SWAP13 SWAP12 POP POP POP POP POP POP POP POP POP POP POP POP JUMP JUMPDEST PUSH0 DUP1 PUSH0 PUSH1 0x60 DUP5 DUP7 SUB SLT ISZERO PUSH2 0x186B JUMPI PUSH0 DUP1 REVERT JUMPDEST PUSH2 0x1874 DUP5 PUSH2 0x16D1 JUMP JUMPDEST SWAP3 POP PUSH2 0x1882 PUSH1 0x20 DUP6 ADD PUSH2 0x16D1 JUMP JUMPDEST SWAP2 POP PUSH1 0x40 DUP5 ADD CALLDATALOAD SWAP1 POP SWAP3 POP SWAP3 POP SWAP3 JUMP JUMPDEST PUSH1 0x1 DUP2 DUP2 SHR SWAP1 DUP3 AND DUP1 PUSH2 0x18A6 JUMPI PUSH1 0x7F DUP3 AND SWAP2 POP JUMPDEST PUSH1 0x20 DUP3 LT DUP2 SUB PUSH2 0x18C4 JUMPI PUSH4 0x4E487B71 PUSH1 0xE0 SHL PUSH0 MSTORE PUSH1 0x22 PUSH1 0x4 MSTORE PUSH1 0x24 PUSH0 REVERT JUMPDEST POP SWAP2 SWAP1 POP JUMP JUMPDEST PUSH0 PUSH1 0x20 DUP3 DUP5 SUB SLT ISZERO PUSH2 0x18DA JUMPI PUSH0 DUP1 REVERT JUMPDEST DUP2 MLOAD PUSH2 0x537 DUP2 PUSH2 0x171D JUMP JUMPDEST PUSH4 0x4E487B71 PUSH1 0xE0 SHL PUSH0 MSTORE PUSH1 0x11 PUSH1 0x4 MSTORE PUSH1 0x24 PUSH0 REVERT JUMPDEST PUSH1 0x1 DUP2 DUP2 JUMPDEST DUP1 DUP6 GT ISZERO PUSH2 0x1933 JUMPI DUP2 PUSH0 NOT DIV DUP3 GT ISZERO PUSH2 0x1919 JUMPI PUSH2 0x1919 PUSH2 0x18E5 JUMP JUMPDEST DUP1 DUP6 AND ISZERO PUSH2 0x1926 JUMPI SWAP2 DUP2 MUL SWAP2 JUMPDEST SWAP4 DUP5 SHR SWAP4 SWAP1 DUP1 MUL SWAP1 PUSH2 0x18FE JUMP JUMPDEST POP SWAP3 POP SWAP3 SWAP1 POP JUMP JUMPDEST PUSH0 DUP3 PUSH2 0x1949 JUMPI POP PUSH1 0x1 PUSH2 0x120B JUMP JUMPDEST DUP2 PUSH2 0x1955 JUMPI POP PUSH0 PUSH2 0x120B JUMP JUMPDEST DUP2 PUSH1 0x1 DUP2 EQ PUSH2 0x196B JUMPI PUSH1 0x2 DUP2 EQ PUSH2 0x1975 JUMPI PUSH2 0x1991 JUMP JUMPDEST PUSH1 0x1 SWAP2 POP POP PUSH2 0x120B JUMP JUMPDEST PUSH1 0xFF DUP5 GT ISZERO PUSH2 0x1986 JUMPI PUSH2 0x1986 PUSH2 0x18E5 JUMP JUMPDEST POP POP PUSH1 0x1 DUP3 SHL PUSH2 0x120B JUMP JUMPDEST POP PUSH1 0x20 DUP4 LT PUSH2 0x133 DUP4 LT AND PUSH1 0x4E DUP5 LT PUSH1 0xB DUP5 LT AND OR ISZERO PUSH2 0x19B4 JUMPI POP DUP2 DUP2 EXP PUSH2 0x120B JUMP JUMPDEST PUSH2 0x19BE DUP4 DUP4 PUSH2 0x18F9 JUMP JUMPDEST DUP1 PUSH0 NOT DIV DUP3 GT ISZERO PUSH2 0x19D1 JUMPI PUSH2 0x19D1 PUSH2 0x18E5 JUMP JUMPDEST MUL SWAP4 SWAP3 POP POP POP JUMP JUMPDEST PUSH0 PUSH2 0x537 PUSH1 0xFF DUP5 AND DUP4 PUSH2 0x193B JUMP JUMPDEST DUP1 DUP3 MUL DUP2 ISZERO DUP3 DUP3 DIV DUP5 EQ OR PUSH2 0x120B JUMPI PUSH2 0x120B PUSH2 0x18E5 JUMP JUMPDEST PUSH0 DUP3 PUSH2 0x1A18 JUMPI PUSH4 0x4E487B71 PUSH1 0xE0 SHL PUSH0 MSTORE PUSH1 0x12 PUSH1 0x4 MSTORE PUSH1 0x24 PUSH0 REVERT JUMPDEST POP DIV SWAP1 JUMP JUMPDEST PUSH1 0x20 DUP1 DUP3 MSTORE PUSH1 0x1F SWAP1 DUP3 ADD MSTORE PUSH32 0x796F75206172652073656E64696E6720746F207A65726F206164647265737300 PUSH1 0x40 DUP3 ADD MSTORE PUSH1 0x60 ADD SWAP1 JUMP JUMPDEST PUSH0 PUSH1 0x20 DUP3 DUP5 SUB SLT ISZERO PUSH2 0x1A64 JUMPI PUSH0 DUP1 REVERT JUMPDEST POP MLOAD SWAP2 SWAP1 POP JUMP JUMPDEST DUP1 DUP3 ADD DUP1 DUP3 GT ISZERO PUSH2 0x120B JUMPI PUSH2 0x120B PUSH2 0x18E5 JUMP JUMPDEST DUP2 DUP2 SUB DUP2 DUP2 GT ISZERO PUSH2 0x120B JUMPI PUSH2 0x120B PUSH2 0x18E5 JUMP JUMPDEST PUSH0 PUSH1 0x20 DUP3 DUP5 SUB SLT ISZERO PUSH2 0x1AA1 JUMPI PUSH0 DUP1 REVERT JUMPDEST DUP2 MLOAD PUSH2 0x537 DUP2 PUSH2 0x1781 JUMP JUMPDEST PUSH4 0x4E487B71 PUSH1 0xE0 SHL PUSH0 MSTORE PUSH1 0x21 PUSH1 0x4 MSTORE PUSH1 0x24 PUSH0 REVERT JUMPDEST PUSH0 DUP3 MLOAD PUSH2 0x1AD1 DUP2 DUP5 PUSH1 0x20 DUP8 ADD PUSH2 0x165B JUMP JUMPDEST SWAP2 SWAP1 SWAP2 ADD SWAP3 SWAP2 POP POP JUMP INVALID LOG2 PUSH5 0x6970667358 0x22 SLT KECCAK256 0xD9 SGT 0xF9 0xC0 SWAP1 0x4D 0xA8 MULMOD PUSH11 0x2643BDA76507F4E1C800F3 DUP13 0xB8 0xB3 MLOAD DIV SWAP1 LOG1 0x2C ADDRESS 0x28 0xAF SWAP11 PUSH5 0x736F6C6343 STOP ADDMOD AND STOP CALLER LOG2 PUSH5 0x6970667358 0x22 SLT KECCAK256 CALLCODE REVERT 0xAE 0x2A 0xCD DUP4 0xC 0x4B 0xBF DUP11 0xFC PUSH24 0x9A98620253A532F92E1E79097153C012F25A4AAE64736F6C PUSH4 0x43000816 STOP CALLER "
		},
		"gasEstimates": {
			"creation": {
				"codeDepositCost": "2669200",
				"executionCost": "infinite",
				"totalCost": "infinite"
			},
			"external": {
				"TranferToVault(address,uint256)": "infinite",
				"allowance(address,address)": "infinite",
				"approve(address,uint256)": "24780",
				"balanceOf(address)": "2648",
				"burn(address,uint256)": "infinite",
				"counterId()": "2316",
				"createVault(string,address,address,uint256)": "infinite",
				"decimals()": "243",
				"mint(address,uint256)": "infinite",
				"name()": "infinite",
				"owner()": "2364",
				"renounceOwnership()": "infinite",
				"setApproveToburn(address,bool)": "26934",
				"setVAultAdmin(address)": "26757",
				"symbol()": "infinite",
				"totalSupply()": "2392",
				"transfer(address,uint256)": "51327",
				"transferFrom(address,address,uint256)": "infinite",
				"transferOwnership(address)": "28465",
				"vaultAdmin()": "2424",
				"vaultIdentifcation(uint256)": "infinite"
			},
			"internal": {
				"_TranferToVault(address,uint256)": "infinite",
				"_setApproveToburn(address,bool)": "24346"
			}
		},
		"methodIdentifiers": {
			"TranferToVault(address,uint256)": "d9f0bdd1",
			"allowance(address,address)": "dd62ed3e",
			"approve(address,uint256)": "095ea7b3",
			"balanceOf(address)": "70a08231",
			"burn(address,uint256)": "9dc29fac",
			"counterId()": "d0a5e51e",
			"createVault(string,address,address,uint256)": "ea83cbf4",
			"decimals()": "313ce567",
			"mint(address,uint256)": "40c10f19",
			"name()": "06fdde03",
			"owner()": "8da5cb5b",
			"renounceOwnership()": "715018a6",
			"setApproveToburn(address,bool)": "2850fa6f",
			"setVAultAdmin(address)": "05ac59f1",
			"symbol()": "95d89b41",
			"totalSupply()": "18160ddd",
			"transfer(address,uint256)": "a9059cbb",
			"transferFrom(address,address,uint256)": "23b872dd",
			"transferOwnership(address)": "f2fde38b",
			"vaultAdmin()": "e7f6f225",
			"vaultIdentifcation(uint256)": "09b77eef"
		}
	},
	"abi": [
		{
			"inputs": [
				{
					"internalType": "address",
					"name": "addvaultadmin",
					"type": "address"
				}
			],
			"stateMutability": "nonpayable",
			"type": "constructor"
		},
		{
			"inputs": [
				{
					"internalType": "address",
					"name": "spender",
					"type": "address"
				},
				{
					"internalType": "uint256",
					"name": "allowance",
					"type": "uint256"
				},
				{
					"internalType": "uint256",
					"name": "needed",
					"type": "uint256"
				}
			],
			"name": "ERC20InsufficientAllowance",
			"type": "error"
		},
		{
			"inputs": [
				{
					"internalType": "address",
					"name": "sender",
					"type": "address"
				},
				{
					"internalType": "uint256",
					"name": "balance",
					"type": "uint256"
				},
				{
					"internalType": "uint256",
					"name": "needed",
					"type": "uint256"
				}
			],
			"name": "ERC20InsufficientBalance",
			"type": "error"
		},
		{
			"inputs": [
				{
					"internalType": "address",
					"name": "approver",
					"type": "address"
				}
			],
			"name": "ERC20InvalidApprover",
			"type": "error"
		},
		{
			"inputs": [
				{
					"internalType": "address",
					"name": "receiver",
					"type": "address"
				}
			],
			"name": "ERC20InvalidReceiver",
			"type": "error"
		},
		{
			"inputs": [
				{
					"internalType": "address",
					"name": "sender",
					"type": "address"
				}
			],
			"name": "ERC20InvalidSender",
			"type": "error"
		},
		{
			"inputs": [
				{
					"internalType": "address",
					"name": "spender",
					"type": "address"
				}
			],
			"name": "ERC20InvalidSpender",
			"type": "error"
		},
		{
			"inputs": [
				{
					"internalType": "address",
					"name": "owner",
					"type": "address"
				}
			],
			"name": "OwnableInvalidOwner",
			"type": "error"
		},
		{
			"inputs": [
				{
					"internalType": "address",
					"name": "account",
					"type": "address"
				}
			],
			"name": "OwnableUnauthorizedAccount",
			"type": "error"
		},
		{
			"anonymous": false,
			"inputs": [
				{
					"indexed": true,
					"internalType": "address",
					"name": "owner",
					"type": "address"
				},
				{
					"indexed": true,
					"internalType": "address",
					"name": "spender",
					"type": "address"
				},
				{
					"indexed": false,
					"internalType": "uint256",
					"name": "value",
					"type": "uint256"
				}
			],
			"name": "Approval",
			"type": "event"
		},
		{
			"anonymous": false,
			"inputs": [
				{
					"indexed": true,
					"internalType": "address",
					"name": "previousOwner",
					"type": "address"
				},
				{
					"indexed": true,
					"internalType": "address",
					"name": "newOwner",
					"type": "address"
				}
			],
			"name": "OwnershipTransferred",
			"type": "event"
		},
		{
			"anonymous": false,
			"inputs": [
				{
					"indexed": true,
					"internalType": "address",
					"name": "from",
					"type": "address"
				},
				{
					"indexed": true,
					"internalType": "address",
					"name": "to",
					"type": "address"
				},
				{
					"indexed": false,
					"internalType": "uint256",
					"name": "value",
					"type": "uint256"
				}
			],
			"name": "Transfer",
			"type": "event"
		},
		{
			"inputs": [
				{
					"internalType": "address",
					"name": "Vaultadd",
					"type": "address"
				},
				{
					"internalType": "uint256",
					"name": "amount",
					"type": "uint256"
				}
			],
			"name": "TranferToVault",
			"outputs": [],
			"stateMutability": "nonpayable",
			"type": "function"
		},
		{
			"inputs": [
				{
					"internalType": "address",
					"name": "owner",
					"type": "address"
				},
				{
					"internalType": "address",
					"name": "spender",
					"type": "address"
				}
			],
			"name": "allowance",
			"outputs": [
				{
					"internalType": "uint256",
					"name": "",
					"type": "uint256"
				}
			],
			"stateMutability": "view",
			"type": "function"
		},
		{
			"inputs": [
				{
					"internalType": "address",
					"name": "spender",
					"type": "address"
				},
				{
					"internalType": "uint256",
					"name": "value",
					"type": "uint256"
				}
			],
			"name": "approve",
			"outputs": [
				{
					"internalType": "bool",
					"name": "",
					"type": "bool"
				}
			],
			"stateMutability": "nonpayable",
			"type": "function"
		},
		{
			"inputs": [
				{
					"internalType": "address",
					"name": "account",
					"type": "address"
				}
			],
			"name": "balanceOf",
			"outputs": [
				{
					"internalType": "uint256",
					"name": "",
					"type": "uint256"
				}
			],
			"stateMutability": "view",
			"type": "function"
		},
		{
			"inputs": [
				{
					"internalType": "address",
					"name": "account",
					"type": "address"
				},
				{
					"internalType": "uint256",
					"name": "value",
					"type": "uint256"
				}
			],
			"name": "burn",
			"outputs": [],
			"stateMutability": "nonpayable",
			"type": "function"
		},
		{
			"inputs": [],
			"name": "counterId",
			"outputs": [
				{
					"internalType": "uint256",
					"name": "",
					"type": "uint256"
				}
			],
			"stateMutability": "view",
			"type": "function"
		},
		{
			"inputs": [
				{
					"internalType": "string",
					"name": "vaultName",
					"type": "string"
				},
				{
					"internalType": "address",
					"name": "vaultOwner",
					"type": "address"
				},
				{
					"internalType": "address",
					"name": "paymentAddress",
					"type": "address"
				},
				{
					"internalType": "uint256",
					"name": "pointsAmountForVault",
					"type": "uint256"
				}
			],
			"name": "createVault",
			"outputs": [
				{
					"internalType": "bool",
					"name": "",
					"type": "bool"
				}
			],
			"stateMutability": "nonpayable",
			"type": "function"
		},
		{
			"inputs": [],
			"name": "decimals",
			"outputs": [
				{
					"internalType": "uint8",
					"name": "",
					"type": "uint8"
				}
			],
			"stateMutability": "view",
			"type": "function"
		},
		{
			"inputs": [
				{
					"internalType": "address",
					"name": "add",
					"type": "address"
				},
				{
					"internalType": "uint256",
					"name": "amount",
					"type": "uint256"
				}
			],
			"name": "mint",
			"outputs": [],
			"stateMutability": "nonpayable",
			"type": "function"
		},
		{
			"inputs": [],
			"name": "name",
			"outputs": [
				{
					"internalType": "string",
					"name": "",
					"type": "string"
				}
			],
			"stateMutability": "view",
			"type": "function"
		},
		{
			"inputs": [],
			"name": "owner",
			"outputs": [
				{
					"internalType": "address",
					"name": "",
					"type": "address"
				}
			],
			"stateMutability": "view",
			"type": "function"
		},
		{
			"inputs": [],
			"name": "renounceOwnership",
			"outputs": [],
			"stateMutability": "nonpayable",
			"type": "function"
		},
		{
			"inputs": [
				{
					"internalType": "address",
					"name": "approvedAdd",
					"type": "address"
				},
				{
					"internalType": "bool",
					"name": "_approve",
					"type": "bool"
				}
			],
			"name": "setApproveToburn",
			"outputs": [],
			"stateMutability": "nonpayable",
			"type": "function"
		},
		{
			"inputs": [
				{
					"internalType": "address",
					"name": "addvaultadmin",
					"type": "address"
				}
			],
			"name": "setVAultAdmin",
			"outputs": [],
			"stateMutability": "nonpayable",
			"type": "function"
		},
		{
			"inputs": [],
			"name": "symbol",
			"outputs": [
				{
					"internalType": "string",
					"name": "",
					"type": "string"
				}
			],
			"stateMutability": "view",
			"type": "function"
		},
		{
			"inputs": [],
			"name": "totalSupply",
			"outputs": [
				{
					"internalType": "uint256",
					"name": "",
					"type": "uint256"
				}
			],
			"stateMutability": "view",
			"type": "function"
		},
		{
			"inputs": [
				{
					"internalType": "address",
					"name": "to",
					"type": "address"
				},
				{
					"internalType": "uint256",
					"name": "value",
					"type": "uint256"
				}
			],
			"name": "transfer",
			"outputs": [
				{
					"internalType": "bool",
					"name": "",
					"type": "bool"
				}
			],
			"stateMutability": "nonpayable",
			"type": "function"
		},
		{
			"inputs": [
				{
					"internalType": "address",
					"name": "from",
					"type": "address"
				},
				{
					"internalType": "address",
					"name": "to",
					"type": "address"
				},
				{
					"internalType": "uint256",
					"name": "value",
					"type": "uint256"
				}
			],
			"name": "transferFrom",
			"outputs": [
				{
					"internalType": "bool",
					"name": "",
					"type": "bool"
				}
			],
			"stateMutability": "nonpayable",
			"type": "function"
		},
		{
			"inputs": [
				{
					"internalType": "address",
					"name": "newOwner",
					"type": "address"
				}
			],
			"name": "transferOwnership",
			"outputs": [],
			"stateMutability": "nonpayable",
			"type": "function"
		},
		{
			"inputs": [],
			"name": "vaultAdmin",
			"outputs": [
				{
					"internalType": "address",
					"name": "",
					"type": "address"
				}
			],
			"stateMutability": "view",
			"type": "function"
		},
		{
			"inputs": [
				{
					"internalType": "uint256",
					"name": "",
					"type": "uint256"
				}
			],
			"name": "vaultIdentifcation",
			"outputs": [
				{
					"internalType": "address",
					"name": "vaultAdrress",
					"type": "address"
				},
				{
					"internalType": "string",
					"name": "name",
					"type": "string"
				}
			],
			"stateMutability": "view",
			"type": "function"
		}
	]
}