{
	"data": {
		"bytecode": {
			"linkReferences": {},
			"object": "6080604052600160065534801562000015575f80fd5b5060405162006b9b38038062006b9b83398181016040528101906200003b9190620005ac565b336040518060400160405280600681526020017f506f696e747300000000000000000000000000000000000000000000000000008152506040518060400160405280600381526020017f504e5400000000000000000000000000000000000000000000000000000000008152508160039081620000b9919062000840565b508060049081620000cb919062000840565b5050505f73ffffffffffffffffffffffffffffffffffffffff168173ffffffffffffffffffffffffffffffffffffffff160362000141575f6040517f1e4fbdf700000000000000000000000000000000000000000000000000000000815260040162000138919062000935565b60405180910390fd5b6200015281620001d660201b60201c565b5062000171336b1363156bbee3016d700000006200029960201b60201c565b6200018f306b0cecb8f27f4200f3a00000006200029960201b60201c565b8060075f6101000a81548173ffffffffffffffffffffffffffffffffffffffff021916908373ffffffffffffffffffffffffffffffffffffffff1602179055505062000a1e565b5f60055f9054906101000a900473ffffffffffffffffffffffffffffffffffffffff1690508160055f6101000a81548173ffffffffffffffffffffffffffffffffffffffff021916908373ffffffffffffffffffffffffffffffffffffffff1602179055508173ffffffffffffffffffffffffffffffffffffffff168173ffffffffffffffffffffffffffffffffffffffff167f8be0079c531659141344cd1fd0a4f28419497f9722a3daafe3b4186f6b6457e060405160405180910390a35050565b5f73ffffffffffffffffffffffffffffffffffffffff168273ffffffffffffffffffffffffffffffffffffffff16036200030c575f6040517fec442f0500000000000000000000000000000000000000000000000000000000815260040162000303919062000935565b60405180910390fd5b6200031f5f83836200032360201b60201c565b5050565b5f73ffffffffffffffffffffffffffffffffffffffff168373ffffffffffffffffffffffffffffffffffffffff160362000377578060025f8282546200036a91906200097d565b9250508190555062000448565b5f805f8573ffffffffffffffffffffffffffffffffffffffff1673ffffffffffffffffffffffffffffffffffffffff1681526020019081526020015f205490508181101562000403578381836040517fe450d38c000000000000000000000000000000000000000000000000000000008152600401620003fa93929190620009c8565b60405180910390fd5b8181035f808673ffffffffffffffffffffffffffffffffffffffff1673ffffffffffffffffffffffffffffffffffffffff1681526020019081526020015f2081905550505b5f73ffffffffffffffffffffffffffffffffffffffff168273ffffffffffffffffffffffffffffffffffffffff160362000491578060025f8282540392505081905550620004db565b805f808473ffffffffffffffffffffffffffffffffffffffff1673ffffffffffffffffffffffffffffffffffffffff1681526020019081526020015f205f82825401925050819055505b8173ffffffffffffffffffffffffffffffffffffffff168373ffffffffffffffffffffffffffffffffffffffff167fddf252ad1be2c89b69c2b068fc378daa952ba7f163c4a11628f55a4df523b3ef836040516200053a919062000a03565b60405180910390a3505050565b5f80fd5b5f73ffffffffffffffffffffffffffffffffffffffff82169050919050565b5f62000576826200054b565b9050919050565b62000588816200056a565b811462000593575f80fd5b50565b5f81519050620005a6816200057d565b92915050565b5f60208284031215620005c457620005c362000547565b5b5f620005d38482850162000596565b91505092915050565b5f81519050919050565b7f4e487b71000000000000000000000000000000000000000000000000000000005f52604160045260245ffd5b7f4e487b71000000000000000000000000000000000000000000000000000000005f52602260045260245ffd5b5f60028204905060018216806200065857607f821691505b6020821081036200066e576200066d62000613565b5b50919050565b5f819050815f5260205f209050919050565b5f6020601f8301049050919050565b5f82821b905092915050565b5f60088302620006d27fffffffffffffffffffffffffffffffffffffffffffffffffffffffffffffffff8262000695565b620006de868362000695565b95508019841693508086168417925050509392505050565b5f819050919050565b5f819050919050565b5f62000728620007226200071c84620006f6565b620006ff565b620006f6565b9050919050565b5f819050919050565b620007438362000708565b6200075b62000752826200072f565b848454620006a1565b825550505050565b5f90565b6200077162000763565b6200077e81848462000738565b505050565b5b81811015620007a557620007995f8262000767565b60018101905062000784565b5050565b601f821115620007f457620007be8162000674565b620007c98462000686565b81016020851015620007d9578190505b620007f1620007e88562000686565b83018262000783565b50505b505050565b5f82821c905092915050565b5f620008165f1984600802620007f9565b1980831691505092915050565b5f62000830838362000805565b9150826002028217905092915050565b6200084b82620005dc565b67ffffffffffffffff811115620008675762000866620005e6565b5b62000873825462000640565b62000880828285620007a9565b5f60209050601f831160018114620008b6575f8415620008a1578287015190505b620008ad858262000823565b8655506200091c565b601f198416620008c68662000674565b5f5b82811015620008ef57848901518255600182019150602085019450602081019050620008c8565b868310156200090f57848901516200090b601f89168262000805565b8355505b6001600288020188555050505b505050505050565b6200092f816200056a565b82525050565b5f6020820190506200094a5f83018462000924565b92915050565b7f4e487b71000000000000000000000000000000000000000000000000000000005f52601160045260245ffd5b5f6200098982620006f6565b91506200099683620006f6565b9250828201905080821115620009b157620009b062000950565b5b92915050565b620009c281620006f6565b82525050565b5f606082019050620009dd5f83018662000924565b620009ec6020830185620009b7565b620009fb6040830184620009b7565b949350505050565b5f60208201905062000a185f830184620009b7565b92915050565b61616f8062000a2c5f395ff3fe608060405234801562000010575f80fd5b506004361062000152575f3560e01c8063715018a611620000c7578063d0a5e51e1162000085578063d0a5e51e146200039b578063d9f0bdd114620003bd578063dd62ed3e14620003dd578063e7f6f2251462000413578063ea83cbf41462000435578063f2fde38b146200046b5762000152565b8063715018a614620002f55780638da5cb5b146200030157806395d89b4114620003235780639dc29fac1462000345578063a9059cbb14620003655762000152565b806323b872dd116200011557806323b872dd14620002275780632850fa6f146200025d578063313ce567146200027d57806340c10f19146200029f57806370a0823114620002bf5762000152565b806305ac59f1146200015657806306fdde031462000176578063095ea7b3146200019857806309b77eef14620001ce57806318160ddd1462000205575b5f80fd5b6200017460048036038101906200016e9190620015c0565b6200048b565b005b62000180620004d8565b6040516200018f919062001684565b60405180910390f35b620001b66004803603810190620001b09190620016de565b62000570565b604051620001c591906200173f565b60405180910390f35b620001ec6004803603810190620001e691906200175a565b62000596565b604051620001fc9291906200179b565b60405180910390f35b6200020f62000663565b6040516200021e9190620017de565b60405180910390f35b6200024560048036038101906200023f9190620017f9565b6200066c565b6040516200025491906200173f565b60405180910390f35b6200027b600480360381019062000275919062001881565b620006a0565b005b62000287620006ba565b604051620002969190620018e3565b60405180910390f35b620002bd6004803603810190620002b79190620016de565b620006c2565b005b620002dd6004803603810190620002d79190620015c0565b620006dc565b604051620002ec9190620017de565b60405180910390f35b620002ff62000721565b005b6200030b62000738565b6040516200031a9190620018fe565b60405180910390f35b6200032d62000760565b6040516200033c919062001684565b60405180910390f35b6200036360048036038101906200035d9190620016de565b620007f8565b005b6200038360048036038101906200037d9190620016de565b6200089b565b6040516200039291906200173f565b60405180910390f35b620003a5620008c1565b604051620003b49190620017de565b60405180910390f35b620003db6004803603810190620003d59190620016de565b620008c7565b005b620003fb6004803603810190620003f5919062001919565b62000969565b6040516200040a9190620017de565b60405180910390f35b6200041d620009eb565b6040516200042c9190620018fe565b60405180910390f35b6200045360048036038101906200044d919062001aa6565b62000a10565b6040516200046291906200173f565b60405180910390f35b620004896004803603810190620004839190620015c0565b62000c3a565b005b6200049562000cc5565b8060075f6101000a81548173ffffffffffffffffffffffffffffffffffffffff021916908373ffffffffffffffffffffffffffffffffffffffff16021790555050565b606060038054620004e99062001b61565b80601f0160208091040260200160405190810160405280929190818152602001828054620005179062001b61565b8015620005665780601f106200053c5761010080835404028352916020019162000566565b820191905f5260205f20905b8154815290600101906020018083116200054857829003601f168201915b5050505050905090565b5f806200057c62000d55565b90506200058b81858562000d5c565b600191505092915050565b6009602052805f5260405f205f91509050805f015f9054906101000a900473ffffffffffffffffffffffffffffffffffffffff1690806001018054620005dc9062001b61565b80601f01602080910402602001604051908101604052809291908181526020018280546200060a9062001b61565b8015620006595780601f106200062f5761010080835404028352916020019162000659565b820191905f5260205f20905b8154815290600101906020018083116200063b57829003601f168201915b5050505050905082565b5f600254905090565b5f806200067862000d55565b90506200068785828562000d70565b6200069485858562000e0a565b60019150509392505050565b620006aa62000cc5565b620006b6828262000f02565b5050565b5f6012905090565b620006cc62000cc5565b620006d8828262000f5a565b5050565b5f805f8373ffffffffffffffffffffffffffffffffffffffff1673ffffffffffffffffffffffffffffffffffffffff1681526020019081526020015f20549050919050565b6200072b62000cc5565b620007365f62000fde565b565b5f60055f9054906101000a900473ffffffffffffffffffffffffffffffffffffffff16905090565b606060048054620007719062001b61565b80601f01602080910402602001604051908101604052809291908181526020018280546200079f9062001b61565b8015620007ee5780601f10620007c457610100808354040283529160200191620007ee565b820191905f5260205f20905b815481529060010190602001808311620007d057829003601f168201915b5050505050905090565b60011515600a5f3373ffffffffffffffffffffffffffffffffffffffff1673ffffffffffffffffffffffffffffffffffffffff1681526020019081526020015f205f9054906101000a900460ff161515146200088b576040517f08c379a0000000000000000000000000000000000000000000000000000000008152600401620008829062001be3565b60405180910390fd5b620008978282620010a1565b5050565b5f80620008a762000d55565b9050620008b681858562000e0a565b600191505092915050565b60065481565b60075f9054906101000a900473ffffffffffffffffffffffffffffffffffffffff1673ffffffffffffffffffffffffffffffffffffffff163373ffffffffffffffffffffffffffffffffffffffff161462000959576040517f08c379a0000000000000000000000000000000000000000000000000000000008152600401620009509062001c51565b60405180910390fd5b62000965828262001125565b5050565b5f60015f8473ffffffffffffffffffffffffffffffffffffffff1673ffffffffffffffffffffffffffffffffffffffff1681526020019081526020015f205f8373ffffffffffffffffffffffffffffffffffffffff1673ffffffffffffffffffffffffffffffffffffffff1681526020019081526020015f2054905092915050565b60075f9054906101000a900473ffffffffffffffffffffffffffffffffffffffff1681565b5f60075f9054906101000a900473ffffffffffffffffffffffffffffffffffffffff1673ffffffffffffffffffffffffffffffffffffffff163373ffffffffffffffffffffffffffffffffffffffff161462000aa3576040517f08c379a000000000000000000000000000000000000000000000000000000000815260040162000a9a9062001c51565b60405180910390fd5b5f60095f60065481526020019081526020015f2090505f151560088760405162000ace919062001cb1565b90815260200160405180910390205f9054906101000a900460ff1615151462000b2e576040517f08c379a000000000000000000000000000000000000000000000000000000000815260040162000b259062001d17565b60405180910390fd5b600160088760405162000b42919062001cb1565b90815260200160405180910390205f6101000a81548160ff0219169083151502179055505f8587863060405162000b799062001540565b62000b88949392919062001d37565b604051809103905ff08015801562000ba2573d5f803e3d5ffd5b50905080825f015f6101000a81548173ffffffffffffffffffffffffffffffffffffffff021916908373ffffffffffffffffffffffffffffffffffffffff1602179055508682600101908162000bf9919062001f4c565b5062000c06818562001125565b60065f81548092919062000c1a906200205d565b919050555062000c2c81600162000f02565b600192505050949350505050565b62000c4462000cc5565b5f73ffffffffffffffffffffffffffffffffffffffff168173ffffffffffffffffffffffffffffffffffffffff160362000cb7575f6040517f1e4fbdf700000000000000000000000000000000000000000000000000000000815260040162000cae9190620018fe565b60405180910390fd5b62000cc28162000fde565b50565b62000ccf62000d55565b73ffffffffffffffffffffffffffffffffffffffff1662000cef62000738565b73ffffffffffffffffffffffffffffffffffffffff161462000d535762000d1562000d55565b6040517f118cdaa700000000000000000000000000000000000000000000000000000000815260040162000d4a9190620018fe565b60405180910390fd5b565b5f33905090565b62000d6b838383600162001144565b505050565b5f62000d7d848462000969565b90507fffffffffffffffffffffffffffffffffffffffffffffffffffffffffffffffff811462000e04578181101562000df3578281836040517ffb8f41b200000000000000000000000000000000000000000000000000000000815260040162000dea93929190620020a9565b60405180910390fd5b62000e0384848484035f62001144565b5b50505050565b5f73ffffffffffffffffffffffffffffffffffffffff168373ffffffffffffffffffffffffffffffffffffffff160362000e7d575f6040517f96c6fd1e00000000000000000000000000000000000000000000000000000000815260040162000e749190620018fe565b60405180910390fd5b5f73ffffffffffffffffffffffffffffffffffffffff168273ffffffffffffffffffffffffffffffffffffffff160362000ef0575f6040517fec442f0500000000000000000000000000000000000000000000000000000000815260040162000ee79190620018fe565b60405180910390fd5b62000efd8383836200131c565b505050565b80600a5f8473ffffffffffffffffffffffffffffffffffffffff1673ffffffffffffffffffffffffffffffffffffffff1681526020019081526020015f205f6101000a81548160ff0219169083151502179055505050565b5f73ffffffffffffffffffffffffffffffffffffffff168273ffffffffffffffffffffffffffffffffffffffff160362000fcd575f6040517fec442f0500000000000000000000000000000000000000000000000000000000815260040162000fc49190620018fe565b60405180910390fd5b62000fda5f83836200131c565b5050565b5f60055f9054906101000a900473ffffffffffffffffffffffffffffffffffffffff1690508160055f6101000a81548173ffffffffffffffffffffffffffffffffffffffff021916908373ffffffffffffffffffffffffffffffffffffffff1602179055508173ffffffffffffffffffffffffffffffffffffffff168173ffffffffffffffffffffffffffffffffffffffff167f8be0079c531659141344cd1fd0a4f28419497f9722a3daafe3b4186f6b6457e060405160405180910390a35050565b5f73ffffffffffffffffffffffffffffffffffffffff168273ffffffffffffffffffffffffffffffffffffffff160362001114575f6040517f96c6fd1e0000000000000000000000000000000000000000000000000000000081526004016200110b9190620018fe565b60405180910390fd5b62001121825f836200131c565b5050565b6200113230338362000d5c565b6200113f3083836200066c565b505050565b5f73ffffffffffffffffffffffffffffffffffffffff168473ffffffffffffffffffffffffffffffffffffffff1603620011b7575f6040517fe602df05000000000000000000000000000000000000000000000000000000008152600401620011ae9190620018fe565b60405180910390fd5b5f73ffffffffffffffffffffffffffffffffffffffff168373ffffffffffffffffffffffffffffffffffffffff16036200122a575f6040517f94280d62000000000000000000000000000000000000000000000000000000008152600401620012219190620018fe565b60405180910390fd5b8160015f8673ffffffffffffffffffffffffffffffffffffffff1673ffffffffffffffffffffffffffffffffffffffff1681526020019081526020015f205f8573ffffffffffffffffffffffffffffffffffffffff1673ffffffffffffffffffffffffffffffffffffffff1681526020019081526020015f2081905550801562001316578273ffffffffffffffffffffffffffffffffffffffff168473ffffffffffffffffffffffffffffffffffffffff167f8c5be1e5ebec7d5bd14f71427d1e84f3dd0314c0f7b2291e5b200ac8c7c3b925846040516200130d9190620017de565b60405180910390a35b50505050565b5f73ffffffffffffffffffffffffffffffffffffffff168373ffffffffffffffffffffffffffffffffffffffff160362001370578060025f828254620013639190620020e4565b9250508190555062001441565b5f805f8573ffffffffffffffffffffffffffffffffffffffff1673ffffffffffffffffffffffffffffffffffffffff1681526020019081526020015f2054905081811015620013fc578381836040517fe450d38c000000000000000000000000000000000000000000000000000000008152600401620013f393929190620020a9565b60405180910390fd5b8181035f808673ffffffffffffffffffffffffffffffffffffffff1673ffffffffffffffffffffffffffffffffffffffff1681526020019081526020015f2081905550505b5f73ffffffffffffffffffffffffffffffffffffffff168273ffffffffffffffffffffffffffffffffffffffff16036200148a578060025f8282540392505081905550620014d4565b805f808473ffffffffffffffffffffffffffffffffffffffff1673ffffffffffffffffffffffffffffffffffffffff1681526020019081526020015f205f82825401925050819055505b8173ffffffffffffffffffffffffffffffffffffffff168373ffffffffffffffffffffffffffffffffffffffff167fddf252ad1be2c89b69c2b068fc378daa952ba7f163c4a11628f55a4df523b3ef83604051620015339190620017de565b60405180910390a3505050565b61401b806200211f83390190565b5f604051905090565b5f80fd5b5f80fd5b5f73ffffffffffffffffffffffffffffffffffffffff82169050919050565b5f6200158a826200155f565b9050919050565b6200159c816200157e565b8114620015a7575f80fd5b50565b5f81359050620015ba8162001591565b92915050565b5f60208284031215620015d857620015d762001557565b5b5f620015e784828501620015aa565b91505092915050565b5f81519050919050565b5f82825260208201905092915050565b5f5b83811015620016295780820151818401526020810190506200160c565b5f8484015250505050565b5f601f19601f8301169050919050565b5f6200165082620015f0565b6200165c8185620015fa565b93506200166e8185602086016200160a565b620016798162001634565b840191505092915050565b5f6020820190508181035f8301526200169e818462001644565b905092915050565b5f819050919050565b620016ba81620016a6565b8114620016c5575f80fd5b50565b5f81359050620016d881620016af565b92915050565b5f8060408385031215620016f757620016f662001557565b5b5f6200170685828601620015aa565b92505060206200171985828601620016c8565b9150509250929050565b5f8115159050919050565b620017398162001723565b82525050565b5f602082019050620017545f8301846200172e565b92915050565b5f6020828403121562001772576200177162001557565b5b5f6200178184828501620016c8565b91505092915050565b62001795816200157e565b82525050565b5f604082019050620017b05f8301856200178a565b8181036020830152620017c4818462001644565b90509392505050565b620017d881620016a6565b82525050565b5f602082019050620017f35f830184620017cd565b92915050565b5f805f6060848603121562001813576200181262001557565b5b5f6200182286828701620015aa565b93505060206200183586828701620015aa565b92505060406200184886828701620016c8565b9150509250925092565b6200185d8162001723565b811462001868575f80fd5b50565b5f813590506200187b8162001852565b92915050565b5f80604083850312156200189a576200189962001557565b5b5f620018a985828601620015aa565b9250506020620018bc858286016200186b565b9150509250929050565b5f60ff82169050919050565b620018dd81620018c6565b82525050565b5f602082019050620018f85f830184620018d2565b92915050565b5f602082019050620019135f8301846200178a565b92915050565b5f806040838503121562001932576200193162001557565b5b5f6200194185828601620015aa565b92505060206200195485828601620015aa565b9150509250929050565b5f80fd5b5f80fd5b7f4e487b71000000000000000000000000000000000000000000000000000000005f52604160045260245ffd5b6200199e8262001634565b810181811067ffffffffffffffff82111715620019c057620019bf62001966565b5b80604052505050565b5f620019d46200154e565b9050620019e2828262001993565b919050565b5f67ffffffffffffffff82111562001a045762001a0362001966565b5b62001a0f8262001634565b9050602081019050919050565b828183375f83830152505050565b5f62001a4062001a3a84620019e7565b620019c9565b90508281526020810184848401111562001a5f5762001a5e62001962565b5b62001a6c84828562001a1c565b509392505050565b5f82601f83011262001a8b5762001a8a6200195e565b5b813562001a9d84826020860162001a2a565b91505092915050565b5f805f806080858703121562001ac15762001ac062001557565b5b5f85013567ffffffffffffffff81111562001ae15762001ae06200155b565b5b62001aef8782880162001a74565b945050602062001b0287828801620015aa565b935050604062001b1587828801620015aa565b925050606062001b2887828801620016c8565b91505092959194509250565b7f4e487b71000000000000000000000000000000000000000000000000000000005f52602260045260245ffd5b5f600282049050600182168062001b7957607f821691505b60208210810362001b8f5762001b8e62001b34565b5b50919050565b7f796f7520617265206e6f7420617070726f76656420746f206275726e000000005f82015250565b5f62001bcb601c83620015fa565b915062001bd88262001b95565b602082019050919050565b5f6020820190508181035f83015262001bfc8162001bbd565b9050919050565b7f6e6f7420617070726f76656400000000000000000000000000000000000000005f82015250565b5f62001c39600c83620015fa565b915062001c468262001c03565b602082019050919050565b5f6020820190508181035f83015262001c6a8162001c2b565b9050919050565b5f81905092915050565b5f62001c8782620015f0565b62001c93818562001c71565b935062001ca58185602086016200160a565b80840191505092915050565b5f62001cbe828462001c7b565b915081905092915050565b7f6e616d652074616b656e000000000000000000000000000000000000000000005f82015250565b5f62001cff600a83620015fa565b915062001d0c8262001cc9565b602082019050919050565b5f6020820190508181035f83015262001d308162001cf1565b9050919050565b5f60808201905062001d4c5f8301876200178a565b818103602083015262001d60818662001644565b905062001d7160408301856200178a565b62001d8060608301846200178a565b95945050505050565b5f819050815f5260205f209050919050565b5f6020601f8301049050919050565b5f82821b905092915050565b5f6008830262001de77fffffffffffffffffffffffffffffffffffffffffffffffffffffffffffffffff8262001daa565b62001df3868362001daa565b95508019841693508086168417925050509392505050565b5f819050919050565b5f62001e3462001e2e62001e2884620016a6565b62001e0b565b620016a6565b9050919050565b5f819050919050565b62001e4f8362001e14565b62001e6762001e5e8262001e3b565b84845462001db6565b825550505050565b5f90565b62001e7d62001e6f565b62001e8a81848462001e44565b505050565b5b8181101562001eb15762001ea55f8262001e73565b60018101905062001e90565b5050565b601f82111562001f005762001eca8162001d89565b62001ed58462001d9b565b8101602085101562001ee5578190505b62001efd62001ef48562001d9b565b83018262001e8f565b50505b505050565b5f82821c905092915050565b5f62001f225f198460080262001f05565b1980831691505092915050565b5f62001f3c838362001f11565b9150826002028217905092915050565b62001f5782620015f0565b67ffffffffffffffff81111562001f735762001f7262001966565b5b62001f7f825462001b61565b62001f8c82828562001eb5565b5f60209050601f83116001811462001fc2575f841562001fad578287015190505b62001fb9858262001f2f565b86555062002028565b601f19841662001fd28662001d89565b5f5b8281101562001ffb5784890151825560018201915060208501945060208101905062001fd4565b868310156200201b578489015162002017601f89168262001f11565b8355505b6001600288020188555050505b505050505050565b7f4e487b71000000000000000000000000000000000000000000000000000000005f52601160045260245ffd5b5f6200206982620016a6565b91507fffffffffffffffffffffffffffffffffffffffffffffffffffffffffffffffff82036200209e576200209d62002030565b5b600182019050919050565b5f606082019050620020be5f8301866200178a565b620020cd6020830185620017cd565b620020dc6040830184620017cd565b949350505050565b5f620020f082620016a6565b9150620020fd83620016a6565b925082820190508082111562002118576200211762002030565b5b9291505056fe61016060405234801562000011575f80fd5b506040516200401b3803806200401b833981810160405281019062000037919062000790565b826040518060400160405280600181526020017f3100000000000000000000000000000000000000000000000000000000000000815250855f73ffffffffffffffffffffffffffffffffffffffff168173ffffffffffffffffffffffffffffffffffffffff1603620000e2575f6040517f1e4fbdf7000000000000000000000000000000000000000000000000000000008152600401620000d991906200082f565b60405180910390fd5b620000f381620003c560201b60201c565b506200010a6001836200048660201b90919060201c565b6101208181525050620001286002826200048660201b90919060201c565b6101408181525050818051906020012060e08181525050808051906020012061010081815250504660a0818152505062000167620004db60201b60201c565b608081815250503073ffffffffffffffffffffffffffffffffffffffff1660c08173ffffffffffffffffffffffffffffffffffffffff1681525050505082600e9081620001b5919062000a81565b50600a6007819055506113886008819055508160035f6101000a81548173ffffffffffffffffffffffffffffffffffffffff021916908373ffffffffffffffffffffffffffffffffffffffff1602179055508160055f6101000a81548173ffffffffffffffffffffffffffffffffffffffff021916908373ffffffffffffffffffffffffffffffffffffffff1602179055508060045f6101000a81548173ffffffffffffffffffffffffffffffffffffffff021916908373ffffffffffffffffffffffffffffffffffffffff1602179055508060065f6101000a81548173ffffffffffffffffffffffffffffffffffffffff021916908373ffffffffffffffffffffffffffffffffffffffff16021790555060045f9054906101000a900473ffffffffffffffffffffffffffffffffffffffff1673ffffffffffffffffffffffffffffffffffffffff1663313ce5676040518163ffffffff1660e01b8152600401602060405180830381865afa15801562000332573d5f803e3d5ffd5b505050506040513d601f19601f8201168201806040525081019062000358919062000ba0565b600a62000366919062000d4d565b61271062000375919062000d9d565b600a8190555083600f5f6101000a81548173ffffffffffffffffffffffffffffffffffffffff021916908373ffffffffffffffffffffffffffffffffffffffff1602179055505050505062000f7d565b5f805f9054906101000a900473ffffffffffffffffffffffffffffffffffffffff169050815f806101000a81548173ffffffffffffffffffffffffffffffffffffffff021916908373ffffffffffffffffffffffffffffffffffffffff1602179055508173ffffffffffffffffffffffffffffffffffffffff168173ffffffffffffffffffffffffffffffffffffffff167f8be0079c531659141344cd1fd0a4f28419497f9722a3daafe3b4186f6b6457e060405160405180910390a35050565b5f602083511015620004ab57620004a3836200053760201b60201c565b9050620004d5565b82620004bd83620005a160201b60201c565b5f019081620004cd919062000a81565b5060ff5f1b90505b92915050565b5f7f8b73c3c69bb8fe3d512ecc4cf759cc79239f7b179b0ffacaa9a75d522b39400f60e0516101005146306040516020016200051c95949392919062000e12565b60405160208183030381529060405280519060200120905090565b5f80829050601f815111156200058657826040517f305a27a90000000000000000000000000000000000000000000000000000000081526004016200057d919062000ebd565b60405180910390fd5b805181620005949062000f0e565b5f1c175f1b915050919050565b5f819050919050565b5f604051905090565b5f80fd5b5f80fd5b5f73ffffffffffffffffffffffffffffffffffffffff82169050919050565b5f620005e682620005bb565b9050919050565b620005f881620005da565b811462000603575f80fd5b50565b5f815190506200061681620005ed565b92915050565b5f80fd5b5f80fd5b5f601f19601f8301169050919050565b7f4e487b71000000000000000000000000000000000000000000000000000000005f52604160045260245ffd5b6200066c8262000624565b810181811067ffffffffffffffff821117156200068e576200068d62000634565b5b80604052505050565b5f620006a2620005aa565b9050620006b0828262000661565b919050565b5f67ffffffffffffffff821115620006d257620006d162000634565b5b620006dd8262000624565b9050602081019050919050565b5f5b8381101562000709578082015181840152602081019050620006ec565b5f8484015250505050565b5f6200072a6200072484620006b5565b62000697565b90508281526020810184848401111562000749576200074862000620565b5b62000756848285620006ea565b509392505050565b5f82601f8301126200077557620007746200061c565b5b81516200078784826020860162000714565b91505092915050565b5f805f8060808587031215620007ab57620007aa620005b3565b5b5f620007ba8782880162000606565b945050602085015167ffffffffffffffff811115620007de57620007dd620005b7565b5b620007ec878288016200075e565b9350506040620007ff8782880162000606565b9250506060620008128782880162000606565b91505092959194509250565b6200082981620005da565b82525050565b5f602082019050620008445f8301846200081e565b92915050565b5f81519050919050565b7f4e487b71000000000000000000000000000000000000000000000000000000005f52602260045260245ffd5b5f60028204905060018216806200089957607f821691505b602082108103620008af57620008ae62000854565b5b50919050565b5f819050815f5260205f209050919050565b5f6020601f8301049050919050565b5f82821b905092915050565b5f60088302620009137fffffffffffffffffffffffffffffffffffffffffffffffffffffffffffffffff82620008d6565b6200091f8683620008d6565b95508019841693508086168417925050509392505050565b5f819050919050565b5f819050919050565b5f62000969620009636200095d8462000937565b62000940565b62000937565b9050919050565b5f819050919050565b620009848362000949565b6200099c620009938262000970565b848454620008e2565b825550505050565b5f90565b620009b2620009a4565b620009bf81848462000979565b505050565b5b81811015620009e657620009da5f82620009a8565b600181019050620009c5565b5050565b601f82111562000a3557620009ff81620008b5565b62000a0a84620008c7565b8101602085101562000a1a578190505b62000a3262000a2985620008c7565b830182620009c4565b50505b505050565b5f82821c905092915050565b5f62000a575f198460080262000a3a565b1980831691505092915050565b5f62000a71838362000a46565b9150826002028217905092915050565b62000a8c826200084a565b67ffffffffffffffff81111562000aa85762000aa762000634565b5b62000ab4825462000881565b62000ac1828285620009ea565b5f60209050601f83116001811462000af7575f841562000ae2578287015190505b62000aee858262000a64565b86555062000b5d565b601f19841662000b0786620008b5565b5f5b8281101562000b305784890151825560018201915060208501945060208101905062000b09565b8683101562000b50578489015162000b4c601f89168262000a46565b8355505b6001600288020188555050505b505050505050565b5f60ff82169050919050565b62000b7c8162000b65565b811462000b87575f80fd5b50565b5f8151905062000b9a8162000b71565b92915050565b5f6020828403121562000bb85762000bb7620005b3565b5b5f62000bc78482850162000b8a565b91505092915050565b7f4e487b71000000000000000000000000000000000000000000000000000000005f52601160045260245ffd5b5f8160011c9050919050565b5f808291508390505b600185111562000c5a5780860481111562000c325762000c3162000bd0565b5b600185161562000c425780820291505b808102905062000c528562000bfd565b945062000c12565b94509492505050565b5f8262000c74576001905062000d46565b8162000c83575f905062000d46565b816001811462000c9c576002811462000ca75762000cdd565b600191505062000d46565b60ff84111562000cbc5762000cbb62000bd0565b5b8360020a91508482111562000cd65762000cd562000bd0565b5b5062000d46565b5060208310610133831016604e8410600b841016171562000d175782820a90508381111562000d115762000d1062000bd0565b5b62000d46565b62000d26848484600162000c09565b9250905081840481111562000d405762000d3f62000bd0565b5b81810290505b9392505050565b5f62000d598262000937565b915062000d668362000b65565b925062000d957fffffffffffffffffffffffffffffffffffffffffffffffffffffffffffffffff848462000c63565b905092915050565b5f62000da98262000937565b915062000db68362000937565b925082820262000dc68162000937565b9150828204841483151762000de05762000ddf62000bd0565b5b5092915050565b5f819050919050565b62000dfb8162000de7565b82525050565b62000e0c8162000937565b82525050565b5f60a08201905062000e275f83018862000df0565b62000e36602083018762000df0565b62000e45604083018662000df0565b62000e54606083018562000e01565b62000e6360808301846200081e565b9695505050505050565b5f82825260208201905092915050565b5f62000e89826200084a565b62000e95818562000e6d565b935062000ea7818560208601620006ea565b62000eb28162000624565b840191505092915050565b5f6020820190508181035f83015262000ed7818462000e7d565b905092915050565b5f81519050919050565b5f819050602082019050919050565b5f62000f05825162000de7565b80915050919050565b5f62000f1a8262000edf565b8262000f268462000ee9565b905062000f338162000ef8565b9250602082101562000f765762000f717fffffffffffffffffffffffffffffffffffffffffffffffffffffffffffffffff83602003600802620008d6565b831692505b5050919050565b60805160a05160c05160e05161010051610120516101405161304c62000fcf5f395f6119c801525f61198d01525f611a4601525f611a2501525f6114bf01525f61151501525f61153e015261304c5ff3fe608060405234801561000f575f80fd5b50600436106101a7575f3560e01c806376ee947f116100f7578063c4a9e85811610095578063f2fde38b1161006f578063f2fde38b1461044d578063f851a44014610469578063f9c3a1e814610487578063fd918716146104a3576101a7565b8063c4a9e858146103f5578063e1fefd4214610413578063e63ea40814610431576101a7565b80638da5cb5b116100d15780638da5cb5b146103835780639683cdc4146103a1578063ac1e5025146103bd578063c08e7286146103d9576101a7565b806376ee947f1461032557806384b0196e146103415780638bc7e8c414610365576101a7565b806334fcf4371161016457806367a527931161013e57806367a52793146102c55780636b4c0789146102e3578063704b6c02146102ff578063715018a61461031b576101a7565b806334fcf4371461026f5780633644e5151461028b5780636313c6d8146102a9576101a7565b806306e0e582146101ab5780630ace9ca0146101c95780630d461e61146101e7578063252de51b14610217578063258ba1ee146102355780632c4e722e14610251575b5f80fd5b6101b36104c1565b6040516101c0919061212f565b60405180910390f35b6101d16104c7565b6040516101de91906121d2565b60405180910390f35b61020160048036038101906101fc9190612220565b610553565b60405161020e919061212f565b60405180910390f35b61021f6106c2565b60405161022c9190612265565b60405180910390f35b61024f600480360381019061024a91906122d8565b6106d5565b005b6102596107e1565b604051610266919061212f565b60405180910390f35b61028960048036038101906102849190612220565b6107e7565b005b6102936107f9565b6040516102a0919061232e565b60405180910390f35b6102c360048036038101906102be91906123a7565b610807565b005b6102cd6109c0565b6040516102da919061212f565b60405180910390f35b6102fd60048036038101906102f8919061245a565b6109c6565b005b61031960048036038101906103149190612485565b6109eb565b005b610323610a36565b005b61033f600480360381019061033a9190612220565b610a49565b005b610349610a5b565b60405161035c97969594939291906125b0565b60405180910390f35b61036d610b00565b60405161037a919061212f565b60405180910390f35b61038b610b06565b6040516103989190612632565b60405180910390f35b6103bb60048036038101906103b69190612485565b610b2d565b005b6103d760048036038101906103d29190612220565b610d4b565b005b6103f360048036038101906103ee9190612220565b610d5d565b005b6103fd610e13565b60405161040a919061212f565b60405180910390f35b61041b610e19565b604051610428919061212f565b60405180910390f35b61044b6004803603810190610446919061264b565b610e1f565b005b61046760048036038101906104629190612485565b610fc6565b005b61047161104a565b60405161047e9190612632565b60405180910390f35b6104a1600480360381019061049c91906123a7565b61106f565b005b6104ab61142f565b6040516104b8919061212f565b60405180910390f35b600b5481565b600e80546104d4906126c8565b80601f0160208091040260200160405190810160405280929190818152602001828054610500906126c8565b801561054b5780601f106105225761010080835404028352916020019161054b565b820191905f5260205f20905b81548152906001019060200180831161052e57829003601f168201915b505050505081565b5f8060045f9054906101000a900473ffffffffffffffffffffffffffffffffffffffff1673ffffffffffffffffffffffffffffffffffffffff1663313ce5676040518163ffffffff1660e01b8152600401602060405180830381865afa1580156105bf573d5f803e3d5ffd5b505050506040513d601f19601f820116820180604052508101906105e3919061270c565b600a6105ef9190612893565b6008546105fc91906128dd565b60035f9054906101000a900473ffffffffffffffffffffffffffffffffffffffff1673ffffffffffffffffffffffffffffffffffffffff1663313ce5676040518163ffffffff1660e01b8152600401602060405180830381865afa158015610666573d5f803e3d5ffd5b505050506040513d601f19601f8201168201806040525081019061068a919061270c565b600a6106969190612893565b6001856106a391906128dd565b6106ad91906128dd565b6106b7919061294b565b905080915050919050565b600f60149054906101000a900460ff1681565b6106dd611435565b8160035f6101000a81548173ffffffffffffffffffffffffffffffffffffffff021916908373ffffffffffffffffffffffffffffffffffffffff1602179055508160055f6101000a81548173ffffffffffffffffffffffffffffffffffffffff021916908373ffffffffffffffffffffffffffffffffffffffff1602179055508060045f6101000a81548173ffffffffffffffffffffffffffffffffffffffff021916908373ffffffffffffffffffffffffffffffffffffffff1602179055508060065f6101000a81548173ffffffffffffffffffffffffffffffffffffffff021916908373ffffffffffffffffffffffffffffffffffffffff1602179055505050565b60085481565b6107ef611435565b8060088190555050565b5f6108026114bc565b905090565b5f73ffffffffffffffffffffffffffffffffffffffff168673ffffffffffffffffffffffffffffffffffffffff1603610875576040517f08c379a000000000000000000000000000000000000000000000000000000000815260040161086c906129c5565b60405180910390fd5b610883868686868686611572565b5f1515600f60149054906101000a900460ff161515146108d8576040517f08c379a00000000000000000000000000000000000000000000000000000000081526004016108cf90612a2d565b60405180910390fd5b600a5485101561091d576040517f08c379a000000000000000000000000000000000000000000000000000000000815260040161091490612abb565b60405180910390fd5b610969868660065f9054906101000a900473ffffffffffffffffffffffffffffffffffffffff1673ffffffffffffffffffffffffffffffffffffffff166118449092919063ffffffff16565b428673ffffffffffffffffffffffffffffffffffffffff167fd8fb6dbeaadff1d38bb96624ec3bd037611260d2b198d0f78cc1f0955563e756876040516109b0919061212f565b60405180910390a3505050505050565b60075481565b6109ce611435565b80600f60146101000a81548160ff02191690831515021790555050565b6109f3611435565b80600f5f6101000a81548173ffffffffffffffffffffffffffffffffffffffff021916908373ffffffffffffffffffffffffffffffffffffffff16021790555050565b610a3e611435565b610a475f6118c3565b565b610a51611435565b8060078190555050565b5f6060805f805f6060610a6c611984565b610a746119bf565b46305f801b5f67ffffffffffffffff811115610a9357610a92612ad9565b5b604051908082528060200260200182016040528015610ac15781602001602082028036833780820191505090505b507f0f00000000000000000000000000000000000000000000000000000000000000959493929190965096509650965096509650965090919293949596565b60095481565b5f805f9054906101000a900473ffffffffffffffffffffffffffffffffffffffff16905090565b610b35611435565b5f73ffffffffffffffffffffffffffffffffffffffff168173ffffffffffffffffffffffffffffffffffffffff1603610ba3576040517f08c379a0000000000000000000000000000000000000000000000000000000008152600401610b9a906129c5565b60405180910390fd5b5f60035f9054906101000a900473ffffffffffffffffffffffffffffffffffffffff1673ffffffffffffffffffffffffffffffffffffffff166370a08231306040518263ffffffff1660e01b8152600401610bfe9190612632565b602060405180830381865afa158015610c19573d5f803e3d5ffd5b505050506040513d601f19601f82011682018060405250810190610c3d9190612b1a565b90505f600b54600d54600c5484610c549190612b45565b610c5e9190612b45565b610c689190612b78565b905080600b5f828254610c7b9190612b45565b925050819055505f606460075483610c9391906128dd565b610c9d919061294b565b90505f8111610ce1576040517f08c379a0000000000000000000000000000000000000000000000000000000008152600401610cd890612bf5565b60405180910390fd5b80600d5f828254610cf29190612b45565b92505081905550610d45848260055f9054906101000a900473ffffffffffffffffffffffffffffffffffffffff1673ffffffffffffffffffffffffffffffffffffffff166118449092919063ffffffff16565b50505050565b610d53611435565b8060098190555050565b610d65611435565b60045f9054906101000a900473ffffffffffffffffffffffffffffffffffffffff1673ffffffffffffffffffffffffffffffffffffffff1663313ce5676040518163ffffffff1660e01b8152600401602060405180830381865afa158015610dcf573d5f803e3d5ffd5b505050506040513d601f19601f82011682018060405250810190610df3919061270c565b600a610dff9190612893565b81610e0a91906128dd565b600a8190555050565b600d5481565b600a5481565b610e27611435565b5f73ffffffffffffffffffffffffffffffffffffffff168373ffffffffffffffffffffffffffffffffffffffff1603610e95576040517f08c379a0000000000000000000000000000000000000000000000000000000008152600401610e8c906129c5565b60405180910390fd5b5f73ffffffffffffffffffffffffffffffffffffffff168273ffffffffffffffffffffffffffffffffffffffff1603610f03576040517f08c379a0000000000000000000000000000000000000000000000000000000008152600401610efa906129c5565b60405180910390fd5b5f8111610f45576040517f08c379a0000000000000000000000000000000000000000000000000000000008152600401610f3c90612c5d565b60405180910390fd5b8273ffffffffffffffffffffffffffffffffffffffff1663a9059cbb83836040518363ffffffff1660e01b8152600401610f80929190612c7b565b6020604051808303815f875af1158015610f9c573d5f803e3d5ffd5b505050506040513d601f19601f82011682018060405250810190610fc09190612cb6565b50505050565b610fce611435565b5f73ffffffffffffffffffffffffffffffffffffffff168173ffffffffffffffffffffffffffffffffffffffff160361103e575f6040517f1e4fbdf70000000000000000000000000000000000000000000000000000000081526004016110359190612632565b60405180910390fd5b611047816118c3565b50565b600f5f9054906101000a900473ffffffffffffffffffffffffffffffffffffffff1681565b5f73ffffffffffffffffffffffffffffffffffffffff168673ffffffffffffffffffffffffffffffffffffffff16036110dd576040517f08c379a00000000000000000000000000000000000000000000000000000000081526004016110d4906129c5565b60405180910390fd5b6110eb868686868686611572565b5f1515600f60149054906101000a900460ff16151514611140576040517f08c379a000000000000000000000000000000000000000000000000000000000815260040161113790612a2d565b60405180910390fd5b8460045f9054906101000a900473ffffffffffffffffffffffffffffffffffffffff1673ffffffffffffffffffffffffffffffffffffffff166370a08231886040518263ffffffff1660e01b815260040161119b9190612632565b602060405180830381865afa1580156111b6573d5f803e3d5ffd5b505050506040513d601f19601f820116820180604052508101906111da9190612b1a565b101561121b576040517f08c379a000000000000000000000000000000000000000000000000000000000815260040161121290612d2b565b60405180910390fd5b600a54851015611260576040517f08c379a000000000000000000000000000000000000000000000000000000000815260040161125790612db9565b60405180910390fd5b5f61126a86610553565b905080600c5f82825461127d9190612b45565b925050819055505f60646009548361129591906128dd565b61129f919061294b565b90505f81836112ae9190612b78565b905060045f9054906101000a900473ffffffffffffffffffffffffffffffffffffffff1673ffffffffffffffffffffffffffffffffffffffff16639dc29fac8a8a6040518363ffffffff1660e01b815260040161130c929190612c7b565b5f604051808303815f87803b158015611323575f80fd5b505af1158015611335573d5f803e3d5ffd5b50505050611385898260055f9054906101000a900473ffffffffffffffffffffffffffffffffffffffff1673ffffffffffffffffffffffffffffffffffffffff166118449092919063ffffffff16565b6113d1338360055f9054906101000a900473ffffffffffffffffffffffffffffffffffffffff1673ffffffffffffffffffffffffffffffffffffffff166118449092919063ffffffff16565b428973ffffffffffffffffffffffffffffffffffffffff167f9a5f60e59cc27a7c25a7f78275c910454cd9adacb21cecff527c98ed63e028778a848660405161141c93929190612dd7565b60405180910390a3505050505050505050565b600c5481565b61143d6119fa565b73ffffffffffffffffffffffffffffffffffffffff1661145b610b06565b73ffffffffffffffffffffffffffffffffffffffff16146114ba5761147e6119fa565b6040517f118cdaa70000000000000000000000000000000000000000000000000000000081526004016114b19190612632565b60405180910390fd5b565b5f7f000000000000000000000000000000000000000000000000000000000000000073ffffffffffffffffffffffffffffffffffffffff163073ffffffffffffffffffffffffffffffffffffffff1614801561153757507f000000000000000000000000000000000000000000000000000000000000000046145b15611564577f0000000000000000000000000000000000000000000000000000000000000000905061156f565b61156c611a01565b90505b90565b5f151560105f8560ff1660ff1681526020019081526020015f205f9054906101000a900460ff16151514806115c757505f151560115f8481526020019081526020015f205f9054906101000a900460ff161515145b806115f257505f151560125f8381526020019081526020015f205f9054906101000a900460ff161515145b611631576040517f08c379a000000000000000000000000000000000000000000000000000000000815260040161162890612e56565b60405180910390fd5b8342111561167657836040517f6279130200000000000000000000000000000000000000000000000000000000815260040161166d919061212f565b60405180910390fd5b5f7f05619a74ecd0240afc3bfb1df2bd1319401220fb577809c3a09bf0ab809ac861600f5f9054906101000a900473ffffffffffffffffffffffffffffffffffffffff168888886040516020016116d1959493929190612e74565b6040516020818303038152906040528051906020012090505f6116f382611a96565b90505f61170282878787611aaf565b9050600f5f9054906101000a900473ffffffffffffffffffffffffffffffffffffffff1673ffffffffffffffffffffffffffffffffffffffff168173ffffffffffffffffffffffffffffffffffffffff16146117b85780600f5f9054906101000a900473ffffffffffffffffffffffffffffffffffffffff166040517f4b800e460000000000000000000000000000000000000000000000000000000081526004016117af929190612ec5565b60405180910390fd5b600160105f8860ff1660ff1681526020019081526020015f205f6101000a81548160ff021916908315150217905550600160115f8781526020019081526020015f205f6101000a81548160ff021916908315150217905550600160125f8681526020019081526020015f205f6101000a81548160ff021916908315150217905550505050505050505050565b6118be838473ffffffffffffffffffffffffffffffffffffffff1663a9059cbb8585604051602401611877929190612c7b565b604051602081830303815290604052915060e01b6020820180517bffffffffffffffffffffffffffffffffffffffffffffffffffffffff8381831617835250505050611add565b505050565b5f805f9054906101000a900473ffffffffffffffffffffffffffffffffffffffff169050815f806101000a81548173ffffffffffffffffffffffffffffffffffffffff021916908373ffffffffffffffffffffffffffffffffffffffff1602179055508173ffffffffffffffffffffffffffffffffffffffff168173ffffffffffffffffffffffffffffffffffffffff167f8be0079c531659141344cd1fd0a4f28419497f9722a3daafe3b4186f6b6457e060405160405180910390a35050565b60606119ba60017f0000000000000000000000000000000000000000000000000000000000000000611b7290919063ffffffff16565b905090565b60606119f560027f0000000000000000000000000000000000000000000000000000000000000000611b7290919063ffffffff16565b905090565b5f33905090565b5f7f8b73c3c69bb8fe3d512ecc4cf759cc79239f7b179b0ffacaa9a75d522b39400f7f00000000000000000000000000000000000000000000000000000000000000007f00000000000000000000000000000000000000000000000000000000000000004630604051602001611a7b959493929190612eec565b60405160208183030381529060405280519060200120905090565b5f611aa8611aa26114bc565b83611c1f565b9050919050565b5f805f80611abf88888888611c5f565b925092509250611acf8282611d46565b829350505050949350505050565b5f611b07828473ffffffffffffffffffffffffffffffffffffffff16611ea890919063ffffffff16565b90505f815114158015611b2b575080806020019051810190611b299190612cb6565b155b15611b6d57826040517f5274afe7000000000000000000000000000000000000000000000000000000008152600401611b649190612632565b60405180910390fd5b505050565b606060ff5f1b8314611b8e57611b8783611ebd565b9050611c19565b818054611b9a906126c8565b80601f0160208091040260200160405190810160405280929190818152602001828054611bc6906126c8565b8015611c115780601f10611be857610100808354040283529160200191611c11565b820191905f5260205f20905b815481529060010190602001808311611bf457829003601f168201915b505050505090505b92915050565b5f6040517f190100000000000000000000000000000000000000000000000000000000000081528360028201528260228201526042812091505092915050565b5f805f7f7fffffffffffffffffffffffffffffff5d576e7357a4501ddfe92f46681b20a0845f1c1115611c9b575f600385925092509250611d3c565b5f6001888888886040515f8152602001604052604051611cbe9493929190612f4c565b6020604051602081039080840390855afa158015611cde573d5f803e3d5ffd5b5050506020604051035190505f73ffffffffffffffffffffffffffffffffffffffff168173ffffffffffffffffffffffffffffffffffffffff1603611d2f575f60015f801b93509350935050611d3c565b805f805f1b935093509350505b9450945094915050565b5f6003811115611d5957611d58612f8f565b5b826003811115611d6c57611d6b612f8f565b5b0315611ea45760016003811115611d8657611d85612f8f565b5b826003811115611d9957611d98612f8f565b5b03611dd0576040517ff645eedf00000000000000000000000000000000000000000000000000000000815260040160405180910390fd5b60026003811115611de457611de3612f8f565b5b826003811115611df757611df6612f8f565b5b03611e3b57805f1c6040517ffce698f7000000000000000000000000000000000000000000000000000000008152600401611e32919061212f565b60405180910390fd5b600380811115611e4e57611e4d612f8f565b5b826003811115611e6157611e60612f8f565b5b03611ea357806040517fd78bce0c000000000000000000000000000000000000000000000000000000008152600401611e9a919061232e565b60405180910390fd5b5b5050565b6060611eb583835f611f2f565b905092915050565b60605f611ec983611ff8565b90505f602067ffffffffffffffff811115611ee757611ee6612ad9565b5b6040519080825280601f01601f191660200182016040528015611f195781602001600182028036833780820191505090505b5090508181528360208201528092505050919050565b606081471015611f7657306040517fcd786059000000000000000000000000000000000000000000000000000000008152600401611f6d9190612632565b60405180910390fd5b5f808573ffffffffffffffffffffffffffffffffffffffff168486604051611f9e9190613000565b5f6040518083038185875af1925050503d805f8114611fd8576040519150601f19603f3d011682016040523d82523d5f602084013e611fdd565b606091505b5091509150611fed868383612046565b925050509392505050565b5f8060ff835f1c169050601f81111561203d576040517fb3512b0c00000000000000000000000000000000000000000000000000000000815260040160405180910390fd5b80915050919050565b60608261205b57612056826120d3565b6120cb565b5f825114801561208157505f8473ffffffffffffffffffffffffffffffffffffffff163b145b156120c357836040517f9996b3150000000000000000000000000000000000000000000000000000000081526004016120ba9190612632565b60405180910390fd5b8190506120cc565b5b9392505050565b5f815111156120e55780518082602001fd5b6040517f1425ea4200000000000000000000000000000000000000000000000000000000815260040160405180910390fd5b5f819050919050565b61212981612117565b82525050565b5f6020820190506121425f830184612120565b92915050565b5f81519050919050565b5f82825260208201905092915050565b5f5b8381101561217f578082015181840152602081019050612164565b5f8484015250505050565b5f601f19601f8301169050919050565b5f6121a482612148565b6121ae8185612152565b93506121be818560208601612162565b6121c78161218a565b840191505092915050565b5f6020820190508181035f8301526121ea818461219a565b905092915050565b5f80fd5b6121ff81612117565b8114612209575f80fd5b50565b5f8135905061221a816121f6565b92915050565b5f60208284031215612235576122346121f2565b5b5f6122428482850161220c565b91505092915050565b5f8115159050919050565b61225f8161224b565b82525050565b5f6020820190506122785f830184612256565b92915050565b5f73ffffffffffffffffffffffffffffffffffffffff82169050919050565b5f6122a78261227e565b9050919050565b6122b78161229d565b81146122c1575f80fd5b50565b5f813590506122d2816122ae565b92915050565b5f80604083850312156122ee576122ed6121f2565b5b5f6122fb858286016122c4565b925050602061230c858286016122c4565b9150509250929050565b5f819050919050565b61232881612316565b82525050565b5f6020820190506123415f83018461231f565b92915050565b5f60ff82169050919050565b61235c81612347565b8114612366575f80fd5b50565b5f8135905061237781612353565b92915050565b61238681612316565b8114612390575f80fd5b50565b5f813590506123a18161237d565b92915050565b5f805f805f8060c087890312156123c1576123c06121f2565b5b5f6123ce89828a016122c4565b96505060206123df89828a0161220c565b95505060406123f089828a0161220c565b945050606061240189828a01612369565b935050608061241289828a01612393565b92505060a061242389828a01612393565b9150509295509295509295565b6124398161224b565b8114612443575f80fd5b50565b5f8135905061245481612430565b92915050565b5f6020828403121561246f5761246e6121f2565b5b5f61247c84828501612446565b91505092915050565b5f6020828403121561249a576124996121f2565b5b5f6124a7848285016122c4565b91505092915050565b5f7fff0000000000000000000000000000000000000000000000000000000000000082169050919050565b6124e4816124b0565b82525050565b6124f38161229d565b82525050565b5f81519050919050565b5f82825260208201905092915050565b5f819050602082019050919050565b61252b81612117565b82525050565b5f61253c8383612522565b60208301905092915050565b5f602082019050919050565b5f61255e826124f9565b6125688185612503565b935061257383612513565b805f5b838110156125a357815161258a8882612531565b975061259583612548565b925050600181019050612576565b5085935050505092915050565b5f60e0820190506125c35f83018a6124db565b81810360208301526125d5818961219a565b905081810360408301526125e9818861219a565b90506125f86060830187612120565b61260560808301866124ea565b61261260a083018561231f565b81810360c08301526126248184612554565b905098975050505050505050565b5f6020820190506126455f8301846124ea565b92915050565b5f805f60608486031215612662576126616121f2565b5b5f61266f868287016122c4565b9350506020612680868287016122c4565b92505060406126918682870161220c565b9150509250925092565b7f4e487b71000000000000000000000000000000000000000000000000000000005f52602260045260245ffd5b5f60028204905060018216806126df57607f821691505b6020821081036126f2576126f161269b565b5b50919050565b5f8151905061270681612353565b92915050565b5f60208284031215612721576127206121f2565b5b5f61272e848285016126f8565b91505092915050565b7f4e487b71000000000000000000000000000000000000000000000000000000005f52601160045260245ffd5b5f8160011c9050919050565b5f808291508390505b60018511156127b95780860481111561279557612794612737565b5b60018516156127a45780820291505b80810290506127b285612764565b9450612779565b94509492505050565b5f826127d1576001905061288c565b816127de575f905061288c565b81600181146127f457600281146127fe5761282d565b600191505061288c565b60ff8411156128105761280f612737565b5b8360020a91508482111561282757612826612737565b5b5061288c565b5060208310610133831016604e8410600b84101617156128625782820a90508381111561285d5761285c612737565b5b61288c565b61286f8484846001612770565b9250905081840481111561288657612885612737565b5b81810290505b9392505050565b5f61289d82612117565b91506128a883612347565b92506128d57fffffffffffffffffffffffffffffffffffffffffffffffffffffffffffffffff84846127c2565b905092915050565b5f6128e782612117565b91506128f283612117565b925082820261290081612117565b9150828204841483151761291757612916612737565b5b5092915050565b7f4e487b71000000000000000000000000000000000000000000000000000000005f52601260045260245ffd5b5f61295582612117565b915061296083612117565b9250826129705761296f61291e565b5b828204905092915050565b7f796f75206172652073656e64696e6720746f207a65726f2061646472657373005f82015250565b5f6129af601f83612152565b91506129ba8261297b565b602082019050919050565b5f6020820190508181035f8301526129dc816129a3565b9050919050565b7f636f6e747261637420667265657a6564000000000000000000000000000000005f82015250565b5f612a17601083612152565b9150612a22826129e3565b602082019050919050565b5f6020820190508181035f830152612a4481612a0b565b9050919050565b7f706f696e747320746f20636c61696d206c657373207468616e206d696e706f695f8201527f6e74730000000000000000000000000000000000000000000000000000000000602082015250565b5f612aa5602383612152565b9150612ab082612a4b565b604082019050919050565b5f6020820190508181035f830152612ad281612a99565b9050919050565b7f4e487b71000000000000000000000000000000000000000000000000000000005f52604160045260245ffd5b5f81519050612b14816121f6565b92915050565b5f60208284031215612b2f57612b2e6121f2565b5b5f612b3c84828501612b06565b91505092915050565b5f612b4f82612117565b9150612b5a83612117565b9250828201905080821115612b7257612b71612737565b5b92915050565b5f612b8282612117565b9150612b8d83612117565b9250828203905081811115612ba557612ba4612737565b5b92915050565b7f6e6f206e6577206465706f7369742061646465640000000000000000000000005f82015250565b5f612bdf601483612152565b9150612bea82612bab565b602082019050919050565b5f6020820190508181035f830152612c0c81612bd3565b9050919050565b7f63616e742073656e64207a65726f20616d6f756e7400000000000000000000005f82015250565b5f612c47601583612152565b9150612c5282612c13565b602082019050919050565b5f6020820190508181035f830152612c7481612c3b565b9050919050565b5f604082019050612c8e5f8301856124ea565b612c9b6020830184612120565b9392505050565b5f81519050612cb081612430565b92915050565b5f60208284031215612ccb57612cca6121f2565b5b5f612cd884828501612ca2565b91505092915050565b7f6e6f7420656e6f75676820706f696e74730000000000000000000000000000005f82015250565b5f612d15601183612152565b9150612d2082612ce1565b602082019050919050565b5f6020820190508181035f830152612d4281612d09565b9050919050565b7f706f696e747320746f2073776170206c657373207468616e206d696e706f696e5f8201527f7473000000000000000000000000000000000000000000000000000000000000602082015250565b5f612da3602283612152565b9150612dae82612d49565b604082019050919050565b5f6020820190508181035f830152612dd081612d97565b9050919050565b5f606082019050612dea5f830186612120565b612df76020830185612120565b612e046040830184612120565b949350505050565b7f73696720757365640000000000000000000000000000000000000000000000005f82015250565b5f612e40600883612152565b9150612e4b82612e0c565b602082019050919050565b5f6020820190508181035f830152612e6d81612e34565b9050919050565b5f60a082019050612e875f83018861231f565b612e9460208301876124ea565b612ea160408301866124ea565b612eae6060830185612120565b612ebb6080830184612120565b9695505050505050565b5f604082019050612ed85f8301856124ea565b612ee560208301846124ea565b9392505050565b5f60a082019050612eff5f83018861231f565b612f0c602083018761231f565b612f19604083018661231f565b612f266060830185612120565b612f3360808301846124ea565b9695505050505050565b612f4681612347565b82525050565b5f608082019050612f5f5f83018761231f565b612f6c6020830186612f3d565b612f79604083018561231f565b612f86606083018461231f565b95945050505050565b7f4e487b71000000000000000000000000000000000000000000000000000000005f52602160045260245ffd5b5f81519050919050565b5f81905092915050565b5f612fda82612fbc565b612fe48185612fc6565b9350612ff4818560208601612162565b80840191505092915050565b5f61300b8284612fd0565b91508190509291505056fea2646970667358221220bd204d295692b990a414effac660bf9da11e3601fc0f0b12d6846eef59e5eae864736f6c63430008160033a26469706673582212202944863200f1e7c1ebdc01fcabe797c96ff86fa83cbab34d3899c5759c11905c64736f6c63430008160033",
			"opcodes": "PUSH1 0x80 PUSH1 0x40 MSTORE PUSH1 0x1 PUSH1 0x6 SSTORE CALLVALUE DUP1 ISZERO PUSH3 0x15 JUMPI PUSH0 DUP1 REVERT JUMPDEST POP PUSH1 0x40 MLOAD PUSH3 0x6B9B CODESIZE SUB DUP1 PUSH3 0x6B9B DUP4 CODECOPY DUP2 DUP2 ADD PUSH1 0x40 MSTORE DUP2 ADD SWAP1 PUSH3 0x3B SWAP2 SWAP1 PUSH3 0x5AC JUMP JUMPDEST CALLER PUSH1 0x40 MLOAD DUP1 PUSH1 0x40 ADD PUSH1 0x40 MSTORE DUP1 PUSH1 0x6 DUP2 MSTORE PUSH1 0x20 ADD PUSH32 0x506F696E74730000000000000000000000000000000000000000000000000000 DUP2 MSTORE POP PUSH1 0x40 MLOAD DUP1 PUSH1 0x40 ADD PUSH1 0x40 MSTORE DUP1 PUSH1 0x3 DUP2 MSTORE PUSH1 0x20 ADD PUSH32 0x504E540000000000000000000000000000000000000000000000000000000000 DUP2 MSTORE POP DUP2 PUSH1 0x3 SWAP1 DUP2 PUSH3 0xB9 SWAP2 SWAP1 PUSH3 0x840 JUMP JUMPDEST POP DUP1 PUSH1 0x4 SWAP1 DUP2 PUSH3 0xCB SWAP2 SWAP1 PUSH3 0x840 JUMP JUMPDEST POP POP POP PUSH0 PUSH20 0xFFFFFFFFFFFFFFFFFFFFFFFFFFFFFFFFFFFFFFFF AND DUP2 PUSH20 0xFFFFFFFFFFFFFFFFFFFFFFFFFFFFFFFFFFFFFFFF AND SUB PUSH3 0x141 JUMPI PUSH0 PUSH1 0x40 MLOAD PUSH32 0x1E4FBDF700000000000000000000000000000000000000000000000000000000 DUP2 MSTORE PUSH1 0x4 ADD PUSH3 0x138 SWAP2 SWAP1 PUSH3 0x935 JUMP JUMPDEST PUSH1 0x40 MLOAD DUP1 SWAP2 SUB SWAP1 REVERT JUMPDEST PUSH3 0x152 DUP2 PUSH3 0x1D6 PUSH1 0x20 SHL PUSH1 0x20 SHR JUMP JUMPDEST POP PUSH3 0x171 CALLER PUSH12 0x1363156BBEE3016D70000000 PUSH3 0x299 PUSH1 0x20 SHL PUSH1 0x20 SHR JUMP JUMPDEST PUSH3 0x18F ADDRESS PUSH12 0xCECB8F27F4200F3A0000000 PUSH3 0x299 PUSH1 0x20 SHL PUSH1 0x20 SHR JUMP JUMPDEST DUP1 PUSH1 0x7 PUSH0 PUSH2 0x100 EXP DUP2 SLOAD DUP2 PUSH20 0xFFFFFFFFFFFFFFFFFFFFFFFFFFFFFFFFFFFFFFFF MUL NOT AND SWAP1 DUP4 PUSH20 0xFFFFFFFFFFFFFFFFFFFFFFFFFFFFFFFFFFFFFFFF AND MUL OR SWAP1 SSTORE POP POP PUSH3 0xA1E JUMP JUMPDEST PUSH0 PUSH1 0x5 PUSH0 SWAP1 SLOAD SWAP1 PUSH2 0x100 EXP SWAP1 DIV PUSH20 0xFFFFFFFFFFFFFFFFFFFFFFFFFFFFFFFFFFFFFFFF AND SWAP1 POP DUP2 PUSH1 0x5 PUSH0 PUSH2 0x100 EXP DUP2 SLOAD DUP2 PUSH20 0xFFFFFFFFFFFFFFFFFFFFFFFFFFFFFFFFFFFFFFFF MUL NOT AND SWAP1 DUP4 PUSH20 0xFFFFFFFFFFFFFFFFFFFFFFFFFFFFFFFFFFFFFFFF AND MUL OR SWAP1 SSTORE POP DUP2 PUSH20 0xFFFFFFFFFFFFFFFFFFFFFFFFFFFFFFFFFFFFFFFF AND DUP2 PUSH20 0xFFFFFFFFFFFFFFFFFFFFFFFFFFFFFFFFFFFFFFFF AND PUSH32 0x8BE0079C531659141344CD1FD0A4F28419497F9722A3DAAFE3B4186F6B6457E0 PUSH1 0x40 MLOAD PUSH1 0x40 MLOAD DUP1 SWAP2 SUB SWAP1 LOG3 POP POP JUMP JUMPDEST PUSH0 PUSH20 0xFFFFFFFFFFFFFFFFFFFFFFFFFFFFFFFFFFFFFFFF AND DUP3 PUSH20 0xFFFFFFFFFFFFFFFFFFFFFFFFFFFFFFFFFFFFFFFF AND SUB PUSH3 0x30C JUMPI PUSH0 PUSH1 0x40 MLOAD PUSH32 0xEC442F0500000000000000000000000000000000000000000000000000000000 DUP2 MSTORE PUSH1 0x4 ADD PUSH3 0x303 SWAP2 SWAP1 PUSH3 0x935 JUMP JUMPDEST PUSH1 0x40 MLOAD DUP1 SWAP2 SUB SWAP1 REVERT JUMPDEST PUSH3 0x31F PUSH0 DUP4 DUP4 PUSH3 0x323 PUSH1 0x20 SHL PUSH1 0x20 SHR JUMP JUMPDEST POP POP JUMP JUMPDEST PUSH0 PUSH20 0xFFFFFFFFFFFFFFFFFFFFFFFFFFFFFFFFFFFFFFFF AND DUP4 PUSH20 0xFFFFFFFFFFFFFFFFFFFFFFFFFFFFFFFFFFFFFFFF AND SUB PUSH3 0x377 JUMPI DUP1 PUSH1 0x2 PUSH0 DUP3 DUP3 SLOAD PUSH3 0x36A SWAP2 SWAP1 PUSH3 0x97D JUMP JUMPDEST SWAP3 POP POP DUP2 SWAP1 SSTORE POP PUSH3 0x448 JUMP JUMPDEST PUSH0 DUP1 PUSH0 DUP6 PUSH20 0xFFFFFFFFFFFFFFFFFFFFFFFFFFFFFFFFFFFFFFFF AND PUSH20 0xFFFFFFFFFFFFFFFFFFFFFFFFFFFFFFFFFFFFFFFF AND DUP2 MSTORE PUSH1 0x20 ADD SWAP1 DUP2 MSTORE PUSH1 0x20 ADD PUSH0 KECCAK256 SLOAD SWAP1 POP DUP2 DUP2 LT ISZERO PUSH3 0x403 JUMPI DUP4 DUP2 DUP4 PUSH1 0x40 MLOAD PUSH32 0xE450D38C00000000000000000000000000000000000000000000000000000000 DUP2 MSTORE PUSH1 0x4 ADD PUSH3 0x3FA SWAP4 SWAP3 SWAP2 SWAP1 PUSH3 0x9C8 JUMP JUMPDEST PUSH1 0x40 MLOAD DUP1 SWAP2 SUB SWAP1 REVERT JUMPDEST DUP2 DUP2 SUB PUSH0 DUP1 DUP7 PUSH20 0xFFFFFFFFFFFFFFFFFFFFFFFFFFFFFFFFFFFFFFFF AND PUSH20 0xFFFFFFFFFFFFFFFFFFFFFFFFFFFFFFFFFFFFFFFF AND DUP2 MSTORE PUSH1 0x20 ADD SWAP1 DUP2 MSTORE PUSH1 0x20 ADD PUSH0 KECCAK256 DUP2 SWAP1 SSTORE POP POP JUMPDEST PUSH0 PUSH20 0xFFFFFFFFFFFFFFFFFFFFFFFFFFFFFFFFFFFFFFFF AND DUP3 PUSH20 0xFFFFFFFFFFFFFFFFFFFFFFFFFFFFFFFFFFFFFFFF AND SUB PUSH3 0x491 JUMPI DUP1 PUSH1 0x2 PUSH0 DUP3 DUP3 SLOAD SUB SWAP3 POP POP DUP2 SWAP1 SSTORE POP PUSH3 0x4DB JUMP JUMPDEST DUP1 PUSH0 DUP1 DUP5 PUSH20 0xFFFFFFFFFFFFFFFFFFFFFFFFFFFFFFFFFFFFFFFF AND PUSH20 0xFFFFFFFFFFFFFFFFFFFFFFFFFFFFFFFFFFFFFFFF AND DUP2 MSTORE PUSH1 0x20 ADD SWAP1 DUP2 MSTORE PUSH1 0x20 ADD PUSH0 KECCAK256 PUSH0 DUP3 DUP3 SLOAD ADD SWAP3 POP POP DUP2 SWAP1 SSTORE POP JUMPDEST DUP2 PUSH20 0xFFFFFFFFFFFFFFFFFFFFFFFFFFFFFFFFFFFFFFFF AND DUP4 PUSH20 0xFFFFFFFFFFFFFFFFFFFFFFFFFFFFFFFFFFFFFFFF AND PUSH32 0xDDF252AD1BE2C89B69C2B068FC378DAA952BA7F163C4A11628F55A4DF523B3EF DUP4 PUSH1 0x40 MLOAD PUSH3 0x53A SWAP2 SWAP1 PUSH3 0xA03 JUMP JUMPDEST PUSH1 0x40 MLOAD DUP1 SWAP2 SUB SWAP1 LOG3 POP POP POP JUMP JUMPDEST PUSH0 DUP1 REVERT JUMPDEST PUSH0 PUSH20 0xFFFFFFFFFFFFFFFFFFFFFFFFFFFFFFFFFFFFFFFF DUP3 AND SWAP1 POP SWAP2 SWAP1 POP JUMP JUMPDEST PUSH0 PUSH3 0x576 DUP3 PUSH3 0x54B JUMP JUMPDEST SWAP1 POP SWAP2 SWAP1 POP JUMP JUMPDEST PUSH3 0x588 DUP2 PUSH3 0x56A JUMP JUMPDEST DUP2 EQ PUSH3 0x593 JUMPI PUSH0 DUP1 REVERT JUMPDEST POP JUMP JUMPDEST PUSH0 DUP2 MLOAD SWAP1 POP PUSH3 0x5A6 DUP2 PUSH3 0x57D JUMP JUMPDEST SWAP3 SWAP2 POP POP JUMP JUMPDEST PUSH0 PUSH1 0x20 DUP3 DUP5 SUB SLT ISZERO PUSH3 0x5C4 JUMPI PUSH3 0x5C3 PUSH3 0x547 JUMP JUMPDEST JUMPDEST PUSH0 PUSH3 0x5D3 DUP5 DUP3 DUP6 ADD PUSH3 0x596 JUMP JUMPDEST SWAP2 POP POP SWAP3 SWAP2 POP POP JUMP JUMPDEST PUSH0 DUP2 MLOAD SWAP1 POP SWAP2 SWAP1 POP JUMP JUMPDEST PUSH32 0x4E487B7100000000000000000000000000000000000000000000000000000000 PUSH0 MSTORE PUSH1 0x41 PUSH1 0x4 MSTORE PUSH1 0x24 PUSH0 REVERT JUMPDEST PUSH32 0x4E487B7100000000000000000000000000000000000000000000000000000000 PUSH0 MSTORE PUSH1 0x22 PUSH1 0x4 MSTORE PUSH1 0x24 PUSH0 REVERT JUMPDEST PUSH0 PUSH1 0x2 DUP3 DIV SWAP1 POP PUSH1 0x1 DUP3 AND DUP1 PUSH3 0x658 JUMPI PUSH1 0x7F DUP3 AND SWAP2 POP JUMPDEST PUSH1 0x20 DUP3 LT DUP2 SUB PUSH3 0x66E JUMPI PUSH3 0x66D PUSH3 0x613 JUMP JUMPDEST JUMPDEST POP SWAP2 SWAP1 POP JUMP JUMPDEST PUSH0 DUP2 SWAP1 POP DUP2 PUSH0 MSTORE PUSH1 0x20 PUSH0 KECCAK256 SWAP1 POP SWAP2 SWAP1 POP JUMP JUMPDEST PUSH0 PUSH1 0x20 PUSH1 0x1F DUP4 ADD DIV SWAP1 POP SWAP2 SWAP1 POP JUMP JUMPDEST PUSH0 DUP3 DUP3 SHL SWAP1 POP SWAP3 SWAP2 POP POP JUMP JUMPDEST PUSH0 PUSH1 0x8 DUP4 MUL PUSH3 0x6D2 PUSH32 0xFFFFFFFFFFFFFFFFFFFFFFFFFFFFFFFFFFFFFFFFFFFFFFFFFFFFFFFFFFFFFFFF DUP3 PUSH3 0x695 JUMP JUMPDEST PUSH3 0x6DE DUP7 DUP4 PUSH3 0x695 JUMP JUMPDEST SWAP6 POP DUP1 NOT DUP5 AND SWAP4 POP DUP1 DUP7 AND DUP5 OR SWAP3 POP POP POP SWAP4 SWAP3 POP POP POP JUMP JUMPDEST PUSH0 DUP2 SWAP1 POP SWAP2 SWAP1 POP JUMP JUMPDEST PUSH0 DUP2 SWAP1 POP SWAP2 SWAP1 POP JUMP JUMPDEST PUSH0 PUSH3 0x728 PUSH3 0x722 PUSH3 0x71C DUP5 PUSH3 0x6F6 JUMP JUMPDEST PUSH3 0x6FF JUMP JUMPDEST PUSH3 0x6F6 JUMP JUMPDEST SWAP1 POP SWAP2 SWAP1 POP JUMP JUMPDEST PUSH0 DUP2 SWAP1 POP SWAP2 SWAP1 POP JUMP JUMPDEST PUSH3 0x743 DUP4 PUSH3 0x708 JUMP JUMPDEST PUSH3 0x75B PUSH3 0x752 DUP3 PUSH3 0x72F JUMP JUMPDEST DUP5 DUP5 SLOAD PUSH3 0x6A1 JUMP JUMPDEST DUP3 SSTORE POP POP POP POP JUMP JUMPDEST PUSH0 SWAP1 JUMP JUMPDEST PUSH3 0x771 PUSH3 0x763 JUMP JUMPDEST PUSH3 0x77E DUP2 DUP5 DUP5 PUSH3 0x738 JUMP JUMPDEST POP POP POP JUMP JUMPDEST JUMPDEST DUP2 DUP2 LT ISZERO PUSH3 0x7A5 JUMPI PUSH3 0x799 PUSH0 DUP3 PUSH3 0x767 JUMP JUMPDEST PUSH1 0x1 DUP2 ADD SWAP1 POP PUSH3 0x784 JUMP JUMPDEST POP POP JUMP JUMPDEST PUSH1 0x1F DUP3 GT ISZERO PUSH3 0x7F4 JUMPI PUSH3 0x7BE DUP2 PUSH3 0x674 JUMP JUMPDEST PUSH3 0x7C9 DUP5 PUSH3 0x686 JUMP JUMPDEST DUP2 ADD PUSH1 0x20 DUP6 LT ISZERO PUSH3 0x7D9 JUMPI DUP2 SWAP1 POP JUMPDEST PUSH3 0x7F1 PUSH3 0x7E8 DUP6 PUSH3 0x686 JUMP JUMPDEST DUP4 ADD DUP3 PUSH3 0x783 JUMP JUMPDEST POP POP JUMPDEST POP POP POP JUMP JUMPDEST PUSH0 DUP3 DUP3 SHR SWAP1 POP SWAP3 SWAP2 POP POP JUMP JUMPDEST PUSH0 PUSH3 0x816 PUSH0 NOT DUP5 PUSH1 0x8 MUL PUSH3 0x7F9 JUMP JUMPDEST NOT DUP1 DUP4 AND SWAP2 POP POP SWAP3 SWAP2 POP POP JUMP JUMPDEST PUSH0 PUSH3 0x830 DUP4 DUP4 PUSH3 0x805 JUMP JUMPDEST SWAP2 POP DUP3 PUSH1 0x2 MUL DUP3 OR SWAP1 POP SWAP3 SWAP2 POP POP JUMP JUMPDEST PUSH3 0x84B DUP3 PUSH3 0x5DC JUMP JUMPDEST PUSH8 0xFFFFFFFFFFFFFFFF DUP2 GT ISZERO PUSH3 0x867 JUMPI PUSH3 0x866 PUSH3 0x5E6 JUMP JUMPDEST JUMPDEST PUSH3 0x873 DUP3 SLOAD PUSH3 0x640 JUMP JUMPDEST PUSH3 0x880 DUP3 DUP3 DUP6 PUSH3 0x7A9 JUMP JUMPDEST PUSH0 PUSH1 0x20 SWAP1 POP PUSH1 0x1F DUP4 GT PUSH1 0x1 DUP2 EQ PUSH3 0x8B6 JUMPI PUSH0 DUP5 ISZERO PUSH3 0x8A1 JUMPI DUP3 DUP8 ADD MLOAD SWAP1 POP JUMPDEST PUSH3 0x8AD DUP6 DUP3 PUSH3 0x823 JUMP JUMPDEST DUP7 SSTORE POP PUSH3 0x91C JUMP JUMPDEST PUSH1 0x1F NOT DUP5 AND PUSH3 0x8C6 DUP7 PUSH3 0x674 JUMP JUMPDEST PUSH0 JUMPDEST DUP3 DUP2 LT ISZERO PUSH3 0x8EF JUMPI DUP5 DUP10 ADD MLOAD DUP3 SSTORE PUSH1 0x1 DUP3 ADD SWAP2 POP PUSH1 0x20 DUP6 ADD SWAP5 POP PUSH1 0x20 DUP2 ADD SWAP1 POP PUSH3 0x8C8 JUMP JUMPDEST DUP7 DUP4 LT ISZERO PUSH3 0x90F JUMPI DUP5 DUP10 ADD MLOAD PUSH3 0x90B PUSH1 0x1F DUP10 AND DUP3 PUSH3 0x805 JUMP JUMPDEST DUP4 SSTORE POP JUMPDEST PUSH1 0x1 PUSH1 0x2 DUP9 MUL ADD DUP9 SSTORE POP POP POP JUMPDEST POP POP POP POP POP POP JUMP JUMPDEST PUSH3 0x92F DUP2 PUSH3 0x56A JUMP JUMPDEST DUP3 MSTORE POP POP JUMP JUMPDEST PUSH0 PUSH1 0x20 DUP3 ADD SWAP1 POP PUSH3 0x94A PUSH0 DUP4 ADD DUP5 PUSH3 0x924 JUMP JUMPDEST SWAP3 SWAP2 POP POP JUMP JUMPDEST PUSH32 0x4E487B7100000000000000000000000000000000000000000000000000000000 PUSH0 MSTORE PUSH1 0x11 PUSH1 0x4 MSTORE PUSH1 0x24 PUSH0 REVERT JUMPDEST PUSH0 PUSH3 0x989 DUP3 PUSH3 0x6F6 JUMP JUMPDEST SWAP2 POP PUSH3 0x996 DUP4 PUSH3 0x6F6 JUMP JUMPDEST SWAP3 POP DUP3 DUP3 ADD SWAP1 POP DUP1 DUP3 GT ISZERO PUSH3 0x9B1 JUMPI PUSH3 0x9B0 PUSH3 0x950 JUMP JUMPDEST JUMPDEST SWAP3 SWAP2 POP POP JUMP JUMPDEST PUSH3 0x9C2 DUP2 PUSH3 0x6F6 JUMP JUMPDEST DUP3 MSTORE POP POP JUMP JUMPDEST PUSH0 PUSH1 0x60 DUP3 ADD SWAP1 POP PUSH3 0x9DD PUSH0 DUP4 ADD DUP7 PUSH3 0x924 JUMP JUMPDEST PUSH3 0x9EC PUSH1 0x20 DUP4 ADD DUP6 PUSH3 0x9B7 JUMP JUMPDEST PUSH3 0x9FB PUSH1 0x40 DUP4 ADD DUP5 PUSH3 0x9B7 JUMP JUMPDEST SWAP5 SWAP4 POP POP POP POP JUMP JUMPDEST PUSH0 PUSH1 0x20 DUP3 ADD SWAP1 POP PUSH3 0xA18 PUSH0 DUP4 ADD DUP5 PUSH3 0x9B7 JUMP JUMPDEST SWAP3 SWAP2 POP POP JUMP JUMPDEST PUSH2 0x616F DUP1 PUSH3 0xA2C PUSH0 CODECOPY PUSH0 RETURN INVALID PUSH1 0x80 PUSH1 0x40 MSTORE CALLVALUE DUP1 ISZERO PUSH3 0x10 JUMPI PUSH0 DUP1 REVERT JUMPDEST POP PUSH1 0x4 CALLDATASIZE LT PUSH3 0x152 JUMPI PUSH0 CALLDATALOAD PUSH1 0xE0 SHR DUP1 PUSH4 0x715018A6 GT PUSH3 0xC7 JUMPI DUP1 PUSH4 0xD0A5E51E GT PUSH3 0x85 JUMPI DUP1 PUSH4 0xD0A5E51E EQ PUSH3 0x39B JUMPI DUP1 PUSH4 0xD9F0BDD1 EQ PUSH3 0x3BD JUMPI DUP1 PUSH4 0xDD62ED3E EQ PUSH3 0x3DD JUMPI DUP1 PUSH4 0xE7F6F225 EQ PUSH3 0x413 JUMPI DUP1 PUSH4 0xEA83CBF4 EQ PUSH3 0x435 JUMPI DUP1 PUSH4 0xF2FDE38B EQ PUSH3 0x46B JUMPI PUSH3 0x152 JUMP JUMPDEST DUP1 PUSH4 0x715018A6 EQ PUSH3 0x2F5 JUMPI DUP1 PUSH4 0x8DA5CB5B EQ PUSH3 0x301 JUMPI DUP1 PUSH4 0x95D89B41 EQ PUSH3 0x323 JUMPI DUP1 PUSH4 0x9DC29FAC EQ PUSH3 0x345 JUMPI DUP1 PUSH4 0xA9059CBB EQ PUSH3 0x365 JUMPI PUSH3 0x152 JUMP JUMPDEST DUP1 PUSH4 0x23B872DD GT PUSH3 0x115 JUMPI DUP1 PUSH4 0x23B872DD EQ PUSH3 0x227 JUMPI DUP1 PUSH4 0x2850FA6F EQ PUSH3 0x25D JUMPI DUP1 PUSH4 0x313CE567 EQ PUSH3 0x27D JUMPI DUP1 PUSH4 0x40C10F19 EQ PUSH3 0x29F JUMPI DUP1 PUSH4 0x70A08231 EQ PUSH3 0x2BF JUMPI PUSH3 0x152 JUMP JUMPDEST DUP1 PUSH4 0x5AC59F1 EQ PUSH3 0x156 JUMPI DUP1 PUSH4 0x6FDDE03 EQ PUSH3 0x176 JUMPI DUP1 PUSH4 0x95EA7B3 EQ PUSH3 0x198 JUMPI DUP1 PUSH4 0x9B77EEF EQ PUSH3 0x1CE JUMPI DUP1 PUSH4 0x18160DDD EQ PUSH3 0x205 JUMPI JUMPDEST PUSH0 DUP1 REVERT JUMPDEST PUSH3 0x174 PUSH1 0x4 DUP1 CALLDATASIZE SUB DUP2 ADD SWAP1 PUSH3 0x16E SWAP2 SWAP1 PUSH3 0x15C0 JUMP JUMPDEST PUSH3 0x48B JUMP JUMPDEST STOP JUMPDEST PUSH3 0x180 PUSH3 0x4D8 JUMP JUMPDEST PUSH1 0x40 MLOAD PUSH3 0x18F SWAP2 SWAP1 PUSH3 0x1684 JUMP JUMPDEST PUSH1 0x40 MLOAD DUP1 SWAP2 SUB SWAP1 RETURN JUMPDEST PUSH3 0x1B6 PUSH1 0x4 DUP1 CALLDATASIZE SUB DUP2 ADD SWAP1 PUSH3 0x1B0 SWAP2 SWAP1 PUSH3 0x16DE JUMP JUMPDEST PUSH3 0x570 JUMP JUMPDEST PUSH1 0x40 MLOAD PUSH3 0x1C5 SWAP2 SWAP1 PUSH3 0x173F JUMP JUMPDEST PUSH1 0x40 MLOAD DUP1 SWAP2 SUB SWAP1 RETURN JUMPDEST PUSH3 0x1EC PUSH1 0x4 DUP1 CALLDATASIZE SUB DUP2 ADD SWAP1 PUSH3 0x1E6 SWAP2 SWAP1 PUSH3 0x175A JUMP JUMPDEST PUSH3 0x596 JUMP JUMPDEST PUSH1 0x40 MLOAD PUSH3 0x1FC SWAP3 SWAP2 SWAP1 PUSH3 0x179B JUMP JUMPDEST PUSH1 0x40 MLOAD DUP1 SWAP2 SUB SWAP1 RETURN JUMPDEST PUSH3 0x20F PUSH3 0x663 JUMP JUMPDEST PUSH1 0x40 MLOAD PUSH3 0x21E SWAP2 SWAP1 PUSH3 0x17DE JUMP JUMPDEST PUSH1 0x40 MLOAD DUP1 SWAP2 SUB SWAP1 RETURN JUMPDEST PUSH3 0x245 PUSH1 0x4 DUP1 CALLDATASIZE SUB DUP2 ADD SWAP1 PUSH3 0x23F SWAP2 SWAP1 PUSH3 0x17F9 JUMP JUMPDEST PUSH3 0x66C JUMP JUMPDEST PUSH1 0x40 MLOAD PUSH3 0x254 SWAP2 SWAP1 PUSH3 0x173F JUMP JUMPDEST PUSH1 0x40 MLOAD DUP1 SWAP2 SUB SWAP1 RETURN JUMPDEST PUSH3 0x27B PUSH1 0x4 DUP1 CALLDATASIZE SUB DUP2 ADD SWAP1 PUSH3 0x275 SWAP2 SWAP1 PUSH3 0x1881 JUMP JUMPDEST PUSH3 0x6A0 JUMP JUMPDEST STOP JUMPDEST PUSH3 0x287 PUSH3 0x6BA JUMP JUMPDEST PUSH1 0x40 MLOAD PUSH3 0x296 SWAP2 SWAP1 PUSH3 0x18E3 JUMP JUMPDEST PUSH1 0x40 MLOAD DUP1 SWAP2 SUB SWAP1 RETURN JUMPDEST PUSH3 0x2BD PUSH1 0x4 DUP1 CALLDATASIZE SUB DUP2 ADD SWAP1 PUSH3 0x2B7 SWAP2 SWAP1 PUSH3 0x16DE JUMP JUMPDEST PUSH3 0x6C2 JUMP JUMPDEST STOP JUMPDEST PUSH3 0x2DD PUSH1 0x4 DUP1 CALLDATASIZE SUB DUP2 ADD SWAP1 PUSH3 0x2D7 SWAP2 SWAP1 PUSH3 0x15C0 JUMP JUMPDEST PUSH3 0x6DC JUMP JUMPDEST PUSH1 0x40 MLOAD PUSH3 0x2EC SWAP2 SWAP1 PUSH3 0x17DE JUMP JUMPDEST PUSH1 0x40 MLOAD DUP1 SWAP2 SUB SWAP1 RETURN JUMPDEST PUSH3 0x2FF PUSH3 0x721 JUMP JUMPDEST STOP JUMPDEST PUSH3 0x30B PUSH3 0x738 JUMP JUMPDEST PUSH1 0x40 MLOAD PUSH3 0x31A SWAP2 SWAP1 PUSH3 0x18FE JUMP JUMPDEST PUSH1 0x40 MLOAD DUP1 SWAP2 SUB SWAP1 RETURN JUMPDEST PUSH3 0x32D PUSH3 0x760 JUMP JUMPDEST PUSH1 0x40 MLOAD PUSH3 0x33C SWAP2 SWAP1 PUSH3 0x1684 JUMP JUMPDEST PUSH1 0x40 MLOAD DUP1 SWAP2 SUB SWAP1 RETURN JUMPDEST PUSH3 0x363 PUSH1 0x4 DUP1 CALLDATASIZE SUB DUP2 ADD SWAP1 PUSH3 0x35D SWAP2 SWAP1 PUSH3 0x16DE JUMP JUMPDEST PUSH3 0x7F8 JUMP JUMPDEST STOP JUMPDEST PUSH3 0x383 PUSH1 0x4 DUP1 CALLDATASIZE SUB DUP2 ADD SWAP1 PUSH3 0x37D SWAP2 SWAP1 PUSH3 0x16DE JUMP JUMPDEST PUSH3 0x89B JUMP JUMPDEST PUSH1 0x40 MLOAD PUSH3 0x392 SWAP2 SWAP1 PUSH3 0x173F JUMP JUMPDEST PUSH1 0x40 MLOAD DUP1 SWAP2 SUB SWAP1 RETURN JUMPDEST PUSH3 0x3A5 PUSH3 0x8C1 JUMP JUMPDEST PUSH1 0x40 MLOAD PUSH3 0x3B4 SWAP2 SWAP1 PUSH3 0x17DE JUMP JUMPDEST PUSH1 0x40 MLOAD DUP1 SWAP2 SUB SWAP1 RETURN JUMPDEST PUSH3 0x3DB PUSH1 0x4 DUP1 CALLDATASIZE SUB DUP2 ADD SWAP1 PUSH3 0x3D5 SWAP2 SWAP1 PUSH3 0x16DE JUMP JUMPDEST PUSH3 0x8C7 JUMP JUMPDEST STOP JUMPDEST PUSH3 0x3FB PUSH1 0x4 DUP1 CALLDATASIZE SUB DUP2 ADD SWAP1 PUSH3 0x3F5 SWAP2 SWAP1 PUSH3 0x1919 JUMP JUMPDEST PUSH3 0x969 JUMP JUMPDEST PUSH1 0x40 MLOAD PUSH3 0x40A SWAP2 SWAP1 PUSH3 0x17DE JUMP JUMPDEST PUSH1 0x40 MLOAD DUP1 SWAP2 SUB SWAP1 RETURN JUMPDEST PUSH3 0x41D PUSH3 0x9EB JUMP JUMPDEST PUSH1 0x40 MLOAD PUSH3 0x42C SWAP2 SWAP1 PUSH3 0x18FE JUMP JUMPDEST PUSH1 0x40 MLOAD DUP1 SWAP2 SUB SWAP1 RETURN JUMPDEST PUSH3 0x453 PUSH1 0x4 DUP1 CALLDATASIZE SUB DUP2 ADD SWAP1 PUSH3 0x44D SWAP2 SWAP1 PUSH3 0x1AA6 JUMP JUMPDEST PUSH3 0xA10 JUMP JUMPDEST PUSH1 0x40 MLOAD PUSH3 0x462 SWAP2 SWAP1 PUSH3 0x173F JUMP JUMPDEST PUSH1 0x40 MLOAD DUP1 SWAP2 SUB SWAP1 RETURN JUMPDEST PUSH3 0x489 PUSH1 0x4 DUP1 CALLDATASIZE SUB DUP2 ADD SWAP1 PUSH3 0x483 SWAP2 SWAP1 PUSH3 0x15C0 JUMP JUMPDEST PUSH3 0xC3A JUMP JUMPDEST STOP JUMPDEST PUSH3 0x495 PUSH3 0xCC5 JUMP JUMPDEST DUP1 PUSH1 0x7 PUSH0 PUSH2 0x100 EXP DUP2 SLOAD DUP2 PUSH20 0xFFFFFFFFFFFFFFFFFFFFFFFFFFFFFFFFFFFFFFFF MUL NOT AND SWAP1 DUP4 PUSH20 0xFFFFFFFFFFFFFFFFFFFFFFFFFFFFFFFFFFFFFFFF AND MUL OR SWAP1 SSTORE POP POP JUMP JUMPDEST PUSH1 0x60 PUSH1 0x3 DUP1 SLOAD PUSH3 0x4E9 SWAP1 PUSH3 0x1B61 JUMP JUMPDEST DUP1 PUSH1 0x1F ADD PUSH1 0x20 DUP1 SWAP2 DIV MUL PUSH1 0x20 ADD PUSH1 0x40 MLOAD SWAP1 DUP2 ADD PUSH1 0x40 MSTORE DUP1 SWAP3 SWAP2 SWAP1 DUP2 DUP2 MSTORE PUSH1 0x20 ADD DUP3 DUP1 SLOAD PUSH3 0x517 SWAP1 PUSH3 0x1B61 JUMP JUMPDEST DUP1 ISZERO PUSH3 0x566 JUMPI DUP1 PUSH1 0x1F LT PUSH3 0x53C JUMPI PUSH2 0x100 DUP1 DUP4 SLOAD DIV MUL DUP4 MSTORE SWAP2 PUSH1 0x20 ADD SWAP2 PUSH3 0x566 JUMP JUMPDEST DUP3 ADD SWAP2 SWAP1 PUSH0 MSTORE PUSH1 0x20 PUSH0 KECCAK256 SWAP1 JUMPDEST DUP2 SLOAD DUP2 MSTORE SWAP1 PUSH1 0x1 ADD SWAP1 PUSH1 0x20 ADD DUP1 DUP4 GT PUSH3 0x548 JUMPI DUP3 SWAP1 SUB PUSH1 0x1F AND DUP3 ADD SWAP2 JUMPDEST POP POP POP POP POP SWAP1 POP SWAP1 JUMP JUMPDEST PUSH0 DUP1 PUSH3 0x57C PUSH3 0xD55 JUMP JUMPDEST SWAP1 POP PUSH3 0x58B DUP2 DUP6 DUP6 PUSH3 0xD5C JUMP JUMPDEST PUSH1 0x1 SWAP2 POP POP SWAP3 SWAP2 POP POP JUMP JUMPDEST PUSH1 0x9 PUSH1 0x20 MSTORE DUP1 PUSH0 MSTORE PUSH1 0x40 PUSH0 KECCAK256 PUSH0 SWAP2 POP SWAP1 POP DUP1 PUSH0 ADD PUSH0 SWAP1 SLOAD SWAP1 PUSH2 0x100 EXP SWAP1 DIV PUSH20 0xFFFFFFFFFFFFFFFFFFFFFFFFFFFFFFFFFFFFFFFF AND SWAP1 DUP1 PUSH1 0x1 ADD DUP1 SLOAD PUSH3 0x5DC SWAP1 PUSH3 0x1B61 JUMP JUMPDEST DUP1 PUSH1 0x1F ADD PUSH1 0x20 DUP1 SWAP2 DIV MUL PUSH1 0x20 ADD PUSH1 0x40 MLOAD SWAP1 DUP2 ADD PUSH1 0x40 MSTORE DUP1 SWAP3 SWAP2 SWAP1 DUP2 DUP2 MSTORE PUSH1 0x20 ADD DUP3 DUP1 SLOAD PUSH3 0x60A SWAP1 PUSH3 0x1B61 JUMP JUMPDEST DUP1 ISZERO PUSH3 0x659 JUMPI DUP1 PUSH1 0x1F LT PUSH3 0x62F JUMPI PUSH2 0x100 DUP1 DUP4 SLOAD DIV MUL DUP4 MSTORE SWAP2 PUSH1 0x20 ADD SWAP2 PUSH3 0x659 JUMP JUMPDEST DUP3 ADD SWAP2 SWAP1 PUSH0 MSTORE PUSH1 0x20 PUSH0 KECCAK256 SWAP1 JUMPDEST DUP2 SLOAD DUP2 MSTORE SWAP1 PUSH1 0x1 ADD SWAP1 PUSH1 0x20 ADD DUP1 DUP4 GT PUSH3 0x63B JUMPI DUP3 SWAP1 SUB PUSH1 0x1F AND DUP3 ADD SWAP2 JUMPDEST POP POP POP POP POP SWAP1 POP DUP3 JUMP JUMPDEST PUSH0 PUSH1 0x2 SLOAD SWAP1 POP SWAP1 JUMP JUMPDEST PUSH0 DUP1 PUSH3 0x678 PUSH3 0xD55 JUMP JUMPDEST SWAP1 POP PUSH3 0x687 DUP6 DUP3 DUP6 PUSH3 0xD70 JUMP JUMPDEST PUSH3 0x694 DUP6 DUP6 DUP6 PUSH3 0xE0A JUMP JUMPDEST PUSH1 0x1 SWAP2 POP POP SWAP4 SWAP3 POP POP POP JUMP JUMPDEST PUSH3 0x6AA PUSH3 0xCC5 JUMP JUMPDEST PUSH3 0x6B6 DUP3 DUP3 PUSH3 0xF02 JUMP JUMPDEST POP POP JUMP JUMPDEST PUSH0 PUSH1 0x12 SWAP1 POP SWAP1 JUMP JUMPDEST PUSH3 0x6CC PUSH3 0xCC5 JUMP JUMPDEST PUSH3 0x6D8 DUP3 DUP3 PUSH3 0xF5A JUMP JUMPDEST POP POP JUMP JUMPDEST PUSH0 DUP1 PUSH0 DUP4 PUSH20 0xFFFFFFFFFFFFFFFFFFFFFFFFFFFFFFFFFFFFFFFF AND PUSH20 0xFFFFFFFFFFFFFFFFFFFFFFFFFFFFFFFFFFFFFFFF AND DUP2 MSTORE PUSH1 0x20 ADD SWAP1 DUP2 MSTORE PUSH1 0x20 ADD PUSH0 KECCAK256 SLOAD SWAP1 POP SWAP2 SWAP1 POP JUMP JUMPDEST PUSH3 0x72B PUSH3 0xCC5 JUMP JUMPDEST PUSH3 0x736 PUSH0 PUSH3 0xFDE JUMP JUMPDEST JUMP JUMPDEST PUSH0 PUSH1 0x5 PUSH0 SWAP1 SLOAD SWAP1 PUSH2 0x100 EXP SWAP1 DIV PUSH20 0xFFFFFFFFFFFFFFFFFFFFFFFFFFFFFFFFFFFFFFFF AND SWAP1 POP SWAP1 JUMP JUMPDEST PUSH1 0x60 PUSH1 0x4 DUP1 SLOAD PUSH3 0x771 SWAP1 PUSH3 0x1B61 JUMP JUMPDEST DUP1 PUSH1 0x1F ADD PUSH1 0x20 DUP1 SWAP2 DIV MUL PUSH1 0x20 ADD PUSH1 0x40 MLOAD SWAP1 DUP2 ADD PUSH1 0x40 MSTORE DUP1 SWAP3 SWAP2 SWAP1 DUP2 DUP2 MSTORE PUSH1 0x20 ADD DUP3 DUP1 SLOAD PUSH3 0x79F SWAP1 PUSH3 0x1B61 JUMP JUMPDEST DUP1 ISZERO PUSH3 0x7EE JUMPI DUP1 PUSH1 0x1F LT PUSH3 0x7C4 JUMPI PUSH2 0x100 DUP1 DUP4 SLOAD DIV MUL DUP4 MSTORE SWAP2 PUSH1 0x20 ADD SWAP2 PUSH3 0x7EE JUMP JUMPDEST DUP3 ADD SWAP2 SWAP1 PUSH0 MSTORE PUSH1 0x20 PUSH0 KECCAK256 SWAP1 JUMPDEST DUP2 SLOAD DUP2 MSTORE SWAP1 PUSH1 0x1 ADD SWAP1 PUSH1 0x20 ADD DUP1 DUP4 GT PUSH3 0x7D0 JUMPI DUP3 SWAP1 SUB PUSH1 0x1F AND DUP3 ADD SWAP2 JUMPDEST POP POP POP POP POP SWAP1 POP SWAP1 JUMP JUMPDEST PUSH1 0x1 ISZERO ISZERO PUSH1 0xA PUSH0 CALLER PUSH20 0xFFFFFFFFFFFFFFFFFFFFFFFFFFFFFFFFFFFFFFFF AND PUSH20 0xFFFFFFFFFFFFFFFFFFFFFFFFFFFFFFFFFFFFFFFF AND DUP2 MSTORE PUSH1 0x20 ADD SWAP1 DUP2 MSTORE PUSH1 0x20 ADD PUSH0 KECCAK256 PUSH0 SWAP1 SLOAD SWAP1 PUSH2 0x100 EXP SWAP1 DIV PUSH1 0xFF AND ISZERO ISZERO EQ PUSH3 0x88B JUMPI PUSH1 0x40 MLOAD PUSH32 0x8C379A000000000000000000000000000000000000000000000000000000000 DUP2 MSTORE PUSH1 0x4 ADD PUSH3 0x882 SWAP1 PUSH3 0x1BE3 JUMP JUMPDEST PUSH1 0x40 MLOAD DUP1 SWAP2 SUB SWAP1 REVERT JUMPDEST PUSH3 0x897 DUP3 DUP3 PUSH3 0x10A1 JUMP JUMPDEST POP POP JUMP JUMPDEST PUSH0 DUP1 PUSH3 0x8A7 PUSH3 0xD55 JUMP JUMPDEST SWAP1 POP PUSH3 0x8B6 DUP2 DUP6 DUP6 PUSH3 0xE0A JUMP JUMPDEST PUSH1 0x1 SWAP2 POP POP SWAP3 SWAP2 POP POP JUMP JUMPDEST PUSH1 0x6 SLOAD DUP2 JUMP JUMPDEST PUSH1 0x7 PUSH0 SWAP1 SLOAD SWAP1 PUSH2 0x100 EXP SWAP1 DIV PUSH20 0xFFFFFFFFFFFFFFFFFFFFFFFFFFFFFFFFFFFFFFFF AND PUSH20 0xFFFFFFFFFFFFFFFFFFFFFFFFFFFFFFFFFFFFFFFF AND CALLER PUSH20 0xFFFFFFFFFFFFFFFFFFFFFFFFFFFFFFFFFFFFFFFF AND EQ PUSH3 0x959 JUMPI PUSH1 0x40 MLOAD PUSH32 0x8C379A000000000000000000000000000000000000000000000000000000000 DUP2 MSTORE PUSH1 0x4 ADD PUSH3 0x950 SWAP1 PUSH3 0x1C51 JUMP JUMPDEST PUSH1 0x40 MLOAD DUP1 SWAP2 SUB SWAP1 REVERT JUMPDEST PUSH3 0x965 DUP3 DUP3 PUSH3 0x1125 JUMP JUMPDEST POP POP JUMP JUMPDEST PUSH0 PUSH1 0x1 PUSH0 DUP5 PUSH20 0xFFFFFFFFFFFFFFFFFFFFFFFFFFFFFFFFFFFFFFFF AND PUSH20 0xFFFFFFFFFFFFFFFFFFFFFFFFFFFFFFFFFFFFFFFF AND DUP2 MSTORE PUSH1 0x20 ADD SWAP1 DUP2 MSTORE PUSH1 0x20 ADD PUSH0 KECCAK256 PUSH0 DUP4 PUSH20 0xFFFFFFFFFFFFFFFFFFFFFFFFFFFFFFFFFFFFFFFF AND PUSH20 0xFFFFFFFFFFFFFFFFFFFFFFFFFFFFFFFFFFFFFFFF AND DUP2 MSTORE PUSH1 0x20 ADD SWAP1 DUP2 MSTORE PUSH1 0x20 ADD PUSH0 KECCAK256 SLOAD SWAP1 POP SWAP3 SWAP2 POP POP JUMP JUMPDEST PUSH1 0x7 PUSH0 SWAP1 SLOAD SWAP1 PUSH2 0x100 EXP SWAP1 DIV PUSH20 0xFFFFFFFFFFFFFFFFFFFFFFFFFFFFFFFFFFFFFFFF AND DUP2 JUMP JUMPDEST PUSH0 PUSH1 0x7 PUSH0 SWAP1 SLOAD SWAP1 PUSH2 0x100 EXP SWAP1 DIV PUSH20 0xFFFFFFFFFFFFFFFFFFFFFFFFFFFFFFFFFFFFFFFF AND PUSH20 0xFFFFFFFFFFFFFFFFFFFFFFFFFFFFFFFFFFFFFFFF AND CALLER PUSH20 0xFFFFFFFFFFFFFFFFFFFFFFFFFFFFFFFFFFFFFFFF AND EQ PUSH3 0xAA3 JUMPI PUSH1 0x40 MLOAD PUSH32 0x8C379A000000000000000000000000000000000000000000000000000000000 DUP2 MSTORE PUSH1 0x4 ADD PUSH3 0xA9A SWAP1 PUSH3 0x1C51 JUMP JUMPDEST PUSH1 0x40 MLOAD DUP1 SWAP2 SUB SWAP1 REVERT JUMPDEST PUSH0 PUSH1 0x9 PUSH0 PUSH1 0x6 SLOAD DUP2 MSTORE PUSH1 0x20 ADD SWAP1 DUP2 MSTORE PUSH1 0x20 ADD PUSH0 KECCAK256 SWAP1 POP PUSH0 ISZERO ISZERO PUSH1 0x8 DUP8 PUSH1 0x40 MLOAD PUSH3 0xACE SWAP2 SWAP1 PUSH3 0x1CB1 JUMP JUMPDEST SWAP1 DUP2 MSTORE PUSH1 0x20 ADD PUSH1 0x40 MLOAD DUP1 SWAP2 SUB SWAP1 KECCAK256 PUSH0 SWAP1 SLOAD SWAP1 PUSH2 0x100 EXP SWAP1 DIV PUSH1 0xFF AND ISZERO ISZERO EQ PUSH3 0xB2E JUMPI PUSH1 0x40 MLOAD PUSH32 0x8C379A000000000000000000000000000000000000000000000000000000000 DUP2 MSTORE PUSH1 0x4 ADD PUSH3 0xB25 SWAP1 PUSH3 0x1D17 JUMP JUMPDEST PUSH1 0x40 MLOAD DUP1 SWAP2 SUB SWAP1 REVERT JUMPDEST PUSH1 0x1 PUSH1 0x8 DUP8 PUSH1 0x40 MLOAD PUSH3 0xB42 SWAP2 SWAP1 PUSH3 0x1CB1 JUMP JUMPDEST SWAP1 DUP2 MSTORE PUSH1 0x20 ADD PUSH1 0x40 MLOAD DUP1 SWAP2 SUB SWAP1 KECCAK256 PUSH0 PUSH2 0x100 EXP DUP2 SLOAD DUP2 PUSH1 0xFF MUL NOT AND SWAP1 DUP4 ISZERO ISZERO MUL OR SWAP1 SSTORE POP PUSH0 DUP6 DUP8 DUP7 ADDRESS PUSH1 0x40 MLOAD PUSH3 0xB79 SWAP1 PUSH3 0x1540 JUMP JUMPDEST PUSH3 0xB88 SWAP5 SWAP4 SWAP3 SWAP2 SWAP1 PUSH3 0x1D37 JUMP JUMPDEST PUSH1 0x40 MLOAD DUP1 SWAP2 SUB SWAP1 PUSH0 CREATE DUP1 ISZERO DUP1 ISZERO PUSH3 0xBA2 JUMPI RETURNDATASIZE PUSH0 DUP1 RETURNDATACOPY RETURNDATASIZE PUSH0 REVERT JUMPDEST POP SWAP1 POP DUP1 DUP3 PUSH0 ADD PUSH0 PUSH2 0x100 EXP DUP2 SLOAD DUP2 PUSH20 0xFFFFFFFFFFFFFFFFFFFFFFFFFFFFFFFFFFFFFFFF MUL NOT AND SWAP1 DUP4 PUSH20 0xFFFFFFFFFFFFFFFFFFFFFFFFFFFFFFFFFFFFFFFF AND MUL OR SWAP1 SSTORE POP DUP7 DUP3 PUSH1 0x1 ADD SWAP1 DUP2 PUSH3 0xBF9 SWAP2 SWAP1 PUSH3 0x1F4C JUMP JUMPDEST POP PUSH3 0xC06 DUP2 DUP6 PUSH3 0x1125 JUMP JUMPDEST PUSH1 0x6 PUSH0 DUP2 SLOAD DUP1 SWAP3 SWAP2 SWAP1 PUSH3 0xC1A SWAP1 PUSH3 0x205D JUMP JUMPDEST SWAP2 SWAP1 POP SSTORE POP PUSH3 0xC2C DUP2 PUSH1 0x1 PUSH3 0xF02 JUMP JUMPDEST PUSH1 0x1 SWAP3 POP POP POP SWAP5 SWAP4 POP POP POP POP JUMP JUMPDEST PUSH3 0xC44 PUSH3 0xCC5 JUMP JUMPDEST PUSH0 PUSH20 0xFFFFFFFFFFFFFFFFFFFFFFFFFFFFFFFFFFFFFFFF AND DUP2 PUSH20 0xFFFFFFFFFFFFFFFFFFFFFFFFFFFFFFFFFFFFFFFF AND SUB PUSH3 0xCB7 JUMPI PUSH0 PUSH1 0x40 MLOAD PUSH32 0x1E4FBDF700000000000000000000000000000000000000000000000000000000 DUP2 MSTORE PUSH1 0x4 ADD PUSH3 0xCAE SWAP2 SWAP1 PUSH3 0x18FE JUMP JUMPDEST PUSH1 0x40 MLOAD DUP1 SWAP2 SUB SWAP1 REVERT JUMPDEST PUSH3 0xCC2 DUP2 PUSH3 0xFDE JUMP JUMPDEST POP JUMP JUMPDEST PUSH3 0xCCF PUSH3 0xD55 JUMP JUMPDEST PUSH20 0xFFFFFFFFFFFFFFFFFFFFFFFFFFFFFFFFFFFFFFFF AND PUSH3 0xCEF PUSH3 0x738 JUMP JUMPDEST PUSH20 0xFFFFFFFFFFFFFFFFFFFFFFFFFFFFFFFFFFFFFFFF AND EQ PUSH3 0xD53 JUMPI PUSH3 0xD15 PUSH3 0xD55 JUMP JUMPDEST PUSH1 0x40 MLOAD PUSH32 0x118CDAA700000000000000000000000000000000000000000000000000000000 DUP2 MSTORE PUSH1 0x4 ADD PUSH3 0xD4A SWAP2 SWAP1 PUSH3 0x18FE JUMP JUMPDEST PUSH1 0x40 MLOAD DUP1 SWAP2 SUB SWAP1 REVERT JUMPDEST JUMP JUMPDEST PUSH0 CALLER SWAP1 POP SWAP1 JUMP JUMPDEST PUSH3 0xD6B DUP4 DUP4 DUP4 PUSH1 0x1 PUSH3 0x1144 JUMP JUMPDEST POP POP POP JUMP JUMPDEST PUSH0 PUSH3 0xD7D DUP5 DUP5 PUSH3 0x969 JUMP JUMPDEST SWAP1 POP PUSH32 0xFFFFFFFFFFFFFFFFFFFFFFFFFFFFFFFFFFFFFFFFFFFFFFFFFFFFFFFFFFFFFFFF DUP2 EQ PUSH3 0xE04 JUMPI DUP2 DUP2 LT ISZERO PUSH3 0xDF3 JUMPI DUP3 DUP2 DUP4 PUSH1 0x40 MLOAD PUSH32 0xFB8F41B200000000000000000000000000000000000000000000000000000000 DUP2 MSTORE PUSH1 0x4 ADD PUSH3 0xDEA SWAP4 SWAP3 SWAP2 SWAP1 PUSH3 0x20A9 JUMP JUMPDEST PUSH1 0x40 MLOAD DUP1 SWAP2 SUB SWAP1 REVERT JUMPDEST PUSH3 0xE03 DUP5 DUP5 DUP5 DUP5 SUB PUSH0 PUSH3 0x1144 JUMP JUMPDEST JUMPDEST POP POP POP POP JUMP JUMPDEST PUSH0 PUSH20 0xFFFFFFFFFFFFFFFFFFFFFFFFFFFFFFFFFFFFFFFF AND DUP4 PUSH20 0xFFFFFFFFFFFFFFFFFFFFFFFFFFFFFFFFFFFFFFFF AND SUB PUSH3 0xE7D JUMPI PUSH0 PUSH1 0x40 MLOAD PUSH32 0x96C6FD1E00000000000000000000000000000000000000000000000000000000 DUP2 MSTORE PUSH1 0x4 ADD PUSH3 0xE74 SWAP2 SWAP1 PUSH3 0x18FE JUMP JUMPDEST PUSH1 0x40 MLOAD DUP1 SWAP2 SUB SWAP1 REVERT JUMPDEST PUSH0 PUSH20 0xFFFFFFFFFFFFFFFFFFFFFFFFFFFFFFFFFFFFFFFF AND DUP3 PUSH20 0xFFFFFFFFFFFFFFFFFFFFFFFFFFFFFFFFFFFFFFFF AND SUB PUSH3 0xEF0 JUMPI PUSH0 PUSH1 0x40 MLOAD PUSH32 0xEC442F0500000000000000000000000000000000000000000000000000000000 DUP2 MSTORE PUSH1 0x4 ADD PUSH3 0xEE7 SWAP2 SWAP1 PUSH3 0x18FE JUMP JUMPDEST PUSH1 0x40 MLOAD DUP1 SWAP2 SUB SWAP1 REVERT JUMPDEST PUSH3 0xEFD DUP4 DUP4 DUP4 PUSH3 0x131C JUMP JUMPDEST POP POP POP JUMP JUMPDEST DUP1 PUSH1 0xA PUSH0 DUP5 PUSH20 0xFFFFFFFFFFFFFFFFFFFFFFFFFFFFFFFFFFFFFFFF AND PUSH20 0xFFFFFFFFFFFFFFFFFFFFFFFFFFFFFFFFFFFFFFFF AND DUP2 MSTORE PUSH1 0x20 ADD SWAP1 DUP2 MSTORE PUSH1 0x20 ADD PUSH0 KECCAK256 PUSH0 PUSH2 0x100 EXP DUP2 SLOAD DUP2 PUSH1 0xFF MUL NOT AND SWAP1 DUP4 ISZERO ISZERO MUL OR SWAP1 SSTORE POP POP POP JUMP JUMPDEST PUSH0 PUSH20 0xFFFFFFFFFFFFFFFFFFFFFFFFFFFFFFFFFFFFFFFF AND DUP3 PUSH20 0xFFFFFFFFFFFFFFFFFFFFFFFFFFFFFFFFFFFFFFFF AND SUB PUSH3 0xFCD JUMPI PUSH0 PUSH1 0x40 MLOAD PUSH32 0xEC442F0500000000000000000000000000000000000000000000000000000000 DUP2 MSTORE PUSH1 0x4 ADD PUSH3 0xFC4 SWAP2 SWAP1 PUSH3 0x18FE JUMP JUMPDEST PUSH1 0x40 MLOAD DUP1 SWAP2 SUB SWAP1 REVERT JUMPDEST PUSH3 0xFDA PUSH0 DUP4 DUP4 PUSH3 0x131C JUMP JUMPDEST POP POP JUMP JUMPDEST PUSH0 PUSH1 0x5 PUSH0 SWAP1 SLOAD SWAP1 PUSH2 0x100 EXP SWAP1 DIV PUSH20 0xFFFFFFFFFFFFFFFFFFFFFFFFFFFFFFFFFFFFFFFF AND SWAP1 POP DUP2 PUSH1 0x5 PUSH0 PUSH2 0x100 EXP DUP2 SLOAD DUP2 PUSH20 0xFFFFFFFFFFFFFFFFFFFFFFFFFFFFFFFFFFFFFFFF MUL NOT AND SWAP1 DUP4 PUSH20 0xFFFFFFFFFFFFFFFFFFFFFFFFFFFFFFFFFFFFFFFF AND MUL OR SWAP1 SSTORE POP DUP2 PUSH20 0xFFFFFFFFFFFFFFFFFFFFFFFFFFFFFFFFFFFFFFFF AND DUP2 PUSH20 0xFFFFFFFFFFFFFFFFFFFFFFFFFFFFFFFFFFFFFFFF AND PUSH32 0x8BE0079C531659141344CD1FD0A4F28419497F9722A3DAAFE3B4186F6B6457E0 PUSH1 0x40 MLOAD PUSH1 0x40 MLOAD DUP1 SWAP2 SUB SWAP1 LOG3 POP POP JUMP JUMPDEST PUSH0 PUSH20 0xFFFFFFFFFFFFFFFFFFFFFFFFFFFFFFFFFFFFFFFF AND DUP3 PUSH20 0xFFFFFFFFFFFFFFFFFFFFFFFFFFFFFFFFFFFFFFFF AND SUB PUSH3 0x1114 JUMPI PUSH0 PUSH1 0x40 MLOAD PUSH32 0x96C6FD1E00000000000000000000000000000000000000000000000000000000 DUP2 MSTORE PUSH1 0x4 ADD PUSH3 0x110B SWAP2 SWAP1 PUSH3 0x18FE JUMP JUMPDEST PUSH1 0x40 MLOAD DUP1 SWAP2 SUB SWAP1 REVERT JUMPDEST PUSH3 0x1121 DUP3 PUSH0 DUP4 PUSH3 0x131C JUMP JUMPDEST POP POP JUMP JUMPDEST PUSH3 0x1132 ADDRESS CALLER DUP4 PUSH3 0xD5C JUMP JUMPDEST PUSH3 0x113F ADDRESS DUP4 DUP4 PUSH3 0x66C JUMP JUMPDEST POP POP POP JUMP JUMPDEST PUSH0 PUSH20 0xFFFFFFFFFFFFFFFFFFFFFFFFFFFFFFFFFFFFFFFF AND DUP5 PUSH20 0xFFFFFFFFFFFFFFFFFFFFFFFFFFFFFFFFFFFFFFFF AND SUB PUSH3 0x11B7 JUMPI PUSH0 PUSH1 0x40 MLOAD PUSH32 0xE602DF0500000000000000000000000000000000000000000000000000000000 DUP2 MSTORE PUSH1 0x4 ADD PUSH3 0x11AE SWAP2 SWAP1 PUSH3 0x18FE JUMP JUMPDEST PUSH1 0x40 MLOAD DUP1 SWAP2 SUB SWAP1 REVERT JUMPDEST PUSH0 PUSH20 0xFFFFFFFFFFFFFFFFFFFFFFFFFFFFFFFFFFFFFFFF AND DUP4 PUSH20 0xFFFFFFFFFFFFFFFFFFFFFFFFFFFFFFFFFFFFFFFF AND SUB PUSH3 0x122A JUMPI PUSH0 PUSH1 0x40 MLOAD PUSH32 0x94280D6200000000000000000000000000000000000000000000000000000000 DUP2 MSTORE PUSH1 0x4 ADD PUSH3 0x1221 SWAP2 SWAP1 PUSH3 0x18FE JUMP JUMPDEST PUSH1 0x40 MLOAD DUP1 SWAP2 SUB SWAP1 REVERT JUMPDEST DUP2 PUSH1 0x1 PUSH0 DUP7 PUSH20 0xFFFFFFFFFFFFFFFFFFFFFFFFFFFFFFFFFFFFFFFF AND PUSH20 0xFFFFFFFFFFFFFFFFFFFFFFFFFFFFFFFFFFFFFFFF AND DUP2 MSTORE PUSH1 0x20 ADD SWAP1 DUP2 MSTORE PUSH1 0x20 ADD PUSH0 KECCAK256 PUSH0 DUP6 PUSH20 0xFFFFFFFFFFFFFFFFFFFFFFFFFFFFFFFFFFFFFFFF AND PUSH20 0xFFFFFFFFFFFFFFFFFFFFFFFFFFFFFFFFFFFFFFFF AND DUP2 MSTORE PUSH1 0x20 ADD SWAP1 DUP2 MSTORE PUSH1 0x20 ADD PUSH0 KECCAK256 DUP2 SWAP1 SSTORE POP DUP1 ISZERO PUSH3 0x1316 JUMPI DUP3 PUSH20 0xFFFFFFFFFFFFFFFFFFFFFFFFFFFFFFFFFFFFFFFF AND DUP5 PUSH20 0xFFFFFFFFFFFFFFFFFFFFFFFFFFFFFFFFFFFFFFFF AND PUSH32 0x8C5BE1E5EBEC7D5BD14F71427D1E84F3DD0314C0F7B2291E5B200AC8C7C3B925 DUP5 PUSH1 0x40 MLOAD PUSH3 0x130D SWAP2 SWAP1 PUSH3 0x17DE JUMP JUMPDEST PUSH1 0x40 MLOAD DUP1 SWAP2 SUB SWAP1 LOG3 JUMPDEST POP POP POP POP JUMP JUMPDEST PUSH0 PUSH20 0xFFFFFFFFFFFFFFFFFFFFFFFFFFFFFFFFFFFFFFFF AND DUP4 PUSH20 0xFFFFFFFFFFFFFFFFFFFFFFFFFFFFFFFFFFFFFFFF AND SUB PUSH3 0x1370 JUMPI DUP1 PUSH1 0x2 PUSH0 DUP3 DUP3 SLOAD PUSH3 0x1363 SWAP2 SWAP1 PUSH3 0x20E4 JUMP JUMPDEST SWAP3 POP POP DUP2 SWAP1 SSTORE POP PUSH3 0x1441 JUMP JUMPDEST PUSH0 DUP1 PUSH0 DUP6 PUSH20 0xFFFFFFFFFFFFFFFFFFFFFFFFFFFFFFFFFFFFFFFF AND PUSH20 0xFFFFFFFFFFFFFFFFFFFFFFFFFFFFFFFFFFFFFFFF AND DUP2 MSTORE PUSH1 0x20 ADD SWAP1 DUP2 MSTORE PUSH1 0x20 ADD PUSH0 KECCAK256 SLOAD SWAP1 POP DUP2 DUP2 LT ISZERO PUSH3 0x13FC JUMPI DUP4 DUP2 DUP4 PUSH1 0x40 MLOAD PUSH32 0xE450D38C00000000000000000000000000000000000000000000000000000000 DUP2 MSTORE PUSH1 0x4 ADD PUSH3 0x13F3 SWAP4 SWAP3 SWAP2 SWAP1 PUSH3 0x20A9 JUMP JUMPDEST PUSH1 0x40 MLOAD DUP1 SWAP2 SUB SWAP1 REVERT JUMPDEST DUP2 DUP2 SUB PUSH0 DUP1 DUP7 PUSH20 0xFFFFFFFFFFFFFFFFFFFFFFFFFFFFFFFFFFFFFFFF AND PUSH20 0xFFFFFFFFFFFFFFFFFFFFFFFFFFFFFFFFFFFFFFFF AND DUP2 MSTORE PUSH1 0x20 ADD SWAP1 DUP2 MSTORE PUSH1 0x20 ADD PUSH0 KECCAK256 DUP2 SWAP1 SSTORE POP POP JUMPDEST PUSH0 PUSH20 0xFFFFFFFFFFFFFFFFFFFFFFFFFFFFFFFFFFFFFFFF AND DUP3 PUSH20 0xFFFFFFFFFFFFFFFFFFFFFFFFFFFFFFFFFFFFFFFF AND SUB PUSH3 0x148A JUMPI DUP1 PUSH1 0x2 PUSH0 DUP3 DUP3 SLOAD SUB SWAP3 POP POP DUP2 SWAP1 SSTORE POP PUSH3 0x14D4 JUMP JUMPDEST DUP1 PUSH0 DUP1 DUP5 PUSH20 0xFFFFFFFFFFFFFFFFFFFFFFFFFFFFFFFFFFFFFFFF AND PUSH20 0xFFFFFFFFFFFFFFFFFFFFFFFFFFFFFFFFFFFFFFFF AND DUP2 MSTORE PUSH1 0x20 ADD SWAP1 DUP2 MSTORE PUSH1 0x20 ADD PUSH0 KECCAK256 PUSH0 DUP3 DUP3 SLOAD ADD SWAP3 POP POP DUP2 SWAP1 SSTORE POP JUMPDEST DUP2 PUSH20 0xFFFFFFFFFFFFFFFFFFFFFFFFFFFFFFFFFFFFFFFF AND DUP4 PUSH20 0xFFFFFFFFFFFFFFFFFFFFFFFFFFFFFFFFFFFFFFFF AND PUSH32 0xDDF252AD1BE2C89B69C2B068FC378DAA952BA7F163C4A11628F55A4DF523B3EF DUP4 PUSH1 0x40 MLOAD PUSH3 0x1533 SWAP2 SWAP1 PUSH3 0x17DE JUMP JUMPDEST PUSH1 0x40 MLOAD DUP1 SWAP2 SUB SWAP1 LOG3 POP POP POP JUMP JUMPDEST PUSH2 0x401B DUP1 PUSH3 0x211F DUP4 CODECOPY ADD SWAP1 JUMP JUMPDEST PUSH0 PUSH1 0x40 MLOAD SWAP1 POP SWAP1 JUMP JUMPDEST PUSH0 DUP1 REVERT JUMPDEST PUSH0 DUP1 REVERT JUMPDEST PUSH0 PUSH20 0xFFFFFFFFFFFFFFFFFFFFFFFFFFFFFFFFFFFFFFFF DUP3 AND SWAP1 POP SWAP2 SWAP1 POP JUMP JUMPDEST PUSH0 PUSH3 0x158A DUP3 PUSH3 0x155F JUMP JUMPDEST SWAP1 POP SWAP2 SWAP1 POP JUMP JUMPDEST PUSH3 0x159C DUP2 PUSH3 0x157E JUMP JUMPDEST DUP2 EQ PUSH3 0x15A7 JUMPI PUSH0 DUP1 REVERT JUMPDEST POP JUMP JUMPDEST PUSH0 DUP2 CALLDATALOAD SWAP1 POP PUSH3 0x15BA DUP2 PUSH3 0x1591 JUMP JUMPDEST SWAP3 SWAP2 POP POP JUMP JUMPDEST PUSH0 PUSH1 0x20 DUP3 DUP5 SUB SLT ISZERO PUSH3 0x15D8 JUMPI PUSH3 0x15D7 PUSH3 0x1557 JUMP JUMPDEST JUMPDEST PUSH0 PUSH3 0x15E7 DUP5 DUP3 DUP6 ADD PUSH3 0x15AA JUMP JUMPDEST SWAP2 POP POP SWAP3 SWAP2 POP POP JUMP JUMPDEST PUSH0 DUP2 MLOAD SWAP1 POP SWAP2 SWAP1 POP JUMP JUMPDEST PUSH0 DUP3 DUP3 MSTORE PUSH1 0x20 DUP3 ADD SWAP1 POP SWAP3 SWAP2 POP POP JUMP JUMPDEST PUSH0 JUMPDEST DUP4 DUP2 LT ISZERO PUSH3 0x1629 JUMPI DUP1 DUP3 ADD MLOAD DUP2 DUP5 ADD MSTORE PUSH1 0x20 DUP2 ADD SWAP1 POP PUSH3 0x160C JUMP JUMPDEST PUSH0 DUP5 DUP5 ADD MSTORE POP POP POP POP JUMP JUMPDEST PUSH0 PUSH1 0x1F NOT PUSH1 0x1F DUP4 ADD AND SWAP1 POP SWAP2 SWAP1 POP JUMP JUMPDEST PUSH0 PUSH3 0x1650 DUP3 PUSH3 0x15F0 JUMP JUMPDEST PUSH3 0x165C DUP2 DUP6 PUSH3 0x15FA JUMP JUMPDEST SWAP4 POP PUSH3 0x166E DUP2 DUP6 PUSH1 0x20 DUP7 ADD PUSH3 0x160A JUMP JUMPDEST PUSH3 0x1679 DUP2 PUSH3 0x1634 JUMP JUMPDEST DUP5 ADD SWAP2 POP POP SWAP3 SWAP2 POP POP JUMP JUMPDEST PUSH0 PUSH1 0x20 DUP3 ADD SWAP1 POP DUP2 DUP2 SUB PUSH0 DUP4 ADD MSTORE PUSH3 0x169E DUP2 DUP5 PUSH3 0x1644 JUMP JUMPDEST SWAP1 POP SWAP3 SWAP2 POP POP JUMP JUMPDEST PUSH0 DUP2 SWAP1 POP SWAP2 SWAP1 POP JUMP JUMPDEST PUSH3 0x16BA DUP2 PUSH3 0x16A6 JUMP JUMPDEST DUP2 EQ PUSH3 0x16C5 JUMPI PUSH0 DUP1 REVERT JUMPDEST POP JUMP JUMPDEST PUSH0 DUP2 CALLDATALOAD SWAP1 POP PUSH3 0x16D8 DUP2 PUSH3 0x16AF JUMP JUMPDEST SWAP3 SWAP2 POP POP JUMP JUMPDEST PUSH0 DUP1 PUSH1 0x40 DUP4 DUP6 SUB SLT ISZERO PUSH3 0x16F7 JUMPI PUSH3 0x16F6 PUSH3 0x1557 JUMP JUMPDEST JUMPDEST PUSH0 PUSH3 0x1706 DUP6 DUP3 DUP7 ADD PUSH3 0x15AA JUMP JUMPDEST SWAP3 POP POP PUSH1 0x20 PUSH3 0x1719 DUP6 DUP3 DUP7 ADD PUSH3 0x16C8 JUMP JUMPDEST SWAP2 POP POP SWAP3 POP SWAP3 SWAP1 POP JUMP JUMPDEST PUSH0 DUP2 ISZERO ISZERO SWAP1 POP SWAP2 SWAP1 POP JUMP JUMPDEST PUSH3 0x1739 DUP2 PUSH3 0x1723 JUMP JUMPDEST DUP3 MSTORE POP POP JUMP JUMPDEST PUSH0 PUSH1 0x20 DUP3 ADD SWAP1 POP PUSH3 0x1754 PUSH0 DUP4 ADD DUP5 PUSH3 0x172E JUMP JUMPDEST SWAP3 SWAP2 POP POP JUMP JUMPDEST PUSH0 PUSH1 0x20 DUP3 DUP5 SUB SLT ISZERO PUSH3 0x1772 JUMPI PUSH3 0x1771 PUSH3 0x1557 JUMP JUMPDEST JUMPDEST PUSH0 PUSH3 0x1781 DUP5 DUP3 DUP6 ADD PUSH3 0x16C8 JUMP JUMPDEST SWAP2 POP POP SWAP3 SWAP2 POP POP JUMP JUMPDEST PUSH3 0x1795 DUP2 PUSH3 0x157E JUMP JUMPDEST DUP3 MSTORE POP POP JUMP JUMPDEST PUSH0 PUSH1 0x40 DUP3 ADD SWAP1 POP PUSH3 0x17B0 PUSH0 DUP4 ADD DUP6 PUSH3 0x178A JUMP JUMPDEST DUP2 DUP2 SUB PUSH1 0x20 DUP4 ADD MSTORE PUSH3 0x17C4 DUP2 DUP5 PUSH3 0x1644 JUMP JUMPDEST SWAP1 POP SWAP4 SWAP3 POP POP POP JUMP JUMPDEST PUSH3 0x17D8 DUP2 PUSH3 0x16A6 JUMP JUMPDEST DUP3 MSTORE POP POP JUMP JUMPDEST PUSH0 PUSH1 0x20 DUP3 ADD SWAP1 POP PUSH3 0x17F3 PUSH0 DUP4 ADD DUP5 PUSH3 0x17CD JUMP JUMPDEST SWAP3 SWAP2 POP POP JUMP JUMPDEST PUSH0 DUP1 PUSH0 PUSH1 0x60 DUP5 DUP7 SUB SLT ISZERO PUSH3 0x1813 JUMPI PUSH3 0x1812 PUSH3 0x1557 JUMP JUMPDEST JUMPDEST PUSH0 PUSH3 0x1822 DUP7 DUP3 DUP8 ADD PUSH3 0x15AA JUMP JUMPDEST SWAP4 POP POP PUSH1 0x20 PUSH3 0x1835 DUP7 DUP3 DUP8 ADD PUSH3 0x15AA JUMP JUMPDEST SWAP3 POP POP PUSH1 0x40 PUSH3 0x1848 DUP7 DUP3 DUP8 ADD PUSH3 0x16C8 JUMP JUMPDEST SWAP2 POP POP SWAP3 POP SWAP3 POP SWAP3 JUMP JUMPDEST PUSH3 0x185D DUP2 PUSH3 0x1723 JUMP JUMPDEST DUP2 EQ PUSH3 0x1868 JUMPI PUSH0 DUP1 REVERT JUMPDEST POP JUMP JUMPDEST PUSH0 DUP2 CALLDATALOAD SWAP1 POP PUSH3 0x187B DUP2 PUSH3 0x1852 JUMP JUMPDEST SWAP3 SWAP2 POP POP JUMP JUMPDEST PUSH0 DUP1 PUSH1 0x40 DUP4 DUP6 SUB SLT ISZERO PUSH3 0x189A JUMPI PUSH3 0x1899 PUSH3 0x1557 JUMP JUMPDEST JUMPDEST PUSH0 PUSH3 0x18A9 DUP6 DUP3 DUP7 ADD PUSH3 0x15AA JUMP JUMPDEST SWAP3 POP POP PUSH1 0x20 PUSH3 0x18BC DUP6 DUP3 DUP7 ADD PUSH3 0x186B JUMP JUMPDEST SWAP2 POP POP SWAP3 POP SWAP3 SWAP1 POP JUMP JUMPDEST PUSH0 PUSH1 0xFF DUP3 AND SWAP1 POP SWAP2 SWAP1 POP JUMP JUMPDEST PUSH3 0x18DD DUP2 PUSH3 0x18C6 JUMP JUMPDEST DUP3 MSTORE POP POP JUMP JUMPDEST PUSH0 PUSH1 0x20 DUP3 ADD SWAP1 POP PUSH3 0x18F8 PUSH0 DUP4 ADD DUP5 PUSH3 0x18D2 JUMP JUMPDEST SWAP3 SWAP2 POP POP JUMP JUMPDEST PUSH0 PUSH1 0x20 DUP3 ADD SWAP1 POP PUSH3 0x1913 PUSH0 DUP4 ADD DUP5 PUSH3 0x178A JUMP JUMPDEST SWAP3 SWAP2 POP POP JUMP JUMPDEST PUSH0 DUP1 PUSH1 0x40 DUP4 DUP6 SUB SLT ISZERO PUSH3 0x1932 JUMPI PUSH3 0x1931 PUSH3 0x1557 JUMP JUMPDEST JUMPDEST PUSH0 PUSH3 0x1941 DUP6 DUP3 DUP7 ADD PUSH3 0x15AA JUMP JUMPDEST SWAP3 POP POP PUSH1 0x20 PUSH3 0x1954 DUP6 DUP3 DUP7 ADD PUSH3 0x15AA JUMP JUMPDEST SWAP2 POP POP SWAP3 POP SWAP3 SWAP1 POP JUMP JUMPDEST PUSH0 DUP1 REVERT JUMPDEST PUSH0 DUP1 REVERT JUMPDEST PUSH32 0x4E487B7100000000000000000000000000000000000000000000000000000000 PUSH0 MSTORE PUSH1 0x41 PUSH1 0x4 MSTORE PUSH1 0x24 PUSH0 REVERT JUMPDEST PUSH3 0x199E DUP3 PUSH3 0x1634 JUMP JUMPDEST DUP2 ADD DUP2 DUP2 LT PUSH8 0xFFFFFFFFFFFFFFFF DUP3 GT OR ISZERO PUSH3 0x19C0 JUMPI PUSH3 0x19BF PUSH3 0x1966 JUMP JUMPDEST JUMPDEST DUP1 PUSH1 0x40 MSTORE POP POP POP JUMP JUMPDEST PUSH0 PUSH3 0x19D4 PUSH3 0x154E JUMP JUMPDEST SWAP1 POP PUSH3 0x19E2 DUP3 DUP3 PUSH3 0x1993 JUMP JUMPDEST SWAP2 SWAP1 POP JUMP JUMPDEST PUSH0 PUSH8 0xFFFFFFFFFFFFFFFF DUP3 GT ISZERO PUSH3 0x1A04 JUMPI PUSH3 0x1A03 PUSH3 0x1966 JUMP JUMPDEST JUMPDEST PUSH3 0x1A0F DUP3 PUSH3 0x1634 JUMP JUMPDEST SWAP1 POP PUSH1 0x20 DUP2 ADD SWAP1 POP SWAP2 SWAP1 POP JUMP JUMPDEST DUP3 DUP2 DUP4 CALLDATACOPY PUSH0 DUP4 DUP4 ADD MSTORE POP POP POP JUMP JUMPDEST PUSH0 PUSH3 0x1A40 PUSH3 0x1A3A DUP5 PUSH3 0x19E7 JUMP JUMPDEST PUSH3 0x19C9 JUMP JUMPDEST SWAP1 POP DUP3 DUP2 MSTORE PUSH1 0x20 DUP2 ADD DUP5 DUP5 DUP5 ADD GT ISZERO PUSH3 0x1A5F JUMPI PUSH3 0x1A5E PUSH3 0x1962 JUMP JUMPDEST JUMPDEST PUSH3 0x1A6C DUP5 DUP3 DUP6 PUSH3 0x1A1C JUMP JUMPDEST POP SWAP4 SWAP3 POP POP POP JUMP JUMPDEST PUSH0 DUP3 PUSH1 0x1F DUP4 ADD SLT PUSH3 0x1A8B JUMPI PUSH3 0x1A8A PUSH3 0x195E JUMP JUMPDEST JUMPDEST DUP2 CALLDATALOAD PUSH3 0x1A9D DUP5 DUP3 PUSH1 0x20 DUP7 ADD PUSH3 0x1A2A JUMP JUMPDEST SWAP2 POP POP SWAP3 SWAP2 POP POP JUMP JUMPDEST PUSH0 DUP1 PUSH0 DUP1 PUSH1 0x80 DUP6 DUP8 SUB SLT ISZERO PUSH3 0x1AC1 JUMPI PUSH3 0x1AC0 PUSH3 0x1557 JUMP JUMPDEST JUMPDEST PUSH0 DUP6 ADD CALLDATALOAD PUSH8 0xFFFFFFFFFFFFFFFF DUP2 GT ISZERO PUSH3 0x1AE1 JUMPI PUSH3 0x1AE0 PUSH3 0x155B JUMP JUMPDEST JUMPDEST PUSH3 0x1AEF DUP8 DUP3 DUP9 ADD PUSH3 0x1A74 JUMP JUMPDEST SWAP5 POP POP PUSH1 0x20 PUSH3 0x1B02 DUP8 DUP3 DUP9 ADD PUSH3 0x15AA JUMP JUMPDEST SWAP4 POP POP PUSH1 0x40 PUSH3 0x1B15 DUP8 DUP3 DUP9 ADD PUSH3 0x15AA JUMP JUMPDEST SWAP3 POP POP PUSH1 0x60 PUSH3 0x1B28 DUP8 DUP3 DUP9 ADD PUSH3 0x16C8 JUMP JUMPDEST SWAP2 POP POP SWAP3 SWAP6 SWAP2 SWAP5 POP SWAP3 POP JUMP JUMPDEST PUSH32 0x4E487B7100000000000000000000000000000000000000000000000000000000 PUSH0 MSTORE PUSH1 0x22 PUSH1 0x4 MSTORE PUSH1 0x24 PUSH0 REVERT JUMPDEST PUSH0 PUSH1 0x2 DUP3 DIV SWAP1 POP PUSH1 0x1 DUP3 AND DUP1 PUSH3 0x1B79 JUMPI PUSH1 0x7F DUP3 AND SWAP2 POP JUMPDEST PUSH1 0x20 DUP3 LT DUP2 SUB PUSH3 0x1B8F JUMPI PUSH3 0x1B8E PUSH3 0x1B34 JUMP JUMPDEST JUMPDEST POP SWAP2 SWAP1 POP JUMP JUMPDEST PUSH32 0x796F7520617265206E6F7420617070726F76656420746F206275726E00000000 PUSH0 DUP3 ADD MSTORE POP JUMP JUMPDEST PUSH0 PUSH3 0x1BCB PUSH1 0x1C DUP4 PUSH3 0x15FA JUMP JUMPDEST SWAP2 POP PUSH3 0x1BD8 DUP3 PUSH3 0x1B95 JUMP JUMPDEST PUSH1 0x20 DUP3 ADD SWAP1 POP SWAP2 SWAP1 POP JUMP JUMPDEST PUSH0 PUSH1 0x20 DUP3 ADD SWAP1 POP DUP2 DUP2 SUB PUSH0 DUP4 ADD MSTORE PUSH3 0x1BFC DUP2 PUSH3 0x1BBD JUMP JUMPDEST SWAP1 POP SWAP2 SWAP1 POP JUMP JUMPDEST PUSH32 0x6E6F7420617070726F7665640000000000000000000000000000000000000000 PUSH0 DUP3 ADD MSTORE POP JUMP JUMPDEST PUSH0 PUSH3 0x1C39 PUSH1 0xC DUP4 PUSH3 0x15FA JUMP JUMPDEST SWAP2 POP PUSH3 0x1C46 DUP3 PUSH3 0x1C03 JUMP JUMPDEST PUSH1 0x20 DUP3 ADD SWAP1 POP SWAP2 SWAP1 POP JUMP JUMPDEST PUSH0 PUSH1 0x20 DUP3 ADD SWAP1 POP DUP2 DUP2 SUB PUSH0 DUP4 ADD MSTORE PUSH3 0x1C6A DUP2 PUSH3 0x1C2B JUMP JUMPDEST SWAP1 POP SWAP2 SWAP1 POP JUMP JUMPDEST PUSH0 DUP2 SWAP1 POP SWAP3 SWAP2 POP POP JUMP JUMPDEST PUSH0 PUSH3 0x1C87 DUP3 PUSH3 0x15F0 JUMP JUMPDEST PUSH3 0x1C93 DUP2 DUP6 PUSH3 0x1C71 JUMP JUMPDEST SWAP4 POP PUSH3 0x1CA5 DUP2 DUP6 PUSH1 0x20 DUP7 ADD PUSH3 0x160A JUMP JUMPDEST DUP1 DUP5 ADD SWAP2 POP POP SWAP3 SWAP2 POP POP JUMP JUMPDEST PUSH0 PUSH3 0x1CBE DUP3 DUP5 PUSH3 0x1C7B JUMP JUMPDEST SWAP2 POP DUP2 SWAP1 POP SWAP3 SWAP2 POP POP JUMP JUMPDEST PUSH32 0x6E616D652074616B656E00000000000000000000000000000000000000000000 PUSH0 DUP3 ADD MSTORE POP JUMP JUMPDEST PUSH0 PUSH3 0x1CFF PUSH1 0xA DUP4 PUSH3 0x15FA JUMP JUMPDEST SWAP2 POP PUSH3 0x1D0C DUP3 PUSH3 0x1CC9 JUMP JUMPDEST PUSH1 0x20 DUP3 ADD SWAP1 POP SWAP2 SWAP1 POP JUMP JUMPDEST PUSH0 PUSH1 0x20 DUP3 ADD SWAP1 POP DUP2 DUP2 SUB PUSH0 DUP4 ADD MSTORE PUSH3 0x1D30 DUP2 PUSH3 0x1CF1 JUMP JUMPDEST SWAP1 POP SWAP2 SWAP1 POP JUMP JUMPDEST PUSH0 PUSH1 0x80 DUP3 ADD SWAP1 POP PUSH3 0x1D4C PUSH0 DUP4 ADD DUP8 PUSH3 0x178A JUMP JUMPDEST DUP2 DUP2 SUB PUSH1 0x20 DUP4 ADD MSTORE PUSH3 0x1D60 DUP2 DUP7 PUSH3 0x1644 JUMP JUMPDEST SWAP1 POP PUSH3 0x1D71 PUSH1 0x40 DUP4 ADD DUP6 PUSH3 0x178A JUMP JUMPDEST PUSH3 0x1D80 PUSH1 0x60 DUP4 ADD DUP5 PUSH3 0x178A JUMP JUMPDEST SWAP6 SWAP5 POP POP POP POP POP JUMP JUMPDEST PUSH0 DUP2 SWAP1 POP DUP2 PUSH0 MSTORE PUSH1 0x20 PUSH0 KECCAK256 SWAP1 POP SWAP2 SWAP1 POP JUMP JUMPDEST PUSH0 PUSH1 0x20 PUSH1 0x1F DUP4 ADD DIV SWAP1 POP SWAP2 SWAP1 POP JUMP JUMPDEST PUSH0 DUP3 DUP3 SHL SWAP1 POP SWAP3 SWAP2 POP POP JUMP JUMPDEST PUSH0 PUSH1 0x8 DUP4 MUL PUSH3 0x1DE7 PUSH32 0xFFFFFFFFFFFFFFFFFFFFFFFFFFFFFFFFFFFFFFFFFFFFFFFFFFFFFFFFFFFFFFFF DUP3 PUSH3 0x1DAA JUMP JUMPDEST PUSH3 0x1DF3 DUP7 DUP4 PUSH3 0x1DAA JUMP JUMPDEST SWAP6 POP DUP1 NOT DUP5 AND SWAP4 POP DUP1 DUP7 AND DUP5 OR SWAP3 POP POP POP SWAP4 SWAP3 POP POP POP JUMP JUMPDEST PUSH0 DUP2 SWAP1 POP SWAP2 SWAP1 POP JUMP JUMPDEST PUSH0 PUSH3 0x1E34 PUSH3 0x1E2E PUSH3 0x1E28 DUP5 PUSH3 0x16A6 JUMP JUMPDEST PUSH3 0x1E0B JUMP JUMPDEST PUSH3 0x16A6 JUMP JUMPDEST SWAP1 POP SWAP2 SWAP1 POP JUMP JUMPDEST PUSH0 DUP2 SWAP1 POP SWAP2 SWAP1 POP JUMP JUMPDEST PUSH3 0x1E4F DUP4 PUSH3 0x1E14 JUMP JUMPDEST PUSH3 0x1E67 PUSH3 0x1E5E DUP3 PUSH3 0x1E3B JUMP JUMPDEST DUP5 DUP5 SLOAD PUSH3 0x1DB6 JUMP JUMPDEST DUP3 SSTORE POP POP POP POP JUMP JUMPDEST PUSH0 SWAP1 JUMP JUMPDEST PUSH3 0x1E7D PUSH3 0x1E6F JUMP JUMPDEST PUSH3 0x1E8A DUP2 DUP5 DUP5 PUSH3 0x1E44 JUMP JUMPDEST POP POP POP JUMP JUMPDEST JUMPDEST DUP2 DUP2 LT ISZERO PUSH3 0x1EB1 JUMPI PUSH3 0x1EA5 PUSH0 DUP3 PUSH3 0x1E73 JUMP JUMPDEST PUSH1 0x1 DUP2 ADD SWAP1 POP PUSH3 0x1E90 JUMP JUMPDEST POP POP JUMP JUMPDEST PUSH1 0x1F DUP3 GT ISZERO PUSH3 0x1F00 JUMPI PUSH3 0x1ECA DUP2 PUSH3 0x1D89 JUMP JUMPDEST PUSH3 0x1ED5 DUP5 PUSH3 0x1D9B JUMP JUMPDEST DUP2 ADD PUSH1 0x20 DUP6 LT ISZERO PUSH3 0x1EE5 JUMPI DUP2 SWAP1 POP JUMPDEST PUSH3 0x1EFD PUSH3 0x1EF4 DUP6 PUSH3 0x1D9B JUMP JUMPDEST DUP4 ADD DUP3 PUSH3 0x1E8F JUMP JUMPDEST POP POP JUMPDEST POP POP POP JUMP JUMPDEST PUSH0 DUP3 DUP3 SHR SWAP1 POP SWAP3 SWAP2 POP POP JUMP JUMPDEST PUSH0 PUSH3 0x1F22 PUSH0 NOT DUP5 PUSH1 0x8 MUL PUSH3 0x1F05 JUMP JUMPDEST NOT DUP1 DUP4 AND SWAP2 POP POP SWAP3 SWAP2 POP POP JUMP JUMPDEST PUSH0 PUSH3 0x1F3C DUP4 DUP4 PUSH3 0x1F11 JUMP JUMPDEST SWAP2 POP DUP3 PUSH1 0x2 MUL DUP3 OR SWAP1 POP SWAP3 SWAP2 POP POP JUMP JUMPDEST PUSH3 0x1F57 DUP3 PUSH3 0x15F0 JUMP JUMPDEST PUSH8 0xFFFFFFFFFFFFFFFF DUP2 GT ISZERO PUSH3 0x1F73 JUMPI PUSH3 0x1F72 PUSH3 0x1966 JUMP JUMPDEST JUMPDEST PUSH3 0x1F7F DUP3 SLOAD PUSH3 0x1B61 JUMP JUMPDEST PUSH3 0x1F8C DUP3 DUP3 DUP6 PUSH3 0x1EB5 JUMP JUMPDEST PUSH0 PUSH1 0x20 SWAP1 POP PUSH1 0x1F DUP4 GT PUSH1 0x1 DUP2 EQ PUSH3 0x1FC2 JUMPI PUSH0 DUP5 ISZERO PUSH3 0x1FAD JUMPI DUP3 DUP8 ADD MLOAD SWAP1 POP JUMPDEST PUSH3 0x1FB9 DUP6 DUP3 PUSH3 0x1F2F JUMP JUMPDEST DUP7 SSTORE POP PUSH3 0x2028 JUMP JUMPDEST PUSH1 0x1F NOT DUP5 AND PUSH3 0x1FD2 DUP7 PUSH3 0x1D89 JUMP JUMPDEST PUSH0 JUMPDEST DUP3 DUP2 LT ISZERO PUSH3 0x1FFB JUMPI DUP5 DUP10 ADD MLOAD DUP3 SSTORE PUSH1 0x1 DUP3 ADD SWAP2 POP PUSH1 0x20 DUP6 ADD SWAP5 POP PUSH1 0x20 DUP2 ADD SWAP1 POP PUSH3 0x1FD4 JUMP JUMPDEST DUP7 DUP4 LT ISZERO PUSH3 0x201B JUMPI DUP5 DUP10 ADD MLOAD PUSH3 0x2017 PUSH1 0x1F DUP10 AND DUP3 PUSH3 0x1F11 JUMP JUMPDEST DUP4 SSTORE POP JUMPDEST PUSH1 0x1 PUSH1 0x2 DUP9 MUL ADD DUP9 SSTORE POP POP POP JUMPDEST POP POP POP POP POP POP JUMP JUMPDEST PUSH32 0x4E487B7100000000000000000000000000000000000000000000000000000000 PUSH0 MSTORE PUSH1 0x11 PUSH1 0x4 MSTORE PUSH1 0x24 PUSH0 REVERT JUMPDEST PUSH0 PUSH3 0x2069 DUP3 PUSH3 0x16A6 JUMP JUMPDEST SWAP2 POP PUSH32 0xFFFFFFFFFFFFFFFFFFFFFFFFFFFFFFFFFFFFFFFFFFFFFFFFFFFFFFFFFFFFFFFF DUP3 SUB PUSH3 0x209E JUMPI PUSH3 0x209D PUSH3 0x2030 JUMP JUMPDEST JUMPDEST PUSH1 0x1 DUP3 ADD SWAP1 POP SWAP2 SWAP1 POP JUMP JUMPDEST PUSH0 PUSH1 0x60 DUP3 ADD SWAP1 POP PUSH3 0x20BE PUSH0 DUP4 ADD DUP7 PUSH3 0x178A JUMP JUMPDEST PUSH3 0x20CD PUSH1 0x20 DUP4 ADD DUP6 PUSH3 0x17CD JUMP JUMPDEST PUSH3 0x20DC PUSH1 0x40 DUP4 ADD DUP5 PUSH3 0x17CD JUMP JUMPDEST SWAP5 SWAP4 POP POP POP POP JUMP JUMPDEST PUSH0 PUSH3 0x20F0 DUP3 PUSH3 0x16A6 JUMP JUMPDEST SWAP2 POP PUSH3 0x20FD DUP4 PUSH3 0x16A6 JUMP JUMPDEST SWAP3 POP DUP3 DUP3 ADD SWAP1 POP DUP1 DUP3 GT ISZERO PUSH3 0x2118 JUMPI PUSH3 0x2117 PUSH3 0x2030 JUMP JUMPDEST JUMPDEST SWAP3 SWAP2 POP POP JUMP INVALID PUSH2 0x160 PUSH1 0x40 MSTORE CALLVALUE DUP1 ISZERO PUSH3 0x11 JUMPI PUSH0 DUP1 REVERT JUMPDEST POP PUSH1 0x40 MLOAD PUSH3 0x401B CODESIZE SUB DUP1 PUSH3 0x401B DUP4 CODECOPY DUP2 DUP2 ADD PUSH1 0x40 MSTORE DUP2 ADD SWAP1 PUSH3 0x37 SWAP2 SWAP1 PUSH3 0x790 JUMP JUMPDEST DUP3 PUSH1 0x40 MLOAD DUP1 PUSH1 0x40 ADD PUSH1 0x40 MSTORE DUP1 PUSH1 0x1 DUP2 MSTORE PUSH1 0x20 ADD PUSH32 0x3100000000000000000000000000000000000000000000000000000000000000 DUP2 MSTORE POP DUP6 PUSH0 PUSH20 0xFFFFFFFFFFFFFFFFFFFFFFFFFFFFFFFFFFFFFFFF AND DUP2 PUSH20 0xFFFFFFFFFFFFFFFFFFFFFFFFFFFFFFFFFFFFFFFF AND SUB PUSH3 0xE2 JUMPI PUSH0 PUSH1 0x40 MLOAD PUSH32 0x1E4FBDF700000000000000000000000000000000000000000000000000000000 DUP2 MSTORE PUSH1 0x4 ADD PUSH3 0xD9 SWAP2 SWAP1 PUSH3 0x82F JUMP JUMPDEST PUSH1 0x40 MLOAD DUP1 SWAP2 SUB SWAP1 REVERT JUMPDEST PUSH3 0xF3 DUP2 PUSH3 0x3C5 PUSH1 0x20 SHL PUSH1 0x20 SHR JUMP JUMPDEST POP PUSH3 0x10A PUSH1 0x1 DUP4 PUSH3 0x486 PUSH1 0x20 SHL SWAP1 SWAP2 SWAP1 PUSH1 0x20 SHR JUMP JUMPDEST PUSH2 0x120 DUP2 DUP2 MSTORE POP POP PUSH3 0x128 PUSH1 0x2 DUP3 PUSH3 0x486 PUSH1 0x20 SHL SWAP1 SWAP2 SWAP1 PUSH1 0x20 SHR JUMP JUMPDEST PUSH2 0x140 DUP2 DUP2 MSTORE POP POP DUP2 DUP1 MLOAD SWAP1 PUSH1 0x20 ADD KECCAK256 PUSH1 0xE0 DUP2 DUP2 MSTORE POP POP DUP1 DUP1 MLOAD SWAP1 PUSH1 0x20 ADD KECCAK256 PUSH2 0x100 DUP2 DUP2 MSTORE POP POP CHAINID PUSH1 0xA0 DUP2 DUP2 MSTORE POP POP PUSH3 0x167 PUSH3 0x4DB PUSH1 0x20 SHL PUSH1 0x20 SHR JUMP JUMPDEST PUSH1 0x80 DUP2 DUP2 MSTORE POP POP ADDRESS PUSH20 0xFFFFFFFFFFFFFFFFFFFFFFFFFFFFFFFFFFFFFFFF AND PUSH1 0xC0 DUP2 PUSH20 0xFFFFFFFFFFFFFFFFFFFFFFFFFFFFFFFFFFFFFFFF AND DUP2 MSTORE POP POP POP POP DUP3 PUSH1 0xE SWAP1 DUP2 PUSH3 0x1B5 SWAP2 SWAP1 PUSH3 0xA81 JUMP JUMPDEST POP PUSH1 0xA PUSH1 0x7 DUP2 SWAP1 SSTORE POP PUSH2 0x1388 PUSH1 0x8 DUP2 SWAP1 SSTORE POP DUP2 PUSH1 0x3 PUSH0 PUSH2 0x100 EXP DUP2 SLOAD DUP2 PUSH20 0xFFFFFFFFFFFFFFFFFFFFFFFFFFFFFFFFFFFFFFFF MUL NOT AND SWAP1 DUP4 PUSH20 0xFFFFFFFFFFFFFFFFFFFFFFFFFFFFFFFFFFFFFFFF AND MUL OR SWAP1 SSTORE POP DUP2 PUSH1 0x5 PUSH0 PUSH2 0x100 EXP DUP2 SLOAD DUP2 PUSH20 0xFFFFFFFFFFFFFFFFFFFFFFFFFFFFFFFFFFFFFFFF MUL NOT AND SWAP1 DUP4 PUSH20 0xFFFFFFFFFFFFFFFFFFFFFFFFFFFFFFFFFFFFFFFF AND MUL OR SWAP1 SSTORE POP DUP1 PUSH1 0x4 PUSH0 PUSH2 0x100 EXP DUP2 SLOAD DUP2 PUSH20 0xFFFFFFFFFFFFFFFFFFFFFFFFFFFFFFFFFFFFFFFF MUL NOT AND SWAP1 DUP4 PUSH20 0xFFFFFFFFFFFFFFFFFFFFFFFFFFFFFFFFFFFFFFFF AND MUL OR SWAP1 SSTORE POP DUP1 PUSH1 0x6 PUSH0 PUSH2 0x100 EXP DUP2 SLOAD DUP2 PUSH20 0xFFFFFFFFFFFFFFFFFFFFFFFFFFFFFFFFFFFFFFFF MUL NOT AND SWAP1 DUP4 PUSH20 0xFFFFFFFFFFFFFFFFFFFFFFFFFFFFFFFFFFFFFFFF AND MUL OR SWAP1 SSTORE POP PUSH1 0x4 PUSH0 SWAP1 SLOAD SWAP1 PUSH2 0x100 EXP SWAP1 DIV PUSH20 0xFFFFFFFFFFFFFFFFFFFFFFFFFFFFFFFFFFFFFFFF AND PUSH20 0xFFFFFFFFFFFFFFFFFFFFFFFFFFFFFFFFFFFFFFFF AND PUSH4 0x313CE567 PUSH1 0x40 MLOAD DUP2 PUSH4 0xFFFFFFFF AND PUSH1 0xE0 SHL DUP2 MSTORE PUSH1 0x4 ADD PUSH1 0x20 PUSH1 0x40 MLOAD DUP1 DUP4 SUB DUP2 DUP7 GAS STATICCALL ISZERO DUP1 ISZERO PUSH3 0x332 JUMPI RETURNDATASIZE PUSH0 DUP1 RETURNDATACOPY RETURNDATASIZE PUSH0 REVERT JUMPDEST POP POP POP POP PUSH1 0x40 MLOAD RETURNDATASIZE PUSH1 0x1F NOT PUSH1 0x1F DUP3 ADD AND DUP3 ADD DUP1 PUSH1 0x40 MSTORE POP DUP2 ADD SWAP1 PUSH3 0x358 SWAP2 SWAP1 PUSH3 0xBA0 JUMP JUMPDEST PUSH1 0xA PUSH3 0x366 SWAP2 SWAP1 PUSH3 0xD4D JUMP JUMPDEST PUSH2 0x2710 PUSH3 0x375 SWAP2 SWAP1 PUSH3 0xD9D JUMP JUMPDEST PUSH1 0xA DUP2 SWAP1 SSTORE POP DUP4 PUSH1 0xF PUSH0 PUSH2 0x100 EXP DUP2 SLOAD DUP2 PUSH20 0xFFFFFFFFFFFFFFFFFFFFFFFFFFFFFFFFFFFFFFFF MUL NOT AND SWAP1 DUP4 PUSH20 0xFFFFFFFFFFFFFFFFFFFFFFFFFFFFFFFFFFFFFFFF AND MUL OR SWAP1 SSTORE POP POP POP POP POP PUSH3 0xF7D JUMP JUMPDEST PUSH0 DUP1 PUSH0 SWAP1 SLOAD SWAP1 PUSH2 0x100 EXP SWAP1 DIV PUSH20 0xFFFFFFFFFFFFFFFFFFFFFFFFFFFFFFFFFFFFFFFF AND SWAP1 POP DUP2 PUSH0 DUP1 PUSH2 0x100 EXP DUP2 SLOAD DUP2 PUSH20 0xFFFFFFFFFFFFFFFFFFFFFFFFFFFFFFFFFFFFFFFF MUL NOT AND SWAP1 DUP4 PUSH20 0xFFFFFFFFFFFFFFFFFFFFFFFFFFFFFFFFFFFFFFFF AND MUL OR SWAP1 SSTORE POP DUP2 PUSH20 0xFFFFFFFFFFFFFFFFFFFFFFFFFFFFFFFFFFFFFFFF AND DUP2 PUSH20 0xFFFFFFFFFFFFFFFFFFFFFFFFFFFFFFFFFFFFFFFF AND PUSH32 0x8BE0079C531659141344CD1FD0A4F28419497F9722A3DAAFE3B4186F6B6457E0 PUSH1 0x40 MLOAD PUSH1 0x40 MLOAD DUP1 SWAP2 SUB SWAP1 LOG3 POP POP JUMP JUMPDEST PUSH0 PUSH1 0x20 DUP4 MLOAD LT ISZERO PUSH3 0x4AB JUMPI PUSH3 0x4A3 DUP4 PUSH3 0x537 PUSH1 0x20 SHL PUSH1 0x20 SHR JUMP JUMPDEST SWAP1 POP PUSH3 0x4D5 JUMP JUMPDEST DUP3 PUSH3 0x4BD DUP4 PUSH3 0x5A1 PUSH1 0x20 SHL PUSH1 0x20 SHR JUMP JUMPDEST PUSH0 ADD SWAP1 DUP2 PUSH3 0x4CD SWAP2 SWAP1 PUSH3 0xA81 JUMP JUMPDEST POP PUSH1 0xFF PUSH0 SHL SWAP1 POP JUMPDEST SWAP3 SWAP2 POP POP JUMP JUMPDEST PUSH0 PUSH32 0x8B73C3C69BB8FE3D512ECC4CF759CC79239F7B179B0FFACAA9A75D522B39400F PUSH1 0xE0 MLOAD PUSH2 0x100 MLOAD CHAINID ADDRESS PUSH1 0x40 MLOAD PUSH1 0x20 ADD PUSH3 0x51C SWAP6 SWAP5 SWAP4 SWAP3 SWAP2 SWAP1 PUSH3 0xE12 JUMP JUMPDEST PUSH1 0x40 MLOAD PUSH1 0x20 DUP2 DUP4 SUB SUB DUP2 MSTORE SWAP1 PUSH1 0x40 MSTORE DUP1 MLOAD SWAP1 PUSH1 0x20 ADD KECCAK256 SWAP1 POP SWAP1 JUMP JUMPDEST PUSH0 DUP1 DUP3 SWAP1 POP PUSH1 0x1F DUP2 MLOAD GT ISZERO PUSH3 0x586 JUMPI DUP3 PUSH1 0x40 MLOAD PUSH32 0x305A27A900000000000000000000000000000000000000000000000000000000 DUP2 MSTORE PUSH1 0x4 ADD PUSH3 0x57D SWAP2 SWAP1 PUSH3 0xEBD JUMP JUMPDEST PUSH1 0x40 MLOAD DUP1 SWAP2 SUB SWAP1 REVERT JUMPDEST DUP1 MLOAD DUP2 PUSH3 0x594 SWAP1 PUSH3 0xF0E JUMP JUMPDEST PUSH0 SHR OR PUSH0 SHL SWAP2 POP POP SWAP2 SWAP1 POP JUMP JUMPDEST PUSH0 DUP2 SWAP1 POP SWAP2 SWAP1 POP JUMP JUMPDEST PUSH0 PUSH1 0x40 MLOAD SWAP1 POP SWAP1 JUMP JUMPDEST PUSH0 DUP1 REVERT JUMPDEST PUSH0 DUP1 REVERT JUMPDEST PUSH0 PUSH20 0xFFFFFFFFFFFFFFFFFFFFFFFFFFFFFFFFFFFFFFFF DUP3 AND SWAP1 POP SWAP2 SWAP1 POP JUMP JUMPDEST PUSH0 PUSH3 0x5E6 DUP3 PUSH3 0x5BB JUMP JUMPDEST SWAP1 POP SWAP2 SWAP1 POP JUMP JUMPDEST PUSH3 0x5F8 DUP2 PUSH3 0x5DA JUMP JUMPDEST DUP2 EQ PUSH3 0x603 JUMPI PUSH0 DUP1 REVERT JUMPDEST POP JUMP JUMPDEST PUSH0 DUP2 MLOAD SWAP1 POP PUSH3 0x616 DUP2 PUSH3 0x5ED JUMP JUMPDEST SWAP3 SWAP2 POP POP JUMP JUMPDEST PUSH0 DUP1 REVERT JUMPDEST PUSH0 DUP1 REVERT JUMPDEST PUSH0 PUSH1 0x1F NOT PUSH1 0x1F DUP4 ADD AND SWAP1 POP SWAP2 SWAP1 POP JUMP JUMPDEST PUSH32 0x4E487B7100000000000000000000000000000000000000000000000000000000 PUSH0 MSTORE PUSH1 0x41 PUSH1 0x4 MSTORE PUSH1 0x24 PUSH0 REVERT JUMPDEST PUSH3 0x66C DUP3 PUSH3 0x624 JUMP JUMPDEST DUP2 ADD DUP2 DUP2 LT PUSH8 0xFFFFFFFFFFFFFFFF DUP3 GT OR ISZERO PUSH3 0x68E JUMPI PUSH3 0x68D PUSH3 0x634 JUMP JUMPDEST JUMPDEST DUP1 PUSH1 0x40 MSTORE POP POP POP JUMP JUMPDEST PUSH0 PUSH3 0x6A2 PUSH3 0x5AA JUMP JUMPDEST SWAP1 POP PUSH3 0x6B0 DUP3 DUP3 PUSH3 0x661 JUMP JUMPDEST SWAP2 SWAP1 POP JUMP JUMPDEST PUSH0 PUSH8 0xFFFFFFFFFFFFFFFF DUP3 GT ISZERO PUSH3 0x6D2 JUMPI PUSH3 0x6D1 PUSH3 0x634 JUMP JUMPDEST JUMPDEST PUSH3 0x6DD DUP3 PUSH3 0x624 JUMP JUMPDEST SWAP1 POP PUSH1 0x20 DUP2 ADD SWAP1 POP SWAP2 SWAP1 POP JUMP JUMPDEST PUSH0 JUMPDEST DUP4 DUP2 LT ISZERO PUSH3 0x709 JUMPI DUP1 DUP3 ADD MLOAD DUP2 DUP5 ADD MSTORE PUSH1 0x20 DUP2 ADD SWAP1 POP PUSH3 0x6EC JUMP JUMPDEST PUSH0 DUP5 DUP5 ADD MSTORE POP POP POP POP JUMP JUMPDEST PUSH0 PUSH3 0x72A PUSH3 0x724 DUP5 PUSH3 0x6B5 JUMP JUMPDEST PUSH3 0x697 JUMP JUMPDEST SWAP1 POP DUP3 DUP2 MSTORE PUSH1 0x20 DUP2 ADD DUP5 DUP5 DUP5 ADD GT ISZERO PUSH3 0x749 JUMPI PUSH3 0x748 PUSH3 0x620 JUMP JUMPDEST JUMPDEST PUSH3 0x756 DUP5 DUP3 DUP6 PUSH3 0x6EA JUMP JUMPDEST POP SWAP4 SWAP3 POP POP POP JUMP JUMPDEST PUSH0 DUP3 PUSH1 0x1F DUP4 ADD SLT PUSH3 0x775 JUMPI PUSH3 0x774 PUSH3 0x61C JUMP JUMPDEST JUMPDEST DUP2 MLOAD PUSH3 0x787 DUP5 DUP3 PUSH1 0x20 DUP7 ADD PUSH3 0x714 JUMP JUMPDEST SWAP2 POP POP SWAP3 SWAP2 POP POP JUMP JUMPDEST PUSH0 DUP1 PUSH0 DUP1 PUSH1 0x80 DUP6 DUP8 SUB SLT ISZERO PUSH3 0x7AB JUMPI PUSH3 0x7AA PUSH3 0x5B3 JUMP JUMPDEST JUMPDEST PUSH0 PUSH3 0x7BA DUP8 DUP3 DUP9 ADD PUSH3 0x606 JUMP JUMPDEST SWAP5 POP POP PUSH1 0x20 DUP6 ADD MLOAD PUSH8 0xFFFFFFFFFFFFFFFF DUP2 GT ISZERO PUSH3 0x7DE JUMPI PUSH3 0x7DD PUSH3 0x5B7 JUMP JUMPDEST JUMPDEST PUSH3 0x7EC DUP8 DUP3 DUP9 ADD PUSH3 0x75E JUMP JUMPDEST SWAP4 POP POP PUSH1 0x40 PUSH3 0x7FF DUP8 DUP3 DUP9 ADD PUSH3 0x606 JUMP JUMPDEST SWAP3 POP POP PUSH1 0x60 PUSH3 0x812 DUP8 DUP3 DUP9 ADD PUSH3 0x606 JUMP JUMPDEST SWAP2 POP POP SWAP3 SWAP6 SWAP2 SWAP5 POP SWAP3 POP JUMP JUMPDEST PUSH3 0x829 DUP2 PUSH3 0x5DA JUMP JUMPDEST DUP3 MSTORE POP POP JUMP JUMPDEST PUSH0 PUSH1 0x20 DUP3 ADD SWAP1 POP PUSH3 0x844 PUSH0 DUP4 ADD DUP5 PUSH3 0x81E JUMP JUMPDEST SWAP3 SWAP2 POP POP JUMP JUMPDEST PUSH0 DUP2 MLOAD SWAP1 POP SWAP2 SWAP1 POP JUMP JUMPDEST PUSH32 0x4E487B7100000000000000000000000000000000000000000000000000000000 PUSH0 MSTORE PUSH1 0x22 PUSH1 0x4 MSTORE PUSH1 0x24 PUSH0 REVERT JUMPDEST PUSH0 PUSH1 0x2 DUP3 DIV SWAP1 POP PUSH1 0x1 DUP3 AND DUP1 PUSH3 0x899 JUMPI PUSH1 0x7F DUP3 AND SWAP2 POP JUMPDEST PUSH1 0x20 DUP3 LT DUP2 SUB PUSH3 0x8AF JUMPI PUSH3 0x8AE PUSH3 0x854 JUMP JUMPDEST JUMPDEST POP SWAP2 SWAP1 POP JUMP JUMPDEST PUSH0 DUP2 SWAP1 POP DUP2 PUSH0 MSTORE PUSH1 0x20 PUSH0 KECCAK256 SWAP1 POP SWAP2 SWAP1 POP JUMP JUMPDEST PUSH0 PUSH1 0x20 PUSH1 0x1F DUP4 ADD DIV SWAP1 POP SWAP2 SWAP1 POP JUMP JUMPDEST PUSH0 DUP3 DUP3 SHL SWAP1 POP SWAP3 SWAP2 POP POP JUMP JUMPDEST PUSH0 PUSH1 0x8 DUP4 MUL PUSH3 0x913 PUSH32 0xFFFFFFFFFFFFFFFFFFFFFFFFFFFFFFFFFFFFFFFFFFFFFFFFFFFFFFFFFFFFFFFF DUP3 PUSH3 0x8D6 JUMP JUMPDEST PUSH3 0x91F DUP7 DUP4 PUSH3 0x8D6 JUMP JUMPDEST SWAP6 POP DUP1 NOT DUP5 AND SWAP4 POP DUP1 DUP7 AND DUP5 OR SWAP3 POP POP POP SWAP4 SWAP3 POP POP POP JUMP JUMPDEST PUSH0 DUP2 SWAP1 POP SWAP2 SWAP1 POP JUMP JUMPDEST PUSH0 DUP2 SWAP1 POP SWAP2 SWAP1 POP JUMP JUMPDEST PUSH0 PUSH3 0x969 PUSH3 0x963 PUSH3 0x95D DUP5 PUSH3 0x937 JUMP JUMPDEST PUSH3 0x940 JUMP JUMPDEST PUSH3 0x937 JUMP JUMPDEST SWAP1 POP SWAP2 SWAP1 POP JUMP JUMPDEST PUSH0 DUP2 SWAP1 POP SWAP2 SWAP1 POP JUMP JUMPDEST PUSH3 0x984 DUP4 PUSH3 0x949 JUMP JUMPDEST PUSH3 0x99C PUSH3 0x993 DUP3 PUSH3 0x970 JUMP JUMPDEST DUP5 DUP5 SLOAD PUSH3 0x8E2 JUMP JUMPDEST DUP3 SSTORE POP POP POP POP JUMP JUMPDEST PUSH0 SWAP1 JUMP JUMPDEST PUSH3 0x9B2 PUSH3 0x9A4 JUMP JUMPDEST PUSH3 0x9BF DUP2 DUP5 DUP5 PUSH3 0x979 JUMP JUMPDEST POP POP POP JUMP JUMPDEST JUMPDEST DUP2 DUP2 LT ISZERO PUSH3 0x9E6 JUMPI PUSH3 0x9DA PUSH0 DUP3 PUSH3 0x9A8 JUMP JUMPDEST PUSH1 0x1 DUP2 ADD SWAP1 POP PUSH3 0x9C5 JUMP JUMPDEST POP POP JUMP JUMPDEST PUSH1 0x1F DUP3 GT ISZERO PUSH3 0xA35 JUMPI PUSH3 0x9FF DUP2 PUSH3 0x8B5 JUMP JUMPDEST PUSH3 0xA0A DUP5 PUSH3 0x8C7 JUMP JUMPDEST DUP2 ADD PUSH1 0x20 DUP6 LT ISZERO PUSH3 0xA1A JUMPI DUP2 SWAP1 POP JUMPDEST PUSH3 0xA32 PUSH3 0xA29 DUP6 PUSH3 0x8C7 JUMP JUMPDEST DUP4 ADD DUP3 PUSH3 0x9C4 JUMP JUMPDEST POP POP JUMPDEST POP POP POP JUMP JUMPDEST PUSH0 DUP3 DUP3 SHR SWAP1 POP SWAP3 SWAP2 POP POP JUMP JUMPDEST PUSH0 PUSH3 0xA57 PUSH0 NOT DUP5 PUSH1 0x8 MUL PUSH3 0xA3A JUMP JUMPDEST NOT DUP1 DUP4 AND SWAP2 POP POP SWAP3 SWAP2 POP POP JUMP JUMPDEST PUSH0 PUSH3 0xA71 DUP4 DUP4 PUSH3 0xA46 JUMP JUMPDEST SWAP2 POP DUP3 PUSH1 0x2 MUL DUP3 OR SWAP1 POP SWAP3 SWAP2 POP POP JUMP JUMPDEST PUSH3 0xA8C DUP3 PUSH3 0x84A JUMP JUMPDEST PUSH8 0xFFFFFFFFFFFFFFFF DUP2 GT ISZERO PUSH3 0xAA8 JUMPI PUSH3 0xAA7 PUSH3 0x634 JUMP JUMPDEST JUMPDEST PUSH3 0xAB4 DUP3 SLOAD PUSH3 0x881 JUMP JUMPDEST PUSH3 0xAC1 DUP3 DUP3 DUP6 PUSH3 0x9EA JUMP JUMPDEST PUSH0 PUSH1 0x20 SWAP1 POP PUSH1 0x1F DUP4 GT PUSH1 0x1 DUP2 EQ PUSH3 0xAF7 JUMPI PUSH0 DUP5 ISZERO PUSH3 0xAE2 JUMPI DUP3 DUP8 ADD MLOAD SWAP1 POP JUMPDEST PUSH3 0xAEE DUP6 DUP3 PUSH3 0xA64 JUMP JUMPDEST DUP7 SSTORE POP PUSH3 0xB5D JUMP JUMPDEST PUSH1 0x1F NOT DUP5 AND PUSH3 0xB07 DUP7 PUSH3 0x8B5 JUMP JUMPDEST PUSH0 JUMPDEST DUP3 DUP2 LT ISZERO PUSH3 0xB30 JUMPI DUP5 DUP10 ADD MLOAD DUP3 SSTORE PUSH1 0x1 DUP3 ADD SWAP2 POP PUSH1 0x20 DUP6 ADD SWAP5 POP PUSH1 0x20 DUP2 ADD SWAP1 POP PUSH3 0xB09 JUMP JUMPDEST DUP7 DUP4 LT ISZERO PUSH3 0xB50 JUMPI DUP5 DUP10 ADD MLOAD PUSH3 0xB4C PUSH1 0x1F DUP10 AND DUP3 PUSH3 0xA46 JUMP JUMPDEST DUP4 SSTORE POP JUMPDEST PUSH1 0x1 PUSH1 0x2 DUP9 MUL ADD DUP9 SSTORE POP POP POP JUMPDEST POP POP POP POP POP POP JUMP JUMPDEST PUSH0 PUSH1 0xFF DUP3 AND SWAP1 POP SWAP2 SWAP1 POP JUMP JUMPDEST PUSH3 0xB7C DUP2 PUSH3 0xB65 JUMP JUMPDEST DUP2 EQ PUSH3 0xB87 JUMPI PUSH0 DUP1 REVERT JUMPDEST POP JUMP JUMPDEST PUSH0 DUP2 MLOAD SWAP1 POP PUSH3 0xB9A DUP2 PUSH3 0xB71 JUMP JUMPDEST SWAP3 SWAP2 POP POP JUMP JUMPDEST PUSH0 PUSH1 0x20 DUP3 DUP5 SUB SLT ISZERO PUSH3 0xBB8 JUMPI PUSH3 0xBB7 PUSH3 0x5B3 JUMP JUMPDEST JUMPDEST PUSH0 PUSH3 0xBC7 DUP5 DUP3 DUP6 ADD PUSH3 0xB8A JUMP JUMPDEST SWAP2 POP POP SWAP3 SWAP2 POP POP JUMP JUMPDEST PUSH32 0x4E487B7100000000000000000000000000000000000000000000000000000000 PUSH0 MSTORE PUSH1 0x11 PUSH1 0x4 MSTORE PUSH1 0x24 PUSH0 REVERT JUMPDEST PUSH0 DUP2 PUSH1 0x1 SHR SWAP1 POP SWAP2 SWAP1 POP JUMP JUMPDEST PUSH0 DUP1 DUP3 SWAP2 POP DUP4 SWAP1 POP JUMPDEST PUSH1 0x1 DUP6 GT ISZERO PUSH3 0xC5A JUMPI DUP1 DUP7 DIV DUP2 GT ISZERO PUSH3 0xC32 JUMPI PUSH3 0xC31 PUSH3 0xBD0 JUMP JUMPDEST JUMPDEST PUSH1 0x1 DUP6 AND ISZERO PUSH3 0xC42 JUMPI DUP1 DUP3 MUL SWAP2 POP JUMPDEST DUP1 DUP2 MUL SWAP1 POP PUSH3 0xC52 DUP6 PUSH3 0xBFD JUMP JUMPDEST SWAP5 POP PUSH3 0xC12 JUMP JUMPDEST SWAP5 POP SWAP5 SWAP3 POP POP POP JUMP JUMPDEST PUSH0 DUP3 PUSH3 0xC74 JUMPI PUSH1 0x1 SWAP1 POP PUSH3 0xD46 JUMP JUMPDEST DUP2 PUSH3 0xC83 JUMPI PUSH0 SWAP1 POP PUSH3 0xD46 JUMP JUMPDEST DUP2 PUSH1 0x1 DUP2 EQ PUSH3 0xC9C JUMPI PUSH1 0x2 DUP2 EQ PUSH3 0xCA7 JUMPI PUSH3 0xCDD JUMP JUMPDEST PUSH1 0x1 SWAP2 POP POP PUSH3 0xD46 JUMP JUMPDEST PUSH1 0xFF DUP5 GT ISZERO PUSH3 0xCBC JUMPI PUSH3 0xCBB PUSH3 0xBD0 JUMP JUMPDEST JUMPDEST DUP4 PUSH1 0x2 EXP SWAP2 POP DUP5 DUP3 GT ISZERO PUSH3 0xCD6 JUMPI PUSH3 0xCD5 PUSH3 0xBD0 JUMP JUMPDEST JUMPDEST POP PUSH3 0xD46 JUMP JUMPDEST POP PUSH1 0x20 DUP4 LT PUSH2 0x133 DUP4 LT AND PUSH1 0x4E DUP5 LT PUSH1 0xB DUP5 LT AND OR ISZERO PUSH3 0xD17 JUMPI DUP3 DUP3 EXP SWAP1 POP DUP4 DUP2 GT ISZERO PUSH3 0xD11 JUMPI PUSH3 0xD10 PUSH3 0xBD0 JUMP JUMPDEST JUMPDEST PUSH3 0xD46 JUMP JUMPDEST PUSH3 0xD26 DUP5 DUP5 DUP5 PUSH1 0x1 PUSH3 0xC09 JUMP JUMPDEST SWAP3 POP SWAP1 POP DUP2 DUP5 DIV DUP2 GT ISZERO PUSH3 0xD40 JUMPI PUSH3 0xD3F PUSH3 0xBD0 JUMP JUMPDEST JUMPDEST DUP2 DUP2 MUL SWAP1 POP JUMPDEST SWAP4 SWAP3 POP POP POP JUMP JUMPDEST PUSH0 PUSH3 0xD59 DUP3 PUSH3 0x937 JUMP JUMPDEST SWAP2 POP PUSH3 0xD66 DUP4 PUSH3 0xB65 JUMP JUMPDEST SWAP3 POP PUSH3 0xD95 PUSH32 0xFFFFFFFFFFFFFFFFFFFFFFFFFFFFFFFFFFFFFFFFFFFFFFFFFFFFFFFFFFFFFFFF DUP5 DUP5 PUSH3 0xC63 JUMP JUMPDEST SWAP1 POP SWAP3 SWAP2 POP POP JUMP JUMPDEST PUSH0 PUSH3 0xDA9 DUP3 PUSH3 0x937 JUMP JUMPDEST SWAP2 POP PUSH3 0xDB6 DUP4 PUSH3 0x937 JUMP JUMPDEST SWAP3 POP DUP3 DUP3 MUL PUSH3 0xDC6 DUP2 PUSH3 0x937 JUMP JUMPDEST SWAP2 POP DUP3 DUP3 DIV DUP5 EQ DUP4 ISZERO OR PUSH3 0xDE0 JUMPI PUSH3 0xDDF PUSH3 0xBD0 JUMP JUMPDEST JUMPDEST POP SWAP3 SWAP2 POP POP JUMP JUMPDEST PUSH0 DUP2 SWAP1 POP SWAP2 SWAP1 POP JUMP JUMPDEST PUSH3 0xDFB DUP2 PUSH3 0xDE7 JUMP JUMPDEST DUP3 MSTORE POP POP JUMP JUMPDEST PUSH3 0xE0C DUP2 PUSH3 0x937 JUMP JUMPDEST DUP3 MSTORE POP POP JUMP JUMPDEST PUSH0 PUSH1 0xA0 DUP3 ADD SWAP1 POP PUSH3 0xE27 PUSH0 DUP4 ADD DUP9 PUSH3 0xDF0 JUMP JUMPDEST PUSH3 0xE36 PUSH1 0x20 DUP4 ADD DUP8 PUSH3 0xDF0 JUMP JUMPDEST PUSH3 0xE45 PUSH1 0x40 DUP4 ADD DUP7 PUSH3 0xDF0 JUMP JUMPDEST PUSH3 0xE54 PUSH1 0x60 DUP4 ADD DUP6 PUSH3 0xE01 JUMP JUMPDEST PUSH3 0xE63 PUSH1 0x80 DUP4 ADD DUP5 PUSH3 0x81E JUMP JUMPDEST SWAP7 SWAP6 POP POP POP POP POP POP JUMP JUMPDEST PUSH0 DUP3 DUP3 MSTORE PUSH1 0x20 DUP3 ADD SWAP1 POP SWAP3 SWAP2 POP POP JUMP JUMPDEST PUSH0 PUSH3 0xE89 DUP3 PUSH3 0x84A JUMP JUMPDEST PUSH3 0xE95 DUP2 DUP6 PUSH3 0xE6D JUMP JUMPDEST SWAP4 POP PUSH3 0xEA7 DUP2 DUP6 PUSH1 0x20 DUP7 ADD PUSH3 0x6EA JUMP JUMPDEST PUSH3 0xEB2 DUP2 PUSH3 0x624 JUMP JUMPDEST DUP5 ADD SWAP2 POP POP SWAP3 SWAP2 POP POP JUMP JUMPDEST PUSH0 PUSH1 0x20 DUP3 ADD SWAP1 POP DUP2 DUP2 SUB PUSH0 DUP4 ADD MSTORE PUSH3 0xED7 DUP2 DUP5 PUSH3 0xE7D JUMP JUMPDEST SWAP1 POP SWAP3 SWAP2 POP POP JUMP JUMPDEST PUSH0 DUP2 MLOAD SWAP1 POP SWAP2 SWAP1 POP JUMP JUMPDEST PUSH0 DUP2 SWAP1 POP PUSH1 0x20 DUP3 ADD SWAP1 POP SWAP2 SWAP1 POP JUMP JUMPDEST PUSH0 PUSH3 0xF05 DUP3 MLOAD PUSH3 0xDE7 JUMP JUMPDEST DUP1 SWAP2 POP POP SWAP2 SWAP1 POP JUMP JUMPDEST PUSH0 PUSH3 0xF1A DUP3 PUSH3 0xEDF JUMP JUMPDEST DUP3 PUSH3 0xF26 DUP5 PUSH3 0xEE9 JUMP JUMPDEST SWAP1 POP PUSH3 0xF33 DUP2 PUSH3 0xEF8 JUMP JUMPDEST SWAP3 POP PUSH1 0x20 DUP3 LT ISZERO PUSH3 0xF76 JUMPI PUSH3 0xF71 PUSH32 0xFFFFFFFFFFFFFFFFFFFFFFFFFFFFFFFFFFFFFFFFFFFFFFFFFFFFFFFFFFFFFFFF DUP4 PUSH1 0x20 SUB PUSH1 0x8 MUL PUSH3 0x8D6 JUMP JUMPDEST DUP4 AND SWAP3 POP JUMPDEST POP POP SWAP2 SWAP1 POP JUMP JUMPDEST PUSH1 0x80 MLOAD PUSH1 0xA0 MLOAD PUSH1 0xC0 MLOAD PUSH1 0xE0 MLOAD PUSH2 0x100 MLOAD PUSH2 0x120 MLOAD PUSH2 0x140 MLOAD PUSH2 0x304C PUSH3 0xFCF PUSH0 CODECOPY PUSH0 PUSH2 0x19C8 ADD MSTORE PUSH0 PUSH2 0x198D ADD MSTORE PUSH0 PUSH2 0x1A46 ADD MSTORE PUSH0 PUSH2 0x1A25 ADD MSTORE PUSH0 PUSH2 0x14BF ADD MSTORE PUSH0 PUSH2 0x1515 ADD MSTORE PUSH0 PUSH2 0x153E ADD MSTORE PUSH2 0x304C PUSH0 RETURN INVALID PUSH1 0x80 PUSH1 0x40 MSTORE CALLVALUE DUP1 ISZERO PUSH2 0xF JUMPI PUSH0 DUP1 REVERT JUMPDEST POP PUSH1 0x4 CALLDATASIZE LT PUSH2 0x1A7 JUMPI PUSH0 CALLDATALOAD PUSH1 0xE0 SHR DUP1 PUSH4 0x76EE947F GT PUSH2 0xF7 JUMPI DUP1 PUSH4 0xC4A9E858 GT PUSH2 0x95 JUMPI DUP1 PUSH4 0xF2FDE38B GT PUSH2 0x6F JUMPI DUP1 PUSH4 0xF2FDE38B EQ PUSH2 0x44D JUMPI DUP1 PUSH4 0xF851A440 EQ PUSH2 0x469 JUMPI DUP1 PUSH4 0xF9C3A1E8 EQ PUSH2 0x487 JUMPI DUP1 PUSH4 0xFD918716 EQ PUSH2 0x4A3 JUMPI PUSH2 0x1A7 JUMP JUMPDEST DUP1 PUSH4 0xC4A9E858 EQ PUSH2 0x3F5 JUMPI DUP1 PUSH4 0xE1FEFD42 EQ PUSH2 0x413 JUMPI DUP1 PUSH4 0xE63EA408 EQ PUSH2 0x431 JUMPI PUSH2 0x1A7 JUMP JUMPDEST DUP1 PUSH4 0x8DA5CB5B GT PUSH2 0xD1 JUMPI DUP1 PUSH4 0x8DA5CB5B EQ PUSH2 0x383 JUMPI DUP1 PUSH4 0x9683CDC4 EQ PUSH2 0x3A1 JUMPI DUP1 PUSH4 0xAC1E5025 EQ PUSH2 0x3BD JUMPI DUP1 PUSH4 0xC08E7286 EQ PUSH2 0x3D9 JUMPI PUSH2 0x1A7 JUMP JUMPDEST DUP1 PUSH4 0x76EE947F EQ PUSH2 0x325 JUMPI DUP1 PUSH4 0x84B0196E EQ PUSH2 0x341 JUMPI DUP1 PUSH4 0x8BC7E8C4 EQ PUSH2 0x365 JUMPI PUSH2 0x1A7 JUMP JUMPDEST DUP1 PUSH4 0x34FCF437 GT PUSH2 0x164 JUMPI DUP1 PUSH4 0x67A52793 GT PUSH2 0x13E JUMPI DUP1 PUSH4 0x67A52793 EQ PUSH2 0x2C5 JUMPI DUP1 PUSH4 0x6B4C0789 EQ PUSH2 0x2E3 JUMPI DUP1 PUSH4 0x704B6C02 EQ PUSH2 0x2FF JUMPI DUP1 PUSH4 0x715018A6 EQ PUSH2 0x31B JUMPI PUSH2 0x1A7 JUMP JUMPDEST DUP1 PUSH4 0x34FCF437 EQ PUSH2 0x26F JUMPI DUP1 PUSH4 0x3644E515 EQ PUSH2 0x28B JUMPI DUP1 PUSH4 0x6313C6D8 EQ PUSH2 0x2A9 JUMPI PUSH2 0x1A7 JUMP JUMPDEST DUP1 PUSH4 0x6E0E582 EQ PUSH2 0x1AB JUMPI DUP1 PUSH4 0xACE9CA0 EQ PUSH2 0x1C9 JUMPI DUP1 PUSH4 0xD461E61 EQ PUSH2 0x1E7 JUMPI DUP1 PUSH4 0x252DE51B EQ PUSH2 0x217 JUMPI DUP1 PUSH4 0x258BA1EE EQ PUSH2 0x235 JUMPI DUP1 PUSH4 0x2C4E722E EQ PUSH2 0x251 JUMPI JUMPDEST PUSH0 DUP1 REVERT JUMPDEST PUSH2 0x1B3 PUSH2 0x4C1 JUMP JUMPDEST PUSH1 0x40 MLOAD PUSH2 0x1C0 SWAP2 SWAP1 PUSH2 0x212F JUMP JUMPDEST PUSH1 0x40 MLOAD DUP1 SWAP2 SUB SWAP1 RETURN JUMPDEST PUSH2 0x1D1 PUSH2 0x4C7 JUMP JUMPDEST PUSH1 0x40 MLOAD PUSH2 0x1DE SWAP2 SWAP1 PUSH2 0x21D2 JUMP JUMPDEST PUSH1 0x40 MLOAD DUP1 SWAP2 SUB SWAP1 RETURN JUMPDEST PUSH2 0x201 PUSH1 0x4 DUP1 CALLDATASIZE SUB DUP2 ADD SWAP1 PUSH2 0x1FC SWAP2 SWAP1 PUSH2 0x2220 JUMP JUMPDEST PUSH2 0x553 JUMP JUMPDEST PUSH1 0x40 MLOAD PUSH2 0x20E SWAP2 SWAP1 PUSH2 0x212F JUMP JUMPDEST PUSH1 0x40 MLOAD DUP1 SWAP2 SUB SWAP1 RETURN JUMPDEST PUSH2 0x21F PUSH2 0x6C2 JUMP JUMPDEST PUSH1 0x40 MLOAD PUSH2 0x22C SWAP2 SWAP1 PUSH2 0x2265 JUMP JUMPDEST PUSH1 0x40 MLOAD DUP1 SWAP2 SUB SWAP1 RETURN JUMPDEST PUSH2 0x24F PUSH1 0x4 DUP1 CALLDATASIZE SUB DUP2 ADD SWAP1 PUSH2 0x24A SWAP2 SWAP1 PUSH2 0x22D8 JUMP JUMPDEST PUSH2 0x6D5 JUMP JUMPDEST STOP JUMPDEST PUSH2 0x259 PUSH2 0x7E1 JUMP JUMPDEST PUSH1 0x40 MLOAD PUSH2 0x266 SWAP2 SWAP1 PUSH2 0x212F JUMP JUMPDEST PUSH1 0x40 MLOAD DUP1 SWAP2 SUB SWAP1 RETURN JUMPDEST PUSH2 0x289 PUSH1 0x4 DUP1 CALLDATASIZE SUB DUP2 ADD SWAP1 PUSH2 0x284 SWAP2 SWAP1 PUSH2 0x2220 JUMP JUMPDEST PUSH2 0x7E7 JUMP JUMPDEST STOP JUMPDEST PUSH2 0x293 PUSH2 0x7F9 JUMP JUMPDEST PUSH1 0x40 MLOAD PUSH2 0x2A0 SWAP2 SWAP1 PUSH2 0x232E JUMP JUMPDEST PUSH1 0x40 MLOAD DUP1 SWAP2 SUB SWAP1 RETURN JUMPDEST PUSH2 0x2C3 PUSH1 0x4 DUP1 CALLDATASIZE SUB DUP2 ADD SWAP1 PUSH2 0x2BE SWAP2 SWAP1 PUSH2 0x23A7 JUMP JUMPDEST PUSH2 0x807 JUMP JUMPDEST STOP JUMPDEST PUSH2 0x2CD PUSH2 0x9C0 JUMP JUMPDEST PUSH1 0x40 MLOAD PUSH2 0x2DA SWAP2 SWAP1 PUSH2 0x212F JUMP JUMPDEST PUSH1 0x40 MLOAD DUP1 SWAP2 SUB SWAP1 RETURN JUMPDEST PUSH2 0x2FD PUSH1 0x4 DUP1 CALLDATASIZE SUB DUP2 ADD SWAP1 PUSH2 0x2F8 SWAP2 SWAP1 PUSH2 0x245A JUMP JUMPDEST PUSH2 0x9C6 JUMP JUMPDEST STOP JUMPDEST PUSH2 0x319 PUSH1 0x4 DUP1 CALLDATASIZE SUB DUP2 ADD SWAP1 PUSH2 0x314 SWAP2 SWAP1 PUSH2 0x2485 JUMP JUMPDEST PUSH2 0x9EB JUMP JUMPDEST STOP JUMPDEST PUSH2 0x323 PUSH2 0xA36 JUMP JUMPDEST STOP JUMPDEST PUSH2 0x33F PUSH1 0x4 DUP1 CALLDATASIZE SUB DUP2 ADD SWAP1 PUSH2 0x33A SWAP2 SWAP1 PUSH2 0x2220 JUMP JUMPDEST PUSH2 0xA49 JUMP JUMPDEST STOP JUMPDEST PUSH2 0x349 PUSH2 0xA5B JUMP JUMPDEST PUSH1 0x40 MLOAD PUSH2 0x35C SWAP8 SWAP7 SWAP6 SWAP5 SWAP4 SWAP3 SWAP2 SWAP1 PUSH2 0x25B0 JUMP JUMPDEST PUSH1 0x40 MLOAD DUP1 SWAP2 SUB SWAP1 RETURN JUMPDEST PUSH2 0x36D PUSH2 0xB00 JUMP JUMPDEST PUSH1 0x40 MLOAD PUSH2 0x37A SWAP2 SWAP1 PUSH2 0x212F JUMP JUMPDEST PUSH1 0x40 MLOAD DUP1 SWAP2 SUB SWAP1 RETURN JUMPDEST PUSH2 0x38B PUSH2 0xB06 JUMP JUMPDEST PUSH1 0x40 MLOAD PUSH2 0x398 SWAP2 SWAP1 PUSH2 0x2632 JUMP JUMPDEST PUSH1 0x40 MLOAD DUP1 SWAP2 SUB SWAP1 RETURN JUMPDEST PUSH2 0x3BB PUSH1 0x4 DUP1 CALLDATASIZE SUB DUP2 ADD SWAP1 PUSH2 0x3B6 SWAP2 SWAP1 PUSH2 0x2485 JUMP JUMPDEST PUSH2 0xB2D JUMP JUMPDEST STOP JUMPDEST PUSH2 0x3D7 PUSH1 0x4 DUP1 CALLDATASIZE SUB DUP2 ADD SWAP1 PUSH2 0x3D2 SWAP2 SWAP1 PUSH2 0x2220 JUMP JUMPDEST PUSH2 0xD4B JUMP JUMPDEST STOP JUMPDEST PUSH2 0x3F3 PUSH1 0x4 DUP1 CALLDATASIZE SUB DUP2 ADD SWAP1 PUSH2 0x3EE SWAP2 SWAP1 PUSH2 0x2220 JUMP JUMPDEST PUSH2 0xD5D JUMP JUMPDEST STOP JUMPDEST PUSH2 0x3FD PUSH2 0xE13 JUMP JUMPDEST PUSH1 0x40 MLOAD PUSH2 0x40A SWAP2 SWAP1 PUSH2 0x212F JUMP JUMPDEST PUSH1 0x40 MLOAD DUP1 SWAP2 SUB SWAP1 RETURN JUMPDEST PUSH2 0x41B PUSH2 0xE19 JUMP JUMPDEST PUSH1 0x40 MLOAD PUSH2 0x428 SWAP2 SWAP1 PUSH2 0x212F JUMP JUMPDEST PUSH1 0x40 MLOAD DUP1 SWAP2 SUB SWAP1 RETURN JUMPDEST PUSH2 0x44B PUSH1 0x4 DUP1 CALLDATASIZE SUB DUP2 ADD SWAP1 PUSH2 0x446 SWAP2 SWAP1 PUSH2 0x264B JUMP JUMPDEST PUSH2 0xE1F JUMP JUMPDEST STOP JUMPDEST PUSH2 0x467 PUSH1 0x4 DUP1 CALLDATASIZE SUB DUP2 ADD SWAP1 PUSH2 0x462 SWAP2 SWAP1 PUSH2 0x2485 JUMP JUMPDEST PUSH2 0xFC6 JUMP JUMPDEST STOP JUMPDEST PUSH2 0x471 PUSH2 0x104A JUMP JUMPDEST PUSH1 0x40 MLOAD PUSH2 0x47E SWAP2 SWAP1 PUSH2 0x2632 JUMP JUMPDEST PUSH1 0x40 MLOAD DUP1 SWAP2 SUB SWAP1 RETURN JUMPDEST PUSH2 0x4A1 PUSH1 0x4 DUP1 CALLDATASIZE SUB DUP2 ADD SWAP1 PUSH2 0x49C SWAP2 SWAP1 PUSH2 0x23A7 JUMP JUMPDEST PUSH2 0x106F JUMP JUMPDEST STOP JUMPDEST PUSH2 0x4AB PUSH2 0x142F JUMP JUMPDEST PUSH1 0x40 MLOAD PUSH2 0x4B8 SWAP2 SWAP1 PUSH2 0x212F JUMP JUMPDEST PUSH1 0x40 MLOAD DUP1 SWAP2 SUB SWAP1 RETURN JUMPDEST PUSH1 0xB SLOAD DUP2 JUMP JUMPDEST PUSH1 0xE DUP1 SLOAD PUSH2 0x4D4 SWAP1 PUSH2 0x26C8 JUMP JUMPDEST DUP1 PUSH1 0x1F ADD PUSH1 0x20 DUP1 SWAP2 DIV MUL PUSH1 0x20 ADD PUSH1 0x40 MLOAD SWAP1 DUP2 ADD PUSH1 0x40 MSTORE DUP1 SWAP3 SWAP2 SWAP1 DUP2 DUP2 MSTORE PUSH1 0x20 ADD DUP3 DUP1 SLOAD PUSH2 0x500 SWAP1 PUSH2 0x26C8 JUMP JUMPDEST DUP1 ISZERO PUSH2 0x54B JUMPI DUP1 PUSH1 0x1F LT PUSH2 0x522 JUMPI PUSH2 0x100 DUP1 DUP4 SLOAD DIV MUL DUP4 MSTORE SWAP2 PUSH1 0x20 ADD SWAP2 PUSH2 0x54B JUMP JUMPDEST DUP3 ADD SWAP2 SWAP1 PUSH0 MSTORE PUSH1 0x20 PUSH0 KECCAK256 SWAP1 JUMPDEST DUP2 SLOAD DUP2 MSTORE SWAP1 PUSH1 0x1 ADD SWAP1 PUSH1 0x20 ADD DUP1 DUP4 GT PUSH2 0x52E JUMPI DUP3 SWAP1 SUB PUSH1 0x1F AND DUP3 ADD SWAP2 JUMPDEST POP POP POP POP POP DUP2 JUMP JUMPDEST PUSH0 DUP1 PUSH1 0x4 PUSH0 SWAP1 SLOAD SWAP1 PUSH2 0x100 EXP SWAP1 DIV PUSH20 0xFFFFFFFFFFFFFFFFFFFFFFFFFFFFFFFFFFFFFFFF AND PUSH20 0xFFFFFFFFFFFFFFFFFFFFFFFFFFFFFFFFFFFFFFFF AND PUSH4 0x313CE567 PUSH1 0x40 MLOAD DUP2 PUSH4 0xFFFFFFFF AND PUSH1 0xE0 SHL DUP2 MSTORE PUSH1 0x4 ADD PUSH1 0x20 PUSH1 0x40 MLOAD DUP1 DUP4 SUB DUP2 DUP7 GAS STATICCALL ISZERO DUP1 ISZERO PUSH2 0x5BF JUMPI RETURNDATASIZE PUSH0 DUP1 RETURNDATACOPY RETURNDATASIZE PUSH0 REVERT JUMPDEST POP POP POP POP PUSH1 0x40 MLOAD RETURNDATASIZE PUSH1 0x1F NOT PUSH1 0x1F DUP3 ADD AND DUP3 ADD DUP1 PUSH1 0x40 MSTORE POP DUP2 ADD SWAP1 PUSH2 0x5E3 SWAP2 SWAP1 PUSH2 0x270C JUMP JUMPDEST PUSH1 0xA PUSH2 0x5EF SWAP2 SWAP1 PUSH2 0x2893 JUMP JUMPDEST PUSH1 0x8 SLOAD PUSH2 0x5FC SWAP2 SWAP1 PUSH2 0x28DD JUMP JUMPDEST PUSH1 0x3 PUSH0 SWAP1 SLOAD SWAP1 PUSH2 0x100 EXP SWAP1 DIV PUSH20 0xFFFFFFFFFFFFFFFFFFFFFFFFFFFFFFFFFFFFFFFF AND PUSH20 0xFFFFFFFFFFFFFFFFFFFFFFFFFFFFFFFFFFFFFFFF AND PUSH4 0x313CE567 PUSH1 0x40 MLOAD DUP2 PUSH4 0xFFFFFFFF AND PUSH1 0xE0 SHL DUP2 MSTORE PUSH1 0x4 ADD PUSH1 0x20 PUSH1 0x40 MLOAD DUP1 DUP4 SUB DUP2 DUP7 GAS STATICCALL ISZERO DUP1 ISZERO PUSH2 0x666 JUMPI RETURNDATASIZE PUSH0 DUP1 RETURNDATACOPY RETURNDATASIZE PUSH0 REVERT JUMPDEST POP POP POP POP PUSH1 0x40 MLOAD RETURNDATASIZE PUSH1 0x1F NOT PUSH1 0x1F DUP3 ADD AND DUP3 ADD DUP1 PUSH1 0x40 MSTORE POP DUP2 ADD SWAP1 PUSH2 0x68A SWAP2 SWAP1 PUSH2 0x270C JUMP JUMPDEST PUSH1 0xA PUSH2 0x696 SWAP2 SWAP1 PUSH2 0x2893 JUMP JUMPDEST PUSH1 0x1 DUP6 PUSH2 0x6A3 SWAP2 SWAP1 PUSH2 0x28DD JUMP JUMPDEST PUSH2 0x6AD SWAP2 SWAP1 PUSH2 0x28DD JUMP JUMPDEST PUSH2 0x6B7 SWAP2 SWAP1 PUSH2 0x294B JUMP JUMPDEST SWAP1 POP DUP1 SWAP2 POP POP SWAP2 SWAP1 POP JUMP JUMPDEST PUSH1 0xF PUSH1 0x14 SWAP1 SLOAD SWAP1 PUSH2 0x100 EXP SWAP1 DIV PUSH1 0xFF AND DUP2 JUMP JUMPDEST PUSH2 0x6DD PUSH2 0x1435 JUMP JUMPDEST DUP2 PUSH1 0x3 PUSH0 PUSH2 0x100 EXP DUP2 SLOAD DUP2 PUSH20 0xFFFFFFFFFFFFFFFFFFFFFFFFFFFFFFFFFFFFFFFF MUL NOT AND SWAP1 DUP4 PUSH20 0xFFFFFFFFFFFFFFFFFFFFFFFFFFFFFFFFFFFFFFFF AND MUL OR SWAP1 SSTORE POP DUP2 PUSH1 0x5 PUSH0 PUSH2 0x100 EXP DUP2 SLOAD DUP2 PUSH20 0xFFFFFFFFFFFFFFFFFFFFFFFFFFFFFFFFFFFFFFFF MUL NOT AND SWAP1 DUP4 PUSH20 0xFFFFFFFFFFFFFFFFFFFFFFFFFFFFFFFFFFFFFFFF AND MUL OR SWAP1 SSTORE POP DUP1 PUSH1 0x4 PUSH0 PUSH2 0x100 EXP DUP2 SLOAD DUP2 PUSH20 0xFFFFFFFFFFFFFFFFFFFFFFFFFFFFFFFFFFFFFFFF MUL NOT AND SWAP1 DUP4 PUSH20 0xFFFFFFFFFFFFFFFFFFFFFFFFFFFFFFFFFFFFFFFF AND MUL OR SWAP1 SSTORE POP DUP1 PUSH1 0x6 PUSH0 PUSH2 0x100 EXP DUP2 SLOAD DUP2 PUSH20 0xFFFFFFFFFFFFFFFFFFFFFFFFFFFFFFFFFFFFFFFF MUL NOT AND SWAP1 DUP4 PUSH20 0xFFFFFFFFFFFFFFFFFFFFFFFFFFFFFFFFFFFFFFFF AND MUL OR SWAP1 SSTORE POP POP POP JUMP JUMPDEST PUSH1 0x8 SLOAD DUP2 JUMP JUMPDEST PUSH2 0x7EF PUSH2 0x1435 JUMP JUMPDEST DUP1 PUSH1 0x8 DUP2 SWAP1 SSTORE POP POP JUMP JUMPDEST PUSH0 PUSH2 0x802 PUSH2 0x14BC JUMP JUMPDEST SWAP1 POP SWAP1 JUMP JUMPDEST PUSH0 PUSH20 0xFFFFFFFFFFFFFFFFFFFFFFFFFFFFFFFFFFFFFFFF AND DUP7 PUSH20 0xFFFFFFFFFFFFFFFFFFFFFFFFFFFFFFFFFFFFFFFF AND SUB PUSH2 0x875 JUMPI PUSH1 0x40 MLOAD PUSH32 0x8C379A000000000000000000000000000000000000000000000000000000000 DUP2 MSTORE PUSH1 0x4 ADD PUSH2 0x86C SWAP1 PUSH2 0x29C5 JUMP JUMPDEST PUSH1 0x40 MLOAD DUP1 SWAP2 SUB SWAP1 REVERT JUMPDEST PUSH2 0x883 DUP7 DUP7 DUP7 DUP7 DUP7 DUP7 PUSH2 0x1572 JUMP JUMPDEST PUSH0 ISZERO ISZERO PUSH1 0xF PUSH1 0x14 SWAP1 SLOAD SWAP1 PUSH2 0x100 EXP SWAP1 DIV PUSH1 0xFF AND ISZERO ISZERO EQ PUSH2 0x8D8 JUMPI PUSH1 0x40 MLOAD PUSH32 0x8C379A000000000000000000000000000000000000000000000000000000000 DUP2 MSTORE PUSH1 0x4 ADD PUSH2 0x8CF SWAP1 PUSH2 0x2A2D JUMP JUMPDEST PUSH1 0x40 MLOAD DUP1 SWAP2 SUB SWAP1 REVERT JUMPDEST PUSH1 0xA SLOAD DUP6 LT ISZERO PUSH2 0x91D JUMPI PUSH1 0x40 MLOAD PUSH32 0x8C379A000000000000000000000000000000000000000000000000000000000 DUP2 MSTORE PUSH1 0x4 ADD PUSH2 0x914 SWAP1 PUSH2 0x2ABB JUMP JUMPDEST PUSH1 0x40 MLOAD DUP1 SWAP2 SUB SWAP1 REVERT JUMPDEST PUSH2 0x969 DUP7 DUP7 PUSH1 0x6 PUSH0 SWAP1 SLOAD SWAP1 PUSH2 0x100 EXP SWAP1 DIV PUSH20 0xFFFFFFFFFFFFFFFFFFFFFFFFFFFFFFFFFFFFFFFF AND PUSH20 0xFFFFFFFFFFFFFFFFFFFFFFFFFFFFFFFFFFFFFFFF AND PUSH2 0x1844 SWAP1 SWAP3 SWAP2 SWAP1 PUSH4 0xFFFFFFFF AND JUMP JUMPDEST TIMESTAMP DUP7 PUSH20 0xFFFFFFFFFFFFFFFFFFFFFFFFFFFFFFFFFFFFFFFF AND PUSH32 0xD8FB6DBEAADFF1D38BB96624EC3BD037611260D2B198D0F78CC1F0955563E756 DUP8 PUSH1 0x40 MLOAD PUSH2 0x9B0 SWAP2 SWAP1 PUSH2 0x212F JUMP JUMPDEST PUSH1 0x40 MLOAD DUP1 SWAP2 SUB SWAP1 LOG3 POP POP POP POP POP POP JUMP JUMPDEST PUSH1 0x7 SLOAD DUP2 JUMP JUMPDEST PUSH2 0x9CE PUSH2 0x1435 JUMP JUMPDEST DUP1 PUSH1 0xF PUSH1 0x14 PUSH2 0x100 EXP DUP2 SLOAD DUP2 PUSH1 0xFF MUL NOT AND SWAP1 DUP4 ISZERO ISZERO MUL OR SWAP1 SSTORE POP POP JUMP JUMPDEST PUSH2 0x9F3 PUSH2 0x1435 JUMP JUMPDEST DUP1 PUSH1 0xF PUSH0 PUSH2 0x100 EXP DUP2 SLOAD DUP2 PUSH20 0xFFFFFFFFFFFFFFFFFFFFFFFFFFFFFFFFFFFFFFFF MUL NOT AND SWAP1 DUP4 PUSH20 0xFFFFFFFFFFFFFFFFFFFFFFFFFFFFFFFFFFFFFFFF AND MUL OR SWAP1 SSTORE POP POP JUMP JUMPDEST PUSH2 0xA3E PUSH2 0x1435 JUMP JUMPDEST PUSH2 0xA47 PUSH0 PUSH2 0x18C3 JUMP JUMPDEST JUMP JUMPDEST PUSH2 0xA51 PUSH2 0x1435 JUMP JUMPDEST DUP1 PUSH1 0x7 DUP2 SWAP1 SSTORE POP POP JUMP JUMPDEST PUSH0 PUSH1 0x60 DUP1 PUSH0 DUP1 PUSH0 PUSH1 0x60 PUSH2 0xA6C PUSH2 0x1984 JUMP JUMPDEST PUSH2 0xA74 PUSH2 0x19BF JUMP JUMPDEST CHAINID ADDRESS PUSH0 DUP1 SHL PUSH0 PUSH8 0xFFFFFFFFFFFFFFFF DUP2 GT ISZERO PUSH2 0xA93 JUMPI PUSH2 0xA92 PUSH2 0x2AD9 JUMP JUMPDEST JUMPDEST PUSH1 0x40 MLOAD SWAP1 DUP1 DUP3 MSTORE DUP1 PUSH1 0x20 MUL PUSH1 0x20 ADD DUP3 ADD PUSH1 0x40 MSTORE DUP1 ISZERO PUSH2 0xAC1 JUMPI DUP2 PUSH1 0x20 ADD PUSH1 0x20 DUP3 MUL DUP1 CALLDATASIZE DUP4 CALLDATACOPY DUP1 DUP3 ADD SWAP2 POP POP SWAP1 POP JUMPDEST POP PUSH32 0xF00000000000000000000000000000000000000000000000000000000000000 SWAP6 SWAP5 SWAP4 SWAP3 SWAP2 SWAP1 SWAP7 POP SWAP7 POP SWAP7 POP SWAP7 POP SWAP7 POP SWAP7 POP SWAP7 POP SWAP1 SWAP2 SWAP3 SWAP4 SWAP5 SWAP6 SWAP7 JUMP JUMPDEST PUSH1 0x9 SLOAD DUP2 JUMP JUMPDEST PUSH0 DUP1 PUSH0 SWAP1 SLOAD SWAP1 PUSH2 0x100 EXP SWAP1 DIV PUSH20 0xFFFFFFFFFFFFFFFFFFFFFFFFFFFFFFFFFFFFFFFF AND SWAP1 POP SWAP1 JUMP JUMPDEST PUSH2 0xB35 PUSH2 0x1435 JUMP JUMPDEST PUSH0 PUSH20 0xFFFFFFFFFFFFFFFFFFFFFFFFFFFFFFFFFFFFFFFF AND DUP2 PUSH20 0xFFFFFFFFFFFFFFFFFFFFFFFFFFFFFFFFFFFFFFFF AND SUB PUSH2 0xBA3 JUMPI PUSH1 0x40 MLOAD PUSH32 0x8C379A000000000000000000000000000000000000000000000000000000000 DUP2 MSTORE PUSH1 0x4 ADD PUSH2 0xB9A SWAP1 PUSH2 0x29C5 JUMP JUMPDEST PUSH1 0x40 MLOAD DUP1 SWAP2 SUB SWAP1 REVERT JUMPDEST PUSH0 PUSH1 0x3 PUSH0 SWAP1 SLOAD SWAP1 PUSH2 0x100 EXP SWAP1 DIV PUSH20 0xFFFFFFFFFFFFFFFFFFFFFFFFFFFFFFFFFFFFFFFF AND PUSH20 0xFFFFFFFFFFFFFFFFFFFFFFFFFFFFFFFFFFFFFFFF AND PUSH4 0x70A08231 ADDRESS PUSH1 0x40 MLOAD DUP3 PUSH4 0xFFFFFFFF AND PUSH1 0xE0 SHL DUP2 MSTORE PUSH1 0x4 ADD PUSH2 0xBFE SWAP2 SWAP1 PUSH2 0x2632 JUMP JUMPDEST PUSH1 0x20 PUSH1 0x40 MLOAD DUP1 DUP4 SUB DUP2 DUP7 GAS STATICCALL ISZERO DUP1 ISZERO PUSH2 0xC19 JUMPI RETURNDATASIZE PUSH0 DUP1 RETURNDATACOPY RETURNDATASIZE PUSH0 REVERT JUMPDEST POP POP POP POP PUSH1 0x40 MLOAD RETURNDATASIZE PUSH1 0x1F NOT PUSH1 0x1F DUP3 ADD AND DUP3 ADD DUP1 PUSH1 0x40 MSTORE POP DUP2 ADD SWAP1 PUSH2 0xC3D SWAP2 SWAP1 PUSH2 0x2B1A JUMP JUMPDEST SWAP1 POP PUSH0 PUSH1 0xB SLOAD PUSH1 0xD SLOAD PUSH1 0xC SLOAD DUP5 PUSH2 0xC54 SWAP2 SWAP1 PUSH2 0x2B45 JUMP JUMPDEST PUSH2 0xC5E SWAP2 SWAP1 PUSH2 0x2B45 JUMP JUMPDEST PUSH2 0xC68 SWAP2 SWAP1 PUSH2 0x2B78 JUMP JUMPDEST SWAP1 POP DUP1 PUSH1 0xB PUSH0 DUP3 DUP3 SLOAD PUSH2 0xC7B SWAP2 SWAP1 PUSH2 0x2B45 JUMP JUMPDEST SWAP3 POP POP DUP2 SWAP1 SSTORE POP PUSH0 PUSH1 0x64 PUSH1 0x7 SLOAD DUP4 PUSH2 0xC93 SWAP2 SWAP1 PUSH2 0x28DD JUMP JUMPDEST PUSH2 0xC9D SWAP2 SWAP1 PUSH2 0x294B JUMP JUMPDEST SWAP1 POP PUSH0 DUP2 GT PUSH2 0xCE1 JUMPI PUSH1 0x40 MLOAD PUSH32 0x8C379A000000000000000000000000000000000000000000000000000000000 DUP2 MSTORE PUSH1 0x4 ADD PUSH2 0xCD8 SWAP1 PUSH2 0x2BF5 JUMP JUMPDEST PUSH1 0x40 MLOAD DUP1 SWAP2 SUB SWAP1 REVERT JUMPDEST DUP1 PUSH1 0xD PUSH0 DUP3 DUP3 SLOAD PUSH2 0xCF2 SWAP2 SWAP1 PUSH2 0x2B45 JUMP JUMPDEST SWAP3 POP POP DUP2 SWAP1 SSTORE POP PUSH2 0xD45 DUP5 DUP3 PUSH1 0x5 PUSH0 SWAP1 SLOAD SWAP1 PUSH2 0x100 EXP SWAP1 DIV PUSH20 0xFFFFFFFFFFFFFFFFFFFFFFFFFFFFFFFFFFFFFFFF AND PUSH20 0xFFFFFFFFFFFFFFFFFFFFFFFFFFFFFFFFFFFFFFFF AND PUSH2 0x1844 SWAP1 SWAP3 SWAP2 SWAP1 PUSH4 0xFFFFFFFF AND JUMP JUMPDEST POP POP POP POP JUMP JUMPDEST PUSH2 0xD53 PUSH2 0x1435 JUMP JUMPDEST DUP1 PUSH1 0x9 DUP2 SWAP1 SSTORE POP POP JUMP JUMPDEST PUSH2 0xD65 PUSH2 0x1435 JUMP JUMPDEST PUSH1 0x4 PUSH0 SWAP1 SLOAD SWAP1 PUSH2 0x100 EXP SWAP1 DIV PUSH20 0xFFFFFFFFFFFFFFFFFFFFFFFFFFFFFFFFFFFFFFFF AND PUSH20 0xFFFFFFFFFFFFFFFFFFFFFFFFFFFFFFFFFFFFFFFF AND PUSH4 0x313CE567 PUSH1 0x40 MLOAD DUP2 PUSH4 0xFFFFFFFF AND PUSH1 0xE0 SHL DUP2 MSTORE PUSH1 0x4 ADD PUSH1 0x20 PUSH1 0x40 MLOAD DUP1 DUP4 SUB DUP2 DUP7 GAS STATICCALL ISZERO DUP1 ISZERO PUSH2 0xDCF JUMPI RETURNDATASIZE PUSH0 DUP1 RETURNDATACOPY RETURNDATASIZE PUSH0 REVERT JUMPDEST POP POP POP POP PUSH1 0x40 MLOAD RETURNDATASIZE PUSH1 0x1F NOT PUSH1 0x1F DUP3 ADD AND DUP3 ADD DUP1 PUSH1 0x40 MSTORE POP DUP2 ADD SWAP1 PUSH2 0xDF3 SWAP2 SWAP1 PUSH2 0x270C JUMP JUMPDEST PUSH1 0xA PUSH2 0xDFF SWAP2 SWAP1 PUSH2 0x2893 JUMP JUMPDEST DUP2 PUSH2 0xE0A SWAP2 SWAP1 PUSH2 0x28DD JUMP JUMPDEST PUSH1 0xA DUP2 SWAP1 SSTORE POP POP JUMP JUMPDEST PUSH1 0xD SLOAD DUP2 JUMP JUMPDEST PUSH1 0xA SLOAD DUP2 JUMP JUMPDEST PUSH2 0xE27 PUSH2 0x1435 JUMP JUMPDEST PUSH0 PUSH20 0xFFFFFFFFFFFFFFFFFFFFFFFFFFFFFFFFFFFFFFFF AND DUP4 PUSH20 0xFFFFFFFFFFFFFFFFFFFFFFFFFFFFFFFFFFFFFFFF AND SUB PUSH2 0xE95 JUMPI PUSH1 0x40 MLOAD PUSH32 0x8C379A000000000000000000000000000000000000000000000000000000000 DUP2 MSTORE PUSH1 0x4 ADD PUSH2 0xE8C SWAP1 PUSH2 0x29C5 JUMP JUMPDEST PUSH1 0x40 MLOAD DUP1 SWAP2 SUB SWAP1 REVERT JUMPDEST PUSH0 PUSH20 0xFFFFFFFFFFFFFFFFFFFFFFFFFFFFFFFFFFFFFFFF AND DUP3 PUSH20 0xFFFFFFFFFFFFFFFFFFFFFFFFFFFFFFFFFFFFFFFF AND SUB PUSH2 0xF03 JUMPI PUSH1 0x40 MLOAD PUSH32 0x8C379A000000000000000000000000000000000000000000000000000000000 DUP2 MSTORE PUSH1 0x4 ADD PUSH2 0xEFA SWAP1 PUSH2 0x29C5 JUMP JUMPDEST PUSH1 0x40 MLOAD DUP1 SWAP2 SUB SWAP1 REVERT JUMPDEST PUSH0 DUP2 GT PUSH2 0xF45 JUMPI PUSH1 0x40 MLOAD PUSH32 0x8C379A000000000000000000000000000000000000000000000000000000000 DUP2 MSTORE PUSH1 0x4 ADD PUSH2 0xF3C SWAP1 PUSH2 0x2C5D JUMP JUMPDEST PUSH1 0x40 MLOAD DUP1 SWAP2 SUB SWAP1 REVERT JUMPDEST DUP3 PUSH20 0xFFFFFFFFFFFFFFFFFFFFFFFFFFFFFFFFFFFFFFFF AND PUSH4 0xA9059CBB DUP4 DUP4 PUSH1 0x40 MLOAD DUP4 PUSH4 0xFFFFFFFF AND PUSH1 0xE0 SHL DUP2 MSTORE PUSH1 0x4 ADD PUSH2 0xF80 SWAP3 SWAP2 SWAP1 PUSH2 0x2C7B JUMP JUMPDEST PUSH1 0x20 PUSH1 0x40 MLOAD DUP1 DUP4 SUB DUP2 PUSH0 DUP8 GAS CALL ISZERO DUP1 ISZERO PUSH2 0xF9C JUMPI RETURNDATASIZE PUSH0 DUP1 RETURNDATACOPY RETURNDATASIZE PUSH0 REVERT JUMPDEST POP POP POP POP PUSH1 0x40 MLOAD RETURNDATASIZE PUSH1 0x1F NOT PUSH1 0x1F DUP3 ADD AND DUP3 ADD DUP1 PUSH1 0x40 MSTORE POP DUP2 ADD SWAP1 PUSH2 0xFC0 SWAP2 SWAP1 PUSH2 0x2CB6 JUMP JUMPDEST POP POP POP POP JUMP JUMPDEST PUSH2 0xFCE PUSH2 0x1435 JUMP JUMPDEST PUSH0 PUSH20 0xFFFFFFFFFFFFFFFFFFFFFFFFFFFFFFFFFFFFFFFF AND DUP2 PUSH20 0xFFFFFFFFFFFFFFFFFFFFFFFFFFFFFFFFFFFFFFFF AND SUB PUSH2 0x103E JUMPI PUSH0 PUSH1 0x40 MLOAD PUSH32 0x1E4FBDF700000000000000000000000000000000000000000000000000000000 DUP2 MSTORE PUSH1 0x4 ADD PUSH2 0x1035 SWAP2 SWAP1 PUSH2 0x2632 JUMP JUMPDEST PUSH1 0x40 MLOAD DUP1 SWAP2 SUB SWAP1 REVERT JUMPDEST PUSH2 0x1047 DUP2 PUSH2 0x18C3 JUMP JUMPDEST POP JUMP JUMPDEST PUSH1 0xF PUSH0 SWAP1 SLOAD SWAP1 PUSH2 0x100 EXP SWAP1 DIV PUSH20 0xFFFFFFFFFFFFFFFFFFFFFFFFFFFFFFFFFFFFFFFF AND DUP2 JUMP JUMPDEST PUSH0 PUSH20 0xFFFFFFFFFFFFFFFFFFFFFFFFFFFFFFFFFFFFFFFF AND DUP7 PUSH20 0xFFFFFFFFFFFFFFFFFFFFFFFFFFFFFFFFFFFFFFFF AND SUB PUSH2 0x10DD JUMPI PUSH1 0x40 MLOAD PUSH32 0x8C379A000000000000000000000000000000000000000000000000000000000 DUP2 MSTORE PUSH1 0x4 ADD PUSH2 0x10D4 SWAP1 PUSH2 0x29C5 JUMP JUMPDEST PUSH1 0x40 MLOAD DUP1 SWAP2 SUB SWAP1 REVERT JUMPDEST PUSH2 0x10EB DUP7 DUP7 DUP7 DUP7 DUP7 DUP7 PUSH2 0x1572 JUMP JUMPDEST PUSH0 ISZERO ISZERO PUSH1 0xF PUSH1 0x14 SWAP1 SLOAD SWAP1 PUSH2 0x100 EXP SWAP1 DIV PUSH1 0xFF AND ISZERO ISZERO EQ PUSH2 0x1140 JUMPI PUSH1 0x40 MLOAD PUSH32 0x8C379A000000000000000000000000000000000000000000000000000000000 DUP2 MSTORE PUSH1 0x4 ADD PUSH2 0x1137 SWAP1 PUSH2 0x2A2D JUMP JUMPDEST PUSH1 0x40 MLOAD DUP1 SWAP2 SUB SWAP1 REVERT JUMPDEST DUP5 PUSH1 0x4 PUSH0 SWAP1 SLOAD SWAP1 PUSH2 0x100 EXP SWAP1 DIV PUSH20 0xFFFFFFFFFFFFFFFFFFFFFFFFFFFFFFFFFFFFFFFF AND PUSH20 0xFFFFFFFFFFFFFFFFFFFFFFFFFFFFFFFFFFFFFFFF AND PUSH4 0x70A08231 DUP9 PUSH1 0x40 MLOAD DUP3 PUSH4 0xFFFFFFFF AND PUSH1 0xE0 SHL DUP2 MSTORE PUSH1 0x4 ADD PUSH2 0x119B SWAP2 SWAP1 PUSH2 0x2632 JUMP JUMPDEST PUSH1 0x20 PUSH1 0x40 MLOAD DUP1 DUP4 SUB DUP2 DUP7 GAS STATICCALL ISZERO DUP1 ISZERO PUSH2 0x11B6 JUMPI RETURNDATASIZE PUSH0 DUP1 RETURNDATACOPY RETURNDATASIZE PUSH0 REVERT JUMPDEST POP POP POP POP PUSH1 0x40 MLOAD RETURNDATASIZE PUSH1 0x1F NOT PUSH1 0x1F DUP3 ADD AND DUP3 ADD DUP1 PUSH1 0x40 MSTORE POP DUP2 ADD SWAP1 PUSH2 0x11DA SWAP2 SWAP1 PUSH2 0x2B1A JUMP JUMPDEST LT ISZERO PUSH2 0x121B JUMPI PUSH1 0x40 MLOAD PUSH32 0x8C379A000000000000000000000000000000000000000000000000000000000 DUP2 MSTORE PUSH1 0x4 ADD PUSH2 0x1212 SWAP1 PUSH2 0x2D2B JUMP JUMPDEST PUSH1 0x40 MLOAD DUP1 SWAP2 SUB SWAP1 REVERT JUMPDEST PUSH1 0xA SLOAD DUP6 LT ISZERO PUSH2 0x1260 JUMPI PUSH1 0x40 MLOAD PUSH32 0x8C379A000000000000000000000000000000000000000000000000000000000 DUP2 MSTORE PUSH1 0x4 ADD PUSH2 0x1257 SWAP1 PUSH2 0x2DB9 JUMP JUMPDEST PUSH1 0x40 MLOAD DUP1 SWAP2 SUB SWAP1 REVERT JUMPDEST PUSH0 PUSH2 0x126A DUP7 PUSH2 0x553 JUMP JUMPDEST SWAP1 POP DUP1 PUSH1 0xC PUSH0 DUP3 DUP3 SLOAD PUSH2 0x127D SWAP2 SWAP1 PUSH2 0x2B45 JUMP JUMPDEST SWAP3 POP POP DUP2 SWAP1 SSTORE POP PUSH0 PUSH1 0x64 PUSH1 0x9 SLOAD DUP4 PUSH2 0x1295 SWAP2 SWAP1 PUSH2 0x28DD JUMP JUMPDEST PUSH2 0x129F SWAP2 SWAP1 PUSH2 0x294B JUMP JUMPDEST SWAP1 POP PUSH0 DUP2 DUP4 PUSH2 0x12AE SWAP2 SWAP1 PUSH2 0x2B78 JUMP JUMPDEST SWAP1 POP PUSH1 0x4 PUSH0 SWAP1 SLOAD SWAP1 PUSH2 0x100 EXP SWAP1 DIV PUSH20 0xFFFFFFFFFFFFFFFFFFFFFFFFFFFFFFFFFFFFFFFF AND PUSH20 0xFFFFFFFFFFFFFFFFFFFFFFFFFFFFFFFFFFFFFFFF AND PUSH4 0x9DC29FAC DUP11 DUP11 PUSH1 0x40 MLOAD DUP4 PUSH4 0xFFFFFFFF AND PUSH1 0xE0 SHL DUP2 MSTORE PUSH1 0x4 ADD PUSH2 0x130C SWAP3 SWAP2 SWAP1 PUSH2 0x2C7B JUMP JUMPDEST PUSH0 PUSH1 0x40 MLOAD DUP1 DUP4 SUB DUP2 PUSH0 DUP8 DUP1 EXTCODESIZE ISZERO DUP1 ISZERO PUSH2 0x1323 JUMPI PUSH0 DUP1 REVERT JUMPDEST POP GAS CALL ISZERO DUP1 ISZERO PUSH2 0x1335 JUMPI RETURNDATASIZE PUSH0 DUP1 RETURNDATACOPY RETURNDATASIZE PUSH0 REVERT JUMPDEST POP POP POP POP PUSH2 0x1385 DUP10 DUP3 PUSH1 0x5 PUSH0 SWAP1 SLOAD SWAP1 PUSH2 0x100 EXP SWAP1 DIV PUSH20 0xFFFFFFFFFFFFFFFFFFFFFFFFFFFFFFFFFFFFFFFF AND PUSH20 0xFFFFFFFFFFFFFFFFFFFFFFFFFFFFFFFFFFFFFFFF AND PUSH2 0x1844 SWAP1 SWAP3 SWAP2 SWAP1 PUSH4 0xFFFFFFFF AND JUMP JUMPDEST PUSH2 0x13D1 CALLER DUP4 PUSH1 0x5 PUSH0 SWAP1 SLOAD SWAP1 PUSH2 0x100 EXP SWAP1 DIV PUSH20 0xFFFFFFFFFFFFFFFFFFFFFFFFFFFFFFFFFFFFFFFF AND PUSH20 0xFFFFFFFFFFFFFFFFFFFFFFFFFFFFFFFFFFFFFFFF AND PUSH2 0x1844 SWAP1 SWAP3 SWAP2 SWAP1 PUSH4 0xFFFFFFFF AND JUMP JUMPDEST TIMESTAMP DUP10 PUSH20 0xFFFFFFFFFFFFFFFFFFFFFFFFFFFFFFFFFFFFFFFF AND PUSH32 0x9A5F60E59CC27A7C25A7F78275C910454CD9ADACB21CECFF527C98ED63E02877 DUP11 DUP5 DUP7 PUSH1 0x40 MLOAD PUSH2 0x141C SWAP4 SWAP3 SWAP2 SWAP1 PUSH2 0x2DD7 JUMP JUMPDEST PUSH1 0x40 MLOAD DUP1 SWAP2 SUB SWAP1 LOG3 POP POP POP POP POP POP POP POP POP JUMP JUMPDEST PUSH1 0xC SLOAD DUP2 JUMP JUMPDEST PUSH2 0x143D PUSH2 0x19FA JUMP JUMPDEST PUSH20 0xFFFFFFFFFFFFFFFFFFFFFFFFFFFFFFFFFFFFFFFF AND PUSH2 0x145B PUSH2 0xB06 JUMP JUMPDEST PUSH20 0xFFFFFFFFFFFFFFFFFFFFFFFFFFFFFFFFFFFFFFFF AND EQ PUSH2 0x14BA JUMPI PUSH2 0x147E PUSH2 0x19FA JUMP JUMPDEST PUSH1 0x40 MLOAD PUSH32 0x118CDAA700000000000000000000000000000000000000000000000000000000 DUP2 MSTORE PUSH1 0x4 ADD PUSH2 0x14B1 SWAP2 SWAP1 PUSH2 0x2632 JUMP JUMPDEST PUSH1 0x40 MLOAD DUP1 SWAP2 SUB SWAP1 REVERT JUMPDEST JUMP JUMPDEST PUSH0 PUSH32 0x0 PUSH20 0xFFFFFFFFFFFFFFFFFFFFFFFFFFFFFFFFFFFFFFFF AND ADDRESS PUSH20 0xFFFFFFFFFFFFFFFFFFFFFFFFFFFFFFFFFFFFFFFF AND EQ DUP1 ISZERO PUSH2 0x1537 JUMPI POP PUSH32 0x0 CHAINID EQ JUMPDEST ISZERO PUSH2 0x1564 JUMPI PUSH32 0x0 SWAP1 POP PUSH2 0x156F JUMP JUMPDEST PUSH2 0x156C PUSH2 0x1A01 JUMP JUMPDEST SWAP1 POP JUMPDEST SWAP1 JUMP JUMPDEST PUSH0 ISZERO ISZERO PUSH1 0x10 PUSH0 DUP6 PUSH1 0xFF AND PUSH1 0xFF AND DUP2 MSTORE PUSH1 0x20 ADD SWAP1 DUP2 MSTORE PUSH1 0x20 ADD PUSH0 KECCAK256 PUSH0 SWAP1 SLOAD SWAP1 PUSH2 0x100 EXP SWAP1 DIV PUSH1 0xFF AND ISZERO ISZERO EQ DUP1 PUSH2 0x15C7 JUMPI POP PUSH0 ISZERO ISZERO PUSH1 0x11 PUSH0 DUP5 DUP2 MSTORE PUSH1 0x20 ADD SWAP1 DUP2 MSTORE PUSH1 0x20 ADD PUSH0 KECCAK256 PUSH0 SWAP1 SLOAD SWAP1 PUSH2 0x100 EXP SWAP1 DIV PUSH1 0xFF AND ISZERO ISZERO EQ JUMPDEST DUP1 PUSH2 0x15F2 JUMPI POP PUSH0 ISZERO ISZERO PUSH1 0x12 PUSH0 DUP4 DUP2 MSTORE PUSH1 0x20 ADD SWAP1 DUP2 MSTORE PUSH1 0x20 ADD PUSH0 KECCAK256 PUSH0 SWAP1 SLOAD SWAP1 PUSH2 0x100 EXP SWAP1 DIV PUSH1 0xFF AND ISZERO ISZERO EQ JUMPDEST PUSH2 0x1631 JUMPI PUSH1 0x40 MLOAD PUSH32 0x8C379A000000000000000000000000000000000000000000000000000000000 DUP2 MSTORE PUSH1 0x4 ADD PUSH2 0x1628 SWAP1 PUSH2 0x2E56 JUMP JUMPDEST PUSH1 0x40 MLOAD DUP1 SWAP2 SUB SWAP1 REVERT JUMPDEST DUP4 TIMESTAMP GT ISZERO PUSH2 0x1676 JUMPI DUP4 PUSH1 0x40 MLOAD PUSH32 0x6279130200000000000000000000000000000000000000000000000000000000 DUP2 MSTORE PUSH1 0x4 ADD PUSH2 0x166D SWAP2 SWAP1 PUSH2 0x212F JUMP JUMPDEST PUSH1 0x40 MLOAD DUP1 SWAP2 SUB SWAP1 REVERT JUMPDEST PUSH0 PUSH32 0x5619A74ECD0240AFC3BFB1DF2BD1319401220FB577809C3A09BF0AB809AC861 PUSH1 0xF PUSH0 SWAP1 SLOAD SWAP1 PUSH2 0x100 EXP SWAP1 DIV PUSH20 0xFFFFFFFFFFFFFFFFFFFFFFFFFFFFFFFFFFFFFFFF AND DUP9 DUP9 DUP9 PUSH1 0x40 MLOAD PUSH1 0x20 ADD PUSH2 0x16D1 SWAP6 SWAP5 SWAP4 SWAP3 SWAP2 SWAP1 PUSH2 0x2E74 JUMP JUMPDEST PUSH1 0x40 MLOAD PUSH1 0x20 DUP2 DUP4 SUB SUB DUP2 MSTORE SWAP1 PUSH1 0x40 MSTORE DUP1 MLOAD SWAP1 PUSH1 0x20 ADD KECCAK256 SWAP1 POP PUSH0 PUSH2 0x16F3 DUP3 PUSH2 0x1A96 JUMP JUMPDEST SWAP1 POP PUSH0 PUSH2 0x1702 DUP3 DUP8 DUP8 DUP8 PUSH2 0x1AAF JUMP JUMPDEST SWAP1 POP PUSH1 0xF PUSH0 SWAP1 SLOAD SWAP1 PUSH2 0x100 EXP SWAP1 DIV PUSH20 0xFFFFFFFFFFFFFFFFFFFFFFFFFFFFFFFFFFFFFFFF AND PUSH20 0xFFFFFFFFFFFFFFFFFFFFFFFFFFFFFFFFFFFFFFFF AND DUP2 PUSH20 0xFFFFFFFFFFFFFFFFFFFFFFFFFFFFFFFFFFFFFFFF AND EQ PUSH2 0x17B8 JUMPI DUP1 PUSH1 0xF PUSH0 SWAP1 SLOAD SWAP1 PUSH2 0x100 EXP SWAP1 DIV PUSH20 0xFFFFFFFFFFFFFFFFFFFFFFFFFFFFFFFFFFFFFFFF AND PUSH1 0x40 MLOAD PUSH32 0x4B800E4600000000000000000000000000000000000000000000000000000000 DUP2 MSTORE PUSH1 0x4 ADD PUSH2 0x17AF SWAP3 SWAP2 SWAP1 PUSH2 0x2EC5 JUMP JUMPDEST PUSH1 0x40 MLOAD DUP1 SWAP2 SUB SWAP1 REVERT JUMPDEST PUSH1 0x1 PUSH1 0x10 PUSH0 DUP9 PUSH1 0xFF AND PUSH1 0xFF AND DUP2 MSTORE PUSH1 0x20 ADD SWAP1 DUP2 MSTORE PUSH1 0x20 ADD PUSH0 KECCAK256 PUSH0 PUSH2 0x100 EXP DUP2 SLOAD DUP2 PUSH1 0xFF MUL NOT AND SWAP1 DUP4 ISZERO ISZERO MUL OR SWAP1 SSTORE POP PUSH1 0x1 PUSH1 0x11 PUSH0 DUP8 DUP2 MSTORE PUSH1 0x20 ADD SWAP1 DUP2 MSTORE PUSH1 0x20 ADD PUSH0 KECCAK256 PUSH0 PUSH2 0x100 EXP DUP2 SLOAD DUP2 PUSH1 0xFF MUL NOT AND SWAP1 DUP4 ISZERO ISZERO MUL OR SWAP1 SSTORE POP PUSH1 0x1 PUSH1 0x12 PUSH0 DUP7 DUP2 MSTORE PUSH1 0x20 ADD SWAP1 DUP2 MSTORE PUSH1 0x20 ADD PUSH0 KECCAK256 PUSH0 PUSH2 0x100 EXP DUP2 SLOAD DUP2 PUSH1 0xFF MUL NOT AND SWAP1 DUP4 ISZERO ISZERO MUL OR SWAP1 SSTORE POP POP POP POP POP POP POP POP POP POP JUMP JUMPDEST PUSH2 0x18BE DUP4 DUP5 PUSH20 0xFFFFFFFFFFFFFFFFFFFFFFFFFFFFFFFFFFFFFFFF AND PUSH4 0xA9059CBB DUP6 DUP6 PUSH1 0x40 MLOAD PUSH1 0x24 ADD PUSH2 0x1877 SWAP3 SWAP2 SWAP1 PUSH2 0x2C7B JUMP JUMPDEST PUSH1 0x40 MLOAD PUSH1 0x20 DUP2 DUP4 SUB SUB DUP2 MSTORE SWAP1 PUSH1 0x40 MSTORE SWAP2 POP PUSH1 0xE0 SHL PUSH1 0x20 DUP3 ADD DUP1 MLOAD PUSH28 0xFFFFFFFFFFFFFFFFFFFFFFFFFFFFFFFFFFFFFFFFFFFFFFFFFFFFFFFF DUP4 DUP2 DUP4 AND OR DUP4 MSTORE POP POP POP POP PUSH2 0x1ADD JUMP JUMPDEST POP POP POP JUMP JUMPDEST PUSH0 DUP1 PUSH0 SWAP1 SLOAD SWAP1 PUSH2 0x100 EXP SWAP1 DIV PUSH20 0xFFFFFFFFFFFFFFFFFFFFFFFFFFFFFFFFFFFFFFFF AND SWAP1 POP DUP2 PUSH0 DUP1 PUSH2 0x100 EXP DUP2 SLOAD DUP2 PUSH20 0xFFFFFFFFFFFFFFFFFFFFFFFFFFFFFFFFFFFFFFFF MUL NOT AND SWAP1 DUP4 PUSH20 0xFFFFFFFFFFFFFFFFFFFFFFFFFFFFFFFFFFFFFFFF AND MUL OR SWAP1 SSTORE POP DUP2 PUSH20 0xFFFFFFFFFFFFFFFFFFFFFFFFFFFFFFFFFFFFFFFF AND DUP2 PUSH20 0xFFFFFFFFFFFFFFFFFFFFFFFFFFFFFFFFFFFFFFFF AND PUSH32 0x8BE0079C531659141344CD1FD0A4F28419497F9722A3DAAFE3B4186F6B6457E0 PUSH1 0x40 MLOAD PUSH1 0x40 MLOAD DUP1 SWAP2 SUB SWAP1 LOG3 POP POP JUMP JUMPDEST PUSH1 0x60 PUSH2 0x19BA PUSH1 0x1 PUSH32 0x0 PUSH2 0x1B72 SWAP1 SWAP2 SWAP1 PUSH4 0xFFFFFFFF AND JUMP JUMPDEST SWAP1 POP SWAP1 JUMP JUMPDEST PUSH1 0x60 PUSH2 0x19F5 PUSH1 0x2 PUSH32 0x0 PUSH2 0x1B72 SWAP1 SWAP2 SWAP1 PUSH4 0xFFFFFFFF AND JUMP JUMPDEST SWAP1 POP SWAP1 JUMP JUMPDEST PUSH0 CALLER SWAP1 POP SWAP1 JUMP JUMPDEST PUSH0 PUSH32 0x8B73C3C69BB8FE3D512ECC4CF759CC79239F7B179B0FFACAA9A75D522B39400F PUSH32 0x0 PUSH32 0x0 CHAINID ADDRESS PUSH1 0x40 MLOAD PUSH1 0x20 ADD PUSH2 0x1A7B SWAP6 SWAP5 SWAP4 SWAP3 SWAP2 SWAP1 PUSH2 0x2EEC JUMP JUMPDEST PUSH1 0x40 MLOAD PUSH1 0x20 DUP2 DUP4 SUB SUB DUP2 MSTORE SWAP1 PUSH1 0x40 MSTORE DUP1 MLOAD SWAP1 PUSH1 0x20 ADD KECCAK256 SWAP1 POP SWAP1 JUMP JUMPDEST PUSH0 PUSH2 0x1AA8 PUSH2 0x1AA2 PUSH2 0x14BC JUMP JUMPDEST DUP4 PUSH2 0x1C1F JUMP JUMPDEST SWAP1 POP SWAP2 SWAP1 POP JUMP JUMPDEST PUSH0 DUP1 PUSH0 DUP1 PUSH2 0x1ABF DUP9 DUP9 DUP9 DUP9 PUSH2 0x1C5F JUMP JUMPDEST SWAP3 POP SWAP3 POP SWAP3 POP PUSH2 0x1ACF DUP3 DUP3 PUSH2 0x1D46 JUMP JUMPDEST DUP3 SWAP4 POP POP POP POP SWAP5 SWAP4 POP POP POP POP JUMP JUMPDEST PUSH0 PUSH2 0x1B07 DUP3 DUP5 PUSH20 0xFFFFFFFFFFFFFFFFFFFFFFFFFFFFFFFFFFFFFFFF AND PUSH2 0x1EA8 SWAP1 SWAP2 SWAP1 PUSH4 0xFFFFFFFF AND JUMP JUMPDEST SWAP1 POP PUSH0 DUP2 MLOAD EQ ISZERO DUP1 ISZERO PUSH2 0x1B2B JUMPI POP DUP1 DUP1 PUSH1 0x20 ADD SWAP1 MLOAD DUP2 ADD SWAP1 PUSH2 0x1B29 SWAP2 SWAP1 PUSH2 0x2CB6 JUMP JUMPDEST ISZERO JUMPDEST ISZERO PUSH2 0x1B6D JUMPI DUP3 PUSH1 0x40 MLOAD PUSH32 0x5274AFE700000000000000000000000000000000000000000000000000000000 DUP2 MSTORE PUSH1 0x4 ADD PUSH2 0x1B64 SWAP2 SWAP1 PUSH2 0x2632 JUMP JUMPDEST PUSH1 0x40 MLOAD DUP1 SWAP2 SUB SWAP1 REVERT JUMPDEST POP POP POP JUMP JUMPDEST PUSH1 0x60 PUSH1 0xFF PUSH0 SHL DUP4 EQ PUSH2 0x1B8E JUMPI PUSH2 0x1B87 DUP4 PUSH2 0x1EBD JUMP JUMPDEST SWAP1 POP PUSH2 0x1C19 JUMP JUMPDEST DUP2 DUP1 SLOAD PUSH2 0x1B9A SWAP1 PUSH2 0x26C8 JUMP JUMPDEST DUP1 PUSH1 0x1F ADD PUSH1 0x20 DUP1 SWAP2 DIV MUL PUSH1 0x20 ADD PUSH1 0x40 MLOAD SWAP1 DUP2 ADD PUSH1 0x40 MSTORE DUP1 SWAP3 SWAP2 SWAP1 DUP2 DUP2 MSTORE PUSH1 0x20 ADD DUP3 DUP1 SLOAD PUSH2 0x1BC6 SWAP1 PUSH2 0x26C8 JUMP JUMPDEST DUP1 ISZERO PUSH2 0x1C11 JUMPI DUP1 PUSH1 0x1F LT PUSH2 0x1BE8 JUMPI PUSH2 0x100 DUP1 DUP4 SLOAD DIV MUL DUP4 MSTORE SWAP2 PUSH1 0x20 ADD SWAP2 PUSH2 0x1C11 JUMP JUMPDEST DUP3 ADD SWAP2 SWAP1 PUSH0 MSTORE PUSH1 0x20 PUSH0 KECCAK256 SWAP1 JUMPDEST DUP2 SLOAD DUP2 MSTORE SWAP1 PUSH1 0x1 ADD SWAP1 PUSH1 0x20 ADD DUP1 DUP4 GT PUSH2 0x1BF4 JUMPI DUP3 SWAP1 SUB PUSH1 0x1F AND DUP3 ADD SWAP2 JUMPDEST POP POP POP POP POP SWAP1 POP JUMPDEST SWAP3 SWAP2 POP POP JUMP JUMPDEST PUSH0 PUSH1 0x40 MLOAD PUSH32 0x1901000000000000000000000000000000000000000000000000000000000000 DUP2 MSTORE DUP4 PUSH1 0x2 DUP3 ADD MSTORE DUP3 PUSH1 0x22 DUP3 ADD MSTORE PUSH1 0x42 DUP2 KECCAK256 SWAP2 POP POP SWAP3 SWAP2 POP POP JUMP JUMPDEST PUSH0 DUP1 PUSH0 PUSH32 0x7FFFFFFFFFFFFFFFFFFFFFFFFFFFFFFF5D576E7357A4501DDFE92F46681B20A0 DUP5 PUSH0 SHR GT ISZERO PUSH2 0x1C9B JUMPI PUSH0 PUSH1 0x3 DUP6 SWAP3 POP SWAP3 POP SWAP3 POP PUSH2 0x1D3C JUMP JUMPDEST PUSH0 PUSH1 0x1 DUP9 DUP9 DUP9 DUP9 PUSH1 0x40 MLOAD PUSH0 DUP2 MSTORE PUSH1 0x20 ADD PUSH1 0x40 MSTORE PUSH1 0x40 MLOAD PUSH2 0x1CBE SWAP5 SWAP4 SWAP3 SWAP2 SWAP1 PUSH2 0x2F4C JUMP JUMPDEST PUSH1 0x20 PUSH1 0x40 MLOAD PUSH1 0x20 DUP2 SUB SWAP1 DUP1 DUP5 SUB SWAP1 DUP6 GAS STATICCALL ISZERO DUP1 ISZERO PUSH2 0x1CDE JUMPI RETURNDATASIZE PUSH0 DUP1 RETURNDATACOPY RETURNDATASIZE PUSH0 REVERT JUMPDEST POP POP POP PUSH1 0x20 PUSH1 0x40 MLOAD SUB MLOAD SWAP1 POP PUSH0 PUSH20 0xFFFFFFFFFFFFFFFFFFFFFFFFFFFFFFFFFFFFFFFF AND DUP2 PUSH20 0xFFFFFFFFFFFFFFFFFFFFFFFFFFFFFFFFFFFFFFFF AND SUB PUSH2 0x1D2F JUMPI PUSH0 PUSH1 0x1 PUSH0 DUP1 SHL SWAP4 POP SWAP4 POP SWAP4 POP POP PUSH2 0x1D3C JUMP JUMPDEST DUP1 PUSH0 DUP1 PUSH0 SHL SWAP4 POP SWAP4 POP SWAP4 POP POP JUMPDEST SWAP5 POP SWAP5 POP SWAP5 SWAP2 POP POP JUMP JUMPDEST PUSH0 PUSH1 0x3 DUP2 GT ISZERO PUSH2 0x1D59 JUMPI PUSH2 0x1D58 PUSH2 0x2F8F JUMP JUMPDEST JUMPDEST DUP3 PUSH1 0x3 DUP2 GT ISZERO PUSH2 0x1D6C JUMPI PUSH2 0x1D6B PUSH2 0x2F8F JUMP JUMPDEST JUMPDEST SUB ISZERO PUSH2 0x1EA4 JUMPI PUSH1 0x1 PUSH1 0x3 DUP2 GT ISZERO PUSH2 0x1D86 JUMPI PUSH2 0x1D85 PUSH2 0x2F8F JUMP JUMPDEST JUMPDEST DUP3 PUSH1 0x3 DUP2 GT ISZERO PUSH2 0x1D99 JUMPI PUSH2 0x1D98 PUSH2 0x2F8F JUMP JUMPDEST JUMPDEST SUB PUSH2 0x1DD0 JUMPI PUSH1 0x40 MLOAD PUSH32 0xF645EEDF00000000000000000000000000000000000000000000000000000000 DUP2 MSTORE PUSH1 0x4 ADD PUSH1 0x40 MLOAD DUP1 SWAP2 SUB SWAP1 REVERT JUMPDEST PUSH1 0x2 PUSH1 0x3 DUP2 GT ISZERO PUSH2 0x1DE4 JUMPI PUSH2 0x1DE3 PUSH2 0x2F8F JUMP JUMPDEST JUMPDEST DUP3 PUSH1 0x3 DUP2 GT ISZERO PUSH2 0x1DF7 JUMPI PUSH2 0x1DF6 PUSH2 0x2F8F JUMP JUMPDEST JUMPDEST SUB PUSH2 0x1E3B JUMPI DUP1 PUSH0 SHR PUSH1 0x40 MLOAD PUSH32 0xFCE698F700000000000000000000000000000000000000000000000000000000 DUP2 MSTORE PUSH1 0x4 ADD PUSH2 0x1E32 SWAP2 SWAP1 PUSH2 0x212F JUMP JUMPDEST PUSH1 0x40 MLOAD DUP1 SWAP2 SUB SWAP1 REVERT JUMPDEST PUSH1 0x3 DUP1 DUP2 GT ISZERO PUSH2 0x1E4E JUMPI PUSH2 0x1E4D PUSH2 0x2F8F JUMP JUMPDEST JUMPDEST DUP3 PUSH1 0x3 DUP2 GT ISZERO PUSH2 0x1E61 JUMPI PUSH2 0x1E60 PUSH2 0x2F8F JUMP JUMPDEST JUMPDEST SUB PUSH2 0x1EA3 JUMPI DUP1 PUSH1 0x40 MLOAD PUSH32 0xD78BCE0C00000000000000000000000000000000000000000000000000000000 DUP2 MSTORE PUSH1 0x4 ADD PUSH2 0x1E9A SWAP2 SWAP1 PUSH2 0x232E JUMP JUMPDEST PUSH1 0x40 MLOAD DUP1 SWAP2 SUB SWAP1 REVERT JUMPDEST JUMPDEST POP POP JUMP JUMPDEST PUSH1 0x60 PUSH2 0x1EB5 DUP4 DUP4 PUSH0 PUSH2 0x1F2F JUMP JUMPDEST SWAP1 POP SWAP3 SWAP2 POP POP JUMP JUMPDEST PUSH1 0x60 PUSH0 PUSH2 0x1EC9 DUP4 PUSH2 0x1FF8 JUMP JUMPDEST SWAP1 POP PUSH0 PUSH1 0x20 PUSH8 0xFFFFFFFFFFFFFFFF DUP2 GT ISZERO PUSH2 0x1EE7 JUMPI PUSH2 0x1EE6 PUSH2 0x2AD9 JUMP JUMPDEST JUMPDEST PUSH1 0x40 MLOAD SWAP1 DUP1 DUP3 MSTORE DUP1 PUSH1 0x1F ADD PUSH1 0x1F NOT AND PUSH1 0x20 ADD DUP3 ADD PUSH1 0x40 MSTORE DUP1 ISZERO PUSH2 0x1F19 JUMPI DUP2 PUSH1 0x20 ADD PUSH1 0x1 DUP3 MUL DUP1 CALLDATASIZE DUP4 CALLDATACOPY DUP1 DUP3 ADD SWAP2 POP POP SWAP1 POP JUMPDEST POP SWAP1 POP DUP2 DUP2 MSTORE DUP4 PUSH1 0x20 DUP3 ADD MSTORE DUP1 SWAP3 POP POP POP SWAP2 SWAP1 POP JUMP JUMPDEST PUSH1 0x60 DUP2 SELFBALANCE LT ISZERO PUSH2 0x1F76 JUMPI ADDRESS PUSH1 0x40 MLOAD PUSH32 0xCD78605900000000000000000000000000000000000000000000000000000000 DUP2 MSTORE PUSH1 0x4 ADD PUSH2 0x1F6D SWAP2 SWAP1 PUSH2 0x2632 JUMP JUMPDEST PUSH1 0x40 MLOAD DUP1 SWAP2 SUB SWAP1 REVERT JUMPDEST PUSH0 DUP1 DUP6 PUSH20 0xFFFFFFFFFFFFFFFFFFFFFFFFFFFFFFFFFFFFFFFF AND DUP5 DUP7 PUSH1 0x40 MLOAD PUSH2 0x1F9E SWAP2 SWAP1 PUSH2 0x3000 JUMP JUMPDEST PUSH0 PUSH1 0x40 MLOAD DUP1 DUP4 SUB DUP2 DUP6 DUP8 GAS CALL SWAP3 POP POP POP RETURNDATASIZE DUP1 PUSH0 DUP2 EQ PUSH2 0x1FD8 JUMPI PUSH1 0x40 MLOAD SWAP2 POP PUSH1 0x1F NOT PUSH1 0x3F RETURNDATASIZE ADD AND DUP3 ADD PUSH1 0x40 MSTORE RETURNDATASIZE DUP3 MSTORE RETURNDATASIZE PUSH0 PUSH1 0x20 DUP5 ADD RETURNDATACOPY PUSH2 0x1FDD JUMP JUMPDEST PUSH1 0x60 SWAP2 POP JUMPDEST POP SWAP2 POP SWAP2 POP PUSH2 0x1FED DUP7 DUP4 DUP4 PUSH2 0x2046 JUMP JUMPDEST SWAP3 POP POP POP SWAP4 SWAP3 POP POP POP JUMP JUMPDEST PUSH0 DUP1 PUSH1 0xFF DUP4 PUSH0 SHR AND SWAP1 POP PUSH1 0x1F DUP2 GT ISZERO PUSH2 0x203D JUMPI PUSH1 0x40 MLOAD PUSH32 0xB3512B0C00000000000000000000000000000000000000000000000000000000 DUP2 MSTORE PUSH1 0x4 ADD PUSH1 0x40 MLOAD DUP1 SWAP2 SUB SWAP1 REVERT JUMPDEST DUP1 SWAP2 POP POP SWAP2 SWAP1 POP JUMP JUMPDEST PUSH1 0x60 DUP3 PUSH2 0x205B JUMPI PUSH2 0x2056 DUP3 PUSH2 0x20D3 JUMP JUMPDEST PUSH2 0x20CB JUMP JUMPDEST PUSH0 DUP3 MLOAD EQ DUP1 ISZERO PUSH2 0x2081 JUMPI POP PUSH0 DUP5 PUSH20 0xFFFFFFFFFFFFFFFFFFFFFFFFFFFFFFFFFFFFFFFF AND EXTCODESIZE EQ JUMPDEST ISZERO PUSH2 0x20C3 JUMPI DUP4 PUSH1 0x40 MLOAD PUSH32 0x9996B31500000000000000000000000000000000000000000000000000000000 DUP2 MSTORE PUSH1 0x4 ADD PUSH2 0x20BA SWAP2 SWAP1 PUSH2 0x2632 JUMP JUMPDEST PUSH1 0x40 MLOAD DUP1 SWAP2 SUB SWAP1 REVERT JUMPDEST DUP2 SWAP1 POP PUSH2 0x20CC JUMP JUMPDEST JUMPDEST SWAP4 SWAP3 POP POP POP JUMP JUMPDEST PUSH0 DUP2 MLOAD GT ISZERO PUSH2 0x20E5 JUMPI DUP1 MLOAD DUP1 DUP3 PUSH1 0x20 ADD REVERT JUMPDEST PUSH1 0x40 MLOAD PUSH32 0x1425EA4200000000000000000000000000000000000000000000000000000000 DUP2 MSTORE PUSH1 0x4 ADD PUSH1 0x40 MLOAD DUP1 SWAP2 SUB SWAP1 REVERT JUMPDEST PUSH0 DUP2 SWAP1 POP SWAP2 SWAP1 POP JUMP JUMPDEST PUSH2 0x2129 DUP2 PUSH2 0x2117 JUMP JUMPDEST DUP3 MSTORE POP POP JUMP JUMPDEST PUSH0 PUSH1 0x20 DUP3 ADD SWAP1 POP PUSH2 0x2142 PUSH0 DUP4 ADD DUP5 PUSH2 0x2120 JUMP JUMPDEST SWAP3 SWAP2 POP POP JUMP JUMPDEST PUSH0 DUP2 MLOAD SWAP1 POP SWAP2 SWAP1 POP JUMP JUMPDEST PUSH0 DUP3 DUP3 MSTORE PUSH1 0x20 DUP3 ADD SWAP1 POP SWAP3 SWAP2 POP POP JUMP JUMPDEST PUSH0 JUMPDEST DUP4 DUP2 LT ISZERO PUSH2 0x217F JUMPI DUP1 DUP3 ADD MLOAD DUP2 DUP5 ADD MSTORE PUSH1 0x20 DUP2 ADD SWAP1 POP PUSH2 0x2164 JUMP JUMPDEST PUSH0 DUP5 DUP5 ADD MSTORE POP POP POP POP JUMP JUMPDEST PUSH0 PUSH1 0x1F NOT PUSH1 0x1F DUP4 ADD AND SWAP1 POP SWAP2 SWAP1 POP JUMP JUMPDEST PUSH0 PUSH2 0x21A4 DUP3 PUSH2 0x2148 JUMP JUMPDEST PUSH2 0x21AE DUP2 DUP6 PUSH2 0x2152 JUMP JUMPDEST SWAP4 POP PUSH2 0x21BE DUP2 DUP6 PUSH1 0x20 DUP7 ADD PUSH2 0x2162 JUMP JUMPDEST PUSH2 0x21C7 DUP2 PUSH2 0x218A JUMP JUMPDEST DUP5 ADD SWAP2 POP POP SWAP3 SWAP2 POP POP JUMP JUMPDEST PUSH0 PUSH1 0x20 DUP3 ADD SWAP1 POP DUP2 DUP2 SUB PUSH0 DUP4 ADD MSTORE PUSH2 0x21EA DUP2 DUP5 PUSH2 0x219A JUMP JUMPDEST SWAP1 POP SWAP3 SWAP2 POP POP JUMP JUMPDEST PUSH0 DUP1 REVERT JUMPDEST PUSH2 0x21FF DUP2 PUSH2 0x2117 JUMP JUMPDEST DUP2 EQ PUSH2 0x2209 JUMPI PUSH0 DUP1 REVERT JUMPDEST POP JUMP JUMPDEST PUSH0 DUP2 CALLDATALOAD SWAP1 POP PUSH2 0x221A DUP2 PUSH2 0x21F6 JUMP JUMPDEST SWAP3 SWAP2 POP POP JUMP JUMPDEST PUSH0 PUSH1 0x20 DUP3 DUP5 SUB SLT ISZERO PUSH2 0x2235 JUMPI PUSH2 0x2234 PUSH2 0x21F2 JUMP JUMPDEST JUMPDEST PUSH0 PUSH2 0x2242 DUP5 DUP3 DUP6 ADD PUSH2 0x220C JUMP JUMPDEST SWAP2 POP POP SWAP3 SWAP2 POP POP JUMP JUMPDEST PUSH0 DUP2 ISZERO ISZERO SWAP1 POP SWAP2 SWAP1 POP JUMP JUMPDEST PUSH2 0x225F DUP2 PUSH2 0x224B JUMP JUMPDEST DUP3 MSTORE POP POP JUMP JUMPDEST PUSH0 PUSH1 0x20 DUP3 ADD SWAP1 POP PUSH2 0x2278 PUSH0 DUP4 ADD DUP5 PUSH2 0x2256 JUMP JUMPDEST SWAP3 SWAP2 POP POP JUMP JUMPDEST PUSH0 PUSH20 0xFFFFFFFFFFFFFFFFFFFFFFFFFFFFFFFFFFFFFFFF DUP3 AND SWAP1 POP SWAP2 SWAP1 POP JUMP JUMPDEST PUSH0 PUSH2 0x22A7 DUP3 PUSH2 0x227E JUMP JUMPDEST SWAP1 POP SWAP2 SWAP1 POP JUMP JUMPDEST PUSH2 0x22B7 DUP2 PUSH2 0x229D JUMP JUMPDEST DUP2 EQ PUSH2 0x22C1 JUMPI PUSH0 DUP1 REVERT JUMPDEST POP JUMP JUMPDEST PUSH0 DUP2 CALLDATALOAD SWAP1 POP PUSH2 0x22D2 DUP2 PUSH2 0x22AE JUMP JUMPDEST SWAP3 SWAP2 POP POP JUMP JUMPDEST PUSH0 DUP1 PUSH1 0x40 DUP4 DUP6 SUB SLT ISZERO PUSH2 0x22EE JUMPI PUSH2 0x22ED PUSH2 0x21F2 JUMP JUMPDEST JUMPDEST PUSH0 PUSH2 0x22FB DUP6 DUP3 DUP7 ADD PUSH2 0x22C4 JUMP JUMPDEST SWAP3 POP POP PUSH1 0x20 PUSH2 0x230C DUP6 DUP3 DUP7 ADD PUSH2 0x22C4 JUMP JUMPDEST SWAP2 POP POP SWAP3 POP SWAP3 SWAP1 POP JUMP JUMPDEST PUSH0 DUP2 SWAP1 POP SWAP2 SWAP1 POP JUMP JUMPDEST PUSH2 0x2328 DUP2 PUSH2 0x2316 JUMP JUMPDEST DUP3 MSTORE POP POP JUMP JUMPDEST PUSH0 PUSH1 0x20 DUP3 ADD SWAP1 POP PUSH2 0x2341 PUSH0 DUP4 ADD DUP5 PUSH2 0x231F JUMP JUMPDEST SWAP3 SWAP2 POP POP JUMP JUMPDEST PUSH0 PUSH1 0xFF DUP3 AND SWAP1 POP SWAP2 SWAP1 POP JUMP JUMPDEST PUSH2 0x235C DUP2 PUSH2 0x2347 JUMP JUMPDEST DUP2 EQ PUSH2 0x2366 JUMPI PUSH0 DUP1 REVERT JUMPDEST POP JUMP JUMPDEST PUSH0 DUP2 CALLDATALOAD SWAP1 POP PUSH2 0x2377 DUP2 PUSH2 0x2353 JUMP JUMPDEST SWAP3 SWAP2 POP POP JUMP JUMPDEST PUSH2 0x2386 DUP2 PUSH2 0x2316 JUMP JUMPDEST DUP2 EQ PUSH2 0x2390 JUMPI PUSH0 DUP1 REVERT JUMPDEST POP JUMP JUMPDEST PUSH0 DUP2 CALLDATALOAD SWAP1 POP PUSH2 0x23A1 DUP2 PUSH2 0x237D JUMP JUMPDEST SWAP3 SWAP2 POP POP JUMP JUMPDEST PUSH0 DUP1 PUSH0 DUP1 PUSH0 DUP1 PUSH1 0xC0 DUP8 DUP10 SUB SLT ISZERO PUSH2 0x23C1 JUMPI PUSH2 0x23C0 PUSH2 0x21F2 JUMP JUMPDEST JUMPDEST PUSH0 PUSH2 0x23CE DUP10 DUP3 DUP11 ADD PUSH2 0x22C4 JUMP JUMPDEST SWAP7 POP POP PUSH1 0x20 PUSH2 0x23DF DUP10 DUP3 DUP11 ADD PUSH2 0x220C JUMP JUMPDEST SWAP6 POP POP PUSH1 0x40 PUSH2 0x23F0 DUP10 DUP3 DUP11 ADD PUSH2 0x220C JUMP JUMPDEST SWAP5 POP POP PUSH1 0x60 PUSH2 0x2401 DUP10 DUP3 DUP11 ADD PUSH2 0x2369 JUMP JUMPDEST SWAP4 POP POP PUSH1 0x80 PUSH2 0x2412 DUP10 DUP3 DUP11 ADD PUSH2 0x2393 JUMP JUMPDEST SWAP3 POP POP PUSH1 0xA0 PUSH2 0x2423 DUP10 DUP3 DUP11 ADD PUSH2 0x2393 JUMP JUMPDEST SWAP2 POP POP SWAP3 SWAP6 POP SWAP3 SWAP6 POP SWAP3 SWAP6 JUMP JUMPDEST PUSH2 0x2439 DUP2 PUSH2 0x224B JUMP JUMPDEST DUP2 EQ PUSH2 0x2443 JUMPI PUSH0 DUP1 REVERT JUMPDEST POP JUMP JUMPDEST PUSH0 DUP2 CALLDATALOAD SWAP1 POP PUSH2 0x2454 DUP2 PUSH2 0x2430 JUMP JUMPDEST SWAP3 SWAP2 POP POP JUMP JUMPDEST PUSH0 PUSH1 0x20 DUP3 DUP5 SUB SLT ISZERO PUSH2 0x246F JUMPI PUSH2 0x246E PUSH2 0x21F2 JUMP JUMPDEST JUMPDEST PUSH0 PUSH2 0x247C DUP5 DUP3 DUP6 ADD PUSH2 0x2446 JUMP JUMPDEST SWAP2 POP POP SWAP3 SWAP2 POP POP JUMP JUMPDEST PUSH0 PUSH1 0x20 DUP3 DUP5 SUB SLT ISZERO PUSH2 0x249A JUMPI PUSH2 0x2499 PUSH2 0x21F2 JUMP JUMPDEST JUMPDEST PUSH0 PUSH2 0x24A7 DUP5 DUP3 DUP6 ADD PUSH2 0x22C4 JUMP JUMPDEST SWAP2 POP POP SWAP3 SWAP2 POP POP JUMP JUMPDEST PUSH0 PUSH32 0xFF00000000000000000000000000000000000000000000000000000000000000 DUP3 AND SWAP1 POP SWAP2 SWAP1 POP JUMP JUMPDEST PUSH2 0x24E4 DUP2 PUSH2 0x24B0 JUMP JUMPDEST DUP3 MSTORE POP POP JUMP JUMPDEST PUSH2 0x24F3 DUP2 PUSH2 0x229D JUMP JUMPDEST DUP3 MSTORE POP POP JUMP JUMPDEST PUSH0 DUP2 MLOAD SWAP1 POP SWAP2 SWAP1 POP JUMP JUMPDEST PUSH0 DUP3 DUP3 MSTORE PUSH1 0x20 DUP3 ADD SWAP1 POP SWAP3 SWAP2 POP POP JUMP JUMPDEST PUSH0 DUP2 SWAP1 POP PUSH1 0x20 DUP3 ADD SWAP1 POP SWAP2 SWAP1 POP JUMP JUMPDEST PUSH2 0x252B DUP2 PUSH2 0x2117 JUMP JUMPDEST DUP3 MSTORE POP POP JUMP JUMPDEST PUSH0 PUSH2 0x253C DUP4 DUP4 PUSH2 0x2522 JUMP JUMPDEST PUSH1 0x20 DUP4 ADD SWAP1 POP SWAP3 SWAP2 POP POP JUMP JUMPDEST PUSH0 PUSH1 0x20 DUP3 ADD SWAP1 POP SWAP2 SWAP1 POP JUMP JUMPDEST PUSH0 PUSH2 0x255E DUP3 PUSH2 0x24F9 JUMP JUMPDEST PUSH2 0x2568 DUP2 DUP6 PUSH2 0x2503 JUMP JUMPDEST SWAP4 POP PUSH2 0x2573 DUP4 PUSH2 0x2513 JUMP JUMPDEST DUP1 PUSH0 JUMPDEST DUP4 DUP2 LT ISZERO PUSH2 0x25A3 JUMPI DUP2 MLOAD PUSH2 0x258A DUP9 DUP3 PUSH2 0x2531 JUMP JUMPDEST SWAP8 POP PUSH2 0x2595 DUP4 PUSH2 0x2548 JUMP JUMPDEST SWAP3 POP POP PUSH1 0x1 DUP2 ADD SWAP1 POP PUSH2 0x2576 JUMP JUMPDEST POP DUP6 SWAP4 POP POP POP POP SWAP3 SWAP2 POP POP JUMP JUMPDEST PUSH0 PUSH1 0xE0 DUP3 ADD SWAP1 POP PUSH2 0x25C3 PUSH0 DUP4 ADD DUP11 PUSH2 0x24DB JUMP JUMPDEST DUP2 DUP2 SUB PUSH1 0x20 DUP4 ADD MSTORE PUSH2 0x25D5 DUP2 DUP10 PUSH2 0x219A JUMP JUMPDEST SWAP1 POP DUP2 DUP2 SUB PUSH1 0x40 DUP4 ADD MSTORE PUSH2 0x25E9 DUP2 DUP9 PUSH2 0x219A JUMP JUMPDEST SWAP1 POP PUSH2 0x25F8 PUSH1 0x60 DUP4 ADD DUP8 PUSH2 0x2120 JUMP JUMPDEST PUSH2 0x2605 PUSH1 0x80 DUP4 ADD DUP7 PUSH2 0x24EA JUMP JUMPDEST PUSH2 0x2612 PUSH1 0xA0 DUP4 ADD DUP6 PUSH2 0x231F JUMP JUMPDEST DUP2 DUP2 SUB PUSH1 0xC0 DUP4 ADD MSTORE PUSH2 0x2624 DUP2 DUP5 PUSH2 0x2554 JUMP JUMPDEST SWAP1 POP SWAP9 SWAP8 POP POP POP POP POP POP POP POP JUMP JUMPDEST PUSH0 PUSH1 0x20 DUP3 ADD SWAP1 POP PUSH2 0x2645 PUSH0 DUP4 ADD DUP5 PUSH2 0x24EA JUMP JUMPDEST SWAP3 SWAP2 POP POP JUMP JUMPDEST PUSH0 DUP1 PUSH0 PUSH1 0x60 DUP5 DUP7 SUB SLT ISZERO PUSH2 0x2662 JUMPI PUSH2 0x2661 PUSH2 0x21F2 JUMP JUMPDEST JUMPDEST PUSH0 PUSH2 0x266F DUP7 DUP3 DUP8 ADD PUSH2 0x22C4 JUMP JUMPDEST SWAP4 POP POP PUSH1 0x20 PUSH2 0x2680 DUP7 DUP3 DUP8 ADD PUSH2 0x22C4 JUMP JUMPDEST SWAP3 POP POP PUSH1 0x40 PUSH2 0x2691 DUP7 DUP3 DUP8 ADD PUSH2 0x220C JUMP JUMPDEST SWAP2 POP POP SWAP3 POP SWAP3 POP SWAP3 JUMP JUMPDEST PUSH32 0x4E487B7100000000000000000000000000000000000000000000000000000000 PUSH0 MSTORE PUSH1 0x22 PUSH1 0x4 MSTORE PUSH1 0x24 PUSH0 REVERT JUMPDEST PUSH0 PUSH1 0x2 DUP3 DIV SWAP1 POP PUSH1 0x1 DUP3 AND DUP1 PUSH2 0x26DF JUMPI PUSH1 0x7F DUP3 AND SWAP2 POP JUMPDEST PUSH1 0x20 DUP3 LT DUP2 SUB PUSH2 0x26F2 JUMPI PUSH2 0x26F1 PUSH2 0x269B JUMP JUMPDEST JUMPDEST POP SWAP2 SWAP1 POP JUMP JUMPDEST PUSH0 DUP2 MLOAD SWAP1 POP PUSH2 0x2706 DUP2 PUSH2 0x2353 JUMP JUMPDEST SWAP3 SWAP2 POP POP JUMP JUMPDEST PUSH0 PUSH1 0x20 DUP3 DUP5 SUB SLT ISZERO PUSH2 0x2721 JUMPI PUSH2 0x2720 PUSH2 0x21F2 JUMP JUMPDEST JUMPDEST PUSH0 PUSH2 0x272E DUP5 DUP3 DUP6 ADD PUSH2 0x26F8 JUMP JUMPDEST SWAP2 POP POP SWAP3 SWAP2 POP POP JUMP JUMPDEST PUSH32 0x4E487B7100000000000000000000000000000000000000000000000000000000 PUSH0 MSTORE PUSH1 0x11 PUSH1 0x4 MSTORE PUSH1 0x24 PUSH0 REVERT JUMPDEST PUSH0 DUP2 PUSH1 0x1 SHR SWAP1 POP SWAP2 SWAP1 POP JUMP JUMPDEST PUSH0 DUP1 DUP3 SWAP2 POP DUP4 SWAP1 POP JUMPDEST PUSH1 0x1 DUP6 GT ISZERO PUSH2 0x27B9 JUMPI DUP1 DUP7 DIV DUP2 GT ISZERO PUSH2 0x2795 JUMPI PUSH2 0x2794 PUSH2 0x2737 JUMP JUMPDEST JUMPDEST PUSH1 0x1 DUP6 AND ISZERO PUSH2 0x27A4 JUMPI DUP1 DUP3 MUL SWAP2 POP JUMPDEST DUP1 DUP2 MUL SWAP1 POP PUSH2 0x27B2 DUP6 PUSH2 0x2764 JUMP JUMPDEST SWAP5 POP PUSH2 0x2779 JUMP JUMPDEST SWAP5 POP SWAP5 SWAP3 POP POP POP JUMP JUMPDEST PUSH0 DUP3 PUSH2 0x27D1 JUMPI PUSH1 0x1 SWAP1 POP PUSH2 0x288C JUMP JUMPDEST DUP2 PUSH2 0x27DE JUMPI PUSH0 SWAP1 POP PUSH2 0x288C JUMP JUMPDEST DUP2 PUSH1 0x1 DUP2 EQ PUSH2 0x27F4 JUMPI PUSH1 0x2 DUP2 EQ PUSH2 0x27FE JUMPI PUSH2 0x282D JUMP JUMPDEST PUSH1 0x1 SWAP2 POP POP PUSH2 0x288C JUMP JUMPDEST PUSH1 0xFF DUP5 GT ISZERO PUSH2 0x2810 JUMPI PUSH2 0x280F PUSH2 0x2737 JUMP JUMPDEST JUMPDEST DUP4 PUSH1 0x2 EXP SWAP2 POP DUP5 DUP3 GT ISZERO PUSH2 0x2827 JUMPI PUSH2 0x2826 PUSH2 0x2737 JUMP JUMPDEST JUMPDEST POP PUSH2 0x288C JUMP JUMPDEST POP PUSH1 0x20 DUP4 LT PUSH2 0x133 DUP4 LT AND PUSH1 0x4E DUP5 LT PUSH1 0xB DUP5 LT AND OR ISZERO PUSH2 0x2862 JUMPI DUP3 DUP3 EXP SWAP1 POP DUP4 DUP2 GT ISZERO PUSH2 0x285D JUMPI PUSH2 0x285C PUSH2 0x2737 JUMP JUMPDEST JUMPDEST PUSH2 0x288C JUMP JUMPDEST PUSH2 0x286F DUP5 DUP5 DUP5 PUSH1 0x1 PUSH2 0x2770 JUMP JUMPDEST SWAP3 POP SWAP1 POP DUP2 DUP5 DIV DUP2 GT ISZERO PUSH2 0x2886 JUMPI PUSH2 0x2885 PUSH2 0x2737 JUMP JUMPDEST JUMPDEST DUP2 DUP2 MUL SWAP1 POP JUMPDEST SWAP4 SWAP3 POP POP POP JUMP JUMPDEST PUSH0 PUSH2 0x289D DUP3 PUSH2 0x2117 JUMP JUMPDEST SWAP2 POP PUSH2 0x28A8 DUP4 PUSH2 0x2347 JUMP JUMPDEST SWAP3 POP PUSH2 0x28D5 PUSH32 0xFFFFFFFFFFFFFFFFFFFFFFFFFFFFFFFFFFFFFFFFFFFFFFFFFFFFFFFFFFFFFFFF DUP5 DUP5 PUSH2 0x27C2 JUMP JUMPDEST SWAP1 POP SWAP3 SWAP2 POP POP JUMP JUMPDEST PUSH0 PUSH2 0x28E7 DUP3 PUSH2 0x2117 JUMP JUMPDEST SWAP2 POP PUSH2 0x28F2 DUP4 PUSH2 0x2117 JUMP JUMPDEST SWAP3 POP DUP3 DUP3 MUL PUSH2 0x2900 DUP2 PUSH2 0x2117 JUMP JUMPDEST SWAP2 POP DUP3 DUP3 DIV DUP5 EQ DUP4 ISZERO OR PUSH2 0x2917 JUMPI PUSH2 0x2916 PUSH2 0x2737 JUMP JUMPDEST JUMPDEST POP SWAP3 SWAP2 POP POP JUMP JUMPDEST PUSH32 0x4E487B7100000000000000000000000000000000000000000000000000000000 PUSH0 MSTORE PUSH1 0x12 PUSH1 0x4 MSTORE PUSH1 0x24 PUSH0 REVERT JUMPDEST PUSH0 PUSH2 0x2955 DUP3 PUSH2 0x2117 JUMP JUMPDEST SWAP2 POP PUSH2 0x2960 DUP4 PUSH2 0x2117 JUMP JUMPDEST SWAP3 POP DUP3 PUSH2 0x2970 JUMPI PUSH2 0x296F PUSH2 0x291E JUMP JUMPDEST JUMPDEST DUP3 DUP3 DIV SWAP1 POP SWAP3 SWAP2 POP POP JUMP JUMPDEST PUSH32 0x796F75206172652073656E64696E6720746F207A65726F206164647265737300 PUSH0 DUP3 ADD MSTORE POP JUMP JUMPDEST PUSH0 PUSH2 0x29AF PUSH1 0x1F DUP4 PUSH2 0x2152 JUMP JUMPDEST SWAP2 POP PUSH2 0x29BA DUP3 PUSH2 0x297B JUMP JUMPDEST PUSH1 0x20 DUP3 ADD SWAP1 POP SWAP2 SWAP1 POP JUMP JUMPDEST PUSH0 PUSH1 0x20 DUP3 ADD SWAP1 POP DUP2 DUP2 SUB PUSH0 DUP4 ADD MSTORE PUSH2 0x29DC DUP2 PUSH2 0x29A3 JUMP JUMPDEST SWAP1 POP SWAP2 SWAP1 POP JUMP JUMPDEST PUSH32 0x636F6E747261637420667265657A656400000000000000000000000000000000 PUSH0 DUP3 ADD MSTORE POP JUMP JUMPDEST PUSH0 PUSH2 0x2A17 PUSH1 0x10 DUP4 PUSH2 0x2152 JUMP JUMPDEST SWAP2 POP PUSH2 0x2A22 DUP3 PUSH2 0x29E3 JUMP JUMPDEST PUSH1 0x20 DUP3 ADD SWAP1 POP SWAP2 SWAP1 POP JUMP JUMPDEST PUSH0 PUSH1 0x20 DUP3 ADD SWAP1 POP DUP2 DUP2 SUB PUSH0 DUP4 ADD MSTORE PUSH2 0x2A44 DUP2 PUSH2 0x2A0B JUMP JUMPDEST SWAP1 POP SWAP2 SWAP1 POP JUMP JUMPDEST PUSH32 0x706F696E747320746F20636C61696D206C657373207468616E206D696E706F69 PUSH0 DUP3 ADD MSTORE PUSH32 0x6E74730000000000000000000000000000000000000000000000000000000000 PUSH1 0x20 DUP3 ADD MSTORE POP JUMP JUMPDEST PUSH0 PUSH2 0x2AA5 PUSH1 0x23 DUP4 PUSH2 0x2152 JUMP JUMPDEST SWAP2 POP PUSH2 0x2AB0 DUP3 PUSH2 0x2A4B JUMP JUMPDEST PUSH1 0x40 DUP3 ADD SWAP1 POP SWAP2 SWAP1 POP JUMP JUMPDEST PUSH0 PUSH1 0x20 DUP3 ADD SWAP1 POP DUP2 DUP2 SUB PUSH0 DUP4 ADD MSTORE PUSH2 0x2AD2 DUP2 PUSH2 0x2A99 JUMP JUMPDEST SWAP1 POP SWAP2 SWAP1 POP JUMP JUMPDEST PUSH32 0x4E487B7100000000000000000000000000000000000000000000000000000000 PUSH0 MSTORE PUSH1 0x41 PUSH1 0x4 MSTORE PUSH1 0x24 PUSH0 REVERT JUMPDEST PUSH0 DUP2 MLOAD SWAP1 POP PUSH2 0x2B14 DUP2 PUSH2 0x21F6 JUMP JUMPDEST SWAP3 SWAP2 POP POP JUMP JUMPDEST PUSH0 PUSH1 0x20 DUP3 DUP5 SUB SLT ISZERO PUSH2 0x2B2F JUMPI PUSH2 0x2B2E PUSH2 0x21F2 JUMP JUMPDEST JUMPDEST PUSH0 PUSH2 0x2B3C DUP5 DUP3 DUP6 ADD PUSH2 0x2B06 JUMP JUMPDEST SWAP2 POP POP SWAP3 SWAP2 POP POP JUMP JUMPDEST PUSH0 PUSH2 0x2B4F DUP3 PUSH2 0x2117 JUMP JUMPDEST SWAP2 POP PUSH2 0x2B5A DUP4 PUSH2 0x2117 JUMP JUMPDEST SWAP3 POP DUP3 DUP3 ADD SWAP1 POP DUP1 DUP3 GT ISZERO PUSH2 0x2B72 JUMPI PUSH2 0x2B71 PUSH2 0x2737 JUMP JUMPDEST JUMPDEST SWAP3 SWAP2 POP POP JUMP JUMPDEST PUSH0 PUSH2 0x2B82 DUP3 PUSH2 0x2117 JUMP JUMPDEST SWAP2 POP PUSH2 0x2B8D DUP4 PUSH2 0x2117 JUMP JUMPDEST SWAP3 POP DUP3 DUP3 SUB SWAP1 POP DUP2 DUP2 GT ISZERO PUSH2 0x2BA5 JUMPI PUSH2 0x2BA4 PUSH2 0x2737 JUMP JUMPDEST JUMPDEST SWAP3 SWAP2 POP POP JUMP JUMPDEST PUSH32 0x6E6F206E6577206465706F736974206164646564000000000000000000000000 PUSH0 DUP3 ADD MSTORE POP JUMP JUMPDEST PUSH0 PUSH2 0x2BDF PUSH1 0x14 DUP4 PUSH2 0x2152 JUMP JUMPDEST SWAP2 POP PUSH2 0x2BEA DUP3 PUSH2 0x2BAB JUMP JUMPDEST PUSH1 0x20 DUP3 ADD SWAP1 POP SWAP2 SWAP1 POP JUMP JUMPDEST PUSH0 PUSH1 0x20 DUP3 ADD SWAP1 POP DUP2 DUP2 SUB PUSH0 DUP4 ADD MSTORE PUSH2 0x2C0C DUP2 PUSH2 0x2BD3 JUMP JUMPDEST SWAP1 POP SWAP2 SWAP1 POP JUMP JUMPDEST PUSH32 0x63616E742073656E64207A65726F20616D6F756E740000000000000000000000 PUSH0 DUP3 ADD MSTORE POP JUMP JUMPDEST PUSH0 PUSH2 0x2C47 PUSH1 0x15 DUP4 PUSH2 0x2152 JUMP JUMPDEST SWAP2 POP PUSH2 0x2C52 DUP3 PUSH2 0x2C13 JUMP JUMPDEST PUSH1 0x20 DUP3 ADD SWAP1 POP SWAP2 SWAP1 POP JUMP JUMPDEST PUSH0 PUSH1 0x20 DUP3 ADD SWAP1 POP DUP2 DUP2 SUB PUSH0 DUP4 ADD MSTORE PUSH2 0x2C74 DUP2 PUSH2 0x2C3B JUMP JUMPDEST SWAP1 POP SWAP2 SWAP1 POP JUMP JUMPDEST PUSH0 PUSH1 0x40 DUP3 ADD SWAP1 POP PUSH2 0x2C8E PUSH0 DUP4 ADD DUP6 PUSH2 0x24EA JUMP JUMPDEST PUSH2 0x2C9B PUSH1 0x20 DUP4 ADD DUP5 PUSH2 0x2120 JUMP JUMPDEST SWAP4 SWAP3 POP POP POP JUMP JUMPDEST PUSH0 DUP2 MLOAD SWAP1 POP PUSH2 0x2CB0 DUP2 PUSH2 0x2430 JUMP JUMPDEST SWAP3 SWAP2 POP POP JUMP JUMPDEST PUSH0 PUSH1 0x20 DUP3 DUP5 SUB SLT ISZERO PUSH2 0x2CCB JUMPI PUSH2 0x2CCA PUSH2 0x21F2 JUMP JUMPDEST JUMPDEST PUSH0 PUSH2 0x2CD8 DUP5 DUP3 DUP6 ADD PUSH2 0x2CA2 JUMP JUMPDEST SWAP2 POP POP SWAP3 SWAP2 POP POP JUMP JUMPDEST PUSH32 0x6E6F7420656E6F75676820706F696E7473000000000000000000000000000000 PUSH0 DUP3 ADD MSTORE POP JUMP JUMPDEST PUSH0 PUSH2 0x2D15 PUSH1 0x11 DUP4 PUSH2 0x2152 JUMP JUMPDEST SWAP2 POP PUSH2 0x2D20 DUP3 PUSH2 0x2CE1 JUMP JUMPDEST PUSH1 0x20 DUP3 ADD SWAP1 POP SWAP2 SWAP1 POP JUMP JUMPDEST PUSH0 PUSH1 0x20 DUP3 ADD SWAP1 POP DUP2 DUP2 SUB PUSH0 DUP4 ADD MSTORE PUSH2 0x2D42 DUP2 PUSH2 0x2D09 JUMP JUMPDEST SWAP1 POP SWAP2 SWAP1 POP JUMP JUMPDEST PUSH32 0x706F696E747320746F2073776170206C657373207468616E206D696E706F696E PUSH0 DUP3 ADD MSTORE PUSH32 0x7473000000000000000000000000000000000000000000000000000000000000 PUSH1 0x20 DUP3 ADD MSTORE POP JUMP JUMPDEST PUSH0 PUSH2 0x2DA3 PUSH1 0x22 DUP4 PUSH2 0x2152 JUMP JUMPDEST SWAP2 POP PUSH2 0x2DAE DUP3 PUSH2 0x2D49 JUMP JUMPDEST PUSH1 0x40 DUP3 ADD SWAP1 POP SWAP2 SWAP1 POP JUMP JUMPDEST PUSH0 PUSH1 0x20 DUP3 ADD SWAP1 POP DUP2 DUP2 SUB PUSH0 DUP4 ADD MSTORE PUSH2 0x2DD0 DUP2 PUSH2 0x2D97 JUMP JUMPDEST SWAP1 POP SWAP2 SWAP1 POP JUMP JUMPDEST PUSH0 PUSH1 0x60 DUP3 ADD SWAP1 POP PUSH2 0x2DEA PUSH0 DUP4 ADD DUP7 PUSH2 0x2120 JUMP JUMPDEST PUSH2 0x2DF7 PUSH1 0x20 DUP4 ADD DUP6 PUSH2 0x2120 JUMP JUMPDEST PUSH2 0x2E04 PUSH1 0x40 DUP4 ADD DUP5 PUSH2 0x2120 JUMP JUMPDEST SWAP5 SWAP4 POP POP POP POP JUMP JUMPDEST PUSH32 0x7369672075736564000000000000000000000000000000000000000000000000 PUSH0 DUP3 ADD MSTORE POP JUMP JUMPDEST PUSH0 PUSH2 0x2E40 PUSH1 0x8 DUP4 PUSH2 0x2152 JUMP JUMPDEST SWAP2 POP PUSH2 0x2E4B DUP3 PUSH2 0x2E0C JUMP JUMPDEST PUSH1 0x20 DUP3 ADD SWAP1 POP SWAP2 SWAP1 POP JUMP JUMPDEST PUSH0 PUSH1 0x20 DUP3 ADD SWAP1 POP DUP2 DUP2 SUB PUSH0 DUP4 ADD MSTORE PUSH2 0x2E6D DUP2 PUSH2 0x2E34 JUMP JUMPDEST SWAP1 POP SWAP2 SWAP1 POP JUMP JUMPDEST PUSH0 PUSH1 0xA0 DUP3 ADD SWAP1 POP PUSH2 0x2E87 PUSH0 DUP4 ADD DUP9 PUSH2 0x231F JUMP JUMPDEST PUSH2 0x2E94 PUSH1 0x20 DUP4 ADD DUP8 PUSH2 0x24EA JUMP JUMPDEST PUSH2 0x2EA1 PUSH1 0x40 DUP4 ADD DUP7 PUSH2 0x24EA JUMP JUMPDEST PUSH2 0x2EAE PUSH1 0x60 DUP4 ADD DUP6 PUSH2 0x2120 JUMP JUMPDEST PUSH2 0x2EBB PUSH1 0x80 DUP4 ADD DUP5 PUSH2 0x2120 JUMP JUMPDEST SWAP7 SWAP6 POP POP POP POP POP POP JUMP JUMPDEST PUSH0 PUSH1 0x40 DUP3 ADD SWAP1 POP PUSH2 0x2ED8 PUSH0 DUP4 ADD DUP6 PUSH2 0x24EA JUMP JUMPDEST PUSH2 0x2EE5 PUSH1 0x20 DUP4 ADD DUP5 PUSH2 0x24EA JUMP JUMPDEST SWAP4 SWAP3 POP POP POP JUMP JUMPDEST PUSH0 PUSH1 0xA0 DUP3 ADD SWAP1 POP PUSH2 0x2EFF PUSH0 DUP4 ADD DUP9 PUSH2 0x231F JUMP JUMPDEST PUSH2 0x2F0C PUSH1 0x20 DUP4 ADD DUP8 PUSH2 0x231F JUMP JUMPDEST PUSH2 0x2F19 PUSH1 0x40 DUP4 ADD DUP7 PUSH2 0x231F JUMP JUMPDEST PUSH2 0x2F26 PUSH1 0x60 DUP4 ADD DUP6 PUSH2 0x2120 JUMP JUMPDEST PUSH2 0x2F33 PUSH1 0x80 DUP4 ADD DUP5 PUSH2 0x24EA JUMP JUMPDEST SWAP7 SWAP6 POP POP POP POP POP POP JUMP JUMPDEST PUSH2 0x2F46 DUP2 PUSH2 0x2347 JUMP JUMPDEST DUP3 MSTORE POP POP JUMP JUMPDEST PUSH0 PUSH1 0x80 DUP3 ADD SWAP1 POP PUSH2 0x2F5F PUSH0 DUP4 ADD DUP8 PUSH2 0x231F JUMP JUMPDEST PUSH2 0x2F6C PUSH1 0x20 DUP4 ADD DUP7 PUSH2 0x2F3D JUMP JUMPDEST PUSH2 0x2F79 PUSH1 0x40 DUP4 ADD DUP6 PUSH2 0x231F JUMP JUMPDEST PUSH2 0x2F86 PUSH1 0x60 DUP4 ADD DUP5 PUSH2 0x231F JUMP JUMPDEST SWAP6 SWAP5 POP POP POP POP POP JUMP JUMPDEST PUSH32 0x4E487B7100000000000000000000000000000000000000000000000000000000 PUSH0 MSTORE PUSH1 0x21 PUSH1 0x4 MSTORE PUSH1 0x24 PUSH0 REVERT JUMPDEST PUSH0 DUP2 MLOAD SWAP1 POP SWAP2 SWAP1 POP JUMP JUMPDEST PUSH0 DUP2 SWAP1 POP SWAP3 SWAP2 POP POP JUMP JUMPDEST PUSH0 PUSH2 0x2FDA DUP3 PUSH2 0x2FBC JUMP JUMPDEST PUSH2 0x2FE4 DUP2 DUP6 PUSH2 0x2FC6 JUMP JUMPDEST SWAP4 POP PUSH2 0x2FF4 DUP2 DUP6 PUSH1 0x20 DUP7 ADD PUSH2 0x2162 JUMP JUMPDEST DUP1 DUP5 ADD SWAP2 POP POP SWAP3 SWAP2 POP POP JUMP JUMPDEST PUSH0 PUSH2 0x300B DUP3 DUP5 PUSH2 0x2FD0 JUMP JUMPDEST SWAP2 POP DUP2 SWAP1 POP SWAP3 SWAP2 POP POP JUMP INVALID LOG2 PUSH5 0x6970667358 0x22 SLT KECCAK256 0xBD KECCAK256 0x4D 0x29 JUMP SWAP3 0xB9 SWAP1 LOG4 EQ 0xEF STATICCALL 0xC6 PUSH1 0xBF SWAP14 LOG1 0x1E CALLDATASIZE ADD 0xFC 0xF SIGNEXTEND SLT 0xD6 DUP5 PUSH15 0xEF59E5EAE864736F6C634300081600 CALLER LOG2 PUSH5 0x6970667358 0x22 SLT KECCAK256 0x29 PREVRANDAO DUP7 ORIGIN STOP CALL 0xE7 0xC1 0xEB 0xDC ADD 0xFC 0xAB 0xE7 SWAP8 0xC9 PUSH16 0xF86FA83CBAB34D3899C5759C11905C64 PUSH20 0x6F6C634300081600330000000000000000000000 "
		},
		"gasEstimates": {
			"creation": {
				"codeDepositCost": "4988600",
				"executionCost": "infinite",
				"totalCost": "infinite"
			},
			"external": {
				"TranferToVault(address,uint256)": "infinite",
				"allowance(address,address)": "infinite",
				"approve(address,uint256)": "infinite",
				"balanceOf(address)": "2940",
				"burn(address,uint256)": "infinite",
				"counterId()": "2447",
				"createVault(string,address,address,uint256)": "infinite",
				"decimals()": "405",
				"mint(address,uint256)": "infinite",
				"name()": "infinite",
				"owner()": "2560",
				"renounceOwnership()": "infinite",
				"setApproveToburn(address,bool)": "infinite",
				"setVAultAdmin(address)": "infinite",
				"symbol()": "infinite",
				"totalSupply()": "2544",
				"transfer(address,uint256)": "infinite",
				"transferFrom(address,address,uint256)": "infinite",
				"transferOwnership(address)": "infinite",
				"vaultAdmin()": "2596",
				"vaultIdentifcation(uint256)": "infinite"
			},
			"internal": {
				"_TranferToVault(address,uint256)": "infinite",
				"_setApproveToburn(address,bool)": "24373"
			}
		},
		"methodIdentifiers": {
			"TranferToVault(address,uint256)": "d9f0bdd1",
			"allowance(address,address)": "dd62ed3e",
			"approve(address,uint256)": "095ea7b3",
			"balanceOf(address)": "70a08231",
			"burn(address,uint256)": "9dc29fac",
			"counterId()": "d0a5e51e",
			"createVault(string,address,address,uint256)": "ea83cbf4",
			"decimals()": "313ce567",
			"mint(address,uint256)": "40c10f19",
			"name()": "06fdde03",
			"owner()": "8da5cb5b",
			"renounceOwnership()": "715018a6",
			"setApproveToburn(address,bool)": "2850fa6f",
			"setVAultAdmin(address)": "05ac59f1",
			"symbol()": "95d89b41",
			"totalSupply()": "18160ddd",
			"transfer(address,uint256)": "a9059cbb",
			"transferFrom(address,address,uint256)": "23b872dd",
			"transferOwnership(address)": "f2fde38b",
			"vaultAdmin()": "e7f6f225",
			"vaultIdentifcation(uint256)": "09b77eef"
		}
	},
	"abi": [
		{
			"inputs": [
				{
					"internalType": "address",
					"name": "addvaultadmin",
					"type": "address"
				}
			],
			"stateMutability": "nonpayable",
			"type": "constructor"
		},
		{
			"inputs": [
				{
					"internalType": "address",
					"name": "spender",
					"type": "address"
				},
				{
					"internalType": "uint256",
					"name": "allowance",
					"type": "uint256"
				},
				{
					"internalType": "uint256",
					"name": "needed",
					"type": "uint256"
				}
			],
			"name": "ERC20InsufficientAllowance",
			"type": "error"
		},
		{
			"inputs": [
				{
					"internalType": "address",
					"name": "sender",
					"type": "address"
				},
				{
					"internalType": "uint256",
					"name": "balance",
					"type": "uint256"
				},
				{
					"internalType": "uint256",
					"name": "needed",
					"type": "uint256"
				}
			],
			"name": "ERC20InsufficientBalance",
			"type": "error"
		},
		{
			"inputs": [
				{
					"internalType": "address",
					"name": "approver",
					"type": "address"
				}
			],
			"name": "ERC20InvalidApprover",
			"type": "error"
		},
		{
			"inputs": [
				{
					"internalType": "address",
					"name": "receiver",
					"type": "address"
				}
			],
			"name": "ERC20InvalidReceiver",
			"type": "error"
		},
		{
			"inputs": [
				{
					"internalType": "address",
					"name": "sender",
					"type": "address"
				}
			],
			"name": "ERC20InvalidSender",
			"type": "error"
		},
		{
			"inputs": [
				{
					"internalType": "address",
					"name": "spender",
					"type": "address"
				}
			],
			"name": "ERC20InvalidSpender",
			"type": "error"
		},
		{
			"inputs": [
				{
					"internalType": "address",
					"name": "owner",
					"type": "address"
				}
			],
			"name": "OwnableInvalidOwner",
			"type": "error"
		},
		{
			"inputs": [
				{
					"internalType": "address",
					"name": "account",
					"type": "address"
				}
			],
			"name": "OwnableUnauthorizedAccount",
			"type": "error"
		},
		{
			"anonymous": false,
			"inputs": [
				{
					"indexed": true,
					"internalType": "address",
					"name": "owner",
					"type": "address"
				},
				{
					"indexed": true,
					"internalType": "address",
					"name": "spender",
					"type": "address"
				},
				{
					"indexed": false,
					"internalType": "uint256",
					"name": "value",
					"type": "uint256"
				}
			],
			"name": "Approval",
			"type": "event"
		},
		{
			"anonymous": false,
			"inputs": [
				{
					"indexed": true,
					"internalType": "address",
					"name": "previousOwner",
					"type": "address"
				},
				{
					"indexed": true,
					"internalType": "address",
					"name": "newOwner",
					"type": "address"
				}
			],
			"name": "OwnershipTransferred",
			"type": "event"
		},
		{
			"anonymous": false,
			"inputs": [
				{
					"indexed": true,
					"internalType": "address",
					"name": "from",
					"type": "address"
				},
				{
					"indexed": true,
					"internalType": "address",
					"name": "to",
					"type": "address"
				},
				{
					"indexed": false,
					"internalType": "uint256",
					"name": "value",
					"type": "uint256"
				}
			],
			"name": "Transfer",
			"type": "event"
		},
		{
			"inputs": [
				{
					"internalType": "address",
					"name": "Vaultadd",
					"type": "address"
				},
				{
					"internalType": "uint256",
					"name": "amount",
					"type": "uint256"
				}
			],
			"name": "TranferToVault",
			"outputs": [],
			"stateMutability": "nonpayable",
			"type": "function"
		},
		{
			"inputs": [
				{
					"internalType": "address",
					"name": "owner",
					"type": "address"
				},
				{
					"internalType": "address",
					"name": "spender",
					"type": "address"
				}
			],
			"name": "allowance",
			"outputs": [
				{
					"internalType": "uint256",
					"name": "",
					"type": "uint256"
				}
			],
			"stateMutability": "view",
			"type": "function"
		},
		{
			"inputs": [
				{
					"internalType": "address",
					"name": "spender",
					"type": "address"
				},
				{
					"internalType": "uint256",
					"name": "value",
					"type": "uint256"
				}
			],
			"name": "approve",
			"outputs": [
				{
					"internalType": "bool",
					"name": "",
					"type": "bool"
				}
			],
			"stateMutability": "nonpayable",
			"type": "function"
		},
		{
			"inputs": [
				{
					"internalType": "address",
					"name": "account",
					"type": "address"
				}
			],
			"name": "balanceOf",
			"outputs": [
				{
					"internalType": "uint256",
					"name": "",
					"type": "uint256"
				}
			],
			"stateMutability": "view",
			"type": "function"
		},
		{
			"inputs": [
				{
					"internalType": "address",
					"name": "account",
					"type": "address"
				},
				{
					"internalType": "uint256",
					"name": "value",
					"type": "uint256"
				}
			],
			"name": "burn",
			"outputs": [],
			"stateMutability": "nonpayable",
			"type": "function"
		},
		{
			"inputs": [],
			"name": "counterId",
			"outputs": [
				{
					"internalType": "uint256",
					"name": "",
					"type": "uint256"
				}
			],
			"stateMutability": "view",
			"type": "function"
		},
		{
			"inputs": [
				{
					"internalType": "string",
					"name": "vaultName",
					"type": "string"
				},
				{
					"internalType": "address",
					"name": "vaultOwner",
					"type": "address"
				},
				{
					"internalType": "address",
					"name": "paymentAddress",
					"type": "address"
				},
				{
					"internalType": "uint256",
					"name": "pointsAmountForVault",
					"type": "uint256"
				}
			],
			"name": "createVault",
			"outputs": [
				{
					"internalType": "bool",
					"name": "",
					"type": "bool"
				}
			],
			"stateMutability": "nonpayable",
			"type": "function"
		},
		{
			"inputs": [],
			"name": "decimals",
			"outputs": [
				{
					"internalType": "uint8",
					"name": "",
					"type": "uint8"
				}
			],
			"stateMutability": "view",
			"type": "function"
		},
		{
			"inputs": [
				{
					"internalType": "address",
					"name": "add",
					"type": "address"
				},
				{
					"internalType": "uint256",
					"name": "amount",
					"type": "uint256"
				}
			],
			"name": "mint",
			"outputs": [],
			"stateMutability": "nonpayable",
			"type": "function"
		},
		{
			"inputs": [],
			"name": "name",
			"outputs": [
				{
					"internalType": "string",
					"name": "",
					"type": "string"
				}
			],
			"stateMutability": "view",
			"type": "function"
		},
		{
			"inputs": [],
			"name": "owner",
			"outputs": [
				{
					"internalType": "address",
					"name": "",
					"type": "address"
				}
			],
			"stateMutability": "view",
			"type": "function"
		},
		{
			"inputs": [],
			"name": "renounceOwnership",
			"outputs": [],
			"stateMutability": "nonpayable",
			"type": "function"
		},
		{
			"inputs": [
				{
					"internalType": "address",
					"name": "approvedAdd",
					"type": "address"
				},
				{
					"internalType": "bool",
					"name": "_approve",
					"type": "bool"
				}
			],
			"name": "setApproveToburn",
			"outputs": [],
			"stateMutability": "nonpayable",
			"type": "function"
		},
		{
			"inputs": [
				{
					"internalType": "address",
					"name": "addvaultadmin",
					"type": "address"
				}
			],
			"name": "setVAultAdmin",
			"outputs": [],
			"stateMutability": "nonpayable",
			"type": "function"
		},
		{
			"inputs": [],
			"name": "symbol",
			"outputs": [
				{
					"internalType": "string",
					"name": "",
					"type": "string"
				}
			],
			"stateMutability": "view",
			"type": "function"
		},
		{
			"inputs": [],
			"name": "totalSupply",
			"outputs": [
				{
					"internalType": "uint256",
					"name": "",
					"type": "uint256"
				}
			],
			"stateMutability": "view",
			"type": "function"
		},
		{
			"inputs": [
				{
					"internalType": "address",
					"name": "to",
					"type": "address"
				},
				{
					"internalType": "uint256",
					"name": "value",
					"type": "uint256"
				}
			],
			"name": "transfer",
			"outputs": [
				{
					"internalType": "bool",
					"name": "",
					"type": "bool"
				}
			],
			"stateMutability": "nonpayable",
			"type": "function"
		},
		{
			"inputs": [
				{
					"internalType": "address",
					"name": "from",
					"type": "address"
				},
				{
					"internalType": "address",
					"name": "to",
					"type": "address"
				},
				{
					"internalType": "uint256",
					"name": "value",
					"type": "uint256"
				}
			],
			"name": "transferFrom",
			"outputs": [
				{
					"internalType": "bool",
					"name": "",
					"type": "bool"
				}
			],
			"stateMutability": "nonpayable",
			"type": "function"
		},
		{
			"inputs": [
				{
					"internalType": "address",
					"name": "newOwner",
					"type": "address"
				}
			],
			"name": "transferOwnership",
			"outputs": [],
			"stateMutability": "nonpayable",
			"type": "function"
		},
		{
			"inputs": [],
			"name": "vaultAdmin",
			"outputs": [
				{
					"internalType": "address",
					"name": "",
					"type": "address"
				}
			],
			"stateMutability": "view",
			"type": "function"
		},
		{
			"inputs": [
				{
					"internalType": "uint256",
					"name": "",
					"type": "uint256"
				}
			],
			"name": "vaultIdentifcation",
			"outputs": [
				{
					"internalType": "address",
					"name": "vaultAdrress",
					"type": "address"
				},
				{
					"internalType": "string",
					"name": "name",
					"type": "string"
				}
			],
			"stateMutability": "view",
			"type": "function"
		}
	]
}